{
  "contractName": "AutoHarvester",
  "abi": [
    {
      "inputs": [],
      "stateMutability": "nonpayable",
      "type": "constructor"
    },
    {
      "inputs": [],
      "name": "VAULT",
      "outputs": [
        {
          "internalType": "contract DjinnBottleUSDC",
          "name": "",
          "type": "address"
        }
      ],
      "stateMutability": "view",
      "type": "function",
      "constant": true
    },
    {
      "stateMutability": "payable",
      "type": "receive",
      "payable": true
    },
    {
      "inputs": [
        {
          "internalType": "address",
          "name": "_vault",
          "type": "address"
        }
      ],
      "name": "addVault",
      "outputs": [],
      "stateMutability": "nonpayable",
      "type": "function"
    },
    {
      "inputs": [],
      "name": "autoHarvest",
      "outputs": [],
      "stateMutability": "nonpayable",
      "type": "function"
    },
    {
      "inputs": [
        {
          "internalType": "uint256",
          "name": "amount",
          "type": "uint256"
        }
      ],
      "name": "giveGasFees",
      "outputs": [],
      "stateMutability": "nonpayable",
      "type": "function"
    }
  ],
  "bytecode": "0x608060405234801561001057600080fd5b50336000806101000a81548173ffffffffffffffffffffffffffffffffffffffff021916908373ffffffffffffffffffffffffffffffffffffffff160217905550610748806100606000396000f3fe6080604052600436106100435760003560e01c8063256b5a021461004f578063411557d1146100785780635ae5e7f0146100a35780637695b4ff146100ba5761004a565b3661004a57005b600080fd5b34801561005b57600080fd5b50610076600480360381019061007191906104b3565b6100e3565b005b34801561008457600080fd5b5061008d6101b5565b60405161009a919061053f565b60405180910390f35b3480156100af57600080fd5b506100b86101db565b005b3480156100c657600080fd5b506100e160048036038101906100dc9190610590565b6102ed565b005b60008054906101000a900473ffffffffffffffffffffffffffffffffffffffff1673ffffffffffffffffffffffffffffffffffffffff163373ffffffffffffffffffffffffffffffffffffffff1614610171576040517f08c379a00000000000000000000000000000000000000000000000000000000081526004016101689061061a565b60405180910390fd5b80600160006101000a81548173ffffffffffffffffffffffffffffffffffffffff021916908373ffffffffffffffffffffffffffffffffffffffff16021790555050565b600160009054906101000a900473ffffffffffffffffffffffffffffffffffffffff1681565b60008054906101000a900473ffffffffffffffffffffffffffffffffffffffff1673ffffffffffffffffffffffffffffffffffffffff163373ffffffffffffffffffffffffffffffffffffffff1614610269576040517f08c379a00000000000000000000000000000000000000000000000000000000081526004016102609061061a565b60405180910390fd5b600160009054906101000a900473ffffffffffffffffffffffffffffffffffffffff1673ffffffffffffffffffffffffffffffffffffffff1663bfe6cc1a6040518163ffffffff1660e01b8152600401600060405180830381600087803b1580156102d357600080fd5b505af11580156102e7573d6000803e3d6000fd5b50505050565b60008054906101000a900473ffffffffffffffffffffffffffffffffffffffff1673ffffffffffffffffffffffffffffffffffffffff163373ffffffffffffffffffffffffffffffffffffffff161461037b576040517f08c379a00000000000000000000000000000000000000000000000000000000081526004016103729061061a565b60405180910390fd5b600080600160009054906101000a900473ffffffffffffffffffffffffffffffffffffffff1673ffffffffffffffffffffffffffffffffffffffff16836040516103c49061066b565b60006040518083038185875af1925050503d8060008114610401576040519150601f19603f3d011682016040523d82523d6000602084013e610406565b606091505b50915091508161044b576040517f08c379a0000000000000000000000000000000000000000000000000000000008152600401610442906106f2565b60405180910390fd5b505050565b600080fd5b600073ffffffffffffffffffffffffffffffffffffffff82169050919050565b600061048082610455565b9050919050565b61049081610475565b811461049b57600080fd5b50565b6000813590506104ad81610487565b92915050565b6000602082840312156104c9576104c8610450565b5b60006104d78482850161049e565b91505092915050565b6000819050919050565b60006105056105006104fb84610455565b6104e0565b610455565b9050919050565b6000610517826104ea565b9050919050565b60006105298261050c565b9050919050565b6105398161051e565b82525050565b60006020820190506105546000830184610530565b92915050565b6000819050919050565b61056d8161055a565b811461057857600080fd5b50565b60008135905061058a81610564565b92915050565b6000602082840312156105a6576105a5610450565b5b60006105b48482850161057b565b91505092915050565b600082825260208201905092915050565b7f6e6f742061646d696e0000000000000000000000000000000000000000000000600082015250565b60006106046009836105bd565b915061060f826105ce565b602082019050919050565b60006020820190508181036000830152610633816105f7565b9050919050565b600081905092915050565b50565b600061065560008361063a565b915061066082610645565b600082019050919050565b600061067682610648565b9150819050919050565b7f4661696c656420746f207472616e736665722046544d3a20436865636b20626160008201527f6c616e6365000000000000000000000000000000000000000000000000000000602082015250565b60006106dc6025836105bd565b91506106e782610680565b604082019050919050565b6000602082019050818103600083015261070b816106cf565b905091905056fea26469706673582212207c743261aee21a279ff54cc190b9f4ca3e0df28be30e155a4349500a9984926364736f6c634300080a0033",
  "immutableReferences": {},
  "source": "pragma solidity ^0.8.10;\n\nimport \"./DjinnBottleUSDC.sol\"; \n\n\ncontract AutoHarvester {\n\n\taddress private admin; \n\tDjinnBottleUSDC public VAULT; \n\n\tconstructor() {\n\t\tadmin = msg.sender;\n\t}\n\t\n\tfunction addVault(address _vault) external {\n\t\trequire(msg.sender == admin, \"not admin\"); \t\n\t\tVAULT = DjinnBottleUSDC( _vault); \n\t}\n\n\tfunction autoHarvest() external {\n\t\trequire(msg.sender == admin, \"not admin\"); \n\t\tVAULT.callHarvest(); \t\n\t}\n\n\tfunction giveGasFees(uint amount) external {\n\t\trequire(msg.sender == admin, \"not admin\");\t\n\t\t(bool sent, bytes memory data) = address(VAULT).call{value: amount}(\"\"); \n\t\trequire(sent, \"Failed to transfer FTM: Check balance\"); \n\t}\t\n\n\n\treceive() external payable{} \n\n\n}\n",
  "sourcePath": "/home/kevin/Code/solidity_projects/djinn/contracts/AutoHarvester.sol",
  "compiler": {
    "name": "solc",
    "version": "0.8.10+commit.fc410830.Emscripten.clang"
  },
  "schemaVersion": "3.4.3",
  "updatedAt": "2022-02-10T00:23:36.434Z",
  "networkType": "ethereum",
  "devdoc": {
    "kind": "dev",
    "methods": {},
    "version": 1
  },
  "userdoc": {
    "kind": "user",
    "methods": {},
    "version": 1
  }
}