{
  "contractName": "DeltaNeutralFtmTomb",
  "abi": [
    {
      "inputs": [
        {
          "internalType": "contract DjinnBottleUSDC",
          "name": "_djBottle",
          "type": "address"
        },
        {
          "internalType": "contract IUniswapV2Router02",
          "name": "_spookyRouter",
          "type": "address"
        },
        {
          "internalType": "contract ComptrollerInterface",
          "name": "_comptroller",
          "type": "address"
        },
        {
          "internalType": "contract IStdReference",
          "name": "_priceOracle",
          "type": "address"
        },
        {
          "internalType": "address",
          "name": "wallet",
          "type": "address"
        }
      ],
      "stateMutability": "nonpayable",
      "type": "constructor"
    },
    {
      "anonymous": false,
      "inputs": [
        {
          "indexed": true,
          "internalType": "address",
          "name": "owner",
          "type": "address"
        },
        {
          "indexed": true,
          "internalType": "address",
          "name": "spender",
          "type": "address"
        },
        {
          "indexed": false,
          "internalType": "uint256",
          "name": "value",
          "type": "uint256"
        }
      ],
      "name": "Approval",
      "type": "event"
    },
    {
      "anonymous": false,
      "inputs": [
        {
          "indexed": true,
          "internalType": "address",
          "name": "from",
          "type": "address"
        },
        {
          "indexed": true,
          "internalType": "address",
          "name": "to",
          "type": "address"
        },
        {
          "indexed": false,
          "internalType": "uint256",
          "name": "value",
          "type": "uint256"
        }
      ],
      "name": "Transfer",
      "type": "event"
    },
    {
      "inputs": [],
      "name": "TOMB",
      "outputs": [
        {
          "internalType": "address",
          "name": "",
          "type": "address"
        }
      ],
      "stateMutability": "view",
      "type": "function",
      "constant": true
    },
    {
      "inputs": [],
      "name": "TSHARE",
      "outputs": [
        {
          "internalType": "address",
          "name": "",
          "type": "address"
        }
      ],
      "stateMutability": "view",
      "type": "function",
      "constant": true
    },
    {
      "inputs": [],
      "name": "USDC",
      "outputs": [
        {
          "internalType": "address",
          "name": "",
          "type": "address"
        }
      ],
      "stateMutability": "view",
      "type": "function",
      "constant": true
    },
    {
      "inputs": [],
      "name": "VAULT",
      "outputs": [
        {
          "internalType": "contract DjinnBottleUSDC",
          "name": "",
          "type": "address"
        }
      ],
      "stateMutability": "view",
      "type": "function",
      "constant": true
    },
    {
      "inputs": [],
      "name": "WETH",
      "outputs": [
        {
          "internalType": "address",
          "name": "",
          "type": "address"
        }
      ],
      "stateMutability": "view",
      "type": "function",
      "constant": true
    },
    {
      "inputs": [],
      "name": "WFTM",
      "outputs": [
        {
          "internalType": "address",
          "name": "",
          "type": "address"
        }
      ],
      "stateMutability": "view",
      "type": "function",
      "constant": true
    },
    {
      "inputs": [
        {
          "internalType": "address",
          "name": "owner",
          "type": "address"
        },
        {
          "internalType": "address",
          "name": "spender",
          "type": "address"
        }
      ],
      "name": "allowance",
      "outputs": [
        {
          "internalType": "uint256",
          "name": "",
          "type": "uint256"
        }
      ],
      "stateMutability": "view",
      "type": "function",
      "constant": true
    },
    {
      "inputs": [
        {
          "internalType": "address",
          "name": "spender",
          "type": "address"
        },
        {
          "internalType": "uint256",
          "name": "amount",
          "type": "uint256"
        }
      ],
      "name": "approve",
      "outputs": [
        {
          "internalType": "bool",
          "name": "",
          "type": "bool"
        }
      ],
      "stateMutability": "nonpayable",
      "type": "function"
    },
    {
      "inputs": [],
      "name": "ass",
      "outputs": [
        {
          "internalType": "uint256",
          "name": "",
          "type": "uint256"
        }
      ],
      "stateMutability": "view",
      "type": "function",
      "constant": true
    },
    {
      "inputs": [
        {
          "internalType": "address",
          "name": "account",
          "type": "address"
        }
      ],
      "name": "balanceOf",
      "outputs": [
        {
          "internalType": "uint256",
          "name": "",
          "type": "uint256"
        }
      ],
      "stateMutability": "view",
      "type": "function",
      "constant": true
    },
    {
      "inputs": [],
      "name": "balls",
      "outputs": [
        {
          "internalType": "uint256",
          "name": "",
          "type": "uint256"
        }
      ],
      "stateMutability": "view",
      "type": "function",
      "constant": true
    },
    {
      "inputs": [],
      "name": "cocks",
      "outputs": [
        {
          "internalType": "uint256",
          "name": "",
          "type": "uint256"
        }
      ],
      "stateMutability": "view",
      "type": "function",
      "constant": true
    },
    {
      "inputs": [],
      "name": "comptroller",
      "outputs": [
        {
          "internalType": "contract ComptrollerInterface",
          "name": "",
          "type": "address"
        }
      ],
      "stateMutability": "view",
      "type": "function",
      "constant": true
    },
    {
      "inputs": [],
      "name": "crETH",
      "outputs": [
        {
          "internalType": "address",
          "name": "",
          "type": "address"
        }
      ],
      "stateMutability": "view",
      "type": "function",
      "constant": true
    },
    {
      "inputs": [],
      "name": "crUSDC",
      "outputs": [
        {
          "internalType": "address",
          "name": "",
          "type": "address"
        }
      ],
      "stateMutability": "view",
      "type": "function",
      "constant": true
    },
    {
      "inputs": [],
      "name": "creator",
      "outputs": [
        {
          "internalType": "address",
          "name": "",
          "type": "address"
        }
      ],
      "stateMutability": "view",
      "type": "function",
      "constant": true
    },
    {
      "inputs": [],
      "name": "decimals",
      "outputs": [
        {
          "internalType": "uint8",
          "name": "",
          "type": "uint8"
        }
      ],
      "stateMutability": "view",
      "type": "function",
      "constant": true
    },
    {
      "inputs": [
        {
          "internalType": "address",
          "name": "spender",
          "type": "address"
        },
        {
          "internalType": "uint256",
          "name": "subtractedValue",
          "type": "uint256"
        }
      ],
      "name": "decreaseAllowance",
      "outputs": [
        {
          "internalType": "bool",
          "name": "",
          "type": "bool"
        }
      ],
      "stateMutability": "nonpayable",
      "type": "function"
    },
    {
      "inputs": [
        {
          "internalType": "address",
          "name": "spender",
          "type": "address"
        },
        {
          "internalType": "uint256",
          "name": "addedValue",
          "type": "uint256"
        }
      ],
      "name": "increaseAllowance",
      "outputs": [
        {
          "internalType": "bool",
          "name": "",
          "type": "bool"
        }
      ],
      "stateMutability": "nonpayable",
      "type": "function"
    },
    {
      "inputs": [
        {
          "internalType": "address",
          "name": "",
          "type": "address"
        }
      ],
      "name": "mintedETH",
      "outputs": [
        {
          "internalType": "uint256",
          "name": "",
          "type": "uint256"
        }
      ],
      "stateMutability": "view",
      "type": "function",
      "constant": true
    },
    {
      "inputs": [
        {
          "internalType": "address",
          "name": "",
          "type": "address"
        }
      ],
      "name": "mintedUSDC",
      "outputs": [
        {
          "internalType": "uint256",
          "name": "",
          "type": "uint256"
        }
      ],
      "stateMutability": "view",
      "type": "function",
      "constant": true
    },
    {
      "inputs": [],
      "name": "name",
      "outputs": [
        {
          "internalType": "string",
          "name": "",
          "type": "string"
        }
      ],
      "stateMutability": "view",
      "type": "function",
      "constant": true
    },
    {
      "inputs": [],
      "name": "priceOracle",
      "outputs": [
        {
          "internalType": "contract IStdReference",
          "name": "",
          "type": "address"
        }
      ],
      "stateMutability": "view",
      "type": "function",
      "constant": true
    },
    {
      "inputs": [],
      "name": "spookyAddress",
      "outputs": [
        {
          "internalType": "address",
          "name": "",
          "type": "address"
        }
      ],
      "stateMutability": "view",
      "type": "function",
      "constant": true
    },
    {
      "inputs": [],
      "name": "spookyFtmTombLP",
      "outputs": [
        {
          "internalType": "address",
          "name": "",
          "type": "address"
        }
      ],
      "stateMutability": "view",
      "type": "function",
      "constant": true
    },
    {
      "inputs": [],
      "name": "spookyRouter",
      "outputs": [
        {
          "internalType": "contract IUniswapV2Router02",
          "name": "",
          "type": "address"
        }
      ],
      "stateMutability": "view",
      "type": "function",
      "constant": true
    },
    {
      "inputs": [],
      "name": "symbol",
      "outputs": [
        {
          "internalType": "string",
          "name": "",
          "type": "string"
        }
      ],
      "stateMutability": "view",
      "type": "function",
      "constant": true
    },
    {
      "inputs": [],
      "name": "tShareRewardPool",
      "outputs": [
        {
          "internalType": "address",
          "name": "",
          "type": "address"
        }
      ],
      "stateMutability": "view",
      "type": "function",
      "constant": true
    },
    {
      "inputs": [],
      "name": "test",
      "outputs": [
        {
          "internalType": "uint256",
          "name": "",
          "type": "uint256"
        }
      ],
      "stateMutability": "view",
      "type": "function",
      "constant": true
    },
    {
      "inputs": [],
      "name": "tits",
      "outputs": [
        {
          "internalType": "uint256",
          "name": "",
          "type": "uint256"
        }
      ],
      "stateMutability": "view",
      "type": "function",
      "constant": true
    },
    {
      "inputs": [
        {
          "internalType": "address",
          "name": "",
          "type": "address"
        }
      ],
      "name": "tokenBorrowBalance",
      "outputs": [
        {
          "internalType": "uint256",
          "name": "",
          "type": "uint256"
        }
      ],
      "stateMutability": "view",
      "type": "function",
      "constant": true
    },
    {
      "inputs": [],
      "name": "totalSupply",
      "outputs": [
        {
          "internalType": "uint256",
          "name": "",
          "type": "uint256"
        }
      ],
      "stateMutability": "view",
      "type": "function",
      "constant": true
    },
    {
      "inputs": [
        {
          "internalType": "address",
          "name": "recipient",
          "type": "address"
        },
        {
          "internalType": "uint256",
          "name": "amount",
          "type": "uint256"
        }
      ],
      "name": "transfer",
      "outputs": [
        {
          "internalType": "bool",
          "name": "",
          "type": "bool"
        }
      ],
      "stateMutability": "nonpayable",
      "type": "function"
    },
    {
      "inputs": [
        {
          "internalType": "address",
          "name": "sender",
          "type": "address"
        },
        {
          "internalType": "address",
          "name": "recipient",
          "type": "address"
        },
        {
          "internalType": "uint256",
          "name": "amount",
          "type": "uint256"
        }
      ],
      "name": "transferFrom",
      "outputs": [
        {
          "internalType": "bool",
          "name": "",
          "type": "bool"
        }
      ],
      "stateMutability": "nonpayable",
      "type": "function"
    },
    {
      "inputs": [],
      "name": "treasuryWallet",
      "outputs": [
        {
          "internalType": "address",
          "name": "",
          "type": "address"
        }
      ],
      "stateMutability": "view",
      "type": "function",
      "constant": true
    },
    {
      "inputs": [
        {
          "internalType": "address",
          "name": "user",
          "type": "address"
        },
        {
          "internalType": "uint256",
          "name": "amount",
          "type": "uint256"
        }
      ],
      "name": "open",
      "outputs": [],
      "stateMutability": "nonpayable",
      "type": "function"
    },
    {
      "inputs": [],
      "name": "harvest",
      "outputs": [],
      "stateMutability": "nonpayable",
      "type": "function"
    },
    {
      "inputs": [
        {
          "internalType": "address",
          "name": "user",
          "type": "address"
        },
        {
          "internalType": "uint256",
          "name": "amountShares",
          "type": "uint256"
        }
      ],
      "name": "close",
      "outputs": [],
      "stateMutability": "nonpayable",
      "type": "function"
    },
    {
      "inputs": [
        {
          "internalType": "address",
          "name": "wallet",
          "type": "address"
        }
      ],
      "name": "setTreasury",
      "outputs": [],
      "stateMutability": "nonpayable",
      "type": "function"
    },
    {
      "inputs": [],
      "name": "getUnderlying",
      "outputs": [
        {
          "internalType": "uint256",
          "name": "",
          "type": "uint256"
        },
        {
          "internalType": "uint256",
          "name": "",
          "type": "uint256"
        }
      ],
      "stateMutability": "nonpayable",
      "type": "function"
    },
    {
      "inputs": [],
      "name": "borrowBalance",
      "outputs": [
        {
          "internalType": "uint256",
          "name": "",
          "type": "uint256"
        }
      ],
      "stateMutability": "nonpayable",
      "type": "function"
    }
  ],
  "bytecode": "0x60e06040523480156200001157600080fd5b50604051620059c3380380620059c383398181016040528101906200003791906200046f565b6040518060400160405280601481526020017f446a696e6e2046544d2053686f7274204661726d0000000000000000000000008152506040518060400160405280600981526020017f6446544d53686f727400000000000000000000000000000000000000000000008152508160039080519060200190620000bb92919062000241565b508060049080519060200190620000d492919062000241565b50505033600560006101000a81548173ffffffffffffffffffffffffffffffffffffffff021916908373ffffffffffffffffffffffffffffffffffffffff16021790555084600760006101000a81548173ffffffffffffffffffffffffffffffffffffffff021916908373ffffffffffffffffffffffffffffffffffffffff1602179055508373ffffffffffffffffffffffffffffffffffffffff1660808173ffffffffffffffffffffffffffffffffffffffff16815250508273ffffffffffffffffffffffffffffffffffffffff1660a08173ffffffffffffffffffffffffffffffffffffffff16815250508173ffffffffffffffffffffffffffffffffffffffff1660c08173ffffffffffffffffffffffffffffffffffffffff168152505080600660006101000a81548173ffffffffffffffffffffffffffffffffffffffff021916908373ffffffffffffffffffffffffffffffffffffffff16021790555050505050506200055c565b8280546200024f9062000526565b90600052602060002090601f016020900481019282620002735760008555620002bf565b82601f106200028e57805160ff1916838001178555620002bf565b82800160010185558215620002bf579182015b82811115620002be578251825591602001919060010190620002a1565b5b509050620002ce9190620002d2565b5090565b5b80821115620002ed576000816000905550600101620002d3565b5090565b600080fd5b600073ffffffffffffffffffffffffffffffffffffffff82169050919050565b60006200032382620002f6565b9050919050565b6000620003378262000316565b9050919050565b62000349816200032a565b81146200035557600080fd5b50565b60008151905062000369816200033e565b92915050565b60006200037c8262000316565b9050919050565b6200038e816200036f565b81146200039a57600080fd5b50565b600081519050620003ae8162000383565b92915050565b6000620003c18262000316565b9050919050565b620003d381620003b4565b8114620003df57600080fd5b50565b600081519050620003f381620003c8565b92915050565b6000620004068262000316565b9050919050565b6200041881620003f9565b81146200042457600080fd5b50565b60008151905062000438816200040d565b92915050565b620004498162000316565b81146200045557600080fd5b50565b60008151905062000469816200043e565b92915050565b600080600080600060a086880312156200048e576200048d620002f1565b5b60006200049e8882890162000358565b9550506020620004b1888289016200039d565b9450506040620004c488828901620003e2565b9350506060620004d78882890162000427565b9250506080620004ea8882890162000458565b9150509295509295909350565b7f4e487b7100000000000000000000000000000000000000000000000000000000600052602260045260246000fd5b600060028204905060018216806200053f57607f821691505b60208210811415620005565762000555620004f7565b5b50919050565b60805160a05160c051615414620005af60003960008181610b000152613121015260008181610d77015281816126c7015261307d015260008181610e1901528181612a760152612c8c01526154146000f3fe608060405234801561001057600080fd5b50600436106102535760003560e01c806370a0823111610146578063ad5c4648116100c3578063dd62ed3e11610087578063dd62ed3e146106ff578063e08c39881461072f578063e398fa1a1461074d578063e49280cb1461076b578063f0f4426014610787578063f8a8fd6d146107a357610253565b8063ad5c464814610657578063b5ee45c114610675578063b92cc56214610693578063c139acfa146106b1578063cc62e1e2146106cf57610253565b80639816f4731161010a5780639816f4731461059c5780639cdd8ee7146105bb578063a457c2d7146105d9578063a6f8d40514610609578063a9059cbb1461062757610253565b806370a08231146104f457806382c70bbf1461052457806389a30271146105425780638ed8ea7e1461056057806395d89b411461057e57610253565b80632c1c1836116101d45780634641257d116101985780634641257d146104605780634c373e781461046a5780635d16d5c9146104885780635fe3b567146104b857806366f2addc146104d657610253565b80632c1c1836146103b8578063313ce567146103d657806339509351146103f4578063411557d1146104245780634626402b1461044257610253565b806318160ddd1161021b57806318160ddd1461031057806321dbe8761461032e57806323b872dd1461034c578063243cd14e1461037c5780632630c12f1461039a57610253565b806302d05d3f1461025857806306fdde0314610276578063095ea7b3146102945780630a0e5c9d146102c457806310760616146102e0575b600080fd5b6102606107c1565b60405161026d9190614038565b60405180910390f35b61027e6107e7565b60405161028b91906140ec565b60405180910390f35b6102ae60048036038101906102a99190614184565b610879565b6040516102bb91906141df565b60405180910390f35b6102de60048036038101906102d99190614184565b610897565b005b6102fa60048036038101906102f591906141fa565b610935565b6040516103079190614236565b60405180910390f35b61031861094d565b6040516103259190614236565b60405180910390f35b610336610957565b6040516103439190614038565b60405180910390f35b61036660048036038101906103619190614251565b61096f565b60405161037391906141df565b60405180910390f35b610384610a67565b6040516103919190614236565b60405180910390f35b6103a2610afe565b6040516103af9190614303565b60405180910390f35b6103c0610b22565b6040516103cd9190614038565b60405180910390f35b6103de610b3a565b6040516103eb919061433a565b60405180910390f35b61040e60048036038101906104099190614184565b610b43565b60405161041b91906141df565b60405180910390f35b61042c610bef565b6040516104399190614376565b60405180910390f35b61044a610c15565b6040516104579190614038565b60405180910390f35b610468610c3b565b005b610472610d57565b60405161047f9190614236565b60405180910390f35b6104a2600480360381019061049d91906141fa565b610d5d565b6040516104af9190614236565b60405180910390f35b6104c0610d75565b6040516104cd91906143b2565b60405180910390f35b6104de610d99565b6040516104eb9190614236565b60405180910390f35b61050e600480360381019061050991906141fa565b610d9f565b60405161051b9190614236565b60405180910390f35b61052c610de7565b6040516105399190614038565b60405180910390f35b61054a610dff565b6040516105579190614038565b60405180910390f35b610568610e17565b60405161057591906143ee565b60405180910390f35b610586610e3b565b60405161059391906140ec565b60405180910390f35b6105a4610ecd565b6040516105b2929190614409565b60405180910390f35b6105c3611004565b6040516105d09190614038565b60405180910390f35b6105f360048036038101906105ee9190614184565b61101c565b60405161060091906141df565b60405180910390f35b610611611107565b60405161061e9190614038565b60405180910390f35b610641600480360381019061063c9190614184565b61111f565b60405161064e91906141df565b60405180910390f35b61065f61113d565b60405161066c9190614038565b60405180910390f35b61067d611155565b60405161068a9190614038565b60405180910390f35b61069b61116d565b6040516106a89190614236565b60405180910390f35b6106b9611173565b6040516106c69190614038565b60405180910390f35b6106e960048036038101906106e491906141fa565b61118b565b6040516106f69190614236565b60405180910390f35b61071960048036038101906107149190614432565b6111a3565b6040516107269190614236565b60405180910390f35b61073761122a565b6040516107449190614236565b60405180910390f35b610755611230565b6040516107629190614038565b60405180910390f35b61078560048036038101906107809190614184565b611248565b005b6107a1600480360381019061079c91906141fa565b6112e6565b005b6107ab6113ba565b6040516107b89190614236565b60405180910390f35b600560009054906101000a900473ffffffffffffffffffffffffffffffffffffffff1681565b6060600380546107f6906144a1565b80601f0160208091040260200160405190810160405280929190818152602001828054610822906144a1565b801561086f5780601f106108445761010080835404028352916020019161086f565b820191906000526020600020905b81548152906001019060200180831161085257829003601f168201915b5050505050905090565b600061088d6108866113c0565b84846113c8565b6001905092915050565b600760009054906101000a900473ffffffffffffffffffffffffffffffffffffffff1673ffffffffffffffffffffffffffffffffffffffff163373ffffffffffffffffffffffffffffffffffffffff1614610927576040517f08c379a000000000000000000000000000000000000000000000000000000000815260040161091e9061451f565b60405180910390fd5b6109318282611593565b5050565b600d6020528060005260406000206000915090505481565b6000600254905090565b7321be370d5312f44cb42ce377bc9b8a0cef1a4c8381565b600061097c848484611637565b6000600160008673ffffffffffffffffffffffffffffffffffffffff1673ffffffffffffffffffffffffffffffffffffffff16815260200190815260200160002060006109c76113c0565b73ffffffffffffffffffffffffffffffffffffffff1673ffffffffffffffffffffffffffffffffffffffff16815260200190815260200160002054905082811015610a47576040517f08c379a0000000000000000000000000000000000000000000000000000000008152600401610a3e906145b1565b60405180910390fd5b610a5b85610a536113c0565b8584036113c8565b60019150509392505050565b600073cc3e89fbc10e155f1164f8c9cf0703acde53f6fd73ffffffffffffffffffffffffffffffffffffffff166317bfdfbc306040518263ffffffff1660e01b8152600401610ab69190614038565b6020604051808303816000875af1158015610ad5573d6000803e3d6000fd5b505050506040513d601f19601f82011682018060405250810190610af991906145e6565b905090565b7f000000000000000000000000000000000000000000000000000000000000000081565b73cc0a87f7e7c693042a9cc703661f5060c80acb4381565b60006012905090565b6000610be5610b506113c0565b848460016000610b5e6113c0565b73ffffffffffffffffffffffffffffffffffffffff1673ffffffffffffffffffffffffffffffffffffffff16815260200190815260200160002060008873ffffffffffffffffffffffffffffffffffffffff1673ffffffffffffffffffffffffffffffffffffffff16815260200190815260200160002054610be09190614642565b6113c8565b6001905092915050565b600760009054906101000a900473ffffffffffffffffffffffffffffffffffffffff1681565b600660009054906101000a900473ffffffffffffffffffffffffffffffffffffffff1681565b600760009054906101000a900473ffffffffffffffffffffffffffffffffffffffff1673ffffffffffffffffffffffffffffffffffffffff163373ffffffffffffffffffffffffffffffffffffffff1614610ccb576040517f08c379a0000000000000000000000000000000000000000000000000000000008152600401610cc29061451f565b60405180910390fd5b73cc0a87f7e7c693042a9cc703661f5060c80acb4373ffffffffffffffffffffffffffffffffffffffff1663e2bbb1586000806040518363ffffffff1660e01b8152600401610d1b9291906146d3565b600060405180830381600087803b158015610d3557600080fd5b505af1158015610d49573d6000803e3d6000fd5b50505050610d556118b8565b565b600a5481565b600e6020528060005260406000206000915090505481565b7f000000000000000000000000000000000000000000000000000000000000000081565b60095481565b60008060008373ffffffffffffffffffffffffffffffffffffffff1673ffffffffffffffffffffffffffffffffffffffff168152602001908152602001600020549050919050565b73328a7b4d538a2b3942653a9983fda3c12c57114181565b7304068da6c83afcfa0e13ba15a6696662335d5b7581565b7f000000000000000000000000000000000000000000000000000000000000000081565b606060048054610e4a906144a1565b80601f0160208091040260200160405190810160405280929190818152602001828054610e76906144a1565b8015610ec35780601f10610e9857610100808354040283529160200191610ec3565b820191906000526020600020905b815481529060010190602001808311610ea657829003601f168201915b5050505050905090565b600080600073cc3e89fbc10e155f1164f8c9cf0703acde53f6fd73ffffffffffffffffffffffffffffffffffffffff16633af9e669306040518263ffffffff1660e01b8152600401610f1f9190614038565b6020604051808303816000875af1158015610f3e573d6000803e3d6000fd5b505050506040513d601f19601f82011682018060405250810190610f6291906145e6565b9050600073328a7b4d538a2b3942653a9983fda3c12c57114173ffffffffffffffffffffffffffffffffffffffff16633af9e669306040518263ffffffff1660e01b8152600401610fb39190614038565b6020604051808303816000875af1158015610fd2573d6000803e3d6000fd5b505050506040513d601f19601f82011682018060405250810190610ff691906145e6565b905081819350935050509091565b732a651563c9d3af67ae0388a5c8f89b867038089e81565b6000806001600061102b6113c0565b73ffffffffffffffffffffffffffffffffffffffff1673ffffffffffffffffffffffffffffffffffffffff16815260200190815260200160002060008573ffffffffffffffffffffffffffffffffffffffff1673ffffffffffffffffffffffffffffffffffffffff168152602001908152602001600020549050828110156110e8576040517f08c379a00000000000000000000000000000000000000000000000000000000081526004016110df9061476e565b60405180910390fd5b6110fc6110f36113c0565b858584036113c8565b600191505092915050565b73f491e7b69e4244ad4002bc14e878a34207e38c2981565b600061113361112c6113c0565b8484611637565b6001905092915050565b7374b23882a30290451a17c44f4f05243b6b58c76d81565b734cdf39285d7ca8eb3f090fda0c069ba5f4145b3781565b600b5481565b736c021ae822bea943b2e66552bde1d2696a53fbb781565b600f6020528060005260406000206000915090505481565b6000600160008473ffffffffffffffffffffffffffffffffffffffff1673ffffffffffffffffffffffffffffffffffffffff16815260200190815260200160002060008373ffffffffffffffffffffffffffffffffffffffff1673ffffffffffffffffffffffffffffffffffffffff16815260200190815260200160002054905092915050565b60085481565b73cc3e89fbc10e155f1164f8c9cf0703acde53f6fd81565b600760009054906101000a900473ffffffffffffffffffffffffffffffffffffffff1673ffffffffffffffffffffffffffffffffffffffff163373ffffffffffffffffffffffffffffffffffffffff16146112d8576040517f08c379a00000000000000000000000000000000000000000000000000000000081526004016112cf9061451f565b60405180910390fd5b6112e28282611b16565b5050565b600760009054906101000a900473ffffffffffffffffffffffffffffffffffffffff1673ffffffffffffffffffffffffffffffffffffffff163373ffffffffffffffffffffffffffffffffffffffff1614611376576040517f08c379a000000000000000000000000000000000000000000000000000000000815260040161136d9061451f565b60405180910390fd5b80600660006101000a81548173ffffffffffffffffffffffffffffffffffffffff021916908373ffffffffffffffffffffffffffffffffffffffff16021790555050565b600c5481565b600033905090565b600073ffffffffffffffffffffffffffffffffffffffff168373ffffffffffffffffffffffffffffffffffffffff161415611438576040517f08c379a000000000000000000000000000000000000000000000000000000000815260040161142f90614800565b60405180910390fd5b600073ffffffffffffffffffffffffffffffffffffffff168273ffffffffffffffffffffffffffffffffffffffff1614156114a8576040517f08c379a000000000000000000000000000000000000000000000000000000000815260040161149f90614892565b60405180910390fd5b80600160008573ffffffffffffffffffffffffffffffffffffffff1673ffffffffffffffffffffffffffffffffffffffff16815260200190815260200160002060008473ffffffffffffffffffffffffffffffffffffffff1673ffffffffffffffffffffffffffffffffffffffff168152602001908152602001600020819055508173ffffffffffffffffffffffffffffffffffffffff168373ffffffffffffffffffffffffffffffffffffffff167f8c5be1e5ebec7d5bd14f71427d1e84f3dd0314c0f7b2291e5b200ac8c7c3b925836040516115869190614236565b60405180910390a3505050565b600060646046836115a491906148b2565b6115ae919061493b565b90506115e37304068da6c83afcfa0e13ba15a6696662335d5b757374b23882a30290451a17c44f4f05243b6b58c76d83611cc8565b60006116027304068da6c83afcfa0e13ba15a6696662335d5b756120dd565b905060006116237374b23882a30290451a17c44f4f05243b6b58c76d6120dd565b9050611630858383612160565b5050505050565b600073ffffffffffffffffffffffffffffffffffffffff168373ffffffffffffffffffffffffffffffffffffffff1614156116a7576040517f08c379a000000000000000000000000000000000000000000000000000000000815260040161169e906149de565b60405180910390fd5b600073ffffffffffffffffffffffffffffffffffffffff168273ffffffffffffffffffffffffffffffffffffffff161415611717576040517f08c379a000000000000000000000000000000000000000000000000000000000815260040161170e90614a70565b60405180910390fd5b611722838383612896565b60008060008573ffffffffffffffffffffffffffffffffffffffff1673ffffffffffffffffffffffffffffffffffffffff168152602001908152602001600020549050818110156117a8576040517f08c379a000000000000000000000000000000000000000000000000000000000815260040161179f90614b02565b60405180910390fd5b8181036000808673ffffffffffffffffffffffffffffffffffffffff1673ffffffffffffffffffffffffffffffffffffffff16815260200190815260200160002081905550816000808573ffffffffffffffffffffffffffffffffffffffff1673ffffffffffffffffffffffffffffffffffffffff168152602001908152602001600020600082825461183b9190614642565b925050819055508273ffffffffffffffffffffffffffffffffffffffff168473ffffffffffffffffffffffffffffffffffffffff167fddf252ad1be2c89b69c2b068fc378daa952ba7f163c4a11628f55a4df523b3ef8460405161189f9190614236565b60405180910390a36118b284848461289b565b50505050565b60006118d7734cdf39285d7ca8eb3f090fda0c069ba5f4145b376120dd565b905060006118e4826128a0565b9050734cdf39285d7ca8eb3f090fda0c069ba5f4145b3773ffffffffffffffffffffffffffffffffffffffff1663a9059cbb600660009054906101000a900473ffffffffffffffffffffffffffffffffffffffff16836040518363ffffffff1660e01b8152600401611957929190614b22565b6020604051808303816000875af1158015611976573d6000803e3d6000fd5b505050506040513d601f19601f8201168201806040525081019061199a9190614b77565b5060006119ba734cdf39285d7ca8eb3f090fda0c069ba5f4145b376120dd565b9050600060646032836119cd91906148b2565b6119d7919061493b565b9050734cdf39285d7ca8eb3f090fda0c069ba5f4145b3773ffffffffffffffffffffffffffffffffffffffff1663095ea7b373f491e7b69e4244ad4002bc14e878a34207e38c29846040518363ffffffff1660e01b8152600401611a3c929190614b22565b6020604051808303816000875af1158015611a5b573d6000803e3d6000fd5b505050506040513d601f19601f82011682018060405250810190611a7f9190614b77565b50611ab3734cdf39285d7ca8eb3f090fda0c069ba5f4145b37736c021ae822bea943b2e66552bde1d2696a53fbb783611cc8565b6000611ad2734cdf39285d7ca8eb3f090fda0c069ba5f4145b376120dd565b9050611b07734cdf39285d7ca8eb3f090fda0c069ba5f4145b377321be370d5312f44cb42ce377bc9b8a0cef1a4c8383611cc8565b611b0f6128c3565b5050505050565b6000611b21306120dd565b90506000600760009054906101000a900473ffffffffffffffffffffffffffffffffffffffff1673ffffffffffffffffffffffffffffffffffffffff166318160ddd6040518163ffffffff1660e01b8152600401602060405180830381865afa158015611b92573d6000803e3d6000fd5b505050506040513d601f19601f82011682018060405250810190611bb691906145e6565b90506000838284611bc7919061493b565b611bd191906148b2565b905082811115611bdf578290505b6000611bfe732a651563c9d3af67ae0388a5c8f89b867038089e6120dd565b905073cc0a87f7e7c693042a9cc703661f5060c80acb4373ffffffffffffffffffffffffffffffffffffffff1663441a3e706000846040518363ffffffff1660e01b8152600401611c50929190614ba4565b600060405180830381600087803b158015611c6a57600080fd5b505af1158015611c7e573d6000803e3d6000fd5b505050506000611ca1732a651563c9d3af67ae0388a5c8f89b867038089e6120dd565b905060008282611cb19190614bcd565b9050611cbe888289612ba1565b5050505050505050565b8273ffffffffffffffffffffffffffffffffffffffff1663095ea7b373f491e7b69e4244ad4002bc14e878a34207e38c29836040518363ffffffff1660e01b8152600401611d17929190614b22565b6020604051808303816000875af1158015611d36573d6000803e3d6000fd5b505050506040513d601f19601f82011682018060405250810190611d5a9190614b77565b5060607321be370d5312f44cb42ce377bc9b8a0cef1a4c8373ffffffffffffffffffffffffffffffffffffffff168473ffffffffffffffffffffffffffffffffffffffff161480611dea57507321be370d5312f44cb42ce377bc9b8a0cef1a4c8373ffffffffffffffffffffffffffffffffffffffff168373ffffffffffffffffffffffffffffffffffffffff16145b15611ede57600267ffffffffffffffff811115611e0a57611e09614c01565b5b604051908082528060200260200182016040528015611e385781602001602082028036833780820191505090505b5090508381600081518110611e5057611e4f614c30565b5b602002602001019073ffffffffffffffffffffffffffffffffffffffff16908173ffffffffffffffffffffffffffffffffffffffff16815250508281600181518110611e9f57611e9e614c30565b5b602002602001019073ffffffffffffffffffffffffffffffffffffffff16908173ffffffffffffffffffffffffffffffffffffffff168152505061202c565b600367ffffffffffffffff811115611ef957611ef8614c01565b5b604051908082528060200260200182016040528015611f275781602001602082028036833780820191505090505b5090508381600081518110611f3f57611f3e614c30565b5b602002602001019073ffffffffffffffffffffffffffffffffffffffff16908173ffffffffffffffffffffffffffffffffffffffff16815250507321be370d5312f44cb42ce377bc9b8a0cef1a4c8381600181518110611fa257611fa1614c30565b5b602002602001019073ffffffffffffffffffffffffffffffffffffffff16908173ffffffffffffffffffffffffffffffffffffffff16815250508281600281518110611ff157611ff0614c30565b5b602002602001019073ffffffffffffffffffffffffffffffffffffffff16908173ffffffffffffffffffffffffffffffffffffffff16815250505b73f491e7b69e4244ad4002bc14e878a34207e38c2973ffffffffffffffffffffffffffffffffffffffff166338ed17398360008430601e4261206e9190614642565b6040518663ffffffff1660e01b815260040161208e959493929190614d1d565b6000604051808303816000875af11580156120ad573d6000803e3d6000fd5b505050506040513d6000823e3d601f19601f820116820180604052508101906120d69190614e90565b5050505050565b60008173ffffffffffffffffffffffffffffffffffffffff166370a08231306040518263ffffffff1660e01b81526004016121189190614038565b602060405180830381865afa158015612135573d6000803e3d6000fd5b505050506040513d601f19601f8201168201806040525081019061215991906145e6565b9050919050565b600061217f73cc3e89fbc10e155f1164f8c9cf0703acde53f6fd612ff3565b905060006121a073328a7b4d538a2b3942653a9983fda3c12c571141612ff3565b90507304068da6c83afcfa0e13ba15a6696662335d5b7573ffffffffffffffffffffffffffffffffffffffff1663095ea7b373328a7b4d538a2b3942653a9983fda3c12c571141866040518363ffffffff1660e01b8152600401612205929190614b22565b6020604051808303816000875af1158015612224573d6000803e3d6000fd5b505050506040513d601f19601f820116820180604052508101906122489190614b77565b5073328a7b4d538a2b3942653a9983fda3c12c57114173ffffffffffffffffffffffffffffffffffffffff1663a0712d68856040518263ffffffff1660e01b81526004016122969190614236565b6020604051808303816000875af11580156122b5573d6000803e3d6000fd5b505050506040513d601f19601f820116820180604052508101906122d991906145e6565b507374b23882a30290451a17c44f4f05243b6b58c76d73ffffffffffffffffffffffffffffffffffffffff1663095ea7b373cc3e89fbc10e155f1164f8c9cf0703acde53f6fd856040518363ffffffff1660e01b815260040161233d929190614b22565b6020604051808303816000875af115801561235c573d6000803e3d6000fd5b505050506040513d601f19601f820116820180604052508101906123809190614b77565b5073cc3e89fbc10e155f1164f8c9cf0703acde53f6fd73ffffffffffffffffffffffffffffffffffffffff1663a0712d68846040518263ffffffff1660e01b81526004016123ce9190614236565b6020604051808303816000875af11580156123ed573d6000803e3d6000fd5b505050506040513d601f19601f8201168201806040525081019061241191906145e6565b50600061243173cc3e89fbc10e155f1164f8c9cf0703acde53f6fd612ff3565b9050600061245273328a7b4d538a2b3942653a9983fda3c12c571141612ff3565b9050600083826124629190614bcd565b9050600085846124729190614bcd565b9050600760009054906101000a900473ffffffffffffffffffffffffffffffffffffffff1673ffffffffffffffffffffffffffffffffffffffff16634478efa28a84846040518463ffffffff1660e01b81526004016124d393929190614ed9565b600060405180830381600087803b1580156124ed57600080fd5b505af1158015612501573d6000803e3d6000fd5b5050505081600f60008b73ffffffffffffffffffffffffffffffffffffffff1673ffffffffffffffffffffffffffffffffffffffff16815260200190815260200160002060008282546125549190614642565b9250508190555080600e60008b73ffffffffffffffffffffffffffffffffffffffff1673ffffffffffffffffffffffffffffffffffffffff16815260200190815260200160002060008282546125aa9190614642565b925050819055506000600267ffffffffffffffff8111156125ce576125cd614c01565b5b6040519080825280602002602001820160405280156125fc5781602001602082028036833780820191505090505b50905073328a7b4d538a2b3942653a9983fda3c12c5711418160008151811061262857612627614c30565b5b602002602001019073ffffffffffffffffffffffffffffffffffffffff16908173ffffffffffffffffffffffffffffffffffffffff168152505073cc3e89fbc10e155f1164f8c9cf0703acde53f6fd8160018151811061268b5761268a614c30565b5b602002602001019073ffffffffffffffffffffffffffffffffffffffff16908173ffffffffffffffffffffffffffffffffffffffff16815250507f000000000000000000000000000000000000000000000000000000000000000073ffffffffffffffffffffffffffffffffffffffff1663c2998238826040518263ffffffff1660e01b815260040161271e9190614f10565b6000604051808303816000875af115801561273d573d6000803e3d6000fd5b505050506040513d6000823e3d601f19601f820116820180604052508101906127669190614e90565b506000612771610a67565b9050600061277d613076565b5091505073cc3e89fbc10e155f1164f8c9cf0703acde53f6fd73ffffffffffffffffffffffffffffffffffffffff1663c5ebeaec826040518263ffffffff1660e01b81526004016127ce9190614236565b6020604051808303816000875af11580156127ed573d6000803e3d6000fd5b505050506040513d601f19601f8201168201806040525081019061281191906145e6565b50600061281c610a67565b9050828161282a9190614bcd565b600d60008f73ffffffffffffffffffffffffffffffffffffffff1673ffffffffffffffffffffffffffffffffffffffff16815260200190815260200160002060008282546128789190614642565b9250508190555061288761327d565b50505050505050505050505050565b505050565b505050565b60006127106064836128b291906148b2565b6128bc919061493b565b9050919050565b60006128e27321be370d5312f44cb42ce377bc9b8a0cef1a4c836120dd565b90506000612903736c021ae822bea943b2e66552bde1d2696a53fbb76120dd565b9050736c021ae822bea943b2e66552bde1d2696a53fbb773ffffffffffffffffffffffffffffffffffffffff1663095ea7b373f491e7b69e4244ad4002bc14e878a34207e38c29836040518363ffffffff1660e01b8152600401612968929190614b22565b6020604051808303816000875af1158015612987573d6000803e3d6000fd5b505050506040513d601f19601f820116820180604052508101906129ab9190614b77565b507321be370d5312f44cb42ce377bc9b8a0cef1a4c8373ffffffffffffffffffffffffffffffffffffffff1663095ea7b373f491e7b69e4244ad4002bc14e878a34207e38c29846040518363ffffffff1660e01b8152600401612a0f929190614b22565b6020604051808303816000875af1158015612a2e573d6000803e3d6000fd5b505050506040513d601f19601f82011682018060405250810190612a529190614b77565b506000612a72732a651563c9d3af67ae0388a5c8f89b867038089e6120dd565b90507f000000000000000000000000000000000000000000000000000000000000000073ffffffffffffffffffffffffffffffffffffffff1663e8e33700736c021ae822bea943b2e66552bde1d2696a53fbb77321be370d5312f44cb42ce377bc9b8a0cef1a4c83858760018030601e42612aed9190614642565b6040518963ffffffff1660e01b8152600401612b10989796959493929190614f6d565b6060604051808303816000875af1158015612b2f573d6000803e3d6000fd5b505050506040513d601f19601f82011682018060405250810190612b539190614feb565b5050506000612b75732a651563c9d3af67ae0388a5c8f89b867038089e6120dd565b905060008282612b859190614bcd565b9050612b91308261340c565b612b9a8161356c565b5050505050565b6000612bc07321be370d5312f44cb42ce377bc9b8a0cef1a4c836120dd565b90506000612be1736c021ae822bea943b2e66552bde1d2696a53fbb76120dd565b9050732a651563c9d3af67ae0388a5c8f89b867038089e73ffffffffffffffffffffffffffffffffffffffff1663095ea7b373f491e7b69e4244ad4002bc14e878a34207e38c29866040518363ffffffff1660e01b8152600401612c46929190614b22565b6020604051808303816000875af1158015612c65573d6000803e3d6000fd5b505050506040513d601f19601f82011682018060405250810190612c899190614b77565b507f000000000000000000000000000000000000000000000000000000000000000073ffffffffffffffffffffffffffffffffffffffff1663baa2abde7321be370d5312f44cb42ce377bc9b8a0cef1a4c83736c021ae822bea943b2e66552bde1d2696a53fbb78760018030601e42612d029190614642565b6040518863ffffffff1660e01b8152600401612d24979695949392919061503e565b60408051808303816000875af1158015612d42573d6000803e3d6000fd5b505050506040513d601f19601f82011682018060405250810190612d6691906150ad565b5050612d723085613698565b6000612d917321be370d5312f44cb42ce377bc9b8a0cef1a4c836120dd565b90506000612db2736c021ae822bea943b2e66552bde1d2696a53fbb76120dd565b905060008483612dc29190614bcd565b905060008483612dd29190614bcd565b90507321be370d5312f44cb42ce377bc9b8a0cef1a4c8373ffffffffffffffffffffffffffffffffffffffff1663095ea7b373f491e7b69e4244ad4002bc14e878a34207e38c29846040518363ffffffff1660e01b8152600401612e37929190614b22565b6020604051808303816000875af1158015612e56573d6000803e3d6000fd5b505050506040513d601f19601f82011682018060405250810190612e7a9190614b77565b50736c021ae822bea943b2e66552bde1d2696a53fbb773ffffffffffffffffffffffffffffffffffffffff1663095ea7b373f491e7b69e4244ad4002bc14e878a34207e38c29836040518363ffffffff1660e01b8152600401612ede929190614b22565b6020604051808303816000875af1158015612efd573d6000803e3d6000fd5b505050506040513d601f19601f82011682018060405250810190612f219190614b77565b506000612f417374b23882a30290451a17c44f4f05243b6b58c76d6120dd565b9050612f767321be370d5312f44cb42ce377bc9b8a0cef1a4c837374b23882a30290451a17c44f4f05243b6b58c76d85611cc8565b612fa9736c021ae822bea943b2e66552bde1d2696a53fbb77374b23882a30290451a17c44f4f05243b6b58c76d84611cc8565b6000612fc87374b23882a30290451a17c44f4f05243b6b58c76d6120dd565b905060008282612fd89190614bcd565b9050612fe58c8b8361386f565b505050505050505050505050565b60008173ffffffffffffffffffffffffffffffffffffffff166370a08231306040518263ffffffff1660e01b815260040161302e9190614038565b602060405180830381865afa15801561304b573d6000803e3d6000fd5b505050506040513d601f19601f8201168201806040525081019061306f91906145e6565b9050919050565b60008060007f000000000000000000000000000000000000000000000000000000000000000073ffffffffffffffffffffffffffffffffffffffff16635ec88c79306040518263ffffffff1660e01b81526004016130d49190614038565b606060405180830381865afa1580156130f1573d6000803e3d6000fd5b505050506040513d601f19601f820116820180604052508101906131159190614feb565b909150508093505060007f000000000000000000000000000000000000000000000000000000000000000073ffffffffffffffffffffffffffffffffffffffff166365555bcc6040518163ffffffff1660e01b815260040161317690615185565b606060405180830381865afa158015613193573d6000803e3d6000fd5b505050506040513d601f19601f820116820180604052508101906131b79190615221565b905080600001519150600082670de0b6b3a7640000866131d791906148b2565b6131e1919061493b565b90506064605e826131f291906148b2565b6131fc919061493b565b93506000613208610a67565b856132139190614642565b9050600061321f610ecd565b50905060008183101561324d5782826132389190614bcd565b905080876132469190614642565b9650613273565b818311156132725781836132619190614bcd565b9050808761326f9190614bcd565b96505b5b5050505050909192565b6000606460326132a07374b23882a30290451a17c44f4f05243b6b58c76d6120dd565b6132aa91906148b2565b6132b4919061493b565b90507374b23882a30290451a17c44f4f05243b6b58c76d73ffffffffffffffffffffffffffffffffffffffff1663095ea7b373f491e7b69e4244ad4002bc14e878a34207e38c296133187374b23882a30290451a17c44f4f05243b6b58c76d6120dd565b6040518363ffffffff1660e01b8152600401613335929190614b22565b6020604051808303816000875af1158015613354573d6000803e3d6000fd5b505050506040513d601f19601f820116820180604052508101906133789190614b77565b506133ac7374b23882a30290451a17c44f4f05243b6b58c76d7321be370d5312f44cb42ce377bc9b8a0cef1a4c8383611cc8565b60006133cb7374b23882a30290451a17c44f4f05243b6b58c76d6120dd565b90506134007374b23882a30290451a17c44f4f05243b6b58c76d736c021ae822bea943b2e66552bde1d2696a53fbb783611cc8565b6134086128c3565b5050565b600073ffffffffffffffffffffffffffffffffffffffff168273ffffffffffffffffffffffffffffffffffffffff16141561347c576040517f08c379a00000000000000000000000000000000000000000000000000000000081526004016134739061529a565b60405180910390fd5b61348860008383612896565b806002600082825461349a9190614642565b92505081905550806000808473ffffffffffffffffffffffffffffffffffffffff1673ffffffffffffffffffffffffffffffffffffffff16815260200190815260200160002060008282546134ef9190614642565b925050819055508173ffffffffffffffffffffffffffffffffffffffff16600073ffffffffffffffffffffffffffffffffffffffff167fddf252ad1be2c89b69c2b068fc378daa952ba7f163c4a11628f55a4df523b3ef836040516135549190614236565b60405180910390a36135686000838361289b565b5050565b732a651563c9d3af67ae0388a5c8f89b867038089e73ffffffffffffffffffffffffffffffffffffffff1663095ea7b373cc0a87f7e7c693042a9cc703661f5060c80acb43836040518363ffffffff1660e01b81526004016135cf929190614b22565b6020604051808303816000875af11580156135ee573d6000803e3d6000fd5b505050506040513d601f19601f820116820180604052508101906136129190614b77565b5073cc0a87f7e7c693042a9cc703661f5060c80acb4373ffffffffffffffffffffffffffffffffffffffff1663e2bbb1586000836040518363ffffffff1660e01b8152600401613663929190614ba4565b600060405180830381600087803b15801561367d57600080fd5b505af1158015613691573d6000803e3d6000fd5b5050505050565b600073ffffffffffffffffffffffffffffffffffffffff168273ffffffffffffffffffffffffffffffffffffffff161415613708576040517f08c379a00000000000000000000000000000000000000000000000000000000081526004016136ff9061532c565b60405180910390fd5b61371482600083612896565b60008060008473ffffffffffffffffffffffffffffffffffffffff1673ffffffffffffffffffffffffffffffffffffffff1681526020019081526020016000205490508181101561379a576040517f08c379a0000000000000000000000000000000000000000000000000000000008152600401613791906153be565b60405180910390fd5b8181036000808573ffffffffffffffffffffffffffffffffffffffff1673ffffffffffffffffffffffffffffffffffffffff1681526020019081526020016000208190555081600260008282546137f19190614bcd565b92505081905550600073ffffffffffffffffffffffffffffffffffffffff168373ffffffffffffffffffffffffffffffffffffffff167fddf252ad1be2c89b69c2b068fc378daa952ba7f163c4a11628f55a4df523b3ef846040516138569190614236565b60405180910390a361386a8360008461289b565b505050565b60008061387b84613d14565b91509150600080600080600d60008a73ffffffffffffffffffffffffffffffffffffffff1673ffffffffffffffffffffffffffffffffffffffff168152602001908152602001600020548711156139eb57600d60008a73ffffffffffffffffffffffffffffffffffffffff1673ffffffffffffffffffffffffffffffffffffffff16815260200190815260200160002054876139179190614bcd565b9150600d60008a73ffffffffffffffffffffffffffffffffffffffff1673ffffffffffffffffffffffffffffffffffffffff1681526020019081526020016000205490506000600d60008b73ffffffffffffffffffffffffffffffffffffffff1673ffffffffffffffffffffffffffffffffffffffff168152602001908152602001600020819055506139a9866128a0565b866139b49190614bcd565b93506139bf856128a0565b856139ca9190614bcd565b92506139e66139d8876128a0565b6139e1876128a0565b613e89565b613abf565b6000915086905086600d60008b73ffffffffffffffffffffffffffffffffffffffff1673ffffffffffffffffffffffffffffffffffffffff1681526020019081526020016000206000828254613a419190614bcd565b925050819055506002613a53876128a0565b613a5d91906148b2565b86613a689190614bcd565b93506002613a75866128a0565b613a7f91906148b2565b85613a8a9190614bcd565b9250613abe6002613a9a886128a0565b613aa491906148b2565b6002613aaf886128a0565b613ab991906148b2565b613e89565b5b600e60008a73ffffffffffffffffffffffffffffffffffffffff1673ffffffffffffffffffffffffffffffffffffffff16815260200190815260200160002054841115613b4957600e60008a73ffffffffffffffffffffffffffffffffffffffff1673ffffffffffffffffffffffffffffffffffffffff1681526020019081526020016000205493505b600f60008a73ffffffffffffffffffffffffffffffffffffffff1673ffffffffffffffffffffffffffffffffffffffff16815260200190815260200160002054831115613bd357600f60008a73ffffffffffffffffffffffffffffffffffffffff1673ffffffffffffffffffffffffffffffffffffffff1681526020019081526020016000205492505b836008819055508260098190555073cc3e89fbc10e155f1164f8c9cf0703acde53f6fd73ffffffffffffffffffffffffffffffffffffffff166370a08231306040518263ffffffff1660e01b8152600401613c2e9190614038565b602060405180830381865afa158015613c4b573d6000803e3d6000fd5b505050506040513d601f19601f82011682018060405250810190613c6f91906145e6565b600a8190555073328a7b4d538a2b3942653a9983fda3c12c57114173ffffffffffffffffffffffffffffffffffffffff166370a08231306040518263ffffffff1660e01b8152600401613cc29190614038565b602060405180830381865afa158015613cdf573d6000803e3d6000fd5b505050506040513d601f19601f82011682018060405250810190613d0391906145e6565b600b81905550505050505050505050565b6000806000670de0b6b3a7640000613d3f73cc3e89fbc10e155f1164f8c9cf0703acde53f6fd612ff3565b613d4991906148b2565b90506000670de0b6b3a7640000613d7373328a7b4d538a2b3942653a9983fda3c12c571141612ff3565b613d7d91906148b2565b90506000670de0b6b3a7640000600760009054906101000a900473ffffffffffffffffffffffffffffffffffffffff1673ffffffffffffffffffffffffffffffffffffffff166318160ddd6040518163ffffffff1660e01b8152600401602060405180830381865afa158015613df7573d6000803e3d6000fd5b505050506040513d601f19601f82011682018060405250810190613e1b91906145e6565b613e2591906148b2565b905060008684620f424084613e3a91906148b2565b613e44919061493b565b613e4e91906148b2565b90506000878484613e5f919061493b565b613e6991906148b2565b9050620f424082613e7a919061493b565b81965096505050505050915091565b73cc3e89fbc10e155f1164f8c9cf0703acde53f6fd73ffffffffffffffffffffffffffffffffffffffff1663a9059cbb600560009054906101000a900473ffffffffffffffffffffffffffffffffffffffff16846040518363ffffffff1660e01b8152600401613efa929190614b22565b6020604051808303816000875af1158015613f19573d6000803e3d6000fd5b505050506040513d601f19601f82011682018060405250810190613f3d9190614b77565b5073328a7b4d538a2b3942653a9983fda3c12c57114173ffffffffffffffffffffffffffffffffffffffff1663a9059cbb600560009054906101000a900473ffffffffffffffffffffffffffffffffffffffff16836040518363ffffffff1660e01b8152600401613faf929190614b22565b6020604051808303816000875af1158015613fce573d6000803e3d6000fd5b505050506040513d601f19601f82011682018060405250810190613ff29190614b77565b505050565b600073ffffffffffffffffffffffffffffffffffffffff82169050919050565b600061402282613ff7565b9050919050565b61403281614017565b82525050565b600060208201905061404d6000830184614029565b92915050565b600081519050919050565b600082825260208201905092915050565b60005b8381101561408d578082015181840152602081019050614072565b8381111561409c576000848401525b50505050565b6000601f19601f8301169050919050565b60006140be82614053565b6140c8818561405e565b93506140d881856020860161406f565b6140e1816140a2565b840191505092915050565b6000602082019050818103600083015261410681846140b3565b905092915050565b6000604051905090565b600080fd5b600080fd5b61412b81614017565b811461413657600080fd5b50565b60008135905061414881614122565b92915050565b6000819050919050565b6141618161414e565b811461416c57600080fd5b50565b60008135905061417e81614158565b92915050565b6000806040838503121561419b5761419a614118565b5b60006141a985828601614139565b92505060206141ba8582860161416f565b9150509250929050565b60008115159050919050565b6141d9816141c4565b82525050565b60006020820190506141f460008301846141d0565b92915050565b6000602082840312156142105761420f614118565b5b600061421e84828501614139565b91505092915050565b6142308161414e565b82525050565b600060208201905061424b6000830184614227565b92915050565b60008060006060848603121561426a57614269614118565b5b600061427886828701614139565b935050602061428986828701614139565b925050604061429a8682870161416f565b9150509250925092565b6000819050919050565b60006142c96142c46142bf84613ff7565b6142a4565b613ff7565b9050919050565b60006142db826142ae565b9050919050565b60006142ed826142d0565b9050919050565b6142fd816142e2565b82525050565b600060208201905061431860008301846142f4565b92915050565b600060ff82169050919050565b6143348161431e565b82525050565b600060208201905061434f600083018461432b565b92915050565b6000614360826142d0565b9050919050565b61437081614355565b82525050565b600060208201905061438b6000830184614367565b92915050565b600061439c826142d0565b9050919050565b6143ac81614391565b82525050565b60006020820190506143c760008301846143a3565b92915050565b60006143d8826142d0565b9050919050565b6143e8816143cd565b82525050565b600060208201905061440360008301846143df565b92915050565b600060408201905061441e6000830185614227565b61442b6020830184614227565b9392505050565b6000806040838503121561444957614448614118565b5b600061445785828601614139565b925050602061446885828601614139565b9150509250929050565b7f4e487b7100000000000000000000000000000000000000000000000000000000600052602260045260246000fd5b600060028204905060018216806144b957607f821691505b602082108114156144cd576144cc614472565b5b50919050565b7f217661756c740000000000000000000000000000000000000000000000000000600082015250565b600061450960068361405e565b9150614514826144d3565b602082019050919050565b60006020820190508181036000830152614538816144fc565b9050919050565b7f45524332303a207472616e7366657220616d6f756e742065786365656473206160008201527f6c6c6f77616e6365000000000000000000000000000000000000000000000000602082015250565b600061459b60288361405e565b91506145a68261453f565b604082019050919050565b600060208201905081810360008301526145ca8161458e565b9050919050565b6000815190506145e081614158565b92915050565b6000602082840312156145fc576145fb614118565b5b600061460a848285016145d1565b91505092915050565b7f4e487b7100000000000000000000000000000000000000000000000000000000600052601160045260246000fd5b600061464d8261414e565b91506146588361414e565b9250827fffffffffffffffffffffffffffffffffffffffffffffffffffffffffffffffff0382111561468d5761468c614613565b5b828201905092915050565b6000819050919050565b60006146bd6146b86146b384614698565b6142a4565b61414e565b9050919050565b6146cd816146a2565b82525050565b60006040820190506146e860008301856146c4565b6146f560208301846146c4565b9392505050565b7f45524332303a2064656372656173656420616c6c6f77616e63652062656c6f7760008201527f207a65726f000000000000000000000000000000000000000000000000000000602082015250565b600061475860258361405e565b9150614763826146fc565b604082019050919050565b600060208201905081810360008301526147878161474b565b9050919050565b7f45524332303a20617070726f76652066726f6d20746865207a65726f2061646460008201527f7265737300000000000000000000000000000000000000000000000000000000602082015250565b60006147ea60248361405e565b91506147f58261478e565b604082019050919050565b60006020820190508181036000830152614819816147dd565b9050919050565b7f45524332303a20617070726f766520746f20746865207a65726f20616464726560008201527f7373000000000000000000000000000000000000000000000000000000000000602082015250565b600061487c60228361405e565b915061488782614820565b604082019050919050565b600060208201905081810360008301526148ab8161486f565b9050919050565b60006148bd8261414e565b91506148c88361414e565b9250817fffffffffffffffffffffffffffffffffffffffffffffffffffffffffffffffff048311821515161561490157614900614613565b5b828202905092915050565b7f4e487b7100000000000000000000000000000000000000000000000000000000600052601260045260246000fd5b60006149468261414e565b91506149518361414e565b9250826149615761496061490c565b5b828204905092915050565b7f45524332303a207472616e736665722066726f6d20746865207a65726f20616460008201527f6472657373000000000000000000000000000000000000000000000000000000602082015250565b60006149c860258361405e565b91506149d38261496c565b604082019050919050565b600060208201905081810360008301526149f7816149bb565b9050919050565b7f45524332303a207472616e7366657220746f20746865207a65726f206164647260008201527f6573730000000000000000000000000000000000000000000000000000000000602082015250565b6000614a5a60238361405e565b9150614a65826149fe565b604082019050919050565b60006020820190508181036000830152614a8981614a4d565b9050919050565b7f45524332303a207472616e7366657220616d6f756e742065786365656473206260008201527f616c616e63650000000000000000000000000000000000000000000000000000602082015250565b6000614aec60268361405e565b9150614af782614a90565b604082019050919050565b60006020820190508181036000830152614b1b81614adf565b9050919050565b6000604082019050614b376000830185614029565b614b446020830184614227565b9392505050565b614b54816141c4565b8114614b5f57600080fd5b50565b600081519050614b7181614b4b565b92915050565b600060208284031215614b8d57614b8c614118565b5b6000614b9b84828501614b62565b91505092915050565b6000604082019050614bb960008301856146c4565b614bc66020830184614227565b9392505050565b6000614bd88261414e565b9150614be38361414e565b925082821015614bf657614bf5614613565b5b828203905092915050565b7f4e487b7100000000000000000000000000000000000000000000000000000000600052604160045260246000fd5b7f4e487b7100000000000000000000000000000000000000000000000000000000600052603260045260246000fd5b600081519050919050565b600082825260208201905092915050565b6000819050602082019050919050565b614c9481614017565b82525050565b6000614ca68383614c8b565b60208301905092915050565b6000602082019050919050565b6000614cca82614c5f565b614cd48185614c6a565b9350614cdf83614c7b565b8060005b83811015614d10578151614cf78882614c9a565b9750614d0283614cb2565b925050600181019050614ce3565b5085935050505092915050565b600060a082019050614d326000830188614227565b614d3f60208301876146c4565b8181036040830152614d518186614cbf565b9050614d606060830185614029565b614d6d6080830184614227565b9695505050505050565b600080fd5b614d85826140a2565b810181811067ffffffffffffffff82111715614da457614da3614c01565b5b80604052505050565b6000614db761410e565b9050614dc38282614d7c565b919050565b600067ffffffffffffffff821115614de357614de2614c01565b5b602082029050602081019050919050565b600080fd5b6000614e0c614e0784614dc8565b614dad565b90508083825260208201905060208402830185811115614e2f57614e2e614df4565b5b835b81811015614e585780614e4488826145d1565b845260208401935050602081019050614e31565b5050509392505050565b600082601f830112614e7757614e76614d77565b5b8151614e87848260208601614df9565b91505092915050565b600060208284031215614ea657614ea5614118565b5b600082015167ffffffffffffffff811115614ec457614ec361411d565b5b614ed084828501614e62565b91505092915050565b6000606082019050614eee6000830186614029565b614efb6020830185614227565b614f086040830184614227565b949350505050565b60006020820190508181036000830152614f2a8184614cbf565b905092915050565b6000819050919050565b6000614f57614f52614f4d84614f32565b6142a4565b61414e565b9050919050565b614f6781614f3c565b82525050565b600061010082019050614f83600083018b614029565b614f90602083018a614029565b614f9d6040830189614227565b614faa6060830188614227565b614fb76080830187614f5e565b614fc460a0830186614f5e565b614fd160c0830185614029565b614fde60e0830184614227565b9998505050505050505050565b60008060006060848603121561500457615003614118565b5b6000615012868287016145d1565b9350506020615023868287016145d1565b9250506040615034868287016145d1565b9150509250925092565b600060e082019050615053600083018a614029565b6150606020830189614029565b61506d6040830188614227565b61507a6060830187614f5e565b6150876080830186614f5e565b61509460a0830185614029565b6150a160c0830184614227565b98975050505050505050565b600080604083850312156150c4576150c3614118565b5b60006150d2858286016145d1565b92505060206150e3858286016145d1565b9150509250929050565b7f4554480000000000000000000000000000000000000000000000000000000000600082015250565b600061512360038361405e565b915061512e826150ed565b602082019050919050565b7f5553444300000000000000000000000000000000000000000000000000000000600082015250565b600061516f60048361405e565b915061517a82615139565b602082019050919050565b6000604082019050818103600083015261519e81615116565b905081810360208301526151b181615162565b9050919050565b600080fd5b6000606082840312156151d3576151d26151b8565b5b6151dd6060614dad565b905060006151ed848285016145d1565b6000830152506020615201848285016145d1565b6020830152506040615215848285016145d1565b60408301525092915050565b60006060828403121561523757615236614118565b5b6000615245848285016151bd565b91505092915050565b7f45524332303a206d696e7420746f20746865207a65726f206164647265737300600082015250565b6000615284601f8361405e565b915061528f8261524e565b602082019050919050565b600060208201905081810360008301526152b381615277565b9050919050565b7f45524332303a206275726e2066726f6d20746865207a65726f2061646472657360008201527f7300000000000000000000000000000000000000000000000000000000000000602082015250565b600061531660218361405e565b9150615321826152ba565b604082019050919050565b6000602082019050818103600083015261534581615309565b9050919050565b7f45524332303a206275726e20616d6f756e7420657863656564732062616c616e60008201527f6365000000000000000000000000000000000000000000000000000000000000602082015250565b60006153a860228361405e565b91506153b38261534c565b604082019050919050565b600060208201905081810360008301526153d78161539b565b905091905056fea2646970667358221220a1dec04c5fd23d849abd73180efb6d5c40e0e015a796a56037d16e1b78a61e6064736f6c634300080a0033",
  "immutableReferences": {
    "1988": [
      {
        "length": 32,
        "start": 3609
      },
      {
        "length": 32,
        "start": 10870
      },
      {
        "length": 32,
        "start": 11404
      }
    ],
    "1991": [
      {
        "length": 32,
        "start": 3447
      },
      {
        "length": 32,
        "start": 9927
      },
      {
        "length": 32,
        "start": 12413
      }
    ],
    "1994": [
      {
        "length": 32,
        "start": 2816
      },
      {
        "length": 32,
        "start": 12577
      }
    ]
  },
  "source": "pragma solidity ^0.8.10; \npragma abicoder v2;  \n\nimport \"../DjinnBottleUSDC.sol\"; \nimport \"../interfaces/CTokenInterfaces.sol\"; \nimport \"../interfaces/ComptrollerInterface.sol\";  \nimport \"../interfaces/IStdReference.sol\"; \nimport \"@uniswap/v2-periphery/contracts/interfaces/IUniswapV2Router02.sol\"; \nimport \"../interfaces/IMasterChef.sol\"; \nimport \"@openzeppelin/contracts/token/ERC20/IERC20.sol\"; \n\n\ncontract DeltaNeutralFtmTomb is ERC20 {\n\t\n\t//Contract Specifics \n\taddress public creator; \n\tuint private constant CREATOR_FEE = 100; //1% \n\taddress public treasuryWallet;  \n\tDjinnBottleUSDC public VAULT; \n\n\t//test variables\n\tuint public ass; \n\tuint public balls; \n\tuint public cocks; \n\tuint public tits; \n\tuint public test; \n\n\t//Balances For Withdraw\n\tmapping(address => uint) public tokenBorrowBalance; //18 decimals  \n\tmapping(address => uint) public mintedETH; \n\tmapping(address => uint) public mintedUSDC; \n\t\n\t//Cream Finance Contracts (also just the Iron Bank Contracts)\n\taddress public constant crUSDC = 0x328A7b4d538A2b3942653a9983fdA3C12c571141; \n\taddress public constant crETH = 0xcc3E89fBc10e155F1164f8c9Cf0703aCDe53f6Fd; \n\n\t//Public Tokens\n\taddress public constant USDC = 0x04068DA6C83AFCFA0e13ba15A6696662335D5B75; \n\taddress public constant WETH = 0x74b23882a30290451A17c44f4F05243b6b58C76d; \n\taddress public constant WFTM = 0x21be370D5312f44cB42ce377BC9b8a0cEF1A4C83; \n\taddress public constant TOMB = 0x6c021Ae822BEa943b2E66552bDe1D2696a53fbB7; \n\taddress public constant TSHARE = 0x4cdF39285D7Ca8eB3f090fDA0C069ba5F4145B37; \n\t\n\t//SpookySwap Router, LP, TSHAREPool \n\taddress public constant spookyAddress = 0xF491e7B69E4244ad4002BC14e878a34207E38c29;\t\t\n\taddress public constant spookyFtmTombLP = 0x2A651563C9d3Af67aE0388a5c8F89b867038089e; \n\taddress public constant tShareRewardPool = 0xcc0a87F7e7c693042a9Cc703661F5060c80ACb43; \n\n//Contract Interfaces  \n\tIUniswapV2Router02 public immutable spookyRouter; \n\tComptrollerInterface public immutable comptroller; \n\tIStdReference public immutable priceOracle;\n\t\n\n\n\tconstructor(DjinnBottleUSDC _djBottle, \t\n\t\t\t\tIUniswapV2Router02 _spookyRouter, \n\t\t\t\tComptrollerInterface _comptroller, \n\t\t\t\tIStdReference _priceOracle,\n\t\t\t\taddress wallet) ERC20(\"Djinn FTM Short Farm\", \"dFTMShort\") {\n\t\t\t\t\tcreator = msg.sender;\n\t\t\t\t\tVAULT = _djBottle; \n\t\t\t\t\tspookyRouter = _spookyRouter; \n\t\t\t\t\tcomptroller = _comptroller;  \n\t\t\t\t\tpriceOracle = _priceOracle; \t\n\t\t\t\t\ttreasuryWallet = wallet; \n\t\t\t\t}\n\n\t//designed for single user ie. user opens via vault contract \t\n\tfunction open(address user, uint amount) external {\n\t\trequire(msg.sender == address(VAULT), \"!vault\"); \n\t\tsplit(user, amount); \n\t}\n\n\t//automate the harvest \n\tfunction harvest() external {\n\t\trequire(msg.sender == address(VAULT), \"!vault\"); \n\t\tIMasterChef(tShareRewardPool).deposit(0, 0); //0 is poolId and we call a deposit of 0 to allocate the shares to this contract\n\t\tcompoundLPTokens(); \n\t}\n\t\n\t//automate the closing of the position\n\t//designed for single use ie. user closes via vault contract \t\n\t//so we need to vault contract to determine how many tokens belong to the user from this contract \n\tfunction close(address user, uint amountShares) external {\n\t\trequire(msg.sender == address(VAULT), \"!vault\"); \n\t\twithdrawLP(user, amountShares);\n\t}\n\n\t////////////////// BEGIN DEPOSIT LOGIC //////////////////  \n\n\tfunction split(address user, uint amount) internal {\n\t\tuint swapAmount = (amount * 70) / 100; \n\t\tswap(USDC, WETH, swapAmount); \n\t\tuint usdcAmount = getTokenBalance(USDC);\n\t\tuint wethAmount = getTokenBalance(WETH); \n\n\t\t//next step\n\t\tborrow(user, usdcAmount, wethAmount);\n\t}\n\t\n\t//we are borrowing the same amount of deposited ETH to achieve a vault that does not get liquidated\t\n\tfunction borrow(address user, uint amountUSDC, uint amountWETH) internal {\n\t\t//first check for any leftovers in the contract\n\t\tuint cTokenETHBefore = getCrTokenBalance(crETH);\n\t\tuint cTokenUSDCBefore = getCrTokenBalance(crUSDC);\n\n\t\t//supply USDC && WETH\n\t\tIERC20(USDC).approve(crUSDC, amountUSDC); \n\t\tCERC20(crUSDC).mint(amountUSDC);\n\n\t\tIERC20(WETH).approve(crETH, amountWETH); \n\t\tCERC20(crETH).mint(amountWETH); \n\t\t\n\t\tuint cTokenETHAfter = getCrTokenBalance(crETH);\n\t\tuint cTokenUSDCAfter = getCrTokenBalance(crUSDC); \n\n\t\tuint cTokenUSDCAmount = cTokenUSDCAfter - cTokenUSDCBefore; \n\t\tuint cTokenETHAmount = cTokenETHAfter - cTokenETHBefore; \n\t\t\n\t\t//store cTokens user amounts separate due to different interest rates \n\t\tVAULT.storeCrTokens(user, cTokenUSDCAmount, cTokenETHAmount); \n\t\tmintedUSDC[user] += cTokenUSDCAmount; \n\t\tmintedETH[user] += cTokenETHAmount; \n\t\n\t\t//we enter the markets to use usdc && wftm as collateral \t\n\t\taddress[] memory cTokenSupplied = new address[](2); \n\t\tcTokenSupplied[0] = crUSDC; //cToken address\n\t\tcTokenSupplied[1] = crETH; \n\t\tcomptroller.enterMarkets(cTokenSupplied); \n\t\t\n\t\tuint borrowBalanceBefore = borrowBalance(); \t\n\t\t//get max borrow && borrow  \n\t\t( ,uint borrowAmount, ) = getBorrowAmount();\n\t\tCERC20(crETH).borrow(borrowAmount);  \n\t\t\n\t\tuint borrowBalanceAfter = borrowBalance(); \n\t\ttokenBorrowBalance[user] += (borrowBalanceAfter - borrowBalanceBefore);   \n\n\t\t//next step \n\t\tswapForTokens(); \n\t}\n\n\tfunction swapForTokens() internal {\n\t\tuint half = (getTokenBalance(WETH) * 50) / 100; \n\t\tIERC20(WETH).approve(spookyAddress, getTokenBalance(WETH)); \n\t\t\n\t\t//execute the swap here \n\t\tswap(WETH, WFTM, half);  \n\n\t\tuint rest = getTokenBalance(WETH); \n\t\tswap(WETH, TOMB, rest);\n\t\t\n\t\t//next step \n\t\tgetLPTokens(); \n\t}\n\n\tfunction getLPTokens() internal {\n\t\t//we need to approve the router to spend our TOMB\n\t\tuint wftmAmount = getTokenBalance(WFTM); \n\t\tuint tombAmount = getTokenBalance(TOMB); \n\n\t\t//now we add liquidity \n\t\t//@params token, tokenAmount, minToken, minETH, to, deadline\n\t\tIERC20(TOMB).approve(spookyAddress, tombAmount); \n\t\tIERC20(WFTM).approve(spookyAddress, wftmAmount); \n\t\tuint lpTokenBalanceBefore = getTokenBalance(spookyFtmTombLP); \n\t\tspookyRouter.addLiquidity(TOMB, WFTM, tombAmount, wftmAmount, 1, 1, address(this), block.timestamp + 30); \n\n\t\tuint lpTokenBalanceAfter = getTokenBalance(spookyFtmTombLP); \n\t\tuint lpTokenToMint = lpTokenBalanceAfter - lpTokenBalanceBefore; \n\n\t\t//keep track of LP token amount in this contract using a 1:1 mint\n\t\t_mint(address(this), lpTokenToMint); \n\n\t\tdepositLPGetTShare(lpTokenToMint); \n\t}\n\t\n\tfunction depositLPGetTShare(uint lpTokenAmount) internal {\n\t\t//after this deposit the contract should be earning tshares as a reward \n\t\tIERC20(spookyFtmTombLP).approve(tShareRewardPool, lpTokenAmount); \n\t\tIMasterChef(tShareRewardPool).deposit(0, lpTokenAmount); //FTM-TOMB pool ID is 0 on Tomb.finance  \n\t}\n\n\t////////////////// DEPOSIT LOGIC ENDS  ////////////////// \n\n\t////////////////// BEGIN WITHDRAW LOGIC  ////////////////// \n\t\n\t//the shares are based on the dUSDC in the users wallet \n\tfunction withdrawLP(address user, uint amountShares) internal {\n\t\tuint strategyBalance = getTokenBalance(address(this)); //18 decimals \n\t\tuint totalShares = IERC20(address(VAULT)).totalSupply(); //8 decimals \n\n\t\tuint withdrawAmount = (strategyBalance / totalShares) * amountShares;\n\n\t\t//handle rounding error case on full vault withdraw \n\t\tif (withdrawAmount > strategyBalance) {\n\t\t\twithdrawAmount = strategyBalance; \n\t\t}\n\n\t\t//we first withdraw the LP tokens from TOMB  \n\t\t///we have to check the balances before and after the withdraw in case there are leftovers \n\t\tuint amountBefore = getTokenBalance(spookyFtmTombLP); \n\t\tIMasterChef(tShareRewardPool).withdraw(0, withdrawAmount);  \n\t\tuint amountAfter = getTokenBalance(spookyFtmTombLP); \n\t\tuint lpTokenAmount = amountAfter - amountBefore; \n\n\t\tremoveLiq(user, lpTokenAmount, amountShares); \n\t}\n\n\tfunction removeLiq(address user, uint lpTokenAmount, uint amountShares) internal {\t\t \n\t\t//we remove liquidity belonging to the user(amount) back for tomb + wftm \n\t\tuint wftmBefore = getTokenBalance(WFTM); \n\t\tuint tombBefore = getTokenBalance(TOMB); \n\n\t\tIERC20(spookyFtmTombLP).approve(spookyAddress, lpTokenAmount); \n\t\tspookyRouter.removeLiquidity(\n\t\t\tWFTM,\n\t\t\tTOMB, \n\t\t\tlpTokenAmount,\n\t\t   \t1,\n\t\t   \t1,\n\t\t   \taddress(this),\n\t\t   \tblock.timestamp + 30\n\t\t); \n\n\t\t_burn(address(this), lpTokenAmount); \n\n\t\tuint wftmAfter = getTokenBalance(WFTM); \n\t\tuint tombAfter = getTokenBalance(TOMB); \n\n\t\tuint wftmToSwap = wftmAfter - wftmBefore; \n\t\tuint tombToSwap = tombAfter - tombBefore; \n\t\tIERC20(WFTM).approve(spookyAddress, wftmToSwap); \n\t\tIERC20(TOMB).approve(spookyAddress, tombToSwap); \n\n\t\tuint ethBefore = getTokenBalance(WETH); \n\t\t//execute the swaps \n\t\tswap(WFTM, WETH, wftmToSwap); \n\t\tswap(TOMB, WETH, tombToSwap); \n\t\tuint ethAfter = getTokenBalance(WETH); \n\t\tuint ethAfterSwap = ethAfter - ethBefore; \n\n\t\t//next step\t\n\t\trepay(user, amountShares, ethAfterSwap); \n\t}\n\t\n\tfunction repay(address user, uint amountShares, uint ethAfterSwap) internal {\n\t\t//crToken shares \n\t\t(uint ethShares, uint usdcShares) = splitShares(amountShares);\t\n\n\t\tuint ethRedeem; \n\t\tuint usdcRedeem; \n\t\t\n\t\t//main logic \n\t\tuint profits; \n\t\tuint amountToRepay;\n\t\tif (ethAfterSwap > tokenBorrowBalance[user]) {\n\t\t\tprofits = ethAfterSwap - tokenBorrowBalance[user]; \n\t\t\tamountToRepay = tokenBorrowBalance[user]; \n\t\t\ttokenBorrowBalance[user] = 0; \n\n\t\t\t//min fee\n\t\t\tethRedeem = ethShares - (chargeFees(ethShares)); \n\t\t\tusdcRedeem = usdcShares - (chargeFees(usdcShares));\n\t\t\tpayCreator(chargeFees(ethShares), chargeFees(usdcShares)); \n\n\t\t} else {\n\t\t\tprofits = 0; \n\t\t\tamountToRepay = ethAfterSwap; \n\t\t\ttokenBorrowBalance[user] -= ethAfterSwap; \n\t\t\t\n\t\t\t//max fee on insta withdraw to prevent rounding error profits //2% fee instead of 1%\n\t\t\tethRedeem = ethShares - (chargeFees(ethShares) * 2); \n\t\t\tusdcRedeem = usdcShares - (chargeFees(usdcShares) * 2);\n\t\t\tpayCreator(chargeFees(ethShares) * 2, chargeFees(usdcShares) * 2); \n\n\t\t}\n\n\t\tif (ethRedeem > mintedETH[user]) {\n\t\t\tethRedeem = mintedETH[user]; \n\t\t}\n\n\t\tif (usdcRedeem > mintedUSDC[user]) {\n\t\t\tusdcRedeem = mintedUSDC[user]; \n\t\t}\n\n\t\tass = ethRedeem; \n\t\tballs = usdcRedeem; \t\n\t\tcocks = CERC20(crETH).balanceOf(address(this)); \n\t\ttits = CERC20(crUSDC).balanceOf(address(this)); \n\n\t\t//account for rounding errors if last person in vault wants to withdraw \n//\t\tif (amountToRepay > borrowBalance()) {\n//\t\t\tamountToRepay = borrowBalance(); \n//\t\t}\n//\n//\t\t//now we can repay our users borrow\n//\t\tIERC20(WETH).approve(crETH, amountToRepay);\n// \t\tCERC20(crETH).repayBorrow(amountToRepay); \n// \n// \t\tuint ethBefore = getTokenBalance(WETH); \t\n// \t\tuint usdcBefore = getTokenBalance(USDC); \t\n//\n// \t\t//redeem initial deposit amount + interest \n//\t\tCERC20(crETH).redeem(ethRedeem); \n// \t\tCERC20(crUSDC).redeem(usdcRedeem); \n// \n// \t\t//one final check for dust \n// \t\tif (profits > getTokenBalance(WETH)) {\n// \t\t\tprofits = getTokenBalance(WETH); \n// \t\t}\n// \t\t\n// \t\t//recheck\n// \t\tuint ethAfter = getTokenBalance(WETH); \n// \t\tuint usdcAfter = getTokenBalance(USDC); \n// \t\tuint ethAmount = (ethAfter - ethBefore) + profits; \n// \t\tuint usdcAmount = usdcAfter - usdcBefore;  \n// \n// \t\t//final step \n// \t\tswapProfits(ethAmount, usdcAmount); \n\t}\n\n\t//swap eth for usdc and send back to vault\n\tfunction swapProfits(uint ethAmount, uint usdcAmount) internal {\t\n\t\tuint usdcBefore = getTokenBalance(USDC); \n\t\tswap(WETH, USDC, ethAmount); \n\t\tuint usdcAfter = getTokenBalance(USDC); \n\t\tuint totalToSend = (usdcAfter - usdcBefore) + usdcAmount; \n\n\t\tIERC20(USDC).transfer(address(VAULT), totalToSend); \n\t}\n\n\t////////////////// END WITHDRAW LOGIC ////////////////// \n\n\t////////////////// BEGIN HARVEST LOGIC ////////////////// \n\t\n\t//sells tshares for tomb and wftm tokens \n\tfunction compoundLPTokens() internal {\n\t\tuint tsharesInitial = getTokenBalance(TSHARE); \n\t\tuint harvestFee = chargeFees(tsharesInitial); \n\t\tIERC20(TSHARE).transfer(treasuryWallet, harvestFee); //goes to treasury and will be swapped for FTM to use for gas fees \n\n\t\tuint tshares = getTokenBalance(TSHARE);  //update amount \n\t\tuint half = (tshares * 50) / 100; \n\t\tIERC20(TSHARE).approve(spookyAddress, tshares); \n\t\t//true for 3 route swap \n\t\tswap(TSHARE, TOMB, half); \n\t\n\t\t//swap rest to WFTM \n\t\t//call again to avoid rounding errors \n\t\tuint rest = getTokenBalance(TSHARE); \n\t\tswap(TSHARE, WFTM, rest); \t\n\n\t\t//reinvest\n\t\tgetLPTokens(); \n\t}\n\n\t////////////////// END HARVEST LOGIC ////////////////// \n\n\t////////////////// BEGIN HELPER LOGIC ////////////////// \n\n\t function swap(address tokenIn, address tokenOut, uint amount) internal {\t\n\t\tIERC20(tokenIn).approve(spookyAddress, amount); \n\t\taddress[] memory path; \n\n\t\tif (tokenIn == WFTM || tokenOut == WFTM) {\n\t\t\tpath = new address[](2); \n\t\t\tpath[0] = tokenIn; \n\t\t\tpath[1] = tokenOut; \n\t\t} else {\n\t\t\tpath = new address[](3); \n\t\t\tpath[0] = tokenIn; \n\t\t\tpath[1] = WFTM; \n\t\t\tpath[2] = tokenOut; \t\n\t\t}\n\n\n\t  \tIUniswapV2Router02(spookyAddress).swapExactTokensForTokens(\n   \t\t\tamount, \n\t  \t\t0, //min amount out \n\t  \t\tpath, \n\t  \t\taddress(this),\n\t  \t\tblock.timestamp + 30\n\t \t); \n\t}\n\n\t//returuns USD value of deposited assets, how much can be borrowed, and the price of the borrowed asset \n\tfunction getBorrowAmount() internal returns(uint liquidity, uint borrowAmount, uint price) {\n\t\t(, liquidity,) = comptroller.getAccountLiquidity(address(this)); \n\t\tIStdReference.ReferenceData memory data = priceOracle.getReferenceData(\"ETH\", \"USDC\"); \n\t\tprice = data.rate; \n\n\t\tuint maxTokenBorrow = (liquidity * 1e18) / price; //ETH has 18 decimals   \t\n\t\tborrowAmount = (maxTokenBorrow * 94) / 100; //this is token amount  \n\t\t\t\n\t\t//rebalance check to keep vault delta neutral \n\t\tuint borrowCheck = borrowAmount + borrowBalance(); \n\t\t(uint underlying, ) = getUnderlying(); //might have to add current deposit to this? \n\t\tuint diff; \n\t\tif (borrowCheck < underlying) {\n\t\t\tdiff = underlying - borrowCheck; \n\t\t\tborrowAmount += diff; \t\n\t\t} else if (borrowCheck > underlying) {\n\t\t\tdiff = borrowCheck - underlying; \n\t\t\tborrowAmount -= diff; \n\t\t}\n\t\treturn (liquidity, borrowAmount, price); \n\t}\n\t\n\t//returns the share per underlying crToken price  \n\tfunction splitShares (uint amountShares) internal view returns(uint, uint) {\n\t\tuint cTokenEth = getCrTokenBalance(crETH) * 1e18; \n\t\tuint cTokenUsdc = getCrTokenBalance(crUSDC) * 1e18;\n\t\tuint pool = VAULT.totalSupply() * 1e18;  \n\t\n\t\tuint ethShares = ((pool * 1e6) / cTokenEth) * amountShares; \n\t\tuint usdcShares = (pool / cTokenUsdc) * amountShares; \n\t\n\t\treturn (ethShares / 1e6, usdcShares); \n\t}\n\n\tfunction payCreator(uint amountEth, uint amountUSDC) internal {\n\t\tCERC20(crETH).transfer(creator, amountEth); \n\t\tCERC20(crUSDC).transfer(creator, amountUSDC); \n\t}\n\t\t\n\tfunction chargeFees(uint amount) internal pure returns(uint feeAmount) {\n\t\treturn feeAmount = (amount * CREATOR_FEE) / 1e4; //0.1 or 1% \n\t}\n\n\tfunction getTokenBalance(address token) internal view returns(uint amount) {\n\t\treturn amount = IERC20(token).balanceOf(address(this)); \n\t}\n\n\tfunction getCrTokenBalance(address crToken) internal view returns(uint amount) {\n\t\treturn amount = CERC20(crToken).balanceOf(address(this)); \n\t}\n\n\tfunction setTreasury(address wallet) external {\n\t\trequire(msg.sender == address(VAULT), \"!vault\"); \n\t\ttreasuryWallet = wallet; \t\t\n\t}\n\t\n\t//public for querying from frontend \n\tfunction getUnderlying() public returns(uint, uint) {\n\t\tuint underlyingETH = CERC20(crETH).balanceOfUnderlying(address(this)); \n\t\tuint underlyingUSDC = CERC20(crUSDC).balanceOfUnderlying(address(this));\n\t\treturn (underlyingETH, underlyingUSDC); \n\t}\n\n\tfunction borrowBalance() public returns(uint) {\n\t\treturn CERC20(crETH).borrowBalanceCurrent(address(this)); \n\t}\n} \n",
  "sourcePath": "/home/kevin/Code/solidity_projects/djinn/contracts/strategies/CreamFtmTombStrategy.sol",
  "compiler": {
    "name": "solc",
    "version": "0.8.10+commit.fc410830.Emscripten.clang"
  },
  "schemaVersion": "3.4.3",
  "updatedAt": "2022-03-14T14:24:52.161Z",
  "networkType": "ethereum",
  "devdoc": {
    "kind": "dev",
    "methods": {
      "allowance(address,address)": {
        "details": "See {IERC20-allowance}."
      },
      "approve(address,uint256)": {
        "details": "See {IERC20-approve}. Requirements: - `spender` cannot be the zero address."
      },
      "balanceOf(address)": {
        "details": "See {IERC20-balanceOf}."
      },
      "decimals()": {
        "details": "Returns the number of decimals used to get its user representation. For example, if `decimals` equals `2`, a balance of `505` tokens should be displayed to a user as `5.05` (`505 / 10 ** 2`). Tokens usually opt for a value of 18, imitating the relationship between Ether and Wei. This is the value {ERC20} uses, unless this function is overridden; NOTE: This information is only used for _display_ purposes: it in no way affects any of the arithmetic of the contract, including {IERC20-balanceOf} and {IERC20-transfer}."
      },
      "decreaseAllowance(address,uint256)": {
        "details": "Atomically decreases the allowance granted to `spender` by the caller. This is an alternative to {approve} that can be used as a mitigation for problems described in {IERC20-approve}. Emits an {Approval} event indicating the updated allowance. Requirements: - `spender` cannot be the zero address. - `spender` must have allowance for the caller of at least `subtractedValue`."
      },
      "increaseAllowance(address,uint256)": {
        "details": "Atomically increases the allowance granted to `spender` by the caller. This is an alternative to {approve} that can be used as a mitigation for problems described in {IERC20-approve}. Emits an {Approval} event indicating the updated allowance. Requirements: - `spender` cannot be the zero address."
      },
      "name()": {
        "details": "Returns the name of the token."
      },
      "symbol()": {
        "details": "Returns the symbol of the token, usually a shorter version of the name."
      },
      "totalSupply()": {
        "details": "See {IERC20-totalSupply}."
      },
      "transfer(address,uint256)": {
        "details": "See {IERC20-transfer}. Requirements: - `recipient` cannot be the zero address. - the caller must have a balance of at least `amount`."
      },
      "transferFrom(address,address,uint256)": {
        "details": "See {IERC20-transferFrom}. Emits an {Approval} event indicating the updated allowance. This is not required by the EIP. See the note at the beginning of {ERC20}. Requirements: - `sender` and `recipient` cannot be the zero address. - `sender` must have a balance of at least `amount`. - the caller must have allowance for ``sender``'s tokens of at least `amount`."
      }
    },
    "version": 1
  },
  "userdoc": {
    "kind": "user",
    "methods": {},
    "version": 1
  }
}