{
  "contractName": "DeltaNeutralFtmTomb",
  "abi": [
    {
      "inputs": [
        {
          "internalType": "contract DjinnBottleUSDC",
          "name": "_djBottle",
          "type": "address"
        },
        {
          "internalType": "contract IUniswapV2Router02",
          "name": "_spookyRouter",
          "type": "address"
        },
        {
          "internalType": "contract ComptrollerInterface",
          "name": "_comptroller",
          "type": "address"
        },
        {
          "internalType": "contract IStdReference",
          "name": "_priceOracle",
          "type": "address"
        },
        {
          "internalType": "address",
          "name": "wallet",
          "type": "address"
        }
      ],
      "stateMutability": "nonpayable",
      "type": "constructor"
    },
    {
      "anonymous": false,
      "inputs": [
        {
          "indexed": true,
          "internalType": "address",
          "name": "owner",
          "type": "address"
        },
        {
          "indexed": true,
          "internalType": "address",
          "name": "spender",
          "type": "address"
        },
        {
          "indexed": false,
          "internalType": "uint256",
          "name": "value",
          "type": "uint256"
        }
      ],
      "name": "Approval",
      "type": "event"
    },
    {
      "anonymous": false,
      "inputs": [
        {
          "indexed": true,
          "internalType": "address",
          "name": "from",
          "type": "address"
        },
        {
          "indexed": true,
          "internalType": "address",
          "name": "to",
          "type": "address"
        },
        {
          "indexed": false,
          "internalType": "uint256",
          "name": "value",
          "type": "uint256"
        }
      ],
      "name": "Transfer",
      "type": "event"
    },
    {
      "inputs": [],
      "name": "TOMB",
      "outputs": [
        {
          "internalType": "address",
          "name": "",
          "type": "address"
        }
      ],
      "stateMutability": "view",
      "type": "function",
      "constant": true
    },
    {
      "inputs": [],
      "name": "TSHARE",
      "outputs": [
        {
          "internalType": "address",
          "name": "",
          "type": "address"
        }
      ],
      "stateMutability": "view",
      "type": "function",
      "constant": true
    },
    {
      "inputs": [],
      "name": "USDC",
      "outputs": [
        {
          "internalType": "address",
          "name": "",
          "type": "address"
        }
      ],
      "stateMutability": "view",
      "type": "function",
      "constant": true
    },
    {
      "inputs": [],
      "name": "VAULT",
      "outputs": [
        {
          "internalType": "contract DjinnBottleUSDC",
          "name": "",
          "type": "address"
        }
      ],
      "stateMutability": "view",
      "type": "function",
      "constant": true
    },
    {
      "inputs": [],
      "name": "WETH",
      "outputs": [
        {
          "internalType": "address",
          "name": "",
          "type": "address"
        }
      ],
      "stateMutability": "view",
      "type": "function",
      "constant": true
    },
    {
      "inputs": [],
      "name": "WFTM",
      "outputs": [
        {
          "internalType": "address",
          "name": "",
          "type": "address"
        }
      ],
      "stateMutability": "view",
      "type": "function",
      "constant": true
    },
    {
      "inputs": [
        {
          "internalType": "address",
          "name": "owner",
          "type": "address"
        },
        {
          "internalType": "address",
          "name": "spender",
          "type": "address"
        }
      ],
      "name": "allowance",
      "outputs": [
        {
          "internalType": "uint256",
          "name": "",
          "type": "uint256"
        }
      ],
      "stateMutability": "view",
      "type": "function",
      "constant": true
    },
    {
      "inputs": [
        {
          "internalType": "address",
          "name": "spender",
          "type": "address"
        },
        {
          "internalType": "uint256",
          "name": "amount",
          "type": "uint256"
        }
      ],
      "name": "approve",
      "outputs": [
        {
          "internalType": "bool",
          "name": "",
          "type": "bool"
        }
      ],
      "stateMutability": "nonpayable",
      "type": "function"
    },
    {
      "inputs": [
        {
          "internalType": "address",
          "name": "account",
          "type": "address"
        }
      ],
      "name": "balanceOf",
      "outputs": [
        {
          "internalType": "uint256",
          "name": "",
          "type": "uint256"
        }
      ],
      "stateMutability": "view",
      "type": "function",
      "constant": true
    },
    {
      "inputs": [],
      "name": "comptroller",
      "outputs": [
        {
          "internalType": "contract ComptrollerInterface",
          "name": "",
          "type": "address"
        }
      ],
      "stateMutability": "view",
      "type": "function",
      "constant": true
    },
    {
      "inputs": [],
      "name": "crETH",
      "outputs": [
        {
          "internalType": "address",
          "name": "",
          "type": "address"
        }
      ],
      "stateMutability": "view",
      "type": "function",
      "constant": true
    },
    {
      "inputs": [],
      "name": "crUSDC",
      "outputs": [
        {
          "internalType": "address",
          "name": "",
          "type": "address"
        }
      ],
      "stateMutability": "view",
      "type": "function",
      "constant": true
    },
    {
      "inputs": [],
      "name": "creator",
      "outputs": [
        {
          "internalType": "address",
          "name": "",
          "type": "address"
        }
      ],
      "stateMutability": "view",
      "type": "function",
      "constant": true
    },
    {
      "inputs": [],
      "name": "decimals",
      "outputs": [
        {
          "internalType": "uint8",
          "name": "",
          "type": "uint8"
        }
      ],
      "stateMutability": "view",
      "type": "function",
      "constant": true
    },
    {
      "inputs": [
        {
          "internalType": "address",
          "name": "spender",
          "type": "address"
        },
        {
          "internalType": "uint256",
          "name": "subtractedValue",
          "type": "uint256"
        }
      ],
      "name": "decreaseAllowance",
      "outputs": [
        {
          "internalType": "bool",
          "name": "",
          "type": "bool"
        }
      ],
      "stateMutability": "nonpayable",
      "type": "function"
    },
    {
      "inputs": [
        {
          "internalType": "address",
          "name": "spender",
          "type": "address"
        },
        {
          "internalType": "uint256",
          "name": "addedValue",
          "type": "uint256"
        }
      ],
      "name": "increaseAllowance",
      "outputs": [
        {
          "internalType": "bool",
          "name": "",
          "type": "bool"
        }
      ],
      "stateMutability": "nonpayable",
      "type": "function"
    },
    {
      "inputs": [],
      "name": "name",
      "outputs": [
        {
          "internalType": "string",
          "name": "",
          "type": "string"
        }
      ],
      "stateMutability": "view",
      "type": "function",
      "constant": true
    },
    {
      "inputs": [],
      "name": "priceOracle",
      "outputs": [
        {
          "internalType": "contract IStdReference",
          "name": "",
          "type": "address"
        }
      ],
      "stateMutability": "view",
      "type": "function",
      "constant": true
    },
    {
      "inputs": [],
      "name": "spookyAddress",
      "outputs": [
        {
          "internalType": "address",
          "name": "",
          "type": "address"
        }
      ],
      "stateMutability": "view",
      "type": "function",
      "constant": true
    },
    {
      "inputs": [],
      "name": "spookyFtmTombLP",
      "outputs": [
        {
          "internalType": "address",
          "name": "",
          "type": "address"
        }
      ],
      "stateMutability": "view",
      "type": "function",
      "constant": true
    },
    {
      "inputs": [],
      "name": "spookyRouter",
      "outputs": [
        {
          "internalType": "contract IUniswapV2Router02",
          "name": "",
          "type": "address"
        }
      ],
      "stateMutability": "view",
      "type": "function",
      "constant": true
    },
    {
      "inputs": [],
      "name": "symbol",
      "outputs": [
        {
          "internalType": "string",
          "name": "",
          "type": "string"
        }
      ],
      "stateMutability": "view",
      "type": "function",
      "constant": true
    },
    {
      "inputs": [],
      "name": "tShareRewardPool",
      "outputs": [
        {
          "internalType": "address",
          "name": "",
          "type": "address"
        }
      ],
      "stateMutability": "view",
      "type": "function",
      "constant": true
    },
    {
      "inputs": [
        {
          "internalType": "address",
          "name": "",
          "type": "address"
        }
      ],
      "name": "tokenBorrowBalance",
      "outputs": [
        {
          "internalType": "uint256",
          "name": "",
          "type": "uint256"
        }
      ],
      "stateMutability": "view",
      "type": "function",
      "constant": true
    },
    {
      "inputs": [],
      "name": "totalSupply",
      "outputs": [
        {
          "internalType": "uint256",
          "name": "",
          "type": "uint256"
        }
      ],
      "stateMutability": "view",
      "type": "function",
      "constant": true
    },
    {
      "inputs": [
        {
          "internalType": "address",
          "name": "recipient",
          "type": "address"
        },
        {
          "internalType": "uint256",
          "name": "amount",
          "type": "uint256"
        }
      ],
      "name": "transfer",
      "outputs": [
        {
          "internalType": "bool",
          "name": "",
          "type": "bool"
        }
      ],
      "stateMutability": "nonpayable",
      "type": "function"
    },
    {
      "inputs": [
        {
          "internalType": "address",
          "name": "sender",
          "type": "address"
        },
        {
          "internalType": "address",
          "name": "recipient",
          "type": "address"
        },
        {
          "internalType": "uint256",
          "name": "amount",
          "type": "uint256"
        }
      ],
      "name": "transferFrom",
      "outputs": [
        {
          "internalType": "bool",
          "name": "",
          "type": "bool"
        }
      ],
      "stateMutability": "nonpayable",
      "type": "function"
    },
    {
      "inputs": [],
      "name": "treasuryWallet",
      "outputs": [
        {
          "internalType": "address",
          "name": "",
          "type": "address"
        }
      ],
      "stateMutability": "view",
      "type": "function",
      "constant": true
    },
    {
      "inputs": [
        {
          "internalType": "address",
          "name": "user",
          "type": "address"
        },
        {
          "internalType": "uint256",
          "name": "amount",
          "type": "uint256"
        }
      ],
      "name": "open",
      "outputs": [],
      "stateMutability": "nonpayable",
      "type": "function"
    },
    {
      "inputs": [],
      "name": "harvest",
      "outputs": [],
      "stateMutability": "nonpayable",
      "type": "function"
    },
    {
      "inputs": [
        {
          "internalType": "address",
          "name": "user",
          "type": "address"
        },
        {
          "internalType": "uint256",
          "name": "amountShares",
          "type": "uint256"
        }
      ],
      "name": "close",
      "outputs": [],
      "stateMutability": "nonpayable",
      "type": "function"
    },
    {
      "inputs": [
        {
          "internalType": "address",
          "name": "wallet",
          "type": "address"
        }
      ],
      "name": "setTreasury",
      "outputs": [],
      "stateMutability": "nonpayable",
      "type": "function"
    },
    {
      "inputs": [],
      "name": "getUnderlying",
      "outputs": [
        {
          "internalType": "uint256",
          "name": "",
          "type": "uint256"
        },
        {
          "internalType": "uint256",
          "name": "",
          "type": "uint256"
        }
      ],
      "stateMutability": "nonpayable",
      "type": "function"
    },
    {
      "inputs": [],
      "name": "borrowBalance",
      "outputs": [
        {
          "internalType": "uint256",
          "name": "",
          "type": "uint256"
        }
      ],
      "stateMutability": "nonpayable",
      "type": "function"
    }
  ],
  "bytecode": "0x60e06040523480156200001157600080fd5b50604051620059aa380380620059aa83398181016040528101906200003791906200046f565b6040518060400160405280601481526020017f446a696e6e2046544d2053686f7274204661726d0000000000000000000000008152506040518060400160405280600981526020017f6446544d53686f727400000000000000000000000000000000000000000000008152508160039080519060200190620000bb92919062000241565b508060049080519060200190620000d492919062000241565b50505033600560006101000a81548173ffffffffffffffffffffffffffffffffffffffff021916908373ffffffffffffffffffffffffffffffffffffffff16021790555084600760006101000a81548173ffffffffffffffffffffffffffffffffffffffff021916908373ffffffffffffffffffffffffffffffffffffffff1602179055508373ffffffffffffffffffffffffffffffffffffffff1660808173ffffffffffffffffffffffffffffffffffffffff16815250508273ffffffffffffffffffffffffffffffffffffffff1660a08173ffffffffffffffffffffffffffffffffffffffff16815250508173ffffffffffffffffffffffffffffffffffffffff1660c08173ffffffffffffffffffffffffffffffffffffffff168152505080600660006101000a81548173ffffffffffffffffffffffffffffffffffffffff021916908373ffffffffffffffffffffffffffffffffffffffff16021790555050505050506200055c565b8280546200024f9062000526565b90600052602060002090601f016020900481019282620002735760008555620002bf565b82601f106200028e57805160ff1916838001178555620002bf565b82800160010185558215620002bf579182015b82811115620002be578251825591602001919060010190620002a1565b5b509050620002ce9190620002d2565b5090565b5b80821115620002ed576000816000905550600101620002d3565b5090565b600080fd5b600073ffffffffffffffffffffffffffffffffffffffff82169050919050565b60006200032382620002f6565b9050919050565b6000620003378262000316565b9050919050565b62000349816200032a565b81146200035557600080fd5b50565b60008151905062000369816200033e565b92915050565b60006200037c8262000316565b9050919050565b6200038e816200036f565b81146200039a57600080fd5b50565b600081519050620003ae8162000383565b92915050565b6000620003c18262000316565b9050919050565b620003d381620003b4565b8114620003df57600080fd5b50565b600081519050620003f381620003c8565b92915050565b6000620004068262000316565b9050919050565b6200041881620003f9565b81146200042457600080fd5b50565b60008151905062000438816200040d565b92915050565b620004498162000316565b81146200045557600080fd5b50565b60008151905062000469816200043e565b92915050565b600080600080600060a086880312156200048e576200048d620002f1565b5b60006200049e8882890162000358565b9550506020620004b1888289016200039d565b9450506040620004c488828901620003e2565b9350506060620004d78882890162000427565b9250506080620004ea8882890162000458565b9150509295509295909350565b7f4e487b7100000000000000000000000000000000000000000000000000000000600052602260045260246000fd5b600060028204905060018216806200053f57607f821691505b60208210811415620005565762000555620004f7565b5b50919050565b60805160a05160c0516153fb620005af600039600081816109bd0152612ee4015260008181610c160152818161248a0152612e40015260008181610cb2015281816128390152612a4f01526153fb6000f3fe608060405234801561001057600080fd5b50600436106102065760003560e01c806370a082311161011a578063a6f8d405116100ad578063c139acfa1161007c578063c139acfa146105da578063dd62ed3e146105f8578063e398fa1a14610628578063e49280cb14610646578063f0f442601461066257610206565b8063a6f8d40514610550578063a9059cbb1461056e578063ad5c46481461059e578063b5ee45c1146105bc57610206565b806395d89b41116100e957806395d89b41146104c55780639816f473146104e35780639cdd8ee714610502578063a457c2d71461052057610206565b806370a082311461043b57806382c70bbf1461046b57806389a30271146104895780638ed8ea7e146104a757610206565b8063243cd14e1161019d578063395093511161016c57806339509351146103a7578063411557d1146103d75780634626402b146103f55780634641257d146104135780635fe3b5671461041d57610206565b8063243cd14e1461032f5780632630c12f1461034d5780632c1c18361461036b578063313ce5671461038957610206565b806310760616116101d9578063107606161461029357806318160ddd146102c357806321dbe876146102e157806323b872dd146102ff57610206565b806302d05d3f1461020b57806306fdde0314610229578063095ea7b3146102475780630a0e5c9d14610277575b600080fd5b61021361067e565b604051610220919061401f565b60405180910390f35b6102316106a4565b60405161023e91906140d3565b60405180910390f35b610261600480360381019061025c919061416b565b610736565b60405161026e91906141c6565b60405180910390f35b610291600480360381019061028c919061416b565b610754565b005b6102ad60048036038101906102a891906141e1565b6107f2565b6040516102ba919061421d565b60405180910390f35b6102cb61080a565b6040516102d8919061421d565b60405180910390f35b6102e9610814565b6040516102f6919061401f565b60405180910390f35b61031960048036038101906103149190614238565b61082c565b60405161032691906141c6565b60405180910390f35b610337610924565b604051610344919061421d565b60405180910390f35b6103556109bb565b60405161036291906142ea565b60405180910390f35b6103736109df565b604051610380919061401f565b60405180910390f35b6103916109f7565b60405161039e9190614321565b60405180910390f35b6103c160048036038101906103bc919061416b565b610a00565b6040516103ce91906141c6565b60405180910390f35b6103df610aac565b6040516103ec919061435d565b60405180910390f35b6103fd610ad2565b60405161040a919061401f565b60405180910390f35b61041b610af8565b005b610425610c14565b6040516104329190614399565b60405180910390f35b610455600480360381019061045091906141e1565b610c38565b604051610462919061421d565b60405180910390f35b610473610c80565b604051610480919061401f565b60405180910390f35b610491610c98565b60405161049e919061401f565b60405180910390f35b6104af610cb0565b6040516104bc91906143d5565b60405180910390f35b6104cd610cd4565b6040516104da91906140d3565b60405180910390f35b6104eb610d66565b6040516104f99291906143f0565b60405180910390f35b61050a610e9d565b604051610517919061401f565b60405180910390f35b61053a6004803603810190610535919061416b565b610eb5565b60405161054791906141c6565b60405180910390f35b610558610fa0565b604051610565919061401f565b60405180910390f35b6105886004803603810190610583919061416b565b610fb8565b60405161059591906141c6565b60405180910390f35b6105a6610fd6565b6040516105b3919061401f565b60405180910390f35b6105c4610fee565b6040516105d1919061401f565b60405180910390f35b6105e2611006565b6040516105ef919061401f565b60405180910390f35b610612600480360381019061060d9190614419565b61101e565b60405161061f919061421d565b60405180910390f35b6106306110a5565b60405161063d919061401f565b60405180910390f35b610660600480360381019061065b919061416b565b6110bd565b005b61067c600480360381019061067791906141e1565b61115b565b005b600560009054906101000a900473ffffffffffffffffffffffffffffffffffffffff1681565b6060600380546106b390614488565b80601f01602080910402602001604051908101604052809291908181526020018280546106df90614488565b801561072c5780601f106107015761010080835404028352916020019161072c565b820191906000526020600020905b81548152906001019060200180831161070f57829003601f168201915b5050505050905090565b600061074a61074361122f565b8484611237565b6001905092915050565b600760009054906101000a900473ffffffffffffffffffffffffffffffffffffffff1673ffffffffffffffffffffffffffffffffffffffff163373ffffffffffffffffffffffffffffffffffffffff16146107e4576040517f08c379a00000000000000000000000000000000000000000000000000000000081526004016107db90614506565b60405180910390fd5b6107ee8282611402565b5050565b60086020528060005260406000206000915090505481565b6000600254905090565b7321be370d5312f44cb42ce377bc9b8a0cef1a4c8381565b60006108398484846114a6565b6000600160008673ffffffffffffffffffffffffffffffffffffffff1673ffffffffffffffffffffffffffffffffffffffff168152602001908152602001600020600061088461122f565b73ffffffffffffffffffffffffffffffffffffffff1673ffffffffffffffffffffffffffffffffffffffff16815260200190815260200160002054905082811015610904576040517f08c379a00000000000000000000000000000000000000000000000000000000081526004016108fb90614598565b60405180910390fd5b6109188561091061122f565b858403611237565b60019150509392505050565b600073cc3e89fbc10e155f1164f8c9cf0703acde53f6fd73ffffffffffffffffffffffffffffffffffffffff166317bfdfbc306040518263ffffffff1660e01b8152600401610973919061401f565b6020604051808303816000875af1158015610992573d6000803e3d6000fd5b505050506040513d601f19601f820116820180604052508101906109b691906145cd565b905090565b7f000000000000000000000000000000000000000000000000000000000000000081565b73cc0a87f7e7c693042a9cc703661f5060c80acb4381565b60006012905090565b6000610aa2610a0d61122f565b848460016000610a1b61122f565b73ffffffffffffffffffffffffffffffffffffffff1673ffffffffffffffffffffffffffffffffffffffff16815260200190815260200160002060008873ffffffffffffffffffffffffffffffffffffffff1673ffffffffffffffffffffffffffffffffffffffff16815260200190815260200160002054610a9d9190614629565b611237565b6001905092915050565b600760009054906101000a900473ffffffffffffffffffffffffffffffffffffffff1681565b600660009054906101000a900473ffffffffffffffffffffffffffffffffffffffff1681565b600760009054906101000a900473ffffffffffffffffffffffffffffffffffffffff1673ffffffffffffffffffffffffffffffffffffffff163373ffffffffffffffffffffffffffffffffffffffff1614610b88576040517f08c379a0000000000000000000000000000000000000000000000000000000008152600401610b7f90614506565b60405180910390fd5b73cc0a87f7e7c693042a9cc703661f5060c80acb4373ffffffffffffffffffffffffffffffffffffffff1663e2bbb1586000806040518363ffffffff1660e01b8152600401610bd89291906146ba565b600060405180830381600087803b158015610bf257600080fd5b505af1158015610c06573d6000803e3d6000fd5b50505050610c12611727565b565b7f000000000000000000000000000000000000000000000000000000000000000081565b60008060008373ffffffffffffffffffffffffffffffffffffffff1673ffffffffffffffffffffffffffffffffffffffff168152602001908152602001600020549050919050565b73328a7b4d538a2b3942653a9983fda3c12c57114181565b7304068da6c83afcfa0e13ba15a6696662335d5b7581565b7f000000000000000000000000000000000000000000000000000000000000000081565b606060048054610ce390614488565b80601f0160208091040260200160405190810160405280929190818152602001828054610d0f90614488565b8015610d5c5780601f10610d3157610100808354040283529160200191610d5c565b820191906000526020600020905b815481529060010190602001808311610d3f57829003601f168201915b5050505050905090565b600080600073cc3e89fbc10e155f1164f8c9cf0703acde53f6fd73ffffffffffffffffffffffffffffffffffffffff16633af9e669306040518263ffffffff1660e01b8152600401610db8919061401f565b6020604051808303816000875af1158015610dd7573d6000803e3d6000fd5b505050506040513d601f19601f82011682018060405250810190610dfb91906145cd565b9050600073328a7b4d538a2b3942653a9983fda3c12c57114173ffffffffffffffffffffffffffffffffffffffff16633af9e669306040518263ffffffff1660e01b8152600401610e4c919061401f565b6020604051808303816000875af1158015610e6b573d6000803e3d6000fd5b505050506040513d601f19601f82011682018060405250810190610e8f91906145cd565b905081819350935050509091565b732a651563c9d3af67ae0388a5c8f89b867038089e81565b60008060016000610ec461122f565b73ffffffffffffffffffffffffffffffffffffffff1673ffffffffffffffffffffffffffffffffffffffff16815260200190815260200160002060008573ffffffffffffffffffffffffffffffffffffffff1673ffffffffffffffffffffffffffffffffffffffff16815260200190815260200160002054905082811015610f81576040517f08c379a0000000000000000000000000000000000000000000000000000000008152600401610f7890614755565b60405180910390fd5b610f95610f8c61122f565b85858403611237565b600191505092915050565b73f491e7b69e4244ad4002bc14e878a34207e38c2981565b6000610fcc610fc561122f565b84846114a6565b6001905092915050565b7374b23882a30290451a17c44f4f05243b6b58c76d81565b734cdf39285d7ca8eb3f090fda0c069ba5f4145b3781565b736c021ae822bea943b2e66552bde1d2696a53fbb781565b6000600160008473ffffffffffffffffffffffffffffffffffffffff1673ffffffffffffffffffffffffffffffffffffffff16815260200190815260200160002060008373ffffffffffffffffffffffffffffffffffffffff1673ffffffffffffffffffffffffffffffffffffffff16815260200190815260200160002054905092915050565b73cc3e89fbc10e155f1164f8c9cf0703acde53f6fd81565b600760009054906101000a900473ffffffffffffffffffffffffffffffffffffffff1673ffffffffffffffffffffffffffffffffffffffff163373ffffffffffffffffffffffffffffffffffffffff161461114d576040517f08c379a000000000000000000000000000000000000000000000000000000000815260040161114490614506565b60405180910390fd5b6111578282611985565b5050565b600760009054906101000a900473ffffffffffffffffffffffffffffffffffffffff1673ffffffffffffffffffffffffffffffffffffffff163373ffffffffffffffffffffffffffffffffffffffff16146111eb576040517f08c379a00000000000000000000000000000000000000000000000000000000081526004016111e290614506565b60405180910390fd5b80600660006101000a81548173ffffffffffffffffffffffffffffffffffffffff021916908373ffffffffffffffffffffffffffffffffffffffff16021790555050565b600033905090565b600073ffffffffffffffffffffffffffffffffffffffff168373ffffffffffffffffffffffffffffffffffffffff1614156112a7576040517f08c379a000000000000000000000000000000000000000000000000000000000815260040161129e906147e7565b60405180910390fd5b600073ffffffffffffffffffffffffffffffffffffffff168273ffffffffffffffffffffffffffffffffffffffff161415611317576040517f08c379a000000000000000000000000000000000000000000000000000000000815260040161130e90614879565b60405180910390fd5b80600160008573ffffffffffffffffffffffffffffffffffffffff1673ffffffffffffffffffffffffffffffffffffffff16815260200190815260200160002060008473ffffffffffffffffffffffffffffffffffffffff1673ffffffffffffffffffffffffffffffffffffffff168152602001908152602001600020819055508173ffffffffffffffffffffffffffffffffffffffff168373ffffffffffffffffffffffffffffffffffffffff167f8c5be1e5ebec7d5bd14f71427d1e84f3dd0314c0f7b2291e5b200ac8c7c3b925836040516113f5919061421d565b60405180910390a3505050565b600060646046836114139190614899565b61141d9190614922565b90506114527304068da6c83afcfa0e13ba15a6696662335d5b757374b23882a30290451a17c44f4f05243b6b58c76d83611b37565b60006114717304068da6c83afcfa0e13ba15a6696662335d5b75611f4c565b905060006114927374b23882a30290451a17c44f4f05243b6b58c76d611f4c565b905061149f858383611fcf565b5050505050565b600073ffffffffffffffffffffffffffffffffffffffff168373ffffffffffffffffffffffffffffffffffffffff161415611516576040517f08c379a000000000000000000000000000000000000000000000000000000000815260040161150d906149c5565b60405180910390fd5b600073ffffffffffffffffffffffffffffffffffffffff168273ffffffffffffffffffffffffffffffffffffffff161415611586576040517f08c379a000000000000000000000000000000000000000000000000000000000815260040161157d90614a57565b60405180910390fd5b611591838383612659565b60008060008573ffffffffffffffffffffffffffffffffffffffff1673ffffffffffffffffffffffffffffffffffffffff16815260200190815260200160002054905081811015611617576040517f08c379a000000000000000000000000000000000000000000000000000000000815260040161160e90614ae9565b60405180910390fd5b8181036000808673ffffffffffffffffffffffffffffffffffffffff1673ffffffffffffffffffffffffffffffffffffffff16815260200190815260200160002081905550816000808573ffffffffffffffffffffffffffffffffffffffff1673ffffffffffffffffffffffffffffffffffffffff16815260200190815260200160002060008282546116aa9190614629565b925050819055508273ffffffffffffffffffffffffffffffffffffffff168473ffffffffffffffffffffffffffffffffffffffff167fddf252ad1be2c89b69c2b068fc378daa952ba7f163c4a11628f55a4df523b3ef8460405161170e919061421d565b60405180910390a361172184848461265e565b50505050565b6000611746734cdf39285d7ca8eb3f090fda0c069ba5f4145b37611f4c565b9050600061175382612663565b9050734cdf39285d7ca8eb3f090fda0c069ba5f4145b3773ffffffffffffffffffffffffffffffffffffffff1663a9059cbb600660009054906101000a900473ffffffffffffffffffffffffffffffffffffffff16836040518363ffffffff1660e01b81526004016117c6929190614b09565b6020604051808303816000875af11580156117e5573d6000803e3d6000fd5b505050506040513d601f19601f820116820180604052508101906118099190614b5e565b506000611829734cdf39285d7ca8eb3f090fda0c069ba5f4145b37611f4c565b90506000606460328361183c9190614899565b6118469190614922565b9050734cdf39285d7ca8eb3f090fda0c069ba5f4145b3773ffffffffffffffffffffffffffffffffffffffff1663095ea7b373f491e7b69e4244ad4002bc14e878a34207e38c29846040518363ffffffff1660e01b81526004016118ab929190614b09565b6020604051808303816000875af11580156118ca573d6000803e3d6000fd5b505050506040513d601f19601f820116820180604052508101906118ee9190614b5e565b50611922734cdf39285d7ca8eb3f090fda0c069ba5f4145b37736c021ae822bea943b2e66552bde1d2696a53fbb783611b37565b6000611941734cdf39285d7ca8eb3f090fda0c069ba5f4145b37611f4c565b9050611976734cdf39285d7ca8eb3f090fda0c069ba5f4145b377321be370d5312f44cb42ce377bc9b8a0cef1a4c8383611b37565b61197e612686565b5050505050565b600061199030611f4c565b90506000600760009054906101000a900473ffffffffffffffffffffffffffffffffffffffff1673ffffffffffffffffffffffffffffffffffffffff166318160ddd6040518163ffffffff1660e01b8152600401602060405180830381865afa158015611a01573d6000803e3d6000fd5b505050506040513d601f19601f82011682018060405250810190611a2591906145cd565b90506000838284611a369190614922565b611a409190614899565b905082811115611a4e578290505b6000611a6d732a651563c9d3af67ae0388a5c8f89b867038089e611f4c565b905073cc0a87f7e7c693042a9cc703661f5060c80acb4373ffffffffffffffffffffffffffffffffffffffff1663441a3e706000846040518363ffffffff1660e01b8152600401611abf929190614b8b565b600060405180830381600087803b158015611ad957600080fd5b505af1158015611aed573d6000803e3d6000fd5b505050506000611b10732a651563c9d3af67ae0388a5c8f89b867038089e611f4c565b905060008282611b209190614bb4565b9050611b2d888289612964565b5050505050505050565b8273ffffffffffffffffffffffffffffffffffffffff1663095ea7b373f491e7b69e4244ad4002bc14e878a34207e38c29836040518363ffffffff1660e01b8152600401611b86929190614b09565b6020604051808303816000875af1158015611ba5573d6000803e3d6000fd5b505050506040513d601f19601f82011682018060405250810190611bc99190614b5e565b5060607321be370d5312f44cb42ce377bc9b8a0cef1a4c8373ffffffffffffffffffffffffffffffffffffffff168473ffffffffffffffffffffffffffffffffffffffff161480611c5957507321be370d5312f44cb42ce377bc9b8a0cef1a4c8373ffffffffffffffffffffffffffffffffffffffff168373ffffffffffffffffffffffffffffffffffffffff16145b15611d4d57600267ffffffffffffffff811115611c7957611c78614be8565b5b604051908082528060200260200182016040528015611ca75781602001602082028036833780820191505090505b5090508381600081518110611cbf57611cbe614c17565b5b602002602001019073ffffffffffffffffffffffffffffffffffffffff16908173ffffffffffffffffffffffffffffffffffffffff16815250508281600181518110611d0e57611d0d614c17565b5b602002602001019073ffffffffffffffffffffffffffffffffffffffff16908173ffffffffffffffffffffffffffffffffffffffff1681525050611e9b565b600367ffffffffffffffff811115611d6857611d67614be8565b5b604051908082528060200260200182016040528015611d965781602001602082028036833780820191505090505b5090508381600081518110611dae57611dad614c17565b5b602002602001019073ffffffffffffffffffffffffffffffffffffffff16908173ffffffffffffffffffffffffffffffffffffffff16815250507321be370d5312f44cb42ce377bc9b8a0cef1a4c8381600181518110611e1157611e10614c17565b5b602002602001019073ffffffffffffffffffffffffffffffffffffffff16908173ffffffffffffffffffffffffffffffffffffffff16815250508281600281518110611e6057611e5f614c17565b5b602002602001019073ffffffffffffffffffffffffffffffffffffffff16908173ffffffffffffffffffffffffffffffffffffffff16815250505b73f491e7b69e4244ad4002bc14e878a34207e38c2973ffffffffffffffffffffffffffffffffffffffff166338ed17398360008430601e42611edd9190614629565b6040518663ffffffff1660e01b8152600401611efd959493929190614d04565b6000604051808303816000875af1158015611f1c573d6000803e3d6000fd5b505050506040513d6000823e3d601f19601f82011682018060405250810190611f459190614e77565b5050505050565b60008173ffffffffffffffffffffffffffffffffffffffff166370a08231306040518263ffffffff1660e01b8152600401611f87919061401f565b602060405180830381865afa158015611fa4573d6000803e3d6000fd5b505050506040513d601f19601f82011682018060405250810190611fc891906145cd565b9050919050565b6000611fee73cc3e89fbc10e155f1164f8c9cf0703acde53f6fd612db6565b9050600061200f73328a7b4d538a2b3942653a9983fda3c12c571141612db6565b90507304068da6c83afcfa0e13ba15a6696662335d5b7573ffffffffffffffffffffffffffffffffffffffff1663095ea7b373328a7b4d538a2b3942653a9983fda3c12c571141866040518363ffffffff1660e01b8152600401612074929190614b09565b6020604051808303816000875af1158015612093573d6000803e3d6000fd5b505050506040513d601f19601f820116820180604052508101906120b79190614b5e565b5073328a7b4d538a2b3942653a9983fda3c12c57114173ffffffffffffffffffffffffffffffffffffffff1663a0712d68856040518263ffffffff1660e01b8152600401612105919061421d565b6020604051808303816000875af1158015612124573d6000803e3d6000fd5b505050506040513d601f19601f8201168201806040525081019061214891906145cd565b507374b23882a30290451a17c44f4f05243b6b58c76d73ffffffffffffffffffffffffffffffffffffffff1663095ea7b373cc3e89fbc10e155f1164f8c9cf0703acde53f6fd856040518363ffffffff1660e01b81526004016121ac929190614b09565b6020604051808303816000875af11580156121cb573d6000803e3d6000fd5b505050506040513d601f19601f820116820180604052508101906121ef9190614b5e565b5073cc3e89fbc10e155f1164f8c9cf0703acde53f6fd73ffffffffffffffffffffffffffffffffffffffff1663a0712d68846040518263ffffffff1660e01b815260040161223d919061421d565b6020604051808303816000875af115801561225c573d6000803e3d6000fd5b505050506040513d601f19601f8201168201806040525081019061228091906145cd565b5060006122a073cc3e89fbc10e155f1164f8c9cf0703acde53f6fd612db6565b905060006122c173328a7b4d538a2b3942653a9983fda3c12c571141612db6565b9050600083826122d19190614bb4565b9050600085846122e19190614bb4565b9050600760009054906101000a900473ffffffffffffffffffffffffffffffffffffffff1673ffffffffffffffffffffffffffffffffffffffff16634478efa28a84846040518463ffffffff1660e01b815260040161234293929190614ec0565b600060405180830381600087803b15801561235c57600080fd5b505af1158015612370573d6000803e3d6000fd5b505050506000600267ffffffffffffffff81111561239157612390614be8565b5b6040519080825280602002602001820160405280156123bf5781602001602082028036833780820191505090505b50905073328a7b4d538a2b3942653a9983fda3c12c571141816000815181106123eb576123ea614c17565b5b602002602001019073ffffffffffffffffffffffffffffffffffffffff16908173ffffffffffffffffffffffffffffffffffffffff168152505073cc3e89fbc10e155f1164f8c9cf0703acde53f6fd8160018151811061244e5761244d614c17565b5b602002602001019073ffffffffffffffffffffffffffffffffffffffff16908173ffffffffffffffffffffffffffffffffffffffff16815250507f000000000000000000000000000000000000000000000000000000000000000073ffffffffffffffffffffffffffffffffffffffff1663c2998238826040518263ffffffff1660e01b81526004016124e19190614ef7565b6000604051808303816000875af1158015612500573d6000803e3d6000fd5b505050506040513d6000823e3d601f19601f820116820180604052508101906125299190614e77565b506000612534610924565b90506000612540612e39565b5091505073cc3e89fbc10e155f1164f8c9cf0703acde53f6fd73ffffffffffffffffffffffffffffffffffffffff1663c5ebeaec826040518263ffffffff1660e01b8152600401612591919061421d565b6020604051808303816000875af11580156125b0573d6000803e3d6000fd5b505050506040513d601f19601f820116820180604052508101906125d491906145cd565b5060006125df610924565b905082816125ed9190614bb4565b600860008f73ffffffffffffffffffffffffffffffffffffffff1673ffffffffffffffffffffffffffffffffffffffff168152602001908152602001600020600082825461263b9190614629565b9250508190555061264a613040565b50505050505050505050505050565b505050565b505050565b60006127106064836126759190614899565b61267f9190614922565b9050919050565b60006126a57321be370d5312f44cb42ce377bc9b8a0cef1a4c83611f4c565b905060006126c6736c021ae822bea943b2e66552bde1d2696a53fbb7611f4c565b9050736c021ae822bea943b2e66552bde1d2696a53fbb773ffffffffffffffffffffffffffffffffffffffff1663095ea7b373f491e7b69e4244ad4002bc14e878a34207e38c29836040518363ffffffff1660e01b815260040161272b929190614b09565b6020604051808303816000875af115801561274a573d6000803e3d6000fd5b505050506040513d601f19601f8201168201806040525081019061276e9190614b5e565b507321be370d5312f44cb42ce377bc9b8a0cef1a4c8373ffffffffffffffffffffffffffffffffffffffff1663095ea7b373f491e7b69e4244ad4002bc14e878a34207e38c29846040518363ffffffff1660e01b81526004016127d2929190614b09565b6020604051808303816000875af11580156127f1573d6000803e3d6000fd5b505050506040513d601f19601f820116820180604052508101906128159190614b5e565b506000612835732a651563c9d3af67ae0388a5c8f89b867038089e611f4c565b90507f000000000000000000000000000000000000000000000000000000000000000073ffffffffffffffffffffffffffffffffffffffff1663e8e33700736c021ae822bea943b2e66552bde1d2696a53fbb77321be370d5312f44cb42ce377bc9b8a0cef1a4c83858760018030601e426128b09190614629565b6040518963ffffffff1660e01b81526004016128d3989796959493929190614f54565b6060604051808303816000875af11580156128f2573d6000803e3d6000fd5b505050506040513d601f19601f820116820180604052508101906129169190614fd2565b5050506000612938732a651563c9d3af67ae0388a5c8f89b867038089e611f4c565b9050600082826129489190614bb4565b905061295430826131cf565b61295d8161332f565b5050505050565b60006129837321be370d5312f44cb42ce377bc9b8a0cef1a4c83611f4c565b905060006129a4736c021ae822bea943b2e66552bde1d2696a53fbb7611f4c565b9050732a651563c9d3af67ae0388a5c8f89b867038089e73ffffffffffffffffffffffffffffffffffffffff1663095ea7b373f491e7b69e4244ad4002bc14e878a34207e38c29866040518363ffffffff1660e01b8152600401612a09929190614b09565b6020604051808303816000875af1158015612a28573d6000803e3d6000fd5b505050506040513d601f19601f82011682018060405250810190612a4c9190614b5e565b507f000000000000000000000000000000000000000000000000000000000000000073ffffffffffffffffffffffffffffffffffffffff1663baa2abde7321be370d5312f44cb42ce377bc9b8a0cef1a4c83736c021ae822bea943b2e66552bde1d2696a53fbb78760018030601e42612ac59190614629565b6040518863ffffffff1660e01b8152600401612ae79796959493929190615025565b60408051808303816000875af1158015612b05573d6000803e3d6000fd5b505050506040513d601f19601f82011682018060405250810190612b299190615094565b5050612b35308561345b565b6000612b547321be370d5312f44cb42ce377bc9b8a0cef1a4c83611f4c565b90506000612b75736c021ae822bea943b2e66552bde1d2696a53fbb7611f4c565b905060008483612b859190614bb4565b905060008483612b959190614bb4565b90507321be370d5312f44cb42ce377bc9b8a0cef1a4c8373ffffffffffffffffffffffffffffffffffffffff1663095ea7b373f491e7b69e4244ad4002bc14e878a34207e38c29846040518363ffffffff1660e01b8152600401612bfa929190614b09565b6020604051808303816000875af1158015612c19573d6000803e3d6000fd5b505050506040513d601f19601f82011682018060405250810190612c3d9190614b5e565b50736c021ae822bea943b2e66552bde1d2696a53fbb773ffffffffffffffffffffffffffffffffffffffff1663095ea7b373f491e7b69e4244ad4002bc14e878a34207e38c29836040518363ffffffff1660e01b8152600401612ca1929190614b09565b6020604051808303816000875af1158015612cc0573d6000803e3d6000fd5b505050506040513d601f19601f82011682018060405250810190612ce49190614b5e565b506000612d047374b23882a30290451a17c44f4f05243b6b58c76d611f4c565b9050612d397321be370d5312f44cb42ce377bc9b8a0cef1a4c837374b23882a30290451a17c44f4f05243b6b58c76d85611b37565b612d6c736c021ae822bea943b2e66552bde1d2696a53fbb77374b23882a30290451a17c44f4f05243b6b58c76d84611b37565b6000612d8b7374b23882a30290451a17c44f4f05243b6b58c76d611f4c565b905060008282612d9b9190614bb4565b9050612da88c8b83613632565b505050505050505050505050565b60008173ffffffffffffffffffffffffffffffffffffffff166370a08231306040518263ffffffff1660e01b8152600401612df1919061401f565b602060405180830381865afa158015612e0e573d6000803e3d6000fd5b505050506040513d601f19601f82011682018060405250810190612e3291906145cd565b9050919050565b60008060007f000000000000000000000000000000000000000000000000000000000000000073ffffffffffffffffffffffffffffffffffffffff16635ec88c79306040518263ffffffff1660e01b8152600401612e97919061401f565b606060405180830381865afa158015612eb4573d6000803e3d6000fd5b505050506040513d601f19601f82011682018060405250810190612ed89190614fd2565b909150508093505060007f000000000000000000000000000000000000000000000000000000000000000073ffffffffffffffffffffffffffffffffffffffff166365555bcc6040518163ffffffff1660e01b8152600401612f399061516c565b606060405180830381865afa158015612f56573d6000803e3d6000fd5b505050506040513d601f19601f82011682018060405250810190612f7a9190615208565b905080600001519150600082670de0b6b3a764000086612f9a9190614899565b612fa49190614922565b90506064605e82612fb59190614899565b612fbf9190614922565b93506000612fcb610924565b85612fd69190614629565b90506000612fe2610d66565b509050600081831015613010578282612ffb9190614bb4565b905080876130099190614629565b9650613036565b818311156130355781836130249190614bb4565b905080876130329190614bb4565b96505b5b5050505050909192565b6000606460326130637374b23882a30290451a17c44f4f05243b6b58c76d611f4c565b61306d9190614899565b6130779190614922565b90507374b23882a30290451a17c44f4f05243b6b58c76d73ffffffffffffffffffffffffffffffffffffffff1663095ea7b373f491e7b69e4244ad4002bc14e878a34207e38c296130db7374b23882a30290451a17c44f4f05243b6b58c76d611f4c565b6040518363ffffffff1660e01b81526004016130f8929190614b09565b6020604051808303816000875af1158015613117573d6000803e3d6000fd5b505050506040513d601f19601f8201168201806040525081019061313b9190614b5e565b5061316f7374b23882a30290451a17c44f4f05243b6b58c76d7321be370d5312f44cb42ce377bc9b8a0cef1a4c8383611b37565b600061318e7374b23882a30290451a17c44f4f05243b6b58c76d611f4c565b90506131c37374b23882a30290451a17c44f4f05243b6b58c76d736c021ae822bea943b2e66552bde1d2696a53fbb783611b37565b6131cb612686565b5050565b600073ffffffffffffffffffffffffffffffffffffffff168273ffffffffffffffffffffffffffffffffffffffff16141561323f576040517f08c379a000000000000000000000000000000000000000000000000000000000815260040161323690615281565b60405180910390fd5b61324b60008383612659565b806002600082825461325d9190614629565b92505081905550806000808473ffffffffffffffffffffffffffffffffffffffff1673ffffffffffffffffffffffffffffffffffffffff16815260200190815260200160002060008282546132b29190614629565b925050819055508173ffffffffffffffffffffffffffffffffffffffff16600073ffffffffffffffffffffffffffffffffffffffff167fddf252ad1be2c89b69c2b068fc378daa952ba7f163c4a11628f55a4df523b3ef83604051613317919061421d565b60405180910390a361332b6000838361265e565b5050565b732a651563c9d3af67ae0388a5c8f89b867038089e73ffffffffffffffffffffffffffffffffffffffff1663095ea7b373cc0a87f7e7c693042a9cc703661f5060c80acb43836040518363ffffffff1660e01b8152600401613392929190614b09565b6020604051808303816000875af11580156133b1573d6000803e3d6000fd5b505050506040513d601f19601f820116820180604052508101906133d59190614b5e565b5073cc0a87f7e7c693042a9cc703661f5060c80acb4373ffffffffffffffffffffffffffffffffffffffff1663e2bbb1586000836040518363ffffffff1660e01b8152600401613426929190614b8b565b600060405180830381600087803b15801561344057600080fd5b505af1158015613454573d6000803e3d6000fd5b5050505050565b600073ffffffffffffffffffffffffffffffffffffffff168273ffffffffffffffffffffffffffffffffffffffff1614156134cb576040517f08c379a00000000000000000000000000000000000000000000000000000000081526004016134c290615313565b60405180910390fd5b6134d782600083612659565b60008060008473ffffffffffffffffffffffffffffffffffffffff1673ffffffffffffffffffffffffffffffffffffffff1681526020019081526020016000205490508181101561355d576040517f08c379a0000000000000000000000000000000000000000000000000000000008152600401613554906153a5565b60405180910390fd5b8181036000808573ffffffffffffffffffffffffffffffffffffffff1673ffffffffffffffffffffffffffffffffffffffff1681526020019081526020016000208190555081600260008282546135b49190614bb4565b92505081905550600073ffffffffffffffffffffffffffffffffffffffff168373ffffffffffffffffffffffffffffffffffffffff167fddf252ad1be2c89b69c2b068fc378daa952ba7f163c4a11628f55a4df523b3ef84604051613619919061421d565b60405180910390a361362d8360008461265e565b505050565b60008061363e84613c04565b91509150600080600080600860008a73ffffffffffffffffffffffffffffffffffffffff1673ffffffffffffffffffffffffffffffffffffffff168152602001908152602001600020548711156137ae57600860008a73ffffffffffffffffffffffffffffffffffffffff1673ffffffffffffffffffffffffffffffffffffffff16815260200190815260200160002054876136da9190614bb4565b9150600860008a73ffffffffffffffffffffffffffffffffffffffff1673ffffffffffffffffffffffffffffffffffffffff1681526020019081526020016000205490506000600860008b73ffffffffffffffffffffffffffffffffffffffff1673ffffffffffffffffffffffffffffffffffffffff1681526020019081526020016000208190555061376c86612663565b866137779190614bb4565b935061378285612663565b8561378d9190614bb4565b92506137a961379b87612663565b6137a487612663565b613d24565b613882565b6000915086905086600860008b73ffffffffffffffffffffffffffffffffffffffff1673ffffffffffffffffffffffffffffffffffffffff16815260200190815260200160002060008282546138049190614bb4565b92505081905550600261381687612663565b6138209190614899565b8661382b9190614bb4565b9350600261383886612663565b6138429190614899565b8561384d9190614bb4565b9250613881600261385d88612663565b6138679190614899565b600261387288612663565b61387c9190614899565b613d24565b5b61388a610924565b81111561389c57613899610924565b90505b7374b23882a30290451a17c44f4f05243b6b58c76d73ffffffffffffffffffffffffffffffffffffffff1663095ea7b373cc3e89fbc10e155f1164f8c9cf0703acde53f6fd836040518363ffffffff1660e01b81526004016138ff929190614b09565b6020604051808303816000875af115801561391e573d6000803e3d6000fd5b505050506040513d601f19601f820116820180604052508101906139429190614b5e565b5073cc3e89fbc10e155f1164f8c9cf0703acde53f6fd73ffffffffffffffffffffffffffffffffffffffff16630e752702826040518263ffffffff1660e01b8152600401613990919061421d565b6020604051808303816000875af11580156139af573d6000803e3d6000fd5b505050506040513d601f19601f820116820180604052508101906139d391906145cd565b5060006139f37374b23882a30290451a17c44f4f05243b6b58c76d611f4c565b90506000613a147304068da6c83afcfa0e13ba15a6696662335d5b75611f4c565b905073cc3e89fbc10e155f1164f8c9cf0703acde53f6fd73ffffffffffffffffffffffffffffffffffffffff1663db006a75876040518263ffffffff1660e01b8152600401613a63919061421d565b6020604051808303816000875af1158015613a82573d6000803e3d6000fd5b505050506040513d601f19601f82011682018060405250810190613aa691906145cd565b5073328a7b4d538a2b3942653a9983fda3c12c57114173ffffffffffffffffffffffffffffffffffffffff1663db006a75866040518263ffffffff1660e01b8152600401613af4919061421d565b6020604051808303816000875af1158015613b13573d6000803e3d6000fd5b505050506040513d601f19601f82011682018060405250810190613b3791906145cd565b50613b557374b23882a30290451a17c44f4f05243b6b58c76d611f4c565b841115613b7c57613b797374b23882a30290451a17c44f4f05243b6b58c76d611f4c565b93505b6000613b9b7374b23882a30290451a17c44f4f05243b6b58c76d611f4c565b90506000613bbc7304068da6c83afcfa0e13ba15a6696662335d5b75611f4c565b90506000868584613bcd9190614bb4565b613bd79190614629565b905060008483613be79190614bb4565b9050613bf38282613e92565b505050505050505050505050505050565b6000806000613c2673cc3e89fbc10e155f1164f8c9cf0703acde53f6fd612db6565b90506000613c4773328a7b4d538a2b3942653a9983fda3c12c571141612db6565b90506000600760009054906101000a900473ffffffffffffffffffffffffffffffffffffffff1673ffffffffffffffffffffffffffffffffffffffff166318160ddd6040518163ffffffff1660e01b8152600401602060405180830381865afa158015613cb8573d6000803e3d6000fd5b505050506040513d601f19601f82011682018060405250810190613cdc91906145cd565b90506000818785613ced9190614899565b613cf79190614922565b90506000828885613d089190614899565b613d129190614922565b90508181965096505050505050915091565b73cc3e89fbc10e155f1164f8c9cf0703acde53f6fd73ffffffffffffffffffffffffffffffffffffffff1663a9059cbb600560009054906101000a900473ffffffffffffffffffffffffffffffffffffffff16846040518363ffffffff1660e01b8152600401613d95929190614b09565b6020604051808303816000875af1158015613db4573d6000803e3d6000fd5b505050506040513d601f19601f82011682018060405250810190613dd89190614b5e565b5073328a7b4d538a2b3942653a9983fda3c12c57114173ffffffffffffffffffffffffffffffffffffffff1663a9059cbb600560009054906101000a900473ffffffffffffffffffffffffffffffffffffffff16836040518363ffffffff1660e01b8152600401613e4a929190614b09565b6020604051808303816000875af1158015613e69573d6000803e3d6000fd5b505050506040513d601f19601f82011682018060405250810190613e8d9190614b5e565b505050565b6000613eb17304068da6c83afcfa0e13ba15a6696662335d5b75611f4c565b9050613ee67374b23882a30290451a17c44f4f05243b6b58c76d7304068da6c83afcfa0e13ba15a6696662335d5b7585611b37565b6000613f057304068da6c83afcfa0e13ba15a6696662335d5b75611f4c565b90506000838383613f169190614bb4565b613f209190614629565b90507304068da6c83afcfa0e13ba15a6696662335d5b7573ffffffffffffffffffffffffffffffffffffffff1663a9059cbb600760009054906101000a900473ffffffffffffffffffffffffffffffffffffffff16836040518363ffffffff1660e01b8152600401613f93929190614b09565b6020604051808303816000875af1158015613fb2573d6000803e3d6000fd5b505050506040513d601f19601f82011682018060405250810190613fd69190614b5e565b505050505050565b600073ffffffffffffffffffffffffffffffffffffffff82169050919050565b600061400982613fde565b9050919050565b61401981613ffe565b82525050565b60006020820190506140346000830184614010565b92915050565b600081519050919050565b600082825260208201905092915050565b60005b83811015614074578082015181840152602081019050614059565b83811115614083576000848401525b50505050565b6000601f19601f8301169050919050565b60006140a58261403a565b6140af8185614045565b93506140bf818560208601614056565b6140c881614089565b840191505092915050565b600060208201905081810360008301526140ed818461409a565b905092915050565b6000604051905090565b600080fd5b600080fd5b61411281613ffe565b811461411d57600080fd5b50565b60008135905061412f81614109565b92915050565b6000819050919050565b61414881614135565b811461415357600080fd5b50565b6000813590506141658161413f565b92915050565b60008060408385031215614182576141816140ff565b5b600061419085828601614120565b92505060206141a185828601614156565b9150509250929050565b60008115159050919050565b6141c0816141ab565b82525050565b60006020820190506141db60008301846141b7565b92915050565b6000602082840312156141f7576141f66140ff565b5b600061420584828501614120565b91505092915050565b61421781614135565b82525050565b6000602082019050614232600083018461420e565b92915050565b600080600060608486031215614251576142506140ff565b5b600061425f86828701614120565b935050602061427086828701614120565b925050604061428186828701614156565b9150509250925092565b6000819050919050565b60006142b06142ab6142a684613fde565b61428b565b613fde565b9050919050565b60006142c282614295565b9050919050565b60006142d4826142b7565b9050919050565b6142e4816142c9565b82525050565b60006020820190506142ff60008301846142db565b92915050565b600060ff82169050919050565b61431b81614305565b82525050565b60006020820190506143366000830184614312565b92915050565b6000614347826142b7565b9050919050565b6143578161433c565b82525050565b6000602082019050614372600083018461434e565b92915050565b6000614383826142b7565b9050919050565b61439381614378565b82525050565b60006020820190506143ae600083018461438a565b92915050565b60006143bf826142b7565b9050919050565b6143cf816143b4565b82525050565b60006020820190506143ea60008301846143c6565b92915050565b6000604082019050614405600083018561420e565b614412602083018461420e565b9392505050565b600080604083850312156144305761442f6140ff565b5b600061443e85828601614120565b925050602061444f85828601614120565b9150509250929050565b7f4e487b7100000000000000000000000000000000000000000000000000000000600052602260045260246000fd5b600060028204905060018216806144a057607f821691505b602082108114156144b4576144b3614459565b5b50919050565b7f217661756c740000000000000000000000000000000000000000000000000000600082015250565b60006144f0600683614045565b91506144fb826144ba565b602082019050919050565b6000602082019050818103600083015261451f816144e3565b9050919050565b7f45524332303a207472616e7366657220616d6f756e742065786365656473206160008201527f6c6c6f77616e6365000000000000000000000000000000000000000000000000602082015250565b6000614582602883614045565b915061458d82614526565b604082019050919050565b600060208201905081810360008301526145b181614575565b9050919050565b6000815190506145c78161413f565b92915050565b6000602082840312156145e3576145e26140ff565b5b60006145f1848285016145b8565b91505092915050565b7f4e487b7100000000000000000000000000000000000000000000000000000000600052601160045260246000fd5b600061463482614135565b915061463f83614135565b9250827fffffffffffffffffffffffffffffffffffffffffffffffffffffffffffffffff03821115614674576146736145fa565b5b828201905092915050565b6000819050919050565b60006146a461469f61469a8461467f565b61428b565b614135565b9050919050565b6146b481614689565b82525050565b60006040820190506146cf60008301856146ab565b6146dc60208301846146ab565b9392505050565b7f45524332303a2064656372656173656420616c6c6f77616e63652062656c6f7760008201527f207a65726f000000000000000000000000000000000000000000000000000000602082015250565b600061473f602583614045565b915061474a826146e3565b604082019050919050565b6000602082019050818103600083015261476e81614732565b9050919050565b7f45524332303a20617070726f76652066726f6d20746865207a65726f2061646460008201527f7265737300000000000000000000000000000000000000000000000000000000602082015250565b60006147d1602483614045565b91506147dc82614775565b604082019050919050565b60006020820190508181036000830152614800816147c4565b9050919050565b7f45524332303a20617070726f766520746f20746865207a65726f20616464726560008201527f7373000000000000000000000000000000000000000000000000000000000000602082015250565b6000614863602283614045565b915061486e82614807565b604082019050919050565b6000602082019050818103600083015261489281614856565b9050919050565b60006148a482614135565b91506148af83614135565b9250817fffffffffffffffffffffffffffffffffffffffffffffffffffffffffffffffff04831182151516156148e8576148e76145fa565b5b828202905092915050565b7f4e487b7100000000000000000000000000000000000000000000000000000000600052601260045260246000fd5b600061492d82614135565b915061493883614135565b925082614948576149476148f3565b5b828204905092915050565b7f45524332303a207472616e736665722066726f6d20746865207a65726f20616460008201527f6472657373000000000000000000000000000000000000000000000000000000602082015250565b60006149af602583614045565b91506149ba82614953565b604082019050919050565b600060208201905081810360008301526149de816149a2565b9050919050565b7f45524332303a207472616e7366657220746f20746865207a65726f206164647260008201527f6573730000000000000000000000000000000000000000000000000000000000602082015250565b6000614a41602383614045565b9150614a4c826149e5565b604082019050919050565b60006020820190508181036000830152614a7081614a34565b9050919050565b7f45524332303a207472616e7366657220616d6f756e742065786365656473206260008201527f616c616e63650000000000000000000000000000000000000000000000000000602082015250565b6000614ad3602683614045565b9150614ade82614a77565b604082019050919050565b60006020820190508181036000830152614b0281614ac6565b9050919050565b6000604082019050614b1e6000830185614010565b614b2b602083018461420e565b9392505050565b614b3b816141ab565b8114614b4657600080fd5b50565b600081519050614b5881614b32565b92915050565b600060208284031215614b7457614b736140ff565b5b6000614b8284828501614b49565b91505092915050565b6000604082019050614ba060008301856146ab565b614bad602083018461420e565b9392505050565b6000614bbf82614135565b9150614bca83614135565b925082821015614bdd57614bdc6145fa565b5b828203905092915050565b7f4e487b7100000000000000000000000000000000000000000000000000000000600052604160045260246000fd5b7f4e487b7100000000000000000000000000000000000000000000000000000000600052603260045260246000fd5b600081519050919050565b600082825260208201905092915050565b6000819050602082019050919050565b614c7b81613ffe565b82525050565b6000614c8d8383614c72565b60208301905092915050565b6000602082019050919050565b6000614cb182614c46565b614cbb8185614c51565b9350614cc683614c62565b8060005b83811015614cf7578151614cde8882614c81565b9750614ce983614c99565b925050600181019050614cca565b5085935050505092915050565b600060a082019050614d19600083018861420e565b614d2660208301876146ab565b8181036040830152614d388186614ca6565b9050614d476060830185614010565b614d54608083018461420e565b9695505050505050565b600080fd5b614d6c82614089565b810181811067ffffffffffffffff82111715614d8b57614d8a614be8565b5b80604052505050565b6000614d9e6140f5565b9050614daa8282614d63565b919050565b600067ffffffffffffffff821115614dca57614dc9614be8565b5b602082029050602081019050919050565b600080fd5b6000614df3614dee84614daf565b614d94565b90508083825260208201905060208402830185811115614e1657614e15614ddb565b5b835b81811015614e3f5780614e2b88826145b8565b845260208401935050602081019050614e18565b5050509392505050565b600082601f830112614e5e57614e5d614d5e565b5b8151614e6e848260208601614de0565b91505092915050565b600060208284031215614e8d57614e8c6140ff565b5b600082015167ffffffffffffffff811115614eab57614eaa614104565b5b614eb784828501614e49565b91505092915050565b6000606082019050614ed56000830186614010565b614ee2602083018561420e565b614eef604083018461420e565b949350505050565b60006020820190508181036000830152614f118184614ca6565b905092915050565b6000819050919050565b6000614f3e614f39614f3484614f19565b61428b565b614135565b9050919050565b614f4e81614f23565b82525050565b600061010082019050614f6a600083018b614010565b614f77602083018a614010565b614f84604083018961420e565b614f91606083018861420e565b614f9e6080830187614f45565b614fab60a0830186614f45565b614fb860c0830185614010565b614fc560e083018461420e565b9998505050505050505050565b600080600060608486031215614feb57614fea6140ff565b5b6000614ff9868287016145b8565b935050602061500a868287016145b8565b925050604061501b868287016145b8565b9150509250925092565b600060e08201905061503a600083018a614010565b6150476020830189614010565b615054604083018861420e565b6150616060830187614f45565b61506e6080830186614f45565b61507b60a0830185614010565b61508860c083018461420e565b98975050505050505050565b600080604083850312156150ab576150aa6140ff565b5b60006150b9858286016145b8565b92505060206150ca858286016145b8565b9150509250929050565b7f4554480000000000000000000000000000000000000000000000000000000000600082015250565b600061510a600383614045565b9150615115826150d4565b602082019050919050565b7f5553444300000000000000000000000000000000000000000000000000000000600082015250565b6000615156600483614045565b915061516182615120565b602082019050919050565b60006040820190508181036000830152615185816150fd565b9050818103602083015261519881615149565b9050919050565b600080fd5b6000606082840312156151ba576151b961519f565b5b6151c46060614d94565b905060006151d4848285016145b8565b60008301525060206151e8848285016145b8565b60208301525060406151fc848285016145b8565b60408301525092915050565b60006060828403121561521e5761521d6140ff565b5b600061522c848285016151a4565b91505092915050565b7f45524332303a206d696e7420746f20746865207a65726f206164647265737300600082015250565b600061526b601f83614045565b915061527682615235565b602082019050919050565b6000602082019050818103600083015261529a8161525e565b9050919050565b7f45524332303a206275726e2066726f6d20746865207a65726f2061646472657360008201527f7300000000000000000000000000000000000000000000000000000000000000602082015250565b60006152fd602183614045565b9150615308826152a1565b604082019050919050565b6000602082019050818103600083015261532c816152f0565b9050919050565b7f45524332303a206275726e20616d6f756e7420657863656564732062616c616e60008201527f6365000000000000000000000000000000000000000000000000000000000000602082015250565b600061538f602283614045565b915061539a82615333565b604082019050919050565b600060208201905081810360008301526153be81615382565b905091905056fea264697066735822122053b3f3edeb1c2f4c1c8532f62576da11cb8c373dda55074c88779c65f185e4de64736f6c634300080a0033",
  "immutableReferences": {
    "1970": [
      {
        "length": 32,
        "start": 3250
      },
      {
        "length": 32,
        "start": 10297
      },
      {
        "length": 32,
        "start": 10831
      }
    ],
    "1973": [
      {
        "length": 32,
        "start": 3094
      },
      {
        "length": 32,
        "start": 9354
      },
      {
        "length": 32,
        "start": 11840
      }
    ],
    "1976": [
      {
        "length": 32,
        "start": 2493
      },
      {
        "length": 32,
        "start": 12004
      }
    ]
  },
  "source": "pragma solidity ^0.8.10; \npragma abicoder v2;  \n\nimport \"../DjinnBottleUSDC.sol\"; \nimport \"../interfaces/CTokenInterfaces.sol\"; \nimport \"../interfaces/ComptrollerInterface.sol\";  \nimport \"../interfaces/IStdReference.sol\"; \nimport \"@uniswap/v2-periphery/contracts/interfaces/IUniswapV2Router02.sol\"; \nimport \"../interfaces/IMasterChef.sol\"; \nimport \"@openzeppelin/contracts/token/ERC20/IERC20.sol\"; \n\n\ncontract DeltaNeutralFtmTomb is ERC20 {\n\t\n\t//Contract Specifics \n\taddress public creator; \n\tuint private constant CREATOR_FEE = 100; //1% \n\taddress public treasuryWallet;  \n\tDjinnBottleUSDC public VAULT; \n\n\t//Balances For Withdraw\n\tmapping(address => uint) public tokenBorrowBalance; //18 decimals  \n\t\n\t//Cream Finance Contracts (also just the Iron Bank Contracts)\n\taddress public constant crUSDC = 0x328A7b4d538A2b3942653a9983fdA3C12c571141; \n\taddress public constant crETH = 0xcc3E89fBc10e155F1164f8c9Cf0703aCDe53f6Fd; \n\n\t//Public Tokens\n\taddress public constant USDC = 0x04068DA6C83AFCFA0e13ba15A6696662335D5B75; \n\taddress public constant WETH = 0x74b23882a30290451A17c44f4F05243b6b58C76d; \n\taddress public constant WFTM = 0x21be370D5312f44cB42ce377BC9b8a0cEF1A4C83; \n\taddress public constant TOMB = 0x6c021Ae822BEa943b2E66552bDe1D2696a53fbB7; \n\taddress public constant TSHARE = 0x4cdF39285D7Ca8eB3f090fDA0C069ba5F4145B37; \n\t\n\t//SpookySwap Router, LP, TSHAREPool \n\taddress public constant spookyAddress = 0xF491e7B69E4244ad4002BC14e878a34207E38c29;\t\t\n\taddress public constant spookyFtmTombLP = 0x2A651563C9d3Af67aE0388a5c8F89b867038089e; \n\taddress public constant tShareRewardPool = 0xcc0a87F7e7c693042a9Cc703661F5060c80ACb43; \n\n\n\t//Contract Interfaces  \n\tIUniswapV2Router02 public immutable spookyRouter; \n\tComptrollerInterface public immutable comptroller; \n\tIStdReference public immutable priceOracle;\n\t\n\n\n\tconstructor(DjinnBottleUSDC _djBottle, \t\n\t\t\t\tIUniswapV2Router02 _spookyRouter, \n\t\t\t\tComptrollerInterface _comptroller, \n\t\t\t\tIStdReference _priceOracle,\n\t\t\t\taddress wallet) ERC20(\"Djinn FTM Short Farm\", \"dFTMShort\") {\n\t\t\t\t\tcreator = msg.sender;\n\t\t\t\t\tVAULT = _djBottle; \n\t\t\t\t\tspookyRouter = _spookyRouter; \n\t\t\t\t\tcomptroller = _comptroller;  \n\t\t\t\t\tpriceOracle = _priceOracle; \t\n\t\t\t\t\ttreasuryWallet = wallet; \n\t\t\t\t}\n\n\t//designed for single user ie. user opens via vault contract \t\n\tfunction open(address user, uint amount) external {\n\t\trequire(msg.sender == address(VAULT), \"!vault\"); \n\t\tsplit(user, amount); \n\t}\n\n\t//automate the harvest \n\tfunction harvest() external {\n\t\trequire(msg.sender == address(VAULT), \"!vault\"); \n\t\tIMasterChef(tShareRewardPool).deposit(0, 0); //0 is poolId and we call a deposit of 0 to allocate the shares to this contract\n\t\tcompoundLPTokens(); \n\t}\n\t\n\t//automate the closing of the position\n\t//designed for single use ie. user closes via vault contract \t\n\t//so we need to vault contract to determine how many tokens belong to the user from this contract \n\tfunction close(address user, uint amountShares) external {\n\t\trequire(msg.sender == address(VAULT), \"!vault\"); \n\t\twithdrawLP(user, amountShares);\n\t}\n\n\t////////////////// BEGIN DEPOSIT LOGIC //////////////////  \n\n\tfunction split(address user, uint amount) internal {\n\t\tuint swapAmount = (amount * 70) / 100; \n\t\tswap(USDC, WETH, swapAmount); \n\t\tuint usdcAmount = getTokenBalance(USDC);\n\t\tuint wethAmount = getTokenBalance(WETH); \n\n\t\t//next step\n\t\tborrow(user, usdcAmount, wethAmount);\n\t}\n\t\n\t//we are borrowing the same amount of deposited ETH to achieve a vault that does not get liquidated\t\n\tfunction borrow(address user, uint amountUSDC, uint amountWETH) internal {\n\t\t//first check for any leftovers in the contract\n\t\tuint cTokenETHBefore = getCrTokenBalance(crETH);\n\t\tuint cTokenUSDCBefore = getCrTokenBalance(crUSDC);\n\n\t\t//supply USDC && WETH\n\t\tIERC20(USDC).approve(crUSDC, amountUSDC); \n\t\tCERC20(crUSDC).mint(amountUSDC);\n\n\t\tIERC20(WETH).approve(crETH, amountWETH); \n\t\tCERC20(crETH).mint(amountWETH); \n\t\t\n\t\tuint cTokenETHAfter = getCrTokenBalance(crETH);\n\t\tuint cTokenUSDCAfter = getCrTokenBalance(crUSDC); \n\n\t\tuint cTokenUSDCAmount = cTokenUSDCAfter - cTokenUSDCBefore; \n\t\tuint cTokenETHAmount = cTokenETHAfter - cTokenETHBefore; \n\t\t\n\t\t//store cTokens user amounts separate due to different interest rates \n\t\tVAULT.storeCrTokens(user, cTokenUSDCAmount, cTokenETHAmount); \n\t\n\t\t//we enter the markets to use usdc && wftm as collateral \t\n\t\taddress[] memory cTokenSupplied = new address[](2); \n\t\tcTokenSupplied[0] = crUSDC; //cToken address\n\t\tcTokenSupplied[1] = crETH; \n\t\tcomptroller.enterMarkets(cTokenSupplied); \n\t\t\n\t\tuint borrowBalanceBefore = borrowBalance(); \t\n\t\t//get max borrow && borrow  \n\t\t( ,uint borrowAmount, ) = getBorrowAmount();\n\t\tCERC20(crETH).borrow(borrowAmount);  \n\t\t\n\t\tuint borrowBalanceAfter = borrowBalance(); \n\t\ttokenBorrowBalance[user] += (borrowBalanceAfter - borrowBalanceBefore);   \n\n\t\t//next step \n\t\tswapForTokens(); \n\t}\n\n\tfunction swapForTokens() internal {\n\t\tuint half = (getTokenBalance(WETH) * 50) / 100; \n\t\tIERC20(WETH).approve(spookyAddress, getTokenBalance(WETH)); \n\t\t\n\t\t//execute the swap here \n\t\tswap(WETH, WFTM, half);  \n\n\t\tuint rest = getTokenBalance(WETH); \n\t\tswap(WETH, TOMB, rest);\n\t\t\n\t\t//next step \n\t\tgetLPTokens(); \n\t}\n\n\tfunction getLPTokens() internal {\n\t\t//we need to approve the router to spend our TOMB\n\t\tuint wftmAmount = getTokenBalance(WFTM); \n\t\tuint tombAmount = getTokenBalance(TOMB); \n\n\t\t//now we add liquidity \n\t\t//@params token, tokenAmount, minToken, minETH, to, deadline\n\t\tIERC20(TOMB).approve(spookyAddress, tombAmount); \n\t\tIERC20(WFTM).approve(spookyAddress, wftmAmount); \n\t\tuint lpTokenBalanceBefore = getTokenBalance(spookyFtmTombLP); \n\t\tspookyRouter.addLiquidity(TOMB, WFTM, tombAmount, wftmAmount, 1, 1, address(this), block.timestamp + 30); \n\n\t\tuint lpTokenBalanceAfter = getTokenBalance(spookyFtmTombLP); \n\t\tuint lpTokenToMint = lpTokenBalanceAfter - lpTokenBalanceBefore; \n\n\t\t//keep track of LP token amount in this contract using a 1:1 mint\n\t\t_mint(address(this), lpTokenToMint); \n\n\t\tdepositLPGetTShare(lpTokenToMint); \n\t}\n\t\n\tfunction depositLPGetTShare(uint lpTokenAmount) internal {\n\t\t//deposit into tshare vault using _pid but idk how to get that currently \t\n\t\t//after this deposit the contract should be earning tshares as a reward \n\t\tIERC20(spookyFtmTombLP).approve(tShareRewardPool, lpTokenAmount); \n\t\tIMasterChef(tShareRewardPool).deposit(0, lpTokenAmount); //FTM-TOMB pool ID is 0 on Tomb.finance  \n\t}\n\n\t////////////////// DEPOSIT LOGIC ENDS  ////////////////// \n\n\t////////////////// BEGIN WITHDRAW LOGIC  ////////////////// \n\t\n\t//the shares are based on the dUSDC in the users wallet \n\tfunction withdrawLP(address user, uint amountShares) internal {\n\t\tuint strategyBalance = getTokenBalance(address(this)); //18 decimals \n\t\tuint totalShares = IERC20(address(VAULT)).totalSupply(); //8 decimals \n\n\t\tuint withdrawAmount = (strategyBalance / totalShares) * amountShares;\n\n\t\t//handle rounding error case on full vault withdrawl \n\t\tif (withdrawAmount > strategyBalance) {\n\t\t\twithdrawAmount = strategyBalance; \n\t\t}\n\n\t\t//we first withdraw the LP tokens from TOMB  \n\t\t///we have to check the balances before and after the withdrawl in case there are leftovers \n\t\tuint amountBefore = getTokenBalance(spookyFtmTombLP); \n\t\tIMasterChef(tShareRewardPool).withdraw(0, withdrawAmount);  \n\t\tuint amountAfter = getTokenBalance(spookyFtmTombLP); \n\t\tuint lpTokenAmount = amountAfter - amountBefore; \n\n\t\tremoveLiq(user, lpTokenAmount, amountShares); \n\t}\n\n\tfunction removeLiq(address user, uint lpTokenAmount, uint amountShares) internal {\t\t \n\t\t//we remove liquidity belonging to the user(amount) back for tomb + wftm \n\t\tuint wftmBefore = getTokenBalance(WFTM); \n\t\tuint tombBefore = getTokenBalance(TOMB); \n\n\t\tIERC20(spookyFtmTombLP).approve(spookyAddress, lpTokenAmount); \n\t\tspookyRouter.removeLiquidity(\n\t\t\tWFTM,\n\t\t\tTOMB, \n\t\t\tlpTokenAmount,\n\t\t   \t1,\n\t\t   \t1,\n\t\t   \taddress(this),\n\t\t   \tblock.timestamp + 30\n\t\t); \n\n\t\t_burn(address(this), lpTokenAmount); \n\n\t\tuint wftmAfter = getTokenBalance(WFTM); \n\t\tuint tombAfter = getTokenBalance(TOMB); \n\n\t\tuint wftmToSwap = wftmAfter - wftmBefore; \n\t\tuint tombToSwap = tombAfter - tombBefore; \n\t\tIERC20(WFTM).approve(spookyAddress, wftmToSwap); \n\t\tIERC20(TOMB).approve(spookyAddress, tombToSwap); \n\n\t\tuint ethBefore = getTokenBalance(WETH); \n\t\t//execute the swaps \n\t\tswap(WFTM, WETH, wftmToSwap); \n\t\tswap(TOMB, WETH, tombToSwap); \n\t\tuint ethAfter = getTokenBalance(WETH); \n\t\tuint ethAfterSwap = ethAfter - ethBefore; \n\n\t\t//next step\t\n\t\trepay(user, amountShares, ethAfterSwap); \n\t}\n\t\n\tfunction repay(address user, uint amountShares, uint ethAfterSwap) internal {\n\t\t//crToken shares \n\t\t(uint ethShares, uint usdcShares) = splitShares(amountShares);\t\n\t\tuint ethRedeem; \n\t\tuint usdcRedeem; \n\t\t\n\t\t//main logic \n\t\tuint profits; \n\t\tuint amountToRepay;\n\t\tif (ethAfterSwap > tokenBorrowBalance[user]) {\n\t\t\tprofits = ethAfterSwap - tokenBorrowBalance[user]; \n\t\t\tamountToRepay = tokenBorrowBalance[user]; \n\t\t\ttokenBorrowBalance[user] = 0; \n\n\t\t\t//min fee\n\t\t\tethRedeem = ethShares - (chargeFees(ethShares)); \n\t\t\tusdcRedeem = usdcShares - (chargeFees(usdcShares));\n\t\t\tpayCreator(chargeFees(ethShares), chargeFees(usdcShares)); \n\n\t\t} else {\n\t\t\tprofits = 0; \n\t\t\tamountToRepay = ethAfterSwap; \n\t\t\ttokenBorrowBalance[user] -= ethAfterSwap; \n\t\t\t\n\t\t\t//max fee on insta withdraw to prevent rounding error profits //3% fee instead of 1%\n\t\t\tethRedeem = ethShares - (chargeFees(ethShares) * 2); \n\t\t\tusdcRedeem = usdcShares - (chargeFees(usdcShares) * 2);\n\t\t\tpayCreator(chargeFees(ethShares) * 2, chargeFees(usdcShares) * 2); \n\t\t}\t\n\t\t\n\n\t\t//account for rounding errors if last person in vault wants to withdraw \n\t\tif (amountToRepay > borrowBalance()) {\n\t\t\tamountToRepay = borrowBalance(); \n\t\t}\n\n\t\t//now we can repay our users borrow\n\t\tIERC20(WETH).approve(crETH, amountToRepay);\n\t\tCERC20(crETH).repayBorrow(amountToRepay); \n\n\t\tuint ethBefore = getTokenBalance(WETH); \t\n\t\tuint usdcBefore = getTokenBalance(USDC); \t\n\t\t//redeem initial deposit amount + interest \n\t\tCERC20(crETH).redeem(ethRedeem);\n\t\tCERC20(crUSDC).redeem(usdcRedeem); \n\n\t\t//one final check for dust \n\t\tif (profits > getTokenBalance(WETH)) {\n\t\t\tprofits = getTokenBalance(WETH); \n\t\t}\n\t\t\n\t\t//recheck\n\t\tuint ethAfter = getTokenBalance(WETH); \n\t\tuint usdcAfter = getTokenBalance(USDC); \n\t\tuint ethAmount = (ethAfter - ethBefore) + profits; \n\t\tuint usdcAmount = usdcAfter - usdcBefore;  \n\n\t\t//final step \n\t\tswapProfits(ethAmount, usdcAmount); \n\t}\n\n\t//swap eth for usdc and send back to vault\n\tfunction swapProfits(uint ethAmount, uint usdcAmount) internal {\t\n\t\tuint usdcBefore = getTokenBalance(USDC); \n\t\tswap(WETH, USDC, ethAmount); \n\t\tuint usdcAfter = getTokenBalance(USDC); \n\t\tuint totalToSend = (usdcAfter - usdcBefore) + usdcAmount; \n\n\t\tIERC20(USDC).transfer(address(VAULT), totalToSend); \n\t}\n\n\t////////////////// END WITHDRAW LOGIC ////////////////// \n\n\t////////////////// BEGIN HARVEST LOGIC ////////////////// \n\t\n\t//sells tshares for tomb and wftm tokens \n\tfunction compoundLPTokens() internal {\n\t\tuint tsharesInitial = getTokenBalance(TSHARE); \n\t\tuint harvestFee = chargeFees(tsharesInitial); \n\t\tIERC20(TSHARE).transfer(treasuryWallet, harvestFee); //goes to treasury and will be swapped for FTM to use for gas fees \n\n\t\tuint tshares = getTokenBalance(TSHARE);  //update amount \n\t\tuint half = (tshares * 50) / 100; \n\t\tIERC20(TSHARE).approve(spookyAddress, tshares); \n\t\t//true for 3 route swap \n\t\tswap(TSHARE, TOMB, half); \n\t\n\t\t//swap rest to WFTM \n\t\t//call again to avoid rounding errors \n\t\tuint rest = getTokenBalance(TSHARE); \n\t\tswap(TSHARE, WFTM, rest); \t\n\n\t\t//reinvest\n\t\tgetLPTokens(); \n\t}\n\n\t////////////////// END HARVEST LOGIC ////////////////// \n\n\t////////////////// BEGIN HELPER LOGIC ////////////////// \n\n\t function swap(address tokenIn, address tokenOut, uint amount) internal {\t\n\t\tIERC20(tokenIn).approve(spookyAddress, amount); \n\t\taddress[] memory path; \n\n\t\tif (tokenIn == WFTM || tokenOut == WFTM) {\n\t\t\tpath = new address[](2); \n\t\t\tpath[0] = tokenIn; \n\t\t\tpath[1] = tokenOut; \n\t\t} else {\n\t\t\tpath = new address[](3); \n\t\t\tpath[0] = tokenIn; \n\t\t\tpath[1] = WFTM; \n\t\t\tpath[2] = tokenOut; \t\n\t\t}\n\n\n\t  \tIUniswapV2Router02(spookyAddress).swapExactTokensForTokens(\n   \t\t\tamount, \n\t  \t\t0, //min amount out \n\t  \t\tpath, \n\t  \t\taddress(this),\n\t  \t\tblock.timestamp + 30\n\t \t); \n\t}\n\n\t//returuns USD value of deposited assets, how much can be borrowed, and the price of the borrowed asset \n\tfunction getBorrowAmount() internal returns(uint liquidity, uint borrowAmount, uint price) {\n\t\t(, liquidity,) = comptroller.getAccountLiquidity(address(this)); \n\t\tIStdReference.ReferenceData memory data = priceOracle.getReferenceData(\"ETH\", \"USDC\"); \n\t\tprice = data.rate; \n\n\t\tuint maxTokenBorrow = (liquidity * 1e18) / price; //ETH has 18 decimals   \t\n\t\tborrowAmount = (maxTokenBorrow * 94) / 100; //this is token amount  \n\t\t\t\n\t\t//rebalance check to keep vault delta neutral \n\t\tuint borrowCheck = borrowAmount + borrowBalance(); \n\t\t(uint underlying, ) = getUnderlying(); //might have to add current deposit to this? \n\t\tuint diff; \n\t\tif (borrowCheck < underlying) {\n\t\t\tdiff = underlying - borrowCheck; \n\t\t\tborrowAmount += diff; \t\n\t\t} else if (borrowCheck > underlying) {\n\t\t\tdiff = borrowCheck - underlying; \n\t\t\tborrowAmount -= diff; \n\t\t}\n\t\treturn (liquidity, borrowAmount, price); \n\t}\n\t\n\t//returns the share per underlying crToken price  \n\tfunction splitShares (uint amountShares) internal view returns(uint, uint) {\n\t\tuint cTokenEth = getCrTokenBalance(crETH); \n\t\tuint cTokenUsdc = getCrTokenBalance(crUSDC);\n\t\tuint pool = VAULT.totalSupply(); \n\n\t\tuint ethShares = (cTokenEth * amountShares) / pool; \n\t\tuint usdcShares = (cTokenUsdc * amountShares) / pool; \n\n\t\treturn (ethShares, usdcShares); \n\t}\n\n\tfunction payCreator(uint amountEth, uint amountUSDC) internal {\n\t\tCERC20(crETH).transfer(creator, amountEth); \n\t\tCERC20(crUSDC).transfer(creator, amountUSDC); \n\t}\n\t\t\n\tfunction chargeFees(uint amount) internal pure returns(uint feeAmount) {\n\t\treturn feeAmount = (amount * CREATOR_FEE) / 1e4; //0.1 or 1% \n\t}\n\n\tfunction getTokenBalance(address token) internal view returns(uint amount) {\n\t\treturn amount = IERC20(token).balanceOf(address(this)); \n\t}\n\n\tfunction getCrTokenBalance(address crToken) internal view returns(uint amount) {\n\t\treturn amount = CERC20(crToken).balanceOf(address(this)); \n\t}\n\n\tfunction setTreasury(address wallet) external {\n\t\trequire(msg.sender == address(VAULT), \"!vault\"); \n\t\ttreasuryWallet = wallet; \t\t\n\t}\n\t\n\t//public for querying from frontend \n\tfunction getUnderlying() public returns(uint, uint) {\n\t\tuint underlyingETH = CERC20(crETH).balanceOfUnderlying(address(this)); \n\t\tuint underlyingUSDC = CERC20(crUSDC).balanceOfUnderlying(address(this));\n\t\treturn (underlyingETH, underlyingUSDC); \n\t}\n\n\tfunction borrowBalance() public returns(uint) {\n\t\treturn CERC20(crETH).borrowBalanceCurrent(address(this)); \n\t}\n} \n",
  "sourcePath": "/home/kevin/Code/solidity_projects/djinn/contracts/strategies/CreamFtmTombStrategy.sol",
  "compiler": {
    "name": "solc",
    "version": "0.8.10+commit.fc410830.Emscripten.clang"
  },
  "schemaVersion": "3.4.3",
  "updatedAt": "2022-03-12T17:02:56.724Z",
  "networkType": "ethereum",
  "devdoc": {
    "kind": "dev",
    "methods": {
      "allowance(address,address)": {
        "details": "See {IERC20-allowance}."
      },
      "approve(address,uint256)": {
        "details": "See {IERC20-approve}. Requirements: - `spender` cannot be the zero address."
      },
      "balanceOf(address)": {
        "details": "See {IERC20-balanceOf}."
      },
      "decimals()": {
        "details": "Returns the number of decimals used to get its user representation. For example, if `decimals` equals `2`, a balance of `505` tokens should be displayed to a user as `5.05` (`505 / 10 ** 2`). Tokens usually opt for a value of 18, imitating the relationship between Ether and Wei. This is the value {ERC20} uses, unless this function is overridden; NOTE: This information is only used for _display_ purposes: it in no way affects any of the arithmetic of the contract, including {IERC20-balanceOf} and {IERC20-transfer}."
      },
      "decreaseAllowance(address,uint256)": {
        "details": "Atomically decreases the allowance granted to `spender` by the caller. This is an alternative to {approve} that can be used as a mitigation for problems described in {IERC20-approve}. Emits an {Approval} event indicating the updated allowance. Requirements: - `spender` cannot be the zero address. - `spender` must have allowance for the caller of at least `subtractedValue`."
      },
      "increaseAllowance(address,uint256)": {
        "details": "Atomically increases the allowance granted to `spender` by the caller. This is an alternative to {approve} that can be used as a mitigation for problems described in {IERC20-approve}. Emits an {Approval} event indicating the updated allowance. Requirements: - `spender` cannot be the zero address."
      },
      "name()": {
        "details": "Returns the name of the token."
      },
      "symbol()": {
        "details": "Returns the symbol of the token, usually a shorter version of the name."
      },
      "totalSupply()": {
        "details": "See {IERC20-totalSupply}."
      },
      "transfer(address,uint256)": {
        "details": "See {IERC20-transfer}. Requirements: - `recipient` cannot be the zero address. - the caller must have a balance of at least `amount`."
      },
      "transferFrom(address,address,uint256)": {
        "details": "See {IERC20-transferFrom}. Emits an {Approval} event indicating the updated allowance. This is not required by the EIP. See the note at the beginning of {ERC20}. Requirements: - `sender` and `recipient` cannot be the zero address. - `sender` must have a balance of at least `amount`. - the caller must have allowance for ``sender``'s tokens of at least `amount`."
      }
    },
    "version": 1
  },
  "userdoc": {
    "kind": "user",
    "methods": {},
    "version": 1
  }
}