{
  "contractName": "DeltaNeutralFtmTomb",
  "abi": [
    {
      "inputs": [
        {
          "internalType": "contract DjinnBottleUSDC",
          "name": "_djBottle",
          "type": "address"
        },
        {
          "internalType": "contract IUniswapV2Router02",
          "name": "_spookyRouter",
          "type": "address"
        },
        {
          "internalType": "contract ComptrollerInterface",
          "name": "_comptroller",
          "type": "address"
        },
        {
          "internalType": "contract IStdReference",
          "name": "_priceOracle",
          "type": "address"
        },
        {
          "internalType": "address",
          "name": "wallet",
          "type": "address"
        }
      ],
      "stateMutability": "nonpayable",
      "type": "constructor"
    },
    {
      "anonymous": false,
      "inputs": [
        {
          "indexed": true,
          "internalType": "address",
          "name": "owner",
          "type": "address"
        },
        {
          "indexed": true,
          "internalType": "address",
          "name": "spender",
          "type": "address"
        },
        {
          "indexed": false,
          "internalType": "uint256",
          "name": "value",
          "type": "uint256"
        }
      ],
      "name": "Approval",
      "type": "event"
    },
    {
      "anonymous": false,
      "inputs": [
        {
          "indexed": true,
          "internalType": "address",
          "name": "from",
          "type": "address"
        },
        {
          "indexed": true,
          "internalType": "address",
          "name": "to",
          "type": "address"
        },
        {
          "indexed": false,
          "internalType": "uint256",
          "name": "value",
          "type": "uint256"
        }
      ],
      "name": "Transfer",
      "type": "event"
    },
    {
      "inputs": [],
      "name": "TOMB",
      "outputs": [
        {
          "internalType": "address",
          "name": "",
          "type": "address"
        }
      ],
      "stateMutability": "view",
      "type": "function",
      "constant": true
    },
    {
      "inputs": [],
      "name": "TSHARE",
      "outputs": [
        {
          "internalType": "address",
          "name": "",
          "type": "address"
        }
      ],
      "stateMutability": "view",
      "type": "function",
      "constant": true
    },
    {
      "inputs": [],
      "name": "USDC",
      "outputs": [
        {
          "internalType": "address",
          "name": "",
          "type": "address"
        }
      ],
      "stateMutability": "view",
      "type": "function",
      "constant": true
    },
    {
      "inputs": [],
      "name": "VAULT",
      "outputs": [
        {
          "internalType": "contract DjinnBottleUSDC",
          "name": "",
          "type": "address"
        }
      ],
      "stateMutability": "view",
      "type": "function",
      "constant": true
    },
    {
      "inputs": [],
      "name": "WETH",
      "outputs": [
        {
          "internalType": "address",
          "name": "",
          "type": "address"
        }
      ],
      "stateMutability": "view",
      "type": "function",
      "constant": true
    },
    {
      "inputs": [],
      "name": "WFTM",
      "outputs": [
        {
          "internalType": "address",
          "name": "",
          "type": "address"
        }
      ],
      "stateMutability": "view",
      "type": "function",
      "constant": true
    },
    {
      "inputs": [
        {
          "internalType": "address",
          "name": "owner",
          "type": "address"
        },
        {
          "internalType": "address",
          "name": "spender",
          "type": "address"
        }
      ],
      "name": "allowance",
      "outputs": [
        {
          "internalType": "uint256",
          "name": "",
          "type": "uint256"
        }
      ],
      "stateMutability": "view",
      "type": "function",
      "constant": true
    },
    {
      "inputs": [
        {
          "internalType": "address",
          "name": "spender",
          "type": "address"
        },
        {
          "internalType": "uint256",
          "name": "amount",
          "type": "uint256"
        }
      ],
      "name": "approve",
      "outputs": [
        {
          "internalType": "bool",
          "name": "",
          "type": "bool"
        }
      ],
      "stateMutability": "nonpayable",
      "type": "function"
    },
    {
      "inputs": [
        {
          "internalType": "address",
          "name": "account",
          "type": "address"
        }
      ],
      "name": "balanceOf",
      "outputs": [
        {
          "internalType": "uint256",
          "name": "",
          "type": "uint256"
        }
      ],
      "stateMutability": "view",
      "type": "function",
      "constant": true
    },
    {
      "inputs": [],
      "name": "comptroller",
      "outputs": [
        {
          "internalType": "contract ComptrollerInterface",
          "name": "",
          "type": "address"
        }
      ],
      "stateMutability": "view",
      "type": "function",
      "constant": true
    },
    {
      "inputs": [],
      "name": "crETH",
      "outputs": [
        {
          "internalType": "address",
          "name": "",
          "type": "address"
        }
      ],
      "stateMutability": "view",
      "type": "function",
      "constant": true
    },
    {
      "inputs": [],
      "name": "crUSDC",
      "outputs": [
        {
          "internalType": "address",
          "name": "",
          "type": "address"
        }
      ],
      "stateMutability": "view",
      "type": "function",
      "constant": true
    },
    {
      "inputs": [],
      "name": "creator",
      "outputs": [
        {
          "internalType": "address",
          "name": "",
          "type": "address"
        }
      ],
      "stateMutability": "view",
      "type": "function",
      "constant": true
    },
    {
      "inputs": [],
      "name": "decimals",
      "outputs": [
        {
          "internalType": "uint8",
          "name": "",
          "type": "uint8"
        }
      ],
      "stateMutability": "view",
      "type": "function",
      "constant": true
    },
    {
      "inputs": [
        {
          "internalType": "address",
          "name": "spender",
          "type": "address"
        },
        {
          "internalType": "uint256",
          "name": "subtractedValue",
          "type": "uint256"
        }
      ],
      "name": "decreaseAllowance",
      "outputs": [
        {
          "internalType": "bool",
          "name": "",
          "type": "bool"
        }
      ],
      "stateMutability": "nonpayable",
      "type": "function"
    },
    {
      "inputs": [
        {
          "internalType": "address",
          "name": "spender",
          "type": "address"
        },
        {
          "internalType": "uint256",
          "name": "addedValue",
          "type": "uint256"
        }
      ],
      "name": "increaseAllowance",
      "outputs": [
        {
          "internalType": "bool",
          "name": "",
          "type": "bool"
        }
      ],
      "stateMutability": "nonpayable",
      "type": "function"
    },
    {
      "inputs": [],
      "name": "name",
      "outputs": [
        {
          "internalType": "string",
          "name": "",
          "type": "string"
        }
      ],
      "stateMutability": "view",
      "type": "function",
      "constant": true
    },
    {
      "inputs": [],
      "name": "priceOracle",
      "outputs": [
        {
          "internalType": "contract IStdReference",
          "name": "",
          "type": "address"
        }
      ],
      "stateMutability": "view",
      "type": "function",
      "constant": true
    },
    {
      "inputs": [],
      "name": "spookyAddress",
      "outputs": [
        {
          "internalType": "address",
          "name": "",
          "type": "address"
        }
      ],
      "stateMutability": "view",
      "type": "function",
      "constant": true
    },
    {
      "inputs": [],
      "name": "spookyFtmTombLP",
      "outputs": [
        {
          "internalType": "address",
          "name": "",
          "type": "address"
        }
      ],
      "stateMutability": "view",
      "type": "function",
      "constant": true
    },
    {
      "inputs": [],
      "name": "spookyRouter",
      "outputs": [
        {
          "internalType": "contract IUniswapV2Router02",
          "name": "",
          "type": "address"
        }
      ],
      "stateMutability": "view",
      "type": "function",
      "constant": true
    },
    {
      "inputs": [],
      "name": "symbol",
      "outputs": [
        {
          "internalType": "string",
          "name": "",
          "type": "string"
        }
      ],
      "stateMutability": "view",
      "type": "function",
      "constant": true
    },
    {
      "inputs": [],
      "name": "tShareRewardPool",
      "outputs": [
        {
          "internalType": "address",
          "name": "",
          "type": "address"
        }
      ],
      "stateMutability": "view",
      "type": "function",
      "constant": true
    },
    {
      "inputs": [
        {
          "internalType": "address",
          "name": "",
          "type": "address"
        }
      ],
      "name": "tokenBorrowBalance",
      "outputs": [
        {
          "internalType": "uint256",
          "name": "",
          "type": "uint256"
        }
      ],
      "stateMutability": "view",
      "type": "function",
      "constant": true
    },
    {
      "inputs": [],
      "name": "totalSupply",
      "outputs": [
        {
          "internalType": "uint256",
          "name": "",
          "type": "uint256"
        }
      ],
      "stateMutability": "view",
      "type": "function",
      "constant": true
    },
    {
      "inputs": [
        {
          "internalType": "address",
          "name": "recipient",
          "type": "address"
        },
        {
          "internalType": "uint256",
          "name": "amount",
          "type": "uint256"
        }
      ],
      "name": "transfer",
      "outputs": [
        {
          "internalType": "bool",
          "name": "",
          "type": "bool"
        }
      ],
      "stateMutability": "nonpayable",
      "type": "function"
    },
    {
      "inputs": [
        {
          "internalType": "address",
          "name": "sender",
          "type": "address"
        },
        {
          "internalType": "address",
          "name": "recipient",
          "type": "address"
        },
        {
          "internalType": "uint256",
          "name": "amount",
          "type": "uint256"
        }
      ],
      "name": "transferFrom",
      "outputs": [
        {
          "internalType": "bool",
          "name": "",
          "type": "bool"
        }
      ],
      "stateMutability": "nonpayable",
      "type": "function"
    },
    {
      "inputs": [],
      "name": "treasuryWallet",
      "outputs": [
        {
          "internalType": "address",
          "name": "",
          "type": "address"
        }
      ],
      "stateMutability": "view",
      "type": "function",
      "constant": true
    },
    {
      "inputs": [
        {
          "internalType": "address",
          "name": "user",
          "type": "address"
        },
        {
          "internalType": "uint256",
          "name": "amount",
          "type": "uint256"
        }
      ],
      "name": "open",
      "outputs": [],
      "stateMutability": "nonpayable",
      "type": "function"
    },
    {
      "inputs": [],
      "name": "harvest",
      "outputs": [],
      "stateMutability": "nonpayable",
      "type": "function"
    },
    {
      "inputs": [
        {
          "internalType": "address",
          "name": "user",
          "type": "address"
        },
        {
          "internalType": "uint256",
          "name": "amountShares",
          "type": "uint256"
        }
      ],
      "name": "close",
      "outputs": [],
      "stateMutability": "nonpayable",
      "type": "function"
    },
    {
      "inputs": [
        {
          "internalType": "address",
          "name": "wallet",
          "type": "address"
        }
      ],
      "name": "setTreasury",
      "outputs": [],
      "stateMutability": "nonpayable",
      "type": "function"
    },
    {
      "inputs": [],
      "name": "getUnderlying",
      "outputs": [
        {
          "internalType": "uint256",
          "name": "",
          "type": "uint256"
        },
        {
          "internalType": "uint256",
          "name": "",
          "type": "uint256"
        }
      ],
      "stateMutability": "nonpayable",
      "type": "function"
    },
    {
      "inputs": [],
      "name": "borrowBalance",
      "outputs": [
        {
          "internalType": "uint256",
          "name": "",
          "type": "uint256"
        }
      ],
      "stateMutability": "nonpayable",
      "type": "function"
    }
  ],
  "bytecode": "0x60e06040523480156200001157600080fd5b50604051620059a2380380620059a283398181016040528101906200003791906200046f565b6040518060400160405280601481526020017f446a696e6e2046544d2053686f7274204661726d0000000000000000000000008152506040518060400160405280600981526020017f6446544d53686f727400000000000000000000000000000000000000000000008152508160039080519060200190620000bb92919062000241565b508060049080519060200190620000d492919062000241565b50505033600560006101000a81548173ffffffffffffffffffffffffffffffffffffffff021916908373ffffffffffffffffffffffffffffffffffffffff16021790555084600760006101000a81548173ffffffffffffffffffffffffffffffffffffffff021916908373ffffffffffffffffffffffffffffffffffffffff1602179055508373ffffffffffffffffffffffffffffffffffffffff1660808173ffffffffffffffffffffffffffffffffffffffff16815250508273ffffffffffffffffffffffffffffffffffffffff1660a08173ffffffffffffffffffffffffffffffffffffffff16815250508173ffffffffffffffffffffffffffffffffffffffff1660c08173ffffffffffffffffffffffffffffffffffffffff168152505080600660006101000a81548173ffffffffffffffffffffffffffffffffffffffff021916908373ffffffffffffffffffffffffffffffffffffffff16021790555050505050506200055c565b8280546200024f9062000526565b90600052602060002090601f016020900481019282620002735760008555620002bf565b82601f106200028e57805160ff1916838001178555620002bf565b82800160010185558215620002bf579182015b82811115620002be578251825591602001919060010190620002a1565b5b509050620002ce9190620002d2565b5090565b5b80821115620002ed576000816000905550600101620002d3565b5090565b600080fd5b600073ffffffffffffffffffffffffffffffffffffffff82169050919050565b60006200032382620002f6565b9050919050565b6000620003378262000316565b9050919050565b62000349816200032a565b81146200035557600080fd5b50565b60008151905062000369816200033e565b92915050565b60006200037c8262000316565b9050919050565b6200038e816200036f565b81146200039a57600080fd5b50565b600081519050620003ae8162000383565b92915050565b6000620003c18262000316565b9050919050565b620003d381620003b4565b8114620003df57600080fd5b50565b600081519050620003f381620003c8565b92915050565b6000620004068262000316565b9050919050565b6200041881620003f9565b81146200042457600080fd5b50565b60008151905062000438816200040d565b92915050565b620004498162000316565b81146200045557600080fd5b50565b60008151905062000469816200043e565b92915050565b600080600080600060a086880312156200048e576200048d620002f1565b5b60006200049e8882890162000358565b9550506020620004b1888289016200039d565b9450506040620004c488828901620003e2565b9350506060620004d78882890162000427565b9250506080620004ea8882890162000458565b9150509295509295909350565b7f4e487b7100000000000000000000000000000000000000000000000000000000600052602260045260246000fd5b600060028204905060018216806200053f57607f821691505b60208210811415620005565762000555620004f7565b5b50919050565b60805160a05160c0516153f3620005af600039600081816109bd0152612bfe015260008181610c16015281816124820152612b5a015260008181610cb201528181612769015261384501526153f36000f3fe608060405234801561001057600080fd5b50600436106102065760003560e01c806370a082311161011a578063a6f8d405116100ad578063c139acfa1161007c578063c139acfa146105da578063dd62ed3e146105f8578063e398fa1a14610628578063e49280cb14610646578063f0f442601461066257610206565b8063a6f8d40514610550578063a9059cbb1461056e578063ad5c46481461059e578063b5ee45c1146105bc57610206565b806395d89b41116100e957806395d89b41146104c55780639816f473146104e35780639cdd8ee714610502578063a457c2d71461052057610206565b806370a082311461043b57806382c70bbf1461046b57806389a30271146104895780638ed8ea7e146104a757610206565b8063243cd14e1161019d578063395093511161016c57806339509351146103a7578063411557d1146103d75780634626402b146103f55780634641257d146104135780635fe3b5671461041d57610206565b8063243cd14e1461032f5780632630c12f1461034d5780632c1c18361461036b578063313ce5671461038957610206565b806310760616116101d9578063107606161461029357806318160ddd146102c357806321dbe876146102e157806323b872dd146102ff57610206565b806302d05d3f1461020b57806306fdde0314610229578063095ea7b3146102475780630a0e5c9d14610277575b600080fd5b61021361067e565b6040516102209190614017565b60405180910390f35b6102316106a4565b60405161023e91906140cb565b60405180910390f35b610261600480360381019061025c9190614163565b610736565b60405161026e91906141be565b60405180910390f35b610291600480360381019061028c9190614163565b610754565b005b6102ad60048036038101906102a891906141d9565b6107f2565b6040516102ba9190614215565b60405180910390f35b6102cb61080a565b6040516102d89190614215565b60405180910390f35b6102e9610814565b6040516102f69190614017565b60405180910390f35b61031960048036038101906103149190614230565b61082c565b60405161032691906141be565b60405180910390f35b610337610924565b6040516103449190614215565b60405180910390f35b6103556109bb565b60405161036291906142e2565b60405180910390f35b6103736109df565b6040516103809190614017565b60405180910390f35b6103916109f7565b60405161039e9190614319565b60405180910390f35b6103c160048036038101906103bc9190614163565b610a00565b6040516103ce91906141be565b60405180910390f35b6103df610aac565b6040516103ec9190614355565b60405180910390f35b6103fd610ad2565b60405161040a9190614017565b60405180910390f35b61041b610af8565b005b610425610c14565b6040516104329190614391565b60405180910390f35b610455600480360381019061045091906141d9565b610c38565b6040516104629190614215565b60405180910390f35b610473610c80565b6040516104809190614017565b60405180910390f35b610491610c98565b60405161049e9190614017565b60405180910390f35b6104af610cb0565b6040516104bc91906143cd565b60405180910390f35b6104cd610cd4565b6040516104da91906140cb565b60405180910390f35b6104eb610d66565b6040516104f99291906143e8565b60405180910390f35b61050a610e9d565b6040516105179190614017565b60405180910390f35b61053a60048036038101906105359190614163565b610eb5565b60405161054791906141be565b60405180910390f35b610558610fa0565b6040516105659190614017565b60405180910390f35b61058860048036038101906105839190614163565b610fb8565b60405161059591906141be565b60405180910390f35b6105a6610fd6565b6040516105b39190614017565b60405180910390f35b6105c4610fee565b6040516105d19190614017565b60405180910390f35b6105e2611006565b6040516105ef9190614017565b60405180910390f35b610612600480360381019061060d9190614411565b61101e565b60405161061f9190614215565b60405180910390f35b6106306110a5565b60405161063d9190614017565b60405180910390f35b610660600480360381019061065b9190614163565b6110bd565b005b61067c600480360381019061067791906141d9565b61115b565b005b600560009054906101000a900473ffffffffffffffffffffffffffffffffffffffff1681565b6060600380546106b390614480565b80601f01602080910402602001604051908101604052809291908181526020018280546106df90614480565b801561072c5780601f106107015761010080835404028352916020019161072c565b820191906000526020600020905b81548152906001019060200180831161070f57829003601f168201915b5050505050905090565b600061074a61074361122f565b8484611237565b6001905092915050565b600760009054906101000a900473ffffffffffffffffffffffffffffffffffffffff1673ffffffffffffffffffffffffffffffffffffffff163373ffffffffffffffffffffffffffffffffffffffff16146107e4576040517f08c379a00000000000000000000000000000000000000000000000000000000081526004016107db906144fe565b60405180910390fd5b6107ee8282611402565b5050565b60086020528060005260406000206000915090505481565b6000600254905090565b7321be370d5312f44cb42ce377bc9b8a0cef1a4c8381565b60006108398484846114a6565b6000600160008673ffffffffffffffffffffffffffffffffffffffff1673ffffffffffffffffffffffffffffffffffffffff168152602001908152602001600020600061088461122f565b73ffffffffffffffffffffffffffffffffffffffff1673ffffffffffffffffffffffffffffffffffffffff16815260200190815260200160002054905082811015610904576040517f08c379a00000000000000000000000000000000000000000000000000000000081526004016108fb90614590565b60405180910390fd5b6109188561091061122f565b858403611237565b60019150509392505050565b600073cc3e89fbc10e155f1164f8c9cf0703acde53f6fd73ffffffffffffffffffffffffffffffffffffffff166317bfdfbc306040518263ffffffff1660e01b81526004016109739190614017565b6020604051808303816000875af1158015610992573d6000803e3d6000fd5b505050506040513d601f19601f820116820180604052508101906109b691906145c5565b905090565b7f000000000000000000000000000000000000000000000000000000000000000081565b73cc0a87f7e7c693042a9cc703661f5060c80acb4381565b60006012905090565b6000610aa2610a0d61122f565b848460016000610a1b61122f565b73ffffffffffffffffffffffffffffffffffffffff1673ffffffffffffffffffffffffffffffffffffffff16815260200190815260200160002060008873ffffffffffffffffffffffffffffffffffffffff1673ffffffffffffffffffffffffffffffffffffffff16815260200190815260200160002054610a9d9190614621565b611237565b6001905092915050565b600760009054906101000a900473ffffffffffffffffffffffffffffffffffffffff1681565b600660009054906101000a900473ffffffffffffffffffffffffffffffffffffffff1681565b600760009054906101000a900473ffffffffffffffffffffffffffffffffffffffff1673ffffffffffffffffffffffffffffffffffffffff163373ffffffffffffffffffffffffffffffffffffffff1614610b88576040517f08c379a0000000000000000000000000000000000000000000000000000000008152600401610b7f906144fe565b60405180910390fd5b73cc0a87f7e7c693042a9cc703661f5060c80acb4373ffffffffffffffffffffffffffffffffffffffff1663e2bbb1586000806040518363ffffffff1660e01b8152600401610bd89291906146b2565b600060405180830381600087803b158015610bf257600080fd5b505af1158015610c06573d6000803e3d6000fd5b50505050610c12611727565b565b7f000000000000000000000000000000000000000000000000000000000000000081565b60008060008373ffffffffffffffffffffffffffffffffffffffff1673ffffffffffffffffffffffffffffffffffffffff168152602001908152602001600020549050919050565b73328a7b4d538a2b3942653a9983fda3c12c57114181565b7304068da6c83afcfa0e13ba15a6696662335d5b7581565b7f000000000000000000000000000000000000000000000000000000000000000081565b606060048054610ce390614480565b80601f0160208091040260200160405190810160405280929190818152602001828054610d0f90614480565b8015610d5c5780601f10610d3157610100808354040283529160200191610d5c565b820191906000526020600020905b815481529060010190602001808311610d3f57829003601f168201915b5050505050905090565b600080600073cc3e89fbc10e155f1164f8c9cf0703acde53f6fd73ffffffffffffffffffffffffffffffffffffffff16633af9e669306040518263ffffffff1660e01b8152600401610db89190614017565b6020604051808303816000875af1158015610dd7573d6000803e3d6000fd5b505050506040513d601f19601f82011682018060405250810190610dfb91906145c5565b9050600073328a7b4d538a2b3942653a9983fda3c12c57114173ffffffffffffffffffffffffffffffffffffffff16633af9e669306040518263ffffffff1660e01b8152600401610e4c9190614017565b6020604051808303816000875af1158015610e6b573d6000803e3d6000fd5b505050506040513d601f19601f82011682018060405250810190610e8f91906145c5565b905081819350935050509091565b732a651563c9d3af67ae0388a5c8f89b867038089e81565b60008060016000610ec461122f565b73ffffffffffffffffffffffffffffffffffffffff1673ffffffffffffffffffffffffffffffffffffffff16815260200190815260200160002060008573ffffffffffffffffffffffffffffffffffffffff1673ffffffffffffffffffffffffffffffffffffffff16815260200190815260200160002054905082811015610f81576040517f08c379a0000000000000000000000000000000000000000000000000000000008152600401610f789061474d565b60405180910390fd5b610f95610f8c61122f565b85858403611237565b600191505092915050565b73f491e7b69e4244ad4002bc14e878a34207e38c2981565b6000610fcc610fc561122f565b84846114a6565b6001905092915050565b7374b23882a30290451a17c44f4f05243b6b58c76d81565b734cdf39285d7ca8eb3f090fda0c069ba5f4145b3781565b736c021ae822bea943b2e66552bde1d2696a53fbb781565b6000600160008473ffffffffffffffffffffffffffffffffffffffff1673ffffffffffffffffffffffffffffffffffffffff16815260200190815260200160002060008373ffffffffffffffffffffffffffffffffffffffff1673ffffffffffffffffffffffffffffffffffffffff16815260200190815260200160002054905092915050565b73cc3e89fbc10e155f1164f8c9cf0703acde53f6fd81565b600760009054906101000a900473ffffffffffffffffffffffffffffffffffffffff1673ffffffffffffffffffffffffffffffffffffffff163373ffffffffffffffffffffffffffffffffffffffff161461114d576040517f08c379a0000000000000000000000000000000000000000000000000000000008152600401611144906144fe565b60405180910390fd5b611157828261197d565b5050565b600760009054906101000a900473ffffffffffffffffffffffffffffffffffffffff1673ffffffffffffffffffffffffffffffffffffffff163373ffffffffffffffffffffffffffffffffffffffff16146111eb576040517f08c379a00000000000000000000000000000000000000000000000000000000081526004016111e2906144fe565b60405180910390fd5b80600660006101000a81548173ffffffffffffffffffffffffffffffffffffffff021916908373ffffffffffffffffffffffffffffffffffffffff16021790555050565b600033905090565b600073ffffffffffffffffffffffffffffffffffffffff168373ffffffffffffffffffffffffffffffffffffffff1614156112a7576040517f08c379a000000000000000000000000000000000000000000000000000000000815260040161129e906147df565b60405180910390fd5b600073ffffffffffffffffffffffffffffffffffffffff168273ffffffffffffffffffffffffffffffffffffffff161415611317576040517f08c379a000000000000000000000000000000000000000000000000000000000815260040161130e90614871565b60405180910390fd5b80600160008573ffffffffffffffffffffffffffffffffffffffff1673ffffffffffffffffffffffffffffffffffffffff16815260200190815260200160002060008473ffffffffffffffffffffffffffffffffffffffff1673ffffffffffffffffffffffffffffffffffffffff168152602001908152602001600020819055508173ffffffffffffffffffffffffffffffffffffffff168373ffffffffffffffffffffffffffffffffffffffff167f8c5be1e5ebec7d5bd14f71427d1e84f3dd0314c0f7b2291e5b200ac8c7c3b925836040516113f59190614215565b60405180910390a3505050565b600060646046836114139190614891565b61141d919061491a565b90506114527304068da6c83afcfa0e13ba15a6696662335d5b757374b23882a30290451a17c44f4f05243b6b58c76d83611b2f565b60006114717304068da6c83afcfa0e13ba15a6696662335d5b75611f44565b905060006114927374b23882a30290451a17c44f4f05243b6b58c76d611f44565b905061149f858383611fc7565b5050505050565b600073ffffffffffffffffffffffffffffffffffffffff168373ffffffffffffffffffffffffffffffffffffffff161415611516576040517f08c379a000000000000000000000000000000000000000000000000000000000815260040161150d906149bd565b60405180910390fd5b600073ffffffffffffffffffffffffffffffffffffffff168273ffffffffffffffffffffffffffffffffffffffff161415611586576040517f08c379a000000000000000000000000000000000000000000000000000000000815260040161157d90614a4f565b60405180910390fd5b611591838383612651565b60008060008573ffffffffffffffffffffffffffffffffffffffff1673ffffffffffffffffffffffffffffffffffffffff16815260200190815260200160002054905081811015611617576040517f08c379a000000000000000000000000000000000000000000000000000000000815260040161160e90614ae1565b60405180910390fd5b8181036000808673ffffffffffffffffffffffffffffffffffffffff1673ffffffffffffffffffffffffffffffffffffffff16815260200190815260200160002081905550816000808573ffffffffffffffffffffffffffffffffffffffff1673ffffffffffffffffffffffffffffffffffffffff16815260200190815260200160002060008282546116aa9190614621565b925050819055508273ffffffffffffffffffffffffffffffffffffffff168473ffffffffffffffffffffffffffffffffffffffff167fddf252ad1be2c89b69c2b068fc378daa952ba7f163c4a11628f55a4df523b3ef8460405161170e9190614215565b60405180910390a3611721848484612656565b50505050565b6000611746734cdf39285d7ca8eb3f090fda0c069ba5f4145b37611f44565b905060006117538261265b565b9050734cdf39285d7ca8eb3f090fda0c069ba5f4145b3773ffffffffffffffffffffffffffffffffffffffff1663a9059cbb600660009054906101000a900473ffffffffffffffffffffffffffffffffffffffff16836040518363ffffffff1660e01b81526004016117c6929190614b01565b6020604051808303816000875af11580156117e5573d6000803e3d6000fd5b505050506040513d601f19601f820116820180604052508101906118099190614b56565b506000611829734cdf39285d7ca8eb3f090fda0c069ba5f4145b37611f44565b90506000606460328361183c9190614891565b611846919061491a565b9050734cdf39285d7ca8eb3f090fda0c069ba5f4145b3773ffffffffffffffffffffffffffffffffffffffff1663095ea7b373f491e7b69e4244ad4002bc14e878a34207e38c29846040518363ffffffff1660e01b81526004016118ab929190614b01565b6020604051808303816000875af11580156118ca573d6000803e3d6000fd5b505050506040513d601f19601f820116820180604052508101906118ee9190614b56565b50611922734cdf39285d7ca8eb3f090fda0c069ba5f4145b37736c021ae822bea943b2e66552bde1d2696a53fbb783611b2f565b6000611941734cdf39285d7ca8eb3f090fda0c069ba5f4145b37611f44565b9050611976734cdf39285d7ca8eb3f090fda0c069ba5f4145b377321be370d5312f44cb42ce377bc9b8a0cef1a4c8383611b2f565b5050505050565b600061198830611f44565b90506000600760009054906101000a900473ffffffffffffffffffffffffffffffffffffffff1673ffffffffffffffffffffffffffffffffffffffff166318160ddd6040518163ffffffff1660e01b8152600401602060405180830381865afa1580156119f9573d6000803e3d6000fd5b505050506040513d601f19601f82011682018060405250810190611a1d91906145c5565b90506000838284611a2e919061491a565b611a389190614891565b905082811115611a46578290505b6000611a65732a651563c9d3af67ae0388a5c8f89b867038089e611f44565b905073cc0a87f7e7c693042a9cc703661f5060c80acb4373ffffffffffffffffffffffffffffffffffffffff1663441a3e706000846040518363ffffffff1660e01b8152600401611ab7929190614b83565b600060405180830381600087803b158015611ad157600080fd5b505af1158015611ae5573d6000803e3d6000fd5b505050506000611b08732a651563c9d3af67ae0388a5c8f89b867038089e611f44565b905060008282611b189190614bac565b9050611b2588828961267e565b5050505050505050565b8273ffffffffffffffffffffffffffffffffffffffff1663095ea7b373f491e7b69e4244ad4002bc14e878a34207e38c29836040518363ffffffff1660e01b8152600401611b7e929190614b01565b6020604051808303816000875af1158015611b9d573d6000803e3d6000fd5b505050506040513d601f19601f82011682018060405250810190611bc19190614b56565b5060607321be370d5312f44cb42ce377bc9b8a0cef1a4c8373ffffffffffffffffffffffffffffffffffffffff168473ffffffffffffffffffffffffffffffffffffffff161480611c5157507321be370d5312f44cb42ce377bc9b8a0cef1a4c8373ffffffffffffffffffffffffffffffffffffffff168373ffffffffffffffffffffffffffffffffffffffff16145b15611d4557600267ffffffffffffffff811115611c7157611c70614be0565b5b604051908082528060200260200182016040528015611c9f5781602001602082028036833780820191505090505b5090508381600081518110611cb757611cb6614c0f565b5b602002602001019073ffffffffffffffffffffffffffffffffffffffff16908173ffffffffffffffffffffffffffffffffffffffff16815250508281600181518110611d0657611d05614c0f565b5b602002602001019073ffffffffffffffffffffffffffffffffffffffff16908173ffffffffffffffffffffffffffffffffffffffff1681525050611e93565b600367ffffffffffffffff811115611d6057611d5f614be0565b5b604051908082528060200260200182016040528015611d8e5781602001602082028036833780820191505090505b5090508381600081518110611da657611da5614c0f565b5b602002602001019073ffffffffffffffffffffffffffffffffffffffff16908173ffffffffffffffffffffffffffffffffffffffff16815250507321be370d5312f44cb42ce377bc9b8a0cef1a4c8381600181518110611e0957611e08614c0f565b5b602002602001019073ffffffffffffffffffffffffffffffffffffffff16908173ffffffffffffffffffffffffffffffffffffffff16815250508281600281518110611e5857611e57614c0f565b5b602002602001019073ffffffffffffffffffffffffffffffffffffffff16908173ffffffffffffffffffffffffffffffffffffffff16815250505b73f491e7b69e4244ad4002bc14e878a34207e38c2973ffffffffffffffffffffffffffffffffffffffff166338ed17398360008430601e42611ed59190614621565b6040518663ffffffff1660e01b8152600401611ef5959493929190614cfc565b6000604051808303816000875af1158015611f14573d6000803e3d6000fd5b505050506040513d6000823e3d601f19601f82011682018060405250810190611f3d9190614e6f565b5050505050565b60008173ffffffffffffffffffffffffffffffffffffffff166370a08231306040518263ffffffff1660e01b8152600401611f7f9190614017565b602060405180830381865afa158015611f9c573d6000803e3d6000fd5b505050506040513d601f19601f82011682018060405250810190611fc091906145c5565b9050919050565b6000611fe673cc3e89fbc10e155f1164f8c9cf0703acde53f6fd612ad0565b9050600061200773328a7b4d538a2b3942653a9983fda3c12c571141612ad0565b90507304068da6c83afcfa0e13ba15a6696662335d5b7573ffffffffffffffffffffffffffffffffffffffff1663095ea7b373328a7b4d538a2b3942653a9983fda3c12c571141866040518363ffffffff1660e01b815260040161206c929190614b01565b6020604051808303816000875af115801561208b573d6000803e3d6000fd5b505050506040513d601f19601f820116820180604052508101906120af9190614b56565b5073328a7b4d538a2b3942653a9983fda3c12c57114173ffffffffffffffffffffffffffffffffffffffff1663a0712d68856040518263ffffffff1660e01b81526004016120fd9190614215565b6020604051808303816000875af115801561211c573d6000803e3d6000fd5b505050506040513d601f19601f8201168201806040525081019061214091906145c5565b507374b23882a30290451a17c44f4f05243b6b58c76d73ffffffffffffffffffffffffffffffffffffffff1663095ea7b373cc3e89fbc10e155f1164f8c9cf0703acde53f6fd856040518363ffffffff1660e01b81526004016121a4929190614b01565b6020604051808303816000875af11580156121c3573d6000803e3d6000fd5b505050506040513d601f19601f820116820180604052508101906121e79190614b56565b5073cc3e89fbc10e155f1164f8c9cf0703acde53f6fd73ffffffffffffffffffffffffffffffffffffffff1663a0712d68846040518263ffffffff1660e01b81526004016122359190614215565b6020604051808303816000875af1158015612254573d6000803e3d6000fd5b505050506040513d601f19601f8201168201806040525081019061227891906145c5565b50600061229873cc3e89fbc10e155f1164f8c9cf0703acde53f6fd612ad0565b905060006122b973328a7b4d538a2b3942653a9983fda3c12c571141612ad0565b9050600083826122c99190614bac565b9050600085846122d99190614bac565b9050600760009054906101000a900473ffffffffffffffffffffffffffffffffffffffff1673ffffffffffffffffffffffffffffffffffffffff16634478efa28a84846040518463ffffffff1660e01b815260040161233a93929190614eb8565b600060405180830381600087803b15801561235457600080fd5b505af1158015612368573d6000803e3d6000fd5b505050506000600267ffffffffffffffff81111561238957612388614be0565b5b6040519080825280602002602001820160405280156123b75781602001602082028036833780820191505090505b50905073328a7b4d538a2b3942653a9983fda3c12c571141816000815181106123e3576123e2614c0f565b5b602002602001019073ffffffffffffffffffffffffffffffffffffffff16908173ffffffffffffffffffffffffffffffffffffffff168152505073cc3e89fbc10e155f1164f8c9cf0703acde53f6fd8160018151811061244657612445614c0f565b5b602002602001019073ffffffffffffffffffffffffffffffffffffffff16908173ffffffffffffffffffffffffffffffffffffffff16815250507f000000000000000000000000000000000000000000000000000000000000000073ffffffffffffffffffffffffffffffffffffffff1663c2998238826040518263ffffffff1660e01b81526004016124d99190614eef565b6000604051808303816000875af11580156124f8573d6000803e3d6000fd5b505050506040513d6000823e3d601f19601f820116820180604052508101906125219190614e6f565b50600061252c610924565b90506000612538612b53565b5091505073cc3e89fbc10e155f1164f8c9cf0703acde53f6fd73ffffffffffffffffffffffffffffffffffffffff1663c5ebeaec826040518263ffffffff1660e01b81526004016125899190614215565b6020604051808303816000875af11580156125a8573d6000803e3d6000fd5b505050506040513d601f19601f820116820180604052508101906125cc91906145c5565b5060006125d7610924565b905082816125e59190614bac565b600860008f73ffffffffffffffffffffffffffffffffffffffff1673ffffffffffffffffffffffffffffffffffffffff16815260200190815260200160002060008282546126339190614621565b92505081905550612642612d5a565b50505050505050505050505050565b505050565b505050565b600061271060648361266d9190614891565b612677919061491a565b9050919050565b600061269d7321be370d5312f44cb42ce377bc9b8a0cef1a4c83611f44565b905060006126be736c021ae822bea943b2e66552bde1d2696a53fbb7611f44565b9050732a651563c9d3af67ae0388a5c8f89b867038089e73ffffffffffffffffffffffffffffffffffffffff1663095ea7b373f491e7b69e4244ad4002bc14e878a34207e38c29866040518363ffffffff1660e01b8152600401612723929190614b01565b6020604051808303816000875af1158015612742573d6000803e3d6000fd5b505050506040513d601f19601f820116820180604052508101906127669190614b56565b507f000000000000000000000000000000000000000000000000000000000000000073ffffffffffffffffffffffffffffffffffffffff1663baa2abde7321be370d5312f44cb42ce377bc9b8a0cef1a4c83736c021ae822bea943b2e66552bde1d2696a53fbb78760018030601e426127df9190614621565b6040518863ffffffff1660e01b81526004016128019796959493929190614f4c565b60408051808303816000875af115801561281f573d6000803e3d6000fd5b505050506040513d601f19601f820116820180604052508101906128439190614fbb565b505061284f3085612ee9565b600061286e7321be370d5312f44cb42ce377bc9b8a0cef1a4c83611f44565b9050600061288f736c021ae822bea943b2e66552bde1d2696a53fbb7611f44565b90506000848361289f9190614bac565b9050600084836128af9190614bac565b90507321be370d5312f44cb42ce377bc9b8a0cef1a4c8373ffffffffffffffffffffffffffffffffffffffff1663095ea7b373f491e7b69e4244ad4002bc14e878a34207e38c29846040518363ffffffff1660e01b8152600401612914929190614b01565b6020604051808303816000875af1158015612933573d6000803e3d6000fd5b505050506040513d601f19601f820116820180604052508101906129579190614b56565b50736c021ae822bea943b2e66552bde1d2696a53fbb773ffffffffffffffffffffffffffffffffffffffff1663095ea7b373f491e7b69e4244ad4002bc14e878a34207e38c29836040518363ffffffff1660e01b81526004016129bb929190614b01565b6020604051808303816000875af11580156129da573d6000803e3d6000fd5b505050506040513d601f19601f820116820180604052508101906129fe9190614b56565b506000612a1e7374b23882a30290451a17c44f4f05243b6b58c76d611f44565b9050612a537321be370d5312f44cb42ce377bc9b8a0cef1a4c837374b23882a30290451a17c44f4f05243b6b58c76d85611b2f565b612a86736c021ae822bea943b2e66552bde1d2696a53fbb77374b23882a30290451a17c44f4f05243b6b58c76d84611b2f565b6000612aa57374b23882a30290451a17c44f4f05243b6b58c76d611f44565b905060008282612ab59190614bac565b9050612ac28c8b836130c0565b505050505050505050505050565b60008173ffffffffffffffffffffffffffffffffffffffff166370a08231306040518263ffffffff1660e01b8152600401612b0b9190614017565b602060405180830381865afa158015612b28573d6000803e3d6000fd5b505050506040513d601f19601f82011682018060405250810190612b4c91906145c5565b9050919050565b60008060007f000000000000000000000000000000000000000000000000000000000000000073ffffffffffffffffffffffffffffffffffffffff16635ec88c79306040518263ffffffff1660e01b8152600401612bb19190614017565b606060405180830381865afa158015612bce573d6000803e3d6000fd5b505050506040513d601f19601f82011682018060405250810190612bf29190614ffb565b909150508093505060007f000000000000000000000000000000000000000000000000000000000000000073ffffffffffffffffffffffffffffffffffffffff166365555bcc6040518163ffffffff1660e01b8152600401612c53906150e6565b606060405180830381865afa158015612c70573d6000803e3d6000fd5b505050506040513d601f19601f82011682018060405250810190612c949190615182565b905080600001519150600082670de0b6b3a764000086612cb49190614891565b612cbe919061491a565b90506064605e82612ccf9190614891565b612cd9919061491a565b93506000612ce5610924565b85612cf09190614621565b90506000612cfc610d66565b509050600081831015612d2a578282612d159190614bac565b90508087612d239190614621565b9650612d50565b81831115612d4f578183612d3e9190614bac565b90508087612d4c9190614bac565b96505b5b5050505050909192565b600060646032612d7d7374b23882a30290451a17c44f4f05243b6b58c76d611f44565b612d879190614891565b612d91919061491a565b90507374b23882a30290451a17c44f4f05243b6b58c76d73ffffffffffffffffffffffffffffffffffffffff1663095ea7b373f491e7b69e4244ad4002bc14e878a34207e38c29612df57374b23882a30290451a17c44f4f05243b6b58c76d611f44565b6040518363ffffffff1660e01b8152600401612e12929190614b01565b6020604051808303816000875af1158015612e31573d6000803e3d6000fd5b505050506040513d601f19601f82011682018060405250810190612e559190614b56565b50612e897374b23882a30290451a17c44f4f05243b6b58c76d7321be370d5312f44cb42ce377bc9b8a0cef1a4c8383611b2f565b6000612ea87374b23882a30290451a17c44f4f05243b6b58c76d611f44565b9050612edd7374b23882a30290451a17c44f4f05243b6b58c76d736c021ae822bea943b2e66552bde1d2696a53fbb783611b2f565b612ee5613692565b5050565b600073ffffffffffffffffffffffffffffffffffffffff168273ffffffffffffffffffffffffffffffffffffffff161415612f59576040517f08c379a0000000000000000000000000000000000000000000000000000000008152600401612f5090615221565b60405180910390fd5b612f6582600083612651565b60008060008473ffffffffffffffffffffffffffffffffffffffff1673ffffffffffffffffffffffffffffffffffffffff16815260200190815260200160002054905081811015612feb576040517f08c379a0000000000000000000000000000000000000000000000000000000008152600401612fe2906152b3565b60405180910390fd5b8181036000808573ffffffffffffffffffffffffffffffffffffffff1673ffffffffffffffffffffffffffffffffffffffff1681526020019081526020016000208190555081600260008282546130429190614bac565b92505081905550600073ffffffffffffffffffffffffffffffffffffffff168373ffffffffffffffffffffffffffffffffffffffff167fddf252ad1be2c89b69c2b068fc378daa952ba7f163c4a11628f55a4df523b3ef846040516130a79190614215565b60405180910390a36130bb83600084612656565b505050565b6000806130cc84613970565b91509150600080600080600860008a73ffffffffffffffffffffffffffffffffffffffff1673ffffffffffffffffffffffffffffffffffffffff1681526020019081526020016000205487111561323c57600860008a73ffffffffffffffffffffffffffffffffffffffff1673ffffffffffffffffffffffffffffffffffffffff16815260200190815260200160002054876131689190614bac565b9150600860008a73ffffffffffffffffffffffffffffffffffffffff1673ffffffffffffffffffffffffffffffffffffffff1681526020019081526020016000205490506000600860008b73ffffffffffffffffffffffffffffffffffffffff1673ffffffffffffffffffffffffffffffffffffffff168152602001908152602001600020819055506131fa8661265b565b866132059190614bac565b93506132108561265b565b8561321b9190614bac565b92506132376132298761265b565b6132328761265b565b613a90565b613310565b6000915086905086600860008b73ffffffffffffffffffffffffffffffffffffffff1673ffffffffffffffffffffffffffffffffffffffff16815260200190815260200160002060008282546132929190614bac565b9250508190555060026132a48761265b565b6132ae9190614891565b866132b99190614bac565b935060026132c68661265b565b6132d09190614891565b856132db9190614bac565b925061330f60026132eb8861265b565b6132f59190614891565b60026133008861265b565b61330a9190614891565b613a90565b5b613318610924565b81111561332a57613327610924565b90505b7374b23882a30290451a17c44f4f05243b6b58c76d73ffffffffffffffffffffffffffffffffffffffff1663095ea7b373cc3e89fbc10e155f1164f8c9cf0703acde53f6fd836040518363ffffffff1660e01b815260040161338d929190614b01565b6020604051808303816000875af11580156133ac573d6000803e3d6000fd5b505050506040513d601f19601f820116820180604052508101906133d09190614b56565b5073cc3e89fbc10e155f1164f8c9cf0703acde53f6fd73ffffffffffffffffffffffffffffffffffffffff16630e752702826040518263ffffffff1660e01b815260040161341e9190614215565b6020604051808303816000875af115801561343d573d6000803e3d6000fd5b505050506040513d601f19601f8201168201806040525081019061346191906145c5565b5060006134817374b23882a30290451a17c44f4f05243b6b58c76d611f44565b905060006134a27304068da6c83afcfa0e13ba15a6696662335d5b75611f44565b905073cc3e89fbc10e155f1164f8c9cf0703acde53f6fd73ffffffffffffffffffffffffffffffffffffffff1663db006a75876040518263ffffffff1660e01b81526004016134f19190614215565b6020604051808303816000875af1158015613510573d6000803e3d6000fd5b505050506040513d601f19601f8201168201806040525081019061353491906145c5565b5073328a7b4d538a2b3942653a9983fda3c12c57114173ffffffffffffffffffffffffffffffffffffffff1663db006a75866040518263ffffffff1660e01b81526004016135829190614215565b6020604051808303816000875af11580156135a1573d6000803e3d6000fd5b505050506040513d601f19601f820116820180604052508101906135c591906145c5565b506135e37374b23882a30290451a17c44f4f05243b6b58c76d611f44565b84111561360a576136077374b23882a30290451a17c44f4f05243b6b58c76d611f44565b93505b60006136297374b23882a30290451a17c44f4f05243b6b58c76d611f44565b9050600061364a7304068da6c83afcfa0e13ba15a6696662335d5b75611f44565b9050600086858461365b9190614bac565b6136659190614621565b9050600084836136759190614bac565b90506136818282613bfe565b505050505050505050505050505050565b60006136b17321be370d5312f44cb42ce377bc9b8a0cef1a4c83611f44565b905060006136d2736c021ae822bea943b2e66552bde1d2696a53fbb7611f44565b9050736c021ae822bea943b2e66552bde1d2696a53fbb773ffffffffffffffffffffffffffffffffffffffff1663095ea7b373f491e7b69e4244ad4002bc14e878a34207e38c29836040518363ffffffff1660e01b8152600401613737929190614b01565b6020604051808303816000875af1158015613756573d6000803e3d6000fd5b505050506040513d601f19601f8201168201806040525081019061377a9190614b56565b507321be370d5312f44cb42ce377bc9b8a0cef1a4c8373ffffffffffffffffffffffffffffffffffffffff1663095ea7b373f491e7b69e4244ad4002bc14e878a34207e38c29846040518363ffffffff1660e01b81526004016137de929190614b01565b6020604051808303816000875af11580156137fd573d6000803e3d6000fd5b505050506040513d601f19601f820116820180604052508101906138219190614b56565b506000613841732a651563c9d3af67ae0388a5c8f89b867038089e611f44565b90507f000000000000000000000000000000000000000000000000000000000000000073ffffffffffffffffffffffffffffffffffffffff1663e8e33700736c021ae822bea943b2e66552bde1d2696a53fbb77321be370d5312f44cb42ce377bc9b8a0cef1a4c83858760018030601e426138bc9190614621565b6040518963ffffffff1660e01b81526004016138df9897969594939291906152d3565b6060604051808303816000875af11580156138fe573d6000803e3d6000fd5b505050506040513d601f19601f820116820180604052508101906139229190614ffb565b5050506000613944732a651563c9d3af67ae0388a5c8f89b867038089e611f44565b9050600082826139549190614bac565b90506139603082613d4a565b61396981613eaa565b5050505050565b600080600061399273cc3e89fbc10e155f1164f8c9cf0703acde53f6fd612ad0565b905060006139b373328a7b4d538a2b3942653a9983fda3c12c571141612ad0565b90506000600760009054906101000a900473ffffffffffffffffffffffffffffffffffffffff1673ffffffffffffffffffffffffffffffffffffffff166318160ddd6040518163ffffffff1660e01b8152600401602060405180830381865afa158015613a24573d6000803e3d6000fd5b505050506040513d601f19601f82011682018060405250810190613a4891906145c5565b90506000818785613a599190614891565b613a63919061491a565b90506000828885613a749190614891565b613a7e919061491a565b90508181965096505050505050915091565b73cc3e89fbc10e155f1164f8c9cf0703acde53f6fd73ffffffffffffffffffffffffffffffffffffffff1663a9059cbb600560009054906101000a900473ffffffffffffffffffffffffffffffffffffffff16846040518363ffffffff1660e01b8152600401613b01929190614b01565b6020604051808303816000875af1158015613b20573d6000803e3d6000fd5b505050506040513d601f19601f82011682018060405250810190613b449190614b56565b5073328a7b4d538a2b3942653a9983fda3c12c57114173ffffffffffffffffffffffffffffffffffffffff1663a9059cbb600560009054906101000a900473ffffffffffffffffffffffffffffffffffffffff16836040518363ffffffff1660e01b8152600401613bb6929190614b01565b6020604051808303816000875af1158015613bd5573d6000803e3d6000fd5b505050506040513d601f19601f82011682018060405250810190613bf99190614b56565b505050565b6000613c1d7304068da6c83afcfa0e13ba15a6696662335d5b75611f44565b9050613c527374b23882a30290451a17c44f4f05243b6b58c76d7304068da6c83afcfa0e13ba15a6696662335d5b7585611b2f565b6000613c717304068da6c83afcfa0e13ba15a6696662335d5b75611f44565b90506000838383613c829190614bac565b613c8c9190614621565b90507304068da6c83afcfa0e13ba15a6696662335d5b7573ffffffffffffffffffffffffffffffffffffffff1663a9059cbb600760009054906101000a900473ffffffffffffffffffffffffffffffffffffffff16836040518363ffffffff1660e01b8152600401613cff929190614b01565b6020604051808303816000875af1158015613d1e573d6000803e3d6000fd5b505050506040513d601f19601f82011682018060405250810190613d429190614b56565b505050505050565b600073ffffffffffffffffffffffffffffffffffffffff168273ffffffffffffffffffffffffffffffffffffffff161415613dba576040517f08c379a0000000000000000000000000000000000000000000000000000000008152600401613db19061539d565b60405180910390fd5b613dc660008383612651565b8060026000828254613dd89190614621565b92505081905550806000808473ffffffffffffffffffffffffffffffffffffffff1673ffffffffffffffffffffffffffffffffffffffff1681526020019081526020016000206000828254613e2d9190614621565b925050819055508173ffffffffffffffffffffffffffffffffffffffff16600073ffffffffffffffffffffffffffffffffffffffff167fddf252ad1be2c89b69c2b068fc378daa952ba7f163c4a11628f55a4df523b3ef83604051613e929190614215565b60405180910390a3613ea660008383612656565b5050565b732a651563c9d3af67ae0388a5c8f89b867038089e73ffffffffffffffffffffffffffffffffffffffff1663095ea7b373cc0a87f7e7c693042a9cc703661f5060c80acb43836040518363ffffffff1660e01b8152600401613f0d929190614b01565b6020604051808303816000875af1158015613f2c573d6000803e3d6000fd5b505050506040513d601f19601f82011682018060405250810190613f509190614b56565b5073cc0a87f7e7c693042a9cc703661f5060c80acb4373ffffffffffffffffffffffffffffffffffffffff1663e2bbb1586000836040518363ffffffff1660e01b8152600401613fa1929190614b83565b600060405180830381600087803b158015613fbb57600080fd5b505af1158015613fcf573d6000803e3d6000fd5b5050505050565b600073ffffffffffffffffffffffffffffffffffffffff82169050919050565b600061400182613fd6565b9050919050565b61401181613ff6565b82525050565b600060208201905061402c6000830184614008565b92915050565b600081519050919050565b600082825260208201905092915050565b60005b8381101561406c578082015181840152602081019050614051565b8381111561407b576000848401525b50505050565b6000601f19601f8301169050919050565b600061409d82614032565b6140a7818561403d565b93506140b781856020860161404e565b6140c081614081565b840191505092915050565b600060208201905081810360008301526140e58184614092565b905092915050565b6000604051905090565b600080fd5b600080fd5b61410a81613ff6565b811461411557600080fd5b50565b60008135905061412781614101565b92915050565b6000819050919050565b6141408161412d565b811461414b57600080fd5b50565b60008135905061415d81614137565b92915050565b6000806040838503121561417a576141796140f7565b5b600061418885828601614118565b92505060206141998582860161414e565b9150509250929050565b60008115159050919050565b6141b8816141a3565b82525050565b60006020820190506141d360008301846141af565b92915050565b6000602082840312156141ef576141ee6140f7565b5b60006141fd84828501614118565b91505092915050565b61420f8161412d565b82525050565b600060208201905061422a6000830184614206565b92915050565b600080600060608486031215614249576142486140f7565b5b600061425786828701614118565b935050602061426886828701614118565b92505060406142798682870161414e565b9150509250925092565b6000819050919050565b60006142a86142a361429e84613fd6565b614283565b613fd6565b9050919050565b60006142ba8261428d565b9050919050565b60006142cc826142af565b9050919050565b6142dc816142c1565b82525050565b60006020820190506142f760008301846142d3565b92915050565b600060ff82169050919050565b614313816142fd565b82525050565b600060208201905061432e600083018461430a565b92915050565b600061433f826142af565b9050919050565b61434f81614334565b82525050565b600060208201905061436a6000830184614346565b92915050565b600061437b826142af565b9050919050565b61438b81614370565b82525050565b60006020820190506143a66000830184614382565b92915050565b60006143b7826142af565b9050919050565b6143c7816143ac565b82525050565b60006020820190506143e260008301846143be565b92915050565b60006040820190506143fd6000830185614206565b61440a6020830184614206565b9392505050565b60008060408385031215614428576144276140f7565b5b600061443685828601614118565b925050602061444785828601614118565b9150509250929050565b7f4e487b7100000000000000000000000000000000000000000000000000000000600052602260045260246000fd5b6000600282049050600182168061449857607f821691505b602082108114156144ac576144ab614451565b5b50919050565b7f217661756c740000000000000000000000000000000000000000000000000000600082015250565b60006144e860068361403d565b91506144f3826144b2565b602082019050919050565b60006020820190508181036000830152614517816144db565b9050919050565b7f45524332303a207472616e7366657220616d6f756e742065786365656473206160008201527f6c6c6f77616e6365000000000000000000000000000000000000000000000000602082015250565b600061457a60288361403d565b91506145858261451e565b604082019050919050565b600060208201905081810360008301526145a98161456d565b9050919050565b6000815190506145bf81614137565b92915050565b6000602082840312156145db576145da6140f7565b5b60006145e9848285016145b0565b91505092915050565b7f4e487b7100000000000000000000000000000000000000000000000000000000600052601160045260246000fd5b600061462c8261412d565b91506146378361412d565b9250827fffffffffffffffffffffffffffffffffffffffffffffffffffffffffffffffff0382111561466c5761466b6145f2565b5b828201905092915050565b6000819050919050565b600061469c61469761469284614677565b614283565b61412d565b9050919050565b6146ac81614681565b82525050565b60006040820190506146c760008301856146a3565b6146d460208301846146a3565b9392505050565b7f45524332303a2064656372656173656420616c6c6f77616e63652062656c6f7760008201527f207a65726f000000000000000000000000000000000000000000000000000000602082015250565b600061473760258361403d565b9150614742826146db565b604082019050919050565b600060208201905081810360008301526147668161472a565b9050919050565b7f45524332303a20617070726f76652066726f6d20746865207a65726f2061646460008201527f7265737300000000000000000000000000000000000000000000000000000000602082015250565b60006147c960248361403d565b91506147d48261476d565b604082019050919050565b600060208201905081810360008301526147f8816147bc565b9050919050565b7f45524332303a20617070726f766520746f20746865207a65726f20616464726560008201527f7373000000000000000000000000000000000000000000000000000000000000602082015250565b600061485b60228361403d565b9150614866826147ff565b604082019050919050565b6000602082019050818103600083015261488a8161484e565b9050919050565b600061489c8261412d565b91506148a78361412d565b9250817fffffffffffffffffffffffffffffffffffffffffffffffffffffffffffffffff04831182151516156148e0576148df6145f2565b5b828202905092915050565b7f4e487b7100000000000000000000000000000000000000000000000000000000600052601260045260246000fd5b60006149258261412d565b91506149308361412d565b9250826149405761493f6148eb565b5b828204905092915050565b7f45524332303a207472616e736665722066726f6d20746865207a65726f20616460008201527f6472657373000000000000000000000000000000000000000000000000000000602082015250565b60006149a760258361403d565b91506149b28261494b565b604082019050919050565b600060208201905081810360008301526149d68161499a565b9050919050565b7f45524332303a207472616e7366657220746f20746865207a65726f206164647260008201527f6573730000000000000000000000000000000000000000000000000000000000602082015250565b6000614a3960238361403d565b9150614a44826149dd565b604082019050919050565b60006020820190508181036000830152614a6881614a2c565b9050919050565b7f45524332303a207472616e7366657220616d6f756e742065786365656473206260008201527f616c616e63650000000000000000000000000000000000000000000000000000602082015250565b6000614acb60268361403d565b9150614ad682614a6f565b604082019050919050565b60006020820190508181036000830152614afa81614abe565b9050919050565b6000604082019050614b166000830185614008565b614b236020830184614206565b9392505050565b614b33816141a3565b8114614b3e57600080fd5b50565b600081519050614b5081614b2a565b92915050565b600060208284031215614b6c57614b6b6140f7565b5b6000614b7a84828501614b41565b91505092915050565b6000604082019050614b9860008301856146a3565b614ba56020830184614206565b9392505050565b6000614bb78261412d565b9150614bc28361412d565b925082821015614bd557614bd46145f2565b5b828203905092915050565b7f4e487b7100000000000000000000000000000000000000000000000000000000600052604160045260246000fd5b7f4e487b7100000000000000000000000000000000000000000000000000000000600052603260045260246000fd5b600081519050919050565b600082825260208201905092915050565b6000819050602082019050919050565b614c7381613ff6565b82525050565b6000614c858383614c6a565b60208301905092915050565b6000602082019050919050565b6000614ca982614c3e565b614cb38185614c49565b9350614cbe83614c5a565b8060005b83811015614cef578151614cd68882614c79565b9750614ce183614c91565b925050600181019050614cc2565b5085935050505092915050565b600060a082019050614d116000830188614206565b614d1e60208301876146a3565b8181036040830152614d308186614c9e565b9050614d3f6060830185614008565b614d4c6080830184614206565b9695505050505050565b600080fd5b614d6482614081565b810181811067ffffffffffffffff82111715614d8357614d82614be0565b5b80604052505050565b6000614d966140ed565b9050614da28282614d5b565b919050565b600067ffffffffffffffff821115614dc257614dc1614be0565b5b602082029050602081019050919050565b600080fd5b6000614deb614de684614da7565b614d8c565b90508083825260208201905060208402830185811115614e0e57614e0d614dd3565b5b835b81811015614e375780614e2388826145b0565b845260208401935050602081019050614e10565b5050509392505050565b600082601f830112614e5657614e55614d56565b5b8151614e66848260208601614dd8565b91505092915050565b600060208284031215614e8557614e846140f7565b5b600082015167ffffffffffffffff811115614ea357614ea26140fc565b5b614eaf84828501614e41565b91505092915050565b6000606082019050614ecd6000830186614008565b614eda6020830185614206565b614ee76040830184614206565b949350505050565b60006020820190508181036000830152614f098184614c9e565b905092915050565b6000819050919050565b6000614f36614f31614f2c84614f11565b614283565b61412d565b9050919050565b614f4681614f1b565b82525050565b600060e082019050614f61600083018a614008565b614f6e6020830189614008565b614f7b6040830188614206565b614f886060830187614f3d565b614f956080830186614f3d565b614fa260a0830185614008565b614faf60c0830184614206565b98975050505050505050565b60008060408385031215614fd257614fd16140f7565b5b6000614fe0858286016145b0565b9250506020614ff1858286016145b0565b9150509250929050565b600080600060608486031215615014576150136140f7565b5b6000615022868287016145b0565b9350506020615033868287016145b0565b9250506040615044868287016145b0565b9150509250925092565b7f4554480000000000000000000000000000000000000000000000000000000000600082015250565b600061508460038361403d565b915061508f8261504e565b602082019050919050565b7f5553444300000000000000000000000000000000000000000000000000000000600082015250565b60006150d060048361403d565b91506150db8261509a565b602082019050919050565b600060408201905081810360008301526150ff81615077565b90508181036020830152615112816150c3565b9050919050565b600080fd5b60006060828403121561513457615133615119565b5b61513e6060614d8c565b9050600061514e848285016145b0565b6000830152506020615162848285016145b0565b6020830152506040615176848285016145b0565b60408301525092915050565b600060608284031215615198576151976140f7565b5b60006151a68482850161511e565b91505092915050565b7f45524332303a206275726e2066726f6d20746865207a65726f2061646472657360008201527f7300000000000000000000000000000000000000000000000000000000000000602082015250565b600061520b60218361403d565b9150615216826151af565b604082019050919050565b6000602082019050818103600083015261523a816151fe565b9050919050565b7f45524332303a206275726e20616d6f756e7420657863656564732062616c616e60008201527f6365000000000000000000000000000000000000000000000000000000000000602082015250565b600061529d60228361403d565b91506152a882615241565b604082019050919050565b600060208201905081810360008301526152cc81615290565b9050919050565b6000610100820190506152e9600083018b614008565b6152f6602083018a614008565b6153036040830189614206565b6153106060830188614206565b61531d6080830187614f3d565b61532a60a0830186614f3d565b61533760c0830185614008565b61534460e0830184614206565b9998505050505050505050565b7f45524332303a206d696e7420746f20746865207a65726f206164647265737300600082015250565b6000615387601f8361403d565b915061539282615351565b602082019050919050565b600060208201905081810360008301526153b68161537a565b905091905056fea264697066735822122027743bc402ffc90529f7e7261c5a3cc0f58570d3b89ff013cc801f89f06a28e064736f6c634300080a0033",
  "immutableReferences": {
    "1950": [
      {
        "length": 32,
        "start": 3250
      },
      {
        "length": 32,
        "start": 10089
      },
      {
        "length": 32,
        "start": 14405
      }
    ],
    "1953": [
      {
        "length": 32,
        "start": 3094
      },
      {
        "length": 32,
        "start": 9346
      },
      {
        "length": 32,
        "start": 11098
      }
    ],
    "1956": [
      {
        "length": 32,
        "start": 2493
      },
      {
        "length": 32,
        "start": 11262
      }
    ]
  },
  "source": "pragma solidity ^0.8.10; \npragma abicoder v2;  \n\nimport \"../DjinnBottleUSDC.sol\"; \nimport \"../interfaces/CTokenInterfaces.sol\"; \nimport \"../interfaces/ComptrollerInterface.sol\";  \nimport \"../interfaces/IStdReference.sol\"; \nimport \"@uniswap/v2-periphery/contracts/interfaces/IUniswapV2Router02.sol\"; \nimport \"../interfaces/IMasterChef.sol\"; \nimport \"@openzeppelin/contracts/token/ERC20/IERC20.sol\"; \n\n\ncontract DeltaNeutralFtmTomb is ERC20 {\n\t\n\t//Contract Spec/if ifics \n\taddress public creator; \n\tuint private constant CREATOR_FEE = 100; //1% \n\taddress public treasuryWallet;  \n\tDjinnBottleUSDC public VAULT; \n\n\t//Balances For Withdraw\n\tmapping(address => uint) public tokenBorrowBalance; //18 decimals  \n\t\n\t//Cream Finance Contracts (also just the Iron Bank Contracts)\n\taddress public constant crUSDC = 0x328A7b4d538A2b3942653a9983fdA3C12c571141; \n\taddress public constant crETH = 0xcc3E89fBc10e155F1164f8c9Cf0703aCDe53f6Fd; \n\n\t//Public Tokens\n\taddress public constant USDC = 0x04068DA6C83AFCFA0e13ba15A6696662335D5B75; \n\taddress public constant WETH = 0x74b23882a30290451A17c44f4F05243b6b58C76d; \n\taddress public constant WFTM = 0x21be370D5312f44cB42ce377BC9b8a0cEF1A4C83; \n\taddress public constant TOMB = 0x6c021Ae822BEa943b2E66552bDe1D2696a53fbB7; \n\taddress public constant TSHARE = 0x4cdF39285D7Ca8eB3f090fDA0C069ba5F4145B37; \n\t\n\t//SpookySwap Router, LP, TSHAREPool \n\taddress public constant spookyAddress = 0xF491e7B69E4244ad4002BC14e878a34207E38c29;\t\t\n\taddress public constant spookyFtmTombLP = 0x2A651563C9d3Af67aE0388a5c8F89b867038089e; \n\taddress public constant tShareRewardPool = 0xcc0a87F7e7c693042a9Cc703661F5060c80ACb43; \n\n\n\t//Contract Interfaces  \n\tIUniswapV2Router02 public immutable spookyRouter; \n\tComptrollerInterface public immutable comptroller; \n\tIStdReference public immutable priceOracle;\n\t\n\n\n\tconstructor(DjinnBottleUSDC _djBottle, \t\n\t\t\t\tIUniswapV2Router02 _spookyRouter, \n\t\t\t\tComptrollerInterface _comptroller, \n\t\t\t\tIStdReference _priceOracle,\n\t\t\t\taddress wallet) ERC20(\"Djinn FTM Short Farm\", \"dFTMShort\") {\n\t\t\t\t\tcreator = msg.sender;\n\t\t\t\t\tVAULT = _djBottle; \n\t\t\t\t\tspookyRouter = _spookyRouter; \n\t\t\t\t\tcomptroller = _comptroller;  \n\t\t\t\t\tpriceOracle = _priceOracle; \t\n\t\t\t\t\ttreasuryWallet = wallet; \n\t\t\t\t}\n\n\t//designed for single user ie. user opens via vault contract \t\n\tfunction open(address user, uint amount) external {\n\t\trequire(msg.sender == address(VAULT), \"!vault\"); \n\t\tsplit(user, amount); \n\t}\n\n\t//automate the harvest \n\tfunction harvest() external {\n\t\trequire(msg.sender == address(VAULT), \"!vault\"); \n\t\tIMasterChef(tShareRewardPool).deposit(0, 0); //0 is poolId and we call a deposit of 0 to allocate the shares to this contract\n\t\tcompoundLPTokens(); \n\t}\n\t\n\t//automate the closing of the position\n\t//designed for single use ie. user closes via vault contract \t\n\t//so we need to vault contract to determine how many tokens belong to the user from this contract \n\tfunction close(address user, uint amountShares) external {\n\t\trequire(msg.sender == address(VAULT), \"!vault\"); \n\t\twithdrawLP(user, amountShares);\n\t}\n\n\t////////////////// BEGIN DEPOSIT LOGIC //////////////////  \n\n\tfunction split(address user, uint amount) internal {\n\t\tuint swapAmount = (amount * 70) / 100; \n\t\tswap(USDC, WETH, swapAmount); \n\t\tuint usdcAmount = getTokenBalance(USDC);\n\t\tuint wethAmount = getTokenBalance(WETH); \n\n\t\t//next step\n\t\tborrow(user, usdcAmount, wethAmount);\n\t}\n\t\n\t//we are borrowing the same amount of deposited ETH to achieve a vault that does not get liquidated\t\n\tfunction borrow(address user, uint amountUSDC, uint amountWETH) internal {\n\t\t//first check for any leftovers in the contract\n\t\tuint cTokenETHBefore = getCrTokenBalance(crETH);\n\t\tuint cTokenUSDCBefore = getCrTokenBalance(crUSDC);\n\n\t\t//supply USDC && WETH\n\t\tIERC20(USDC).approve(crUSDC, amountUSDC); \n\t\tCERC20(crUSDC).mint(amountUSDC);\n\n\t\tIERC20(WETH).approve(crETH, amountWETH); \n\t\tCERC20(crETH).mint(amountWETH); \n\t\t\n\t\tuint cTokenETHAfter = getCrTokenBalance(crETH);\n\t\tuint cTokenUSDCAfter = getCrTokenBalance(crUSDC); \n\n\t\tuint cTokenUSDCAmount = cTokenUSDCAfter - cTokenUSDCBefore; \n\t\tuint cTokenETHAmount = cTokenETHAfter - cTokenETHBefore; \n\t\t\n\t\t//store cTokens user amounts separate due to different interest rates \n\t\tVAULT.storeCrTokens(user, cTokenUSDCAmount, cTokenETHAmount); \n\t\n\t\t//we enter the markets to use usdc && wftm as collateral \t\n\t\taddress[] memory cTokenSupplied = new address[](2); \n\t\tcTokenSupplied[0] = crUSDC; //cToken address\n\t\tcTokenSupplied[1] = crETH; \n\t\tcomptroller.enterMarkets(cTokenSupplied); \n\t\t\n\t\tuint borrowBalanceBefore = borrowBalance(); \t\n\t\t//get max borrow && borrow  \n\t\t( ,uint borrowAmount, ) = getBorrowAmount();\n\t\tCERC20(crETH).borrow(borrowAmount);  \n\t\t\n\t\tuint borrowBalanceAfter = borrowBalance(); \n\t\ttokenBorrowBalance[user] += (borrowBalanceAfter - borrowBalanceBefore);   \n\n\t\t//next step \n\t\tswapForTokens(); \n\t}\n\n\tfunction swapForTokens() internal {\n\t\tuint half = (getTokenBalance(WETH) * 50) / 100; \n\t\tIERC20(WETH).approve(spookyAddress, getTokenBalance(WETH)); \n\t\t\n\t\t//execute the swap here \n\t\tswap(WETH, WFTM, half);  \n\n\t\tuint rest = getTokenBalance(WETH); \n\t\tswap(WETH, TOMB, rest);\n\t\t\n\t\t//next step \n\t\tgetLPTokens(); \n\t}\n\n\tfunction getLPTokens() internal {\n\t\t//we need to approve the router to spend our TOMB\n\t\tuint wftmAmount = getTokenBalance(WFTM); \n\t\tuint tombAmount = getTokenBalance(TOMB); \n\n\t\t//now we add liquidity \n\t\t//@params token, tokenAmount, minToken, minETH, to, deadline\n\t\tIERC20(TOMB).approve(spookyAddress, tombAmount); \n\t\tIERC20(WFTM).approve(spookyAddress, wftmAmount); \n\t\tuint lpTokenBalanceBefore = getTokenBalance(spookyFtmTombLP); \n\t\tspookyRouter.addLiquidity(TOMB, WFTM, tombAmount, wftmAmount, 1, 1, address(this), block.timestamp + 30); \n\t\tuint lpTokenBalanceAfter = getTokenBalance(spookyFtmTombLP); \n\t\tuint lpTokenToMint = lpTokenBalanceAfter - lpTokenBalanceBefore; \n\t\t_mint(address(this), lpTokenToMint); \n\n\t\tdepositLPGetTShare(lpTokenToMint); \n\t}\n\t\n\tfunction depositLPGetTShare(uint lpTokenAmount) internal {\n\t\t//deposit into tshare vault using _pid but idk how to get that currently \t\n\t\t//after this deposit the contract should be earning tshares as a reward \n\t\tIERC20(spookyFtmTombLP).approve(tShareRewardPool, lpTokenAmount); \n\t\tIMasterChef(tShareRewardPool).deposit(0, lpTokenAmount); //FTM-TOMB pool ID is 0 on Tomb.finance  \n\t}\n\n\t////////////////// DEPOSIT LOGIC ENDS  ////////////////// \n\n\t////////////////// BEGIN WITHDRAW LOGIC  ////////////////// \n\t\n\t//the shares are based on the dUSDC in the users wallet \n\tfunction withdrawLP(address user, uint amountShares) internal {\n\t\tuint strategyBalance = getTokenBalance(address(this)); //18 decimals \n\t\tuint totalShares = IERC20(address(VAULT)).totalSupply(); //8 decimals \n\n\t\tuint withdrawAmount = (strategyBalance / totalShares) * amountShares;\n\n\t\t//handle rounding error case on full vault withdrawl \n\t\tif (withdrawAmount > strategyBalance) {\n\t\t\twithdrawAmount = strategyBalance; \n\t\t}\n\n\t\t//we first withdraw the LP tokens from TOMB  \n\t\t///we have to check the balances before and after the withdrawl in case there are leftovers \n\t\tuint amountBefore = getTokenBalance(spookyFtmTombLP); \n\t\tIMasterChef(tShareRewardPool).withdraw(0, withdrawAmount);  \n\t\tuint amountAfter = getTokenBalance(spookyFtmTombLP); \n\t\tuint lpTokenAmount = amountAfter - amountBefore; \n\n\t\tremoveLiq(user, lpTokenAmount, amountShares); \n\t}\n\n\tfunction removeLiq(address user, uint lpTokenAmount, uint amountShares) internal {\t\t \n\t\t//we remove liquidity belonging to the user(amount) back for tomb + wftm \n\t\tuint wftmBefore = getTokenBalance(WFTM); \n\t\tuint tombBefore = getTokenBalance(TOMB); \n\n\t\tIERC20(spookyFtmTombLP).approve(spookyAddress, lpTokenAmount); \n\t\tspookyRouter.removeLiquidity(\n\t\t\tWFTM,\n\t\t\tTOMB, \n\t\t\tlpTokenAmount,\n\t\t   \t1,\n\t\t   \t1,\n\t\t   \taddress(this),\n\t\t   \tblock.timestamp + 30\n\t\t); \n\n\t\t_burn(address(this), lpTokenAmount); \n\n\t\tuint wftmAfter = getTokenBalance(WFTM); \n\t\tuint tombAfter = getTokenBalance(TOMB); \n\n\t\tuint wftmToSwap = wftmAfter - wftmBefore; \n\t\tuint tombToSwap = tombAfter - tombBefore; \n\t\tIERC20(WFTM).approve(spookyAddress, wftmToSwap); \n\t\tIERC20(TOMB).approve(spookyAddress, tombToSwap); \n\n\t\tuint ethBefore = getTokenBalance(WETH); \n\t\t//execute the swaps \n\t\tswap(WFTM, WETH, wftmToSwap); \n\t\tswap(TOMB, WETH, tombToSwap); \n\t\tuint ethAfter = getTokenBalance(WETH); \n\t\tuint ethAfterSwap = ethAfter - ethBefore; \n\n\t\t//next step\t\n\t\trepay(user, amountShares, ethAfterSwap); \n\t}\n\t\n\tfunction repay(address user, uint amountShares, uint ethAfterSwap) internal {\n\t\t//crToken shares \n\t\t(uint ethShares, uint usdcShares) = splitShares(amountShares);\t\n\t\tuint ethRedeem; \n\t\tuint usdcRedeem; \n\t\t\n\t\t//main logic \n\t\tuint profits; \n\t\tuint amountToRepay;\n\t\tif (ethAfterSwap > tokenBorrowBalance[user]) {\n\t\t\tprofits = ethAfterSwap - tokenBorrowBalance[user]; \n\t\t\tamountToRepay = tokenBorrowBalance[user]; \n\t\t\ttokenBorrowBalance[user] = 0; \n\n\t\t\t//min fee\n\t\t\tethRedeem = ethShares - (chargeFees(ethShares)); \n\t\t\tusdcRedeem = usdcShares - (chargeFees(usdcShares));\n\t\t\tpayCreator(chargeFees(ethShares), chargeFees(usdcShares)); \n\n\t\t} else {\n\t\t\tprofits = 0; \n\t\t\tamountToRepay = ethAfterSwap; \n\t\t\ttokenBorrowBalance[user] -= ethAfterSwap; \n\t\t\t\n\t\t\t//max fee on insta withdraw to prevent rounding error profits //3% fee instead of 1%\n\t\t\tethRedeem = ethShares - (chargeFees(ethShares) * 2); \n\t\t\tusdcRedeem = usdcShares - (chargeFees(usdcShares) * 2);\n\t\t\tpayCreator(chargeFees(ethShares) * 2, chargeFees(usdcShares) * 2); \n\t\t}\t\n\t\t\n\n\t\t//account for rounding errors if last person in vault wants to withdraw \n\t\tif (amountToRepay > borrowBalance()) {\n\t\t\tamountToRepay = borrowBalance(); \n\t\t}\n\n\t\t//now we can repay our users borrow\n\t\tIERC20(WETH).approve(crETH, amountToRepay);\n\t\tCERC20(crETH).repayBorrow(amountToRepay); \n\n\t\tuint ethBefore = getTokenBalance(WETH); \t\n\t\tuint usdcBefore = getTokenBalance(USDC); \t\n\t\t//redeem initial deposit amount + interest \n\t\tCERC20(crETH).redeem(ethRedeem);\n\t\tCERC20(crUSDC).redeem(usdcRedeem); \n\n\t\t//one final check for dust \n\t\tif (profits > getTokenBalance(WETH)) {\n\t\t\tprofits = getTokenBalance(WETH); \n\t\t}\n\t\t\n\t\t//recheck\n\t\tuint ethAfter = getTokenBalance(WETH); \n\t\tuint usdcAfter = getTokenBalance(USDC); \n\t\tuint ethAmount = (ethAfter - ethBefore) + profits; \n\t\tuint usdcAmount = usdcAfter - usdcBefore;  \n\n\t\t//final step \n\t\tswapProfits(ethAmount, usdcAmount); \n\t}\n\n\t//swap eth for usdc and send back to vault\n\tfunction swapProfits(uint ethAmount, uint usdcAmount) internal {\t\n\t\tuint usdcBefore = getTokenBalance(USDC); \n\t\tswap(WETH, USDC, ethAmount); \n\t\tuint usdcAfter = getTokenBalance(USDC); \n\t\tuint totalToSend = (usdcAfter - usdcBefore) + usdcAmount; \n\n\t\tIERC20(USDC).transfer(address(VAULT), totalToSend); \n\t}\n\n\t////////////////// END WITHDRAW LOGIC ////////////////// \n\n\t////////////////// BEGIN HARVEST LOGIC ////////////////// \n\t\n\t//sells tshares for tomb and wftm tokens \n\tfunction compoundLPTokens() internal {\n\t\tuint tsharesInitial = getTokenBalance(TSHARE); \n\t\tuint harvestFee = chargeFees(tsharesInitial); \n\t\tIERC20(TSHARE).transfer(treasuryWallet, harvestFee); //goes to vault and will be swapped for gas  \n\n\t\tuint tshares = getTokenBalance(TSHARE);  //update amount \n\t\tuint half = (tshares * 50) / 100; \n\t\tIERC20(TSHARE).approve(spookyAddress, tshares); \n\t\t//true for 3 route swap \n\t\tswap(TSHARE, TOMB, half); \n\t\n\t\t//swap rest to WFTM \n\t\t//call again to avoid rounding errors \n\t\tuint rest = getTokenBalance(TSHARE); \n\t\tswap(TSHARE, WFTM, rest); \t\n\t}\n\n\t////////////////// END HARVEST LOGIC ////////////////// \n\n\t////////////////// BEGIN HELPER LOGIC ////////////////// \n\n\t function swap(address tokenIn, address tokenOut, uint amount) internal {\t\n\t\tIERC20(tokenIn).approve(spookyAddress, amount); \n\t\taddress[] memory path; \n\n\t\tif (tokenIn == WFTM || tokenOut == WFTM) {\n\t\t\tpath = new address[](2); \n\t\t\tpath[0] = tokenIn; \n\t\t\tpath[1] = tokenOut; \n\t\t} else {\n\t\t\tpath = new address[](3); \n\t\t\tpath[0] = tokenIn; \n\t\t\tpath[1] = WFTM; \n\t\t\tpath[2] = tokenOut; \t\n\t\t}\n\n\n\t  \tIUniswapV2Router02(spookyAddress).swapExactTokensForTokens(\n   \t\t\tamount, \n\t  \t\t0, //min amount out \n\t  \t\tpath, \n\t  \t\taddress(this),\n\t  \t\tblock.timestamp + 30\n\t \t); \n\t}\n\n\t//returuns USD value of deposited assets, how much can be borrowed, and the price of the borrowed asset \n\tfunction getBorrowAmount() internal returns(uint liquidity, uint borrowAmount, uint price) {\n\t\t(, liquidity,) = comptroller.getAccountLiquidity(address(this)); \n\t\tIStdReference.ReferenceData memory data = priceOracle.getReferenceData(\"ETH\", \"USDC\"); \n\t\tprice = data.rate; \n\n\t\tuint maxTokenBorrow = (liquidity * 1e18) / price; //ETH has 18 decimals   \t\n\t\tborrowAmount = (maxTokenBorrow * 94) / 100; //this is token amount  \n\t\t\t\n\t\t//rebalance check to keep vault delta neutral \n\t\tuint borrowCheck = borrowAmount + borrowBalance(); \n\t\t(uint underlying, ) = getUnderlying(); //might have to add current deposit to this? \n\t\tuint diff; \n\t\tif (borrowCheck < underlying) {\n\t\t\tdiff = underlying - borrowCheck; \n\t\t\tborrowAmount += diff; \t\n\t\t} else if (borrowCheck > underlying) {\n\t\t\tdiff = borrowCheck - underlying; \n\t\t\tborrowAmount -= diff; \n\t\t}\n\t\treturn (liquidity, borrowAmount, price); \n\t}\n\t\n\t//returns the share per underlying crToken price  \n\tfunction splitShares (uint amountShares) internal view returns(uint, uint) {\n\t\tuint cTokenEth = getCrTokenBalance(crETH); \n\t\tuint cTokenUsdc = getCrTokenBalance(crUSDC);\n\t\tuint pool = VAULT.totalSupply(); \n\n\t\tuint ethShares = (cTokenEth * amountShares) / pool; \n\t\tuint usdcShares = (cTokenUsdc * amountShares) / pool; \n\n\t\treturn (ethShares, usdcShares); \n\t}\n\n\tfunction payCreator(uint amountEth, uint amountUSDC) internal {\n\t\tCERC20(crETH).transfer(creator, amountEth); \n\t\tCERC20(crUSDC).transfer(creator, amountUSDC); \n\t}\n\t\t\n\tfunction chargeFees(uint amount) internal view returns(uint feeAmount) {\n\t\treturn feeAmount = (amount * CREATOR_FEE) / 1e4; //0.1 or 1% \n\t}\n\n\tfunction getTokenBalance(address token) internal view returns(uint amount) {\n\t\treturn amount = IERC20(token).balanceOf(address(this)); \n\t}\n\n\tfunction getCrTokenBalance(address crToken) internal view returns(uint amount) {\n\t\treturn amount = CERC20(crToken).balanceOf(address(this)); \n\t}\n\n\tfunction setTreasury(address wallet) external {\n\t\trequire(msg.sender == address(VAULT), \"!vault\"); \n\t\ttreasuryWallet = wallet; \t\t\n\t}\n\n\tfunction getUnderlying() public returns(uint, uint) {\n\t\tuint underlyingETH = CERC20(crETH).balanceOfUnderlying(address(this)); \n\t\tuint underlyingUSDC = CERC20(crUSDC).balanceOfUnderlying(address(this));\n\t\treturn (underlyingETH, underlyingUSDC); \n\t}\n\n\tfunction borrowBalance() public returns(uint) {\n\t\treturn CERC20(crETH).borrowBalanceCurrent(address(this)); \n\t}\n} \n",
  "sourcePath": "/home/kevin/Code/solidity_projects/djinn/contracts/strategies/CreamFtmTombStrategy.sol",
  "compiler": {
    "name": "solc",
    "version": "0.8.10+commit.fc410830.Emscripten.clang"
  },
  "schemaVersion": "3.4.3",
  "updatedAt": "2022-03-07T16:40:15.209Z",
  "networkType": "ethereum",
  "devdoc": {
    "kind": "dev",
    "methods": {
      "allowance(address,address)": {
        "details": "See {IERC20-allowance}."
      },
      "approve(address,uint256)": {
        "details": "See {IERC20-approve}. Requirements: - `spender` cannot be the zero address."
      },
      "balanceOf(address)": {
        "details": "See {IERC20-balanceOf}."
      },
      "decimals()": {
        "details": "Returns the number of decimals used to get its user representation. For example, if `decimals` equals `2`, a balance of `505` tokens should be displayed to a user as `5.05` (`505 / 10 ** 2`). Tokens usually opt for a value of 18, imitating the relationship between Ether and Wei. This is the value {ERC20} uses, unless this function is overridden; NOTE: This information is only used for _display_ purposes: it in no way affects any of the arithmetic of the contract, including {IERC20-balanceOf} and {IERC20-transfer}."
      },
      "decreaseAllowance(address,uint256)": {
        "details": "Atomically decreases the allowance granted to `spender` by the caller. This is an alternative to {approve} that can be used as a mitigation for problems described in {IERC20-approve}. Emits an {Approval} event indicating the updated allowance. Requirements: - `spender` cannot be the zero address. - `spender` must have allowance for the caller of at least `subtractedValue`."
      },
      "increaseAllowance(address,uint256)": {
        "details": "Atomically increases the allowance granted to `spender` by the caller. This is an alternative to {approve} that can be used as a mitigation for problems described in {IERC20-approve}. Emits an {Approval} event indicating the updated allowance. Requirements: - `spender` cannot be the zero address."
      },
      "name()": {
        "details": "Returns the name of the token."
      },
      "symbol()": {
        "details": "Returns the symbol of the token, usually a shorter version of the name."
      },
      "totalSupply()": {
        "details": "See {IERC20-totalSupply}."
      },
      "transfer(address,uint256)": {
        "details": "See {IERC20-transfer}. Requirements: - `recipient` cannot be the zero address. - the caller must have a balance of at least `amount`."
      },
      "transferFrom(address,address,uint256)": {
        "details": "See {IERC20-transferFrom}. Emits an {Approval} event indicating the updated allowance. This is not required by the EIP. See the note at the beginning of {ERC20}. Requirements: - `sender` and `recipient` cannot be the zero address. - `sender` must have a balance of at least `amount`. - the caller must have allowance for ``sender``'s tokens of at least `amount`."
      }
    },
    "version": 1
  },
  "userdoc": {
    "kind": "user",
    "methods": {},
    "version": 1
  }
}