{
  "contractName": "DeltaNeutralFtmTomb",
  "abi": [
    {
      "inputs": [
        {
          "internalType": "contract DjinnBottleUSDC",
          "name": "_djBottle",
          "type": "address"
        },
        {
          "internalType": "contract IUniswapV2Router02",
          "name": "_spookyRouter",
          "type": "address"
        },
        {
          "internalType": "contract ComptrollerInterface",
          "name": "_comptroller",
          "type": "address"
        },
        {
          "internalType": "contract IStdReference",
          "name": "_priceOracle",
          "type": "address"
        }
      ],
      "stateMutability": "nonpayable",
      "type": "constructor"
    },
    {
      "anonymous": false,
      "inputs": [
        {
          "indexed": true,
          "internalType": "address",
          "name": "owner",
          "type": "address"
        },
        {
          "indexed": true,
          "internalType": "address",
          "name": "spender",
          "type": "address"
        },
        {
          "indexed": false,
          "internalType": "uint256",
          "name": "value",
          "type": "uint256"
        }
      ],
      "name": "Approval",
      "type": "event"
    },
    {
      "anonymous": false,
      "inputs": [
        {
          "indexed": true,
          "internalType": "address",
          "name": "from",
          "type": "address"
        },
        {
          "indexed": true,
          "internalType": "address",
          "name": "to",
          "type": "address"
        },
        {
          "indexed": false,
          "internalType": "uint256",
          "name": "value",
          "type": "uint256"
        }
      ],
      "name": "Transfer",
      "type": "event"
    },
    {
      "inputs": [],
      "name": "TOMB",
      "outputs": [
        {
          "internalType": "address",
          "name": "",
          "type": "address"
        }
      ],
      "stateMutability": "view",
      "type": "function",
      "constant": true
    },
    {
      "inputs": [],
      "name": "TSHARE",
      "outputs": [
        {
          "internalType": "address",
          "name": "",
          "type": "address"
        }
      ],
      "stateMutability": "view",
      "type": "function",
      "constant": true
    },
    {
      "inputs": [],
      "name": "USDC",
      "outputs": [
        {
          "internalType": "address",
          "name": "",
          "type": "address"
        }
      ],
      "stateMutability": "view",
      "type": "function",
      "constant": true
    },
    {
      "inputs": [],
      "name": "VAULT",
      "outputs": [
        {
          "internalType": "contract DjinnBottleUSDC",
          "name": "",
          "type": "address"
        }
      ],
      "stateMutability": "view",
      "type": "function",
      "constant": true
    },
    {
      "inputs": [],
      "name": "WETH",
      "outputs": [
        {
          "internalType": "address",
          "name": "",
          "type": "address"
        }
      ],
      "stateMutability": "view",
      "type": "function",
      "constant": true
    },
    {
      "inputs": [],
      "name": "WFTM",
      "outputs": [
        {
          "internalType": "address",
          "name": "",
          "type": "address"
        }
      ],
      "stateMutability": "view",
      "type": "function",
      "constant": true
    },
    {
      "inputs": [
        {
          "internalType": "address",
          "name": "owner",
          "type": "address"
        },
        {
          "internalType": "address",
          "name": "spender",
          "type": "address"
        }
      ],
      "name": "allowance",
      "outputs": [
        {
          "internalType": "uint256",
          "name": "",
          "type": "uint256"
        }
      ],
      "stateMutability": "view",
      "type": "function",
      "constant": true
    },
    {
      "inputs": [
        {
          "internalType": "address",
          "name": "spender",
          "type": "address"
        },
        {
          "internalType": "uint256",
          "name": "amount",
          "type": "uint256"
        }
      ],
      "name": "approve",
      "outputs": [
        {
          "internalType": "bool",
          "name": "",
          "type": "bool"
        }
      ],
      "stateMutability": "nonpayable",
      "type": "function"
    },
    {
      "inputs": [],
      "name": "ass",
      "outputs": [
        {
          "internalType": "uint256",
          "name": "",
          "type": "uint256"
        }
      ],
      "stateMutability": "view",
      "type": "function",
      "constant": true
    },
    {
      "inputs": [
        {
          "internalType": "address",
          "name": "account",
          "type": "address"
        }
      ],
      "name": "balanceOf",
      "outputs": [
        {
          "internalType": "uint256",
          "name": "",
          "type": "uint256"
        }
      ],
      "stateMutability": "view",
      "type": "function",
      "constant": true
    },
    {
      "inputs": [],
      "name": "balls",
      "outputs": [
        {
          "internalType": "uint256",
          "name": "",
          "type": "uint256"
        }
      ],
      "stateMutability": "view",
      "type": "function",
      "constant": true
    },
    {
      "inputs": [],
      "name": "cocks",
      "outputs": [
        {
          "internalType": "uint256",
          "name": "",
          "type": "uint256"
        }
      ],
      "stateMutability": "view",
      "type": "function",
      "constant": true
    },
    {
      "inputs": [],
      "name": "comptroller",
      "outputs": [
        {
          "internalType": "contract ComptrollerInterface",
          "name": "",
          "type": "address"
        }
      ],
      "stateMutability": "view",
      "type": "function",
      "constant": true
    },
    {
      "inputs": [],
      "name": "crETH",
      "outputs": [
        {
          "internalType": "address",
          "name": "",
          "type": "address"
        }
      ],
      "stateMutability": "view",
      "type": "function",
      "constant": true
    },
    {
      "inputs": [],
      "name": "crUSDC",
      "outputs": [
        {
          "internalType": "address",
          "name": "",
          "type": "address"
        }
      ],
      "stateMutability": "view",
      "type": "function",
      "constant": true
    },
    {
      "inputs": [],
      "name": "creator",
      "outputs": [
        {
          "internalType": "address",
          "name": "",
          "type": "address"
        }
      ],
      "stateMutability": "view",
      "type": "function",
      "constant": true
    },
    {
      "inputs": [],
      "name": "decimals",
      "outputs": [
        {
          "internalType": "uint8",
          "name": "",
          "type": "uint8"
        }
      ],
      "stateMutability": "view",
      "type": "function",
      "constant": true
    },
    {
      "inputs": [
        {
          "internalType": "address",
          "name": "spender",
          "type": "address"
        },
        {
          "internalType": "uint256",
          "name": "subtractedValue",
          "type": "uint256"
        }
      ],
      "name": "decreaseAllowance",
      "outputs": [
        {
          "internalType": "bool",
          "name": "",
          "type": "bool"
        }
      ],
      "stateMutability": "nonpayable",
      "type": "function"
    },
    {
      "inputs": [
        {
          "internalType": "address",
          "name": "spender",
          "type": "address"
        },
        {
          "internalType": "uint256",
          "name": "addedValue",
          "type": "uint256"
        }
      ],
      "name": "increaseAllowance",
      "outputs": [
        {
          "internalType": "bool",
          "name": "",
          "type": "bool"
        }
      ],
      "stateMutability": "nonpayable",
      "type": "function"
    },
    {
      "inputs": [],
      "name": "name",
      "outputs": [
        {
          "internalType": "string",
          "name": "",
          "type": "string"
        }
      ],
      "stateMutability": "view",
      "type": "function",
      "constant": true
    },
    {
      "inputs": [],
      "name": "priceOracle",
      "outputs": [
        {
          "internalType": "contract IStdReference",
          "name": "",
          "type": "address"
        }
      ],
      "stateMutability": "view",
      "type": "function",
      "constant": true
    },
    {
      "inputs": [],
      "name": "spookyAddress",
      "outputs": [
        {
          "internalType": "address",
          "name": "",
          "type": "address"
        }
      ],
      "stateMutability": "view",
      "type": "function",
      "constant": true
    },
    {
      "inputs": [],
      "name": "spookyFtmTombLP",
      "outputs": [
        {
          "internalType": "address",
          "name": "",
          "type": "address"
        }
      ],
      "stateMutability": "view",
      "type": "function",
      "constant": true
    },
    {
      "inputs": [],
      "name": "spookyRouter",
      "outputs": [
        {
          "internalType": "contract IUniswapV2Router02",
          "name": "",
          "type": "address"
        }
      ],
      "stateMutability": "view",
      "type": "function",
      "constant": true
    },
    {
      "inputs": [],
      "name": "symbol",
      "outputs": [
        {
          "internalType": "string",
          "name": "",
          "type": "string"
        }
      ],
      "stateMutability": "view",
      "type": "function",
      "constant": true
    },
    {
      "inputs": [],
      "name": "tShareRewardPool",
      "outputs": [
        {
          "internalType": "address",
          "name": "",
          "type": "address"
        }
      ],
      "stateMutability": "view",
      "type": "function",
      "constant": true
    },
    {
      "inputs": [],
      "name": "tits",
      "outputs": [
        {
          "internalType": "uint256",
          "name": "",
          "type": "uint256"
        }
      ],
      "stateMutability": "view",
      "type": "function",
      "constant": true
    },
    {
      "inputs": [
        {
          "internalType": "address",
          "name": "",
          "type": "address"
        }
      ],
      "name": "tokenBorrowBalance",
      "outputs": [
        {
          "internalType": "uint256",
          "name": "",
          "type": "uint256"
        }
      ],
      "stateMutability": "view",
      "type": "function",
      "constant": true
    },
    {
      "inputs": [],
      "name": "totalSupply",
      "outputs": [
        {
          "internalType": "uint256",
          "name": "",
          "type": "uint256"
        }
      ],
      "stateMutability": "view",
      "type": "function",
      "constant": true
    },
    {
      "inputs": [
        {
          "internalType": "address",
          "name": "recipient",
          "type": "address"
        },
        {
          "internalType": "uint256",
          "name": "amount",
          "type": "uint256"
        }
      ],
      "name": "transfer",
      "outputs": [
        {
          "internalType": "bool",
          "name": "",
          "type": "bool"
        }
      ],
      "stateMutability": "nonpayable",
      "type": "function"
    },
    {
      "inputs": [
        {
          "internalType": "address",
          "name": "sender",
          "type": "address"
        },
        {
          "internalType": "address",
          "name": "recipient",
          "type": "address"
        },
        {
          "internalType": "uint256",
          "name": "amount",
          "type": "uint256"
        }
      ],
      "name": "transferFrom",
      "outputs": [
        {
          "internalType": "bool",
          "name": "",
          "type": "bool"
        }
      ],
      "stateMutability": "nonpayable",
      "type": "function"
    },
    {
      "inputs": [],
      "name": "treasuryWallet",
      "outputs": [
        {
          "internalType": "address",
          "name": "",
          "type": "address"
        }
      ],
      "stateMutability": "view",
      "type": "function",
      "constant": true
    },
    {
      "stateMutability": "payable",
      "type": "receive",
      "payable": true
    },
    {
      "inputs": [
        {
          "internalType": "address",
          "name": "user",
          "type": "address"
        },
        {
          "internalType": "uint256",
          "name": "amount",
          "type": "uint256"
        }
      ],
      "name": "open",
      "outputs": [],
      "stateMutability": "nonpayable",
      "type": "function"
    },
    {
      "inputs": [],
      "name": "harvest",
      "outputs": [],
      "stateMutability": "nonpayable",
      "type": "function"
    },
    {
      "inputs": [
        {
          "internalType": "address",
          "name": "user",
          "type": "address"
        },
        {
          "internalType": "uint256",
          "name": "amountShares",
          "type": "uint256"
        }
      ],
      "name": "close",
      "outputs": [],
      "stateMutability": "nonpayable",
      "type": "function"
    },
    {
      "inputs": [],
      "name": "getBorrowAmount",
      "outputs": [
        {
          "internalType": "uint256",
          "name": "liquidity",
          "type": "uint256"
        },
        {
          "internalType": "uint256",
          "name": "borrowAmount",
          "type": "uint256"
        },
        {
          "internalType": "uint256",
          "name": "price",
          "type": "uint256"
        }
      ],
      "stateMutability": "view",
      "type": "function",
      "constant": true
    },
    {
      "inputs": [
        {
          "internalType": "uint256",
          "name": "amountShares",
          "type": "uint256"
        }
      ],
      "name": "getShares",
      "outputs": [
        {
          "internalType": "uint256",
          "name": "",
          "type": "uint256"
        },
        {
          "internalType": "uint256",
          "name": "",
          "type": "uint256"
        }
      ],
      "stateMutability": "view",
      "type": "function",
      "constant": true
    },
    {
      "inputs": [
        {
          "internalType": "address",
          "name": "wallet",
          "type": "address"
        }
      ],
      "name": "setTreasury",
      "outputs": [],
      "stateMutability": "nonpayable",
      "type": "function"
    },
    {
      "inputs": [],
      "name": "getUnderlying",
      "outputs": [
        {
          "internalType": "uint256",
          "name": "",
          "type": "uint256"
        }
      ],
      "stateMutability": "nonpayable",
      "type": "function"
    },
    {
      "inputs": [],
      "name": "borrowBalance",
      "outputs": [
        {
          "internalType": "uint256",
          "name": "",
          "type": "uint256"
        }
      ],
      "stateMutability": "nonpayable",
      "type": "function"
    }
  ],
  "bytecode": "0x60e06040523480156200001157600080fd5b5060405162005afd38038062005afd8339818101604052810190620000379190620003fc565b6040518060400160405280601481526020017f446a696e6e2046544d2053686f7274204661726d0000000000000000000000008152506040518060400160405280600981526020017f6446544d53686f727400000000000000000000000000000000000000000000008152508160039080519060200190620000bb929190620001ff565b508060049080519060200190620000d4929190620001ff565b50505033600560006101000a81548173ffffffffffffffffffffffffffffffffffffffff021916908373ffffffffffffffffffffffffffffffffffffffff16021790555083600760006101000a81548173ffffffffffffffffffffffffffffffffffffffff021916908373ffffffffffffffffffffffffffffffffffffffff1602179055508273ffffffffffffffffffffffffffffffffffffffff1660808173ffffffffffffffffffffffffffffffffffffffff16815250508173ffffffffffffffffffffffffffffffffffffffff1660a08173ffffffffffffffffffffffffffffffffffffffff16815250508073ffffffffffffffffffffffffffffffffffffffff1660c08173ffffffffffffffffffffffffffffffffffffffff168152505050505050620004d3565b8280546200020d906200049d565b90600052602060002090601f0160209004810192826200023157600085556200027d565b82601f106200024c57805160ff19168380011785556200027d565b828001600101855582156200027d579182015b828111156200027c5782518255916020019190600101906200025f565b5b5090506200028c919062000290565b5090565b5b80821115620002ab57600081600090555060010162000291565b5090565b600080fd5b600073ffffffffffffffffffffffffffffffffffffffff82169050919050565b6000620002e182620002b4565b9050919050565b6000620002f582620002d4565b9050919050565b6200030781620002e8565b81146200031357600080fd5b50565b6000815190506200032781620002fc565b92915050565b60006200033a82620002d4565b9050919050565b6200034c816200032d565b81146200035857600080fd5b50565b6000815190506200036c8162000341565b92915050565b60006200037f82620002d4565b9050919050565b620003918162000372565b81146200039d57600080fd5b50565b600081519050620003b18162000386565b92915050565b6000620003c482620002d4565b9050919050565b620003d681620003b7565b8114620003e257600080fd5b50565b600081519050620003f681620003cb565b92915050565b60008060008060808587031215620004195762000418620002af565b5b6000620004298782880162000316565b94505060206200043c878288016200035b565b93505060406200044f87828801620003a0565b92505060606200046287828801620003e5565b91505092959194509250565b7f4e487b7100000000000000000000000000000000000000000000000000000000600052602260045260246000fd5b60006002820490506001821680620004b657607f821691505b60208210811415620004cd57620004cc6200046e565b5b50919050565b60805160a05160c0516155d76200052660003960008181610ccd0152610fcd015260008181610f29015281816110b30152612a2101526000818161117501528181612ce50152613ac201526155d76000f3fe60806040526004361061023f5760003560e01c80636f7267b71161012e578063a9059cbb116100ab578063dd62ed3e1161006f578063dd62ed3e146108a9578063e08c3988146108e6578063e398fa1a14610911578063e49280cb1461093c578063f0f442601461096557610246565b8063a9059cbb146107c0578063ad5c4648146107fd578063b5ee45c114610828578063b92cc56214610853578063c139acfa1461087e57610246565b806395d89b41116100f257806395d89b41146106d75780639816f473146107025780639cdd8ee71461072d578063a457c2d714610758578063a6f8d4051461079557610246565b80636f7267b7146105db57806370a082311461061957806382c70bbf1461065657806389a30271146106815780638ed8ea7e146106ac57610246565b80632c1c1836116101bc5780634641257d116101805780634641257d146105165780634c373e781461052d5780634fbb30ed146105585780635fe3b5671461058557806366f2addc146105b057610246565b80632c1c18361461042d578063313ce567146104585780633950935114610483578063411557d1146104c05780634626402b146104eb57610246565b806318160ddd1161020357806318160ddd1461034457806321dbe8761461036f57806323b872dd1461039a578063243cd14e146103d75780632630c12f1461040257610246565b806302d05d3f1461024b57806306fdde0314610276578063095ea7b3146102a15780630a0e5c9d146102de578063107606161461030757610246565b3661024657005b600080fd5b34801561025757600080fd5b5061026061098e565b60405161026d9190614197565b60405180910390f35b34801561028257600080fd5b5061028b6109b4565b604051610298919061424b565b60405180910390f35b3480156102ad57600080fd5b506102c860048036038101906102c391906142e3565b610a46565b6040516102d5919061433e565b60405180910390f35b3480156102ea57600080fd5b50610305600480360381019061030091906142e3565b610a64565b005b34801561031357600080fd5b5061032e60048036038101906103299190614359565b610b02565b60405161033b9190614395565b60405180910390f35b34801561035057600080fd5b50610359610b1a565b6040516103669190614395565b60405180910390f35b34801561037b57600080fd5b50610384610b24565b6040516103919190614197565b60405180910390f35b3480156103a657600080fd5b506103c160048036038101906103bc91906143b0565b610b3c565b6040516103ce919061433e565b60405180910390f35b3480156103e357600080fd5b506103ec610c34565b6040516103f99190614395565b60405180910390f35b34801561040e57600080fd5b50610417610ccb565b6040516104249190614462565b60405180910390f35b34801561043957600080fd5b50610442610cef565b60405161044f9190614197565b60405180910390f35b34801561046457600080fd5b5061046d610d07565b60405161047a9190614499565b60405180910390f35b34801561048f57600080fd5b506104aa60048036038101906104a591906142e3565b610d10565b6040516104b7919061433e565b60405180910390f35b3480156104cc57600080fd5b506104d5610dbc565b6040516104e291906144d5565b60405180910390f35b3480156104f757600080fd5b50610500610de2565b60405161050d9190614197565b60405180910390f35b34801561052257600080fd5b5061052b610e08565b005b34801561053957600080fd5b50610542610f1c565b60405161054f9190614395565b60405180910390f35b34801561056457600080fd5b5061056d610f22565b60405161057c939291906144f0565b60405180910390f35b34801561059157600080fd5b5061059a6110b1565b6040516105a79190614548565b60405180910390f35b3480156105bc57600080fd5b506105c56110d5565b6040516105d29190614395565b60405180910390f35b3480156105e757600080fd5b5061060260048036038101906105fd9190614563565b6110db565b604051610610929190614590565b60405180910390f35b34801561062557600080fd5b50610640600480360381019061063b9190614359565b6110fb565b60405161064d9190614395565b60405180910390f35b34801561066257600080fd5b5061066b611143565b6040516106789190614197565b60405180910390f35b34801561068d57600080fd5b5061069661115b565b6040516106a39190614197565b60405180910390f35b3480156106b857600080fd5b506106c1611173565b6040516106ce91906145da565b60405180910390f35b3480156106e357600080fd5b506106ec611197565b6040516106f9919061424b565b60405180910390f35b34801561070e57600080fd5b50610717611229565b6040516107249190614395565b60405180910390f35b34801561073957600080fd5b506107426112c0565b60405161074f9190614197565b60405180910390f35b34801561076457600080fd5b5061077f600480360381019061077a91906142e3565b6112d8565b60405161078c919061433e565b60405180910390f35b3480156107a157600080fd5b506107aa6113c3565b6040516107b79190614197565b60405180910390f35b3480156107cc57600080fd5b506107e760048036038101906107e291906142e3565b6113db565b6040516107f4919061433e565b60405180910390f35b34801561080957600080fd5b506108126113f9565b60405161081f9190614197565b60405180910390f35b34801561083457600080fd5b5061083d611411565b60405161084a9190614197565b60405180910390f35b34801561085f57600080fd5b50610868611429565b6040516108759190614395565b60405180910390f35b34801561088a57600080fd5b5061089361142f565b6040516108a09190614197565b60405180910390f35b3480156108b557600080fd5b506108d060048036038101906108cb91906145f5565b611447565b6040516108dd9190614395565b60405180910390f35b3480156108f257600080fd5b506108fb6114ce565b6040516109089190614395565b60405180910390f35b34801561091d57600080fd5b506109266114d4565b6040516109339190614197565b60405180910390f35b34801561094857600080fd5b50610963600480360381019061095e91906142e3565b6114ec565b005b34801561097157600080fd5b5061098c60048036038101906109879190614359565b61158a565b005b600560009054906101000a900473ffffffffffffffffffffffffffffffffffffffff1681565b6060600380546109c390614664565b80601f01602080910402602001604051908101604052809291908181526020018280546109ef90614664565b8015610a3c5780601f10610a1157610100808354040283529160200191610a3c565b820191906000526020600020905b815481529060010190602001808311610a1f57829003601f168201915b5050505050905090565b6000610a5a610a5361165e565b8484611666565b6001905092915050565b600760009054906101000a900473ffffffffffffffffffffffffffffffffffffffff1673ffffffffffffffffffffffffffffffffffffffff163373ffffffffffffffffffffffffffffffffffffffff1614610af4576040517f08c379a0000000000000000000000000000000000000000000000000000000008152600401610aeb906146e2565b60405180910390fd5b610afe8282611831565b5050565b600c6020528060005260406000206000915090505481565b6000600254905090565b7321be370d5312f44cb42ce377bc9b8a0cef1a4c8381565b6000610b498484846118d5565b6000600160008673ffffffffffffffffffffffffffffffffffffffff1673ffffffffffffffffffffffffffffffffffffffff1681526020019081526020016000206000610b9461165e565b73ffffffffffffffffffffffffffffffffffffffff1673ffffffffffffffffffffffffffffffffffffffff16815260200190815260200160002054905082811015610c14576040517f08c379a0000000000000000000000000000000000000000000000000000000008152600401610c0b90614774565b60405180910390fd5b610c2885610c2061165e565b858403611666565b60019150509392505050565b600073cc3e89fbc10e155f1164f8c9cf0703acde53f6fd73ffffffffffffffffffffffffffffffffffffffff166317bfdfbc306040518263ffffffff1660e01b8152600401610c839190614197565b6020604051808303816000875af1158015610ca2573d6000803e3d6000fd5b505050506040513d601f19601f82011682018060405250810190610cc691906147a9565b905090565b7f000000000000000000000000000000000000000000000000000000000000000081565b73cc0a87f7e7c693042a9cc703661f5060c80acb4381565b60006012905090565b6000610db2610d1d61165e565b848460016000610d2b61165e565b73ffffffffffffffffffffffffffffffffffffffff1673ffffffffffffffffffffffffffffffffffffffff16815260200190815260200160002060008873ffffffffffffffffffffffffffffffffffffffff1673ffffffffffffffffffffffffffffffffffffffff16815260200190815260200160002054610dad9190614805565b611666565b6001905092915050565b600760009054906101000a900473ffffffffffffffffffffffffffffffffffffffff1681565b600660009054906101000a900473ffffffffffffffffffffffffffffffffffffffff1681565b600760009054906101000a900473ffffffffffffffffffffffffffffffffffffffff1673ffffffffffffffffffffffffffffffffffffffff163373ffffffffffffffffffffffffffffffffffffffff1614610e98576040517f08c379a0000000000000000000000000000000000000000000000000000000008152600401610e8f906146e2565b60405180910390fd5b73cc0a87f7e7c693042a9cc703661f5060c80acb4373ffffffffffffffffffffffffffffffffffffffff1663e2bbb1586000806040518363ffffffff1660e01b8152600401610ee8929190614896565b600060405180830381600087803b158015610f0257600080fd5b505af1158015610f16573d6000803e3d6000fd5b50505050565b600a5481565b60008060007f000000000000000000000000000000000000000000000000000000000000000073ffffffffffffffffffffffffffffffffffffffff16635ec88c79306040518263ffffffff1660e01b8152600401610f809190614197565b606060405180830381865afa158015610f9d573d6000803e3d6000fd5b505050506040513d601f19601f82011682018060405250810190610fc191906148bf565b909150508093505060007f000000000000000000000000000000000000000000000000000000000000000073ffffffffffffffffffffffffffffffffffffffff166365555bcc6040518163ffffffff1660e01b8152600401611022906149aa565b606060405180830381865afa15801561103f573d6000803e3d6000fd5b505050506040513d601f19601f820116820180604052508101906110639190614ac1565b905080600001519150600082670de0b6b3a7640000866110839190614aee565b61108d9190614b77565b90506064605e8261109e9190614aee565b6110a89190614b77565b93505050909192565b7f000000000000000000000000000000000000000000000000000000000000000081565b60095481565b6000806000806110ea85611b56565b915091508181935093505050915091565b60008060008373ffffffffffffffffffffffffffffffffffffffff1673ffffffffffffffffffffffffffffffffffffffff168152602001908152602001600020549050919050565b73328a7b4d538a2b3942653a9983fda3c12c57114181565b7304068da6c83afcfa0e13ba15a6696662335d5b7581565b7f000000000000000000000000000000000000000000000000000000000000000081565b6060600480546111a690614664565b80601f01602080910402602001604051908101604052809291908181526020018280546111d290614664565b801561121f5780601f106111f45761010080835404028352916020019161121f565b820191906000526020600020905b81548152906001019060200180831161120257829003601f168201915b5050505050905090565b600073328a7b4d538a2b3942653a9983fda3c12c57114173ffffffffffffffffffffffffffffffffffffffff16633af9e669306040518263ffffffff1660e01b81526004016112789190614197565b6020604051808303816000875af1158015611297573d6000803e3d6000fd5b505050506040513d601f19601f820116820180604052508101906112bb91906147a9565b905090565b732a651563c9d3af67ae0388a5c8f89b867038089e81565b600080600160006112e761165e565b73ffffffffffffffffffffffffffffffffffffffff1673ffffffffffffffffffffffffffffffffffffffff16815260200190815260200160002060008573ffffffffffffffffffffffffffffffffffffffff1673ffffffffffffffffffffffffffffffffffffffff168152602001908152602001600020549050828110156113a4576040517f08c379a000000000000000000000000000000000000000000000000000000000815260040161139b90614c1a565b60405180910390fd5b6113b86113af61165e565b85858403611666565b600191505092915050565b73f491e7b69e4244ad4002bc14e878a34207e38c2981565b60006113ef6113e861165e565b84846118d5565b6001905092915050565b7374b23882a30290451a17c44f4f05243b6b58c76d81565b734cdf39285d7ca8eb3f090fda0c069ba5f4145b3781565b600b5481565b736c021ae822bea943b2e66552bde1d2696a53fbb781565b6000600160008473ffffffffffffffffffffffffffffffffffffffff1673ffffffffffffffffffffffffffffffffffffffff16815260200190815260200160002060008373ffffffffffffffffffffffffffffffffffffffff1673ffffffffffffffffffffffffffffffffffffffff16815260200190815260200160002054905092915050565b60085481565b73cc3e89fbc10e155f1164f8c9cf0703acde53f6fd81565b600760009054906101000a900473ffffffffffffffffffffffffffffffffffffffff1673ffffffffffffffffffffffffffffffffffffffff163373ffffffffffffffffffffffffffffffffffffffff161461157c576040517f08c379a0000000000000000000000000000000000000000000000000000000008152600401611573906146e2565b60405180910390fd5b6115868282611d58565b5050565b600760009054906101000a900473ffffffffffffffffffffffffffffffffffffffff1673ffffffffffffffffffffffffffffffffffffffff163373ffffffffffffffffffffffffffffffffffffffff161461161a576040517f08c379a0000000000000000000000000000000000000000000000000000000008152600401611611906146e2565b60405180910390fd5b80600660006101000a81548173ffffffffffffffffffffffffffffffffffffffff021916908373ffffffffffffffffffffffffffffffffffffffff16021790555050565b600033905090565b600073ffffffffffffffffffffffffffffffffffffffff168373ffffffffffffffffffffffffffffffffffffffff1614156116d6576040517f08c379a00000000000000000000000000000000000000000000000000000000081526004016116cd90614cac565b60405180910390fd5b600073ffffffffffffffffffffffffffffffffffffffff168273ffffffffffffffffffffffffffffffffffffffff161415611746576040517f08c379a000000000000000000000000000000000000000000000000000000000815260040161173d90614d3e565b60405180910390fd5b80600160008573ffffffffffffffffffffffffffffffffffffffff1673ffffffffffffffffffffffffffffffffffffffff16815260200190815260200160002060008473ffffffffffffffffffffffffffffffffffffffff1673ffffffffffffffffffffffffffffffffffffffff168152602001908152602001600020819055508173ffffffffffffffffffffffffffffffffffffffff168373ffffffffffffffffffffffffffffffffffffffff167f8c5be1e5ebec7d5bd14f71427d1e84f3dd0314c0f7b2291e5b200ac8c7c3b925836040516118249190614395565b60405180910390a3505050565b600060646046836118429190614aee565b61184c9190614b77565b90506118817304068da6c83afcfa0e13ba15a6696662335d5b757374b23882a30290451a17c44f4f05243b6b58c76d83611f0a565b60006118a07304068da6c83afcfa0e13ba15a6696662335d5b7561231f565b905060006118c17374b23882a30290451a17c44f4f05243b6b58c76d61231f565b90506118ce8583836123a2565b5050505050565b600073ffffffffffffffffffffffffffffffffffffffff168373ffffffffffffffffffffffffffffffffffffffff161415611945576040517f08c379a000000000000000000000000000000000000000000000000000000000815260040161193c90614dd0565b60405180910390fd5b600073ffffffffffffffffffffffffffffffffffffffff168273ffffffffffffffffffffffffffffffffffffffff1614156119b5576040517f08c379a00000000000000000000000000000000000000000000000000000000081526004016119ac90614e62565b60405180910390fd5b6119c0838383612bf0565b60008060008573ffffffffffffffffffffffffffffffffffffffff1673ffffffffffffffffffffffffffffffffffffffff16815260200190815260200160002054905081811015611a46576040517f08c379a0000000000000000000000000000000000000000000000000000000008152600401611a3d90614ef4565b60405180910390fd5b8181036000808673ffffffffffffffffffffffffffffffffffffffff1673ffffffffffffffffffffffffffffffffffffffff16815260200190815260200160002081905550816000808573ffffffffffffffffffffffffffffffffffffffff1673ffffffffffffffffffffffffffffffffffffffff1681526020019081526020016000206000828254611ad99190614805565b925050819055508273ffffffffffffffffffffffffffffffffffffffff168473ffffffffffffffffffffffffffffffffffffffff167fddf252ad1be2c89b69c2b068fc378daa952ba7f163c4a11628f55a4df523b3ef84604051611b3d9190614395565b60405180910390a3611b50848484612bf5565b50505050565b600080600073cc3e89fbc10e155f1164f8c9cf0703acde53f6fd73ffffffffffffffffffffffffffffffffffffffff166370a08231306040518263ffffffff1660e01b8152600401611ba89190614197565b602060405180830381865afa158015611bc5573d6000803e3d6000fd5b505050506040513d601f19601f82011682018060405250810190611be991906147a9565b9050600073328a7b4d538a2b3942653a9983fda3c12c57114173ffffffffffffffffffffffffffffffffffffffff166370a08231306040518263ffffffff1660e01b8152600401611c3a9190614197565b602060405180830381865afa158015611c57573d6000803e3d6000fd5b505050506040513d601f19601f82011682018060405250810190611c7b91906147a9565b90506000600760009054906101000a900473ffffffffffffffffffffffffffffffffffffffff1673ffffffffffffffffffffffffffffffffffffffff166318160ddd6040518163ffffffff1660e01b8152600401602060405180830381865afa158015611cec573d6000803e3d6000fd5b505050506040513d601f19601f82011682018060405250810190611d1091906147a9565b90506000818785611d219190614aee565b611d2b9190614b77565b90506000828885611d3c9190614aee565b611d469190614b77565b90508181965096505050505050915091565b6000611d633061231f565b90506000600760009054906101000a900473ffffffffffffffffffffffffffffffffffffffff1673ffffffffffffffffffffffffffffffffffffffff166318160ddd6040518163ffffffff1660e01b8152600401602060405180830381865afa158015611dd4573d6000803e3d6000fd5b505050506040513d601f19601f82011682018060405250810190611df891906147a9565b90506000838284611e099190614b77565b611e139190614aee565b905082811115611e21578290505b6000611e40732a651563c9d3af67ae0388a5c8f89b867038089e61231f565b905073cc0a87f7e7c693042a9cc703661f5060c80acb4373ffffffffffffffffffffffffffffffffffffffff1663441a3e706000846040518363ffffffff1660e01b8152600401611e92929190614f14565b600060405180830381600087803b158015611eac57600080fd5b505af1158015611ec0573d6000803e3d6000fd5b505050506000611ee3732a651563c9d3af67ae0388a5c8f89b867038089e61231f565b905060008282611ef39190614f3d565b9050611f00888289612bfa565b5050505050505050565b8273ffffffffffffffffffffffffffffffffffffffff1663095ea7b373f491e7b69e4244ad4002bc14e878a34207e38c29836040518363ffffffff1660e01b8152600401611f59929190614f71565b6020604051808303816000875af1158015611f78573d6000803e3d6000fd5b505050506040513d601f19601f82011682018060405250810190611f9c9190614fc6565b5060607321be370d5312f44cb42ce377bc9b8a0cef1a4c8373ffffffffffffffffffffffffffffffffffffffff168473ffffffffffffffffffffffffffffffffffffffff16148061202c57507321be370d5312f44cb42ce377bc9b8a0cef1a4c8373ffffffffffffffffffffffffffffffffffffffff168373ffffffffffffffffffffffffffffffffffffffff16145b1561212057600267ffffffffffffffff81111561204c5761204b6149e2565b5b60405190808252806020026020018201604052801561207a5781602001602082028036833780820191505090505b509050838160008151811061209257612091614ff3565b5b602002602001019073ffffffffffffffffffffffffffffffffffffffff16908173ffffffffffffffffffffffffffffffffffffffff168152505082816001815181106120e1576120e0614ff3565b5b602002602001019073ffffffffffffffffffffffffffffffffffffffff16908173ffffffffffffffffffffffffffffffffffffffff168152505061226e565b600367ffffffffffffffff81111561213b5761213a6149e2565b5b6040519080825280602002602001820160405280156121695781602001602082028036833780820191505090505b509050838160008151811061218157612180614ff3565b5b602002602001019073ffffffffffffffffffffffffffffffffffffffff16908173ffffffffffffffffffffffffffffffffffffffff16815250507321be370d5312f44cb42ce377bc9b8a0cef1a4c83816001815181106121e4576121e3614ff3565b5b602002602001019073ffffffffffffffffffffffffffffffffffffffff16908173ffffffffffffffffffffffffffffffffffffffff1681525050828160028151811061223357612232614ff3565b5b602002602001019073ffffffffffffffffffffffffffffffffffffffff16908173ffffffffffffffffffffffffffffffffffffffff16815250505b73f491e7b69e4244ad4002bc14e878a34207e38c2973ffffffffffffffffffffffffffffffffffffffff166338ed17398360008430601e426122b09190614805565b6040518663ffffffff1660e01b81526004016122d09594939291906150e0565b6000604051808303816000875af11580156122ef573d6000803e3d6000fd5b505050506040513d6000823e3d601f19601f820116820180604052508101906123189190615207565b5050505050565b60008173ffffffffffffffffffffffffffffffffffffffff166370a08231306040518263ffffffff1660e01b815260040161235a9190614197565b602060405180830381865afa158015612377573d6000803e3d6000fd5b505050506040513d601f19601f8201168201806040525081019061239b91906147a9565b9050919050565b600073328a7b4d538a2b3942653a9983fda3c12c57114173ffffffffffffffffffffffffffffffffffffffff166370a08231306040518263ffffffff1660e01b81526004016123f19190614197565b602060405180830381865afa15801561240e573d6000803e3d6000fd5b505050506040513d601f19601f8201168201806040525081019061243291906147a9565b9050600073cc3e89fbc10e155f1164f8c9cf0703acde53f6fd73ffffffffffffffffffffffffffffffffffffffff166370a08231306040518263ffffffff1660e01b81526004016124839190614197565b602060405180830381865afa1580156124a0573d6000803e3d6000fd5b505050506040513d601f19601f820116820180604052508101906124c491906147a9565b90507304068da6c83afcfa0e13ba15a6696662335d5b7573ffffffffffffffffffffffffffffffffffffffff1663095ea7b373328a7b4d538a2b3942653a9983fda3c12c571141866040518363ffffffff1660e01b8152600401612529929190614f71565b6020604051808303816000875af1158015612548573d6000803e3d6000fd5b505050506040513d601f19601f8201168201806040525081019061256c9190614fc6565b5073328a7b4d538a2b3942653a9983fda3c12c57114173ffffffffffffffffffffffffffffffffffffffff1663a0712d68856040518263ffffffff1660e01b81526004016125ba9190614395565b6020604051808303816000875af11580156125d9573d6000803e3d6000fd5b505050506040513d601f19601f820116820180604052508101906125fd91906147a9565b507374b23882a30290451a17c44f4f05243b6b58c76d73ffffffffffffffffffffffffffffffffffffffff1663095ea7b373cc3e89fbc10e155f1164f8c9cf0703acde53f6fd856040518363ffffffff1660e01b8152600401612661929190614f71565b6020604051808303816000875af1158015612680573d6000803e3d6000fd5b505050506040513d601f19601f820116820180604052508101906126a49190614fc6565b5073cc3e89fbc10e155f1164f8c9cf0703acde53f6fd73ffffffffffffffffffffffffffffffffffffffff1663a0712d68846040518263ffffffff1660e01b81526004016126f29190614395565b6020604051808303816000875af1158015612711573d6000803e3d6000fd5b505050506040513d601f19601f8201168201806040525081019061273591906147a9565b50600073328a7b4d538a2b3942653a9983fda3c12c57114173ffffffffffffffffffffffffffffffffffffffff166370a08231306040518263ffffffff1660e01b81526004016127859190614197565b602060405180830381865afa1580156127a2573d6000803e3d6000fd5b505050506040513d601f19601f820116820180604052508101906127c691906147a9565b9050600073cc3e89fbc10e155f1164f8c9cf0703acde53f6fd73ffffffffffffffffffffffffffffffffffffffff166370a08231306040518263ffffffff1660e01b81526004016128179190614197565b602060405180830381865afa158015612834573d6000803e3d6000fd5b505050506040513d601f19601f8201168201806040525081019061285891906147a9565b9050600084836128689190614f3d565b9050600084836128789190614f3d565b9050600760009054906101000a900473ffffffffffffffffffffffffffffffffffffffff1673ffffffffffffffffffffffffffffffffffffffff16634478efa28a84846040518463ffffffff1660e01b81526004016128d993929190615250565b600060405180830381600087803b1580156128f357600080fd5b505af1158015612907573d6000803e3d6000fd5b505050506000600267ffffffffffffffff811115612928576129276149e2565b5b6040519080825280602002602001820160405280156129565781602001602082028036833780820191505090505b50905073328a7b4d538a2b3942653a9983fda3c12c5711418160008151811061298257612981614ff3565b5b602002602001019073ffffffffffffffffffffffffffffffffffffffff16908173ffffffffffffffffffffffffffffffffffffffff168152505073cc3e89fbc10e155f1164f8c9cf0703acde53f6fd816001815181106129e5576129e4614ff3565b5b602002602001019073ffffffffffffffffffffffffffffffffffffffff16908173ffffffffffffffffffffffffffffffffffffffff16815250507f000000000000000000000000000000000000000000000000000000000000000073ffffffffffffffffffffffffffffffffffffffff1663c2998238826040518263ffffffff1660e01b8152600401612a789190615287565b6000604051808303816000875af1158015612a97573d6000803e3d6000fd5b505050506040513d6000823e3d601f19601f82011682018060405250810190612ac09190615207565b506000612acb610c34565b90506000612ad7610f22565b5091505073cc3e89fbc10e155f1164f8c9cf0703acde53f6fd73ffffffffffffffffffffffffffffffffffffffff1663c5ebeaec826040518263ffffffff1660e01b8152600401612b289190614395565b6020604051808303816000875af1158015612b47573d6000803e3d6000fd5b505050506040513d601f19601f82011682018060405250810190612b6b91906147a9565b506000612b76610c34565b90508281612b849190614f3d565b600c60008f73ffffffffffffffffffffffffffffffffffffffff1673ffffffffffffffffffffffffffffffffffffffff1681526020019081526020016000206000828254612bd29190614805565b92505081905550612be161304c565b50505050505050505050505050565b505050565b505050565b6000612c197321be370d5312f44cb42ce377bc9b8a0cef1a4c8361231f565b90506000612c3a736c021ae822bea943b2e66552bde1d2696a53fbb761231f565b9050732a651563c9d3af67ae0388a5c8f89b867038089e73ffffffffffffffffffffffffffffffffffffffff1663095ea7b373f491e7b69e4244ad4002bc14e878a34207e38c29866040518363ffffffff1660e01b8152600401612c9f929190614f71565b6020604051808303816000875af1158015612cbe573d6000803e3d6000fd5b505050506040513d601f19601f82011682018060405250810190612ce29190614fc6565b507f000000000000000000000000000000000000000000000000000000000000000073ffffffffffffffffffffffffffffffffffffffff1663baa2abde7321be370d5312f44cb42ce377bc9b8a0cef1a4c83736c021ae822bea943b2e66552bde1d2696a53fbb78760018030601e42612d5b9190614805565b6040518863ffffffff1660e01b8152600401612d7d97969594939291906152e4565b60408051808303816000875af1158015612d9b573d6000803e3d6000fd5b505050506040513d601f19601f82011682018060405250810190612dbf9190615353565b5050612dcb30856131db565b6000612dea7321be370d5312f44cb42ce377bc9b8a0cef1a4c8361231f565b90506000612e0b736c021ae822bea943b2e66552bde1d2696a53fbb761231f565b905060008483612e1b9190614f3d565b905060008483612e2b9190614f3d565b90507321be370d5312f44cb42ce377bc9b8a0cef1a4c8373ffffffffffffffffffffffffffffffffffffffff1663095ea7b373f491e7b69e4244ad4002bc14e878a34207e38c29846040518363ffffffff1660e01b8152600401612e90929190614f71565b6020604051808303816000875af1158015612eaf573d6000803e3d6000fd5b505050506040513d601f19601f82011682018060405250810190612ed39190614fc6565b50736c021ae822bea943b2e66552bde1d2696a53fbb773ffffffffffffffffffffffffffffffffffffffff1663095ea7b373f491e7b69e4244ad4002bc14e878a34207e38c29836040518363ffffffff1660e01b8152600401612f37929190614f71565b6020604051808303816000875af1158015612f56573d6000803e3d6000fd5b505050506040513d601f19601f82011682018060405250810190612f7a9190614fc6565b506000612f9a7374b23882a30290451a17c44f4f05243b6b58c76d61231f565b9050612fcf7321be370d5312f44cb42ce377bc9b8a0cef1a4c837374b23882a30290451a17c44f4f05243b6b58c76d85611f0a565b613002736c021ae822bea943b2e66552bde1d2696a53fbb77374b23882a30290451a17c44f4f05243b6b58c76d84611f0a565b60006130217374b23882a30290451a17c44f4f05243b6b58c76d61231f565b9050600082826130319190614f3d565b905061303e8c8b836133b2565b505050505050505050505050565b60006064603261306f7374b23882a30290451a17c44f4f05243b6b58c76d61231f565b6130799190614aee565b6130839190614b77565b90507374b23882a30290451a17c44f4f05243b6b58c76d73ffffffffffffffffffffffffffffffffffffffff1663095ea7b373f491e7b69e4244ad4002bc14e878a34207e38c296130e77374b23882a30290451a17c44f4f05243b6b58c76d61231f565b6040518363ffffffff1660e01b8152600401613104929190614f71565b6020604051808303816000875af1158015613123573d6000803e3d6000fd5b505050506040513d601f19601f820116820180604052508101906131479190614fc6565b5061317b7374b23882a30290451a17c44f4f05243b6b58c76d7321be370d5312f44cb42ce377bc9b8a0cef1a4c8383611f0a565b600061319a7374b23882a30290451a17c44f4f05243b6b58c76d61231f565b90506131cf7374b23882a30290451a17c44f4f05243b6b58c76d736c021ae822bea943b2e66552bde1d2696a53fbb783611f0a565b6131d761390f565b5050565b600073ffffffffffffffffffffffffffffffffffffffff168273ffffffffffffffffffffffffffffffffffffffff16141561324b576040517f08c379a000000000000000000000000000000000000000000000000000000000815260040161324290615405565b60405180910390fd5b61325782600083612bf0565b60008060008473ffffffffffffffffffffffffffffffffffffffff1673ffffffffffffffffffffffffffffffffffffffff168152602001908152602001600020549050818110156132dd576040517f08c379a00000000000000000000000000000000000000000000000000000000081526004016132d490615497565b60405180910390fd5b8181036000808573ffffffffffffffffffffffffffffffffffffffff1673ffffffffffffffffffffffffffffffffffffffff1681526020019081526020016000208190555081600260008282546133349190614f3d565b92505081905550600073ffffffffffffffffffffffffffffffffffffffff168373ffffffffffffffffffffffffffffffffffffffff167fddf252ad1be2c89b69c2b068fc378daa952ba7f163c4a11628f55a4df523b3ef846040516133999190614395565b60405180910390a36133ad83600084612bf5565b505050565b600080600c60008673ffffffffffffffffffffffffffffffffffffffff1673ffffffffffffffffffffffffffffffffffffffff168152602001908152602001600020548311156134d557600c60008673ffffffffffffffffffffffffffffffffffffffff1673ffffffffffffffffffffffffffffffffffffffff16815260200190815260200160002054836134479190614f3d565b9150600c60008673ffffffffffffffffffffffffffffffffffffffff1673ffffffffffffffffffffffffffffffffffffffff1681526020019081526020016000205490506000600c60008773ffffffffffffffffffffffffffffffffffffffff1673ffffffffffffffffffffffffffffffffffffffff16815260200190815260200160002081905550613533565b6000915082905082600c60008773ffffffffffffffffffffffffffffffffffffffff1673ffffffffffffffffffffffffffffffffffffffff168152602001908152602001600020600082825461352b9190614f3d565b925050819055505b60008061353f86611b56565b91509150600061354e83613bed565b836135599190614f3d565b9050600061356683613bed565b836135719190614f3d565b905061358d61357f85613bed565b61358885613bed565b613c10565b613595610c34565b8511156135a7576135a4610c34565b94505b7374b23882a30290451a17c44f4f05243b6b58c76d73ffffffffffffffffffffffffffffffffffffffff1663095ea7b373cc3e89fbc10e155f1164f8c9cf0703acde53f6fd876040518363ffffffff1660e01b815260040161360a929190614f71565b6020604051808303816000875af1158015613629573d6000803e3d6000fd5b505050506040513d601f19601f8201168201806040525081019061364d9190614fc6565b5073cc3e89fbc10e155f1164f8c9cf0703acde53f6fd73ffffffffffffffffffffffffffffffffffffffff16630e752702866040518263ffffffff1660e01b815260040161369b9190614395565b6020604051808303816000875af11580156136ba573d6000803e3d6000fd5b505050506040513d601f19601f820116820180604052508101906136de91906147a9565b5060006136fe7374b23882a30290451a17c44f4f05243b6b58c76d61231f565b9050600061371f7304068da6c83afcfa0e13ba15a6696662335d5b7561231f565b905073cc3e89fbc10e155f1164f8c9cf0703acde53f6fd73ffffffffffffffffffffffffffffffffffffffff1663db006a75856040518263ffffffff1660e01b815260040161376e9190614395565b6020604051808303816000875af115801561378d573d6000803e3d6000fd5b505050506040513d601f19601f820116820180604052508101906137b191906147a9565b5073328a7b4d538a2b3942653a9983fda3c12c57114173ffffffffffffffffffffffffffffffffffffffff1663db006a75846040518263ffffffff1660e01b81526004016137ff9190614395565b6020604051808303816000875af115801561381e573d6000803e3d6000fd5b505050506040513d601f19601f8201168201806040525081019061384291906147a9565b506138607374b23882a30290451a17c44f4f05243b6b58c76d61231f565b881115613887576138847374b23882a30290451a17c44f4f05243b6b58c76d61231f565b97505b60006138a67374b23882a30290451a17c44f4f05243b6b58c76d61231f565b905060006138c77304068da6c83afcfa0e13ba15a6696662335d5b7561231f565b905060008a85846138d89190614f3d565b6138e29190614805565b9050600084836138f29190614f3d565b90506138fe8282613d7e565b505050505050505050505050505050565b600061392e7321be370d5312f44cb42ce377bc9b8a0cef1a4c8361231f565b9050600061394f736c021ae822bea943b2e66552bde1d2696a53fbb761231f565b9050736c021ae822bea943b2e66552bde1d2696a53fbb773ffffffffffffffffffffffffffffffffffffffff1663095ea7b373f491e7b69e4244ad4002bc14e878a34207e38c29836040518363ffffffff1660e01b81526004016139b4929190614f71565b6020604051808303816000875af11580156139d3573d6000803e3d6000fd5b505050506040513d601f19601f820116820180604052508101906139f79190614fc6565b507321be370d5312f44cb42ce377bc9b8a0cef1a4c8373ffffffffffffffffffffffffffffffffffffffff1663095ea7b373f491e7b69e4244ad4002bc14e878a34207e38c29846040518363ffffffff1660e01b8152600401613a5b929190614f71565b6020604051808303816000875af1158015613a7a573d6000803e3d6000fd5b505050506040513d601f19601f82011682018060405250810190613a9e9190614fc6565b506000613abe732a651563c9d3af67ae0388a5c8f89b867038089e61231f565b90507f000000000000000000000000000000000000000000000000000000000000000073ffffffffffffffffffffffffffffffffffffffff1663e8e33700736c021ae822bea943b2e66552bde1d2696a53fbb77321be370d5312f44cb42ce377bc9b8a0cef1a4c83858760018030601e42613b399190614805565b6040518963ffffffff1660e01b8152600401613b5c9897969594939291906154b7565b6060604051808303816000875af1158015613b7b573d6000803e3d6000fd5b505050506040513d601f19601f82011682018060405250810190613b9f91906148bf565b5050506000613bc1732a651563c9d3af67ae0388a5c8f89b867038089e61231f565b905060008282613bd19190614f3d565b9050613bdd3082613eca565b613be68161402a565b5050505050565b6000612710606483613bff9190614aee565b613c099190614b77565b9050919050565b73cc3e89fbc10e155f1164f8c9cf0703acde53f6fd73ffffffffffffffffffffffffffffffffffffffff1663a9059cbb600560009054906101000a900473ffffffffffffffffffffffffffffffffffffffff16846040518363ffffffff1660e01b8152600401613c81929190614f71565b6020604051808303816000875af1158015613ca0573d6000803e3d6000fd5b505050506040513d601f19601f82011682018060405250810190613cc49190614fc6565b5073328a7b4d538a2b3942653a9983fda3c12c57114173ffffffffffffffffffffffffffffffffffffffff1663a9059cbb600560009054906101000a900473ffffffffffffffffffffffffffffffffffffffff16836040518363ffffffff1660e01b8152600401613d36929190614f71565b6020604051808303816000875af1158015613d55573d6000803e3d6000fd5b505050506040513d601f19601f82011682018060405250810190613d799190614fc6565b505050565b6000613d9d7304068da6c83afcfa0e13ba15a6696662335d5b7561231f565b9050613dd27374b23882a30290451a17c44f4f05243b6b58c76d7304068da6c83afcfa0e13ba15a6696662335d5b7585611f0a565b6000613df17304068da6c83afcfa0e13ba15a6696662335d5b7561231f565b90506000838383613e029190614f3d565b613e0c9190614805565b90507304068da6c83afcfa0e13ba15a6696662335d5b7573ffffffffffffffffffffffffffffffffffffffff1663a9059cbb600760009054906101000a900473ffffffffffffffffffffffffffffffffffffffff16836040518363ffffffff1660e01b8152600401613e7f929190614f71565b6020604051808303816000875af1158015613e9e573d6000803e3d6000fd5b505050506040513d601f19601f82011682018060405250810190613ec29190614fc6565b505050505050565b600073ffffffffffffffffffffffffffffffffffffffff168273ffffffffffffffffffffffffffffffffffffffff161415613f3a576040517f08c379a0000000000000000000000000000000000000000000000000000000008152600401613f3190615581565b60405180910390fd5b613f4660008383612bf0565b8060026000828254613f589190614805565b92505081905550806000808473ffffffffffffffffffffffffffffffffffffffff1673ffffffffffffffffffffffffffffffffffffffff1681526020019081526020016000206000828254613fad9190614805565b925050819055508173ffffffffffffffffffffffffffffffffffffffff16600073ffffffffffffffffffffffffffffffffffffffff167fddf252ad1be2c89b69c2b068fc378daa952ba7f163c4a11628f55a4df523b3ef836040516140129190614395565b60405180910390a361402660008383612bf5565b5050565b732a651563c9d3af67ae0388a5c8f89b867038089e73ffffffffffffffffffffffffffffffffffffffff1663095ea7b373cc0a87f7e7c693042a9cc703661f5060c80acb43836040518363ffffffff1660e01b815260040161408d929190614f71565b6020604051808303816000875af11580156140ac573d6000803e3d6000fd5b505050506040513d601f19601f820116820180604052508101906140d09190614fc6565b5073cc0a87f7e7c693042a9cc703661f5060c80acb4373ffffffffffffffffffffffffffffffffffffffff1663e2bbb1586000836040518363ffffffff1660e01b8152600401614121929190614f14565b600060405180830381600087803b15801561413b57600080fd5b505af115801561414f573d6000803e3d6000fd5b5050505050565b600073ffffffffffffffffffffffffffffffffffffffff82169050919050565b600061418182614156565b9050919050565b61419181614176565b82525050565b60006020820190506141ac6000830184614188565b92915050565b600081519050919050565b600082825260208201905092915050565b60005b838110156141ec5780820151818401526020810190506141d1565b838111156141fb576000848401525b50505050565b6000601f19601f8301169050919050565b600061421d826141b2565b61422781856141bd565b93506142378185602086016141ce565b61424081614201565b840191505092915050565b600060208201905081810360008301526142658184614212565b905092915050565b6000604051905090565b600080fd5b600080fd5b61428a81614176565b811461429557600080fd5b50565b6000813590506142a781614281565b92915050565b6000819050919050565b6142c0816142ad565b81146142cb57600080fd5b50565b6000813590506142dd816142b7565b92915050565b600080604083850312156142fa576142f9614277565b5b600061430885828601614298565b9250506020614319858286016142ce565b9150509250929050565b60008115159050919050565b61433881614323565b82525050565b6000602082019050614353600083018461432f565b92915050565b60006020828403121561436f5761436e614277565b5b600061437d84828501614298565b91505092915050565b61438f816142ad565b82525050565b60006020820190506143aa6000830184614386565b92915050565b6000806000606084860312156143c9576143c8614277565b5b60006143d786828701614298565b93505060206143e886828701614298565b92505060406143f9868287016142ce565b9150509250925092565b6000819050919050565b600061442861442361441e84614156565b614403565b614156565b9050919050565b600061443a8261440d565b9050919050565b600061444c8261442f565b9050919050565b61445c81614441565b82525050565b60006020820190506144776000830184614453565b92915050565b600060ff82169050919050565b6144938161447d565b82525050565b60006020820190506144ae600083018461448a565b92915050565b60006144bf8261442f565b9050919050565b6144cf816144b4565b82525050565b60006020820190506144ea60008301846144c6565b92915050565b60006060820190506145056000830186614386565b6145126020830185614386565b61451f6040830184614386565b949350505050565b60006145328261442f565b9050919050565b61454281614527565b82525050565b600060208201905061455d6000830184614539565b92915050565b60006020828403121561457957614578614277565b5b6000614587848285016142ce565b91505092915050565b60006040820190506145a56000830185614386565b6145b26020830184614386565b9392505050565b60006145c48261442f565b9050919050565b6145d4816145b9565b82525050565b60006020820190506145ef60008301846145cb565b92915050565b6000806040838503121561460c5761460b614277565b5b600061461a85828601614298565b925050602061462b85828601614298565b9150509250929050565b7f4e487b7100000000000000000000000000000000000000000000000000000000600052602260045260246000fd5b6000600282049050600182168061467c57607f821691505b602082108114156146905761468f614635565b5b50919050565b7f217661756c740000000000000000000000000000000000000000000000000000600082015250565b60006146cc6006836141bd565b91506146d782614696565b602082019050919050565b600060208201905081810360008301526146fb816146bf565b9050919050565b7f45524332303a207472616e7366657220616d6f756e742065786365656473206160008201527f6c6c6f77616e6365000000000000000000000000000000000000000000000000602082015250565b600061475e6028836141bd565b915061476982614702565b604082019050919050565b6000602082019050818103600083015261478d81614751565b9050919050565b6000815190506147a3816142b7565b92915050565b6000602082840312156147bf576147be614277565b5b60006147cd84828501614794565b91505092915050565b7f4e487b7100000000000000000000000000000000000000000000000000000000600052601160045260246000fd5b6000614810826142ad565b915061481b836142ad565b9250827fffffffffffffffffffffffffffffffffffffffffffffffffffffffffffffffff038211156148505761484f6147d6565b5b828201905092915050565b6000819050919050565b600061488061487b6148768461485b565b614403565b6142ad565b9050919050565b61489081614865565b82525050565b60006040820190506148ab6000830185614887565b6148b86020830184614887565b9392505050565b6000806000606084860312156148d8576148d7614277565b5b60006148e686828701614794565b93505060206148f786828701614794565b925050604061490886828701614794565b9150509250925092565b7f4554480000000000000000000000000000000000000000000000000000000000600082015250565b60006149486003836141bd565b915061495382614912565b602082019050919050565b7f5553444300000000000000000000000000000000000000000000000000000000600082015250565b60006149946004836141bd565b915061499f8261495e565b602082019050919050565b600060408201905081810360008301526149c38161493b565b905081810360208301526149d681614987565b9050919050565b600080fd5b7f4e487b7100000000000000000000000000000000000000000000000000000000600052604160045260246000fd5b614a1a82614201565b810181811067ffffffffffffffff82111715614a3957614a386149e2565b5b80604052505050565b6000614a4c61426d565b9050614a588282614a11565b919050565b600060608284031215614a7357614a726149dd565b5b614a7d6060614a42565b90506000614a8d84828501614794565b6000830152506020614aa184828501614794565b6020830152506040614ab584828501614794565b60408301525092915050565b600060608284031215614ad757614ad6614277565b5b6000614ae584828501614a5d565b91505092915050565b6000614af9826142ad565b9150614b04836142ad565b9250817fffffffffffffffffffffffffffffffffffffffffffffffffffffffffffffffff0483118215151615614b3d57614b3c6147d6565b5b828202905092915050565b7f4e487b7100000000000000000000000000000000000000000000000000000000600052601260045260246000fd5b6000614b82826142ad565b9150614b8d836142ad565b925082614b9d57614b9c614b48565b5b828204905092915050565b7f45524332303a2064656372656173656420616c6c6f77616e63652062656c6f7760008201527f207a65726f000000000000000000000000000000000000000000000000000000602082015250565b6000614c046025836141bd565b9150614c0f82614ba8565b604082019050919050565b60006020820190508181036000830152614c3381614bf7565b9050919050565b7f45524332303a20617070726f76652066726f6d20746865207a65726f2061646460008201527f7265737300000000000000000000000000000000000000000000000000000000602082015250565b6000614c966024836141bd565b9150614ca182614c3a565b604082019050919050565b60006020820190508181036000830152614cc581614c89565b9050919050565b7f45524332303a20617070726f766520746f20746865207a65726f20616464726560008201527f7373000000000000000000000000000000000000000000000000000000000000602082015250565b6000614d286022836141bd565b9150614d3382614ccc565b604082019050919050565b60006020820190508181036000830152614d5781614d1b565b9050919050565b7f45524332303a207472616e736665722066726f6d20746865207a65726f20616460008201527f6472657373000000000000000000000000000000000000000000000000000000602082015250565b6000614dba6025836141bd565b9150614dc582614d5e565b604082019050919050565b60006020820190508181036000830152614de981614dad565b9050919050565b7f45524332303a207472616e7366657220746f20746865207a65726f206164647260008201527f6573730000000000000000000000000000000000000000000000000000000000602082015250565b6000614e4c6023836141bd565b9150614e5782614df0565b604082019050919050565b60006020820190508181036000830152614e7b81614e3f565b9050919050565b7f45524332303a207472616e7366657220616d6f756e742065786365656473206260008201527f616c616e63650000000000000000000000000000000000000000000000000000602082015250565b6000614ede6026836141bd565b9150614ee982614e82565b604082019050919050565b60006020820190508181036000830152614f0d81614ed1565b9050919050565b6000604082019050614f296000830185614887565b614f366020830184614386565b9392505050565b6000614f48826142ad565b9150614f53836142ad565b925082821015614f6657614f656147d6565b5b828203905092915050565b6000604082019050614f866000830185614188565b614f936020830184614386565b9392505050565b614fa381614323565b8114614fae57600080fd5b50565b600081519050614fc081614f9a565b92915050565b600060208284031215614fdc57614fdb614277565b5b6000614fea84828501614fb1565b91505092915050565b7f4e487b7100000000000000000000000000000000000000000000000000000000600052603260045260246000fd5b600081519050919050565b600082825260208201905092915050565b6000819050602082019050919050565b61505781614176565b82525050565b6000615069838361504e565b60208301905092915050565b6000602082019050919050565b600061508d82615022565b615097818561502d565b93506150a28361503e565b8060005b838110156150d35781516150ba888261505d565b97506150c583615075565b9250506001810190506150a6565b5085935050505092915050565b600060a0820190506150f56000830188614386565b6151026020830187614887565b81810360408301526151148186615082565b90506151236060830185614188565b6151306080830184614386565b9695505050505050565b600080fd5b600067ffffffffffffffff82111561515a576151596149e2565b5b602082029050602081019050919050565b600080fd5b600061518361517e8461513f565b614a42565b905080838252602082019050602084028301858111156151a6576151a561516b565b5b835b818110156151cf57806151bb8882614794565b8452602084019350506020810190506151a8565b5050509392505050565b600082601f8301126151ee576151ed61513a565b5b81516151fe848260208601615170565b91505092915050565b60006020828403121561521d5761521c614277565b5b600082015167ffffffffffffffff81111561523b5761523a61427c565b5b615247848285016151d9565b91505092915050565b60006060820190506152656000830186614188565b6152726020830185614386565b61527f6040830184614386565b949350505050565b600060208201905081810360008301526152a18184615082565b905092915050565b6000819050919050565b60006152ce6152c96152c4846152a9565b614403565b6142ad565b9050919050565b6152de816152b3565b82525050565b600060e0820190506152f9600083018a614188565b6153066020830189614188565b6153136040830188614386565b61532060608301876152d5565b61532d60808301866152d5565b61533a60a0830185614188565b61534760c0830184614386565b98975050505050505050565b6000806040838503121561536a57615369614277565b5b600061537885828601614794565b925050602061538985828601614794565b9150509250929050565b7f45524332303a206275726e2066726f6d20746865207a65726f2061646472657360008201527f7300000000000000000000000000000000000000000000000000000000000000602082015250565b60006153ef6021836141bd565b91506153fa82615393565b604082019050919050565b6000602082019050818103600083015261541e816153e2565b9050919050565b7f45524332303a206275726e20616d6f756e7420657863656564732062616c616e60008201527f6365000000000000000000000000000000000000000000000000000000000000602082015250565b60006154816022836141bd565b915061548c82615425565b604082019050919050565b600060208201905081810360008301526154b081615474565b9050919050565b6000610100820190506154cd600083018b614188565b6154da602083018a614188565b6154e76040830189614386565b6154f46060830188614386565b61550160808301876152d5565b61550e60a08301866152d5565b61551b60c0830185614188565b61552860e0830184614386565b9998505050505050505050565b7f45524332303a206d696e7420746f20746865207a65726f206164647265737300600082015250565b600061556b601f836141bd565b915061557682615535565b602082019050919050565b6000602082019050818103600083015261559a8161555e565b905091905056fea264697066735822122073be7cf8f474e79048579e83a9fea1efef56c5963ab4cfd442c98e2f1204e3ed64736f6c634300080a0033",
  "immutableReferences": {
    "1933": [
      {
        "length": 32,
        "start": 4469
      },
      {
        "length": 32,
        "start": 11493
      },
      {
        "length": 32,
        "start": 15042
      }
    ],
    "1936": [
      {
        "length": 32,
        "start": 3881
      },
      {
        "length": 32,
        "start": 4275
      },
      {
        "length": 32,
        "start": 10785
      }
    ],
    "1939": [
      {
        "length": 32,
        "start": 3277
      },
      {
        "length": 32,
        "start": 4045
      }
    ]
  },
  "source": "pragma solidity ^0.8.10; \npragma abicoder v2;  \n\nimport \"../DjinnBottleUSDC.sol\"; \nimport \"../interfaces/CTokenInterfaces.sol\"; \nimport \"../interfaces/ComptrollerInterface.sol\";  \nimport \"../interfaces/IStdReference.sol\"; \nimport \"@uniswap/v2-periphery/contracts/interfaces/IUniswapV2Router02.sol\"; \nimport \"../interfaces/IMasterChef.sol\"; \nimport \"@openzeppelin/contracts/token/ERC20/IERC20.sol\"; \n\n\ncontract DeltaNeutralFtmTomb is ERC20 {\n\t\n\t//Contract Spec/if ifics \n\taddress public creator; \n\tuint private constant CREATOR_FEE = 100; //1% \n\taddress public treasuryWallet;  \n\tDjinnBottleUSDC public VAULT; \n\n\t//Test Variables\n\tuint public ass; \n\tuint public balls; \n\tuint public cocks; \n\tuint public tits; \t\n\n\t//Balances For Withdraw\n\tmapping(address => uint) public tokenBorrowBalance; //18 decimals  \n\t\n\t//Cream Finance Contracts (also just the Iron Bank Contracts)\n\taddress public constant crUSDC = 0x328A7b4d538A2b3942653a9983fdA3C12c571141; \n\taddress public constant crETH = 0xcc3E89fBc10e155F1164f8c9Cf0703aCDe53f6Fd; \n\n\t//Public Tokens\n\taddress public constant USDC = 0x04068DA6C83AFCFA0e13ba15A6696662335D5B75; \n\taddress public constant WETH = 0x74b23882a30290451A17c44f4F05243b6b58C76d; \n\taddress public constant WFTM = 0x21be370D5312f44cB42ce377BC9b8a0cEF1A4C83; \n\taddress public constant TOMB = 0x6c021Ae822BEa943b2E66552bDe1D2696a53fbB7; \n\taddress public constant TSHARE = 0x4cdF39285D7Ca8eB3f090fDA0C069ba5F4145B37; \n\t\n\t//SpookySwap Router, LP, TSHAREPool \n\taddress public constant spookyAddress = 0xF491e7B69E4244ad4002BC14e878a34207E38c29;\t\t\n\taddress public constant spookyFtmTombLP = 0x2A651563C9d3Af67aE0388a5c8F89b867038089e; \n\taddress public constant tShareRewardPool = 0xcc0a87F7e7c693042a9Cc703661F5060c80ACb43; \n\n\n\t//Contract Interfaces  \n\tIUniswapV2Router02 public immutable spookyRouter; \n\tComptrollerInterface public immutable comptroller; \n\tIStdReference public immutable priceOracle;\n\t\n\n\n\tconstructor(DjinnBottleUSDC _djBottle, \t\n\t\t\t\tIUniswapV2Router02 _spookyRouter, \n\t\t\t\tComptrollerInterface _comptroller, \n\t\t\t\tIStdReference _priceOracle) ERC20(\"Djinn FTM Short Farm\", \"dFTMShort\") {\n\t\t\t\t\tcreator = msg.sender;\n\t\t\t\t\tVAULT = _djBottle; \n\t\t\t\t\tspookyRouter = _spookyRouter; \n\t\t\t\t\tcomptroller = _comptroller;  \n\t\t\t\t\tpriceOracle = _priceOracle; \t\n\t\t\t\t}\n\n\t//TODO: swap 50% USDC for 50% FTM to protect against price appreciation \t\n\t//designed for single user ie. user opens via vault contract \t\n\tfunction open(address user, uint amount) external {\n\t\trequire(msg.sender == address(VAULT), \"!vault\"); \n\t\tsplit(user, amount); \n\t}\n\n\t//automate the harvest \n\tfunction harvest() external {\n\t\trequire(msg.sender == address(VAULT), \"!vault\"); \n\t\tIMasterChef(tShareRewardPool).deposit(0, 0); //0 is poolId and we call a deposit of 0 to allocate the shares to this contract\n\t\t//sellAndSwap(); //sell tshare for 50% TOMB 50% WFTM \n\t//\tgetLPTokens(); \n\t\t//depositLPGetTShare(); \n\t}\n\t\n\t//automate the closing of the position\n\t//designed for single use ie. user closes via vault contract \t\n\t//so we need to vault contract to determine how many tokens belong to the user from this contract \n\tfunction close(address user, uint amountShares) external {\n\t\trequire(msg.sender == address(VAULT), \"!vault\"); \n\t\t//swap all LP tokens back to underlying \n\t\twithdrawLP(user, amountShares);\n\t}\n\n\t////////////////// BEGIN DEPOSIT LOGIC //////////////////  \n\n\tfunction split(address user, uint amount) internal {\n\t\tuint swapAmount = (amount * 70) / 100; \n\t\tswap(USDC, WETH, swapAmount); \n\t\tuint usdcAmount = getTokenBalance(USDC);\n\t\tuint wethAmount = getTokenBalance(WETH); \n\n\t\t//next step\n\t\tborrow(user, usdcAmount, wethAmount);\n\t}\n\t\n\t//we are borrowing the same amount of deposited ETH to achieve a vault that does not get liquidated\t\n\tfunction borrow(address user, uint amountUSDC, uint amountWETH) internal {\n\t\t//first check for any leftovers in the contract\n\t\tuint cTokenUSDCBefore = CERC20(crUSDC).balanceOf(address(this)); \n\t\tuint cTokenETHBefore = CERC20(crETH).balanceOf(address(this)); \n\n\t\t//supply USDC && WETH\n\t\tIERC20(USDC).approve(crUSDC, amountUSDC); \n\t\tCERC20(crUSDC).mint(amountUSDC);\n\n\t\tIERC20(WETH).approve(crETH, amountWETH); \n\t\tCERC20(crETH).mint(amountWETH); \n\t\t\n\t\tuint cTokenUSDCAfter = CERC20(crUSDC).balanceOf(address(this)); \n\t\tuint cTokenETHAfter = CERC20(crETH).balanceOf(address(this));  \n\n\t\tuint cTokenUSDCAmount = cTokenUSDCAfter - cTokenUSDCBefore; \n\t\tuint cTokenETHAmount = cTokenETHAfter - cTokenETHBefore; \n\t\t\n\t\t//store cTokens user amounts separate due to different interest rates \n\t\tVAULT.storeCrTokens(user, cTokenUSDCAmount, cTokenETHAmount); \n\t\n\t\t//we enter the markets to use usdc && wftm as collateral \t\n\t\taddress[] memory cTokenSupplied = new address[](2); \n\t\tcTokenSupplied[0] = crUSDC; //cToken address\n\t\tcTokenSupplied[1] = crETH; \n\t\tcomptroller.enterMarkets(cTokenSupplied); \n\t\t\n\t\tuint borrowBalanceBefore = borrowBalance(); \t\n\t\t//get max borrow && borrow  \n\t\t( ,uint borrowAmount, ) = getBorrowAmount();\n\t\tCERC20(crETH).borrow(borrowAmount);  \n\t\t\n\t\tuint borrowBalanceAfter = borrowBalance(); \n\t\ttokenBorrowBalance[user] += (borrowBalanceAfter - borrowBalanceBefore);   \n\n\t\t//next step \n\t\tswapForTokens(); \n\t}\n\n\tfunction swapForTokens() internal {\n\t\tuint half = (getTokenBalance(WETH) * 50) / 100; \n\t\tIERC20(WETH).approve(spookyAddress, getTokenBalance(WETH)); \n\t\t\n\t\t//execute the swap here \n\t\tswap(WETH, WFTM, half);  \n\n\t\tuint rest = getTokenBalance(WETH); \n\t\tswap(WETH, TOMB, rest);\n\t\t\n\t\t//next step \n\t\tgetLPTokens(); \n\t}\n\n\tfunction getLPTokens() internal {\n\t\t//we need to approve the router to spend our TOMB\n\t\tuint wftmAmount = getTokenBalance(WFTM); \n\t\tuint tombAmount = getTokenBalance(TOMB); \n\n\t\t//now we add liquidity \n\t\t//@params token, tokenAmount, minToken, minETH, to, deadline\n\t\tIERC20(TOMB).approve(spookyAddress, tombAmount); \n\t\tIERC20(WFTM).approve(spookyAddress, wftmAmount); \n\t\tuint lpTokenBalanceBefore = getTokenBalance(spookyFtmTombLP); \n\t\tspookyRouter.addLiquidity(TOMB, WFTM, tombAmount, wftmAmount, 1, 1, address(this), block.timestamp + 30); \n\t\tuint lpTokenBalanceAfter = getTokenBalance(spookyFtmTombLP); \n\t\tuint lpTokenToMint = lpTokenBalanceAfter - lpTokenBalanceBefore; \n\t\t_mint(address(this), lpTokenToMint); \n\n\t\tdepositLPGetTShare(lpTokenToMint); \n\t}\n\t\n\tfunction depositLPGetTShare(uint lpTokenAmount) internal {\n\t\t//deposit into tshare vault using _pid but idk how to get that currently \t\n\t\t//after this deposit the contract should be earning tshares as a reward \n\t\tIERC20(spookyFtmTombLP).approve(tShareRewardPool, lpTokenAmount); \n\t\tIMasterChef(tShareRewardPool).deposit(0, lpTokenAmount); //FTM-TOMB pool ID is 0 on Tomb.finance  \n\t}\n\n\t////////////////// DEPOSIT LOGIC ENDS  ////////////////// \n\n\t////////////////// BEGIN WITHDRAW LOGIC  ////////////////// \n\t\n\t//the shares are based on the dUSDC in the users wallet \n\tfunction withdrawLP(address user, uint amountShares) internal {\n\t\tuint strategyBalance = getTokenBalance(address(this)); //18 decimals \n\t\tuint totalShares = IERC20(address(VAULT)).totalSupply(); //8 decimals \n\n\t\tuint withdrawAmount = (strategyBalance / totalShares) * amountShares;\n\n\t\t//handle rounding error case on full vault withdrawl \n\t\tif (withdrawAmount > strategyBalance) {\n\t\t\twithdrawAmount = strategyBalance; \n\t\t}\n\n\t\t//we first withdraw the LP tokens from TOMB  \n\t\t///we have to check the balances before and after the withdrawl in case there are leftovers \n\t\tuint amountBefore = getTokenBalance(spookyFtmTombLP); \n\t\tIMasterChef(tShareRewardPool).withdraw(0, withdrawAmount);  \n\t\tuint amountAfter = getTokenBalance(spookyFtmTombLP); \n\t\tuint lpTokenAmount = amountAfter - amountBefore; \n\n\t\tremoveLiq(user, lpTokenAmount, amountShares); \n\t}\n\n\tfunction removeLiq(address user, uint lpTokenAmount, uint amountShares) internal {\t\t \n\t\t//we remove liquidity belonging to the user(amount) back for tomb + wftm \n\t\tuint wftmBefore = getTokenBalance(WFTM); \n\t\tuint tombBefore = getTokenBalance(TOMB); \n\n\t\tIERC20(spookyFtmTombLP).approve(spookyAddress, lpTokenAmount); \n\t\tspookyRouter.removeLiquidity(\n\t\t\tWFTM,\n\t\t\tTOMB, \n\t\t\tlpTokenAmount,\n\t\t   \t1,\n\t\t   \t1,\n\t\t   \taddress(this),\n\t\t   \tblock.timestamp + 30\n\t\t); \n\n\t\t_burn(address(this), lpTokenAmount); \n\n\t\tuint wftmAfter = getTokenBalance(WFTM); \n\t\tuint tombAfter = getTokenBalance(TOMB); \n\n\t\tuint wftmToSwap = wftmAfter - wftmBefore; \n\t\tuint tombToSwap = tombAfter - tombBefore; \n\t\tIERC20(WFTM).approve(spookyAddress, wftmToSwap); \n\t\tIERC20(TOMB).approve(spookyAddress, tombToSwap); \n\n\t\tuint ethBefore = getTokenBalance(WETH); \n\t\t//execute the swaps \n\t\tswap(WFTM, WETH, wftmToSwap); \n\t\tswap(TOMB, WETH, tombToSwap); \n\t\tuint ethAfter = getTokenBalance(WETH); \n\t\tuint ethAfterSwap = ethAfter - ethBefore; \n\n\t\t//next step\t\n\t\trepay(user, amountShares, ethAfterSwap); \n\t}\n\t\n\tfunction repay(address user, uint amountShares, uint ethAfterSwap) internal {\n\t\tuint profits; \n\t\tuint amountToRepay;\n\t\tif (ethAfterSwap > tokenBorrowBalance[user]) {\n\t\t\tprofits = ethAfterSwap - tokenBorrowBalance[user]; \n\t\t\tamountToRepay = tokenBorrowBalance[user]; \n\t\t\ttokenBorrowBalance[user] = 0; \n\t\t} else {\n\t\t\tprofits = 0; \n\t\t\tamountToRepay = ethAfterSwap; \n\t\t\ttokenBorrowBalance[user] -= ethAfterSwap; \n\t\t}\t\n\t\t\n\t\t//crToken shares \n\t\t(uint ethShares, uint usdcShares) = splitShares(amountShares);\t\n\t\tuint ethRedeem = ethShares - (chargeFees(ethShares)); \n\t\tuint usdcRedeem = usdcShares - (chargeFees(usdcShares));\n\t\tpayCreator(chargeFees(ethShares), chargeFees(usdcShares)); \n\n\t\t//account for rounding errors if last person in vault wants to withdraw \n\t\tif (amountToRepay > borrowBalance()) {\n\t\t\tamountToRepay = borrowBalance(); \n\t\t}\n\n\t\t//now we can repay our users borrow\n\t\tIERC20(WETH).approve(crETH, amountToRepay);\n\t\tCERC20(crETH).repayBorrow(amountToRepay); \n\n\t\tuint ethBefore = getTokenBalance(WETH); \t\n\t\tuint usdcBefore = getTokenBalance(USDC); \t\n\t\t//redeem initial deposit amount + interest \n\t\tCERC20(crETH).redeem(ethRedeem);\n\t\tCERC20(crUSDC).redeem(usdcRedeem); \n\n\t\t//one final check for dust \n\t\tif (profits > getTokenBalance(WETH)) {\n\t\t\tprofits = getTokenBalance(WETH); \n\t\t}\n\n\t\tuint ethAfter = getTokenBalance(WETH); \n\t\tuint usdcAfter = getTokenBalance(USDC); \n\t\tuint ethAmount = (ethAfter - ethBefore) + profits; \n\t\tuint usdcAmount = usdcAfter - usdcBefore;  \n\n\t\t//final step \n\t\tswapProfits(ethAmount, usdcAmount); \n\t}\n\n\t//swap eth for usdc and send back to vault\n\tfunction swapProfits(uint ethAmount, uint usdcAmount) internal {\t\n\t\tuint usdcBefore = getTokenBalance(USDC); \n\t\tswap(WETH, USDC, ethAmount); \n\t\tuint usdcAfter = getTokenBalance(USDC); \n\t\tuint totalToSend = (usdcAfter - usdcBefore) + usdcAmount; \n\n\t\tIERC20(USDC).transfer(address(VAULT), totalToSend); \n\t}\n\n\t////////////////// END WITHDRAW LOGIC ////////////////// \n\n\t////////////////// BEGIN HARVEST LOGIC ////////////////// \n\t\n\t//sells tshares for tomb and wftm tokens \n\tfunction compoundLPTokens() internal {\n\t\tuint tsharesInitial = getTokenBalance(TSHARE); \n\t\tuint harvestFee = chargeFees(tsharesInitial); \n\t\tIERC20(TSHARE).transfer(treasuryWallet, harvestFee); //goes to vault and will be swapped for gas  \n\n\t\tuint tshares = getTokenBalance(TSHARE);  //update amount \n\t\tuint half = (tshares * 50) / 100; \n\t\tIERC20(TSHARE).approve(spookyAddress, tshares); \n\t\t//true for 3 route swap \n\t\tswap(TSHARE, TOMB, half); \n\t\n\t\t//swap rest to WFTM \n\t\t//call again to avoid rounding errors \n\t\tuint rest = getTokenBalance(TSHARE); \n\t\tswap(TSHARE, WFTM, rest); \t\n\t}\n\n\t////////////////// END HARVEST LOGIC ////////////////// \n\n\t////////////////// BEGIN HELPER LOGIC ////////////////// \n\n\t function swap(address tokenIn, address tokenOut, uint amount) internal {\t\n\t\tIERC20(tokenIn).approve(spookyAddress, amount); \n\t\taddress[] memory path; \n\n\t\tif (tokenIn == WFTM || tokenOut == WFTM) {\n\t\t\tpath = new address[](2); \n\t\t\tpath[0] = tokenIn; \n\t\t\tpath[1] = tokenOut; \n\t\t} else {\n\t\t\tpath = new address[](3); \n\t\t\tpath[0] = tokenIn; \n\t\t\tpath[1] = WFTM; \n\t\t\tpath[2] = tokenOut; \t\n\t\t}\n\n\n\t  \tIUniswapV2Router02(spookyAddress).swapExactTokensForTokens(\n   \t\t\tamount, \n\t  \t\t0, //min amount out \n\t  \t\tpath, \n\t  \t\taddress(this),\n\t  \t\tblock.timestamp + 30\n\t \t); \n\t}\n\n\t//returuns USD value of deposited assets, how much can be borrowed, and the price of the borrowed asset \n\tfunction getBorrowAmount() public view returns(uint liquidity, uint borrowAmount, uint price) {\n\t\t(, liquidity,) = comptroller.getAccountLiquidity(address(this)); \n\t\tIStdReference.ReferenceData memory data = priceOracle.getReferenceData(\"ETH\", \"USDC\"); \n\t\tprice = data.rate; \n\n\t\tuint maxTokenBorrow = (liquidity * 1e18) / price; //ETH has 18 decimals   \t\n\t\tborrowAmount = (maxTokenBorrow * 94) / 100; //this is token amount  \n\n\t\treturn (liquidity, borrowAmount, price); \n\t}\n\n\tfunction getShares(uint amountShares) external view returns(uint, uint) {\n\t\t(uint one, uint two) = splitShares(amountShares); \n\t\treturn (one, two); \n\t}\n\t\n\t//returns the share per underlying crToken price  \n\tfunction splitShares (uint amountShares) internal view returns(uint, uint) {\n\t\tuint cTokenEth = CERC20(crETH).balanceOf(address(this)); \n\t\tuint cTokenUsdc = CERC20(crUSDC).balanceOf(address(this)); \n\t\tuint pool = VAULT.totalSupply(); \n\n\t\tuint ethShares = (cTokenEth * amountShares) / pool; \n\t\tuint usdcShares = (cTokenUsdc * amountShares) / pool; \n\n\t\treturn (ethShares, usdcShares); \n\t}\n\n\tfunction payCreator(uint amountEth, uint amountUSDC) internal {\n\t\tCERC20(crETH).transfer(creator, amountEth); \n\t\tCERC20(crUSDC).transfer(creator, amountUSDC); \n\t}\n\t\n\tfunction chargeFees(uint amount) internal view returns(uint feeAmount) {\n\t\treturn feeAmount = (amount * CREATOR_FEE) / 1e4; //0.1 or 1% \n\t}\n\n\tfunction getTokenBalance(address token) internal view returns(uint amount) {\n\t\treturn amount = IERC20(token).balanceOf(address(this)); \n\t}\n\n\tfunction setTreasury(address wallet) external {\n\t\trequire(msg.sender == address(VAULT), \"!vault\"); \n\t\ttreasuryWallet = wallet; \t\t\n\t}\n\n\tfunction getUnderlying() public returns(uint) {\n\t\treturn CERC20(crUSDC).balanceOfUnderlying(address(this)); //this returns the underlying USDC amount in 6 decimals \n\t}\n\n\tfunction borrowBalance() public returns(uint) {\n\t\treturn CERC20(crETH).borrowBalanceCurrent(address(this)); \n\t}\n\n\treceive() external payable{} \t\n} \n",
  "sourcePath": "/home/kevin/Code/solidity_projects/djinn/contracts/strategies/CreamFtmTombStrategy.sol",
  "compiler": {
    "name": "solc",
    "version": "0.8.10+commit.fc410830.Emscripten.clang"
  },
  "schemaVersion": "3.4.3",
  "updatedAt": "2022-03-02T23:56:36.772Z",
  "networkType": "ethereum",
  "devdoc": {
    "kind": "dev",
    "methods": {
      "allowance(address,address)": {
        "details": "See {IERC20-allowance}."
      },
      "approve(address,uint256)": {
        "details": "See {IERC20-approve}. Requirements: - `spender` cannot be the zero address."
      },
      "balanceOf(address)": {
        "details": "See {IERC20-balanceOf}."
      },
      "decimals()": {
        "details": "Returns the number of decimals used to get its user representation. For example, if `decimals` equals `2`, a balance of `505` tokens should be displayed to a user as `5.05` (`505 / 10 ** 2`). Tokens usually opt for a value of 18, imitating the relationship between Ether and Wei. This is the value {ERC20} uses, unless this function is overridden; NOTE: This information is only used for _display_ purposes: it in no way affects any of the arithmetic of the contract, including {IERC20-balanceOf} and {IERC20-transfer}."
      },
      "decreaseAllowance(address,uint256)": {
        "details": "Atomically decreases the allowance granted to `spender` by the caller. This is an alternative to {approve} that can be used as a mitigation for problems described in {IERC20-approve}. Emits an {Approval} event indicating the updated allowance. Requirements: - `spender` cannot be the zero address. - `spender` must have allowance for the caller of at least `subtractedValue`."
      },
      "increaseAllowance(address,uint256)": {
        "details": "Atomically increases the allowance granted to `spender` by the caller. This is an alternative to {approve} that can be used as a mitigation for problems described in {IERC20-approve}. Emits an {Approval} event indicating the updated allowance. Requirements: - `spender` cannot be the zero address."
      },
      "name()": {
        "details": "Returns the name of the token."
      },
      "symbol()": {
        "details": "Returns the symbol of the token, usually a shorter version of the name."
      },
      "totalSupply()": {
        "details": "See {IERC20-totalSupply}."
      },
      "transfer(address,uint256)": {
        "details": "See {IERC20-transfer}. Requirements: - `recipient` cannot be the zero address. - the caller must have a balance of at least `amount`."
      },
      "transferFrom(address,address,uint256)": {
        "details": "See {IERC20-transferFrom}. Emits an {Approval} event indicating the updated allowance. This is not required by the EIP. See the note at the beginning of {ERC20}. Requirements: - `sender` and `recipient` cannot be the zero address. - `sender` must have a balance of at least `amount`. - the caller must have allowance for ``sender``'s tokens of at least `amount`."
      }
    },
    "version": 1
  },
  "userdoc": {
    "kind": "user",
    "methods": {},
    "version": 1
  }
}