{
  "contractName": "DjinnBottleUSDC",
  "abi": [
    {
      "inputs": [
        {
          "internalType": "address",
          "name": "_usdc",
          "type": "address"
        },
        {
          "internalType": "address",
          "name": "_treasury",
          "type": "address"
        }
      ],
      "stateMutability": "nonpayable",
      "type": "constructor"
    },
    {
      "anonymous": false,
      "inputs": [
        {
          "indexed": true,
          "internalType": "address",
          "name": "owner",
          "type": "address"
        },
        {
          "indexed": true,
          "internalType": "address",
          "name": "spender",
          "type": "address"
        },
        {
          "indexed": false,
          "internalType": "uint256",
          "name": "value",
          "type": "uint256"
        }
      ],
      "name": "Approval",
      "type": "event"
    },
    {
      "anonymous": false,
      "inputs": [
        {
          "indexed": true,
          "internalType": "address",
          "name": "from",
          "type": "address"
        },
        {
          "indexed": true,
          "internalType": "address",
          "name": "to",
          "type": "address"
        },
        {
          "indexed": false,
          "internalType": "uint256",
          "name": "value",
          "type": "uint256"
        }
      ],
      "name": "Transfer",
      "type": "event"
    },
    {
      "inputs": [],
      "name": "PROTOCOL_TREASURY",
      "outputs": [
        {
          "internalType": "address",
          "name": "",
          "type": "address"
        }
      ],
      "stateMutability": "view",
      "type": "function",
      "constant": true
    },
    {
      "inputs": [
        {
          "internalType": "address",
          "name": "owner",
          "type": "address"
        },
        {
          "internalType": "address",
          "name": "spender",
          "type": "address"
        }
      ],
      "name": "allowance",
      "outputs": [
        {
          "internalType": "uint256",
          "name": "",
          "type": "uint256"
        }
      ],
      "stateMutability": "view",
      "type": "function",
      "constant": true
    },
    {
      "inputs": [
        {
          "internalType": "address",
          "name": "spender",
          "type": "address"
        },
        {
          "internalType": "uint256",
          "name": "amount",
          "type": "uint256"
        }
      ],
      "name": "approve",
      "outputs": [
        {
          "internalType": "bool",
          "name": "",
          "type": "bool"
        }
      ],
      "stateMutability": "nonpayable",
      "type": "function"
    },
    {
      "inputs": [
        {
          "internalType": "address",
          "name": "account",
          "type": "address"
        }
      ],
      "name": "balanceOf",
      "outputs": [
        {
          "internalType": "uint256",
          "name": "",
          "type": "uint256"
        }
      ],
      "stateMutability": "view",
      "type": "function",
      "constant": true
    },
    {
      "inputs": [],
      "name": "decimals",
      "outputs": [
        {
          "internalType": "uint8",
          "name": "",
          "type": "uint8"
        }
      ],
      "stateMutability": "view",
      "type": "function",
      "constant": true
    },
    {
      "inputs": [
        {
          "internalType": "address",
          "name": "spender",
          "type": "address"
        },
        {
          "internalType": "uint256",
          "name": "subtractedValue",
          "type": "uint256"
        }
      ],
      "name": "decreaseAllowance",
      "outputs": [
        {
          "internalType": "bool",
          "name": "",
          "type": "bool"
        }
      ],
      "stateMutability": "nonpayable",
      "type": "function"
    },
    {
      "inputs": [],
      "name": "deltaNeutral",
      "outputs": [
        {
          "internalType": "contract DeltaNeutralFtmTomb",
          "name": "",
          "type": "address"
        }
      ],
      "stateMutability": "view",
      "type": "function",
      "constant": true
    },
    {
      "inputs": [
        {
          "internalType": "address",
          "name": "spender",
          "type": "address"
        },
        {
          "internalType": "uint256",
          "name": "addedValue",
          "type": "uint256"
        }
      ],
      "name": "increaseAllowance",
      "outputs": [
        {
          "internalType": "bool",
          "name": "",
          "type": "bool"
        }
      ],
      "stateMutability": "nonpayable",
      "type": "function"
    },
    {
      "inputs": [],
      "name": "isInitialized",
      "outputs": [
        {
          "internalType": "bool",
          "name": "",
          "type": "bool"
        }
      ],
      "stateMutability": "view",
      "type": "function",
      "constant": true
    },
    {
      "inputs": [],
      "name": "isPaused",
      "outputs": [
        {
          "internalType": "bool",
          "name": "",
          "type": "bool"
        }
      ],
      "stateMutability": "view",
      "type": "function",
      "constant": true
    },
    {
      "inputs": [],
      "name": "name",
      "outputs": [
        {
          "internalType": "string",
          "name": "",
          "type": "string"
        }
      ],
      "stateMutability": "view",
      "type": "function",
      "constant": true
    },
    {
      "inputs": [],
      "name": "symbol",
      "outputs": [
        {
          "internalType": "string",
          "name": "",
          "type": "string"
        }
      ],
      "stateMutability": "view",
      "type": "function",
      "constant": true
    },
    {
      "inputs": [],
      "name": "totalSupply",
      "outputs": [
        {
          "internalType": "uint256",
          "name": "",
          "type": "uint256"
        }
      ],
      "stateMutability": "view",
      "type": "function",
      "constant": true
    },
    {
      "inputs": [
        {
          "internalType": "address",
          "name": "recipient",
          "type": "address"
        },
        {
          "internalType": "uint256",
          "name": "amount",
          "type": "uint256"
        }
      ],
      "name": "transfer",
      "outputs": [
        {
          "internalType": "bool",
          "name": "",
          "type": "bool"
        }
      ],
      "stateMutability": "nonpayable",
      "type": "function"
    },
    {
      "inputs": [
        {
          "internalType": "address",
          "name": "sender",
          "type": "address"
        },
        {
          "internalType": "address",
          "name": "recipient",
          "type": "address"
        },
        {
          "internalType": "uint256",
          "name": "amount",
          "type": "uint256"
        }
      ],
      "name": "transferFrom",
      "outputs": [
        {
          "internalType": "bool",
          "name": "",
          "type": "bool"
        }
      ],
      "stateMutability": "nonpayable",
      "type": "function"
    },
    {
      "inputs": [],
      "name": "usdc",
      "outputs": [
        {
          "internalType": "contract IERC20",
          "name": "",
          "type": "address"
        }
      ],
      "stateMutability": "view",
      "type": "function",
      "constant": true
    },
    {
      "inputs": [
        {
          "internalType": "address",
          "name": "newAddress",
          "type": "address"
        }
      ],
      "name": "changeTreasuryAddress",
      "outputs": [],
      "stateMutability": "nonpayable",
      "type": "function"
    },
    {
      "inputs": [
        {
          "internalType": "address",
          "name": "newAdmin",
          "type": "address"
        }
      ],
      "name": "changeAdmin",
      "outputs": [],
      "stateMutability": "nonpayable",
      "type": "function"
    },
    {
      "inputs": [
        {
          "internalType": "contract DeltaNeutralFtmTomb",
          "name": "_deltaNeutral",
          "type": "address"
        }
      ],
      "name": "initialize",
      "outputs": [],
      "stateMutability": "nonpayable",
      "type": "function"
    },
    {
      "inputs": [
        {
          "internalType": "uint256",
          "name": "amount",
          "type": "uint256"
        }
      ],
      "name": "deposit",
      "outputs": [],
      "stateMutability": "nonpayable",
      "type": "function"
    },
    {
      "inputs": [
        {
          "internalType": "uint256",
          "name": "amountShares",
          "type": "uint256"
        }
      ],
      "name": "withdraw",
      "outputs": [],
      "stateMutability": "nonpayable",
      "type": "function"
    },
    {
      "inputs": [],
      "name": "harvest",
      "outputs": [],
      "stateMutability": "nonpayable",
      "type": "function"
    },
    {
      "inputs": [
        {
          "internalType": "address",
          "name": "user",
          "type": "address"
        },
        {
          "internalType": "uint256",
          "name": "amountUSDC",
          "type": "uint256"
        },
        {
          "internalType": "uint256",
          "name": "amountETH",
          "type": "uint256"
        }
      ],
      "name": "storeCrTokens",
      "outputs": [],
      "stateMutability": "nonpayable",
      "type": "function"
    },
    {
      "inputs": [],
      "name": "pause",
      "outputs": [],
      "stateMutability": "nonpayable",
      "type": "function"
    }
  ],
  "bytecode": "0x60806040523480156200001157600080fd5b50604051620032e3380380620032e38339818101604052810190620000379190620002bc565b6040518060400160405280601881526020017f446a696e6e2046696e616e63652055534443205661756c7400000000000000008152506040518060400160405280600681526020017f64665553444300000000000000000000000000000000000000000000000000008152508160039080519060200190620000bb929190620001a2565b508060049080519060200190620000d4929190620001a2565b50505033600760006101000a81548173ffffffffffffffffffffffffffffffffffffffff021916908373ffffffffffffffffffffffffffffffffffffffff16021790555081600560006101000a81548173ffffffffffffffffffffffffffffffffffffffff021916908373ffffffffffffffffffffffffffffffffffffffff16021790555080600660006101000a81548173ffffffffffffffffffffffffffffffffffffffff021916908373ffffffffffffffffffffffffffffffffffffffff160217905550505062000368565b828054620001b09062000332565b90600052602060002090601f016020900481019282620001d4576000855562000220565b82601f10620001ef57805160ff191683800117855562000220565b8280016001018555821562000220579182015b828111156200021f57825182559160200191906001019062000202565b5b5090506200022f919062000233565b5090565b5b808211156200024e57600081600090555060010162000234565b5090565b600080fd5b600073ffffffffffffffffffffffffffffffffffffffff82169050919050565b6000620002848262000257565b9050919050565b620002968162000277565b8114620002a257600080fd5b50565b600081519050620002b6816200028b565b92915050565b60008060408385031215620002d657620002d562000252565b5b6000620002e685828601620002a5565b9250506020620002f985828601620002a5565b9150509250929050565b7f4e487b7100000000000000000000000000000000000000000000000000000000600052602260045260246000fd5b600060028204905060018216806200034b57607f821691505b6020821081141562000362576200036162000303565b5b50919050565b612f6b80620003786000396000f3fe608060405234801561001057600080fd5b50600436106101585760003560e01c806370a08231116100c3578063a6f353f01161007c578063a6f353f0146103a5578063a9059cbb146103c1578063b187bd26146103f1578063b6b55f251461040f578063c4d66de81461042b578063dd62ed3e1461044757610158565b806370a08231146102e35780638456cb59146103135780638c6fed321461031d5780638f2839701461033b57806395d89b4114610357578063a457c2d71461037557610158565b8063392e53cd11610115578063392e53cd1461023357806339509351146102515780633e413bee146102815780634478efa21461029f5780634641257d146102bb5780636352cf24146102c557610158565b806306fdde031461015d578063095ea7b31461017b57806318160ddd146101ab57806323b872dd146101c95780632e1a7d4d146101f9578063313ce56714610215575b600080fd5b610165610477565b6040516101729190611fa1565b60405180910390f35b6101956004803603810190610190919061205c565b610509565b6040516101a291906120b7565b60405180910390f35b6101b3610527565b6040516101c091906120e1565b60405180910390f35b6101e360048036038101906101de91906120fc565b610531565b6040516101f091906120b7565b60405180910390f35b610213600480360381019061020e919061214f565b610629565b005b61021d6109b8565b60405161022a9190612198565b60405180910390f35b61023b6109c1565b60405161024891906120b7565b60405180910390f35b61026b6004803603810190610266919061205c565b6109d4565b60405161027891906120b7565b60405180910390f35b610289610a80565b6040516102969190612212565b60405180910390f35b6102b960048036038101906102b4919061222d565b610aa6565b005b6102c3610b56565b005b6102cd610cc2565b6040516102da919061228f565b60405180910390f35b6102fd60048036038101906102f891906122aa565b610ce8565b60405161030a91906120e1565b60405180910390f35b61031b610d30565b005b610325610e1a565b60405161033291906122f8565b60405180910390f35b610355600480360381019061035091906122aa565b610e40565b005b61035f610f14565b60405161036c9190611fa1565b60405180910390f35b61038f600480360381019061038a919061205c565b610fa6565b60405161039c91906120b7565b60405180910390f35b6103bf60048036038101906103ba91906122aa565b611091565b005b6103db60048036038101906103d6919061205c565b6111f2565b6040516103e891906120b7565b60405180910390f35b6103f9611210565b60405161040691906120b7565b60405180910390f35b6104296004803603810190610424919061214f565b611223565b005b61044560048036038101906104409190612351565b6115a7565b005b610461600480360381019061045c919061237e565b6116ec565b60405161046e91906120e1565b60405180910390f35b606060038054610486906123ed565b80601f01602080910402602001604051908101604052809291908181526020018280546104b2906123ed565b80156104ff5780601f106104d4576101008083540402835291602001916104ff565b820191906000526020600020905b8154815290600101906020018083116104e257829003601f168201915b5050505050905090565b600061051d610516611773565b848461177b565b6001905092915050565b6000600254905090565b600061053e848484611946565b6000600160008673ffffffffffffffffffffffffffffffffffffffff1673ffffffffffffffffffffffffffffffffffffffff1681526020019081526020016000206000610589611773565b73ffffffffffffffffffffffffffffffffffffffff1673ffffffffffffffffffffffffffffffffffffffff16815260200190815260200160002054905082811015610609576040517f08c379a000000000000000000000000000000000000000000000000000000000815260040161060090612491565b60405180910390fd5b61061d85610615611773565b85840361177b565b60019150509392505050565b3073ffffffffffffffffffffffffffffffffffffffff166370a08231336040518263ffffffff1660e01b8152600401610662919061228f565b602060405180830381865afa15801561067f573d6000803e3d6000fd5b505050506040513d601f19601f820116820180604052508101906106a391906124c6565b8111156106e5576040517f08c379a00000000000000000000000000000000000000000000000000000000081526004016106dc9061253f565b60405180910390fd5b60008111610728576040517f08c379a000000000000000000000000000000000000000000000000000000000815260040161071f906125ab565b60405180910390fd5b6000600560009054906101000a900473ffffffffffffffffffffffffffffffffffffffff1673ffffffffffffffffffffffffffffffffffffffff166370a08231306040518263ffffffff1660e01b8152600401610785919061228f565b602060405180830381865afa1580156107a2573d6000803e3d6000fd5b505050506040513d601f19601f820116820180604052508101906107c691906124c6565b9050600860009054906101000a900473ffffffffffffffffffffffffffffffffffffffff1673ffffffffffffffffffffffffffffffffffffffff1663e49280cb33846040518363ffffffff1660e01b81526004016108259291906125cb565b600060405180830381600087803b15801561083f57600080fd5b505af1158015610853573d6000803e3d6000fd5b505050506000600560009054906101000a900473ffffffffffffffffffffffffffffffffffffffff1673ffffffffffffffffffffffffffffffffffffffff166370a08231306040518263ffffffff1660e01b81526004016108b4919061228f565b602060405180830381865afa1580156108d1573d6000803e3d6000fd5b505050506040513d601f19601f820116820180604052508101906108f591906124c6565b90506109013384611bc7565b6000828261090f9190612623565b9050600560009054906101000a900473ffffffffffffffffffffffffffffffffffffffff1673ffffffffffffffffffffffffffffffffffffffff1663a9059cbb33836040518363ffffffff1660e01b815260040161096e9291906125cb565b6020604051808303816000875af115801561098d573d6000803e3d6000fd5b505050506040513d601f19601f820116820180604052508101906109b19190612683565b5050505050565b60006012905090565b600660159054906101000a900460ff1681565b6000610a766109e1611773565b8484600160006109ef611773565b73ffffffffffffffffffffffffffffffffffffffff1673ffffffffffffffffffffffffffffffffffffffff16815260200190815260200160002060008873ffffffffffffffffffffffffffffffffffffffff1673ffffffffffffffffffffffffffffffffffffffff16815260200190815260200160002054610a7191906126b0565b61177b565b6001905092915050565b600560009054906101000a900473ffffffffffffffffffffffffffffffffffffffff1681565b600860009054906101000a900473ffffffffffffffffffffffffffffffffffffffff1673ffffffffffffffffffffffffffffffffffffffff163373ffffffffffffffffffffffffffffffffffffffff1614610b36576040517f08c379a0000000000000000000000000000000000000000000000000000000008152600401610b2d9061253f565b60405180910390fd5b60008183610b4491906126b0565b9050610b508482611d9e565b50505050565b600760009054906101000a900473ffffffffffffffffffffffffffffffffffffffff1673ffffffffffffffffffffffffffffffffffffffff163373ffffffffffffffffffffffffffffffffffffffff161480610bff5750600660009054906101000a900473ffffffffffffffffffffffffffffffffffffffff1673ffffffffffffffffffffffffffffffffffffffff163373ffffffffffffffffffffffffffffffffffffffff16145b610c3e576040517f08c379a0000000000000000000000000000000000000000000000000000000008152600401610c3590612752565b60405180910390fd5b600860009054906101000a900473ffffffffffffffffffffffffffffffffffffffff1673ffffffffffffffffffffffffffffffffffffffff16634641257d6040518163ffffffff1660e01b8152600401600060405180830381600087803b158015610ca857600080fd5b505af1158015610cbc573d6000803e3d6000fd5b50505050565b600660009054906101000a900473ffffffffffffffffffffffffffffffffffffffff1681565b60008060008373ffffffffffffffffffffffffffffffffffffffff1673ffffffffffffffffffffffffffffffffffffffff168152602001908152602001600020549050919050565b600760009054906101000a900473ffffffffffffffffffffffffffffffffffffffff1673ffffffffffffffffffffffffffffffffffffffff163373ffffffffffffffffffffffffffffffffffffffff1614610dc0576040517f08c379a0000000000000000000000000000000000000000000000000000000008152600401610db7906127be565b60405180910390fd5b60001515600660149054906101000a900460ff1615151415610dfc576001600660146101000a81548160ff021916908315150217905550610e18565b6000600660146101000a81548160ff0219169083151502179055505b565b600860009054906101000a900473ffffffffffffffffffffffffffffffffffffffff1681565b600760009054906101000a900473ffffffffffffffffffffffffffffffffffffffff1673ffffffffffffffffffffffffffffffffffffffff163373ffffffffffffffffffffffffffffffffffffffff1614610ed0576040517f08c379a0000000000000000000000000000000000000000000000000000000008152600401610ec7906127be565b60405180910390fd5b80600760006101000a81548173ffffffffffffffffffffffffffffffffffffffff021916908373ffffffffffffffffffffffffffffffffffffffff16021790555050565b606060048054610f23906123ed565b80601f0160208091040260200160405190810160405280929190818152602001828054610f4f906123ed565b8015610f9c5780601f10610f7157610100808354040283529160200191610f9c565b820191906000526020600020905b815481529060010190602001808311610f7f57829003601f168201915b5050505050905090565b60008060016000610fb5611773565b73ffffffffffffffffffffffffffffffffffffffff1673ffffffffffffffffffffffffffffffffffffffff16815260200190815260200160002060008573ffffffffffffffffffffffffffffffffffffffff1673ffffffffffffffffffffffffffffffffffffffff16815260200190815260200160002054905082811015611072576040517f08c379a000000000000000000000000000000000000000000000000000000000815260040161106990612850565b60405180910390fd5b61108661107d611773565b8585840361177b565b600191505092915050565b600760009054906101000a900473ffffffffffffffffffffffffffffffffffffffff1673ffffffffffffffffffffffffffffffffffffffff163373ffffffffffffffffffffffffffffffffffffffff1614611121576040517f08c379a0000000000000000000000000000000000000000000000000000000008152600401611118906127be565b60405180910390fd5b80600660006101000a81548173ffffffffffffffffffffffffffffffffffffffff021916908373ffffffffffffffffffffffffffffffffffffffff160217905550600860009054906101000a900473ffffffffffffffffffffffffffffffffffffffff1673ffffffffffffffffffffffffffffffffffffffff1663f0f44260826040518263ffffffff1660e01b81526004016111bd919061228f565b600060405180830381600087803b1580156111d757600080fd5b505af11580156111eb573d6000803e3d6000fd5b5050505050565b60006112066111ff611773565b8484611946565b6001905092915050565b600660149054906101000a900460ff1681565b60001515600660149054906101000a900460ff16151514611279576040517f08c379a0000000000000000000000000000000000000000000000000000000008152600401611270906128e2565b60405180910390fd5b600081116112bc576040517f08c379a00000000000000000000000000000000000000000000000000000000081526004016112b39061294e565b60405180910390fd5b600560009054906101000a900473ffffffffffffffffffffffffffffffffffffffff1673ffffffffffffffffffffffffffffffffffffffff166323b872dd3330846040518463ffffffff1660e01b815260040161131b9392919061296e565b6020604051808303816000875af115801561133a573d6000803e3d6000fd5b505050506040513d601f19601f8201168201806040525081019061135e9190612683565b50600061271060648361137191906129a5565b61137b9190612a2e565b90506000818361138b9190612623565b9050600560009054906101000a900473ffffffffffffffffffffffffffffffffffffffff1673ffffffffffffffffffffffffffffffffffffffff1663a9059cbb600860009054906101000a900473ffffffffffffffffffffffffffffffffffffffff16836040518363ffffffff1660e01b815260040161140c9291906125cb565b6020604051808303816000875af115801561142b573d6000803e3d6000fd5b505050506040513d601f19601f8201168201806040525081019061144f9190612683565b50600860009054906101000a900473ffffffffffffffffffffffffffffffffffffffff1673ffffffffffffffffffffffffffffffffffffffff16630a0e5c9d33836040518363ffffffff1660e01b81526004016114ad9291906125cb565b600060405180830381600087803b1580156114c757600080fd5b505af11580156114db573d6000803e3d6000fd5b50505050600560009054906101000a900473ffffffffffffffffffffffffffffffffffffffff1673ffffffffffffffffffffffffffffffffffffffff1663a9059cbb600660009054906101000a900473ffffffffffffffffffffffffffffffffffffffff16846040518363ffffffff1660e01b815260040161155e9291906125cb565b6020604051808303816000875af115801561157d573d6000803e3d6000fd5b505050506040513d601f19601f820116820180604052508101906115a19190612683565b50505050565b600760009054906101000a900473ffffffffffffffffffffffffffffffffffffffff1673ffffffffffffffffffffffffffffffffffffffff163373ffffffffffffffffffffffffffffffffffffffff1614611637576040517f08c379a000000000000000000000000000000000000000000000000000000000815260040161162e906127be565b60405180910390fd5b60001515600660159054906101000a900460ff1615151461168d576040517f08c379a000000000000000000000000000000000000000000000000000000000815260040161168490612aab565b60405180910390fd5b80600860006101000a81548173ffffffffffffffffffffffffffffffffffffffff021916908373ffffffffffffffffffffffffffffffffffffffff1602179055506001600660156101000a81548160ff02191690831515021790555050565b6000600160008473ffffffffffffffffffffffffffffffffffffffff1673ffffffffffffffffffffffffffffffffffffffff16815260200190815260200160002060008373ffffffffffffffffffffffffffffffffffffffff1673ffffffffffffffffffffffffffffffffffffffff16815260200190815260200160002054905092915050565b600033905090565b600073ffffffffffffffffffffffffffffffffffffffff168373ffffffffffffffffffffffffffffffffffffffff1614156117eb576040517f08c379a00000000000000000000000000000000000000000000000000000000081526004016117e290612b3d565b60405180910390fd5b600073ffffffffffffffffffffffffffffffffffffffff168273ffffffffffffffffffffffffffffffffffffffff16141561185b576040517f08c379a000000000000000000000000000000000000000000000000000000000815260040161185290612bcf565b60405180910390fd5b80600160008573ffffffffffffffffffffffffffffffffffffffff1673ffffffffffffffffffffffffffffffffffffffff16815260200190815260200160002060008473ffffffffffffffffffffffffffffffffffffffff1673ffffffffffffffffffffffffffffffffffffffff168152602001908152602001600020819055508173ffffffffffffffffffffffffffffffffffffffff168373ffffffffffffffffffffffffffffffffffffffff167f8c5be1e5ebec7d5bd14f71427d1e84f3dd0314c0f7b2291e5b200ac8c7c3b9258360405161193991906120e1565b60405180910390a3505050565b600073ffffffffffffffffffffffffffffffffffffffff168373ffffffffffffffffffffffffffffffffffffffff1614156119b6576040517f08c379a00000000000000000000000000000000000000000000000000000000081526004016119ad90612c61565b60405180910390fd5b600073ffffffffffffffffffffffffffffffffffffffff168273ffffffffffffffffffffffffffffffffffffffff161415611a26576040517f08c379a0000000000000000000000000000000000000000000000000000000008152600401611a1d90612cf3565b60405180910390fd5b611a31838383611efe565b60008060008573ffffffffffffffffffffffffffffffffffffffff1673ffffffffffffffffffffffffffffffffffffffff16815260200190815260200160002054905081811015611ab7576040517f08c379a0000000000000000000000000000000000000000000000000000000008152600401611aae90612d85565b60405180910390fd5b8181036000808673ffffffffffffffffffffffffffffffffffffffff1673ffffffffffffffffffffffffffffffffffffffff16815260200190815260200160002081905550816000808573ffffffffffffffffffffffffffffffffffffffff1673ffffffffffffffffffffffffffffffffffffffff1681526020019081526020016000206000828254611b4a91906126b0565b925050819055508273ffffffffffffffffffffffffffffffffffffffff168473ffffffffffffffffffffffffffffffffffffffff167fddf252ad1be2c89b69c2b068fc378daa952ba7f163c4a11628f55a4df523b3ef84604051611bae91906120e1565b60405180910390a3611bc1848484611f03565b50505050565b600073ffffffffffffffffffffffffffffffffffffffff168273ffffffffffffffffffffffffffffffffffffffff161415611c37576040517f08c379a0000000000000000000000000000000000000000000000000000000008152600401611c2e90612e17565b60405180910390fd5b611c4382600083611efe565b60008060008473ffffffffffffffffffffffffffffffffffffffff1673ffffffffffffffffffffffffffffffffffffffff16815260200190815260200160002054905081811015611cc9576040517f08c379a0000000000000000000000000000000000000000000000000000000008152600401611cc090612ea9565b60405180910390fd5b8181036000808573ffffffffffffffffffffffffffffffffffffffff1673ffffffffffffffffffffffffffffffffffffffff168152602001908152602001600020819055508160026000828254611d209190612623565b92505081905550600073ffffffffffffffffffffffffffffffffffffffff168373ffffffffffffffffffffffffffffffffffffffff167fddf252ad1be2c89b69c2b068fc378daa952ba7f163c4a11628f55a4df523b3ef84604051611d8591906120e1565b60405180910390a3611d9983600084611f03565b505050565b600073ffffffffffffffffffffffffffffffffffffffff168273ffffffffffffffffffffffffffffffffffffffff161415611e0e576040517f08c379a0000000000000000000000000000000000000000000000000000000008152600401611e0590612f15565b60405180910390fd5b611e1a60008383611efe565b8060026000828254611e2c91906126b0565b92505081905550806000808473ffffffffffffffffffffffffffffffffffffffff1673ffffffffffffffffffffffffffffffffffffffff1681526020019081526020016000206000828254611e8191906126b0565b925050819055508173ffffffffffffffffffffffffffffffffffffffff16600073ffffffffffffffffffffffffffffffffffffffff167fddf252ad1be2c89b69c2b068fc378daa952ba7f163c4a11628f55a4df523b3ef83604051611ee691906120e1565b60405180910390a3611efa60008383611f03565b5050565b505050565b505050565b600081519050919050565b600082825260208201905092915050565b60005b83811015611f42578082015181840152602081019050611f27565b83811115611f51576000848401525b50505050565b6000601f19601f8301169050919050565b6000611f7382611f08565b611f7d8185611f13565b9350611f8d818560208601611f24565b611f9681611f57565b840191505092915050565b60006020820190508181036000830152611fbb8184611f68565b905092915050565b600080fd5b600073ffffffffffffffffffffffffffffffffffffffff82169050919050565b6000611ff382611fc8565b9050919050565b61200381611fe8565b811461200e57600080fd5b50565b60008135905061202081611ffa565b92915050565b6000819050919050565b61203981612026565b811461204457600080fd5b50565b60008135905061205681612030565b92915050565b6000806040838503121561207357612072611fc3565b5b600061208185828601612011565b925050602061209285828601612047565b9150509250929050565b60008115159050919050565b6120b18161209c565b82525050565b60006020820190506120cc60008301846120a8565b92915050565b6120db81612026565b82525050565b60006020820190506120f660008301846120d2565b92915050565b60008060006060848603121561211557612114611fc3565b5b600061212386828701612011565b935050602061213486828701612011565b925050604061214586828701612047565b9150509250925092565b60006020828403121561216557612164611fc3565b5b600061217384828501612047565b91505092915050565b600060ff82169050919050565b6121928161217c565b82525050565b60006020820190506121ad6000830184612189565b92915050565b6000819050919050565b60006121d86121d36121ce84611fc8565b6121b3565b611fc8565b9050919050565b60006121ea826121bd565b9050919050565b60006121fc826121df565b9050919050565b61220c816121f1565b82525050565b60006020820190506122276000830184612203565b92915050565b60008060006060848603121561224657612245611fc3565b5b600061225486828701612011565b935050602061226586828701612047565b925050604061227686828701612047565b9150509250925092565b61228981611fe8565b82525050565b60006020820190506122a46000830184612280565b92915050565b6000602082840312156122c0576122bf611fc3565b5b60006122ce84828501612011565b91505092915050565b60006122e2826121df565b9050919050565b6122f2816122d7565b82525050565b600060208201905061230d60008301846122e9565b92915050565b600061231e82611fe8565b9050919050565b61232e81612313565b811461233957600080fd5b50565b60008135905061234b81612325565b92915050565b60006020828403121561236757612366611fc3565b5b60006123758482850161233c565b91505092915050565b6000806040838503121561239557612394611fc3565b5b60006123a385828601612011565b92505060206123b485828601612011565b9150509250929050565b7f4e487b7100000000000000000000000000000000000000000000000000000000600052602260045260246000fd5b6000600282049050600182168061240557607f821691505b60208210811415612419576124186123be565b5b50919050565b7f45524332303a207472616e7366657220616d6f756e742065786365656473206160008201527f6c6c6f77616e6365000000000000000000000000000000000000000000000000602082015250565b600061247b602883611f13565b91506124868261241f565b604082019050919050565b600060208201905081810360008301526124aa8161246e565b9050919050565b6000815190506124c081612030565b92915050565b6000602082840312156124dc576124db611fc3565b5b60006124ea848285016124b1565b91505092915050565b7f6e6f000000000000000000000000000000000000000000000000000000000000600082015250565b6000612529600283611f13565b9150612534826124f3565b602082019050919050565b600060208201905081810360008301526125588161251c565b9050919050565b7f63616e6e6f742077697468647261772030000000000000000000000000000000600082015250565b6000612595601183611f13565b91506125a08261255f565b602082019050919050565b600060208201905081810360008301526125c481612588565b9050919050565b60006040820190506125e06000830185612280565b6125ed60208301846120d2565b9392505050565b7f4e487b7100000000000000000000000000000000000000000000000000000000600052601160045260246000fd5b600061262e82612026565b915061263983612026565b92508282101561264c5761264b6125f4565b5b828203905092915050565b6126608161209c565b811461266b57600080fd5b50565b60008151905061267d81612657565b92915050565b60006020828403121561269957612698611fc3565b5b60006126a78482850161266e565b91505092915050565b60006126bb82612026565b91506126c683612026565b9250827fffffffffffffffffffffffffffffffffffffffffffffffffffffffffffffffff038211156126fb576126fa6125f4565b5b828201905092915050565b7f2168617276657374000000000000000000000000000000000000000000000000600082015250565b600061273c600883611f13565b915061274782612706565b602082019050919050565b6000602082019050818103600083015261276b8161272f565b9050919050565b7f2161646d696e0000000000000000000000000000000000000000000000000000600082015250565b60006127a8600683611f13565b91506127b382612772565b602082019050919050565b600060208201905081810360008301526127d78161279b565b9050919050565b7f45524332303a2064656372656173656420616c6c6f77616e63652062656c6f7760008201527f207a65726f000000000000000000000000000000000000000000000000000000602082015250565b600061283a602583611f13565b9150612845826127de565b604082019050919050565b600060208201905081810360008301526128698161282d565b9050919050565b7f6465706f7369747320617265206e6f7420616c6c6f776564206174207468697360008201527f2074696d65000000000000000000000000000000000000000000000000000000602082015250565b60006128cc602583611f13565b91506128d782612870565b604082019050919050565b600060208201905081810360008301526128fb816128bf565b9050919050565b7f63616e6e6f74206465706f736974203000000000000000000000000000000000600082015250565b6000612938601083611f13565b915061294382612902565b602082019050919050565b600060208201905081810360008301526129678161292b565b9050919050565b60006060820190506129836000830186612280565b6129906020830185612280565b61299d60408301846120d2565b949350505050565b60006129b082612026565b91506129bb83612026565b9250817fffffffffffffffffffffffffffffffffffffffffffffffffffffffffffffffff04831182151516156129f4576129f36125f4565b5b828202905092915050565b7f4e487b7100000000000000000000000000000000000000000000000000000000600052601260045260246000fd5b6000612a3982612026565b9150612a4483612026565b925082612a5457612a536129ff565b5b828204905092915050565b7f616c726561647920696e697469616c697a656400000000000000000000000000600082015250565b6000612a95601383611f13565b9150612aa082612a5f565b602082019050919050565b60006020820190508181036000830152612ac481612a88565b9050919050565b7f45524332303a20617070726f76652066726f6d20746865207a65726f2061646460008201527f7265737300000000000000000000000000000000000000000000000000000000602082015250565b6000612b27602483611f13565b9150612b3282612acb565b604082019050919050565b60006020820190508181036000830152612b5681612b1a565b9050919050565b7f45524332303a20617070726f766520746f20746865207a65726f20616464726560008201527f7373000000000000000000000000000000000000000000000000000000000000602082015250565b6000612bb9602283611f13565b9150612bc482612b5d565b604082019050919050565b60006020820190508181036000830152612be881612bac565b9050919050565b7f45524332303a207472616e736665722066726f6d20746865207a65726f20616460008201527f6472657373000000000000000000000000000000000000000000000000000000602082015250565b6000612c4b602583611f13565b9150612c5682612bef565b604082019050919050565b60006020820190508181036000830152612c7a81612c3e565b9050919050565b7f45524332303a207472616e7366657220746f20746865207a65726f206164647260008201527f6573730000000000000000000000000000000000000000000000000000000000602082015250565b6000612cdd602383611f13565b9150612ce882612c81565b604082019050919050565b60006020820190508181036000830152612d0c81612cd0565b9050919050565b7f45524332303a207472616e7366657220616d6f756e742065786365656473206260008201527f616c616e63650000000000000000000000000000000000000000000000000000602082015250565b6000612d6f602683611f13565b9150612d7a82612d13565b604082019050919050565b60006020820190508181036000830152612d9e81612d62565b9050919050565b7f45524332303a206275726e2066726f6d20746865207a65726f2061646472657360008201527f7300000000000000000000000000000000000000000000000000000000000000602082015250565b6000612e01602183611f13565b9150612e0c82612da5565b604082019050919050565b60006020820190508181036000830152612e3081612df4565b9050919050565b7f45524332303a206275726e20616d6f756e7420657863656564732062616c616e60008201527f6365000000000000000000000000000000000000000000000000000000000000602082015250565b6000612e93602283611f13565b9150612e9e82612e37565b604082019050919050565b60006020820190508181036000830152612ec281612e86565b9050919050565b7f45524332303a206d696e7420746f20746865207a65726f206164647265737300600082015250565b6000612eff601f83611f13565b9150612f0a82612ec9565b602082019050919050565b60006020820190508181036000830152612f2e81612ef2565b905091905056fea264697066735822122003e153f31fe52f0f0b13c60bc0d7fc046822653bf75d30de54f21dc683e7d9be64736f6c634300080a0033",
  "immutableReferences": {},
  "source": "// SPDX-License-Identifier: MIT \npragma solidity ^0.8.10; \n\nimport \"@openzeppelin/contracts/token/ERC20/IERC20.sol\"; \nimport \"@openzeppelin/contracts/token/ERC20/ERC20.sol\"; \nimport \"./strategies/CreamFtmTombStrategy.sol\"; \n\n//The deposit contract for Djinn Finance\ncontract DjinnBottleUSDC is ERC20 {\n\n\tIERC20 public usdc;\n\tuint private constant PROTOCOL_FEE = 100; \n\taddress public PROTOCOL_TREASURY; //the protocol collects 1% USDC deposits and 1% yield bearing assets\n\n\tbool public isPaused; \n\tbool public isInitialized; \n\t\n\taddress private admin; //deployer address used to perform basic admin features\n\tDeltaNeutralFtmTomb public deltaNeutral; \n\n\tconstructor( address _usdc, address _treasury) ERC20(\"Djinn Finance USDC Vault\",\"dfUSDC\") {\n\t\tadmin = msg.sender; \n\t\tusdc = IERC20(_usdc); \n\t\tPROTOCOL_TREASURY = _treasury; \n\t}\n\n\tfunction changeTreasuryAddress(address newAddress) external {\n\t\trequire(msg.sender == admin, \"!admin\"); \n\t\tPROTOCOL_TREASURY = newAddress; \t\n\t\tdeltaNeutral.setTreasury(newAddress); \n\t}\n\n\tfunction changeAdmin(address newAdmin) external {\n\t\trequire(msg.sender == admin, \"!admin\"); \n\t\tadmin = newAdmin; \n\t}\n\t\n\t//set strategy address \n\tfunction initialize(DeltaNeutralFtmTomb _deltaNeutral) external {\n\t\trequire(msg.sender == admin, \"!admin\"); \n\t\trequire(isInitialized == false, \"already initialized\"); \n\t\tdeltaNeutral = _deltaNeutral; \n\t\tisInitialized = true; \n\t}\n\n\tfunction deposit(uint amount) external {\n\t\trequire(isPaused == false, \"deposits are not allowed at this time\"); \n\t\trequire(amount > 0, \"cannot deposit 0\"); \n\n\t\tusdc.transferFrom(msg.sender, address(this), amount); \t\t\n\n\t\tuint feeAmount = (amount * PROTOCOL_FEE) / 1e4;  //1% deposit fee \n\t\tuint newAmount = amount - feeAmount;\n\n\t\t//send to strategy contract \n\t\tusdc.transfer(address(deltaNeutral), newAmount); \n\t\tdeltaNeutral.open(msg.sender, newAmount);  \n\n\t\t//send fee to treasury address \n\t\tusdc.transfer(PROTOCOL_TREASURY, feeAmount); \n\t}\n\t\n\t//we get msg.sender's % of pool and then use that to convert to tokens \n\tfunction withdraw(uint amountShares) external {\n\t\trequire(amountShares <= IERC20(address(this)).balanceOf(msg.sender), \"no\"); \n\t\trequire(amountShares > 0, \"cannot withdraw 0\"); \n\t\t\t\t\n\t\t//then we pass this to the strategy contract to withdraw the correct % of LP tokens (I think??) \n\t\tuint beforeBal = usdc.balanceOf(address(this)); \n\t\tdeltaNeutral.close(msg.sender, amountShares); \n\t\tuint afterBal = usdc.balanceOf(address(this));\n\t\t\n\t\t_burn(msg.sender, amountShares); \t\n\n\t\t//send back user their usdc \n\t\tuint amountToWithdraw = afterBal - beforeBal; \n\t\tusdc.transfer(msg.sender, amountToWithdraw);\n\t}\t\n\n\tfunction harvest() external {\n\t\trequire(msg.sender == admin || msg.sender == PROTOCOL_TREASURY, \"!harvest\"); \n\t\tdeltaNeutral.harvest(); \n\t}\n\n\tfunction storeCrTokens(address user, uint amountUSDC, uint amountETH) external {\n\t\trequire(msg.sender == address(deltaNeutral), \"no\"); \n\t\tuint amountTotal = amountUSDC + amountETH; \n\t\t_mint(user, amountTotal); \n\t}\t\n\n\tfunction pause() external {\n\t\trequire(msg.sender == admin, \"!admin\");\t\t\n\n\t\tif (isPaused == false) {\n\t\t\tisPaused = true; \n\t\t} else {\n\t\t\tisPaused = false; \n\t\t}\n\t}\n\n}\n",
  "sourcePath": "/home/kevin/Code/solidity_projects/djinn/contracts/DjinnBottleUSDC.sol",
  "compiler": {
    "name": "solc",
    "version": "0.8.10+commit.fc410830.Emscripten.clang"
  },
  "schemaVersion": "3.4.3",
  "updatedAt": "2022-03-12T17:02:56.674Z",
  "networkType": "ethereum",
  "devdoc": {
    "kind": "dev",
    "methods": {
      "allowance(address,address)": {
        "details": "See {IERC20-allowance}."
      },
      "approve(address,uint256)": {
        "details": "See {IERC20-approve}. Requirements: - `spender` cannot be the zero address."
      },
      "balanceOf(address)": {
        "details": "See {IERC20-balanceOf}."
      },
      "decimals()": {
        "details": "Returns the number of decimals used to get its user representation. For example, if `decimals` equals `2`, a balance of `505` tokens should be displayed to a user as `5.05` (`505 / 10 ** 2`). Tokens usually opt for a value of 18, imitating the relationship between Ether and Wei. This is the value {ERC20} uses, unless this function is overridden; NOTE: This information is only used for _display_ purposes: it in no way affects any of the arithmetic of the contract, including {IERC20-balanceOf} and {IERC20-transfer}."
      },
      "decreaseAllowance(address,uint256)": {
        "details": "Atomically decreases the allowance granted to `spender` by the caller. This is an alternative to {approve} that can be used as a mitigation for problems described in {IERC20-approve}. Emits an {Approval} event indicating the updated allowance. Requirements: - `spender` cannot be the zero address. - `spender` must have allowance for the caller of at least `subtractedValue`."
      },
      "increaseAllowance(address,uint256)": {
        "details": "Atomically increases the allowance granted to `spender` by the caller. This is an alternative to {approve} that can be used as a mitigation for problems described in {IERC20-approve}. Emits an {Approval} event indicating the updated allowance. Requirements: - `spender` cannot be the zero address."
      },
      "name()": {
        "details": "Returns the name of the token."
      },
      "symbol()": {
        "details": "Returns the symbol of the token, usually a shorter version of the name."
      },
      "totalSupply()": {
        "details": "See {IERC20-totalSupply}."
      },
      "transfer(address,uint256)": {
        "details": "See {IERC20-transfer}. Requirements: - `recipient` cannot be the zero address. - the caller must have a balance of at least `amount`."
      },
      "transferFrom(address,address,uint256)": {
        "details": "See {IERC20-transferFrom}. Emits an {Approval} event indicating the updated allowance. This is not required by the EIP. See the note at the beginning of {ERC20}. Requirements: - `sender` and `recipient` cannot be the zero address. - `sender` must have a balance of at least `amount`. - the caller must have allowance for ``sender``'s tokens of at least `amount`."
      }
    },
    "version": 1
  },
  "userdoc": {
    "kind": "user",
    "methods": {},
    "version": 1
  }
}