{
  "contractName": "DjinnBottleUSDC",
  "abi": [
    {
      "inputs": [
        {
          "internalType": "address",
          "name": "_usdc",
          "type": "address"
        },
        {
          "internalType": "address",
          "name": "_treasury",
          "type": "address"
        }
      ],
      "stateMutability": "nonpayable",
      "type": "constructor"
    },
    {
      "anonymous": false,
      "inputs": [
        {
          "indexed": true,
          "internalType": "address",
          "name": "owner",
          "type": "address"
        },
        {
          "indexed": true,
          "internalType": "address",
          "name": "spender",
          "type": "address"
        },
        {
          "indexed": false,
          "internalType": "uint256",
          "name": "value",
          "type": "uint256"
        }
      ],
      "name": "Approval",
      "type": "event"
    },
    {
      "anonymous": false,
      "inputs": [
        {
          "indexed": true,
          "internalType": "address",
          "name": "from",
          "type": "address"
        },
        {
          "indexed": true,
          "internalType": "address",
          "name": "to",
          "type": "address"
        },
        {
          "indexed": false,
          "internalType": "uint256",
          "name": "value",
          "type": "uint256"
        }
      ],
      "name": "Transfer",
      "type": "event"
    },
    {
      "inputs": [],
      "name": "PROTOCOL_TREASURY",
      "outputs": [
        {
          "internalType": "address",
          "name": "",
          "type": "address"
        }
      ],
      "stateMutability": "view",
      "type": "function",
      "constant": true
    },
    {
      "inputs": [
        {
          "internalType": "address",
          "name": "owner",
          "type": "address"
        },
        {
          "internalType": "address",
          "name": "spender",
          "type": "address"
        }
      ],
      "name": "allowance",
      "outputs": [
        {
          "internalType": "uint256",
          "name": "",
          "type": "uint256"
        }
      ],
      "stateMutability": "view",
      "type": "function",
      "constant": true
    },
    {
      "inputs": [
        {
          "internalType": "address",
          "name": "spender",
          "type": "address"
        },
        {
          "internalType": "uint256",
          "name": "amount",
          "type": "uint256"
        }
      ],
      "name": "approve",
      "outputs": [
        {
          "internalType": "bool",
          "name": "",
          "type": "bool"
        }
      ],
      "stateMutability": "nonpayable",
      "type": "function"
    },
    {
      "inputs": [
        {
          "internalType": "address",
          "name": "account",
          "type": "address"
        }
      ],
      "name": "balanceOf",
      "outputs": [
        {
          "internalType": "uint256",
          "name": "",
          "type": "uint256"
        }
      ],
      "stateMutability": "view",
      "type": "function",
      "constant": true
    },
    {
      "inputs": [],
      "name": "decimals",
      "outputs": [
        {
          "internalType": "uint8",
          "name": "",
          "type": "uint8"
        }
      ],
      "stateMutability": "view",
      "type": "function",
      "constant": true
    },
    {
      "inputs": [
        {
          "internalType": "address",
          "name": "spender",
          "type": "address"
        },
        {
          "internalType": "uint256",
          "name": "subtractedValue",
          "type": "uint256"
        }
      ],
      "name": "decreaseAllowance",
      "outputs": [
        {
          "internalType": "bool",
          "name": "",
          "type": "bool"
        }
      ],
      "stateMutability": "nonpayable",
      "type": "function"
    },
    {
      "inputs": [],
      "name": "deltaNeutral",
      "outputs": [
        {
          "internalType": "contract DeltaNeutralFtmTomb",
          "name": "",
          "type": "address"
        }
      ],
      "stateMutability": "view",
      "type": "function",
      "constant": true
    },
    {
      "inputs": [
        {
          "internalType": "address",
          "name": "spender",
          "type": "address"
        },
        {
          "internalType": "uint256",
          "name": "addedValue",
          "type": "uint256"
        }
      ],
      "name": "increaseAllowance",
      "outputs": [
        {
          "internalType": "bool",
          "name": "",
          "type": "bool"
        }
      ],
      "stateMutability": "nonpayable",
      "type": "function"
    },
    {
      "inputs": [],
      "name": "name",
      "outputs": [
        {
          "internalType": "string",
          "name": "",
          "type": "string"
        }
      ],
      "stateMutability": "view",
      "type": "function",
      "constant": true
    },
    {
      "inputs": [],
      "name": "symbol",
      "outputs": [
        {
          "internalType": "string",
          "name": "",
          "type": "string"
        }
      ],
      "stateMutability": "view",
      "type": "function",
      "constant": true
    },
    {
      "inputs": [],
      "name": "totalSupply",
      "outputs": [
        {
          "internalType": "uint256",
          "name": "",
          "type": "uint256"
        }
      ],
      "stateMutability": "view",
      "type": "function",
      "constant": true
    },
    {
      "inputs": [
        {
          "internalType": "address",
          "name": "recipient",
          "type": "address"
        },
        {
          "internalType": "uint256",
          "name": "amount",
          "type": "uint256"
        }
      ],
      "name": "transfer",
      "outputs": [
        {
          "internalType": "bool",
          "name": "",
          "type": "bool"
        }
      ],
      "stateMutability": "nonpayable",
      "type": "function"
    },
    {
      "inputs": [
        {
          "internalType": "address",
          "name": "sender",
          "type": "address"
        },
        {
          "internalType": "address",
          "name": "recipient",
          "type": "address"
        },
        {
          "internalType": "uint256",
          "name": "amount",
          "type": "uint256"
        }
      ],
      "name": "transferFrom",
      "outputs": [
        {
          "internalType": "bool",
          "name": "",
          "type": "bool"
        }
      ],
      "stateMutability": "nonpayable",
      "type": "function"
    },
    {
      "inputs": [],
      "name": "usdc",
      "outputs": [
        {
          "internalType": "contract IERC20",
          "name": "",
          "type": "address"
        }
      ],
      "stateMutability": "view",
      "type": "function",
      "constant": true
    },
    {
      "inputs": [
        {
          "internalType": "address",
          "name": "newAddress",
          "type": "address"
        }
      ],
      "name": "changeTreasuryAddress",
      "outputs": [],
      "stateMutability": "nonpayable",
      "type": "function"
    },
    {
      "inputs": [
        {
          "internalType": "address",
          "name": "newAdmin",
          "type": "address"
        }
      ],
      "name": "changeAdmin",
      "outputs": [],
      "stateMutability": "nonpayable",
      "type": "function"
    },
    {
      "inputs": [
        {
          "internalType": "contract DeltaNeutralFtmTomb",
          "name": "_deltaNeutral",
          "type": "address"
        }
      ],
      "name": "initialize",
      "outputs": [],
      "stateMutability": "nonpayable",
      "type": "function"
    },
    {
      "inputs": [],
      "name": "balance",
      "outputs": [
        {
          "internalType": "uint256",
          "name": "",
          "type": "uint256"
        }
      ],
      "stateMutability": "nonpayable",
      "type": "function"
    },
    {
      "inputs": [
        {
          "internalType": "uint256",
          "name": "amount",
          "type": "uint256"
        }
      ],
      "name": "deposit",
      "outputs": [],
      "stateMutability": "nonpayable",
      "type": "function"
    },
    {
      "inputs": [
        {
          "internalType": "uint256",
          "name": "amountShares",
          "type": "uint256"
        }
      ],
      "name": "withdraw",
      "outputs": [
        {
          "internalType": "uint256",
          "name": "",
          "type": "uint256"
        }
      ],
      "stateMutability": "nonpayable",
      "type": "function"
    },
    {
      "inputs": [],
      "name": "harvest",
      "outputs": [],
      "stateMutability": "nonpayable",
      "type": "function"
    },
    {
      "inputs": [
        {
          "internalType": "address",
          "name": "user",
          "type": "address"
        },
        {
          "internalType": "uint256",
          "name": "amountUSDC",
          "type": "uint256"
        },
        {
          "internalType": "uint256",
          "name": "amountETH",
          "type": "uint256"
        }
      ],
      "name": "storeCrTokens",
      "outputs": [],
      "stateMutability": "nonpayable",
      "type": "function"
    }
  ],
  "bytecode": "0x60806040523480156200001157600080fd5b5060405162002ec138038062002ec18339818101604052810190620000379190620002bc565b6040518060400160405280601881526020017f446a696e6e2046696e616e63652055534443205661756c7400000000000000008152506040518060400160405280600681526020017f64665553444300000000000000000000000000000000000000000000000000008152508160039080519060200190620000bb929190620001a2565b508060049080519060200190620000d4929190620001a2565b50505033600760006101000a81548173ffffffffffffffffffffffffffffffffffffffff021916908373ffffffffffffffffffffffffffffffffffffffff16021790555081600560006101000a81548173ffffffffffffffffffffffffffffffffffffffff021916908373ffffffffffffffffffffffffffffffffffffffff16021790555080600660006101000a81548173ffffffffffffffffffffffffffffffffffffffff021916908373ffffffffffffffffffffffffffffffffffffffff160217905550505062000368565b828054620001b09062000332565b90600052602060002090601f016020900481019282620001d4576000855562000220565b82601f10620001ef57805160ff191683800117855562000220565b8280016001018555821562000220579182015b828111156200021f57825182559160200191906001019062000202565b5b5090506200022f919062000233565b5090565b5b808211156200024e57600081600090555060010162000234565b5090565b600080fd5b600073ffffffffffffffffffffffffffffffffffffffff82169050919050565b6000620002848262000257565b9050919050565b620002968162000277565b8114620002a257600080fd5b50565b600081519050620002b6816200028b565b92915050565b60008060408385031215620002d657620002d562000252565b5b6000620002e685828601620002a5565b9250506020620002f985828601620002a5565b9150509250929050565b7f4e487b7100000000000000000000000000000000000000000000000000000000600052602260045260246000fd5b600060028204905060018216806200034b57607f821691505b6020821081141562000362576200036162000303565b5b50919050565b612b4980620003786000396000f3fe608060405234801561001057600080fd5b50600436106101425760003560e01c806370a08231116100b8578063a6f353f01161007c578063a6f353f01461037b578063a9059cbb14610397578063b69ef8a8146103c7578063b6b55f25146103e5578063c4d66de814610401578063dd62ed3e1461041d57610142565b806370a08231146102c35780638c6fed32146102f35780638f2839701461031157806395d89b411461032d578063a457c2d71461034b57610142565b8063313ce5671161010a578063313ce5671461021357806339509351146102315780633e413bee146102615780634478efa21461027f5780634641257d1461029b5780636352cf24146102a557610142565b806306fdde0314610147578063095ea7b31461016557806318160ddd1461019557806323b872dd146101b35780632e1a7d4d146101e3575b600080fd5b61014f61044d565b60405161015c9190611d9d565b60405180910390f35b61017f600480360381019061017a9190611e58565b6104df565b60405161018c9190611eb3565b60405180910390f35b61019d6104fd565b6040516101aa9190611edd565b60405180910390f35b6101cd60048036038101906101c89190611ef8565b610507565b6040516101da9190611eb3565b60405180910390f35b6101fd60048036038101906101f89190611f4b565b6105ff565b60405161020a9190611edd565b60405180910390f35b61021b61094f565b6040516102289190611f94565b60405180910390f35b61024b60048036038101906102469190611e58565b610958565b6040516102589190611eb3565b60405180910390f35b610269610a04565b604051610276919061200e565b60405180910390f35b61029960048036038101906102949190612029565b610a2a565b005b6102a3610ada565b005b6102ad610b5e565b6040516102ba919061208b565b60405180910390f35b6102dd60048036038101906102d891906120a6565b610b84565b6040516102ea9190611edd565b60405180910390f35b6102fb610bcc565b6040516103089190612106565b60405180910390f35b61032b600480360381019061032691906120a6565b610bf2565b005b610335610cc6565b6040516103429190611d9d565b60405180910390f35b61036560048036038101906103609190611e58565b610d58565b6040516103729190611eb3565b60405180910390f35b610395600480360381019061039091906120a6565b610e43565b005b6103b160048036038101906103ac9190611e58565b610fa4565b6040516103be9190611eb3565b60405180910390f35b6103cf610fc2565b6040516103dc9190611edd565b60405180910390f35b6103ff60048036038101906103fa9190611f4b565b611102565b005b61041b60048036038101906104169190612171565b611414565b005b6104376004803603810190610432919061219e565b6114e8565b6040516104449190611edd565b60405180910390f35b60606003805461045c9061220d565b80601f01602080910402602001604051908101604052809291908181526020018280546104889061220d565b80156104d55780601f106104aa576101008083540402835291602001916104d5565b820191906000526020600020905b8154815290600101906020018083116104b857829003601f168201915b5050505050905090565b60006104f36104ec61156f565b8484611577565b6001905092915050565b6000600254905090565b6000610514848484611742565b6000600160008673ffffffffffffffffffffffffffffffffffffffff1673ffffffffffffffffffffffffffffffffffffffff168152602001908152602001600020600061055f61156f565b73ffffffffffffffffffffffffffffffffffffffff1673ffffffffffffffffffffffffffffffffffffffff168152602001908152602001600020549050828110156105df576040517f08c379a00000000000000000000000000000000000000000000000000000000081526004016105d6906122b1565b60405180910390fd5b6105f3856105eb61156f565b858403611577565b60019150509392505050565b60003073ffffffffffffffffffffffffffffffffffffffff166370a08231336040518263ffffffff1660e01b815260040161063a919061208b565b602060405180830381865afa158015610657573d6000803e3d6000fd5b505050506040513d601f19601f8201168201806040525081019061067b91906122e6565b8211156106bd576040517f08c379a00000000000000000000000000000000000000000000000000000000081526004016106b49061235f565b60405180910390fd5b6000600560009054906101000a900473ffffffffffffffffffffffffffffffffffffffff1673ffffffffffffffffffffffffffffffffffffffff166370a08231306040518263ffffffff1660e01b815260040161071a919061208b565b602060405180830381865afa158015610737573d6000803e3d6000fd5b505050506040513d601f19601f8201168201806040525081019061075b91906122e6565b9050600860009054906101000a900473ffffffffffffffffffffffffffffffffffffffff1673ffffffffffffffffffffffffffffffffffffffff1663e49280cb33856040518363ffffffff1660e01b81526004016107ba92919061237f565b600060405180830381600087803b1580156107d457600080fd5b505af11580156107e8573d6000803e3d6000fd5b505050506000600560009054906101000a900473ffffffffffffffffffffffffffffffffffffffff1673ffffffffffffffffffffffffffffffffffffffff166370a08231306040518263ffffffff1660e01b8152600401610849919061208b565b602060405180830381865afa158015610866573d6000803e3d6000fd5b505050506040513d601f19601f8201168201806040525081019061088a91906122e6565b905061089633856119c3565b600082826108a491906123d7565b9050600560009054906101000a900473ffffffffffffffffffffffffffffffffffffffff1673ffffffffffffffffffffffffffffffffffffffff1663a9059cbb33836040518363ffffffff1660e01b815260040161090392919061237f565b6020604051808303816000875af1158015610922573d6000803e3d6000fd5b505050506040513d601f19601f820116820180604052508101906109469190612437565b50505050919050565b60006012905090565b60006109fa61096561156f565b84846001600061097361156f565b73ffffffffffffffffffffffffffffffffffffffff1673ffffffffffffffffffffffffffffffffffffffff16815260200190815260200160002060008873ffffffffffffffffffffffffffffffffffffffff1673ffffffffffffffffffffffffffffffffffffffff168152602001908152602001600020546109f59190612464565b611577565b6001905092915050565b600560009054906101000a900473ffffffffffffffffffffffffffffffffffffffff1681565b600860009054906101000a900473ffffffffffffffffffffffffffffffffffffffff1673ffffffffffffffffffffffffffffffffffffffff163373ffffffffffffffffffffffffffffffffffffffff1614610aba576040517f08c379a0000000000000000000000000000000000000000000000000000000008152600401610ab19061235f565b60405180910390fd5b60008183610ac89190612464565b9050610ad48482611b9a565b50505050565b600860009054906101000a900473ffffffffffffffffffffffffffffffffffffffff1673ffffffffffffffffffffffffffffffffffffffff16634641257d6040518163ffffffff1660e01b8152600401600060405180830381600087803b158015610b4457600080fd5b505af1158015610b58573d6000803e3d6000fd5b50505050565b600660009054906101000a900473ffffffffffffffffffffffffffffffffffffffff1681565b60008060008373ffffffffffffffffffffffffffffffffffffffff1673ffffffffffffffffffffffffffffffffffffffff168152602001908152602001600020549050919050565b600860009054906101000a900473ffffffffffffffffffffffffffffffffffffffff1681565b600760009054906101000a900473ffffffffffffffffffffffffffffffffffffffff1673ffffffffffffffffffffffffffffffffffffffff163373ffffffffffffffffffffffffffffffffffffffff1614610c82576040517f08c379a0000000000000000000000000000000000000000000000000000000008152600401610c7990612506565b60405180910390fd5b80600760006101000a81548173ffffffffffffffffffffffffffffffffffffffff021916908373ffffffffffffffffffffffffffffffffffffffff16021790555050565b606060048054610cd59061220d565b80601f0160208091040260200160405190810160405280929190818152602001828054610d019061220d565b8015610d4e5780601f10610d2357610100808354040283529160200191610d4e565b820191906000526020600020905b815481529060010190602001808311610d3157829003601f168201915b5050505050905090565b60008060016000610d6761156f565b73ffffffffffffffffffffffffffffffffffffffff1673ffffffffffffffffffffffffffffffffffffffff16815260200190815260200160002060008573ffffffffffffffffffffffffffffffffffffffff1673ffffffffffffffffffffffffffffffffffffffff16815260200190815260200160002054905082811015610e24576040517f08c379a0000000000000000000000000000000000000000000000000000000008152600401610e1b90612598565b60405180910390fd5b610e38610e2f61156f565b85858403611577565b600191505092915050565b600760009054906101000a900473ffffffffffffffffffffffffffffffffffffffff1673ffffffffffffffffffffffffffffffffffffffff163373ffffffffffffffffffffffffffffffffffffffff1614610ed3576040517f08c379a0000000000000000000000000000000000000000000000000000000008152600401610eca90612506565b60405180910390fd5b80600660006101000a81548173ffffffffffffffffffffffffffffffffffffffff021916908373ffffffffffffffffffffffffffffffffffffffff160217905550600860009054906101000a900473ffffffffffffffffffffffffffffffffffffffff1673ffffffffffffffffffffffffffffffffffffffff1663f0f44260826040518263ffffffff1660e01b8152600401610f6f919061208b565b600060405180830381600087803b158015610f8957600080fd5b505af1158015610f9d573d6000803e3d6000fd5b5050505050565b6000610fb8610fb161156f565b8484611742565b6001905092915050565b6000600860009054906101000a900473ffffffffffffffffffffffffffffffffffffffff1673ffffffffffffffffffffffffffffffffffffffff16639816f4736040518163ffffffff1660e01b81526004016020604051808303816000875af1158015611033573d6000803e3d6000fd5b505050506040513d601f19601f8201168201806040525081019061105791906122e6565b600560009054906101000a900473ffffffffffffffffffffffffffffffffffffffff1673ffffffffffffffffffffffffffffffffffffffff166370a08231306040518263ffffffff1660e01b81526004016110b2919061208b565b602060405180830381865afa1580156110cf573d6000803e3d6000fd5b505050506040513d601f19601f820116820180604052508101906110f391906122e6565b6110fd9190612464565b905090565b600560009054906101000a900473ffffffffffffffffffffffffffffffffffffffff1673ffffffffffffffffffffffffffffffffffffffff166323b872dd3330846040518463ffffffff1660e01b8152600401611161939291906125b8565b6020604051808303816000875af1158015611180573d6000803e3d6000fd5b505050506040513d601f19601f820116820180604052508101906111a49190612437565b5060006127106064836111b791906125ef565b6111c19190612678565b9050600081836111d191906123d7565b905060006305f5e1006111e26104fd565b836111ed91906125ef565b6111f79190612678565b9050600560009054906101000a900473ffffffffffffffffffffffffffffffffffffffff1673ffffffffffffffffffffffffffffffffffffffff1663a9059cbb600860009054906101000a900473ffffffffffffffffffffffffffffffffffffffff16846040518363ffffffff1660e01b815260040161127892919061237f565b6020604051808303816000875af1158015611297573d6000803e3d6000fd5b505050506040513d601f19601f820116820180604052508101906112bb9190612437565b50600860009054906101000a900473ffffffffffffffffffffffffffffffffffffffff1673ffffffffffffffffffffffffffffffffffffffff16630a0e5c9d33846040518363ffffffff1660e01b815260040161131992919061237f565b600060405180830381600087803b15801561133357600080fd5b505af1158015611347573d6000803e3d6000fd5b50505050600560009054906101000a900473ffffffffffffffffffffffffffffffffffffffff1673ffffffffffffffffffffffffffffffffffffffff1663a9059cbb600660009054906101000a900473ffffffffffffffffffffffffffffffffffffffff16856040518363ffffffff1660e01b81526004016113ca92919061237f565b6020604051808303816000875af11580156113e9573d6000803e3d6000fd5b505050506040513d601f19601f8201168201806040525081019061140d9190612437565b5050505050565b600760009054906101000a900473ffffffffffffffffffffffffffffffffffffffff1673ffffffffffffffffffffffffffffffffffffffff163373ffffffffffffffffffffffffffffffffffffffff16146114a4576040517f08c379a000000000000000000000000000000000000000000000000000000000815260040161149b90612506565b60405180910390fd5b80600860006101000a81548173ffffffffffffffffffffffffffffffffffffffff021916908373ffffffffffffffffffffffffffffffffffffffff16021790555050565b6000600160008473ffffffffffffffffffffffffffffffffffffffff1673ffffffffffffffffffffffffffffffffffffffff16815260200190815260200160002060008373ffffffffffffffffffffffffffffffffffffffff1673ffffffffffffffffffffffffffffffffffffffff16815260200190815260200160002054905092915050565b600033905090565b600073ffffffffffffffffffffffffffffffffffffffff168373ffffffffffffffffffffffffffffffffffffffff1614156115e7576040517f08c379a00000000000000000000000000000000000000000000000000000000081526004016115de9061271b565b60405180910390fd5b600073ffffffffffffffffffffffffffffffffffffffff168273ffffffffffffffffffffffffffffffffffffffff161415611657576040517f08c379a000000000000000000000000000000000000000000000000000000000815260040161164e906127ad565b60405180910390fd5b80600160008573ffffffffffffffffffffffffffffffffffffffff1673ffffffffffffffffffffffffffffffffffffffff16815260200190815260200160002060008473ffffffffffffffffffffffffffffffffffffffff1673ffffffffffffffffffffffffffffffffffffffff168152602001908152602001600020819055508173ffffffffffffffffffffffffffffffffffffffff168373ffffffffffffffffffffffffffffffffffffffff167f8c5be1e5ebec7d5bd14f71427d1e84f3dd0314c0f7b2291e5b200ac8c7c3b925836040516117359190611edd565b60405180910390a3505050565b600073ffffffffffffffffffffffffffffffffffffffff168373ffffffffffffffffffffffffffffffffffffffff1614156117b2576040517f08c379a00000000000000000000000000000000000000000000000000000000081526004016117a99061283f565b60405180910390fd5b600073ffffffffffffffffffffffffffffffffffffffff168273ffffffffffffffffffffffffffffffffffffffff161415611822576040517f08c379a0000000000000000000000000000000000000000000000000000000008152600401611819906128d1565b60405180910390fd5b61182d838383611cfa565b60008060008573ffffffffffffffffffffffffffffffffffffffff1673ffffffffffffffffffffffffffffffffffffffff168152602001908152602001600020549050818110156118b3576040517f08c379a00000000000000000000000000000000000000000000000000000000081526004016118aa90612963565b60405180910390fd5b8181036000808673ffffffffffffffffffffffffffffffffffffffff1673ffffffffffffffffffffffffffffffffffffffff16815260200190815260200160002081905550816000808573ffffffffffffffffffffffffffffffffffffffff1673ffffffffffffffffffffffffffffffffffffffff16815260200190815260200160002060008282546119469190612464565b925050819055508273ffffffffffffffffffffffffffffffffffffffff168473ffffffffffffffffffffffffffffffffffffffff167fddf252ad1be2c89b69c2b068fc378daa952ba7f163c4a11628f55a4df523b3ef846040516119aa9190611edd565b60405180910390a36119bd848484611cff565b50505050565b600073ffffffffffffffffffffffffffffffffffffffff168273ffffffffffffffffffffffffffffffffffffffff161415611a33576040517f08c379a0000000000000000000000000000000000000000000000000000000008152600401611a2a906129f5565b60405180910390fd5b611a3f82600083611cfa565b60008060008473ffffffffffffffffffffffffffffffffffffffff1673ffffffffffffffffffffffffffffffffffffffff16815260200190815260200160002054905081811015611ac5576040517f08c379a0000000000000000000000000000000000000000000000000000000008152600401611abc90612a87565b60405180910390fd5b8181036000808573ffffffffffffffffffffffffffffffffffffffff1673ffffffffffffffffffffffffffffffffffffffff168152602001908152602001600020819055508160026000828254611b1c91906123d7565b92505081905550600073ffffffffffffffffffffffffffffffffffffffff168373ffffffffffffffffffffffffffffffffffffffff167fddf252ad1be2c89b69c2b068fc378daa952ba7f163c4a11628f55a4df523b3ef84604051611b819190611edd565b60405180910390a3611b9583600084611cff565b505050565b600073ffffffffffffffffffffffffffffffffffffffff168273ffffffffffffffffffffffffffffffffffffffff161415611c0a576040517f08c379a0000000000000000000000000000000000000000000000000000000008152600401611c0190612af3565b60405180910390fd5b611c1660008383611cfa565b8060026000828254611c289190612464565b92505081905550806000808473ffffffffffffffffffffffffffffffffffffffff1673ffffffffffffffffffffffffffffffffffffffff1681526020019081526020016000206000828254611c7d9190612464565b925050819055508173ffffffffffffffffffffffffffffffffffffffff16600073ffffffffffffffffffffffffffffffffffffffff167fddf252ad1be2c89b69c2b068fc378daa952ba7f163c4a11628f55a4df523b3ef83604051611ce29190611edd565b60405180910390a3611cf660008383611cff565b5050565b505050565b505050565b600081519050919050565b600082825260208201905092915050565b60005b83811015611d3e578082015181840152602081019050611d23565b83811115611d4d576000848401525b50505050565b6000601f19601f8301169050919050565b6000611d6f82611d04565b611d798185611d0f565b9350611d89818560208601611d20565b611d9281611d53565b840191505092915050565b60006020820190508181036000830152611db78184611d64565b905092915050565b600080fd5b600073ffffffffffffffffffffffffffffffffffffffff82169050919050565b6000611def82611dc4565b9050919050565b611dff81611de4565b8114611e0a57600080fd5b50565b600081359050611e1c81611df6565b92915050565b6000819050919050565b611e3581611e22565b8114611e4057600080fd5b50565b600081359050611e5281611e2c565b92915050565b60008060408385031215611e6f57611e6e611dbf565b5b6000611e7d85828601611e0d565b9250506020611e8e85828601611e43565b9150509250929050565b60008115159050919050565b611ead81611e98565b82525050565b6000602082019050611ec86000830184611ea4565b92915050565b611ed781611e22565b82525050565b6000602082019050611ef26000830184611ece565b92915050565b600080600060608486031215611f1157611f10611dbf565b5b6000611f1f86828701611e0d565b9350506020611f3086828701611e0d565b9250506040611f4186828701611e43565b9150509250925092565b600060208284031215611f6157611f60611dbf565b5b6000611f6f84828501611e43565b91505092915050565b600060ff82169050919050565b611f8e81611f78565b82525050565b6000602082019050611fa96000830184611f85565b92915050565b6000819050919050565b6000611fd4611fcf611fca84611dc4565b611faf565b611dc4565b9050919050565b6000611fe682611fb9565b9050919050565b6000611ff882611fdb565b9050919050565b61200881611fed565b82525050565b60006020820190506120236000830184611fff565b92915050565b60008060006060848603121561204257612041611dbf565b5b600061205086828701611e0d565b935050602061206186828701611e43565b925050604061207286828701611e43565b9150509250925092565b61208581611de4565b82525050565b60006020820190506120a0600083018461207c565b92915050565b6000602082840312156120bc576120bb611dbf565b5b60006120ca84828501611e0d565b91505092915050565b60006120de82611fb9565b9050919050565b60006120f0826120d3565b9050919050565b612100816120e5565b82525050565b600060208201905061211b60008301846120f7565b92915050565b600061212c82611dc4565b9050919050565b600061213e82612121565b9050919050565b61214e81612133565b811461215957600080fd5b50565b60008135905061216b81612145565b92915050565b60006020828403121561218757612186611dbf565b5b60006121958482850161215c565b91505092915050565b600080604083850312156121b5576121b4611dbf565b5b60006121c385828601611e0d565b92505060206121d485828601611e0d565b9150509250929050565b7f4e487b7100000000000000000000000000000000000000000000000000000000600052602260045260246000fd5b6000600282049050600182168061222557607f821691505b60208210811415612239576122386121de565b5b50919050565b7f45524332303a207472616e7366657220616d6f756e742065786365656473206160008201527f6c6c6f77616e6365000000000000000000000000000000000000000000000000602082015250565b600061229b602883611d0f565b91506122a68261223f565b604082019050919050565b600060208201905081810360008301526122ca8161228e565b9050919050565b6000815190506122e081611e2c565b92915050565b6000602082840312156122fc576122fb611dbf565b5b600061230a848285016122d1565b91505092915050565b7f6e6f000000000000000000000000000000000000000000000000000000000000600082015250565b6000612349600283611d0f565b915061235482612313565b602082019050919050565b600060208201905081810360008301526123788161233c565b9050919050565b6000604082019050612394600083018561207c565b6123a16020830184611ece565b9392505050565b7f4e487b7100000000000000000000000000000000000000000000000000000000600052601160045260246000fd5b60006123e282611e22565b91506123ed83611e22565b925082821015612400576123ff6123a8565b5b828203905092915050565b61241481611e98565b811461241f57600080fd5b50565b6000815190506124318161240b565b92915050565b60006020828403121561244d5761244c611dbf565b5b600061245b84828501612422565b91505092915050565b600061246f82611e22565b915061247a83611e22565b9250827fffffffffffffffffffffffffffffffffffffffffffffffffffffffffffffffff038211156124af576124ae6123a8565b5b828201905092915050565b7f2161646d696e0000000000000000000000000000000000000000000000000000600082015250565b60006124f0600683611d0f565b91506124fb826124ba565b602082019050919050565b6000602082019050818103600083015261251f816124e3565b9050919050565b7f45524332303a2064656372656173656420616c6c6f77616e63652062656c6f7760008201527f207a65726f000000000000000000000000000000000000000000000000000000602082015250565b6000612582602583611d0f565b915061258d82612526565b604082019050919050565b600060208201905081810360008301526125b181612575565b9050919050565b60006060820190506125cd600083018661207c565b6125da602083018561207c565b6125e76040830184611ece565b949350505050565b60006125fa82611e22565b915061260583611e22565b9250817fffffffffffffffffffffffffffffffffffffffffffffffffffffffffffffffff048311821515161561263e5761263d6123a8565b5b828202905092915050565b7f4e487b7100000000000000000000000000000000000000000000000000000000600052601260045260246000fd5b600061268382611e22565b915061268e83611e22565b92508261269e5761269d612649565b5b828204905092915050565b7f45524332303a20617070726f76652066726f6d20746865207a65726f2061646460008201527f7265737300000000000000000000000000000000000000000000000000000000602082015250565b6000612705602483611d0f565b9150612710826126a9565b604082019050919050565b60006020820190508181036000830152612734816126f8565b9050919050565b7f45524332303a20617070726f766520746f20746865207a65726f20616464726560008201527f7373000000000000000000000000000000000000000000000000000000000000602082015250565b6000612797602283611d0f565b91506127a28261273b565b604082019050919050565b600060208201905081810360008301526127c68161278a565b9050919050565b7f45524332303a207472616e736665722066726f6d20746865207a65726f20616460008201527f6472657373000000000000000000000000000000000000000000000000000000602082015250565b6000612829602583611d0f565b9150612834826127cd565b604082019050919050565b600060208201905081810360008301526128588161281c565b9050919050565b7f45524332303a207472616e7366657220746f20746865207a65726f206164647260008201527f6573730000000000000000000000000000000000000000000000000000000000602082015250565b60006128bb602383611d0f565b91506128c68261285f565b604082019050919050565b600060208201905081810360008301526128ea816128ae565b9050919050565b7f45524332303a207472616e7366657220616d6f756e742065786365656473206260008201527f616c616e63650000000000000000000000000000000000000000000000000000602082015250565b600061294d602683611d0f565b9150612958826128f1565b604082019050919050565b6000602082019050818103600083015261297c81612940565b9050919050565b7f45524332303a206275726e2066726f6d20746865207a65726f2061646472657360008201527f7300000000000000000000000000000000000000000000000000000000000000602082015250565b60006129df602183611d0f565b91506129ea82612983565b604082019050919050565b60006020820190508181036000830152612a0e816129d2565b9050919050565b7f45524332303a206275726e20616d6f756e7420657863656564732062616c616e60008201527f6365000000000000000000000000000000000000000000000000000000000000602082015250565b6000612a71602283611d0f565b9150612a7c82612a15565b604082019050919050565b60006020820190508181036000830152612aa081612a64565b9050919050565b7f45524332303a206d696e7420746f20746865207a65726f206164647265737300600082015250565b6000612add601f83611d0f565b9150612ae882612aa7565b602082019050919050565b60006020820190508181036000830152612b0c81612ad0565b905091905056fea264697066735822122031a38d34b5a2bdc43aefb218a352ba1bff584cdcc14332d6f90d6a4f24d12ab364736f6c634300080a0033",
  "immutableReferences": {},
  "source": "// SPDX-License-Identifier: MIT \npragma solidity ^0.8.10; \n\nimport \"@openzeppelin/contracts/token/ERC20/IERC20.sol\"; \nimport \"@openzeppelin/contracts/token/ERC20/ERC20.sol\"; \nimport \"./strategies/CreamFtmTombStrategy.sol\"; \n\n//The deposit contract for Djinn Finance\ncontract DjinnBottleUSDC is ERC20 {\n\n//\taddress public immutable USDC = 0x04068DA6C83AFCFA0e13ba15A6696662335D5B75;  \t \n\tIERC20 public usdc;\n\t\n//\tmapping(address => uint) public crShares; \n\n\tuint private constant PROTOCOL_FEE = 100; \n\taddress public PROTOCOL_TREASURY; //the protocol collects 1% USDC deposits and 1% yield bearing assets\n\n\taddress private admin; //deployer address used to perform basic admin features\n\tDeltaNeutralFtmTomb public deltaNeutral; \n\n\tconstructor( address _usdc, address _treasury) ERC20(\"Djinn Finance USDC Vault\",\"dfUSDC\") {\n\t\tadmin = msg.sender; \n\t\tusdc = IERC20(_usdc); \n\t\tPROTOCOL_TREASURY = _treasury; \n\t}\n\n\tfunction changeTreasuryAddress(address newAddress) external {\n\t\trequire(msg.sender == admin, \"!admin\"); \n\t\tPROTOCOL_TREASURY = newAddress; \t\n\t\tdeltaNeutral.setTreasury(newAddress); \n\t}\n\n\tfunction changeAdmin(address newAdmin) external {\n\t\trequire(msg.sender == admin, \"!admin\"); \n\t\tadmin = newAdmin; \n\t}\n\t\n\t//set strategy address \n\tfunction initialize(DeltaNeutralFtmTomb _deltaNeutral) external {\n\t\trequire(msg.sender == admin, \"!admin\"); \n\t\tdeltaNeutral = _deltaNeutral; \n\t}\n\n\tfunction balance() public returns(uint) {\n\t\treturn usdc.balanceOf(address(this)) + deltaNeutral.getUnderlying(); \n\t}\n\n\tfunction deposit(uint amount) public {\n\t\tusdc.transferFrom(msg.sender, address(this), amount); \t\t\n\n\t\tuint feeAmount = (amount * PROTOCOL_FEE) / 1e4;  //1% deposit fee \n\t\tuint newAmount = amount - feeAmount;\n\t\tuint shareAmount = (newAmount * totalSupply()) / 1e8; \n\n\t\t//send to strategy contract \n\t\tusdc.transfer(address(deltaNeutral), newAmount); \n\t\tdeltaNeutral.open(msg.sender, newAmount);  \n\n\t\t//send fee to treasury address \n\t\tusdc.transfer(PROTOCOL_TREASURY, feeAmount); \n\t}\n\t\n\t//we get msg.sender's % of pool and then use that to convert to tokens \n\tfunction withdraw(uint amountShares) public returns(uint) {\n\t\trequire(amountShares <= IERC20(address(this)).balanceOf(msg.sender), \"no\"); \n\t\t\t\t\n\t\t//then we pass this to the strategy contract to withdraw the correct % of LP tokens (I think??) \n\t\tuint beforeBal = usdc.balanceOf(address(this)); \n\t\tdeltaNeutral.close(msg.sender, amountShares); \n\t\tuint afterBal = usdc.balanceOf(address(this));\n\n\t\t_burn(msg.sender, amountShares); \t\n\n\t\t//send back user their usdc \n\t\tuint amountToWithdraw = afterBal - beforeBal; \n\t\tusdc.transfer(msg.sender, amountToWithdraw);\n\t}\t\n\n\tfunction harvest() external {\n\t\tdeltaNeutral.harvest(); \n\t}\n\n\tfunction storeCrTokens(address user, uint amountUSDC, uint amountETH) external {\n\t\trequire(msg.sender == address(deltaNeutral), \"no\"); \n\t\tuint amountTotal = amountUSDC + amountETH; \n\t\t_mint(user, amountTotal); \n\t}\t\n\n\n}\n",
  "sourcePath": "/home/kevin/Code/solidity_projects/djinn/contracts/DjinnBottleUSDC.sol",
  "compiler": {
    "name": "solc",
    "version": "0.8.10+commit.fc410830.Emscripten.clang"
  },
  "schemaVersion": "3.4.3",
  "updatedAt": "2022-03-02T23:56:36.390Z",
  "networkType": "ethereum",
  "devdoc": {
    "kind": "dev",
    "methods": {
      "allowance(address,address)": {
        "details": "See {IERC20-allowance}."
      },
      "approve(address,uint256)": {
        "details": "See {IERC20-approve}. Requirements: - `spender` cannot be the zero address."
      },
      "balanceOf(address)": {
        "details": "See {IERC20-balanceOf}."
      },
      "decimals()": {
        "details": "Returns the number of decimals used to get its user representation. For example, if `decimals` equals `2`, a balance of `505` tokens should be displayed to a user as `5.05` (`505 / 10 ** 2`). Tokens usually opt for a value of 18, imitating the relationship between Ether and Wei. This is the value {ERC20} uses, unless this function is overridden; NOTE: This information is only used for _display_ purposes: it in no way affects any of the arithmetic of the contract, including {IERC20-balanceOf} and {IERC20-transfer}."
      },
      "decreaseAllowance(address,uint256)": {
        "details": "Atomically decreases the allowance granted to `spender` by the caller. This is an alternative to {approve} that can be used as a mitigation for problems described in {IERC20-approve}. Emits an {Approval} event indicating the updated allowance. Requirements: - `spender` cannot be the zero address. - `spender` must have allowance for the caller of at least `subtractedValue`."
      },
      "increaseAllowance(address,uint256)": {
        "details": "Atomically increases the allowance granted to `spender` by the caller. This is an alternative to {approve} that can be used as a mitigation for problems described in {IERC20-approve}. Emits an {Approval} event indicating the updated allowance. Requirements: - `spender` cannot be the zero address."
      },
      "name()": {
        "details": "Returns the name of the token."
      },
      "symbol()": {
        "details": "Returns the symbol of the token, usually a shorter version of the name."
      },
      "totalSupply()": {
        "details": "See {IERC20-totalSupply}."
      },
      "transfer(address,uint256)": {
        "details": "See {IERC20-transfer}. Requirements: - `recipient` cannot be the zero address. - the caller must have a balance of at least `amount`."
      },
      "transferFrom(address,address,uint256)": {
        "details": "See {IERC20-transferFrom}. Emits an {Approval} event indicating the updated allowance. This is not required by the EIP. See the note at the beginning of {ERC20}. Requirements: - `sender` and `recipient` cannot be the zero address. - `sender` must have a balance of at least `amount`. - the caller must have allowance for ``sender``'s tokens of at least `amount`."
      }
    },
    "version": 1
  },
  "userdoc": {
    "kind": "user",
    "methods": {},
    "version": 1
  }
}