{
  "contractName": "DjinnBottleUSDC",
  "abi": [
    {
      "inputs": [
        {
          "internalType": "address",
          "name": "_usdc",
          "type": "address"
        },
        {
          "internalType": "contract ShortFarmFTM",
          "name": "_shortStrategy",
          "type": "address"
        }
      ],
      "stateMutability": "nonpayable",
      "type": "constructor"
    },
    {
      "anonymous": false,
      "inputs": [
        {
          "indexed": true,
          "internalType": "address",
          "name": "owner",
          "type": "address"
        },
        {
          "indexed": true,
          "internalType": "address",
          "name": "spender",
          "type": "address"
        },
        {
          "indexed": false,
          "internalType": "uint256",
          "name": "value",
          "type": "uint256"
        }
      ],
      "name": "Approval",
      "type": "event"
    },
    {
      "anonymous": false,
      "inputs": [
        {
          "indexed": true,
          "internalType": "address",
          "name": "from",
          "type": "address"
        },
        {
          "indexed": true,
          "internalType": "address",
          "name": "to",
          "type": "address"
        },
        {
          "indexed": false,
          "internalType": "uint256",
          "name": "value",
          "type": "uint256"
        }
      ],
      "name": "Transfer",
      "type": "event"
    },
    {
      "inputs": [],
      "name": "USDC",
      "outputs": [
        {
          "internalType": "address",
          "name": "",
          "type": "address"
        }
      ],
      "stateMutability": "view",
      "type": "function"
    },
    {
      "inputs": [
        {
          "internalType": "address",
          "name": "owner",
          "type": "address"
        },
        {
          "internalType": "address",
          "name": "spender",
          "type": "address"
        }
      ],
      "name": "allowance",
      "outputs": [
        {
          "internalType": "uint256",
          "name": "",
          "type": "uint256"
        }
      ],
      "stateMutability": "view",
      "type": "function"
    },
    {
      "inputs": [
        {
          "internalType": "address",
          "name": "spender",
          "type": "address"
        },
        {
          "internalType": "uint256",
          "name": "amount",
          "type": "uint256"
        }
      ],
      "name": "approve",
      "outputs": [
        {
          "internalType": "bool",
          "name": "",
          "type": "bool"
        }
      ],
      "stateMutability": "nonpayable",
      "type": "function"
    },
    {
      "inputs": [
        {
          "internalType": "address",
          "name": "account",
          "type": "address"
        }
      ],
      "name": "balanceOf",
      "outputs": [
        {
          "internalType": "uint256",
          "name": "",
          "type": "uint256"
        }
      ],
      "stateMutability": "view",
      "type": "function"
    },
    {
      "inputs": [],
      "name": "decimals",
      "outputs": [
        {
          "internalType": "uint8",
          "name": "",
          "type": "uint8"
        }
      ],
      "stateMutability": "view",
      "type": "function"
    },
    {
      "inputs": [
        {
          "internalType": "address",
          "name": "spender",
          "type": "address"
        },
        {
          "internalType": "uint256",
          "name": "subtractedValue",
          "type": "uint256"
        }
      ],
      "name": "decreaseAllowance",
      "outputs": [
        {
          "internalType": "bool",
          "name": "",
          "type": "bool"
        }
      ],
      "stateMutability": "nonpayable",
      "type": "function"
    },
    {
      "inputs": [],
      "name": "globalRewards",
      "outputs": [
        {
          "internalType": "uint256",
          "name": "",
          "type": "uint256"
        }
      ],
      "stateMutability": "view",
      "type": "function"
    },
    {
      "inputs": [
        {
          "internalType": "address",
          "name": "spender",
          "type": "address"
        },
        {
          "internalType": "uint256",
          "name": "addedValue",
          "type": "uint256"
        }
      ],
      "name": "increaseAllowance",
      "outputs": [
        {
          "internalType": "bool",
          "name": "",
          "type": "bool"
        }
      ],
      "stateMutability": "nonpayable",
      "type": "function"
    },
    {
      "inputs": [],
      "name": "name",
      "outputs": [
        {
          "internalType": "string",
          "name": "",
          "type": "string"
        }
      ],
      "stateMutability": "view",
      "type": "function"
    },
    {
      "inputs": [],
      "name": "shortStrategy",
      "outputs": [
        {
          "internalType": "contract ShortFarmFTM",
          "name": "",
          "type": "address"
        }
      ],
      "stateMutability": "view",
      "type": "function"
    },
    {
      "inputs": [],
      "name": "symbol",
      "outputs": [
        {
          "internalType": "string",
          "name": "",
          "type": "string"
        }
      ],
      "stateMutability": "view",
      "type": "function"
    },
    {
      "inputs": [],
      "name": "totalSupply",
      "outputs": [
        {
          "internalType": "uint256",
          "name": "",
          "type": "uint256"
        }
      ],
      "stateMutability": "view",
      "type": "function"
    },
    {
      "inputs": [
        {
          "internalType": "address",
          "name": "recipient",
          "type": "address"
        },
        {
          "internalType": "uint256",
          "name": "amount",
          "type": "uint256"
        }
      ],
      "name": "transfer",
      "outputs": [
        {
          "internalType": "bool",
          "name": "",
          "type": "bool"
        }
      ],
      "stateMutability": "nonpayable",
      "type": "function"
    },
    {
      "inputs": [
        {
          "internalType": "address",
          "name": "sender",
          "type": "address"
        },
        {
          "internalType": "address",
          "name": "recipient",
          "type": "address"
        },
        {
          "internalType": "uint256",
          "name": "amount",
          "type": "uint256"
        }
      ],
      "name": "transferFrom",
      "outputs": [
        {
          "internalType": "bool",
          "name": "",
          "type": "bool"
        }
      ],
      "stateMutability": "nonpayable",
      "type": "function"
    },
    {
      "inputs": [],
      "name": "usdc",
      "outputs": [
        {
          "internalType": "contract IERC20",
          "name": "",
          "type": "address"
        }
      ],
      "stateMutability": "view",
      "type": "function"
    },
    {
      "inputs": [
        {
          "internalType": "uint256",
          "name": "amount",
          "type": "uint256"
        }
      ],
      "name": "deposit",
      "outputs": [],
      "stateMutability": "nonpayable",
      "type": "function"
    },
    {
      "inputs": [
        {
          "internalType": "uint256",
          "name": "amount",
          "type": "uint256"
        }
      ],
      "name": "withdraw",
      "outputs": [],
      "stateMutability": "nonpayable",
      "type": "function"
    },
    {
      "inputs": [],
      "name": "claim",
      "outputs": [],
      "stateMutability": "nonpayable",
      "type": "function"
    },
    {
      "inputs": [
        {
          "internalType": "uint256",
          "name": "amount",
          "type": "uint256"
        }
      ],
      "name": "depositProfits",
      "outputs": [],
      "stateMutability": "nonpayable",
      "type": "function"
    }
  ],
  "bytecode": "0x60a06040527304068da6c83afcfa0e13ba15a6696662335d5b7573ffffffffffffffffffffffffffffffffffffffff1660809073ffffffffffffffffffffffffffffffffffffffff168152503480156200005857600080fd5b50604051620025e2380380620025e283398181016040528101906200007e919062000348565b6040518060400160405280601881526020017f446a696e6e2046696e616e63652055534443205661756c7400000000000000008152506040518060400160405280600681526020017f646a555344430000000000000000000000000000000000000000000000000000815250816003908051906020019062000102929190620001e9565b5080600490805190602001906200011b929190620001e9565b50505033600860006101000a81548173ffffffffffffffffffffffffffffffffffffffff021916908373ffffffffffffffffffffffffffffffffffffffff16021790555081600760006101000a81548173ffffffffffffffffffffffffffffffffffffffff021916908373ffffffffffffffffffffffffffffffffffffffff16021790555080600960006101000a81548173ffffffffffffffffffffffffffffffffffffffff021916908373ffffffffffffffffffffffffffffffffffffffff1602179055505050620003f4565b828054620001f790620003be565b90600052602060002090601f0160209004810192826200021b576000855562000267565b82601f106200023657805160ff191683800117855562000267565b8280016001018555821562000267579182015b828111156200026657825182559160200191906001019062000249565b5b5090506200027691906200027a565b5090565b5b80821115620002955760008160009055506001016200027b565b5090565b600080fd5b600073ffffffffffffffffffffffffffffffffffffffff82169050919050565b6000620002cb826200029e565b9050919050565b620002dd81620002be565b8114620002e957600080fd5b50565b600081519050620002fd81620002d2565b92915050565b60006200031082620002be565b9050919050565b620003228162000303565b81146200032e57600080fd5b50565b600081519050620003428162000317565b92915050565b6000806040838503121562000362576200036162000299565b5b60006200037285828601620002ec565b9250506020620003858582860162000331565b9150509250929050565b7f4e487b7100000000000000000000000000000000000000000000000000000000600052602260045260246000fd5b60006002820490506001821680620003d757607f821691505b60208210811415620003ee57620003ed6200038f565b5b50919050565b6080516121d262000410600039600061094701526121d26000f3fe608060405234801561001057600080fd5b50600436106101215760003560e01c806370a08231116100ad578063a457c2d711610071578063a457c2d7146102fc578063a9059cbb1461032c578063b6b55f251461035c578063dd62ed3e14610378578063ee73d66b146103a857610121565b806370a08231146102545780637423031e1461028457806389a30271146102a257806389c4fa12146102c057806395d89b41146102de57610121565b80632e1a7d4d116100f45780632e1a7d4d146101c2578063313ce567146101de57806339509351146101fc5780633e413bee1461022c5780634e71d92d1461024a57610121565b806306fdde0314610126578063095ea7b31461014457806318160ddd1461017457806323b872dd14610192575b600080fd5b61012e6103c4565b60405161013b9190611698565b60405180910390f35b61015e60048036038101906101599190611753565b610456565b60405161016b91906117ae565b60405180910390f35b61017c610474565b60405161018991906117d8565b60405180910390f35b6101ac60048036038101906101a791906117f3565b61047e565b6040516101b991906117ae565b60405180910390f35b6101dc60048036038101906101d79190611846565b610576565b005b6101e6610811565b6040516101f3919061188f565b60405180910390f35b61021660048036038101906102119190611753565b61081a565b60405161022391906117ae565b60405180910390f35b6102346108c6565b6040516102419190611909565b60405180910390f35b6102526108ec565b005b61026e60048036038101906102699190611924565b6108f7565b60405161027b91906117d8565b60405180910390f35b61028c61093f565b60405161029991906117d8565b60405180910390f35b6102aa610945565b6040516102b79190611960565b60405180910390f35b6102c8610969565b6040516102d5919061199c565b60405180910390f35b6102e661098f565b6040516102f39190611698565b60405180910390f35b61031660048036038101906103119190611753565b610a21565b60405161032391906117ae565b60405180910390f35b61034660048036038101906103419190611753565b610b0c565b60405161035391906117ae565b60405180910390f35b61037660048036038101906103719190611846565b610b2a565b005b610392600480360381019061038d91906119b7565b610c7b565b60405161039f91906117d8565b60405180910390f35b6103c260048036038101906103bd9190611846565b610d02565b005b6060600380546103d390611a26565b80601f01602080910402602001604051908101604052809291908181526020018280546103ff90611a26565b801561044c5780601f106104215761010080835404028352916020019161044c565b820191906000526020600020905b81548152906001019060200180831161042f57829003601f168201915b5050505050905090565b600061046a610463610e51565b8484610e59565b6001905092915050565b6000600254905090565b600061048b848484611024565b6000600160008673ffffffffffffffffffffffffffffffffffffffff1673ffffffffffffffffffffffffffffffffffffffff16815260200190815260200160002060006104d6610e51565b73ffffffffffffffffffffffffffffffffffffffff1673ffffffffffffffffffffffffffffffffffffffff16815260200190815260200160002054905082811015610556576040517f08c379a000000000000000000000000000000000000000000000000000000000815260040161054d90611aca565b60405180910390fd5b61056a85610562610e51565b858403610e59565b60019150509392505050565b3073ffffffffffffffffffffffffffffffffffffffff166370a08231336040518263ffffffff1660e01b81526004016105af9190611960565b602060405180830381865afa1580156105cc573d6000803e3d6000fd5b505050506040513d601f19601f820116820180604052508101906105f09190611aff565b811115610632576040517f08c379a000000000000000000000000000000000000000000000000000000000815260040161062990611b78565b60405180910390fd5b6000813073ffffffffffffffffffffffffffffffffffffffff166370a08231336040518263ffffffff1660e01b815260040161066e9190611960565b602060405180830381865afa15801561068b573d6000803e3d6000fd5b505050506040513d601f19601f820116820180604052508101906106af9190611aff565b6106b99190611bc7565b9050600060646106c7610474565b836106d29190611c2a565b6106dc9190611c5b565b9050600960009054906101000a900473ffffffffffffffffffffffffffffffffffffffff1673ffffffffffffffffffffffffffffffffffffffff16630aebeb4e826040518263ffffffff1660e01b815260040161073991906117d8565b600060405180830381600087803b15801561075357600080fd5b505af1158015610767573d6000803e3d6000fd5b50505050600760009054906101000a900473ffffffffffffffffffffffffffffffffffffffff1673ffffffffffffffffffffffffffffffffffffffff1663a9059cbb33856040518363ffffffff1660e01b81526004016107c8929190611cb5565b6020604051808303816000875af11580156107e7573d6000803e3d6000fd5b505050506040513d601f19601f8201168201806040525081019061080b9190611d0a565b50505050565b60006012905090565b60006108bc610827610e51565b848460016000610835610e51565b73ffffffffffffffffffffffffffffffffffffffff1673ffffffffffffffffffffffffffffffffffffffff16815260200190815260200160002060008873ffffffffffffffffffffffffffffffffffffffff1673ffffffffffffffffffffffffffffffffffffffff168152602001908152602001600020546108b79190611d37565b610e59565b6001905092915050565b600760009054906101000a900473ffffffffffffffffffffffffffffffffffffffff1681565b6108f5336112a5565b565b60008060008373ffffffffffffffffffffffffffffffffffffffff1673ffffffffffffffffffffffffffffffffffffffff168152602001908152602001600020549050919050565b60055481565b7f000000000000000000000000000000000000000000000000000000000000000081565b600960009054906101000a900473ffffffffffffffffffffffffffffffffffffffff1681565b60606004805461099e90611a26565b80601f01602080910402602001604051908101604052809291908181526020018280546109ca90611a26565b8015610a175780601f106109ec57610100808354040283529160200191610a17565b820191906000526020600020905b8154815290600101906020018083116109fa57829003601f168201915b5050505050905090565b60008060016000610a30610e51565b73ffffffffffffffffffffffffffffffffffffffff1673ffffffffffffffffffffffffffffffffffffffff16815260200190815260200160002060008573ffffffffffffffffffffffffffffffffffffffff1673ffffffffffffffffffffffffffffffffffffffff16815260200190815260200160002054905082811015610aed576040517f08c379a0000000000000000000000000000000000000000000000000000000008152600401610ae490611dff565b60405180910390fd5b610b01610af8610e51565b85858403610e59565b600191505092915050565b6000610b20610b19610e51565b8484611024565b6001905092915050565b600760009054906101000a900473ffffffffffffffffffffffffffffffffffffffff1673ffffffffffffffffffffffffffffffffffffffff1663095ea7b330836040518363ffffffff1660e01b8152600401610b87929190611cb5565b6020604051808303816000875af1158015610ba6573d6000803e3d6000fd5b505050506040513d601f19601f82011682018060405250810190610bca9190611d0a565b50600760009054906101000a900473ffffffffffffffffffffffffffffffffffffffff1673ffffffffffffffffffffffffffffffffffffffff166323b872dd3330846040518463ffffffff1660e01b8152600401610c2a93929190611e1f565b6020604051808303816000875af1158015610c49573d6000803e3d6000fd5b505050506040513d601f19601f82011682018060405250810190610c6d9190611d0a565b50610c783382611310565b50565b6000600160008473ffffffffffffffffffffffffffffffffffffffff1673ffffffffffffffffffffffffffffffffffffffff16815260200190815260200160002060008373ffffffffffffffffffffffffffffffffffffffff1673ffffffffffffffffffffffffffffffffffffffff16815260200190815260200160002054905092915050565b600860009054906101000a900473ffffffffffffffffffffffffffffffffffffffff1673ffffffffffffffffffffffffffffffffffffffff163373ffffffffffffffffffffffffffffffffffffffff1614610d92576040517f08c379a0000000000000000000000000000000000000000000000000000000008152600401610d8990611b78565b60405180910390fd5b600760009054906101000a900473ffffffffffffffffffffffffffffffffffffffff1673ffffffffffffffffffffffffffffffffffffffff166323b872dd3330846040518463ffffffff1660e01b8152600401610df193929190611e1f565b6020604051808303816000875af1158015610e10573d6000803e3d6000fd5b505050506040513d601f19601f82011682018060405250810190610e349190611d0a565b508060056000828254610e479190611d37565b9250508190555050565b600033905090565b600073ffffffffffffffffffffffffffffffffffffffff168373ffffffffffffffffffffffffffffffffffffffff161415610ec9576040517f08c379a0000000000000000000000000000000000000000000000000000000008152600401610ec090611ec8565b60405180910390fd5b600073ffffffffffffffffffffffffffffffffffffffff168273ffffffffffffffffffffffffffffffffffffffff161415610f39576040517f08c379a0000000000000000000000000000000000000000000000000000000008152600401610f3090611f5a565b60405180910390fd5b80600160008573ffffffffffffffffffffffffffffffffffffffff1673ffffffffffffffffffffffffffffffffffffffff16815260200190815260200160002060008473ffffffffffffffffffffffffffffffffffffffff1673ffffffffffffffffffffffffffffffffffffffff168152602001908152602001600020819055508173ffffffffffffffffffffffffffffffffffffffff168373ffffffffffffffffffffffffffffffffffffffff167f8c5be1e5ebec7d5bd14f71427d1e84f3dd0314c0f7b2291e5b200ac8c7c3b9258360405161101791906117d8565b60405180910390a3505050565b600073ffffffffffffffffffffffffffffffffffffffff168373ffffffffffffffffffffffffffffffffffffffff161415611094576040517f08c379a000000000000000000000000000000000000000000000000000000000815260040161108b90611fec565b60405180910390fd5b600073ffffffffffffffffffffffffffffffffffffffff168273ffffffffffffffffffffffffffffffffffffffff161415611104576040517f08c379a00000000000000000000000000000000000000000000000000000000081526004016110fb9061207e565b60405180910390fd5b61110f838383611470565b60008060008573ffffffffffffffffffffffffffffffffffffffff1673ffffffffffffffffffffffffffffffffffffffff16815260200190815260200160002054905081811015611195576040517f08c379a000000000000000000000000000000000000000000000000000000000815260040161118c90612110565b60405180910390fd5b8181036000808673ffffffffffffffffffffffffffffffffffffffff1673ffffffffffffffffffffffffffffffffffffffff16815260200190815260200160002081905550816000808573ffffffffffffffffffffffffffffffffffffffff1673ffffffffffffffffffffffffffffffffffffffff16815260200190815260200160002060008282546112289190611d37565b925050819055508273ffffffffffffffffffffffffffffffffffffffff168473ffffffffffffffffffffffffffffffffffffffff167fddf252ad1be2c89b69c2b068fc378daa952ba7f163c4a11628f55a4df523b3ef8460405161128c91906117d8565b60405180910390a361129f848484611475565b50505050565b60006112b08261147a565b9050600081111561130c576112c58282611310565b600554600660008473ffffffffffffffffffffffffffffffffffffffff1673ffffffffffffffffffffffffffffffffffffffff168152602001908152602001600020819055505b5050565b600073ffffffffffffffffffffffffffffffffffffffff168273ffffffffffffffffffffffffffffffffffffffff161415611380576040517f08c379a00000000000000000000000000000000000000000000000000000000081526004016113779061217c565b60405180910390fd5b61138c60008383611470565b806002600082825461139e9190611d37565b92505081905550806000808473ffffffffffffffffffffffffffffffffffffffff1673ffffffffffffffffffffffffffffffffffffffff16815260200190815260200160002060008282546113f39190611d37565b925050819055508173ffffffffffffffffffffffffffffffffffffffff16600073ffffffffffffffffffffffffffffffffffffffff167fddf252ad1be2c89b69c2b068fc378daa952ba7f163c4a11628f55a4df523b3ef8360405161145891906117d8565b60405180910390a361146c60008383611475565b5050565b505050565b505050565b600080600660008473ffffffffffffffffffffffffffffffffffffffff1673ffffffffffffffffffffffffffffffffffffffff168152602001908152602001600020546005546114ca9190611bc7565b9050600760009054906101000a900473ffffffffffffffffffffffffffffffffffffffff1673ffffffffffffffffffffffffffffffffffffffff166370a08231306040518263ffffffff1660e01b81526004016115279190611960565b602060405180830381865afa158015611544573d6000803e3d6000fd5b505050506040513d601f19601f820116820180604052508101906115689190611aff565b816115739190611c2a565b3073ffffffffffffffffffffffffffffffffffffffff166370a08231336040518263ffffffff1660e01b81526004016115ac9190611960565b602060405180830381865afa1580156115c9573d6000803e3d6000fd5b505050506040513d601f19601f820116820180604052508101906115ed9190611aff565b6115f79190611c5b565b915050919050565b600081519050919050565b600082825260208201905092915050565b60005b8381101561163957808201518184015260208101905061161e565b83811115611648576000848401525b50505050565b6000601f19601f8301169050919050565b600061166a826115ff565b611674818561160a565b935061168481856020860161161b565b61168d8161164e565b840191505092915050565b600060208201905081810360008301526116b2818461165f565b905092915050565b600080fd5b600073ffffffffffffffffffffffffffffffffffffffff82169050919050565b60006116ea826116bf565b9050919050565b6116fa816116df565b811461170557600080fd5b50565b600081359050611717816116f1565b92915050565b6000819050919050565b6117308161171d565b811461173b57600080fd5b50565b60008135905061174d81611727565b92915050565b6000806040838503121561176a576117696116ba565b5b600061177885828601611708565b92505060206117898582860161173e565b9150509250929050565b60008115159050919050565b6117a881611793565b82525050565b60006020820190506117c3600083018461179f565b92915050565b6117d28161171d565b82525050565b60006020820190506117ed60008301846117c9565b92915050565b60008060006060848603121561180c5761180b6116ba565b5b600061181a86828701611708565b935050602061182b86828701611708565b925050604061183c8682870161173e565b9150509250925092565b60006020828403121561185c5761185b6116ba565b5b600061186a8482850161173e565b91505092915050565b600060ff82169050919050565b61188981611873565b82525050565b60006020820190506118a46000830184611880565b92915050565b6000819050919050565b60006118cf6118ca6118c5846116bf565b6118aa565b6116bf565b9050919050565b60006118e1826118b4565b9050919050565b60006118f3826118d6565b9050919050565b611903816118e8565b82525050565b600060208201905061191e60008301846118fa565b92915050565b60006020828403121561193a576119396116ba565b5b600061194884828501611708565b91505092915050565b61195a816116df565b82525050565b60006020820190506119756000830184611951565b92915050565b6000611986826118d6565b9050919050565b6119968161197b565b82525050565b60006020820190506119b1600083018461198d565b92915050565b600080604083850312156119ce576119cd6116ba565b5b60006119dc85828601611708565b92505060206119ed85828601611708565b9150509250929050565b7f4e487b7100000000000000000000000000000000000000000000000000000000600052602260045260246000fd5b60006002820490506001821680611a3e57607f821691505b60208210811415611a5257611a516119f7565b5b50919050565b7f45524332303a207472616e7366657220616d6f756e742065786365656473206160008201527f6c6c6f77616e6365000000000000000000000000000000000000000000000000602082015250565b6000611ab460288361160a565b9150611abf82611a58565b604082019050919050565b60006020820190508181036000830152611ae381611aa7565b9050919050565b600081519050611af981611727565b92915050565b600060208284031215611b1557611b146116ba565b5b6000611b2384828501611aea565b91505092915050565b7f6e6f000000000000000000000000000000000000000000000000000000000000600082015250565b6000611b6260028361160a565b9150611b6d82611b2c565b602082019050919050565b60006020820190508181036000830152611b9181611b55565b9050919050565b7f4e487b7100000000000000000000000000000000000000000000000000000000600052601160045260246000fd5b6000611bd28261171d565b9150611bdd8361171d565b925082821015611bf057611bef611b98565b5b828203905092915050565b7f4e487b7100000000000000000000000000000000000000000000000000000000600052601260045260246000fd5b6000611c358261171d565b9150611c408361171d565b925082611c5057611c4f611bfb565b5b828204905092915050565b6000611c668261171d565b9150611c718361171d565b9250817fffffffffffffffffffffffffffffffffffffffffffffffffffffffffffffffff0483118215151615611caa57611ca9611b98565b5b828202905092915050565b6000604082019050611cca6000830185611951565b611cd760208301846117c9565b9392505050565b611ce781611793565b8114611cf257600080fd5b50565b600081519050611d0481611cde565b92915050565b600060208284031215611d2057611d1f6116ba565b5b6000611d2e84828501611cf5565b91505092915050565b6000611d428261171d565b9150611d4d8361171d565b9250827fffffffffffffffffffffffffffffffffffffffffffffffffffffffffffffffff03821115611d8257611d81611b98565b5b828201905092915050565b7f45524332303a2064656372656173656420616c6c6f77616e63652062656c6f7760008201527f207a65726f000000000000000000000000000000000000000000000000000000602082015250565b6000611de960258361160a565b9150611df482611d8d565b604082019050919050565b60006020820190508181036000830152611e1881611ddc565b9050919050565b6000606082019050611e346000830186611951565b611e416020830185611951565b611e4e60408301846117c9565b949350505050565b7f45524332303a20617070726f76652066726f6d20746865207a65726f2061646460008201527f7265737300000000000000000000000000000000000000000000000000000000602082015250565b6000611eb260248361160a565b9150611ebd82611e56565b604082019050919050565b60006020820190508181036000830152611ee181611ea5565b9050919050565b7f45524332303a20617070726f766520746f20746865207a65726f20616464726560008201527f7373000000000000000000000000000000000000000000000000000000000000602082015250565b6000611f4460228361160a565b9150611f4f82611ee8565b604082019050919050565b60006020820190508181036000830152611f7381611f37565b9050919050565b7f45524332303a207472616e736665722066726f6d20746865207a65726f20616460008201527f6472657373000000000000000000000000000000000000000000000000000000602082015250565b6000611fd660258361160a565b9150611fe182611f7a565b604082019050919050565b6000602082019050818103600083015261200581611fc9565b9050919050565b7f45524332303a207472616e7366657220746f20746865207a65726f206164647260008201527f6573730000000000000000000000000000000000000000000000000000000000602082015250565b600061206860238361160a565b91506120738261200c565b604082019050919050565b600060208201905081810360008301526120978161205b565b9050919050565b7f45524332303a207472616e7366657220616d6f756e742065786365656473206260008201527f616c616e63650000000000000000000000000000000000000000000000000000602082015250565b60006120fa60268361160a565b91506121058261209e565b604082019050919050565b60006020820190508181036000830152612129816120ed565b9050919050565b7f45524332303a206d696e7420746f20746865207a65726f206164647265737300600082015250565b6000612166601f8361160a565b915061217182612130565b602082019050919050565b6000602082019050818103600083015261219581612159565b905091905056fea26469706673582212202b5b9dec01a68192bfc1bb08b7fcff97d633085a51d8e41dfab5f2b7c760fd8d64736f6c634300080a0033",
  "immutableReferences": {
    "1076": [
      {
        "length": 32,
        "start": 2375
      }
    ]
  },
  "source": "// SPDX-License-Identifier: MIT \npragma solidity ^0.8.10; \n\nimport \"@openzeppelin/contracts/token/ERC20/IERC20.sol\"; \nimport \"@openzeppelin/contracts/token/ERC20/ERC20.sol\"; \nimport \"./strategies/ShortFarmFTM.sol\"; \n\n//The deposit contract for Djinn Finance\ncontract DjinnBottleUSDC is ERC20 {\n\n\taddress public immutable USDC = 0x04068DA6C83AFCFA0e13ba15A6696662335D5B75;  \t \n\tuint public globalRewards; \n\tmapping(address => uint) private lastHarvest; \n\tIERC20 public usdc;\n\n\taddress private admin; \t\n\tShortFarmFTM public shortStrategy; \n\n\tconstructor( address _usdc, ShortFarmFTM _shortStrategy) ERC20(\"Djinn Finance USDC Vault\",\"djUSDC\") {\n\t\tadmin = msg.sender; \n\t\tusdc = IERC20(_usdc); \n\t\tshortStrategy = _shortStrategy; \t\n\t}\n\n\tfunction deposit(uint amount) public {\n\t\tusdc.approve(address(this), amount);\n\t\tusdc.transferFrom(msg.sender, address(this), amount); \t\t\n\t\t//mint tokens 1:1 to usdc to keep it simple \n\t\t_mint(msg.sender, amount); \n\t}\n\t\n\t//we get msg.sender's % of pool and then subtract amount to get percent to withdraw\n\tfunction withdraw(uint amount) public {\n\t\trequire(amount <= IERC20(address(this)).balanceOf(msg.sender), \"no\"); \t\n\t\t//calculate how much the user is owed in LP tokens \n\t\tuint newAmount = IERC20(address(this)).balanceOf(msg.sender) - amount; \n\t\tuint percentToWithdraw = newAmount / totalSupply() * 100; \n\t\t//then we pass this to the strategy contract to withdraw the correct % of LP tokens\n\t\tshortStrategy.close(percentToWithdraw); \n\n\t\t//send back user their usdc \n\t\tusdc.transfer(msg.sender, amount); \n\t}\n\n\tfunction claim() external {\n\t\tcheckHarvest(msg.sender); \n\t}\n\t\n\t//get percentage of profits by balance of this erc20 token in wallet \n\tfunction harvest(address user) internal view returns(uint) {\n\t\tuint percentageReward = globalRewards - lastHarvest[user]; \n\t\t\n\t\treturn IERC20(address(this)).balanceOf(msg.sender) * (percentageReward / usdc.balanceOf(address(this))); \n\t}\n\n\tfunction checkHarvest(address user) internal {\n\t\tuint owed = harvest(user); \n\t\tif (owed > 0) { \n\t\t\t_mint(user, owed); \n\t\t\tlastHarvest[user] = globalRewards; \n\t\t}\n\t}\n\t\n\t//deposits from strategies using this function  \n\tfunction depositProfits(uint amount) external {\n\t\trequire(msg.sender == admin, \"no\"); \n\t\tusdc.transferFrom(msg.sender, address(this), amount); \n\t\n\t\tglobalRewards += amount; \n\t}\n}\n\n\n",
  "sourcePath": "/home/kevin/Code/solidity_projects/djinnFinance/contracts/DjinnBottleUSDC.sol",
  "compiler": {
    "name": "solc",
    "version": "0.8.10+commit.fc410830.Emscripten.clang"
  },
  "schemaVersion": "3.4.3",
  "updatedAt": "2022-01-21T22:12:06.446Z",
  "devdoc": {
    "kind": "dev",
    "methods": {
      "allowance(address,address)": {
        "details": "See {IERC20-allowance}."
      },
      "approve(address,uint256)": {
        "details": "See {IERC20-approve}. Requirements: - `spender` cannot be the zero address."
      },
      "balanceOf(address)": {
        "details": "See {IERC20-balanceOf}."
      },
      "decimals()": {
        "details": "Returns the number of decimals used to get its user representation. For example, if `decimals` equals `2`, a balance of `505` tokens should be displayed to a user as `5.05` (`505 / 10 ** 2`). Tokens usually opt for a value of 18, imitating the relationship between Ether and Wei. This is the value {ERC20} uses, unless this function is overridden; NOTE: This information is only used for _display_ purposes: it in no way affects any of the arithmetic of the contract, including {IERC20-balanceOf} and {IERC20-transfer}."
      },
      "decreaseAllowance(address,uint256)": {
        "details": "Atomically decreases the allowance granted to `spender` by the caller. This is an alternative to {approve} that can be used as a mitigation for problems described in {IERC20-approve}. Emits an {Approval} event indicating the updated allowance. Requirements: - `spender` cannot be the zero address. - `spender` must have allowance for the caller of at least `subtractedValue`."
      },
      "increaseAllowance(address,uint256)": {
        "details": "Atomically increases the allowance granted to `spender` by the caller. This is an alternative to {approve} that can be used as a mitigation for problems described in {IERC20-approve}. Emits an {Approval} event indicating the updated allowance. Requirements: - `spender` cannot be the zero address."
      },
      "name()": {
        "details": "Returns the name of the token."
      },
      "symbol()": {
        "details": "Returns the symbol of the token, usually a shorter version of the name."
      },
      "totalSupply()": {
        "details": "See {IERC20-totalSupply}."
      },
      "transfer(address,uint256)": {
        "details": "See {IERC20-transfer}. Requirements: - `recipient` cannot be the zero address. - the caller must have a balance of at least `amount`."
      },
      "transferFrom(address,address,uint256)": {
        "details": "See {IERC20-transferFrom}. Emits an {Approval} event indicating the updated allowance. This is not required by the EIP. See the note at the beginning of {ERC20}. Requirements: - `sender` and `recipient` cannot be the zero address. - `sender` must have a balance of at least `amount`. - the caller must have allowance for ``sender``'s tokens of at least `amount`."
      }
    },
    "version": 1
  },
  "userdoc": {
    "kind": "user",
    "methods": {},
    "version": 1
  }
}