{
  "contractName": "DjinnBottleUSDC",
  "abi": [
    {
      "inputs": [
        {
          "internalType": "address",
          "name": "_usdc",
          "type": "address"
        },
        {
          "internalType": "address",
          "name": "_controller",
          "type": "address"
        }
      ],
      "stateMutability": "nonpayable",
      "type": "constructor"
    },
    {
      "anonymous": false,
      "inputs": [
        {
          "indexed": true,
          "internalType": "address",
          "name": "owner",
          "type": "address"
        },
        {
          "indexed": true,
          "internalType": "address",
          "name": "spender",
          "type": "address"
        },
        {
          "indexed": false,
          "internalType": "uint256",
          "name": "value",
          "type": "uint256"
        }
      ],
      "name": "Approval",
      "type": "event"
    },
    {
      "anonymous": false,
      "inputs": [
        {
          "indexed": true,
          "internalType": "address",
          "name": "from",
          "type": "address"
        },
        {
          "indexed": true,
          "internalType": "address",
          "name": "to",
          "type": "address"
        },
        {
          "indexed": false,
          "internalType": "uint256",
          "name": "value",
          "type": "uint256"
        }
      ],
      "name": "Transfer",
      "type": "event"
    },
    {
      "inputs": [],
      "name": "USDC",
      "outputs": [
        {
          "internalType": "address",
          "name": "",
          "type": "address"
        }
      ],
      "stateMutability": "view",
      "type": "function",
      "constant": true
    },
    {
      "inputs": [
        {
          "internalType": "address",
          "name": "owner",
          "type": "address"
        },
        {
          "internalType": "address",
          "name": "spender",
          "type": "address"
        }
      ],
      "name": "allowance",
      "outputs": [
        {
          "internalType": "uint256",
          "name": "",
          "type": "uint256"
        }
      ],
      "stateMutability": "view",
      "type": "function",
      "constant": true
    },
    {
      "inputs": [
        {
          "internalType": "address",
          "name": "spender",
          "type": "address"
        },
        {
          "internalType": "uint256",
          "name": "amount",
          "type": "uint256"
        }
      ],
      "name": "approve",
      "outputs": [
        {
          "internalType": "bool",
          "name": "",
          "type": "bool"
        }
      ],
      "stateMutability": "nonpayable",
      "type": "function"
    },
    {
      "inputs": [
        {
          "internalType": "address",
          "name": "account",
          "type": "address"
        }
      ],
      "name": "balanceOf",
      "outputs": [
        {
          "internalType": "uint256",
          "name": "",
          "type": "uint256"
        }
      ],
      "stateMutability": "view",
      "type": "function",
      "constant": true
    },
    {
      "inputs": [],
      "name": "controller",
      "outputs": [
        {
          "internalType": "address",
          "name": "",
          "type": "address"
        }
      ],
      "stateMutability": "view",
      "type": "function",
      "constant": true
    },
    {
      "inputs": [],
      "name": "decimals",
      "outputs": [
        {
          "internalType": "uint8",
          "name": "",
          "type": "uint8"
        }
      ],
      "stateMutability": "view",
      "type": "function",
      "constant": true
    },
    {
      "inputs": [
        {
          "internalType": "address",
          "name": "spender",
          "type": "address"
        },
        {
          "internalType": "uint256",
          "name": "subtractedValue",
          "type": "uint256"
        }
      ],
      "name": "decreaseAllowance",
      "outputs": [
        {
          "internalType": "bool",
          "name": "",
          "type": "bool"
        }
      ],
      "stateMutability": "nonpayable",
      "type": "function"
    },
    {
      "inputs": [],
      "name": "globalRewards",
      "outputs": [
        {
          "internalType": "uint256",
          "name": "",
          "type": "uint256"
        }
      ],
      "stateMutability": "view",
      "type": "function",
      "constant": true
    },
    {
      "inputs": [
        {
          "internalType": "address",
          "name": "spender",
          "type": "address"
        },
        {
          "internalType": "uint256",
          "name": "addedValue",
          "type": "uint256"
        }
      ],
      "name": "increaseAllowance",
      "outputs": [
        {
          "internalType": "bool",
          "name": "",
          "type": "bool"
        }
      ],
      "stateMutability": "nonpayable",
      "type": "function"
    },
    {
      "inputs": [],
      "name": "name",
      "outputs": [
        {
          "internalType": "string",
          "name": "",
          "type": "string"
        }
      ],
      "stateMutability": "view",
      "type": "function",
      "constant": true
    },
    {
      "inputs": [],
      "name": "shortStrategy",
      "outputs": [
        {
          "internalType": "contract ShortFarmFTM",
          "name": "",
          "type": "address"
        }
      ],
      "stateMutability": "view",
      "type": "function",
      "constant": true
    },
    {
      "inputs": [],
      "name": "symbol",
      "outputs": [
        {
          "internalType": "string",
          "name": "",
          "type": "string"
        }
      ],
      "stateMutability": "view",
      "type": "function",
      "constant": true
    },
    {
      "inputs": [],
      "name": "totalSupply",
      "outputs": [
        {
          "internalType": "uint256",
          "name": "",
          "type": "uint256"
        }
      ],
      "stateMutability": "view",
      "type": "function",
      "constant": true
    },
    {
      "inputs": [
        {
          "internalType": "address",
          "name": "recipient",
          "type": "address"
        },
        {
          "internalType": "uint256",
          "name": "amount",
          "type": "uint256"
        }
      ],
      "name": "transfer",
      "outputs": [
        {
          "internalType": "bool",
          "name": "",
          "type": "bool"
        }
      ],
      "stateMutability": "nonpayable",
      "type": "function"
    },
    {
      "inputs": [
        {
          "internalType": "address",
          "name": "sender",
          "type": "address"
        },
        {
          "internalType": "address",
          "name": "recipient",
          "type": "address"
        },
        {
          "internalType": "uint256",
          "name": "amount",
          "type": "uint256"
        }
      ],
      "name": "transferFrom",
      "outputs": [
        {
          "internalType": "bool",
          "name": "",
          "type": "bool"
        }
      ],
      "stateMutability": "nonpayable",
      "type": "function"
    },
    {
      "inputs": [],
      "name": "usdc",
      "outputs": [
        {
          "internalType": "contract IERC20",
          "name": "",
          "type": "address"
        }
      ],
      "stateMutability": "view",
      "type": "function",
      "constant": true
    },
    {
      "inputs": [
        {
          "internalType": "contract ShortFarmFTM",
          "name": "_shortStrategy",
          "type": "address"
        }
      ],
      "name": "initialize",
      "outputs": [],
      "stateMutability": "nonpayable",
      "type": "function"
    },
    {
      "inputs": [],
      "name": "balance",
      "outputs": [
        {
          "internalType": "uint256",
          "name": "",
          "type": "uint256"
        }
      ],
      "stateMutability": "nonpayable",
      "type": "function"
    },
    {
      "inputs": [
        {
          "internalType": "uint256",
          "name": "shares",
          "type": "uint256"
        }
      ],
      "name": "testMint",
      "outputs": [],
      "stateMutability": "nonpayable",
      "type": "function"
    },
    {
      "inputs": [
        {
          "internalType": "uint256",
          "name": "amount",
          "type": "uint256"
        }
      ],
      "name": "deposit",
      "outputs": [],
      "stateMutability": "nonpayable",
      "type": "function"
    },
    {
      "inputs": [
        {
          "internalType": "uint256",
          "name": "amountShares",
          "type": "uint256"
        }
      ],
      "name": "withdraw",
      "outputs": [
        {
          "internalType": "uint256",
          "name": "",
          "type": "uint256"
        }
      ],
      "stateMutability": "nonpayable",
      "type": "function"
    },
    {
      "inputs": [],
      "name": "callHarvest",
      "outputs": [],
      "stateMutability": "nonpayable",
      "type": "function"
    },
    {
      "inputs": [],
      "name": "claim",
      "outputs": [],
      "stateMutability": "nonpayable",
      "type": "function"
    },
    {
      "inputs": [
        {
          "internalType": "uint256",
          "name": "amount",
          "type": "uint256"
        }
      ],
      "name": "depositProfits",
      "outputs": [],
      "stateMutability": "nonpayable",
      "type": "function"
    }
  ],
  "bytecode": "0x60a06040527304068da6c83afcfa0e13ba15a6696662335d5b7573ffffffffffffffffffffffffffffffffffffffff1660809073ffffffffffffffffffffffffffffffffffffffff168152503480156200005857600080fd5b50604051620031903803806200319083398181016040528101906200007e919062000303565b6040518060400160405280601881526020017f446a696e6e2046696e616e63652055534443205661756c7400000000000000008152506040518060400160405280600681526020017f6466555344430000000000000000000000000000000000000000000000000000815250816003908051906020019062000102929190620001e9565b5080600490805190602001906200011b929190620001e9565b50505033600860006101000a81548173ffffffffffffffffffffffffffffffffffffffff021916908373ffffffffffffffffffffffffffffffffffffffff16021790555081600760006101000a81548173ffffffffffffffffffffffffffffffffffffffff021916908373ffffffffffffffffffffffffffffffffffffffff16021790555080600960006101000a81548173ffffffffffffffffffffffffffffffffffffffff021916908373ffffffffffffffffffffffffffffffffffffffff1602179055505050620003af565b828054620001f79062000379565b90600052602060002090601f0160209004810192826200021b576000855562000267565b82601f106200023657805160ff191683800117855562000267565b8280016001018555821562000267579182015b828111156200026657825182559160200191906001019062000249565b5b5090506200027691906200027a565b5090565b5b80821115620002955760008160009055506001016200027b565b5090565b600080fd5b600073ffffffffffffffffffffffffffffffffffffffff82169050919050565b6000620002cb826200029e565b9050919050565b620002dd81620002be565b8114620002e957600080fd5b50565b600081519050620002fd81620002d2565b92915050565b600080604083850312156200031d576200031c62000299565b5b60006200032d85828601620002ec565b92505060206200034085828601620002ec565b9150509250929050565b7f4e487b7100000000000000000000000000000000000000000000000000000000600052602260045260246000fd5b600060028204905060018216806200039257607f821691505b60208210811415620003a957620003a86200034a565b5b50919050565b608051612dc5620003cb6000396000610bbc0152612dc56000f3fe608060405234801561001057600080fd5b50600436106101585760003560e01c806389a30271116100c3578063b6b55f251161007c578063b6b55f25146103e1578063bfe6cc1a146103fd578063c4d66de814610407578063dd62ed3e14610423578063ee73d66b14610453578063f77c47911461046f57610158565b806389a302711461030957806389c4fa121461032757806395d89b4114610345578063a457c2d714610363578063a9059cbb14610393578063b69ef8a8146103c357610158565b8063313ce56711610115578063313ce5671461024557806339509351146102635780633e413bee146102935780634e71d92d146102b157806370a08231146102bb5780637423031e146102eb57610158565b806306fdde031461015d578063095ea7b31461017b57806318160ddd146101ab57806323b872dd146101c95780632e1a7d4d146101f95780632f3f94ae14610229575b600080fd5b61016561048d565b6040516101729190611fa3565b60405180910390f35b6101956004803603810190610190919061205e565b61051f565b6040516101a291906120b9565b60405180910390f35b6101b361053d565b6040516101c091906120e3565b60405180910390f35b6101e360048036038101906101de91906120fe565b610547565b6040516101f091906120b9565b60405180910390f35b610213600480360381019061020e9190612151565b61063f565b60405161022091906120e3565b60405180910390f35b610243600480360381019061023e9190612151565b61098f565b005b61024d610a86565b60405161025a919061219a565b60405180910390f35b61027d6004803603810190610278919061205e565b610a8f565b60405161028a91906120b9565b60405180910390f35b61029b610b3b565b6040516102a89190612214565b60405180910390f35b6102b9610b61565b005b6102d560048036038101906102d0919061222f565b610b6c565b6040516102e291906120e3565b60405180910390f35b6102f3610bb4565b60405161030091906120e3565b60405180910390f35b610311610bba565b60405161031e919061226b565b60405180910390f35b61032f610bde565b60405161033c91906122b9565b60405180910390f35b61034d610c04565b60405161035a9190611fa3565b60405180910390f35b61037d6004803603810190610378919061205e565b610c96565b60405161038a91906120b9565b60405180910390f35b6103ad60048036038101906103a8919061205e565b610d81565b6040516103ba91906120b9565b60405180910390f35b6103cb610d9f565b6040516103d891906120e3565b60405180910390f35b6103fb60048036038101906103f69190612151565b610f0b565b005b6104056111a1565b005b610421600480360381019061041c9190612324565b6112b5565b005b61043d60048036038101906104389190612351565b611389565b60405161044a91906120e3565b60405180910390f35b61046d60048036038101906104689190612151565b611410565b005b61047761155f565b604051610484919061226b565b60405180910390f35b60606003805461049c906123c0565b80601f01602080910402602001604051908101604052809291908181526020018280546104c8906123c0565b80156105155780601f106104ea57610100808354040283529160200191610515565b820191906000526020600020905b8154815290600101906020018083116104f857829003601f168201915b5050505050905090565b600061053361052c611585565b848461158d565b6001905092915050565b6000600254905090565b6000610554848484611758565b6000600160008673ffffffffffffffffffffffffffffffffffffffff1673ffffffffffffffffffffffffffffffffffffffff168152602001908152602001600020600061059f611585565b73ffffffffffffffffffffffffffffffffffffffff1673ffffffffffffffffffffffffffffffffffffffff1681526020019081526020016000205490508281101561061f576040517f08c379a000000000000000000000000000000000000000000000000000000000815260040161061690612464565b60405180910390fd5b6106338561062b611585565b85840361158d565b60019150509392505050565b60003073ffffffffffffffffffffffffffffffffffffffff166370a08231336040518263ffffffff1660e01b815260040161067a919061226b565b602060405180830381865afa158015610697573d6000803e3d6000fd5b505050506040513d601f19601f820116820180604052508101906106bb9190612499565b8211156106fd576040517f08c379a00000000000000000000000000000000000000000000000000000000081526004016106f490612512565b60405180910390fd5b61070733836119d9565b6000600760009054906101000a900473ffffffffffffffffffffffffffffffffffffffff1673ffffffffffffffffffffffffffffffffffffffff166370a08231306040518263ffffffff1660e01b8152600401610764919061226b565b602060405180830381865afa158015610781573d6000803e3d6000fd5b505050506040513d601f19601f820116820180604052508101906107a59190612499565b9050600a60009054906101000a900473ffffffffffffffffffffffffffffffffffffffff1673ffffffffffffffffffffffffffffffffffffffff1663e49280cb33856040518363ffffffff1660e01b8152600401610804929190612532565b600060405180830381600087803b15801561081e57600080fd5b505af1158015610832573d6000803e3d6000fd5b505050506000600760009054906101000a900473ffffffffffffffffffffffffffffffffffffffff1673ffffffffffffffffffffffffffffffffffffffff166370a08231306040518263ffffffff1660e01b8152600401610893919061226b565b602060405180830381865afa1580156108b0573d6000803e3d6000fd5b505050506040513d601f19601f820116820180604052508101906108d49190612499565b9050600082826108e4919061258a565b9050600760009054906101000a900473ffffffffffffffffffffffffffffffffffffffff1673ffffffffffffffffffffffffffffffffffffffff1663a9059cbb33836040518363ffffffff1660e01b8152600401610943929190612532565b6020604051808303816000875af1158015610962573d6000803e3d6000fd5b505050506040513d601f19601f8201168201806040525081019061098691906125ea565b50505050919050565b600760009054906101000a900473ffffffffffffffffffffffffffffffffffffffff1673ffffffffffffffffffffffffffffffffffffffff166323b872dd3330846040518463ffffffff1660e01b81526004016109ee93929190612617565b6020604051808303816000875af1158015610a0d573d6000803e3d6000fd5b505050506040513d601f19601f82011682018060405250810190610a3191906125ea565b506000610a3c61053d565b1415610a5157610a4c3382611bb0565b610a83565b610a59610d9f565b610a6161053d565b82610a6c919061264e565b610a7691906126d7565b9050610a823382611bb0565b5b50565b60006012905090565b6000610b31610a9c611585565b848460016000610aaa611585565b73ffffffffffffffffffffffffffffffffffffffff1673ffffffffffffffffffffffffffffffffffffffff16815260200190815260200160002060008873ffffffffffffffffffffffffffffffffffffffff1673ffffffffffffffffffffffffffffffffffffffff16815260200190815260200160002054610b2c9190612708565b61158d565b6001905092915050565b600760009054906101000a900473ffffffffffffffffffffffffffffffffffffffff1681565b610b6a33611d10565b565b60008060008373ffffffffffffffffffffffffffffffffffffffff1673ffffffffffffffffffffffffffffffffffffffff168152602001908152602001600020549050919050565b60055481565b7f000000000000000000000000000000000000000000000000000000000000000081565b600a60009054906101000a900473ffffffffffffffffffffffffffffffffffffffff1681565b606060048054610c13906123c0565b80601f0160208091040260200160405190810160405280929190818152602001828054610c3f906123c0565b8015610c8c5780601f10610c6157610100808354040283529160200191610c8c565b820191906000526020600020905b815481529060010190602001808311610c6f57829003601f168201915b5050505050905090565b60008060016000610ca5611585565b73ffffffffffffffffffffffffffffffffffffffff1673ffffffffffffffffffffffffffffffffffffffff16815260200190815260200160002060008573ffffffffffffffffffffffffffffffffffffffff1673ffffffffffffffffffffffffffffffffffffffff16815260200190815260200160002054905082811015610d62576040517f08c379a0000000000000000000000000000000000000000000000000000000008152600401610d59906127d0565b60405180910390fd5b610d76610d6d611585565b8585840361158d565b600191505092915050565b6000610d95610d8e611585565b8484611758565b6001905092915050565b600080600a60009054906101000a900473ffffffffffffffffffffffffffffffffffffffff1673ffffffffffffffffffffffffffffffffffffffff16639816f4736040518163ffffffff1660e01b81526004016020604051808303816000875af1158015610e11573d6000803e3d6000fd5b505050506040513d601f19601f82011682018060405250810190610e359190612499565b600760009054906101000a900473ffffffffffffffffffffffffffffffffffffffff1673ffffffffffffffffffffffffffffffffffffffff166370a08231306040518263ffffffff1660e01b8152600401610e90919061226b565b602060405180830381865afa158015610ead573d6000803e3d6000fd5b505050506040513d601f19601f82011682018060405250810190610ed19190612499565b610edb9190612708565b90506000670de0b6b3a7640000620f424083610ef791906126d7565b610f01919061264e565b9050809250505090565b600760009054906101000a900473ffffffffffffffffffffffffffffffffffffffff1673ffffffffffffffffffffffffffffffffffffffff166323b872dd3330846040518463ffffffff1660e01b8152600401610f6a93929190612617565b6020604051808303816000875af1158015610f89573d6000803e3d6000fd5b505050506040513d601f19601f82011682018060405250810190610fad91906125ea565b506000612710606483610fc0919061264e565b610fca91906126d7565b905060008183610fda919061258a565b9050600080610fe761053d565b14156110055764e8d4a5100084610ffe919061264e565b905061103d565b61100d610d9f565b61101561053d565b64e8d4a5100086611026919061264e565b611030919061264e565b61103a91906126d7565b90505b6110473382611bb0565b600760009054906101000a900473ffffffffffffffffffffffffffffffffffffffff1673ffffffffffffffffffffffffffffffffffffffff1663a9059cbb600a60009054906101000a900473ffffffffffffffffffffffffffffffffffffffff16846040518363ffffffff1660e01b81526004016110c6929190612532565b6020604051808303816000875af11580156110e5573d6000803e3d6000fd5b505050506040513d601f19601f8201168201806040525081019061110991906125ea565b50600a60009054906101000a900473ffffffffffffffffffffffffffffffffffffffff1673ffffffffffffffffffffffffffffffffffffffff166389a86ad33384846040518463ffffffff1660e01b8152600401611169939291906127f0565b600060405180830381600087803b15801561118357600080fd5b505af1158015611197573d6000803e3d6000fd5b5050505050505050565b600960009054906101000a900473ffffffffffffffffffffffffffffffffffffffff1673ffffffffffffffffffffffffffffffffffffffff163373ffffffffffffffffffffffffffffffffffffffff1614611231576040517f08c379a000000000000000000000000000000000000000000000000000000000815260040161122890612899565b60405180910390fd5b600a60009054906101000a900473ffffffffffffffffffffffffffffffffffffffff1673ffffffffffffffffffffffffffffffffffffffff16634641257d6040518163ffffffff1660e01b8152600401600060405180830381600087803b15801561129b57600080fd5b505af11580156112af573d6000803e3d6000fd5b50505050565b600860009054906101000a900473ffffffffffffffffffffffffffffffffffffffff1673ffffffffffffffffffffffffffffffffffffffff163373ffffffffffffffffffffffffffffffffffffffff1614611345576040517f08c379a000000000000000000000000000000000000000000000000000000000815260040161133c90612905565b60405180910390fd5b80600a60006101000a81548173ffffffffffffffffffffffffffffffffffffffff021916908373ffffffffffffffffffffffffffffffffffffffff16021790555050565b6000600160008473ffffffffffffffffffffffffffffffffffffffff1673ffffffffffffffffffffffffffffffffffffffff16815260200190815260200160002060008373ffffffffffffffffffffffffffffffffffffffff1673ffffffffffffffffffffffffffffffffffffffff16815260200190815260200160002054905092915050565b600860009054906101000a900473ffffffffffffffffffffffffffffffffffffffff1673ffffffffffffffffffffffffffffffffffffffff163373ffffffffffffffffffffffffffffffffffffffff16146114a0576040517f08c379a000000000000000000000000000000000000000000000000000000000815260040161149790612512565b60405180910390fd5b600760009054906101000a900473ffffffffffffffffffffffffffffffffffffffff1673ffffffffffffffffffffffffffffffffffffffff166323b872dd3330846040518463ffffffff1660e01b81526004016114ff93929190612617565b6020604051808303816000875af115801561151e573d6000803e3d6000fd5b505050506040513d601f19601f8201168201806040525081019061154291906125ea565b5080600560008282546115559190612708565b9250508190555050565b600960009054906101000a900473ffffffffffffffffffffffffffffffffffffffff1681565b600033905090565b600073ffffffffffffffffffffffffffffffffffffffff168373ffffffffffffffffffffffffffffffffffffffff1614156115fd576040517f08c379a00000000000000000000000000000000000000000000000000000000081526004016115f490612997565b60405180910390fd5b600073ffffffffffffffffffffffffffffffffffffffff168273ffffffffffffffffffffffffffffffffffffffff16141561166d576040517f08c379a000000000000000000000000000000000000000000000000000000000815260040161166490612a29565b60405180910390fd5b80600160008573ffffffffffffffffffffffffffffffffffffffff1673ffffffffffffffffffffffffffffffffffffffff16815260200190815260200160002060008473ffffffffffffffffffffffffffffffffffffffff1673ffffffffffffffffffffffffffffffffffffffff168152602001908152602001600020819055508173ffffffffffffffffffffffffffffffffffffffff168373ffffffffffffffffffffffffffffffffffffffff167f8c5be1e5ebec7d5bd14f71427d1e84f3dd0314c0f7b2291e5b200ac8c7c3b9258360405161174b91906120e3565b60405180910390a3505050565b600073ffffffffffffffffffffffffffffffffffffffff168373ffffffffffffffffffffffffffffffffffffffff1614156117c8576040517f08c379a00000000000000000000000000000000000000000000000000000000081526004016117bf90612abb565b60405180910390fd5b600073ffffffffffffffffffffffffffffffffffffffff168273ffffffffffffffffffffffffffffffffffffffff161415611838576040517f08c379a000000000000000000000000000000000000000000000000000000000815260040161182f90612b4d565b60405180910390fd5b611843838383611d7b565b60008060008573ffffffffffffffffffffffffffffffffffffffff1673ffffffffffffffffffffffffffffffffffffffff168152602001908152602001600020549050818110156118c9576040517f08c379a00000000000000000000000000000000000000000000000000000000081526004016118c090612bdf565b60405180910390fd5b8181036000808673ffffffffffffffffffffffffffffffffffffffff1673ffffffffffffffffffffffffffffffffffffffff16815260200190815260200160002081905550816000808573ffffffffffffffffffffffffffffffffffffffff1673ffffffffffffffffffffffffffffffffffffffff168152602001908152602001600020600082825461195c9190612708565b925050819055508273ffffffffffffffffffffffffffffffffffffffff168473ffffffffffffffffffffffffffffffffffffffff167fddf252ad1be2c89b69c2b068fc378daa952ba7f163c4a11628f55a4df523b3ef846040516119c091906120e3565b60405180910390a36119d3848484611d80565b50505050565b600073ffffffffffffffffffffffffffffffffffffffff168273ffffffffffffffffffffffffffffffffffffffff161415611a49576040517f08c379a0000000000000000000000000000000000000000000000000000000008152600401611a4090612c71565b60405180910390fd5b611a5582600083611d7b565b60008060008473ffffffffffffffffffffffffffffffffffffffff1673ffffffffffffffffffffffffffffffffffffffff16815260200190815260200160002054905081811015611adb576040517f08c379a0000000000000000000000000000000000000000000000000000000008152600401611ad290612d03565b60405180910390fd5b8181036000808573ffffffffffffffffffffffffffffffffffffffff1673ffffffffffffffffffffffffffffffffffffffff168152602001908152602001600020819055508160026000828254611b32919061258a565b92505081905550600073ffffffffffffffffffffffffffffffffffffffff168373ffffffffffffffffffffffffffffffffffffffff167fddf252ad1be2c89b69c2b068fc378daa952ba7f163c4a11628f55a4df523b3ef84604051611b9791906120e3565b60405180910390a3611bab83600084611d80565b505050565b600073ffffffffffffffffffffffffffffffffffffffff168273ffffffffffffffffffffffffffffffffffffffff161415611c20576040517f08c379a0000000000000000000000000000000000000000000000000000000008152600401611c1790612d6f565b60405180910390fd5b611c2c60008383611d7b565b8060026000828254611c3e9190612708565b92505081905550806000808473ffffffffffffffffffffffffffffffffffffffff1673ffffffffffffffffffffffffffffffffffffffff1681526020019081526020016000206000828254611c939190612708565b925050819055508173ffffffffffffffffffffffffffffffffffffffff16600073ffffffffffffffffffffffffffffffffffffffff167fddf252ad1be2c89b69c2b068fc378daa952ba7f163c4a11628f55a4df523b3ef83604051611cf891906120e3565b60405180910390a3611d0c60008383611d80565b5050565b6000611d1b82611d85565b90506000811115611d7757611d308282611bb0565b600554600660008473ffffffffffffffffffffffffffffffffffffffff1673ffffffffffffffffffffffffffffffffffffffff168152602001908152602001600020819055505b5050565b505050565b505050565b600080600660008473ffffffffffffffffffffffffffffffffffffffff1673ffffffffffffffffffffffffffffffffffffffff16815260200190815260200160002054600554611dd5919061258a565b9050600760009054906101000a900473ffffffffffffffffffffffffffffffffffffffff1673ffffffffffffffffffffffffffffffffffffffff166370a08231306040518263ffffffff1660e01b8152600401611e32919061226b565b602060405180830381865afa158015611e4f573d6000803e3d6000fd5b505050506040513d601f19601f82011682018060405250810190611e739190612499565b81611e7e91906126d7565b3073ffffffffffffffffffffffffffffffffffffffff166370a08231336040518263ffffffff1660e01b8152600401611eb7919061226b565b602060405180830381865afa158015611ed4573d6000803e3d6000fd5b505050506040513d601f19601f82011682018060405250810190611ef89190612499565b611f02919061264e565b915050919050565b600081519050919050565b600082825260208201905092915050565b60005b83811015611f44578082015181840152602081019050611f29565b83811115611f53576000848401525b50505050565b6000601f19601f8301169050919050565b6000611f7582611f0a565b611f7f8185611f15565b9350611f8f818560208601611f26565b611f9881611f59565b840191505092915050565b60006020820190508181036000830152611fbd8184611f6a565b905092915050565b600080fd5b600073ffffffffffffffffffffffffffffffffffffffff82169050919050565b6000611ff582611fca565b9050919050565b61200581611fea565b811461201057600080fd5b50565b60008135905061202281611ffc565b92915050565b6000819050919050565b61203b81612028565b811461204657600080fd5b50565b60008135905061205881612032565b92915050565b6000806040838503121561207557612074611fc5565b5b600061208385828601612013565b925050602061209485828601612049565b9150509250929050565b60008115159050919050565b6120b38161209e565b82525050565b60006020820190506120ce60008301846120aa565b92915050565b6120dd81612028565b82525050565b60006020820190506120f860008301846120d4565b92915050565b60008060006060848603121561211757612116611fc5565b5b600061212586828701612013565b935050602061213686828701612013565b925050604061214786828701612049565b9150509250925092565b60006020828403121561216757612166611fc5565b5b600061217584828501612049565b91505092915050565b600060ff82169050919050565b6121948161217e565b82525050565b60006020820190506121af600083018461218b565b92915050565b6000819050919050565b60006121da6121d56121d084611fca565b6121b5565b611fca565b9050919050565b60006121ec826121bf565b9050919050565b60006121fe826121e1565b9050919050565b61220e816121f3565b82525050565b60006020820190506122296000830184612205565b92915050565b60006020828403121561224557612244611fc5565b5b600061225384828501612013565b91505092915050565b61226581611fea565b82525050565b6000602082019050612280600083018461225c565b92915050565b6000612291826121bf565b9050919050565b60006122a382612286565b9050919050565b6122b381612298565b82525050565b60006020820190506122ce60008301846122aa565b92915050565b60006122df82611fca565b9050919050565b60006122f1826122d4565b9050919050565b612301816122e6565b811461230c57600080fd5b50565b60008135905061231e816122f8565b92915050565b60006020828403121561233a57612339611fc5565b5b60006123488482850161230f565b91505092915050565b6000806040838503121561236857612367611fc5565b5b600061237685828601612013565b925050602061238785828601612013565b9150509250929050565b7f4e487b7100000000000000000000000000000000000000000000000000000000600052602260045260246000fd5b600060028204905060018216806123d857607f821691505b602082108114156123ec576123eb612391565b5b50919050565b7f45524332303a207472616e7366657220616d6f756e742065786365656473206160008201527f6c6c6f77616e6365000000000000000000000000000000000000000000000000602082015250565b600061244e602883611f15565b9150612459826123f2565b604082019050919050565b6000602082019050818103600083015261247d81612441565b9050919050565b60008151905061249381612032565b92915050565b6000602082840312156124af576124ae611fc5565b5b60006124bd84828501612484565b91505092915050565b7f6e6f000000000000000000000000000000000000000000000000000000000000600082015250565b60006124fc600283611f15565b9150612507826124c6565b602082019050919050565b6000602082019050818103600083015261252b816124ef565b9050919050565b6000604082019050612547600083018561225c565b61255460208301846120d4565b9392505050565b7f4e487b7100000000000000000000000000000000000000000000000000000000600052601160045260246000fd5b600061259582612028565b91506125a083612028565b9250828210156125b3576125b261255b565b5b828203905092915050565b6125c78161209e565b81146125d257600080fd5b50565b6000815190506125e4816125be565b92915050565b600060208284031215612600576125ff611fc5565b5b600061260e848285016125d5565b91505092915050565b600060608201905061262c600083018661225c565b612639602083018561225c565b61264660408301846120d4565b949350505050565b600061265982612028565b915061266483612028565b9250817fffffffffffffffffffffffffffffffffffffffffffffffffffffffffffffffff048311821515161561269d5761269c61255b565b5b828202905092915050565b7f4e487b7100000000000000000000000000000000000000000000000000000000600052601260045260246000fd5b60006126e282612028565b91506126ed83612028565b9250826126fd576126fc6126a8565b5b828204905092915050565b600061271382612028565b915061271e83612028565b9250827fffffffffffffffffffffffffffffffffffffffffffffffffffffffffffffffff038211156127535761275261255b565b5b828201905092915050565b7f45524332303a2064656372656173656420616c6c6f77616e63652062656c6f7760008201527f207a65726f000000000000000000000000000000000000000000000000000000602082015250565b60006127ba602583611f15565b91506127c58261275e565b604082019050919050565b600060208201905081810360008301526127e9816127ad565b9050919050565b6000606082019050612805600083018661225c565b61281260208301856120d4565b61281f60408301846120d4565b949350505050565b7f6f6e6c7920746865206175746f68617276657374657220636f6e74726163742060008201527f63616e2063616c6c207468697300000000000000000000000000000000000000602082015250565b6000612883602d83611f15565b915061288e82612827565b604082019050919050565b600060208201905081810360008301526128b281612876565b9050919050565b7f2161646d696e0000000000000000000000000000000000000000000000000000600082015250565b60006128ef600683611f15565b91506128fa826128b9565b602082019050919050565b6000602082019050818103600083015261291e816128e2565b9050919050565b7f45524332303a20617070726f76652066726f6d20746865207a65726f2061646460008201527f7265737300000000000000000000000000000000000000000000000000000000602082015250565b6000612981602483611f15565b915061298c82612925565b604082019050919050565b600060208201905081810360008301526129b081612974565b9050919050565b7f45524332303a20617070726f766520746f20746865207a65726f20616464726560008201527f7373000000000000000000000000000000000000000000000000000000000000602082015250565b6000612a13602283611f15565b9150612a1e826129b7565b604082019050919050565b60006020820190508181036000830152612a4281612a06565b9050919050565b7f45524332303a207472616e736665722066726f6d20746865207a65726f20616460008201527f6472657373000000000000000000000000000000000000000000000000000000602082015250565b6000612aa5602583611f15565b9150612ab082612a49565b604082019050919050565b60006020820190508181036000830152612ad481612a98565b9050919050565b7f45524332303a207472616e7366657220746f20746865207a65726f206164647260008201527f6573730000000000000000000000000000000000000000000000000000000000602082015250565b6000612b37602383611f15565b9150612b4282612adb565b604082019050919050565b60006020820190508181036000830152612b6681612b2a565b9050919050565b7f45524332303a207472616e7366657220616d6f756e742065786365656473206260008201527f616c616e63650000000000000000000000000000000000000000000000000000602082015250565b6000612bc9602683611f15565b9150612bd482612b6d565b604082019050919050565b60006020820190508181036000830152612bf881612bbc565b9050919050565b7f45524332303a206275726e2066726f6d20746865207a65726f2061646472657360008201527f7300000000000000000000000000000000000000000000000000000000000000602082015250565b6000612c5b602183611f15565b9150612c6682612bff565b604082019050919050565b60006020820190508181036000830152612c8a81612c4e565b9050919050565b7f45524332303a206275726e20616d6f756e7420657863656564732062616c616e60008201527f6365000000000000000000000000000000000000000000000000000000000000602082015250565b6000612ced602283611f15565b9150612cf882612c91565b604082019050919050565b60006020820190508181036000830152612d1c81612ce0565b9050919050565b7f45524332303a206d696e7420746f20746865207a65726f206164647265737300600082015250565b6000612d59601f83611f15565b9150612d6482612d23565b602082019050919050565b60006020820190508181036000830152612d8881612d4c565b905091905056fea2646970667358221220028f8dbc6d917d49f2d8739647b4ccf3a248f4f8ca9ef3af5f28cf4cc11c454264736f6c634300080a0033",
  "immutableReferences": {
    "1168": [
      {
        "length": 32,
        "start": 3004
      }
    ]
  },
  "source": "// SPDX-License-Identifier: MIT \npragma solidity ^0.8.10; \n\nimport \"@openzeppelin/contracts/token/ERC20/IERC20.sol\"; \nimport \"@openzeppelin/contracts/token/ERC20/ERC20.sol\"; \nimport \"./strategies/ShortFarmFTM.sol\"; \n\n//The deposit contract for Djinn Finance\ncontract DjinnBottleUSDC is ERC20 {\n\n\taddress public immutable USDC = 0x04068DA6C83AFCFA0e13ba15A6696662335D5B75;  \t \n\tuint public globalRewards; \n\tmapping(address => uint) private lastHarvest; \n\tIERC20 public usdc;\n\n\tuint private constant PROTOCOL_FEE = 100; \n\n\taddress private admin; \t\n\taddress public controller; //the contract that will be in charge of depositing gas fees into strategies and autoharvesting  \n\tShortFarmFTM public shortStrategy; \n\n\tconstructor( address _usdc, address _controller) ERC20(\"Djinn Finance USDC Vault\",\"dfUSDC\") {\n\t\tadmin = msg.sender; \n\t\tusdc = IERC20(_usdc); \n\t\tcontroller = _controller; \n\t}\n\t\n\t//set strategy address \n\tfunction initialize(ShortFarmFTM _shortStrategy) external {\n\t\trequire(msg.sender == admin, \"!admin\"); \n\t\tshortStrategy = _shortStrategy; \n\t}\n\n\tfunction balance() public returns(uint) {\n\t\tuint base = usdc.balanceOf(address(this)) + shortStrategy.getUnderlying(); \t\n\t\tuint scale = (base / 1e6) * 1e18; \n\t\treturn scale; \n\t}\n\n\tfunction testMint(uint shares) public {\n\t\tusdc.transferFrom(msg.sender, address(this), shares); \n\t\tif (totalSupply() == 0) {\n\t\t\t_mint(msg.sender, shares); \n\t\t} else {\n\t\t\tshares = (shares * totalSupply()) / balance();\n\t\t   _mint(msg.sender, shares); \t\n\t\t}\n\t}\n\t\n\tfunction deposit(uint amount) public {\n\t\tusdc.transferFrom(msg.sender, address(this), amount); \t\t\n\n\t\tuint feeAmount = (amount * PROTOCOL_FEE) / 1e4;  //1% deposit fee \n\t\tuint newAmount = amount - feeAmount; \n\n\t\t//mint shares relative to ownership of vault (as percentage scaled up by 1e18)  \n\t\tuint shares; \n\t\tif (totalSupply() == 0) {\n\t\t   shares = amount * 1e12;  \n\t\t} else {\n\t\t\tshares = ((amount * 1e12) * totalSupply()) / balance(); \n\t\t}\n\t\t_mint(msg.sender, shares);\n\n\t\t//send to strategy contract \n\t\tusdc.transfer(address(shortStrategy), newAmount); \n\t\tshortStrategy.open(msg.sender, newAmount, shares);  \n\t}\n\t\n\t//we get msg.sender's % of pool and then use that to convert to tokens \n\tfunction withdraw(uint amountShares) public returns(uint) {\n\t\trequire(amountShares <= IERC20(address(this)).balanceOf(msg.sender), \"no\"); \n\t\t_burn(msg.sender, amountShares); \t\n\n\t\t//then we pass this to the strategy contract to withdraw the correct % of LP tokens\n\t\tuint beforeBal = usdc.balanceOf(address(this)); \n\t\tshortStrategy.close(msg.sender, amountShares); \n\t\tuint afterBal = usdc.balanceOf(address(this));\n\t\t//send back user their usdc \n\t\tuint amountToWithdraw = afterBal - beforeBal; \n\t\tusdc.transfer(msg.sender, amountToWithdraw); \n\t}\t\n\n\tfunction callHarvest() external {\n\t\trequire(msg.sender == controller, \"only the autoharvester contract can call this\"); \n\t\tshortStrategy.harvest(); \n\t}\n\n\tfunction claim() external {\n\t\tcheckHarvest(msg.sender); \n\t}\n\t\n\t//get percentage of profits by balance of this erc20 token in wallet \n\tfunction harvest(address user) internal view returns(uint) {\n\t\tuint percentageReward = globalRewards - lastHarvest[user]; \n\t\t\n\t\treturn IERC20(address(this)).balanceOf(msg.sender) * (percentageReward / usdc.balanceOf(address(this))); \n\t}\n\n\tfunction checkHarvest(address user) internal {\n\t\tuint owed = harvest(user); \n\t\tif (owed > 0) { \n\t\t\t_mint(user, owed); \n\t\t\tlastHarvest[user] = globalRewards; \n\t\t}\n\t}\n\t\n\t//deposits from strategies using this function  \n\tfunction depositProfits(uint amount) external {\n\t\trequire(msg.sender == admin, \"no\"); \n\t\tusdc.transferFrom(msg.sender, address(this), amount); \n\t\n\t\tglobalRewards += amount; \n\t}\n}\n\n\n",
  "sourcePath": "/home/kevin/Code/solidity_projects/djinn/contracts/DjinnBottleUSDC.sol",
  "compiler": {
    "name": "solc",
    "version": "0.8.10+commit.fc410830.Emscripten.clang"
  },
  "schemaVersion": "3.4.3",
  "updatedAt": "2022-02-05T15:22:42.683Z",
  "networkType": "ethereum",
  "devdoc": {
    "kind": "dev",
    "methods": {
      "allowance(address,address)": {
        "details": "See {IERC20-allowance}."
      },
      "approve(address,uint256)": {
        "details": "See {IERC20-approve}. Requirements: - `spender` cannot be the zero address."
      },
      "balanceOf(address)": {
        "details": "See {IERC20-balanceOf}."
      },
      "decimals()": {
        "details": "Returns the number of decimals used to get its user representation. For example, if `decimals` equals `2`, a balance of `505` tokens should be displayed to a user as `5.05` (`505 / 10 ** 2`). Tokens usually opt for a value of 18, imitating the relationship between Ether and Wei. This is the value {ERC20} uses, unless this function is overridden; NOTE: This information is only used for _display_ purposes: it in no way affects any of the arithmetic of the contract, including {IERC20-balanceOf} and {IERC20-transfer}."
      },
      "decreaseAllowance(address,uint256)": {
        "details": "Atomically decreases the allowance granted to `spender` by the caller. This is an alternative to {approve} that can be used as a mitigation for problems described in {IERC20-approve}. Emits an {Approval} event indicating the updated allowance. Requirements: - `spender` cannot be the zero address. - `spender` must have allowance for the caller of at least `subtractedValue`."
      },
      "increaseAllowance(address,uint256)": {
        "details": "Atomically increases the allowance granted to `spender` by the caller. This is an alternative to {approve} that can be used as a mitigation for problems described in {IERC20-approve}. Emits an {Approval} event indicating the updated allowance. Requirements: - `spender` cannot be the zero address."
      },
      "name()": {
        "details": "Returns the name of the token."
      },
      "symbol()": {
        "details": "Returns the symbol of the token, usually a shorter version of the name."
      },
      "totalSupply()": {
        "details": "See {IERC20-totalSupply}."
      },
      "transfer(address,uint256)": {
        "details": "See {IERC20-transfer}. Requirements: - `recipient` cannot be the zero address. - the caller must have a balance of at least `amount`."
      },
      "transferFrom(address,address,uint256)": {
        "details": "See {IERC20-transferFrom}. Emits an {Approval} event indicating the updated allowance. This is not required by the EIP. See the note at the beginning of {ERC20}. Requirements: - `sender` and `recipient` cannot be the zero address. - `sender` must have a balance of at least `amount`. - the caller must have allowance for ``sender``'s tokens of at least `amount`."
      }
    },
    "version": 1
  },
  "userdoc": {
    "kind": "user",
    "methods": {},
    "version": 1
  }
}