{
  "contractName": "DjinnBottleUSDC",
  "abi": [
    {
      "inputs": [
        {
          "internalType": "address",
          "name": "_usdc",
          "type": "address"
        },
        {
          "internalType": "address",
          "name": "_treasury",
          "type": "address"
        }
      ],
      "stateMutability": "nonpayable",
      "type": "constructor"
    },
    {
      "anonymous": false,
      "inputs": [
        {
          "indexed": true,
          "internalType": "address",
          "name": "owner",
          "type": "address"
        },
        {
          "indexed": true,
          "internalType": "address",
          "name": "spender",
          "type": "address"
        },
        {
          "indexed": false,
          "internalType": "uint256",
          "name": "value",
          "type": "uint256"
        }
      ],
      "name": "Approval",
      "type": "event"
    },
    {
      "anonymous": false,
      "inputs": [
        {
          "indexed": true,
          "internalType": "address",
          "name": "from",
          "type": "address"
        },
        {
          "indexed": true,
          "internalType": "address",
          "name": "to",
          "type": "address"
        },
        {
          "indexed": false,
          "internalType": "uint256",
          "name": "value",
          "type": "uint256"
        }
      ],
      "name": "Transfer",
      "type": "event"
    },
    {
      "inputs": [],
      "name": "PROTOCOL_TREASURY",
      "outputs": [
        {
          "internalType": "address",
          "name": "",
          "type": "address"
        }
      ],
      "stateMutability": "view",
      "type": "function",
      "constant": true
    },
    {
      "inputs": [
        {
          "internalType": "address",
          "name": "owner",
          "type": "address"
        },
        {
          "internalType": "address",
          "name": "spender",
          "type": "address"
        }
      ],
      "name": "allowance",
      "outputs": [
        {
          "internalType": "uint256",
          "name": "",
          "type": "uint256"
        }
      ],
      "stateMutability": "view",
      "type": "function",
      "constant": true
    },
    {
      "inputs": [
        {
          "internalType": "address",
          "name": "spender",
          "type": "address"
        },
        {
          "internalType": "uint256",
          "name": "amount",
          "type": "uint256"
        }
      ],
      "name": "approve",
      "outputs": [
        {
          "internalType": "bool",
          "name": "",
          "type": "bool"
        }
      ],
      "stateMutability": "nonpayable",
      "type": "function"
    },
    {
      "inputs": [
        {
          "internalType": "address",
          "name": "account",
          "type": "address"
        }
      ],
      "name": "balanceOf",
      "outputs": [
        {
          "internalType": "uint256",
          "name": "",
          "type": "uint256"
        }
      ],
      "stateMutability": "view",
      "type": "function",
      "constant": true
    },
    {
      "inputs": [],
      "name": "decimals",
      "outputs": [
        {
          "internalType": "uint8",
          "name": "",
          "type": "uint8"
        }
      ],
      "stateMutability": "view",
      "type": "function",
      "constant": true
    },
    {
      "inputs": [
        {
          "internalType": "address",
          "name": "spender",
          "type": "address"
        },
        {
          "internalType": "uint256",
          "name": "subtractedValue",
          "type": "uint256"
        }
      ],
      "name": "decreaseAllowance",
      "outputs": [
        {
          "internalType": "bool",
          "name": "",
          "type": "bool"
        }
      ],
      "stateMutability": "nonpayable",
      "type": "function"
    },
    {
      "inputs": [
        {
          "internalType": "address",
          "name": "spender",
          "type": "address"
        },
        {
          "internalType": "uint256",
          "name": "addedValue",
          "type": "uint256"
        }
      ],
      "name": "increaseAllowance",
      "outputs": [
        {
          "internalType": "bool",
          "name": "",
          "type": "bool"
        }
      ],
      "stateMutability": "nonpayable",
      "type": "function"
    },
    {
      "inputs": [],
      "name": "name",
      "outputs": [
        {
          "internalType": "string",
          "name": "",
          "type": "string"
        }
      ],
      "stateMutability": "view",
      "type": "function",
      "constant": true
    },
    {
      "inputs": [],
      "name": "shortStrategy",
      "outputs": [
        {
          "internalType": "contract ShortFarmFTM",
          "name": "",
          "type": "address"
        }
      ],
      "stateMutability": "view",
      "type": "function",
      "constant": true
    },
    {
      "inputs": [],
      "name": "symbol",
      "outputs": [
        {
          "internalType": "string",
          "name": "",
          "type": "string"
        }
      ],
      "stateMutability": "view",
      "type": "function",
      "constant": true
    },
    {
      "inputs": [],
      "name": "totalSupply",
      "outputs": [
        {
          "internalType": "uint256",
          "name": "",
          "type": "uint256"
        }
      ],
      "stateMutability": "view",
      "type": "function",
      "constant": true
    },
    {
      "inputs": [
        {
          "internalType": "address",
          "name": "recipient",
          "type": "address"
        },
        {
          "internalType": "uint256",
          "name": "amount",
          "type": "uint256"
        }
      ],
      "name": "transfer",
      "outputs": [
        {
          "internalType": "bool",
          "name": "",
          "type": "bool"
        }
      ],
      "stateMutability": "nonpayable",
      "type": "function"
    },
    {
      "inputs": [
        {
          "internalType": "address",
          "name": "sender",
          "type": "address"
        },
        {
          "internalType": "address",
          "name": "recipient",
          "type": "address"
        },
        {
          "internalType": "uint256",
          "name": "amount",
          "type": "uint256"
        }
      ],
      "name": "transferFrom",
      "outputs": [
        {
          "internalType": "bool",
          "name": "",
          "type": "bool"
        }
      ],
      "stateMutability": "nonpayable",
      "type": "function"
    },
    {
      "inputs": [],
      "name": "usdc",
      "outputs": [
        {
          "internalType": "contract IERC20",
          "name": "",
          "type": "address"
        }
      ],
      "stateMutability": "view",
      "type": "function",
      "constant": true
    },
    {
      "inputs": [
        {
          "internalType": "address",
          "name": "newAddress",
          "type": "address"
        }
      ],
      "name": "changeTreasuryAddress",
      "outputs": [],
      "stateMutability": "nonpayable",
      "type": "function"
    },
    {
      "inputs": [
        {
          "internalType": "address",
          "name": "newAdmin",
          "type": "address"
        }
      ],
      "name": "changeAdmin",
      "outputs": [],
      "stateMutability": "nonpayable",
      "type": "function"
    },
    {
      "inputs": [
        {
          "internalType": "contract ShortFarmFTM",
          "name": "_shortStrategy",
          "type": "address"
        }
      ],
      "name": "initialize",
      "outputs": [],
      "stateMutability": "nonpayable",
      "type": "function"
    },
    {
      "inputs": [],
      "name": "balance",
      "outputs": [
        {
          "internalType": "uint256",
          "name": "",
          "type": "uint256"
        }
      ],
      "stateMutability": "nonpayable",
      "type": "function"
    },
    {
      "inputs": [],
      "name": "getTotal",
      "outputs": [
        {
          "internalType": "uint256",
          "name": "",
          "type": "uint256"
        }
      ],
      "stateMutability": "nonpayable",
      "type": "function"
    },
    {
      "inputs": [
        {
          "internalType": "uint256",
          "name": "amount",
          "type": "uint256"
        }
      ],
      "name": "deposit",
      "outputs": [],
      "stateMutability": "nonpayable",
      "type": "function"
    },
    {
      "inputs": [
        {
          "internalType": "uint256",
          "name": "amountShares",
          "type": "uint256"
        }
      ],
      "name": "withdraw",
      "outputs": [
        {
          "internalType": "uint256",
          "name": "",
          "type": "uint256"
        }
      ],
      "stateMutability": "nonpayable",
      "type": "function"
    },
    {
      "inputs": [],
      "name": "harvest",
      "outputs": [],
      "stateMutability": "nonpayable",
      "type": "function"
    },
    {
      "inputs": [
        {
          "internalType": "address",
          "name": "user",
          "type": "address"
        },
        {
          "internalType": "uint256",
          "name": "amountUSDC",
          "type": "uint256"
        },
        {
          "internalType": "uint256",
          "name": "amountETH",
          "type": "uint256"
        }
      ],
      "name": "storeCrTokens",
      "outputs": [],
      "stateMutability": "nonpayable",
      "type": "function"
    }
  ],
  "bytecode": "0x60806040523480156200001157600080fd5b5060405162002efb38038062002efb8339818101604052810190620000379190620002bc565b6040518060400160405280601881526020017f446a696e6e2046696e616e63652055534443205661756c7400000000000000008152506040518060400160405280600681526020017f64665553444300000000000000000000000000000000000000000000000000008152508160039080519060200190620000bb929190620001a2565b508060049080519060200190620000d4929190620001a2565b50505033600760006101000a81548173ffffffffffffffffffffffffffffffffffffffff021916908373ffffffffffffffffffffffffffffffffffffffff16021790555081600560006101000a81548173ffffffffffffffffffffffffffffffffffffffff021916908373ffffffffffffffffffffffffffffffffffffffff16021790555080600660006101000a81548173ffffffffffffffffffffffffffffffffffffffff021916908373ffffffffffffffffffffffffffffffffffffffff160217905550505062000368565b828054620001b09062000332565b90600052602060002090601f016020900481019282620001d4576000855562000220565b82601f10620001ef57805160ff191683800117855562000220565b8280016001018555821562000220579182015b828111156200021f57825182559160200191906001019062000202565b5b5090506200022f919062000233565b5090565b5b808211156200024e57600081600090555060010162000234565b5090565b600080fd5b600073ffffffffffffffffffffffffffffffffffffffff82169050919050565b6000620002848262000257565b9050919050565b620002968162000277565b8114620002a257600080fd5b50565b600081519050620002b6816200028b565b92915050565b60008060408385031215620002d657620002d562000252565b5b6000620002e685828601620002a5565b9250506020620002f985828601620002a5565b9150509250929050565b7f4e487b7100000000000000000000000000000000000000000000000000000000600052602260045260246000fd5b600060028204905060018216806200034b57607f821691505b6020821081141562000362576200036162000303565b5b50919050565b612b8380620003786000396000f3fe608060405234801561001057600080fd5b506004361061014d5760003560e01c806370a08231116100c3578063a6f353f01161007c578063a6f353f0146103a4578063a9059cbb146103c0578063b69ef8a8146103f0578063b6b55f251461040e578063c4d66de81461042a578063dd62ed3e146104465761014d565b806370a08231146102ce578063775a25e3146102fe57806389c4fa121461031c5780638f2839701461033a57806395d89b4114610356578063a457c2d7146103745761014d565b8063313ce56711610115578063313ce5671461021e578063395093511461023c5780633e413bee1461026c5780634478efa21461028a5780634641257d146102a65780636352cf24146102b05761014d565b806306fdde0314610152578063095ea7b31461017057806318160ddd146101a057806323b872dd146101be5780632e1a7d4d146101ee575b600080fd5b61015a610476565b6040516101679190611dd7565b60405180910390f35b61018a60048036038101906101859190611e92565b610508565b6040516101979190611eed565b60405180910390f35b6101a8610526565b6040516101b59190611f17565b60405180910390f35b6101d860048036038101906101d39190611f32565b610530565b6040516101e59190611eed565b60405180910390f35b61020860048036038101906102039190611f85565b610628565b6040516102159190611f17565b60405180910390f35b6102266109a1565b6040516102339190611fce565b60405180910390f35b61025660048036038101906102519190611e92565b6109aa565b6040516102639190611eed565b60405180910390f35b610274610a56565b6040516102819190612048565b60405180910390f35b6102a4600480360381019061029f9190612063565b610a7c565b005b6102ae610b2c565b005b6102b8610bb0565b6040516102c591906120c5565b60405180910390f35b6102e860048036038101906102e391906120e0565b610bd6565b6040516102f59190611f17565b60405180910390f35b610306610c1e565b6040516103139190611f17565b60405180910390f35b610324610c2d565b6040516103319190612140565b60405180910390f35b610354600480360381019061034f91906120e0565b610c53565b005b61035e610d27565b60405161036b9190611dd7565b60405180910390f35b61038e60048036038101906103899190611e92565b610db9565b60405161039b9190611eed565b60405180910390f35b6103be60048036038101906103b991906120e0565b610ea4565b005b6103da60048036038101906103d59190611e92565b611005565b6040516103e79190611eed565b60405180910390f35b6103f8611023565b6040516104059190611f17565b60405180910390f35b61042860048036038101906104239190611f85565b611163565b005b610444600480360381019061043f91906121ab565b61144e565b005b610460600480360381019061045b91906121d8565b611522565b60405161046d9190611f17565b60405180910390f35b60606003805461048590612247565b80601f01602080910402602001604051908101604052809291908181526020018280546104b190612247565b80156104fe5780601f106104d3576101008083540402835291602001916104fe565b820191906000526020600020905b8154815290600101906020018083116104e157829003601f168201915b5050505050905090565b600061051c6105156115a9565b84846115b1565b6001905092915050565b6000600254905090565b600061053d84848461177c565b6000600160008673ffffffffffffffffffffffffffffffffffffffff1673ffffffffffffffffffffffffffffffffffffffff16815260200190815260200160002060006105886115a9565b73ffffffffffffffffffffffffffffffffffffffff1673ffffffffffffffffffffffffffffffffffffffff16815260200190815260200160002054905082811015610608576040517f08c379a00000000000000000000000000000000000000000000000000000000081526004016105ff906122eb565b60405180910390fd5b61061c856106146115a9565b8584036115b1565b60019150509392505050565b60003073ffffffffffffffffffffffffffffffffffffffff166370a08231336040518263ffffffff1660e01b815260040161066391906120c5565b602060405180830381865afa158015610680573d6000803e3d6000fd5b505050506040513d601f19601f820116820180604052508101906106a49190612320565b8211156106e6576040517f08c379a00000000000000000000000000000000000000000000000000000000081526004016106dd90612399565b60405180910390fd5b6106ee610526565b821015610700576106ff33836119fd565b5b6000600560009054906101000a900473ffffffffffffffffffffffffffffffffffffffff1673ffffffffffffffffffffffffffffffffffffffff166370a08231306040518263ffffffff1660e01b815260040161075d91906120c5565b602060405180830381865afa15801561077a573d6000803e3d6000fd5b505050506040513d601f19601f8201168201806040525081019061079e9190612320565b9050600860009054906101000a900473ffffffffffffffffffffffffffffffffffffffff1673ffffffffffffffffffffffffffffffffffffffff1663e49280cb33856040518363ffffffff1660e01b81526004016107fd9291906123b9565b600060405180830381600087803b15801561081757600080fd5b505af115801561082b573d6000803e3d6000fd5b505050506000600560009054906101000a900473ffffffffffffffffffffffffffffffffffffffff1673ffffffffffffffffffffffffffffffffffffffff166370a08231306040518263ffffffff1660e01b815260040161088c91906120c5565b602060405180830381865afa1580156108a9573d6000803e3d6000fd5b505050506040513d601f19601f820116820180604052508101906108cd9190612320565b9050600082826108dd9190612411565b9050600560009054906101000a900473ffffffffffffffffffffffffffffffffffffffff1673ffffffffffffffffffffffffffffffffffffffff1663a9059cbb33836040518363ffffffff1660e01b815260040161093c9291906123b9565b6020604051808303816000875af115801561095b573d6000803e3d6000fd5b505050506040513d601f19601f8201168201806040525081019061097f9190612471565b50610988610526565b85106109995761099833866119fd565b5b505050919050565b60006012905090565b6000610a4c6109b76115a9565b8484600160006109c56115a9565b73ffffffffffffffffffffffffffffffffffffffff1673ffffffffffffffffffffffffffffffffffffffff16815260200190815260200160002060008873ffffffffffffffffffffffffffffffffffffffff1673ffffffffffffffffffffffffffffffffffffffff16815260200190815260200160002054610a47919061249e565b6115b1565b6001905092915050565b600560009054906101000a900473ffffffffffffffffffffffffffffffffffffffff1681565b600860009054906101000a900473ffffffffffffffffffffffffffffffffffffffff1673ffffffffffffffffffffffffffffffffffffffff163373ffffffffffffffffffffffffffffffffffffffff1614610b0c576040517f08c379a0000000000000000000000000000000000000000000000000000000008152600401610b0390612399565b60405180910390fd5b60008183610b1a919061249e565b9050610b268482611bd4565b50505050565b600860009054906101000a900473ffffffffffffffffffffffffffffffffffffffff1673ffffffffffffffffffffffffffffffffffffffff16634641257d6040518163ffffffff1660e01b8152600401600060405180830381600087803b158015610b9657600080fd5b505af1158015610baa573d6000803e3d6000fd5b50505050565b600660009054906101000a900473ffffffffffffffffffffffffffffffffffffffff1681565b60008060008373ffffffffffffffffffffffffffffffffffffffff1673ffffffffffffffffffffffffffffffffffffffff168152602001908152602001600020549050919050565b6000610c28610526565b905090565b600860009054906101000a900473ffffffffffffffffffffffffffffffffffffffff1681565b600760009054906101000a900473ffffffffffffffffffffffffffffffffffffffff1673ffffffffffffffffffffffffffffffffffffffff163373ffffffffffffffffffffffffffffffffffffffff1614610ce3576040517f08c379a0000000000000000000000000000000000000000000000000000000008152600401610cda90612540565b60405180910390fd5b80600760006101000a81548173ffffffffffffffffffffffffffffffffffffffff021916908373ffffffffffffffffffffffffffffffffffffffff16021790555050565b606060048054610d3690612247565b80601f0160208091040260200160405190810160405280929190818152602001828054610d6290612247565b8015610daf5780601f10610d8457610100808354040283529160200191610daf565b820191906000526020600020905b815481529060010190602001808311610d9257829003601f168201915b5050505050905090565b60008060016000610dc86115a9565b73ffffffffffffffffffffffffffffffffffffffff1673ffffffffffffffffffffffffffffffffffffffff16815260200190815260200160002060008573ffffffffffffffffffffffffffffffffffffffff1673ffffffffffffffffffffffffffffffffffffffff16815260200190815260200160002054905082811015610e85576040517f08c379a0000000000000000000000000000000000000000000000000000000008152600401610e7c906125d2565b60405180910390fd5b610e99610e906115a9565b858584036115b1565b600191505092915050565b600760009054906101000a900473ffffffffffffffffffffffffffffffffffffffff1673ffffffffffffffffffffffffffffffffffffffff163373ffffffffffffffffffffffffffffffffffffffff1614610f34576040517f08c379a0000000000000000000000000000000000000000000000000000000008152600401610f2b90612540565b60405180910390fd5b80600660006101000a81548173ffffffffffffffffffffffffffffffffffffffff021916908373ffffffffffffffffffffffffffffffffffffffff160217905550600860009054906101000a900473ffffffffffffffffffffffffffffffffffffffff1673ffffffffffffffffffffffffffffffffffffffff1663f0f44260826040518263ffffffff1660e01b8152600401610fd091906120c5565b600060405180830381600087803b158015610fea57600080fd5b505af1158015610ffe573d6000803e3d6000fd5b5050505050565b60006110196110126115a9565b848461177c565b6001905092915050565b6000600860009054906101000a900473ffffffffffffffffffffffffffffffffffffffff1673ffffffffffffffffffffffffffffffffffffffff16639816f4736040518163ffffffff1660e01b81526004016020604051808303816000875af1158015611094573d6000803e3d6000fd5b505050506040513d601f19601f820116820180604052508101906110b89190612320565b600560009054906101000a900473ffffffffffffffffffffffffffffffffffffffff1673ffffffffffffffffffffffffffffffffffffffff166370a08231306040518263ffffffff1660e01b815260040161111391906120c5565b602060405180830381865afa158015611130573d6000803e3d6000fd5b505050506040513d601f19601f820116820180604052508101906111549190612320565b61115e919061249e565b905090565b600560009054906101000a900473ffffffffffffffffffffffffffffffffffffffff1673ffffffffffffffffffffffffffffffffffffffff166323b872dd3330846040518463ffffffff1660e01b81526004016111c2939291906125f2565b6020604051808303816000875af11580156111e1573d6000803e3d6000fd5b505050506040513d601f19601f820116820180604052508101906112059190612471565b5060006127106064836112189190612629565b61122291906126b2565b9050600081836112329190612411565b9050600560009054906101000a900473ffffffffffffffffffffffffffffffffffffffff1673ffffffffffffffffffffffffffffffffffffffff1663a9059cbb600860009054906101000a900473ffffffffffffffffffffffffffffffffffffffff16836040518363ffffffff1660e01b81526004016112b39291906123b9565b6020604051808303816000875af11580156112d2573d6000803e3d6000fd5b505050506040513d601f19601f820116820180604052508101906112f69190612471565b50600860009054906101000a900473ffffffffffffffffffffffffffffffffffffffff1673ffffffffffffffffffffffffffffffffffffffff16630a0e5c9d33836040518363ffffffff1660e01b81526004016113549291906123b9565b600060405180830381600087803b15801561136e57600080fd5b505af1158015611382573d6000803e3d6000fd5b50505050600560009054906101000a900473ffffffffffffffffffffffffffffffffffffffff1673ffffffffffffffffffffffffffffffffffffffff1663a9059cbb600660009054906101000a900473ffffffffffffffffffffffffffffffffffffffff16846040518363ffffffff1660e01b81526004016114059291906123b9565b6020604051808303816000875af1158015611424573d6000803e3d6000fd5b505050506040513d601f19601f820116820180604052508101906114489190612471565b50505050565b600760009054906101000a900473ffffffffffffffffffffffffffffffffffffffff1673ffffffffffffffffffffffffffffffffffffffff163373ffffffffffffffffffffffffffffffffffffffff16146114de576040517f08c379a00000000000000000000000000000000000000000000000000000000081526004016114d590612540565b60405180910390fd5b80600860006101000a81548173ffffffffffffffffffffffffffffffffffffffff021916908373ffffffffffffffffffffffffffffffffffffffff16021790555050565b6000600160008473ffffffffffffffffffffffffffffffffffffffff1673ffffffffffffffffffffffffffffffffffffffff16815260200190815260200160002060008373ffffffffffffffffffffffffffffffffffffffff1673ffffffffffffffffffffffffffffffffffffffff16815260200190815260200160002054905092915050565b600033905090565b600073ffffffffffffffffffffffffffffffffffffffff168373ffffffffffffffffffffffffffffffffffffffff161415611621576040517f08c379a000000000000000000000000000000000000000000000000000000000815260040161161890612755565b60405180910390fd5b600073ffffffffffffffffffffffffffffffffffffffff168273ffffffffffffffffffffffffffffffffffffffff161415611691576040517f08c379a0000000000000000000000000000000000000000000000000000000008152600401611688906127e7565b60405180910390fd5b80600160008573ffffffffffffffffffffffffffffffffffffffff1673ffffffffffffffffffffffffffffffffffffffff16815260200190815260200160002060008473ffffffffffffffffffffffffffffffffffffffff1673ffffffffffffffffffffffffffffffffffffffff168152602001908152602001600020819055508173ffffffffffffffffffffffffffffffffffffffff168373ffffffffffffffffffffffffffffffffffffffff167f8c5be1e5ebec7d5bd14f71427d1e84f3dd0314c0f7b2291e5b200ac8c7c3b9258360405161176f9190611f17565b60405180910390a3505050565b600073ffffffffffffffffffffffffffffffffffffffff168373ffffffffffffffffffffffffffffffffffffffff1614156117ec576040517f08c379a00000000000000000000000000000000000000000000000000000000081526004016117e390612879565b60405180910390fd5b600073ffffffffffffffffffffffffffffffffffffffff168273ffffffffffffffffffffffffffffffffffffffff16141561185c576040517f08c379a00000000000000000000000000000000000000000000000000000000081526004016118539061290b565b60405180910390fd5b611867838383611d34565b60008060008573ffffffffffffffffffffffffffffffffffffffff1673ffffffffffffffffffffffffffffffffffffffff168152602001908152602001600020549050818110156118ed576040517f08c379a00000000000000000000000000000000000000000000000000000000081526004016118e49061299d565b60405180910390fd5b8181036000808673ffffffffffffffffffffffffffffffffffffffff1673ffffffffffffffffffffffffffffffffffffffff16815260200190815260200160002081905550816000808573ffffffffffffffffffffffffffffffffffffffff1673ffffffffffffffffffffffffffffffffffffffff1681526020019081526020016000206000828254611980919061249e565b925050819055508273ffffffffffffffffffffffffffffffffffffffff168473ffffffffffffffffffffffffffffffffffffffff167fddf252ad1be2c89b69c2b068fc378daa952ba7f163c4a11628f55a4df523b3ef846040516119e49190611f17565b60405180910390a36119f7848484611d39565b50505050565b600073ffffffffffffffffffffffffffffffffffffffff168273ffffffffffffffffffffffffffffffffffffffff161415611a6d576040517f08c379a0000000000000000000000000000000000000000000000000000000008152600401611a6490612a2f565b60405180910390fd5b611a7982600083611d34565b60008060008473ffffffffffffffffffffffffffffffffffffffff1673ffffffffffffffffffffffffffffffffffffffff16815260200190815260200160002054905081811015611aff576040517f08c379a0000000000000000000000000000000000000000000000000000000008152600401611af690612ac1565b60405180910390fd5b8181036000808573ffffffffffffffffffffffffffffffffffffffff1673ffffffffffffffffffffffffffffffffffffffff168152602001908152602001600020819055508160026000828254611b569190612411565b92505081905550600073ffffffffffffffffffffffffffffffffffffffff168373ffffffffffffffffffffffffffffffffffffffff167fddf252ad1be2c89b69c2b068fc378daa952ba7f163c4a11628f55a4df523b3ef84604051611bbb9190611f17565b60405180910390a3611bcf83600084611d39565b505050565b600073ffffffffffffffffffffffffffffffffffffffff168273ffffffffffffffffffffffffffffffffffffffff161415611c44576040517f08c379a0000000000000000000000000000000000000000000000000000000008152600401611c3b90612b2d565b60405180910390fd5b611c5060008383611d34565b8060026000828254611c62919061249e565b92505081905550806000808473ffffffffffffffffffffffffffffffffffffffff1673ffffffffffffffffffffffffffffffffffffffff1681526020019081526020016000206000828254611cb7919061249e565b925050819055508173ffffffffffffffffffffffffffffffffffffffff16600073ffffffffffffffffffffffffffffffffffffffff167fddf252ad1be2c89b69c2b068fc378daa952ba7f163c4a11628f55a4df523b3ef83604051611d1c9190611f17565b60405180910390a3611d3060008383611d39565b5050565b505050565b505050565b600081519050919050565b600082825260208201905092915050565b60005b83811015611d78578082015181840152602081019050611d5d565b83811115611d87576000848401525b50505050565b6000601f19601f8301169050919050565b6000611da982611d3e565b611db38185611d49565b9350611dc3818560208601611d5a565b611dcc81611d8d565b840191505092915050565b60006020820190508181036000830152611df18184611d9e565b905092915050565b600080fd5b600073ffffffffffffffffffffffffffffffffffffffff82169050919050565b6000611e2982611dfe565b9050919050565b611e3981611e1e565b8114611e4457600080fd5b50565b600081359050611e5681611e30565b92915050565b6000819050919050565b611e6f81611e5c565b8114611e7a57600080fd5b50565b600081359050611e8c81611e66565b92915050565b60008060408385031215611ea957611ea8611df9565b5b6000611eb785828601611e47565b9250506020611ec885828601611e7d565b9150509250929050565b60008115159050919050565b611ee781611ed2565b82525050565b6000602082019050611f026000830184611ede565b92915050565b611f1181611e5c565b82525050565b6000602082019050611f2c6000830184611f08565b92915050565b600080600060608486031215611f4b57611f4a611df9565b5b6000611f5986828701611e47565b9350506020611f6a86828701611e47565b9250506040611f7b86828701611e7d565b9150509250925092565b600060208284031215611f9b57611f9a611df9565b5b6000611fa984828501611e7d565b91505092915050565b600060ff82169050919050565b611fc881611fb2565b82525050565b6000602082019050611fe36000830184611fbf565b92915050565b6000819050919050565b600061200e61200961200484611dfe565b611fe9565b611dfe565b9050919050565b600061202082611ff3565b9050919050565b600061203282612015565b9050919050565b61204281612027565b82525050565b600060208201905061205d6000830184612039565b92915050565b60008060006060848603121561207c5761207b611df9565b5b600061208a86828701611e47565b935050602061209b86828701611e7d565b92505060406120ac86828701611e7d565b9150509250925092565b6120bf81611e1e565b82525050565b60006020820190506120da60008301846120b6565b92915050565b6000602082840312156120f6576120f5611df9565b5b600061210484828501611e47565b91505092915050565b600061211882611ff3565b9050919050565b600061212a8261210d565b9050919050565b61213a8161211f565b82525050565b60006020820190506121556000830184612131565b92915050565b600061216682611dfe565b9050919050565b60006121788261215b565b9050919050565b6121888161216d565b811461219357600080fd5b50565b6000813590506121a58161217f565b92915050565b6000602082840312156121c1576121c0611df9565b5b60006121cf84828501612196565b91505092915050565b600080604083850312156121ef576121ee611df9565b5b60006121fd85828601611e47565b925050602061220e85828601611e47565b9150509250929050565b7f4e487b7100000000000000000000000000000000000000000000000000000000600052602260045260246000fd5b6000600282049050600182168061225f57607f821691505b6020821081141561227357612272612218565b5b50919050565b7f45524332303a207472616e7366657220616d6f756e742065786365656473206160008201527f6c6c6f77616e6365000000000000000000000000000000000000000000000000602082015250565b60006122d5602883611d49565b91506122e082612279565b604082019050919050565b60006020820190508181036000830152612304816122c8565b9050919050565b60008151905061231a81611e66565b92915050565b60006020828403121561233657612335611df9565b5b60006123448482850161230b565b91505092915050565b7f6e6f000000000000000000000000000000000000000000000000000000000000600082015250565b6000612383600283611d49565b915061238e8261234d565b602082019050919050565b600060208201905081810360008301526123b281612376565b9050919050565b60006040820190506123ce60008301856120b6565b6123db6020830184611f08565b9392505050565b7f4e487b7100000000000000000000000000000000000000000000000000000000600052601160045260246000fd5b600061241c82611e5c565b915061242783611e5c565b92508282101561243a576124396123e2565b5b828203905092915050565b61244e81611ed2565b811461245957600080fd5b50565b60008151905061246b81612445565b92915050565b60006020828403121561248757612486611df9565b5b60006124958482850161245c565b91505092915050565b60006124a982611e5c565b91506124b483611e5c565b9250827fffffffffffffffffffffffffffffffffffffffffffffffffffffffffffffffff038211156124e9576124e86123e2565b5b828201905092915050565b7f2161646d696e0000000000000000000000000000000000000000000000000000600082015250565b600061252a600683611d49565b9150612535826124f4565b602082019050919050565b600060208201905081810360008301526125598161251d565b9050919050565b7f45524332303a2064656372656173656420616c6c6f77616e63652062656c6f7760008201527f207a65726f000000000000000000000000000000000000000000000000000000602082015250565b60006125bc602583611d49565b91506125c782612560565b604082019050919050565b600060208201905081810360008301526125eb816125af565b9050919050565b600060608201905061260760008301866120b6565b61261460208301856120b6565b6126216040830184611f08565b949350505050565b600061263482611e5c565b915061263f83611e5c565b9250817fffffffffffffffffffffffffffffffffffffffffffffffffffffffffffffffff0483118215151615612678576126776123e2565b5b828202905092915050565b7f4e487b7100000000000000000000000000000000000000000000000000000000600052601260045260246000fd5b60006126bd82611e5c565b91506126c883611e5c565b9250826126d8576126d7612683565b5b828204905092915050565b7f45524332303a20617070726f76652066726f6d20746865207a65726f2061646460008201527f7265737300000000000000000000000000000000000000000000000000000000602082015250565b600061273f602483611d49565b915061274a826126e3565b604082019050919050565b6000602082019050818103600083015261276e81612732565b9050919050565b7f45524332303a20617070726f766520746f20746865207a65726f20616464726560008201527f7373000000000000000000000000000000000000000000000000000000000000602082015250565b60006127d1602283611d49565b91506127dc82612775565b604082019050919050565b60006020820190508181036000830152612800816127c4565b9050919050565b7f45524332303a207472616e736665722066726f6d20746865207a65726f20616460008201527f6472657373000000000000000000000000000000000000000000000000000000602082015250565b6000612863602583611d49565b915061286e82612807565b604082019050919050565b6000602082019050818103600083015261289281612856565b9050919050565b7f45524332303a207472616e7366657220746f20746865207a65726f206164647260008201527f6573730000000000000000000000000000000000000000000000000000000000602082015250565b60006128f5602383611d49565b915061290082612899565b604082019050919050565b60006020820190508181036000830152612924816128e8565b9050919050565b7f45524332303a207472616e7366657220616d6f756e742065786365656473206260008201527f616c616e63650000000000000000000000000000000000000000000000000000602082015250565b6000612987602683611d49565b91506129928261292b565b604082019050919050565b600060208201905081810360008301526129b68161297a565b9050919050565b7f45524332303a206275726e2066726f6d20746865207a65726f2061646472657360008201527f7300000000000000000000000000000000000000000000000000000000000000602082015250565b6000612a19602183611d49565b9150612a24826129bd565b604082019050919050565b60006020820190508181036000830152612a4881612a0c565b9050919050565b7f45524332303a206275726e20616d6f756e7420657863656564732062616c616e60008201527f6365000000000000000000000000000000000000000000000000000000000000602082015250565b6000612aab602283611d49565b9150612ab682612a4f565b604082019050919050565b60006020820190508181036000830152612ada81612a9e565b9050919050565b7f45524332303a206d696e7420746f20746865207a65726f206164647265737300600082015250565b6000612b17601f83611d49565b9150612b2282612ae1565b602082019050919050565b60006020820190508181036000830152612b4681612b0a565b905091905056fea2646970667358221220f71c0021eb7081b0fe03a6a87d029483db874b090fb27cba45404112d8c8fae964736f6c634300080a0033",
  "immutableReferences": {},
  "source": "// SPDX-License-Identifier: MIT \npragma solidity ^0.8.10; \n\nimport \"@openzeppelin/contracts/token/ERC20/IERC20.sol\"; \nimport \"@openzeppelin/contracts/token/ERC20/ERC20.sol\"; \nimport \"./strategies/CreamFtmTombStrategy.sol\"; \n\n//The deposit contract for Djinn Finance\ncontract DjinnBottleUSDC is ERC20 {\n\n//\taddress public immutable USDC = 0x04068DA6C83AFCFA0e13ba15A6696662335D5B75;  \t \n\tIERC20 public usdc;\n\t\n//\tmapping(address => uint) public crShares; \n\n\tuint private constant PROTOCOL_FEE = 100; \n\taddress public PROTOCOL_TREASURY; //the protocol collects 1% USDC deposits and 1% yield bearing assets\n\n\taddress private admin; //deployer address used to perform basic admin features\n\tShortFarmFTM public shortStrategy; \n\n\tconstructor( address _usdc, address _treasury) ERC20(\"Djinn Finance USDC Vault\",\"dfUSDC\") {\n\t\tadmin = msg.sender; \n\t\tusdc = IERC20(_usdc); \n\t\tPROTOCOL_TREASURY = _treasury; \n\t}\n\n\tfunction changeTreasuryAddress(address newAddress) external {\n\t\trequire(msg.sender == admin, \"!admin\"); \n\t\tPROTOCOL_TREASURY = newAddress; \t\n\t\tshortStrategy.setTreasury(newAddress); \n\t}\n\n\tfunction changeAdmin(address newAdmin) external {\n\t\trequire(msg.sender == admin, \"!admin\"); \n\t\tadmin = newAdmin; \n\t}\n\t\n\t//set strategy address \n\tfunction initialize(ShortFarmFTM _shortStrategy) external {\n\t\trequire(msg.sender == admin, \"!admin\"); \n\t\tshortStrategy = _shortStrategy; \n\t}\n\n\tfunction balance() public returns(uint) {\n\t\treturn usdc.balanceOf(address(this)) + shortStrategy.getUnderlying(); \n\t}\n\n\tfunction getTotal() public returns(uint) {\n\t\treturn totalSupply(); \n\t}\n\t\n\tfunction deposit(uint amount) public {\n\t\tusdc.transferFrom(msg.sender, address(this), amount); \t\t\n\n\t\tuint feeAmount = (amount * PROTOCOL_FEE) / 1e4;  //1% deposit fee \n\t\tuint newAmount = amount - feeAmount;\n\n\t\t//send to strategy contract \n\t\tusdc.transfer(address(shortStrategy), newAmount); \n\t\tshortStrategy.open(msg.sender, newAmount);  \n\n\t\t//send fee to treasury address \n\t\tusdc.transfer(PROTOCOL_TREASURY, feeAmount); \n\t}\n\t\n\t//we get msg.sender's % of pool and then use that to convert to tokens \n\tfunction withdraw(uint amountShares) public returns(uint) {\n\t\trequire(amountShares <= IERC20(address(this)).balanceOf(msg.sender), \"no\"); \n\t\t//so we do not divide by zero \n\t\tif (amountShares < totalSupply()) {\n\t\t\t_burn(msg.sender, amountShares); \n\t\t}\n\t\t//then we pass this to the strategy contract to withdraw the correct % of LP tokens\n\t\tuint beforeBal = usdc.balanceOf(address(this)); \n\t\tshortStrategy.close(msg.sender, amountShares); \n\t\tuint afterBal = usdc.balanceOf(address(this));\n\t\t//send back user their usdc \n\t\tuint amountToWithdraw = afterBal - beforeBal; \n\t\tusdc.transfer(msg.sender, amountToWithdraw); \n\n\t\t//if they are the last to withdraw\n\t\tif (amountShares >= totalSupply()) {\n\t\t\t_burn(msg.sender, amountShares); \n\t\t}\n\t}\t\n\n\tfunction harvest() external {\n\t\tshortStrategy.harvest(); \n\t}\n\n\tfunction storeCrTokens(address user, uint amountUSDC, uint amountETH) external {\n\t\trequire(msg.sender == address(shortStrategy), \"no\"); \n\t\tuint amountTotal = amountUSDC + amountETH; \n\t\t_mint(user, amountTotal); \n\t}\t\n\n\n}\n",
  "sourcePath": "/home/kevin/Code/solidity_projects/djinn/contracts/DjinnBottleUSDC.sol",
  "compiler": {
    "name": "solc",
    "version": "0.8.10+commit.fc410830.Emscripten.clang"
  },
  "schemaVersion": "3.4.3",
  "updatedAt": "2022-02-27T19:17:12.033Z",
  "networkType": "ethereum",
  "devdoc": {
    "kind": "dev",
    "methods": {
      "allowance(address,address)": {
        "details": "See {IERC20-allowance}."
      },
      "approve(address,uint256)": {
        "details": "See {IERC20-approve}. Requirements: - `spender` cannot be the zero address."
      },
      "balanceOf(address)": {
        "details": "See {IERC20-balanceOf}."
      },
      "decimals()": {
        "details": "Returns the number of decimals used to get its user representation. For example, if `decimals` equals `2`, a balance of `505` tokens should be displayed to a user as `5.05` (`505 / 10 ** 2`). Tokens usually opt for a value of 18, imitating the relationship between Ether and Wei. This is the value {ERC20} uses, unless this function is overridden; NOTE: This information is only used for _display_ purposes: it in no way affects any of the arithmetic of the contract, including {IERC20-balanceOf} and {IERC20-transfer}."
      },
      "decreaseAllowance(address,uint256)": {
        "details": "Atomically decreases the allowance granted to `spender` by the caller. This is an alternative to {approve} that can be used as a mitigation for problems described in {IERC20-approve}. Emits an {Approval} event indicating the updated allowance. Requirements: - `spender` cannot be the zero address. - `spender` must have allowance for the caller of at least `subtractedValue`."
      },
      "increaseAllowance(address,uint256)": {
        "details": "Atomically increases the allowance granted to `spender` by the caller. This is an alternative to {approve} that can be used as a mitigation for problems described in {IERC20-approve}. Emits an {Approval} event indicating the updated allowance. Requirements: - `spender` cannot be the zero address."
      },
      "name()": {
        "details": "Returns the name of the token."
      },
      "symbol()": {
        "details": "Returns the symbol of the token, usually a shorter version of the name."
      },
      "totalSupply()": {
        "details": "See {IERC20-totalSupply}."
      },
      "transfer(address,uint256)": {
        "details": "See {IERC20-transfer}. Requirements: - `recipient` cannot be the zero address. - the caller must have a balance of at least `amount`."
      },
      "transferFrom(address,address,uint256)": {
        "details": "See {IERC20-transferFrom}. Emits an {Approval} event indicating the updated allowance. This is not required by the EIP. See the note at the beginning of {ERC20}. Requirements: - `sender` and `recipient` cannot be the zero address. - `sender` must have a balance of at least `amount`. - the caller must have allowance for ``sender``'s tokens of at least `amount`."
      }
    },
    "version": 1
  },
  "userdoc": {
    "kind": "user",
    "methods": {},
    "version": 1
  }
}