{
  "contractName": "DjinnBottleUSDC",
  "abi": [
    {
      "inputs": [
        {
          "internalType": "address",
          "name": "_usdc",
          "type": "address"
        },
        {
          "internalType": "address",
          "name": "_controller",
          "type": "address"
        }
      ],
      "stateMutability": "nonpayable",
      "type": "constructor"
    },
    {
      "anonymous": false,
      "inputs": [
        {
          "indexed": true,
          "internalType": "address",
          "name": "owner",
          "type": "address"
        },
        {
          "indexed": true,
          "internalType": "address",
          "name": "spender",
          "type": "address"
        },
        {
          "indexed": false,
          "internalType": "uint256",
          "name": "value",
          "type": "uint256"
        }
      ],
      "name": "Approval",
      "type": "event"
    },
    {
      "anonymous": false,
      "inputs": [
        {
          "indexed": true,
          "internalType": "address",
          "name": "from",
          "type": "address"
        },
        {
          "indexed": true,
          "internalType": "address",
          "name": "to",
          "type": "address"
        },
        {
          "indexed": false,
          "internalType": "uint256",
          "name": "value",
          "type": "uint256"
        }
      ],
      "name": "Transfer",
      "type": "event"
    },
    {
      "inputs": [],
      "name": "USDC",
      "outputs": [
        {
          "internalType": "address",
          "name": "",
          "type": "address"
        }
      ],
      "stateMutability": "view",
      "type": "function",
      "constant": true
    },
    {
      "inputs": [
        {
          "internalType": "address",
          "name": "owner",
          "type": "address"
        },
        {
          "internalType": "address",
          "name": "spender",
          "type": "address"
        }
      ],
      "name": "allowance",
      "outputs": [
        {
          "internalType": "uint256",
          "name": "",
          "type": "uint256"
        }
      ],
      "stateMutability": "view",
      "type": "function",
      "constant": true
    },
    {
      "inputs": [
        {
          "internalType": "address",
          "name": "spender",
          "type": "address"
        },
        {
          "internalType": "uint256",
          "name": "amount",
          "type": "uint256"
        }
      ],
      "name": "approve",
      "outputs": [
        {
          "internalType": "bool",
          "name": "",
          "type": "bool"
        }
      ],
      "stateMutability": "nonpayable",
      "type": "function"
    },
    {
      "inputs": [],
      "name": "ass",
      "outputs": [
        {
          "internalType": "uint256",
          "name": "",
          "type": "uint256"
        }
      ],
      "stateMutability": "view",
      "type": "function",
      "constant": true
    },
    {
      "inputs": [
        {
          "internalType": "address",
          "name": "account",
          "type": "address"
        }
      ],
      "name": "balanceOf",
      "outputs": [
        {
          "internalType": "uint256",
          "name": "",
          "type": "uint256"
        }
      ],
      "stateMutability": "view",
      "type": "function",
      "constant": true
    },
    {
      "inputs": [],
      "name": "controller",
      "outputs": [
        {
          "internalType": "address",
          "name": "",
          "type": "address"
        }
      ],
      "stateMutability": "view",
      "type": "function",
      "constant": true
    },
    {
      "inputs": [],
      "name": "decimals",
      "outputs": [
        {
          "internalType": "uint8",
          "name": "",
          "type": "uint8"
        }
      ],
      "stateMutability": "view",
      "type": "function",
      "constant": true
    },
    {
      "inputs": [
        {
          "internalType": "address",
          "name": "spender",
          "type": "address"
        },
        {
          "internalType": "uint256",
          "name": "subtractedValue",
          "type": "uint256"
        }
      ],
      "name": "decreaseAllowance",
      "outputs": [
        {
          "internalType": "bool",
          "name": "",
          "type": "bool"
        }
      ],
      "stateMutability": "nonpayable",
      "type": "function"
    },
    {
      "inputs": [],
      "name": "globalRewards",
      "outputs": [
        {
          "internalType": "uint256",
          "name": "",
          "type": "uint256"
        }
      ],
      "stateMutability": "view",
      "type": "function",
      "constant": true
    },
    {
      "inputs": [
        {
          "internalType": "address",
          "name": "spender",
          "type": "address"
        },
        {
          "internalType": "uint256",
          "name": "addedValue",
          "type": "uint256"
        }
      ],
      "name": "increaseAllowance",
      "outputs": [
        {
          "internalType": "bool",
          "name": "",
          "type": "bool"
        }
      ],
      "stateMutability": "nonpayable",
      "type": "function"
    },
    {
      "inputs": [],
      "name": "name",
      "outputs": [
        {
          "internalType": "string",
          "name": "",
          "type": "string"
        }
      ],
      "stateMutability": "view",
      "type": "function",
      "constant": true
    },
    {
      "inputs": [],
      "name": "shortStrategy",
      "outputs": [
        {
          "internalType": "contract ShortFarmFTM",
          "name": "",
          "type": "address"
        }
      ],
      "stateMutability": "view",
      "type": "function",
      "constant": true
    },
    {
      "inputs": [],
      "name": "symbol",
      "outputs": [
        {
          "internalType": "string",
          "name": "",
          "type": "string"
        }
      ],
      "stateMutability": "view",
      "type": "function",
      "constant": true
    },
    {
      "inputs": [],
      "name": "totalSupply",
      "outputs": [
        {
          "internalType": "uint256",
          "name": "",
          "type": "uint256"
        }
      ],
      "stateMutability": "view",
      "type": "function",
      "constant": true
    },
    {
      "inputs": [
        {
          "internalType": "address",
          "name": "recipient",
          "type": "address"
        },
        {
          "internalType": "uint256",
          "name": "amount",
          "type": "uint256"
        }
      ],
      "name": "transfer",
      "outputs": [
        {
          "internalType": "bool",
          "name": "",
          "type": "bool"
        }
      ],
      "stateMutability": "nonpayable",
      "type": "function"
    },
    {
      "inputs": [
        {
          "internalType": "address",
          "name": "sender",
          "type": "address"
        },
        {
          "internalType": "address",
          "name": "recipient",
          "type": "address"
        },
        {
          "internalType": "uint256",
          "name": "amount",
          "type": "uint256"
        }
      ],
      "name": "transferFrom",
      "outputs": [
        {
          "internalType": "bool",
          "name": "",
          "type": "bool"
        }
      ],
      "stateMutability": "nonpayable",
      "type": "function"
    },
    {
      "inputs": [],
      "name": "usdc",
      "outputs": [
        {
          "internalType": "contract IERC20",
          "name": "",
          "type": "address"
        }
      ],
      "stateMutability": "view",
      "type": "function",
      "constant": true
    },
    {
      "inputs": [
        {
          "internalType": "contract ShortFarmFTM",
          "name": "_shortStrategy",
          "type": "address"
        }
      ],
      "name": "initialize",
      "outputs": [],
      "stateMutability": "nonpayable",
      "type": "function"
    },
    {
      "inputs": [],
      "name": "balance",
      "outputs": [
        {
          "internalType": "uint256",
          "name": "",
          "type": "uint256"
        }
      ],
      "stateMutability": "nonpayable",
      "type": "function"
    },
    {
      "inputs": [
        {
          "internalType": "uint256",
          "name": "shares",
          "type": "uint256"
        }
      ],
      "name": "testMint",
      "outputs": [],
      "stateMutability": "nonpayable",
      "type": "function"
    },
    {
      "inputs": [
        {
          "internalType": "uint256",
          "name": "amount",
          "type": "uint256"
        }
      ],
      "name": "deposit",
      "outputs": [],
      "stateMutability": "nonpayable",
      "type": "function"
    },
    {
      "inputs": [
        {
          "internalType": "uint256",
          "name": "amountShares",
          "type": "uint256"
        }
      ],
      "name": "withdraw",
      "outputs": [
        {
          "internalType": "uint256",
          "name": "",
          "type": "uint256"
        }
      ],
      "stateMutability": "nonpayable",
      "type": "function"
    },
    {
      "inputs": [],
      "name": "callHarvest",
      "outputs": [],
      "stateMutability": "nonpayable",
      "type": "function"
    },
    {
      "inputs": [],
      "name": "claim",
      "outputs": [],
      "stateMutability": "nonpayable",
      "type": "function"
    },
    {
      "inputs": [
        {
          "internalType": "uint256",
          "name": "amount",
          "type": "uint256"
        }
      ],
      "name": "depositProfits",
      "outputs": [],
      "stateMutability": "nonpayable",
      "type": "function"
    }
  ],
  "bytecode": "0x60a06040527304068da6c83afcfa0e13ba15a6696662335d5b7573ffffffffffffffffffffffffffffffffffffffff1660809073ffffffffffffffffffffffffffffffffffffffff168152503480156200005857600080fd5b50604051620030c1380380620030c183398181016040528101906200007e919062000303565b6040518060400160405280601881526020017f446a696e6e2046696e616e63652055534443205661756c7400000000000000008152506040518060400160405280600681526020017f6466555344430000000000000000000000000000000000000000000000000000815250816003908051906020019062000102929190620001e9565b5080600490805190602001906200011b929190620001e9565b50505033600960006101000a81548173ffffffffffffffffffffffffffffffffffffffff021916908373ffffffffffffffffffffffffffffffffffffffff16021790555081600760006101000a81548173ffffffffffffffffffffffffffffffffffffffff021916908373ffffffffffffffffffffffffffffffffffffffff16021790555080600a60006101000a81548173ffffffffffffffffffffffffffffffffffffffff021916908373ffffffffffffffffffffffffffffffffffffffff1602179055505050620003af565b828054620001f79062000379565b90600052602060002090601f0160209004810192826200021b576000855562000267565b82601f106200023657805160ff191683800117855562000267565b8280016001018555821562000267579182015b828111156200026657825182559160200191906001019062000249565b5b5090506200027691906200027a565b5090565b5b80821115620002955760008160009055506001016200027b565b5090565b600080fd5b600073ffffffffffffffffffffffffffffffffffffffff82169050919050565b6000620002cb826200029e565b9050919050565b620002dd81620002be565b8114620002e957600080fd5b50565b600081519050620002fd81620002d2565b92915050565b600080604083850312156200031d576200031c62000299565b5b60006200032d85828601620002ec565b92505060206200034085828601620002ec565b9150509250929050565b7f4e487b7100000000000000000000000000000000000000000000000000000000600052602260045260246000fd5b600060028204905060018216806200039257607f821691505b60208210811415620003a957620003a86200034a565b5b50919050565b608051612cf6620003cb6000396000610bae0152612cf66000f3fe608060405234801561001057600080fd5b50600436106101735760003560e01c806389a30271116100de578063b6b55f2511610097578063dd62ed3e11610071578063dd62ed3e1461043e578063e08c39881461046e578063ee73d66b1461048c578063f77c4791146104a857610173565b8063b6b55f25146103fc578063bfe6cc1a14610418578063c4d66de81461042257610173565b806389a302711461032457806389c4fa121461034257806395d89b4114610360578063a457c2d71461037e578063a9059cbb146103ae578063b69ef8a8146103de57610173565b8063313ce56711610130578063313ce56714610260578063395093511461027e5780633e413bee146102ae5780634e71d92d146102cc57806370a08231146102d65780637423031e1461030657610173565b806306fdde0314610178578063095ea7b31461019657806318160ddd146101c657806323b872dd146101e45780632e1a7d4d146102145780632f3f94ae14610244575b600080fd5b6101806104c6565b60405161018d9190611f0b565b60405180910390f35b6101b060048036038101906101ab9190611fc6565b610558565b6040516101bd9190612021565b60405180910390f35b6101ce610576565b6040516101db919061204b565b60405180910390f35b6101fe60048036038101906101f99190612066565b610580565b60405161020b9190612021565b60405180910390f35b61022e600480360381019061022991906120b9565b610678565b60405161023b919061204b565b60405180910390f35b61025e600480360381019061025991906120b9565b6109c8565b005b610268610a78565b6040516102759190612102565b60405180910390f35b61029860048036038101906102939190611fc6565b610a81565b6040516102a59190612021565b60405180910390f35b6102b6610b2d565b6040516102c3919061217c565b60405180910390f35b6102d4610b53565b005b6102f060048036038101906102eb9190612197565b610b5e565b6040516102fd919061204b565b60405180910390f35b61030e610ba6565b60405161031b919061204b565b60405180910390f35b61032c610bac565b60405161033991906121d3565b60405180910390f35b61034a610bd0565b6040516103579190612221565b60405180910390f35b610368610bf6565b6040516103759190611f0b565b60405180910390f35b61039860048036038101906103939190611fc6565b610c88565b6040516103a59190612021565b60405180910390f35b6103c860048036038101906103c39190611fc6565b610d73565b6040516103d59190612021565b60405180910390f35b6103e6610d91565b6040516103f3919061204b565b60405180910390f35b610416600480360381019061041191906120b9565b610ed1565b005b610420611103565b005b61043c6004803603810190610437919061228c565b611217565b005b610458600480360381019061045391906122b9565b6112eb565b604051610465919061204b565b60405180910390f35b610476611372565b604051610483919061204b565b60405180910390f35b6104a660048036038101906104a191906120b9565b611378565b005b6104b06114c7565b6040516104bd91906121d3565b60405180910390f35b6060600380546104d590612328565b80601f016020809104026020016040519081016040528092919081815260200182805461050190612328565b801561054e5780601f106105235761010080835404028352916020019161054e565b820191906000526020600020905b81548152906001019060200180831161053157829003601f168201915b5050505050905090565b600061056c6105656114ed565b84846114f5565b6001905092915050565b6000600254905090565b600061058d8484846116c0565b6000600160008673ffffffffffffffffffffffffffffffffffffffff1673ffffffffffffffffffffffffffffffffffffffff16815260200190815260200160002060006105d86114ed565b73ffffffffffffffffffffffffffffffffffffffff1673ffffffffffffffffffffffffffffffffffffffff16815260200190815260200160002054905082811015610658576040517f08c379a000000000000000000000000000000000000000000000000000000000815260040161064f906123cc565b60405180910390fd5b61066c856106646114ed565b8584036114f5565b60019150509392505050565b60003073ffffffffffffffffffffffffffffffffffffffff166370a08231336040518263ffffffff1660e01b81526004016106b391906121d3565b602060405180830381865afa1580156106d0573d6000803e3d6000fd5b505050506040513d601f19601f820116820180604052508101906106f49190612401565b821115610736576040517f08c379a000000000000000000000000000000000000000000000000000000000815260040161072d9061247a565b60405180910390fd5b6107403383611941565b6000600760009054906101000a900473ffffffffffffffffffffffffffffffffffffffff1673ffffffffffffffffffffffffffffffffffffffff166370a08231306040518263ffffffff1660e01b815260040161079d91906121d3565b602060405180830381865afa1580156107ba573d6000803e3d6000fd5b505050506040513d601f19601f820116820180604052508101906107de9190612401565b9050600b60009054906101000a900473ffffffffffffffffffffffffffffffffffffffff1673ffffffffffffffffffffffffffffffffffffffff1663e49280cb33856040518363ffffffff1660e01b815260040161083d92919061249a565b600060405180830381600087803b15801561085757600080fd5b505af115801561086b573d6000803e3d6000fd5b505050506000600760009054906101000a900473ffffffffffffffffffffffffffffffffffffffff1673ffffffffffffffffffffffffffffffffffffffff166370a08231306040518263ffffffff1660e01b81526004016108cc91906121d3565b602060405180830381865afa1580156108e9573d6000803e3d6000fd5b505050506040513d601f19601f8201168201806040525081019061090d9190612401565b90506000828261091d91906124f2565b9050600760009054906101000a900473ffffffffffffffffffffffffffffffffffffffff1673ffffffffffffffffffffffffffffffffffffffff1663a9059cbb33836040518363ffffffff1660e01b815260040161097c92919061249a565b6020604051808303816000875af115801561099b573d6000803e3d6000fd5b505050506040513d601f19601f820116820180604052508101906109bf9190612552565b50505050919050565b600760009054906101000a900473ffffffffffffffffffffffffffffffffffffffff1673ffffffffffffffffffffffffffffffffffffffff166323b872dd3330846040518463ffffffff1660e01b8152600401610a279392919061257f565b6020604051808303816000875af1158015610a46573d6000803e3d6000fd5b505050506040513d601f19601f82011682018060405250810190610a6a9190612552565b50610a753382611b18565b50565b60006012905090565b6000610b23610a8e6114ed565b848460016000610a9c6114ed565b73ffffffffffffffffffffffffffffffffffffffff1673ffffffffffffffffffffffffffffffffffffffff16815260200190815260200160002060008873ffffffffffffffffffffffffffffffffffffffff1673ffffffffffffffffffffffffffffffffffffffff16815260200190815260200160002054610b1e91906125b6565b6114f5565b6001905092915050565b600760009054906101000a900473ffffffffffffffffffffffffffffffffffffffff1681565b610b5c33611c78565b565b60008060008373ffffffffffffffffffffffffffffffffffffffff1673ffffffffffffffffffffffffffffffffffffffff168152602001908152602001600020549050919050565b60055481565b7f000000000000000000000000000000000000000000000000000000000000000081565b600b60009054906101000a900473ffffffffffffffffffffffffffffffffffffffff1681565b606060048054610c0590612328565b80601f0160208091040260200160405190810160405280929190818152602001828054610c3190612328565b8015610c7e5780601f10610c5357610100808354040283529160200191610c7e565b820191906000526020600020905b815481529060010190602001808311610c6157829003601f168201915b5050505050905090565b60008060016000610c976114ed565b73ffffffffffffffffffffffffffffffffffffffff1673ffffffffffffffffffffffffffffffffffffffff16815260200190815260200160002060008573ffffffffffffffffffffffffffffffffffffffff1673ffffffffffffffffffffffffffffffffffffffff16815260200190815260200160002054905082811015610d54576040517f08c379a0000000000000000000000000000000000000000000000000000000008152600401610d4b9061267e565b60405180910390fd5b610d68610d5f6114ed565b858584036114f5565b600191505092915050565b6000610d87610d806114ed565b84846116c0565b6001905092915050565b6000600b60009054906101000a900473ffffffffffffffffffffffffffffffffffffffff1673ffffffffffffffffffffffffffffffffffffffff16639816f4736040518163ffffffff1660e01b81526004016020604051808303816000875af1158015610e02573d6000803e3d6000fd5b505050506040513d601f19601f82011682018060405250810190610e269190612401565b600760009054906101000a900473ffffffffffffffffffffffffffffffffffffffff1673ffffffffffffffffffffffffffffffffffffffff166370a08231306040518263ffffffff1660e01b8152600401610e8191906121d3565b602060405180830381865afa158015610e9e573d6000803e3d6000fd5b505050506040513d601f19601f82011682018060405250810190610ec29190612401565b610ecc91906125b6565b905090565b600760009054906101000a900473ffffffffffffffffffffffffffffffffffffffff1673ffffffffffffffffffffffffffffffffffffffff166323b872dd3330846040518463ffffffff1660e01b8152600401610f309392919061257f565b6020604051808303816000875af1158015610f4f573d6000803e3d6000fd5b505050506040513d601f19601f82011682018060405250810190610f739190612552565b506000612710606483610f86919061269e565b610f909190612727565b905060008183610fa091906124f2565b9050610fac3382611b18565b600760009054906101000a900473ffffffffffffffffffffffffffffffffffffffff1673ffffffffffffffffffffffffffffffffffffffff1663a9059cbb600b60009054906101000a900473ffffffffffffffffffffffffffffffffffffffff16836040518363ffffffff1660e01b815260040161102b92919061249a565b6020604051808303816000875af115801561104a573d6000803e3d6000fd5b505050506040513d601f19601f8201168201806040525081019061106e9190612552565b50600b60009054906101000a900473ffffffffffffffffffffffffffffffffffffffff1673ffffffffffffffffffffffffffffffffffffffff16630a0e5c9d33836040518363ffffffff1660e01b81526004016110cc92919061249a565b600060405180830381600087803b1580156110e657600080fd5b505af11580156110fa573d6000803e3d6000fd5b50505050505050565b600a60009054906101000a900473ffffffffffffffffffffffffffffffffffffffff1673ffffffffffffffffffffffffffffffffffffffff163373ffffffffffffffffffffffffffffffffffffffff1614611193576040517f08c379a000000000000000000000000000000000000000000000000000000000815260040161118a906127ca565b60405180910390fd5b600b60009054906101000a900473ffffffffffffffffffffffffffffffffffffffff1673ffffffffffffffffffffffffffffffffffffffff16634641257d6040518163ffffffff1660e01b8152600401600060405180830381600087803b1580156111fd57600080fd5b505af1158015611211573d6000803e3d6000fd5b50505050565b600960009054906101000a900473ffffffffffffffffffffffffffffffffffffffff1673ffffffffffffffffffffffffffffffffffffffff163373ffffffffffffffffffffffffffffffffffffffff16146112a7576040517f08c379a000000000000000000000000000000000000000000000000000000000815260040161129e90612836565b60405180910390fd5b80600b60006101000a81548173ffffffffffffffffffffffffffffffffffffffff021916908373ffffffffffffffffffffffffffffffffffffffff16021790555050565b6000600160008473ffffffffffffffffffffffffffffffffffffffff1673ffffffffffffffffffffffffffffffffffffffff16815260200190815260200160002060008373ffffffffffffffffffffffffffffffffffffffff1673ffffffffffffffffffffffffffffffffffffffff16815260200190815260200160002054905092915050565b60085481565b600960009054906101000a900473ffffffffffffffffffffffffffffffffffffffff1673ffffffffffffffffffffffffffffffffffffffff163373ffffffffffffffffffffffffffffffffffffffff1614611408576040517f08c379a00000000000000000000000000000000000000000000000000000000081526004016113ff9061247a565b60405180910390fd5b600760009054906101000a900473ffffffffffffffffffffffffffffffffffffffff1673ffffffffffffffffffffffffffffffffffffffff166323b872dd3330846040518463ffffffff1660e01b81526004016114679392919061257f565b6020604051808303816000875af1158015611486573d6000803e3d6000fd5b505050506040513d601f19601f820116820180604052508101906114aa9190612552565b5080600560008282546114bd91906125b6565b9250508190555050565b600a60009054906101000a900473ffffffffffffffffffffffffffffffffffffffff1681565b600033905090565b600073ffffffffffffffffffffffffffffffffffffffff168373ffffffffffffffffffffffffffffffffffffffff161415611565576040517f08c379a000000000000000000000000000000000000000000000000000000000815260040161155c906128c8565b60405180910390fd5b600073ffffffffffffffffffffffffffffffffffffffff168273ffffffffffffffffffffffffffffffffffffffff1614156115d5576040517f08c379a00000000000000000000000000000000000000000000000000000000081526004016115cc9061295a565b60405180910390fd5b80600160008573ffffffffffffffffffffffffffffffffffffffff1673ffffffffffffffffffffffffffffffffffffffff16815260200190815260200160002060008473ffffffffffffffffffffffffffffffffffffffff1673ffffffffffffffffffffffffffffffffffffffff168152602001908152602001600020819055508173ffffffffffffffffffffffffffffffffffffffff168373ffffffffffffffffffffffffffffffffffffffff167f8c5be1e5ebec7d5bd14f71427d1e84f3dd0314c0f7b2291e5b200ac8c7c3b925836040516116b3919061204b565b60405180910390a3505050565b600073ffffffffffffffffffffffffffffffffffffffff168373ffffffffffffffffffffffffffffffffffffffff161415611730576040517f08c379a0000000000000000000000000000000000000000000000000000000008152600401611727906129ec565b60405180910390fd5b600073ffffffffffffffffffffffffffffffffffffffff168273ffffffffffffffffffffffffffffffffffffffff1614156117a0576040517f08c379a000000000000000000000000000000000000000000000000000000000815260040161179790612a7e565b60405180910390fd5b6117ab838383611ce3565b60008060008573ffffffffffffffffffffffffffffffffffffffff1673ffffffffffffffffffffffffffffffffffffffff16815260200190815260200160002054905081811015611831576040517f08c379a000000000000000000000000000000000000000000000000000000000815260040161182890612b10565b60405180910390fd5b8181036000808673ffffffffffffffffffffffffffffffffffffffff1673ffffffffffffffffffffffffffffffffffffffff16815260200190815260200160002081905550816000808573ffffffffffffffffffffffffffffffffffffffff1673ffffffffffffffffffffffffffffffffffffffff16815260200190815260200160002060008282546118c491906125b6565b925050819055508273ffffffffffffffffffffffffffffffffffffffff168473ffffffffffffffffffffffffffffffffffffffff167fddf252ad1be2c89b69c2b068fc378daa952ba7f163c4a11628f55a4df523b3ef84604051611928919061204b565b60405180910390a361193b848484611ce8565b50505050565b600073ffffffffffffffffffffffffffffffffffffffff168273ffffffffffffffffffffffffffffffffffffffff1614156119b1576040517f08c379a00000000000000000000000000000000000000000000000000000000081526004016119a890612ba2565b60405180910390fd5b6119bd82600083611ce3565b60008060008473ffffffffffffffffffffffffffffffffffffffff1673ffffffffffffffffffffffffffffffffffffffff16815260200190815260200160002054905081811015611a43576040517f08c379a0000000000000000000000000000000000000000000000000000000008152600401611a3a90612c34565b60405180910390fd5b8181036000808573ffffffffffffffffffffffffffffffffffffffff1673ffffffffffffffffffffffffffffffffffffffff168152602001908152602001600020819055508160026000828254611a9a91906124f2565b92505081905550600073ffffffffffffffffffffffffffffffffffffffff168373ffffffffffffffffffffffffffffffffffffffff167fddf252ad1be2c89b69c2b068fc378daa952ba7f163c4a11628f55a4df523b3ef84604051611aff919061204b565b60405180910390a3611b1383600084611ce8565b505050565b600073ffffffffffffffffffffffffffffffffffffffff168273ffffffffffffffffffffffffffffffffffffffff161415611b88576040517f08c379a0000000000000000000000000000000000000000000000000000000008152600401611b7f90612ca0565b60405180910390fd5b611b9460008383611ce3565b8060026000828254611ba691906125b6565b92505081905550806000808473ffffffffffffffffffffffffffffffffffffffff1673ffffffffffffffffffffffffffffffffffffffff1681526020019081526020016000206000828254611bfb91906125b6565b925050819055508173ffffffffffffffffffffffffffffffffffffffff16600073ffffffffffffffffffffffffffffffffffffffff167fddf252ad1be2c89b69c2b068fc378daa952ba7f163c4a11628f55a4df523b3ef83604051611c60919061204b565b60405180910390a3611c7460008383611ce8565b5050565b6000611c8382611ced565b90506000811115611cdf57611c988282611b18565b600554600660008473ffffffffffffffffffffffffffffffffffffffff1673ffffffffffffffffffffffffffffffffffffffff168152602001908152602001600020819055505b5050565b505050565b505050565b600080600660008473ffffffffffffffffffffffffffffffffffffffff1673ffffffffffffffffffffffffffffffffffffffff16815260200190815260200160002054600554611d3d91906124f2565b9050600760009054906101000a900473ffffffffffffffffffffffffffffffffffffffff1673ffffffffffffffffffffffffffffffffffffffff166370a08231306040518263ffffffff1660e01b8152600401611d9a91906121d3565b602060405180830381865afa158015611db7573d6000803e3d6000fd5b505050506040513d601f19601f82011682018060405250810190611ddb9190612401565b81611de69190612727565b3073ffffffffffffffffffffffffffffffffffffffff166370a08231336040518263ffffffff1660e01b8152600401611e1f91906121d3565b602060405180830381865afa158015611e3c573d6000803e3d6000fd5b505050506040513d601f19601f82011682018060405250810190611e609190612401565b611e6a919061269e565b915050919050565b600081519050919050565b600082825260208201905092915050565b60005b83811015611eac578082015181840152602081019050611e91565b83811115611ebb576000848401525b50505050565b6000601f19601f8301169050919050565b6000611edd82611e72565b611ee78185611e7d565b9350611ef7818560208601611e8e565b611f0081611ec1565b840191505092915050565b60006020820190508181036000830152611f258184611ed2565b905092915050565b600080fd5b600073ffffffffffffffffffffffffffffffffffffffff82169050919050565b6000611f5d82611f32565b9050919050565b611f6d81611f52565b8114611f7857600080fd5b50565b600081359050611f8a81611f64565b92915050565b6000819050919050565b611fa381611f90565b8114611fae57600080fd5b50565b600081359050611fc081611f9a565b92915050565b60008060408385031215611fdd57611fdc611f2d565b5b6000611feb85828601611f7b565b9250506020611ffc85828601611fb1565b9150509250929050565b60008115159050919050565b61201b81612006565b82525050565b60006020820190506120366000830184612012565b92915050565b61204581611f90565b82525050565b6000602082019050612060600083018461203c565b92915050565b60008060006060848603121561207f5761207e611f2d565b5b600061208d86828701611f7b565b935050602061209e86828701611f7b565b92505060406120af86828701611fb1565b9150509250925092565b6000602082840312156120cf576120ce611f2d565b5b60006120dd84828501611fb1565b91505092915050565b600060ff82169050919050565b6120fc816120e6565b82525050565b600060208201905061211760008301846120f3565b92915050565b6000819050919050565b600061214261213d61213884611f32565b61211d565b611f32565b9050919050565b600061215482612127565b9050919050565b600061216682612149565b9050919050565b6121768161215b565b82525050565b6000602082019050612191600083018461216d565b92915050565b6000602082840312156121ad576121ac611f2d565b5b60006121bb84828501611f7b565b91505092915050565b6121cd81611f52565b82525050565b60006020820190506121e860008301846121c4565b92915050565b60006121f982612127565b9050919050565b600061220b826121ee565b9050919050565b61221b81612200565b82525050565b60006020820190506122366000830184612212565b92915050565b600061224782611f32565b9050919050565b60006122598261223c565b9050919050565b6122698161224e565b811461227457600080fd5b50565b60008135905061228681612260565b92915050565b6000602082840312156122a2576122a1611f2d565b5b60006122b084828501612277565b91505092915050565b600080604083850312156122d0576122cf611f2d565b5b60006122de85828601611f7b565b92505060206122ef85828601611f7b565b9150509250929050565b7f4e487b7100000000000000000000000000000000000000000000000000000000600052602260045260246000fd5b6000600282049050600182168061234057607f821691505b60208210811415612354576123536122f9565b5b50919050565b7f45524332303a207472616e7366657220616d6f756e742065786365656473206160008201527f6c6c6f77616e6365000000000000000000000000000000000000000000000000602082015250565b60006123b6602883611e7d565b91506123c18261235a565b604082019050919050565b600060208201905081810360008301526123e5816123a9565b9050919050565b6000815190506123fb81611f9a565b92915050565b60006020828403121561241757612416611f2d565b5b6000612425848285016123ec565b91505092915050565b7f6e6f000000000000000000000000000000000000000000000000000000000000600082015250565b6000612464600283611e7d565b915061246f8261242e565b602082019050919050565b6000602082019050818103600083015261249381612457565b9050919050565b60006040820190506124af60008301856121c4565b6124bc602083018461203c565b9392505050565b7f4e487b7100000000000000000000000000000000000000000000000000000000600052601160045260246000fd5b60006124fd82611f90565b915061250883611f90565b92508282101561251b5761251a6124c3565b5b828203905092915050565b61252f81612006565b811461253a57600080fd5b50565b60008151905061254c81612526565b92915050565b60006020828403121561256857612567611f2d565b5b60006125768482850161253d565b91505092915050565b600060608201905061259460008301866121c4565b6125a160208301856121c4565b6125ae604083018461203c565b949350505050565b60006125c182611f90565b91506125cc83611f90565b9250827fffffffffffffffffffffffffffffffffffffffffffffffffffffffffffffffff03821115612601576126006124c3565b5b828201905092915050565b7f45524332303a2064656372656173656420616c6c6f77616e63652062656c6f7760008201527f207a65726f000000000000000000000000000000000000000000000000000000602082015250565b6000612668602583611e7d565b91506126738261260c565b604082019050919050565b600060208201905081810360008301526126978161265b565b9050919050565b60006126a982611f90565b91506126b483611f90565b9250817fffffffffffffffffffffffffffffffffffffffffffffffffffffffffffffffff04831182151516156126ed576126ec6124c3565b5b828202905092915050565b7f4e487b7100000000000000000000000000000000000000000000000000000000600052601260045260246000fd5b600061273282611f90565b915061273d83611f90565b92508261274d5761274c6126f8565b5b828204905092915050565b7f6f6e6c7920746865206175746f68617276657374657220636f6e74726163742060008201527f63616e2063616c6c207468697300000000000000000000000000000000000000602082015250565b60006127b4602d83611e7d565b91506127bf82612758565b604082019050919050565b600060208201905081810360008301526127e3816127a7565b9050919050565b7f2161646d696e0000000000000000000000000000000000000000000000000000600082015250565b6000612820600683611e7d565b915061282b826127ea565b602082019050919050565b6000602082019050818103600083015261284f81612813565b9050919050565b7f45524332303a20617070726f76652066726f6d20746865207a65726f2061646460008201527f7265737300000000000000000000000000000000000000000000000000000000602082015250565b60006128b2602483611e7d565b91506128bd82612856565b604082019050919050565b600060208201905081810360008301526128e1816128a5565b9050919050565b7f45524332303a20617070726f766520746f20746865207a65726f20616464726560008201527f7373000000000000000000000000000000000000000000000000000000000000602082015250565b6000612944602283611e7d565b915061294f826128e8565b604082019050919050565b6000602082019050818103600083015261297381612937565b9050919050565b7f45524332303a207472616e736665722066726f6d20746865207a65726f20616460008201527f6472657373000000000000000000000000000000000000000000000000000000602082015250565b60006129d6602583611e7d565b91506129e18261297a565b604082019050919050565b60006020820190508181036000830152612a05816129c9565b9050919050565b7f45524332303a207472616e7366657220746f20746865207a65726f206164647260008201527f6573730000000000000000000000000000000000000000000000000000000000602082015250565b6000612a68602383611e7d565b9150612a7382612a0c565b604082019050919050565b60006020820190508181036000830152612a9781612a5b565b9050919050565b7f45524332303a207472616e7366657220616d6f756e742065786365656473206260008201527f616c616e63650000000000000000000000000000000000000000000000000000602082015250565b6000612afa602683611e7d565b9150612b0582612a9e565b604082019050919050565b60006020820190508181036000830152612b2981612aed565b9050919050565b7f45524332303a206275726e2066726f6d20746865207a65726f2061646472657360008201527f7300000000000000000000000000000000000000000000000000000000000000602082015250565b6000612b8c602183611e7d565b9150612b9782612b30565b604082019050919050565b60006020820190508181036000830152612bbb81612b7f565b9050919050565b7f45524332303a206275726e20616d6f756e7420657863656564732062616c616e60008201527f6365000000000000000000000000000000000000000000000000000000000000602082015250565b6000612c1e602283611e7d565b9150612c2982612bc2565b604082019050919050565b60006020820190508181036000830152612c4d81612c11565b9050919050565b7f45524332303a206d696e7420746f20746865207a65726f206164647265737300600082015250565b6000612c8a601f83611e7d565b9150612c9582612c54565b602082019050919050565b60006020820190508181036000830152612cb981612c7d565b905091905056fea26469706673582212200ca630ffb716515b7e62eb1a631bcfef95a017df4ee4ccc9b5c4057af315d1d664736f6c634300080a0033",
  "immutableReferences": {
    "1168": [
      {
        "length": 32,
        "start": 2990
      }
    ]
  },
  "source": "// SPDX-License-Identifier: MIT \npragma solidity ^0.8.10; \n\nimport \"@openzeppelin/contracts/token/ERC20/IERC20.sol\"; \nimport \"@openzeppelin/contracts/token/ERC20/ERC20.sol\"; \nimport \"./strategies/ShortFarmFTM.sol\"; \n\n//The deposit contract for Djinn Finance\ncontract DjinnBottleUSDC is ERC20 {\n\n\taddress public immutable USDC = 0x04068DA6C83AFCFA0e13ba15A6696662335D5B75;  \t \n\tuint public globalRewards; \n\tmapping(address => uint) private lastHarvest; \n\tIERC20 public usdc;\n\n\tuint private constant PROTOCOL_FEE = 100; \n\n\tuint public ass; \n\n\taddress private admin; \t\n\taddress public controller; //the contract that will be in charge of depositing gas fees into strategies and autoharvesting  \n\tShortFarmFTM public shortStrategy; \n\n\tconstructor( address _usdc, address _controller) ERC20(\"Djinn Finance USDC Vault\",\"dfUSDC\") {\n\t\tadmin = msg.sender; \n\t\tusdc = IERC20(_usdc); \n\t\tcontroller = _controller; \n\t}\n\t\n\t//set strategy address \n\tfunction initialize(ShortFarmFTM _shortStrategy) external {\n\t\trequire(msg.sender == admin, \"!admin\"); \n\t\tshortStrategy = _shortStrategy; \n\t}\n\n\tfunction balance() public returns(uint) {\n\t\treturn usdc.balanceOf(address(this)) + shortStrategy.getUnderlying(); \n\t}\n\n\tfunction testMint(uint shares) public {\n\t\tusdc.transferFrom(msg.sender, address(this), shares);\n\t\t_mint(msg.sender, shares); \n\t}\n\t\n\tfunction deposit(uint amount) public {\n\t\tusdc.transferFrom(msg.sender, address(this), amount); \t\t\n\n\t\tuint feeAmount = (amount * PROTOCOL_FEE) / 1e4;  //1% deposit fee \n\t\tuint newAmount = amount - feeAmount; \n\n\t\t//mint shares == deposit amount (maybe composability later?)  \n\t\t_mint(msg.sender, newAmount);\n\n\t\t//send to strategy contract \n\t\tusdc.transfer(address(shortStrategy), newAmount); \n\t\tshortStrategy.open(msg.sender, newAmount);  \n\t}\n\t\n\t//we get msg.sender's % of pool and then use that to convert to tokens \n\tfunction withdraw(uint amountShares) public returns(uint) {\n\t\trequire(amountShares <= IERC20(address(this)).balanceOf(msg.sender), \"no\"); \n\t\t_burn(msg.sender, amountShares); \t\n\n\t\t//then we pass this to the strategy contract to withdraw the correct % of LP tokens\n\t\tuint beforeBal = usdc.balanceOf(address(this)); \n\t\tshortStrategy.close(msg.sender, amountShares); \n\t\tuint afterBal = usdc.balanceOf(address(this));\n\t\t//send back user their usdc \n\t\tuint amountToWithdraw = afterBal - beforeBal; \n\t\tusdc.transfer(msg.sender, amountToWithdraw); \n\t}\t\n\n\tfunction callHarvest() external {\n\t\trequire(msg.sender == controller, \"only the autoharvester contract can call this\"); \n\t\tshortStrategy.harvest(); \n\t}\n\n\tfunction claim() external {\n\t\tcheckHarvest(msg.sender); \n\t}\n\t\n\t//get percentage of profits by balance of this erc20 token in wallet \n\tfunction harvest(address user) internal view returns(uint) {\n\t\tuint percentageReward = globalRewards - lastHarvest[user]; \n\t\t\n\t\treturn IERC20(address(this)).balanceOf(msg.sender) * (percentageReward / usdc.balanceOf(address(this))); \n\t}\n\n\tfunction checkHarvest(address user) internal {\n\t\tuint owed = harvest(user); \n\t\tif (owed > 0) { \n\t\t\t_mint(user, owed); \n\t\t\tlastHarvest[user] = globalRewards; \n\t\t}\n\t}\n\t\n\t//deposits from strategies using this function  \n\tfunction depositProfits(uint amount) external {\n\t\trequire(msg.sender == admin, \"no\"); \n\t\tusdc.transferFrom(msg.sender, address(this), amount); \n\t\n\t\tglobalRewards += amount; \n\t}\n}\n\n\n",
  "sourcePath": "/home/kevin/Code/solidity_projects/djinn/contracts/DjinnBottleUSDC.sol",
  "compiler": {
    "name": "solc",
    "version": "0.8.10+commit.fc410830.Emscripten.clang"
  },
  "schemaVersion": "3.4.3",
  "updatedAt": "2022-02-10T00:23:35.458Z",
  "networkType": "ethereum",
  "devdoc": {
    "kind": "dev",
    "methods": {
      "allowance(address,address)": {
        "details": "See {IERC20-allowance}."
      },
      "approve(address,uint256)": {
        "details": "See {IERC20-approve}. Requirements: - `spender` cannot be the zero address."
      },
      "balanceOf(address)": {
        "details": "See {IERC20-balanceOf}."
      },
      "decimals()": {
        "details": "Returns the number of decimals used to get its user representation. For example, if `decimals` equals `2`, a balance of `505` tokens should be displayed to a user as `5.05` (`505 / 10 ** 2`). Tokens usually opt for a value of 18, imitating the relationship between Ether and Wei. This is the value {ERC20} uses, unless this function is overridden; NOTE: This information is only used for _display_ purposes: it in no way affects any of the arithmetic of the contract, including {IERC20-balanceOf} and {IERC20-transfer}."
      },
      "decreaseAllowance(address,uint256)": {
        "details": "Atomically decreases the allowance granted to `spender` by the caller. This is an alternative to {approve} that can be used as a mitigation for problems described in {IERC20-approve}. Emits an {Approval} event indicating the updated allowance. Requirements: - `spender` cannot be the zero address. - `spender` must have allowance for the caller of at least `subtractedValue`."
      },
      "increaseAllowance(address,uint256)": {
        "details": "Atomically increases the allowance granted to `spender` by the caller. This is an alternative to {approve} that can be used as a mitigation for problems described in {IERC20-approve}. Emits an {Approval} event indicating the updated allowance. Requirements: - `spender` cannot be the zero address."
      },
      "name()": {
        "details": "Returns the name of the token."
      },
      "symbol()": {
        "details": "Returns the symbol of the token, usually a shorter version of the name."
      },
      "totalSupply()": {
        "details": "See {IERC20-totalSupply}."
      },
      "transfer(address,uint256)": {
        "details": "See {IERC20-transfer}. Requirements: - `recipient` cannot be the zero address. - the caller must have a balance of at least `amount`."
      },
      "transferFrom(address,address,uint256)": {
        "details": "See {IERC20-transferFrom}. Emits an {Approval} event indicating the updated allowance. This is not required by the EIP. See the note at the beginning of {ERC20}. Requirements: - `sender` and `recipient` cannot be the zero address. - `sender` must have a balance of at least `amount`. - the caller must have allowance for ``sender``'s tokens of at least `amount`."
      }
    },
    "version": 1
  },
  "userdoc": {
    "kind": "user",
    "methods": {},
    "version": 1
  }
}