{
  "contractName": "DjinnBottleUSDC",
  "abi": [
    {
      "inputs": [
        {
          "internalType": "address",
          "name": "_usdc",
          "type": "address"
        },
        {
          "internalType": "address",
          "name": "_treasury",
          "type": "address"
        }
      ],
      "stateMutability": "nonpayable",
      "type": "constructor"
    },
    {
      "anonymous": false,
      "inputs": [
        {
          "indexed": true,
          "internalType": "address",
          "name": "owner",
          "type": "address"
        },
        {
          "indexed": true,
          "internalType": "address",
          "name": "spender",
          "type": "address"
        },
        {
          "indexed": false,
          "internalType": "uint256",
          "name": "value",
          "type": "uint256"
        }
      ],
      "name": "Approval",
      "type": "event"
    },
    {
      "anonymous": false,
      "inputs": [
        {
          "indexed": true,
          "internalType": "address",
          "name": "from",
          "type": "address"
        },
        {
          "indexed": true,
          "internalType": "address",
          "name": "to",
          "type": "address"
        },
        {
          "indexed": false,
          "internalType": "uint256",
          "name": "value",
          "type": "uint256"
        }
      ],
      "name": "Transfer",
      "type": "event"
    },
    {
      "inputs": [],
      "name": "PROTOCOL_TREASURY",
      "outputs": [
        {
          "internalType": "address",
          "name": "",
          "type": "address"
        }
      ],
      "stateMutability": "view",
      "type": "function"
    },
    {
      "inputs": [
        {
          "internalType": "address",
          "name": "owner",
          "type": "address"
        },
        {
          "internalType": "address",
          "name": "spender",
          "type": "address"
        }
      ],
      "name": "allowance",
      "outputs": [
        {
          "internalType": "uint256",
          "name": "",
          "type": "uint256"
        }
      ],
      "stateMutability": "view",
      "type": "function"
    },
    {
      "inputs": [
        {
          "internalType": "address",
          "name": "spender",
          "type": "address"
        },
        {
          "internalType": "uint256",
          "name": "amount",
          "type": "uint256"
        }
      ],
      "name": "approve",
      "outputs": [
        {
          "internalType": "bool",
          "name": "",
          "type": "bool"
        }
      ],
      "stateMutability": "nonpayable",
      "type": "function"
    },
    {
      "inputs": [
        {
          "internalType": "address",
          "name": "account",
          "type": "address"
        }
      ],
      "name": "balanceOf",
      "outputs": [
        {
          "internalType": "uint256",
          "name": "",
          "type": "uint256"
        }
      ],
      "stateMutability": "view",
      "type": "function"
    },
    {
      "inputs": [],
      "name": "decimals",
      "outputs": [
        {
          "internalType": "uint8",
          "name": "",
          "type": "uint8"
        }
      ],
      "stateMutability": "view",
      "type": "function"
    },
    {
      "inputs": [
        {
          "internalType": "address",
          "name": "spender",
          "type": "address"
        },
        {
          "internalType": "uint256",
          "name": "subtractedValue",
          "type": "uint256"
        }
      ],
      "name": "decreaseAllowance",
      "outputs": [
        {
          "internalType": "bool",
          "name": "",
          "type": "bool"
        }
      ],
      "stateMutability": "nonpayable",
      "type": "function"
    },
    {
      "inputs": [
        {
          "internalType": "address",
          "name": "spender",
          "type": "address"
        },
        {
          "internalType": "uint256",
          "name": "addedValue",
          "type": "uint256"
        }
      ],
      "name": "increaseAllowance",
      "outputs": [
        {
          "internalType": "bool",
          "name": "",
          "type": "bool"
        }
      ],
      "stateMutability": "nonpayable",
      "type": "function"
    },
    {
      "inputs": [],
      "name": "name",
      "outputs": [
        {
          "internalType": "string",
          "name": "",
          "type": "string"
        }
      ],
      "stateMutability": "view",
      "type": "function"
    },
    {
      "inputs": [],
      "name": "shortStrategy",
      "outputs": [
        {
          "internalType": "contract ShortFarmFTM",
          "name": "",
          "type": "address"
        }
      ],
      "stateMutability": "view",
      "type": "function"
    },
    {
      "inputs": [],
      "name": "symbol",
      "outputs": [
        {
          "internalType": "string",
          "name": "",
          "type": "string"
        }
      ],
      "stateMutability": "view",
      "type": "function"
    },
    {
      "inputs": [],
      "name": "totalSupply",
      "outputs": [
        {
          "internalType": "uint256",
          "name": "",
          "type": "uint256"
        }
      ],
      "stateMutability": "view",
      "type": "function"
    },
    {
      "inputs": [
        {
          "internalType": "address",
          "name": "recipient",
          "type": "address"
        },
        {
          "internalType": "uint256",
          "name": "amount",
          "type": "uint256"
        }
      ],
      "name": "transfer",
      "outputs": [
        {
          "internalType": "bool",
          "name": "",
          "type": "bool"
        }
      ],
      "stateMutability": "nonpayable",
      "type": "function"
    },
    {
      "inputs": [
        {
          "internalType": "address",
          "name": "sender",
          "type": "address"
        },
        {
          "internalType": "address",
          "name": "recipient",
          "type": "address"
        },
        {
          "internalType": "uint256",
          "name": "amount",
          "type": "uint256"
        }
      ],
      "name": "transferFrom",
      "outputs": [
        {
          "internalType": "bool",
          "name": "",
          "type": "bool"
        }
      ],
      "stateMutability": "nonpayable",
      "type": "function"
    },
    {
      "inputs": [],
      "name": "usdc",
      "outputs": [
        {
          "internalType": "contract IERC20",
          "name": "",
          "type": "address"
        }
      ],
      "stateMutability": "view",
      "type": "function"
    },
    {
      "inputs": [
        {
          "internalType": "address",
          "name": "newAddress",
          "type": "address"
        }
      ],
      "name": "changeTreasuryAddress",
      "outputs": [],
      "stateMutability": "nonpayable",
      "type": "function"
    },
    {
      "inputs": [
        {
          "internalType": "address",
          "name": "newAdmin",
          "type": "address"
        }
      ],
      "name": "changeAdmin",
      "outputs": [],
      "stateMutability": "nonpayable",
      "type": "function"
    },
    {
      "inputs": [
        {
          "internalType": "contract ShortFarmFTM",
          "name": "_shortStrategy",
          "type": "address"
        }
      ],
      "name": "initialize",
      "outputs": [],
      "stateMutability": "nonpayable",
      "type": "function"
    },
    {
      "inputs": [],
      "name": "balance",
      "outputs": [
        {
          "internalType": "uint256",
          "name": "",
          "type": "uint256"
        }
      ],
      "stateMutability": "nonpayable",
      "type": "function"
    },
    {
      "inputs": [],
      "name": "getTotal",
      "outputs": [
        {
          "internalType": "uint256",
          "name": "",
          "type": "uint256"
        }
      ],
      "stateMutability": "nonpayable",
      "type": "function"
    },
    {
      "inputs": [
        {
          "internalType": "uint256",
          "name": "amount",
          "type": "uint256"
        }
      ],
      "name": "deposit",
      "outputs": [],
      "stateMutability": "nonpayable",
      "type": "function"
    },
    {
      "inputs": [
        {
          "internalType": "uint256",
          "name": "amountShares",
          "type": "uint256"
        }
      ],
      "name": "withdraw",
      "outputs": [
        {
          "internalType": "uint256",
          "name": "",
          "type": "uint256"
        }
      ],
      "stateMutability": "nonpayable",
      "type": "function"
    },
    {
      "inputs": [],
      "name": "harvest",
      "outputs": [],
      "stateMutability": "nonpayable",
      "type": "function"
    },
    {
      "inputs": [
        {
          "internalType": "address",
          "name": "user",
          "type": "address"
        },
        {
          "internalType": "uint256",
          "name": "amount",
          "type": "uint256"
        }
      ],
      "name": "storeCrTokens",
      "outputs": [],
      "stateMutability": "nonpayable",
      "type": "function"
    }
  ],
  "bytecode": "0x60806040523480156200001157600080fd5b5060405162002e9638038062002e968339818101604052810190620000379190620002bc565b6040518060400160405280601881526020017f446a696e6e2046696e616e63652055534443205661756c7400000000000000008152506040518060400160405280600681526020017f64665553444300000000000000000000000000000000000000000000000000008152508160039080519060200190620000bb929190620001a2565b508060049080519060200190620000d4929190620001a2565b50505033600760006101000a81548173ffffffffffffffffffffffffffffffffffffffff021916908373ffffffffffffffffffffffffffffffffffffffff16021790555081600560006101000a81548173ffffffffffffffffffffffffffffffffffffffff021916908373ffffffffffffffffffffffffffffffffffffffff16021790555080600660006101000a81548173ffffffffffffffffffffffffffffffffffffffff021916908373ffffffffffffffffffffffffffffffffffffffff160217905550505062000368565b828054620001b09062000332565b90600052602060002090601f016020900481019282620001d4576000855562000220565b82601f10620001ef57805160ff191683800117855562000220565b8280016001018555821562000220579182015b828111156200021f57825182559160200191906001019062000202565b5b5090506200022f919062000233565b5090565b5b808211156200024e57600081600090555060010162000234565b5090565b600080fd5b600073ffffffffffffffffffffffffffffffffffffffff82169050919050565b6000620002848262000257565b9050919050565b620002968162000277565b8114620002a257600080fd5b50565b600081519050620002b6816200028b565b92915050565b60008060408385031215620002d657620002d562000252565b5b6000620002e685828601620002a5565b9250506020620002f985828601620002a5565b9150509250929050565b7f4e487b7100000000000000000000000000000000000000000000000000000000600052602260045260246000fd5b600060028204905060018216806200034b57607f821691505b6020821081141562000362576200036162000303565b5b50919050565b612b1e80620003786000396000f3fe608060405234801561001057600080fd5b506004361061014d5760003560e01c806370a08231116100c3578063a6f353f01161007c578063a6f353f0146103a4578063a9059cbb146103c0578063b69ef8a8146103f0578063b6b55f251461040e578063c4d66de81461042a578063dd62ed3e146104465761014d565b806370a08231146102ce578063775a25e3146102fe57806389c4fa121461031c5780638f2839701461033a57806395d89b4114610356578063a457c2d7146103745761014d565b8063313ce56711610115578063313ce5671461021e578063395093511461023c5780633e413bee1461026c5780634641257d1461028a57806350b79c7b146102945780636352cf24146102b05761014d565b806306fdde0314610152578063095ea7b31461017057806318160ddd146101a057806323b872dd146101be5780632e1a7d4d146101ee575b600080fd5b61015a610476565b6040516101679190611dc5565b60405180910390f35b61018a60048036038101906101859190611e80565b610508565b6040516101979190611edb565b60405180910390f35b6101a8610526565b6040516101b59190611f05565b60405180910390f35b6101d860048036038101906101d39190611f20565b610530565b6040516101e59190611edb565b60405180910390f35b61020860048036038101906102039190611f73565b610628565b6040516102159190611f05565b60405180910390f35b6102266109a1565b6040516102339190611fbc565b60405180910390f35b61025660048036038101906102519190611e80565b6109aa565b6040516102639190611edb565b60405180910390f35b610274610a56565b6040516102819190612036565b60405180910390f35b610292610a7c565b005b6102ae60048036038101906102a99190611e80565b610b00565b005b6102b8610b9e565b6040516102c59190612060565b60405180910390f35b6102e860048036038101906102e3919061207b565b610bc4565b6040516102f59190611f05565b60405180910390f35b610306610c0c565b6040516103139190611f05565b60405180910390f35b610324610c1b565b60405161033191906120db565b60405180910390f35b610354600480360381019061034f919061207b565b610c41565b005b61035e610d15565b60405161036b9190611dc5565b60405180910390f35b61038e60048036038101906103899190611e80565b610da7565b60405161039b9190611edb565b60405180910390f35b6103be60048036038101906103b9919061207b565b610e92565b005b6103da60048036038101906103d59190611e80565b610ff3565b6040516103e79190611edb565b60405180910390f35b6103f8611011565b6040516104059190611f05565b60405180910390f35b61042860048036038101906104239190611f73565b611151565b005b610444600480360381019061043f9190612146565b61143c565b005b610460600480360381019061045b9190612173565b611510565b60405161046d9190611f05565b60405180910390f35b606060038054610485906121e2565b80601f01602080910402602001604051908101604052809291908181526020018280546104b1906121e2565b80156104fe5780601f106104d3576101008083540402835291602001916104fe565b820191906000526020600020905b8154815290600101906020018083116104e157829003601f168201915b5050505050905090565b600061051c610515611597565b848461159f565b6001905092915050565b6000600254905090565b600061053d84848461176a565b6000600160008673ffffffffffffffffffffffffffffffffffffffff1673ffffffffffffffffffffffffffffffffffffffff1681526020019081526020016000206000610588611597565b73ffffffffffffffffffffffffffffffffffffffff1673ffffffffffffffffffffffffffffffffffffffff16815260200190815260200160002054905082811015610608576040517f08c379a00000000000000000000000000000000000000000000000000000000081526004016105ff90612286565b60405180910390fd5b61061c85610614611597565b85840361159f565b60019150509392505050565b60003073ffffffffffffffffffffffffffffffffffffffff166370a08231336040518263ffffffff1660e01b81526004016106639190612060565b602060405180830381865afa158015610680573d6000803e3d6000fd5b505050506040513d601f19601f820116820180604052508101906106a491906122bb565b8211156106e6576040517f08c379a00000000000000000000000000000000000000000000000000000000081526004016106dd90612334565b60405180910390fd5b6106ee610526565b821015610700576106ff33836119eb565b5b6000600560009054906101000a900473ffffffffffffffffffffffffffffffffffffffff1673ffffffffffffffffffffffffffffffffffffffff166370a08231306040518263ffffffff1660e01b815260040161075d9190612060565b602060405180830381865afa15801561077a573d6000803e3d6000fd5b505050506040513d601f19601f8201168201806040525081019061079e91906122bb565b9050600860009054906101000a900473ffffffffffffffffffffffffffffffffffffffff1673ffffffffffffffffffffffffffffffffffffffff1663e49280cb33856040518363ffffffff1660e01b81526004016107fd929190612354565b600060405180830381600087803b15801561081757600080fd5b505af115801561082b573d6000803e3d6000fd5b505050506000600560009054906101000a900473ffffffffffffffffffffffffffffffffffffffff1673ffffffffffffffffffffffffffffffffffffffff166370a08231306040518263ffffffff1660e01b815260040161088c9190612060565b602060405180830381865afa1580156108a9573d6000803e3d6000fd5b505050506040513d601f19601f820116820180604052508101906108cd91906122bb565b9050600082826108dd91906123ac565b9050600560009054906101000a900473ffffffffffffffffffffffffffffffffffffffff1673ffffffffffffffffffffffffffffffffffffffff1663a9059cbb33836040518363ffffffff1660e01b815260040161093c929190612354565b6020604051808303816000875af115801561095b573d6000803e3d6000fd5b505050506040513d601f19601f8201168201806040525081019061097f919061240c565b50610988610526565b85106109995761099833866119eb565b5b505050919050565b60006012905090565b6000610a4c6109b7611597565b8484600160006109c5611597565b73ffffffffffffffffffffffffffffffffffffffff1673ffffffffffffffffffffffffffffffffffffffff16815260200190815260200160002060008873ffffffffffffffffffffffffffffffffffffffff1673ffffffffffffffffffffffffffffffffffffffff16815260200190815260200160002054610a479190612439565b61159f565b6001905092915050565b600560009054906101000a900473ffffffffffffffffffffffffffffffffffffffff1681565b600860009054906101000a900473ffffffffffffffffffffffffffffffffffffffff1673ffffffffffffffffffffffffffffffffffffffff16634641257d6040518163ffffffff1660e01b8152600401600060405180830381600087803b158015610ae657600080fd5b505af1158015610afa573d6000803e3d6000fd5b50505050565b600860009054906101000a900473ffffffffffffffffffffffffffffffffffffffff1673ffffffffffffffffffffffffffffffffffffffff163373ffffffffffffffffffffffffffffffffffffffff1614610b90576040517f08c379a0000000000000000000000000000000000000000000000000000000008152600401610b8790612334565b60405180910390fd5b610b9a8282611bc2565b5050565b600660009054906101000a900473ffffffffffffffffffffffffffffffffffffffff1681565b60008060008373ffffffffffffffffffffffffffffffffffffffff1673ffffffffffffffffffffffffffffffffffffffff168152602001908152602001600020549050919050565b6000610c16610526565b905090565b600860009054906101000a900473ffffffffffffffffffffffffffffffffffffffff1681565b600760009054906101000a900473ffffffffffffffffffffffffffffffffffffffff1673ffffffffffffffffffffffffffffffffffffffff163373ffffffffffffffffffffffffffffffffffffffff1614610cd1576040517f08c379a0000000000000000000000000000000000000000000000000000000008152600401610cc8906124db565b60405180910390fd5b80600760006101000a81548173ffffffffffffffffffffffffffffffffffffffff021916908373ffffffffffffffffffffffffffffffffffffffff16021790555050565b606060048054610d24906121e2565b80601f0160208091040260200160405190810160405280929190818152602001828054610d50906121e2565b8015610d9d5780601f10610d7257610100808354040283529160200191610d9d565b820191906000526020600020905b815481529060010190602001808311610d8057829003601f168201915b5050505050905090565b60008060016000610db6611597565b73ffffffffffffffffffffffffffffffffffffffff1673ffffffffffffffffffffffffffffffffffffffff16815260200190815260200160002060008573ffffffffffffffffffffffffffffffffffffffff1673ffffffffffffffffffffffffffffffffffffffff16815260200190815260200160002054905082811015610e73576040517f08c379a0000000000000000000000000000000000000000000000000000000008152600401610e6a9061256d565b60405180910390fd5b610e87610e7e611597565b8585840361159f565b600191505092915050565b600760009054906101000a900473ffffffffffffffffffffffffffffffffffffffff1673ffffffffffffffffffffffffffffffffffffffff163373ffffffffffffffffffffffffffffffffffffffff1614610f22576040517f08c379a0000000000000000000000000000000000000000000000000000000008152600401610f19906124db565b60405180910390fd5b80600660006101000a81548173ffffffffffffffffffffffffffffffffffffffff021916908373ffffffffffffffffffffffffffffffffffffffff160217905550600860009054906101000a900473ffffffffffffffffffffffffffffffffffffffff1673ffffffffffffffffffffffffffffffffffffffff1663f0f44260826040518263ffffffff1660e01b8152600401610fbe9190612060565b600060405180830381600087803b158015610fd857600080fd5b505af1158015610fec573d6000803e3d6000fd5b5050505050565b6000611007611000611597565b848461176a565b6001905092915050565b6000600860009054906101000a900473ffffffffffffffffffffffffffffffffffffffff1673ffffffffffffffffffffffffffffffffffffffff16639816f4736040518163ffffffff1660e01b81526004016020604051808303816000875af1158015611082573d6000803e3d6000fd5b505050506040513d601f19601f820116820180604052508101906110a691906122bb565b600560009054906101000a900473ffffffffffffffffffffffffffffffffffffffff1673ffffffffffffffffffffffffffffffffffffffff166370a08231306040518263ffffffff1660e01b81526004016111019190612060565b602060405180830381865afa15801561111e573d6000803e3d6000fd5b505050506040513d601f19601f8201168201806040525081019061114291906122bb565b61114c9190612439565b905090565b600560009054906101000a900473ffffffffffffffffffffffffffffffffffffffff1673ffffffffffffffffffffffffffffffffffffffff166323b872dd3330846040518463ffffffff1660e01b81526004016111b09392919061258d565b6020604051808303816000875af11580156111cf573d6000803e3d6000fd5b505050506040513d601f19601f820116820180604052508101906111f3919061240c565b50600061271060648361120691906125c4565b611210919061264d565b90506000818361122091906123ac565b9050600560009054906101000a900473ffffffffffffffffffffffffffffffffffffffff1673ffffffffffffffffffffffffffffffffffffffff1663a9059cbb600860009054906101000a900473ffffffffffffffffffffffffffffffffffffffff16836040518363ffffffff1660e01b81526004016112a1929190612354565b6020604051808303816000875af11580156112c0573d6000803e3d6000fd5b505050506040513d601f19601f820116820180604052508101906112e4919061240c565b50600860009054906101000a900473ffffffffffffffffffffffffffffffffffffffff1673ffffffffffffffffffffffffffffffffffffffff16630a0e5c9d33836040518363ffffffff1660e01b8152600401611342929190612354565b600060405180830381600087803b15801561135c57600080fd5b505af1158015611370573d6000803e3d6000fd5b50505050600560009054906101000a900473ffffffffffffffffffffffffffffffffffffffff1673ffffffffffffffffffffffffffffffffffffffff1663a9059cbb600660009054906101000a900473ffffffffffffffffffffffffffffffffffffffff16846040518363ffffffff1660e01b81526004016113f3929190612354565b6020604051808303816000875af1158015611412573d6000803e3d6000fd5b505050506040513d601f19601f82011682018060405250810190611436919061240c565b50505050565b600760009054906101000a900473ffffffffffffffffffffffffffffffffffffffff1673ffffffffffffffffffffffffffffffffffffffff163373ffffffffffffffffffffffffffffffffffffffff16146114cc576040517f08c379a00000000000000000000000000000000000000000000000000000000081526004016114c3906124db565b60405180910390fd5b80600860006101000a81548173ffffffffffffffffffffffffffffffffffffffff021916908373ffffffffffffffffffffffffffffffffffffffff16021790555050565b6000600160008473ffffffffffffffffffffffffffffffffffffffff1673ffffffffffffffffffffffffffffffffffffffff16815260200190815260200160002060008373ffffffffffffffffffffffffffffffffffffffff1673ffffffffffffffffffffffffffffffffffffffff16815260200190815260200160002054905092915050565b600033905090565b600073ffffffffffffffffffffffffffffffffffffffff168373ffffffffffffffffffffffffffffffffffffffff16141561160f576040517f08c379a0000000000000000000000000000000000000000000000000000000008152600401611606906126f0565b60405180910390fd5b600073ffffffffffffffffffffffffffffffffffffffff168273ffffffffffffffffffffffffffffffffffffffff16141561167f576040517f08c379a000000000000000000000000000000000000000000000000000000000815260040161167690612782565b60405180910390fd5b80600160008573ffffffffffffffffffffffffffffffffffffffff1673ffffffffffffffffffffffffffffffffffffffff16815260200190815260200160002060008473ffffffffffffffffffffffffffffffffffffffff1673ffffffffffffffffffffffffffffffffffffffff168152602001908152602001600020819055508173ffffffffffffffffffffffffffffffffffffffff168373ffffffffffffffffffffffffffffffffffffffff167f8c5be1e5ebec7d5bd14f71427d1e84f3dd0314c0f7b2291e5b200ac8c7c3b9258360405161175d9190611f05565b60405180910390a3505050565b600073ffffffffffffffffffffffffffffffffffffffff168373ffffffffffffffffffffffffffffffffffffffff1614156117da576040517f08c379a00000000000000000000000000000000000000000000000000000000081526004016117d190612814565b60405180910390fd5b600073ffffffffffffffffffffffffffffffffffffffff168273ffffffffffffffffffffffffffffffffffffffff16141561184a576040517f08c379a0000000000000000000000000000000000000000000000000000000008152600401611841906128a6565b60405180910390fd5b611855838383611d22565b60008060008573ffffffffffffffffffffffffffffffffffffffff1673ffffffffffffffffffffffffffffffffffffffff168152602001908152602001600020549050818110156118db576040517f08c379a00000000000000000000000000000000000000000000000000000000081526004016118d290612938565b60405180910390fd5b8181036000808673ffffffffffffffffffffffffffffffffffffffff1673ffffffffffffffffffffffffffffffffffffffff16815260200190815260200160002081905550816000808573ffffffffffffffffffffffffffffffffffffffff1673ffffffffffffffffffffffffffffffffffffffff168152602001908152602001600020600082825461196e9190612439565b925050819055508273ffffffffffffffffffffffffffffffffffffffff168473ffffffffffffffffffffffffffffffffffffffff167fddf252ad1be2c89b69c2b068fc378daa952ba7f163c4a11628f55a4df523b3ef846040516119d29190611f05565b60405180910390a36119e5848484611d27565b50505050565b600073ffffffffffffffffffffffffffffffffffffffff168273ffffffffffffffffffffffffffffffffffffffff161415611a5b576040517f08c379a0000000000000000000000000000000000000000000000000000000008152600401611a52906129ca565b60405180910390fd5b611a6782600083611d22565b60008060008473ffffffffffffffffffffffffffffffffffffffff1673ffffffffffffffffffffffffffffffffffffffff16815260200190815260200160002054905081811015611aed576040517f08c379a0000000000000000000000000000000000000000000000000000000008152600401611ae490612a5c565b60405180910390fd5b8181036000808573ffffffffffffffffffffffffffffffffffffffff1673ffffffffffffffffffffffffffffffffffffffff168152602001908152602001600020819055508160026000828254611b4491906123ac565b92505081905550600073ffffffffffffffffffffffffffffffffffffffff168373ffffffffffffffffffffffffffffffffffffffff167fddf252ad1be2c89b69c2b068fc378daa952ba7f163c4a11628f55a4df523b3ef84604051611ba99190611f05565b60405180910390a3611bbd83600084611d27565b505050565b600073ffffffffffffffffffffffffffffffffffffffff168273ffffffffffffffffffffffffffffffffffffffff161415611c32576040517f08c379a0000000000000000000000000000000000000000000000000000000008152600401611c2990612ac8565b60405180910390fd5b611c3e60008383611d22565b8060026000828254611c509190612439565b92505081905550806000808473ffffffffffffffffffffffffffffffffffffffff1673ffffffffffffffffffffffffffffffffffffffff1681526020019081526020016000206000828254611ca59190612439565b925050819055508173ffffffffffffffffffffffffffffffffffffffff16600073ffffffffffffffffffffffffffffffffffffffff167fddf252ad1be2c89b69c2b068fc378daa952ba7f163c4a11628f55a4df523b3ef83604051611d0a9190611f05565b60405180910390a3611d1e60008383611d27565b5050565b505050565b505050565b600081519050919050565b600082825260208201905092915050565b60005b83811015611d66578082015181840152602081019050611d4b565b83811115611d75576000848401525b50505050565b6000601f19601f8301169050919050565b6000611d9782611d2c565b611da18185611d37565b9350611db1818560208601611d48565b611dba81611d7b565b840191505092915050565b60006020820190508181036000830152611ddf8184611d8c565b905092915050565b600080fd5b600073ffffffffffffffffffffffffffffffffffffffff82169050919050565b6000611e1782611dec565b9050919050565b611e2781611e0c565b8114611e3257600080fd5b50565b600081359050611e4481611e1e565b92915050565b6000819050919050565b611e5d81611e4a565b8114611e6857600080fd5b50565b600081359050611e7a81611e54565b92915050565b60008060408385031215611e9757611e96611de7565b5b6000611ea585828601611e35565b9250506020611eb685828601611e6b565b9150509250929050565b60008115159050919050565b611ed581611ec0565b82525050565b6000602082019050611ef06000830184611ecc565b92915050565b611eff81611e4a565b82525050565b6000602082019050611f1a6000830184611ef6565b92915050565b600080600060608486031215611f3957611f38611de7565b5b6000611f4786828701611e35565b9350506020611f5886828701611e35565b9250506040611f6986828701611e6b565b9150509250925092565b600060208284031215611f8957611f88611de7565b5b6000611f9784828501611e6b565b91505092915050565b600060ff82169050919050565b611fb681611fa0565b82525050565b6000602082019050611fd16000830184611fad565b92915050565b6000819050919050565b6000611ffc611ff7611ff284611dec565b611fd7565b611dec565b9050919050565b600061200e82611fe1565b9050919050565b600061202082612003565b9050919050565b61203081612015565b82525050565b600060208201905061204b6000830184612027565b92915050565b61205a81611e0c565b82525050565b60006020820190506120756000830184612051565b92915050565b60006020828403121561209157612090611de7565b5b600061209f84828501611e35565b91505092915050565b60006120b382611fe1565b9050919050565b60006120c5826120a8565b9050919050565b6120d5816120ba565b82525050565b60006020820190506120f060008301846120cc565b92915050565b600061210182611dec565b9050919050565b6000612113826120f6565b9050919050565b61212381612108565b811461212e57600080fd5b50565b6000813590506121408161211a565b92915050565b60006020828403121561215c5761215b611de7565b5b600061216a84828501612131565b91505092915050565b6000806040838503121561218a57612189611de7565b5b600061219885828601611e35565b92505060206121a985828601611e35565b9150509250929050565b7f4e487b7100000000000000000000000000000000000000000000000000000000600052602260045260246000fd5b600060028204905060018216806121fa57607f821691505b6020821081141561220e5761220d6121b3565b5b50919050565b7f45524332303a207472616e7366657220616d6f756e742065786365656473206160008201527f6c6c6f77616e6365000000000000000000000000000000000000000000000000602082015250565b6000612270602883611d37565b915061227b82612214565b604082019050919050565b6000602082019050818103600083015261229f81612263565b9050919050565b6000815190506122b581611e54565b92915050565b6000602082840312156122d1576122d0611de7565b5b60006122df848285016122a6565b91505092915050565b7f6e6f000000000000000000000000000000000000000000000000000000000000600082015250565b600061231e600283611d37565b9150612329826122e8565b602082019050919050565b6000602082019050818103600083015261234d81612311565b9050919050565b60006040820190506123696000830185612051565b6123766020830184611ef6565b9392505050565b7f4e487b7100000000000000000000000000000000000000000000000000000000600052601160045260246000fd5b60006123b782611e4a565b91506123c283611e4a565b9250828210156123d5576123d461237d565b5b828203905092915050565b6123e981611ec0565b81146123f457600080fd5b50565b600081519050612406816123e0565b92915050565b60006020828403121561242257612421611de7565b5b6000612430848285016123f7565b91505092915050565b600061244482611e4a565b915061244f83611e4a565b9250827fffffffffffffffffffffffffffffffffffffffffffffffffffffffffffffffff038211156124845761248361237d565b5b828201905092915050565b7f2161646d696e0000000000000000000000000000000000000000000000000000600082015250565b60006124c5600683611d37565b91506124d08261248f565b602082019050919050565b600060208201905081810360008301526124f4816124b8565b9050919050565b7f45524332303a2064656372656173656420616c6c6f77616e63652062656c6f7760008201527f207a65726f000000000000000000000000000000000000000000000000000000602082015250565b6000612557602583611d37565b9150612562826124fb565b604082019050919050565b600060208201905081810360008301526125868161254a565b9050919050565b60006060820190506125a26000830186612051565b6125af6020830185612051565b6125bc6040830184611ef6565b949350505050565b60006125cf82611e4a565b91506125da83611e4a565b9250817fffffffffffffffffffffffffffffffffffffffffffffffffffffffffffffffff04831182151516156126135761261261237d565b5b828202905092915050565b7f4e487b7100000000000000000000000000000000000000000000000000000000600052601260045260246000fd5b600061265882611e4a565b915061266383611e4a565b9250826126735761267261261e565b5b828204905092915050565b7f45524332303a20617070726f76652066726f6d20746865207a65726f2061646460008201527f7265737300000000000000000000000000000000000000000000000000000000602082015250565b60006126da602483611d37565b91506126e58261267e565b604082019050919050565b60006020820190508181036000830152612709816126cd565b9050919050565b7f45524332303a20617070726f766520746f20746865207a65726f20616464726560008201527f7373000000000000000000000000000000000000000000000000000000000000602082015250565b600061276c602283611d37565b915061277782612710565b604082019050919050565b6000602082019050818103600083015261279b8161275f565b9050919050565b7f45524332303a207472616e736665722066726f6d20746865207a65726f20616460008201527f6472657373000000000000000000000000000000000000000000000000000000602082015250565b60006127fe602583611d37565b9150612809826127a2565b604082019050919050565b6000602082019050818103600083015261282d816127f1565b9050919050565b7f45524332303a207472616e7366657220746f20746865207a65726f206164647260008201527f6573730000000000000000000000000000000000000000000000000000000000602082015250565b6000612890602383611d37565b915061289b82612834565b604082019050919050565b600060208201905081810360008301526128bf81612883565b9050919050565b7f45524332303a207472616e7366657220616d6f756e742065786365656473206260008201527f616c616e63650000000000000000000000000000000000000000000000000000602082015250565b6000612922602683611d37565b915061292d826128c6565b604082019050919050565b6000602082019050818103600083015261295181612915565b9050919050565b7f45524332303a206275726e2066726f6d20746865207a65726f2061646472657360008201527f7300000000000000000000000000000000000000000000000000000000000000602082015250565b60006129b4602183611d37565b91506129bf82612958565b604082019050919050565b600060208201905081810360008301526129e3816129a7565b9050919050565b7f45524332303a206275726e20616d6f756e7420657863656564732062616c616e60008201527f6365000000000000000000000000000000000000000000000000000000000000602082015250565b6000612a46602283611d37565b9150612a51826129ea565b604082019050919050565b60006020820190508181036000830152612a7581612a39565b9050919050565b7f45524332303a206d696e7420746f20746865207a65726f206164647265737300600082015250565b6000612ab2601f83611d37565b9150612abd82612a7c565b602082019050919050565b60006020820190508181036000830152612ae181612aa5565b905091905056fea2646970667358221220ae4784c6b293bc30148af64eebf083cf8eb3a4e0df5fe900083392f58ae6650664736f6c634300080a0033",
  "immutableReferences": {},
  "source": "// SPDX-License-Identifier: MIT \npragma solidity ^0.8.10; \n\nimport \"@openzeppelin/contracts/token/ERC20/IERC20.sol\"; \nimport \"@openzeppelin/contracts/token/ERC20/ERC20.sol\"; \nimport \"./strategies/ShortFarmFTM.sol\"; \n\n//The deposit contract for Djinn Finance\ncontract DjinnBottleUSDC is ERC20 {\n\n//\taddress public immutable USDC = 0x04068DA6C83AFCFA0e13ba15A6696662335D5B75;  \t \n\tIERC20 public usdc;\n\t\n//\tmapping(address => uint) public crShares; \n\n\tuint private constant PROTOCOL_FEE = 100; \n\taddress public PROTOCOL_TREASURY; //the protocol collects 1% USDC deposits and 1% yield bearing assets\n\n\taddress private admin; //deployer address used to perform basic admin features\n\tShortFarmFTM public shortStrategy; \n\n\tconstructor( address _usdc, address _treasury) ERC20(\"Djinn Finance USDC Vault\",\"dfUSDC\") {\n\t\tadmin = msg.sender; \n\t\tusdc = IERC20(_usdc); \n\t\tPROTOCOL_TREASURY = _treasury; \n\t}\n\n\tfunction changeTreasuryAddress(address newAddress) external {\n\t\trequire(msg.sender == admin, \"!admin\"); \n\t\tPROTOCOL_TREASURY = newAddress; \t\n\t\tshortStrategy.setTreasury(newAddress); \n\t}\n\n\tfunction changeAdmin(address newAdmin) external {\n\t\trequire(msg.sender == admin, \"!admin\"); \n\t\tadmin = newAdmin; \n\t}\n\t\n\t//set strategy address \n\tfunction initialize(ShortFarmFTM _shortStrategy) external {\n\t\trequire(msg.sender == admin, \"!admin\"); \n\t\tshortStrategy = _shortStrategy; \n\t}\n\n\tfunction balance() public returns(uint) {\n\t\treturn usdc.balanceOf(address(this)) + shortStrategy.getUnderlying(); \n\t}\n\n\tfunction getTotal() public returns(uint) {\n\t\treturn totalSupply(); \n\t}\n\t\n\tfunction deposit(uint amount) public {\n\t\tusdc.transferFrom(msg.sender, address(this), amount); \t\t\n\n\t\tuint feeAmount = (amount * PROTOCOL_FEE) / 1e4;  //1% deposit fee \n\t\tuint newAmount = amount - feeAmount;\n\n\t\t//send to strategy contract \n\t\tusdc.transfer(address(shortStrategy), newAmount); \n\t\tshortStrategy.open(msg.sender, newAmount);  \n\n\t\t//send fee to treasury address \n\t\tusdc.transfer(PROTOCOL_TREASURY, feeAmount); \n\t}\n\t\n\t//we get msg.sender's % of pool and then use that to convert to tokens \n\tfunction withdraw(uint amountShares) public returns(uint) {\n\t\trequire(amountShares <= IERC20(address(this)).balanceOf(msg.sender), \"no\"); \n\t\t//so we do not divide by zero \n\t\tif (amountShares < totalSupply()) {\n\t\t\t_burn(msg.sender, amountShares); \n\t\t}\n\t\t//then we pass this to the strategy contract to withdraw the correct % of LP tokens\n\t\tuint beforeBal = usdc.balanceOf(address(this)); \n\t\tshortStrategy.close(msg.sender, amountShares); \n\t\tuint afterBal = usdc.balanceOf(address(this));\n\t\t//send back user their usdc \n\t\tuint amountToWithdraw = afterBal - beforeBal; \n\t\tusdc.transfer(msg.sender, amountToWithdraw); \n\n\t\t//if they are the last to withdraw\n\t\tif (amountShares >= totalSupply()) {\n\t\t\t_burn(msg.sender, amountShares); \n\t\t}\n\t}\t\n\n\tfunction harvest() external {\n\t\tshortStrategy.harvest(); \n\t}\n\n\tfunction storeCrTokens(address user, uint amount) external {\n\t\trequire(msg.sender == address(shortStrategy), \"no\"); \n\t\t_mint(user, amount); \n\t}\t\n\n\n}\n",
  "sourcePath": "/home/kevin/Code/solidity_projects/djinn/contracts/DjinnBottleUSDC.sol",
  "compiler": {
    "name": "solc",
    "version": "0.8.10+commit.fc410830.Emscripten.clang"
  },
  "schemaVersion": "3.4.3",
  "updatedAt": "2022-02-23T00:18:38.520Z",
  "devdoc": {
    "kind": "dev",
    "methods": {
      "allowance(address,address)": {
        "details": "See {IERC20-allowance}."
      },
      "approve(address,uint256)": {
        "details": "See {IERC20-approve}. Requirements: - `spender` cannot be the zero address."
      },
      "balanceOf(address)": {
        "details": "See {IERC20-balanceOf}."
      },
      "decimals()": {
        "details": "Returns the number of decimals used to get its user representation. For example, if `decimals` equals `2`, a balance of `505` tokens should be displayed to a user as `5.05` (`505 / 10 ** 2`). Tokens usually opt for a value of 18, imitating the relationship between Ether and Wei. This is the value {ERC20} uses, unless this function is overridden; NOTE: This information is only used for _display_ purposes: it in no way affects any of the arithmetic of the contract, including {IERC20-balanceOf} and {IERC20-transfer}."
      },
      "decreaseAllowance(address,uint256)": {
        "details": "Atomically decreases the allowance granted to `spender` by the caller. This is an alternative to {approve} that can be used as a mitigation for problems described in {IERC20-approve}. Emits an {Approval} event indicating the updated allowance. Requirements: - `spender` cannot be the zero address. - `spender` must have allowance for the caller of at least `subtractedValue`."
      },
      "increaseAllowance(address,uint256)": {
        "details": "Atomically increases the allowance granted to `spender` by the caller. This is an alternative to {approve} that can be used as a mitigation for problems described in {IERC20-approve}. Emits an {Approval} event indicating the updated allowance. Requirements: - `spender` cannot be the zero address."
      },
      "name()": {
        "details": "Returns the name of the token."
      },
      "symbol()": {
        "details": "Returns the symbol of the token, usually a shorter version of the name."
      },
      "totalSupply()": {
        "details": "See {IERC20-totalSupply}."
      },
      "transfer(address,uint256)": {
        "details": "See {IERC20-transfer}. Requirements: - `recipient` cannot be the zero address. - the caller must have a balance of at least `amount`."
      },
      "transferFrom(address,address,uint256)": {
        "details": "See {IERC20-transferFrom}. Emits an {Approval} event indicating the updated allowance. This is not required by the EIP. See the note at the beginning of {ERC20}. Requirements: - `sender` and `recipient` cannot be the zero address. - `sender` must have a balance of at least `amount`. - the caller must have allowance for ``sender``'s tokens of at least `amount`."
      }
    },
    "version": 1
  },
  "userdoc": {
    "kind": "user",
    "methods": {},
    "version": 1
  }
}