{
  "contractName": "DjinnBottle",
  "abi": [
    {
      "inputs": [
        {
          "internalType": "address",
          "name": "admin",
          "type": "address"
        },
        {
          "internalType": "address",
          "name": "_usdc",
          "type": "address"
        }
      ],
      "stateMutability": "nonpayable",
      "type": "constructor"
    },
    {
      "anonymous": false,
      "inputs": [
        {
          "indexed": true,
          "internalType": "address",
          "name": "owner",
          "type": "address"
        },
        {
          "indexed": true,
          "internalType": "address",
          "name": "spender",
          "type": "address"
        },
        {
          "indexed": false,
          "internalType": "uint256",
          "name": "value",
          "type": "uint256"
        }
      ],
      "name": "Approval",
      "type": "event"
    },
    {
      "anonymous": false,
      "inputs": [
        {
          "indexed": true,
          "internalType": "address",
          "name": "from",
          "type": "address"
        },
        {
          "indexed": true,
          "internalType": "address",
          "name": "to",
          "type": "address"
        },
        {
          "indexed": false,
          "internalType": "uint256",
          "name": "value",
          "type": "uint256"
        }
      ],
      "name": "Transfer",
      "type": "event"
    },
    {
      "inputs": [],
      "name": "USDC",
      "outputs": [
        {
          "internalType": "address",
          "name": "",
          "type": "address"
        }
      ],
      "stateMutability": "view",
      "type": "function"
    },
    {
      "inputs": [
        {
          "internalType": "address",
          "name": "owner",
          "type": "address"
        },
        {
          "internalType": "address",
          "name": "spender",
          "type": "address"
        }
      ],
      "name": "allowance",
      "outputs": [
        {
          "internalType": "uint256",
          "name": "",
          "type": "uint256"
        }
      ],
      "stateMutability": "view",
      "type": "function"
    },
    {
      "inputs": [
        {
          "internalType": "address",
          "name": "spender",
          "type": "address"
        },
        {
          "internalType": "uint256",
          "name": "amount",
          "type": "uint256"
        }
      ],
      "name": "approve",
      "outputs": [
        {
          "internalType": "bool",
          "name": "",
          "type": "bool"
        }
      ],
      "stateMutability": "nonpayable",
      "type": "function"
    },
    {
      "inputs": [
        {
          "internalType": "address",
          "name": "account",
          "type": "address"
        }
      ],
      "name": "balanceOf",
      "outputs": [
        {
          "internalType": "uint256",
          "name": "",
          "type": "uint256"
        }
      ],
      "stateMutability": "view",
      "type": "function"
    },
    {
      "inputs": [],
      "name": "decimals",
      "outputs": [
        {
          "internalType": "uint8",
          "name": "",
          "type": "uint8"
        }
      ],
      "stateMutability": "view",
      "type": "function"
    },
    {
      "inputs": [
        {
          "internalType": "address",
          "name": "spender",
          "type": "address"
        },
        {
          "internalType": "uint256",
          "name": "subtractedValue",
          "type": "uint256"
        }
      ],
      "name": "decreaseAllowance",
      "outputs": [
        {
          "internalType": "bool",
          "name": "",
          "type": "bool"
        }
      ],
      "stateMutability": "nonpayable",
      "type": "function"
    },
    {
      "inputs": [],
      "name": "globalRewards",
      "outputs": [
        {
          "internalType": "uint256",
          "name": "",
          "type": "uint256"
        }
      ],
      "stateMutability": "view",
      "type": "function"
    },
    {
      "inputs": [
        {
          "internalType": "address",
          "name": "spender",
          "type": "address"
        },
        {
          "internalType": "uint256",
          "name": "addedValue",
          "type": "uint256"
        }
      ],
      "name": "increaseAllowance",
      "outputs": [
        {
          "internalType": "bool",
          "name": "",
          "type": "bool"
        }
      ],
      "stateMutability": "nonpayable",
      "type": "function"
    },
    {
      "inputs": [],
      "name": "name",
      "outputs": [
        {
          "internalType": "string",
          "name": "",
          "type": "string"
        }
      ],
      "stateMutability": "view",
      "type": "function"
    },
    {
      "inputs": [],
      "name": "symbol",
      "outputs": [
        {
          "internalType": "string",
          "name": "",
          "type": "string"
        }
      ],
      "stateMutability": "view",
      "type": "function"
    },
    {
      "inputs": [],
      "name": "totalSupply",
      "outputs": [
        {
          "internalType": "uint256",
          "name": "",
          "type": "uint256"
        }
      ],
      "stateMutability": "view",
      "type": "function"
    },
    {
      "inputs": [
        {
          "internalType": "address",
          "name": "recipient",
          "type": "address"
        },
        {
          "internalType": "uint256",
          "name": "amount",
          "type": "uint256"
        }
      ],
      "name": "transfer",
      "outputs": [
        {
          "internalType": "bool",
          "name": "",
          "type": "bool"
        }
      ],
      "stateMutability": "nonpayable",
      "type": "function"
    },
    {
      "inputs": [
        {
          "internalType": "address",
          "name": "sender",
          "type": "address"
        },
        {
          "internalType": "address",
          "name": "recipient",
          "type": "address"
        },
        {
          "internalType": "uint256",
          "name": "amount",
          "type": "uint256"
        }
      ],
      "name": "transferFrom",
      "outputs": [
        {
          "internalType": "bool",
          "name": "",
          "type": "bool"
        }
      ],
      "stateMutability": "nonpayable",
      "type": "function"
    },
    {
      "inputs": [],
      "name": "usdc",
      "outputs": [
        {
          "internalType": "contract IERC20",
          "name": "",
          "type": "address"
        }
      ],
      "stateMutability": "view",
      "type": "function"
    },
    {
      "inputs": [
        {
          "internalType": "uint256",
          "name": "amount",
          "type": "uint256"
        }
      ],
      "name": "deposit",
      "outputs": [],
      "stateMutability": "nonpayable",
      "type": "function"
    },
    {
      "inputs": [
        {
          "internalType": "uint256",
          "name": "amount",
          "type": "uint256"
        }
      ],
      "name": "withdraw",
      "outputs": [],
      "stateMutability": "nonpayable",
      "type": "function"
    },
    {
      "inputs": [],
      "name": "claim",
      "outputs": [],
      "stateMutability": "nonpayable",
      "type": "function"
    },
    {
      "inputs": [
        {
          "internalType": "uint256",
          "name": "amount",
          "type": "uint256"
        }
      ],
      "name": "depositProfits",
      "outputs": [],
      "stateMutability": "nonpayable",
      "type": "function"
    }
  ],
  "bytecode": "0x60a06040527304068da6c83afcfa0e13ba15a6696662335d5b7573ffffffffffffffffffffffffffffffffffffffff1660809073ffffffffffffffffffffffffffffffffffffffff168152503480156200005857600080fd5b50604051620022ee380380620022ee83398181016040528101906200007e919062000284565b6040518060400160405280601881526020017f446a696e6e2046696e616e63652055534443205661756c7400000000000000008152506040518060400160405280600681526020017f646a5553444300000000000000000000000000000000000000000000000000008152508160039080519060200190620001029291906200016a565b5080600490805190602001906200011b9291906200016a565b50505033915080600760006101000a81548173ffffffffffffffffffffffffffffffffffffffff021916908373ffffffffffffffffffffffffffffffffffffffff160217905550505062000330565b8280546200017890620002fa565b90600052602060002090601f0160209004810192826200019c5760008555620001e8565b82601f10620001b757805160ff1916838001178555620001e8565b82800160010185558215620001e8579182015b82811115620001e7578251825591602001919060010190620001ca565b5b509050620001f79190620001fb565b5090565b5b8082111562000216576000816000905550600101620001fc565b5090565b600080fd5b600073ffffffffffffffffffffffffffffffffffffffff82169050919050565b60006200024c826200021f565b9050919050565b6200025e816200023f565b81146200026a57600080fd5b50565b6000815190506200027e8162000253565b92915050565b600080604083850312156200029e576200029d6200021a565b5b6000620002ae858286016200026d565b9250506020620002c1858286016200026d565b9150509250929050565b7f4e487b7100000000000000000000000000000000000000000000000000000000600052602260045260246000fd5b600060028204905060018216806200031357607f821691505b602082108114156200032a5762000329620002cb565b5b50919050565b608051611fa26200034c60003960006107e40152611fa26000f3fe608060405234801561001057600080fd5b50600436106101165760003560e01c806370a08231116100a2578063a457c2d711610071578063a457c2d7146102d3578063a9059cbb14610303578063b6b55f2514610333578063dd62ed3e1461034f578063ee73d66b1461037f57610116565b806370a08231146102495780637423031e1461027957806389a302711461029757806395d89b41146102b557610116565b80632e1a7d4d116100e95780632e1a7d4d146101b7578063313ce567146101d357806339509351146101f15780633e413bee146102215780634e71d92d1461023f57610116565b806306fdde031461011b578063095ea7b31461013957806318160ddd1461016957806323b872dd14610187575b600080fd5b61012361039b565b60405161013091906114a4565b60405180910390f35b610153600480360381019061014e919061155f565b61042d565b60405161016091906115ba565b60405180910390f35b61017161044b565b60405161017e91906115e4565b60405180910390f35b6101a1600480360381019061019c91906115ff565b610455565b6040516101ae91906115ba565b60405180910390f35b6101d160048036038101906101cc9190611652565b61054d565b005b6101db6106ad565b6040516101e8919061169b565b60405180910390f35b61020b6004803603810190610206919061155f565b6106b6565b60405161021891906115ba565b60405180910390f35b610229610762565b6040516102369190611715565b60405180910390f35b610247610788565b005b610263600480360381019061025e9190611730565b610794565b60405161027091906115e4565b60405180910390f35b6102816107dc565b60405161028e91906115e4565b60405180910390f35b61029f6107e2565b6040516102ac919061176c565b60405180910390f35b6102bd610806565b6040516102ca91906114a4565b60405180910390f35b6102ed60048036038101906102e8919061155f565b610898565b6040516102fa91906115ba565b60405180910390f35b61031d6004803603810190610318919061155f565b610983565b60405161032a91906115ba565b60405180910390f35b61034d60048036038101906103489190611652565b6109a1565b005b61036960048036038101906103649190611787565b610af2565b60405161037691906115e4565b60405180910390f35b61039960048036038101906103949190611652565b610b79565b005b6060600380546103aa906117f6565b80601f01602080910402602001604051908101604052809291908181526020018280546103d6906117f6565b80156104235780601f106103f857610100808354040283529160200191610423565b820191906000526020600020905b81548152906001019060200180831161040657829003601f168201915b5050505050905090565b600061044161043a610cc8565b8484610cd0565b6001905092915050565b6000600254905090565b6000610462848484610e9b565b6000600160008673ffffffffffffffffffffffffffffffffffffffff1673ffffffffffffffffffffffffffffffffffffffff16815260200190815260200160002060006104ad610cc8565b73ffffffffffffffffffffffffffffffffffffffff1673ffffffffffffffffffffffffffffffffffffffff1681526020019081526020016000205490508281101561052d576040517f08c379a00000000000000000000000000000000000000000000000000000000081526004016105249061189a565b60405180910390fd5b61054185610539610cc8565b858403610cd0565b60019150509392505050565b3073ffffffffffffffffffffffffffffffffffffffff166370a08231336040518263ffffffff1660e01b8152600401610586919061176c565b602060405180830381865afa1580156105a3573d6000803e3d6000fd5b505050506040513d601f19601f820116820180604052508101906105c791906118cf565b811115610609576040517f08c379a000000000000000000000000000000000000000000000000000000000815260040161060090611948565b60405180910390fd5b600760009054906101000a900473ffffffffffffffffffffffffffffffffffffffff1673ffffffffffffffffffffffffffffffffffffffff1663a9059cbb33836040518363ffffffff1660e01b8152600401610666929190611968565b6020604051808303816000875af1158015610685573d6000803e3d6000fd5b505050506040513d601f19601f820116820180604052508101906106a991906119bd565b5050565b60006012905090565b60006107586106c3610cc8565b8484600160006106d1610cc8565b73ffffffffffffffffffffffffffffffffffffffff1673ffffffffffffffffffffffffffffffffffffffff16815260200190815260200160002060008873ffffffffffffffffffffffffffffffffffffffff1673ffffffffffffffffffffffffffffffffffffffff168152602001908152602001600020546107539190611a19565b610cd0565b6001905092915050565b600760009054906101000a900473ffffffffffffffffffffffffffffffffffffffff1681565b6107913361111c565b50565b60008060008373ffffffffffffffffffffffffffffffffffffffff1673ffffffffffffffffffffffffffffffffffffffff168152602001908152602001600020549050919050565b60055481565b7f000000000000000000000000000000000000000000000000000000000000000081565b606060048054610815906117f6565b80601f0160208091040260200160405190810160405280929190818152602001828054610841906117f6565b801561088e5780601f106108635761010080835404028352916020019161088e565b820191906000526020600020905b81548152906001019060200180831161087157829003601f168201915b5050505050905090565b600080600160006108a7610cc8565b73ffffffffffffffffffffffffffffffffffffffff1673ffffffffffffffffffffffffffffffffffffffff16815260200190815260200160002060008573ffffffffffffffffffffffffffffffffffffffff1673ffffffffffffffffffffffffffffffffffffffff16815260200190815260200160002054905082811015610964576040517f08c379a000000000000000000000000000000000000000000000000000000000815260040161095b90611ae1565b60405180910390fd5b61097861096f610cc8565b85858403610cd0565b600191505092915050565b6000610997610990610cc8565b8484610e9b565b6001905092915050565b600760009054906101000a900473ffffffffffffffffffffffffffffffffffffffff1673ffffffffffffffffffffffffffffffffffffffff1663095ea7b330836040518363ffffffff1660e01b81526004016109fe929190611968565b6020604051808303816000875af1158015610a1d573d6000803e3d6000fd5b505050506040513d601f19601f82011682018060405250810190610a4191906119bd565b50600760009054906101000a900473ffffffffffffffffffffffffffffffffffffffff1673ffffffffffffffffffffffffffffffffffffffff166323b872dd3330846040518463ffffffff1660e01b8152600401610aa193929190611b01565b6020604051808303816000875af1158015610ac0573d6000803e3d6000fd5b505050506040513d601f19601f82011682018060405250810190610ae491906119bd565b50610aef33826112a1565b50565b6000600160008473ffffffffffffffffffffffffffffffffffffffff1673ffffffffffffffffffffffffffffffffffffffff16815260200190815260200160002060008373ffffffffffffffffffffffffffffffffffffffff1673ffffffffffffffffffffffffffffffffffffffff16815260200190815260200160002054905092915050565b600860009054906101000a900473ffffffffffffffffffffffffffffffffffffffff1673ffffffffffffffffffffffffffffffffffffffff163373ffffffffffffffffffffffffffffffffffffffff1614610c09576040517f08c379a0000000000000000000000000000000000000000000000000000000008152600401610c0090611948565b60405180910390fd5b600760009054906101000a900473ffffffffffffffffffffffffffffffffffffffff1673ffffffffffffffffffffffffffffffffffffffff166323b872dd3330846040518463ffffffff1660e01b8152600401610c6893929190611b01565b6020604051808303816000875af1158015610c87573d6000803e3d6000fd5b505050506040513d601f19601f82011682018060405250810190610cab91906119bd565b508060056000828254610cbe9190611a19565b9250508190555050565b600033905090565b600073ffffffffffffffffffffffffffffffffffffffff168373ffffffffffffffffffffffffffffffffffffffff161415610d40576040517f08c379a0000000000000000000000000000000000000000000000000000000008152600401610d3790611baa565b60405180910390fd5b600073ffffffffffffffffffffffffffffffffffffffff168273ffffffffffffffffffffffffffffffffffffffff161415610db0576040517f08c379a0000000000000000000000000000000000000000000000000000000008152600401610da790611c3c565b60405180910390fd5b80600160008573ffffffffffffffffffffffffffffffffffffffff1673ffffffffffffffffffffffffffffffffffffffff16815260200190815260200160002060008473ffffffffffffffffffffffffffffffffffffffff1673ffffffffffffffffffffffffffffffffffffffff168152602001908152602001600020819055508173ffffffffffffffffffffffffffffffffffffffff168373ffffffffffffffffffffffffffffffffffffffff167f8c5be1e5ebec7d5bd14f71427d1e84f3dd0314c0f7b2291e5b200ac8c7c3b92583604051610e8e91906115e4565b60405180910390a3505050565b600073ffffffffffffffffffffffffffffffffffffffff168373ffffffffffffffffffffffffffffffffffffffff161415610f0b576040517f08c379a0000000000000000000000000000000000000000000000000000000008152600401610f0290611cce565b60405180910390fd5b600073ffffffffffffffffffffffffffffffffffffffff168273ffffffffffffffffffffffffffffffffffffffff161415610f7b576040517f08c379a0000000000000000000000000000000000000000000000000000000008152600401610f7290611d60565b60405180910390fd5b610f86838383611401565b60008060008573ffffffffffffffffffffffffffffffffffffffff1673ffffffffffffffffffffffffffffffffffffffff1681526020019081526020016000205490508181101561100c576040517f08c379a000000000000000000000000000000000000000000000000000000000815260040161100390611df2565b60405180910390fd5b8181036000808673ffffffffffffffffffffffffffffffffffffffff1673ffffffffffffffffffffffffffffffffffffffff16815260200190815260200160002081905550816000808573ffffffffffffffffffffffffffffffffffffffff1673ffffffffffffffffffffffffffffffffffffffff168152602001908152602001600020600082825461109f9190611a19565b925050819055508273ffffffffffffffffffffffffffffffffffffffff168473ffffffffffffffffffffffffffffffffffffffff167fddf252ad1be2c89b69c2b068fc378daa952ba7f163c4a11628f55a4df523b3ef8460405161110391906115e4565b60405180910390a3611116848484611406565b50505050565b600080600660008473ffffffffffffffffffffffffffffffffffffffff1673ffffffffffffffffffffffffffffffffffffffff1681526020019081526020016000205460055461116c9190611e12565b9050600760009054906101000a900473ffffffffffffffffffffffffffffffffffffffff1673ffffffffffffffffffffffffffffffffffffffff166370a08231306040518263ffffffff1660e01b81526004016111c9919061176c565b602060405180830381865afa1580156111e6573d6000803e3d6000fd5b505050506040513d601f19601f8201168201806040525081019061120a91906118cf565b816112159190611e75565b3073ffffffffffffffffffffffffffffffffffffffff166370a08231336040518263ffffffff1660e01b815260040161124e919061176c565b602060405180830381865afa15801561126b573d6000803e3d6000fd5b505050506040513d601f19601f8201168201806040525081019061128f91906118cf565b6112999190611ea6565b915050919050565b600073ffffffffffffffffffffffffffffffffffffffff168273ffffffffffffffffffffffffffffffffffffffff161415611311576040517f08c379a000000000000000000000000000000000000000000000000000000000815260040161130890611f4c565b60405180910390fd5b61131d60008383611401565b806002600082825461132f9190611a19565b92505081905550806000808473ffffffffffffffffffffffffffffffffffffffff1673ffffffffffffffffffffffffffffffffffffffff16815260200190815260200160002060008282546113849190611a19565b925050819055508173ffffffffffffffffffffffffffffffffffffffff16600073ffffffffffffffffffffffffffffffffffffffff167fddf252ad1be2c89b69c2b068fc378daa952ba7f163c4a11628f55a4df523b3ef836040516113e991906115e4565b60405180910390a36113fd60008383611406565b5050565b505050565b505050565b600081519050919050565b600082825260208201905092915050565b60005b8381101561144557808201518184015260208101905061142a565b83811115611454576000848401525b50505050565b6000601f19601f8301169050919050565b60006114768261140b565b6114808185611416565b9350611490818560208601611427565b6114998161145a565b840191505092915050565b600060208201905081810360008301526114be818461146b565b905092915050565b600080fd5b600073ffffffffffffffffffffffffffffffffffffffff82169050919050565b60006114f6826114cb565b9050919050565b611506816114eb565b811461151157600080fd5b50565b600081359050611523816114fd565b92915050565b6000819050919050565b61153c81611529565b811461154757600080fd5b50565b60008135905061155981611533565b92915050565b60008060408385031215611576576115756114c6565b5b600061158485828601611514565b92505060206115958582860161154a565b9150509250929050565b60008115159050919050565b6115b48161159f565b82525050565b60006020820190506115cf60008301846115ab565b92915050565b6115de81611529565b82525050565b60006020820190506115f960008301846115d5565b92915050565b600080600060608486031215611618576116176114c6565b5b600061162686828701611514565b935050602061163786828701611514565b92505060406116488682870161154a565b9150509250925092565b600060208284031215611668576116676114c6565b5b60006116768482850161154a565b91505092915050565b600060ff82169050919050565b6116958161167f565b82525050565b60006020820190506116b0600083018461168c565b92915050565b6000819050919050565b60006116db6116d66116d1846114cb565b6116b6565b6114cb565b9050919050565b60006116ed826116c0565b9050919050565b60006116ff826116e2565b9050919050565b61170f816116f4565b82525050565b600060208201905061172a6000830184611706565b92915050565b600060208284031215611746576117456114c6565b5b600061175484828501611514565b91505092915050565b611766816114eb565b82525050565b6000602082019050611781600083018461175d565b92915050565b6000806040838503121561179e5761179d6114c6565b5b60006117ac85828601611514565b92505060206117bd85828601611514565b9150509250929050565b7f4e487b7100000000000000000000000000000000000000000000000000000000600052602260045260246000fd5b6000600282049050600182168061180e57607f821691505b60208210811415611822576118216117c7565b5b50919050565b7f45524332303a207472616e7366657220616d6f756e742065786365656473206160008201527f6c6c6f77616e6365000000000000000000000000000000000000000000000000602082015250565b6000611884602883611416565b915061188f82611828565b604082019050919050565b600060208201905081810360008301526118b381611877565b9050919050565b6000815190506118c981611533565b92915050565b6000602082840312156118e5576118e46114c6565b5b60006118f3848285016118ba565b91505092915050565b7f6e6f000000000000000000000000000000000000000000000000000000000000600082015250565b6000611932600283611416565b915061193d826118fc565b602082019050919050565b6000602082019050818103600083015261196181611925565b9050919050565b600060408201905061197d600083018561175d565b61198a60208301846115d5565b9392505050565b61199a8161159f565b81146119a557600080fd5b50565b6000815190506119b781611991565b92915050565b6000602082840312156119d3576119d26114c6565b5b60006119e1848285016119a8565b91505092915050565b7f4e487b7100000000000000000000000000000000000000000000000000000000600052601160045260246000fd5b6000611a2482611529565b9150611a2f83611529565b9250827fffffffffffffffffffffffffffffffffffffffffffffffffffffffffffffffff03821115611a6457611a636119ea565b5b828201905092915050565b7f45524332303a2064656372656173656420616c6c6f77616e63652062656c6f7760008201527f207a65726f000000000000000000000000000000000000000000000000000000602082015250565b6000611acb602583611416565b9150611ad682611a6f565b604082019050919050565b60006020820190508181036000830152611afa81611abe565b9050919050565b6000606082019050611b16600083018661175d565b611b23602083018561175d565b611b3060408301846115d5565b949350505050565b7f45524332303a20617070726f76652066726f6d20746865207a65726f2061646460008201527f7265737300000000000000000000000000000000000000000000000000000000602082015250565b6000611b94602483611416565b9150611b9f82611b38565b604082019050919050565b60006020820190508181036000830152611bc381611b87565b9050919050565b7f45524332303a20617070726f766520746f20746865207a65726f20616464726560008201527f7373000000000000000000000000000000000000000000000000000000000000602082015250565b6000611c26602283611416565b9150611c3182611bca565b604082019050919050565b60006020820190508181036000830152611c5581611c19565b9050919050565b7f45524332303a207472616e736665722066726f6d20746865207a65726f20616460008201527f6472657373000000000000000000000000000000000000000000000000000000602082015250565b6000611cb8602583611416565b9150611cc382611c5c565b604082019050919050565b60006020820190508181036000830152611ce781611cab565b9050919050565b7f45524332303a207472616e7366657220746f20746865207a65726f206164647260008201527f6573730000000000000000000000000000000000000000000000000000000000602082015250565b6000611d4a602383611416565b9150611d5582611cee565b604082019050919050565b60006020820190508181036000830152611d7981611d3d565b9050919050565b7f45524332303a207472616e7366657220616d6f756e742065786365656473206260008201527f616c616e63650000000000000000000000000000000000000000000000000000602082015250565b6000611ddc602683611416565b9150611de782611d80565b604082019050919050565b60006020820190508181036000830152611e0b81611dcf565b9050919050565b6000611e1d82611529565b9150611e2883611529565b925082821015611e3b57611e3a6119ea565b5b828203905092915050565b7f4e487b7100000000000000000000000000000000000000000000000000000000600052601260045260246000fd5b6000611e8082611529565b9150611e8b83611529565b925082611e9b57611e9a611e46565b5b828204905092915050565b6000611eb182611529565b9150611ebc83611529565b9250817fffffffffffffffffffffffffffffffffffffffffffffffffffffffffffffffff0483118215151615611ef557611ef46119ea565b5b828202905092915050565b7f45524332303a206d696e7420746f20746865207a65726f206164647265737300600082015250565b6000611f36601f83611416565b9150611f4182611f00565b602082019050919050565b60006020820190508181036000830152611f6581611f29565b905091905056fea2646970667358221220f9c40ab241a98b3b1637215c0f5ea0cb6ed1ed1d55ee07cdefbb7327c383c95a64736f6c634300080a0033",
  "immutableReferences": {
    "679": [
      {
        "length": 32,
        "start": 2020
      }
    ]
  },
  "source": "// SPDX-License-Identifier: MIT \npragma solidity ^0.8.10; \n\nimport \"@openzeppelin/contracts/token/ERC20/IERC20.sol\"; \nimport \"@openzeppelin/contracts/token/ERC20/ERC20.sol\"; \n\n//The deposit contract for Djinn Finance\ncontract DjinnBottle is ERC20 {\n\n\taddress public immutable USDC = 0x04068DA6C83AFCFA0e13ba15A6696662335D5B75;  \t \n\tuint public globalRewards; \n\tmapping(address => uint) private lastHarvest; \n\tIERC20 public usdc; \n\n\taddress private admin; \n\n\tconstructor(address admin, address _usdc) ERC20(\"Djinn Finance USDC Vault\",\"djUSDC\") {\n\t\tadmin = msg.sender; \n\t\tusdc = IERC20(_usdc); \n\t}\n\n\tfunction deposit(uint amount) public {\n\t\tusdc.approve(address(this), amount);\n\t\tusdc.transferFrom(msg.sender, address(this), amount); \t\t\n\t\t//mint tokens 1:1 to usdc to keep it simple \n\t\t_mint(msg.sender, amount); \n\t}\n\n\tfunction withdraw(uint amount) public {\n\t\trequire(amount <= IERC20(address(this)).balanceOf(msg.sender), \"no\"); \t\n\t\t//send back user their usdc \n\t\tusdc.transfer(msg.sender, amount); \n\t}\n\n\tfunction claim() external {\n\t\tharvest(msg.sender); \n\t}\n\t\n\t//get percentage of profits by balance of this erc20 token in wallet \n\tfunction harvest(address user) internal view returns(uint) {\n\t\tuint percentageReward = globalRewards - lastHarvest[user]; \n\t\t\n\t\treturn IERC20(address(this)).balanceOf(msg.sender) * (percentageReward / usdc.balanceOf(address(this))); \n\t}\n\n\tfunction checkHarvest(address user) internal {\n\t\tuint owed = harvest(user); \n\t\tif (owed > 0) { \n\t\t\t_mint(user, owed); \n\t\t\tlastHarvest[user] = globalRewards; \n\t\t}\n\t}\n\t\n\t//deposits from strategies using this function  \n\tfunction depositProfits(uint amount) external {\n\t\trequire(msg.sender == admin, \"no\"); \n\t\tusdc.transferFrom(msg.sender, address(this), amount); \n\t\n\t\tglobalRewards += amount; \n\t}\n}\n\n\n",
  "sourcePath": "/home/kevin/Code/solidity_projects/djinnFinance/contracts/DjinnBottle.sol",
  "compiler": {
    "name": "solc",
    "version": "0.8.10+commit.fc410830.Emscripten.clang"
  },
  "schemaVersion": "3.4.3",
  "updatedAt": "2022-01-17T00:49:18.135Z",
  "devdoc": {
    "kind": "dev",
    "methods": {
      "allowance(address,address)": {
        "details": "See {IERC20-allowance}."
      },
      "approve(address,uint256)": {
        "details": "See {IERC20-approve}. Requirements: - `spender` cannot be the zero address."
      },
      "balanceOf(address)": {
        "details": "See {IERC20-balanceOf}."
      },
      "decimals()": {
        "details": "Returns the number of decimals used to get its user representation. For example, if `decimals` equals `2`, a balance of `505` tokens should be displayed to a user as `5.05` (`505 / 10 ** 2`). Tokens usually opt for a value of 18, imitating the relationship between Ether and Wei. This is the value {ERC20} uses, unless this function is overridden; NOTE: This information is only used for _display_ purposes: it in no way affects any of the arithmetic of the contract, including {IERC20-balanceOf} and {IERC20-transfer}."
      },
      "decreaseAllowance(address,uint256)": {
        "details": "Atomically decreases the allowance granted to `spender` by the caller. This is an alternative to {approve} that can be used as a mitigation for problems described in {IERC20-approve}. Emits an {Approval} event indicating the updated allowance. Requirements: - `spender` cannot be the zero address. - `spender` must have allowance for the caller of at least `subtractedValue`."
      },
      "increaseAllowance(address,uint256)": {
        "details": "Atomically increases the allowance granted to `spender` by the caller. This is an alternative to {approve} that can be used as a mitigation for problems described in {IERC20-approve}. Emits an {Approval} event indicating the updated allowance. Requirements: - `spender` cannot be the zero address."
      },
      "name()": {
        "details": "Returns the name of the token."
      },
      "symbol()": {
        "details": "Returns the symbol of the token, usually a shorter version of the name."
      },
      "totalSupply()": {
        "details": "See {IERC20-totalSupply}."
      },
      "transfer(address,uint256)": {
        "details": "See {IERC20-transfer}. Requirements: - `recipient` cannot be the zero address. - the caller must have a balance of at least `amount`."
      },
      "transferFrom(address,address,uint256)": {
        "details": "See {IERC20-transferFrom}. Emits an {Approval} event indicating the updated allowance. This is not required by the EIP. See the note at the beginning of {ERC20}. Requirements: - `sender` and `recipient` cannot be the zero address. - `sender` must have a balance of at least `amount`. - the caller must have allowance for ``sender``'s tokens of at least `amount`."
      }
    },
    "version": 1
  },
  "userdoc": {
    "kind": "user",
    "methods": {},
    "version": 1
  }
}