{
  "contractName": "DjinnBottleUSDC",
  "abi": [
    {
      "inputs": [
        {
          "internalType": "address",
          "name": "_usdc",
          "type": "address"
        }
      ],
      "stateMutability": "nonpayable",
      "type": "constructor"
    },
    {
      "anonymous": false,
      "inputs": [
        {
          "indexed": true,
          "internalType": "address",
          "name": "owner",
          "type": "address"
        },
        {
          "indexed": true,
          "internalType": "address",
          "name": "spender",
          "type": "address"
        },
        {
          "indexed": false,
          "internalType": "uint256",
          "name": "value",
          "type": "uint256"
        }
      ],
      "name": "Approval",
      "type": "event"
    },
    {
      "anonymous": false,
      "inputs": [
        {
          "indexed": true,
          "internalType": "address",
          "name": "from",
          "type": "address"
        },
        {
          "indexed": true,
          "internalType": "address",
          "name": "to",
          "type": "address"
        },
        {
          "indexed": false,
          "internalType": "uint256",
          "name": "value",
          "type": "uint256"
        }
      ],
      "name": "Transfer",
      "type": "event"
    },
    {
      "inputs": [],
      "name": "USDC",
      "outputs": [
        {
          "internalType": "address",
          "name": "",
          "type": "address"
        }
      ],
      "stateMutability": "view",
      "type": "function",
      "constant": true
    },
    {
      "inputs": [
        {
          "internalType": "address",
          "name": "owner",
          "type": "address"
        },
        {
          "internalType": "address",
          "name": "spender",
          "type": "address"
        }
      ],
      "name": "allowance",
      "outputs": [
        {
          "internalType": "uint256",
          "name": "",
          "type": "uint256"
        }
      ],
      "stateMutability": "view",
      "type": "function",
      "constant": true
    },
    {
      "inputs": [
        {
          "internalType": "address",
          "name": "spender",
          "type": "address"
        },
        {
          "internalType": "uint256",
          "name": "amount",
          "type": "uint256"
        }
      ],
      "name": "approve",
      "outputs": [
        {
          "internalType": "bool",
          "name": "",
          "type": "bool"
        }
      ],
      "stateMutability": "nonpayable",
      "type": "function"
    },
    {
      "inputs": [
        {
          "internalType": "address",
          "name": "account",
          "type": "address"
        }
      ],
      "name": "balanceOf",
      "outputs": [
        {
          "internalType": "uint256",
          "name": "",
          "type": "uint256"
        }
      ],
      "stateMutability": "view",
      "type": "function",
      "constant": true
    },
    {
      "inputs": [],
      "name": "decimals",
      "outputs": [
        {
          "internalType": "uint8",
          "name": "",
          "type": "uint8"
        }
      ],
      "stateMutability": "view",
      "type": "function",
      "constant": true
    },
    {
      "inputs": [
        {
          "internalType": "address",
          "name": "spender",
          "type": "address"
        },
        {
          "internalType": "uint256",
          "name": "subtractedValue",
          "type": "uint256"
        }
      ],
      "name": "decreaseAllowance",
      "outputs": [
        {
          "internalType": "bool",
          "name": "",
          "type": "bool"
        }
      ],
      "stateMutability": "nonpayable",
      "type": "function"
    },
    {
      "inputs": [],
      "name": "globalRewards",
      "outputs": [
        {
          "internalType": "uint256",
          "name": "",
          "type": "uint256"
        }
      ],
      "stateMutability": "view",
      "type": "function",
      "constant": true
    },
    {
      "inputs": [
        {
          "internalType": "address",
          "name": "spender",
          "type": "address"
        },
        {
          "internalType": "uint256",
          "name": "addedValue",
          "type": "uint256"
        }
      ],
      "name": "increaseAllowance",
      "outputs": [
        {
          "internalType": "bool",
          "name": "",
          "type": "bool"
        }
      ],
      "stateMutability": "nonpayable",
      "type": "function"
    },
    {
      "inputs": [],
      "name": "name",
      "outputs": [
        {
          "internalType": "string",
          "name": "",
          "type": "string"
        }
      ],
      "stateMutability": "view",
      "type": "function",
      "constant": true
    },
    {
      "inputs": [],
      "name": "shortStrategy",
      "outputs": [
        {
          "internalType": "contract ShortFarmFTM",
          "name": "",
          "type": "address"
        }
      ],
      "stateMutability": "view",
      "type": "function",
      "constant": true
    },
    {
      "inputs": [],
      "name": "symbol",
      "outputs": [
        {
          "internalType": "string",
          "name": "",
          "type": "string"
        }
      ],
      "stateMutability": "view",
      "type": "function",
      "constant": true
    },
    {
      "inputs": [],
      "name": "totalSupply",
      "outputs": [
        {
          "internalType": "uint256",
          "name": "",
          "type": "uint256"
        }
      ],
      "stateMutability": "view",
      "type": "function",
      "constant": true
    },
    {
      "inputs": [
        {
          "internalType": "address",
          "name": "recipient",
          "type": "address"
        },
        {
          "internalType": "uint256",
          "name": "amount",
          "type": "uint256"
        }
      ],
      "name": "transfer",
      "outputs": [
        {
          "internalType": "bool",
          "name": "",
          "type": "bool"
        }
      ],
      "stateMutability": "nonpayable",
      "type": "function"
    },
    {
      "inputs": [
        {
          "internalType": "address",
          "name": "sender",
          "type": "address"
        },
        {
          "internalType": "address",
          "name": "recipient",
          "type": "address"
        },
        {
          "internalType": "uint256",
          "name": "amount",
          "type": "uint256"
        }
      ],
      "name": "transferFrom",
      "outputs": [
        {
          "internalType": "bool",
          "name": "",
          "type": "bool"
        }
      ],
      "stateMutability": "nonpayable",
      "type": "function"
    },
    {
      "inputs": [],
      "name": "usdc",
      "outputs": [
        {
          "internalType": "contract IERC20",
          "name": "",
          "type": "address"
        }
      ],
      "stateMutability": "view",
      "type": "function",
      "constant": true
    },
    {
      "inputs": [
        {
          "internalType": "contract ShortFarmFTM",
          "name": "_shortStrategy",
          "type": "address"
        }
      ],
      "name": "initialize",
      "outputs": [],
      "stateMutability": "nonpayable",
      "type": "function"
    },
    {
      "inputs": [],
      "name": "sendAddress",
      "outputs": [
        {
          "internalType": "address",
          "name": "",
          "type": "address"
        },
        {
          "internalType": "uint256",
          "name": "",
          "type": "uint256"
        }
      ],
      "stateMutability": "view",
      "type": "function",
      "constant": true
    },
    {
      "inputs": [
        {
          "internalType": "uint256",
          "name": "amount",
          "type": "uint256"
        }
      ],
      "name": "deposit",
      "outputs": [],
      "stateMutability": "nonpayable",
      "type": "function"
    },
    {
      "inputs": [
        {
          "internalType": "uint256",
          "name": "amount",
          "type": "uint256"
        }
      ],
      "name": "withdraw",
      "outputs": [],
      "stateMutability": "nonpayable",
      "type": "function"
    },
    {
      "inputs": [],
      "name": "claim",
      "outputs": [],
      "stateMutability": "nonpayable",
      "type": "function"
    },
    {
      "inputs": [
        {
          "internalType": "uint256",
          "name": "amount",
          "type": "uint256"
        }
      ],
      "name": "depositProfits",
      "outputs": [],
      "stateMutability": "nonpayable",
      "type": "function"
    }
  ],
  "bytecode": "0x60a06040527304068da6c83afcfa0e13ba15a6696662335d5b7573ffffffffffffffffffffffffffffffffffffffff1660809073ffffffffffffffffffffffffffffffffffffffff168152503480156200005857600080fd5b50604051620028643803806200286483398181016040528101906200007e9190620002c1565b6040518060400160405280601881526020017f446a696e6e2046696e616e63652055534443205661756c7400000000000000008152506040518060400160405280600681526020017f646a555344430000000000000000000000000000000000000000000000000000815250816003908051906020019062000102929190620001a7565b5080600490805190602001906200011b929190620001a7565b50505033600860006101000a81548173ffffffffffffffffffffffffffffffffffffffff021916908373ffffffffffffffffffffffffffffffffffffffff16021790555080600760006101000a81548173ffffffffffffffffffffffffffffffffffffffff021916908373ffffffffffffffffffffffffffffffffffffffff1602179055505062000358565b828054620001b59062000322565b90600052602060002090601f016020900481019282620001d9576000855562000225565b82601f10620001f457805160ff191683800117855562000225565b8280016001018555821562000225579182015b828111156200022457825182559160200191906001019062000207565b5b50905062000234919062000238565b5090565b5b808211156200025357600081600090555060010162000239565b5090565b600080fd5b600073ffffffffffffffffffffffffffffffffffffffff82169050919050565b600062000289826200025c565b9050919050565b6200029b816200027c565b8114620002a757600080fd5b50565b600081519050620002bb8162000290565b92915050565b600060208284031215620002da57620002d962000257565b5b6000620002ea84828501620002aa565b91505092915050565b7f4e487b7100000000000000000000000000000000000000000000000000000000600052602260045260246000fd5b600060028204905060018216806200033b57607f821691505b60208210811415620003525762000351620002f3565b5b50919050565b6080516124f062000374600039600061099201526124f06000f3fe608060405234801561001057600080fd5b50600436106101375760003560e01c806370a08231116100b8578063a457c2d71161007c578063a457c2d714610331578063a9059cbb14610361578063b6b55f2514610391578063c4d66de8146103ad578063dd62ed3e146103c9578063ee73d66b146103f957610137565b806370a08231146102895780637423031e146102b957806389a30271146102d757806389c4fa12146102f557806395d89b411461031357610137565b8063313ce567116100ff578063313ce567146101f4578063328e94a51461021257806339509351146102315780633e413bee146102615780634e71d92d1461027f57610137565b806306fdde031461013c578063095ea7b31461015a57806318160ddd1461018a57806323b872dd146101a85780632e1a7d4d146101d8575b600080fd5b610144610415565b6040516101519190611866565b60405180910390f35b610174600480360381019061016f9190611921565b6104a7565b604051610181919061197c565b60405180910390f35b6101926104c5565b60405161019f91906119a6565b60405180910390f35b6101c260048036038101906101bd91906119c1565b6104cf565b6040516101cf919061197c565b60405180910390f35b6101f260048036038101906101ed9190611a14565b6105c7565b005b6101fc6107c1565b6040516102099190611a5d565b60405180910390f35b61021a6107ca565b604051610228929190611a87565b60405180910390f35b61024b60048036038101906102469190611921565b610865565b604051610258919061197c565b60405180910390f35b610269610911565b6040516102769190611b0f565b60405180910390f35b610287610937565b005b6102a3600480360381019061029e9190611b2a565b610942565b6040516102b091906119a6565b60405180910390f35b6102c161098a565b6040516102ce91906119a6565b60405180910390f35b6102df610990565b6040516102ec9190611b57565b60405180910390f35b6102fd6109b4565b60405161030a9190611ba5565b60405180910390f35b61031b6109da565b6040516103289190611866565b60405180910390f35b61034b60048036038101906103469190611921565b610a6c565b604051610358919061197c565b60405180910390f35b61037b60048036038101906103769190611921565b610b57565b604051610388919061197c565b60405180910390f35b6103ab60048036038101906103a69190611a14565b610b75565b005b6103c760048036038101906103c29190611c10565b610d75565b005b6103e360048036038101906103de9190611c3d565b610e49565b6040516103f091906119a6565b60405180910390f35b610413600480360381019061040e9190611a14565b610ed0565b005b60606003805461042490611cac565b80601f016020809104026020016040519081016040528092919081815260200182805461045090611cac565b801561049d5780601f106104725761010080835404028352916020019161049d565b820191906000526020600020905b81548152906001019060200180831161048057829003601f168201915b5050505050905090565b60006104bb6104b461101f565b8484611027565b6001905092915050565b6000600254905090565b60006104dc8484846111f2565b6000600160008673ffffffffffffffffffffffffffffffffffffffff1673ffffffffffffffffffffffffffffffffffffffff168152602001908152602001600020600061052761101f565b73ffffffffffffffffffffffffffffffffffffffff1673ffffffffffffffffffffffffffffffffffffffff168152602001908152602001600020549050828110156105a7576040517f08c379a000000000000000000000000000000000000000000000000000000000815260040161059e90611d50565b60405180910390fd5b6105bb856105b361101f565b858403611027565b60019150509392505050565b3073ffffffffffffffffffffffffffffffffffffffff166370a08231336040518263ffffffff1660e01b81526004016106009190611b57565b602060405180830381865afa15801561061d573d6000803e3d6000fd5b505050506040513d601f19601f820116820180604052508101906106419190611d85565b811115610683576040517f08c379a000000000000000000000000000000000000000000000000000000000815260040161067a90611dfe565b60405180910390fd5b6000813073ffffffffffffffffffffffffffffffffffffffff166370a08231336040518263ffffffff1660e01b81526004016106bf9190611b57565b602060405180830381865afa1580156106dc573d6000803e3d6000fd5b505050506040513d601f19601f820116820180604052508101906107009190611d85565b61070a9190611e4d565b9050600060646107186104c5565b836107239190611eb0565b61072d9190611ee1565b9050600960009054906101000a900473ffffffffffffffffffffffffffffffffffffffff1673ffffffffffffffffffffffffffffffffffffffff16630aebeb4e826040518263ffffffff1660e01b815260040161078a91906119a6565b600060405180830381600087803b1580156107a457600080fd5b505af11580156107b8573d6000803e3d6000fd5b50505050505050565b60006012905090565b600080600960009054906101000a900473ffffffffffffffffffffffffffffffffffffffff1673ffffffffffffffffffffffffffffffffffffffff16635170a9d06040518163ffffffff1660e01b81526004016040805180830381865afa158015610839573d6000803e3d6000fd5b505050506040513d601f19601f8201168201806040525081019061085d9190611f50565b915091509091565b600061090761087261101f565b84846001600061088061101f565b73ffffffffffffffffffffffffffffffffffffffff1673ffffffffffffffffffffffffffffffffffffffff16815260200190815260200160002060008873ffffffffffffffffffffffffffffffffffffffff1673ffffffffffffffffffffffffffffffffffffffff168152602001908152602001600020546109029190611f90565b611027565b6001905092915050565b600760009054906101000a900473ffffffffffffffffffffffffffffffffffffffff1681565b61094033611473565b565b60008060008373ffffffffffffffffffffffffffffffffffffffff1673ffffffffffffffffffffffffffffffffffffffff168152602001908152602001600020549050919050565b60055481565b7f000000000000000000000000000000000000000000000000000000000000000081565b600960009054906101000a900473ffffffffffffffffffffffffffffffffffffffff1681565b6060600480546109e990611cac565b80601f0160208091040260200160405190810160405280929190818152602001828054610a1590611cac565b8015610a625780601f10610a3757610100808354040283529160200191610a62565b820191906000526020600020905b815481529060010190602001808311610a4557829003601f168201915b5050505050905090565b60008060016000610a7b61101f565b73ffffffffffffffffffffffffffffffffffffffff1673ffffffffffffffffffffffffffffffffffffffff16815260200190815260200160002060008573ffffffffffffffffffffffffffffffffffffffff1673ffffffffffffffffffffffffffffffffffffffff16815260200190815260200160002054905082811015610b38576040517f08c379a0000000000000000000000000000000000000000000000000000000008152600401610b2f90612058565b60405180910390fd5b610b4c610b4361101f565b85858403611027565b600191505092915050565b6000610b6b610b6461101f565b84846111f2565b6001905092915050565b600760009054906101000a900473ffffffffffffffffffffffffffffffffffffffff1673ffffffffffffffffffffffffffffffffffffffff166323b872dd3330846040518463ffffffff1660e01b8152600401610bd493929190612078565b6020604051808303816000875af1158015610bf3573d6000803e3d6000fd5b505050506040513d601f19601f82011682018060405250810190610c1791906120db565b50610c2233826114de565b600760009054906101000a900473ffffffffffffffffffffffffffffffffffffffff1673ffffffffffffffffffffffffffffffffffffffff1663a9059cbb600960009054906101000a900473ffffffffffffffffffffffffffffffffffffffff16836040518363ffffffff1660e01b8152600401610ca1929190611a87565b6020604051808303816000875af1158015610cc0573d6000803e3d6000fd5b505050506040513d601f19601f82011682018060405250810190610ce491906120db565b50600960009054906101000a900473ffffffffffffffffffffffffffffffffffffffff1673ffffffffffffffffffffffffffffffffffffffff1663690e7c09826040518263ffffffff1660e01b8152600401610d4091906119a6565b600060405180830381600087803b158015610d5a57600080fd5b505af1158015610d6e573d6000803e3d6000fd5b5050505050565b600860009054906101000a900473ffffffffffffffffffffffffffffffffffffffff1673ffffffffffffffffffffffffffffffffffffffff163373ffffffffffffffffffffffffffffffffffffffff1614610e05576040517f08c379a0000000000000000000000000000000000000000000000000000000008152600401610dfc90612154565b60405180910390fd5b80600960006101000a81548173ffffffffffffffffffffffffffffffffffffffff021916908373ffffffffffffffffffffffffffffffffffffffff16021790555050565b6000600160008473ffffffffffffffffffffffffffffffffffffffff1673ffffffffffffffffffffffffffffffffffffffff16815260200190815260200160002060008373ffffffffffffffffffffffffffffffffffffffff1673ffffffffffffffffffffffffffffffffffffffff16815260200190815260200160002054905092915050565b600860009054906101000a900473ffffffffffffffffffffffffffffffffffffffff1673ffffffffffffffffffffffffffffffffffffffff163373ffffffffffffffffffffffffffffffffffffffff1614610f60576040517f08c379a0000000000000000000000000000000000000000000000000000000008152600401610f5790611dfe565b60405180910390fd5b600760009054906101000a900473ffffffffffffffffffffffffffffffffffffffff1673ffffffffffffffffffffffffffffffffffffffff166323b872dd3330846040518463ffffffff1660e01b8152600401610fbf93929190612078565b6020604051808303816000875af1158015610fde573d6000803e3d6000fd5b505050506040513d601f19601f8201168201806040525081019061100291906120db565b5080600560008282546110159190611f90565b9250508190555050565b600033905090565b600073ffffffffffffffffffffffffffffffffffffffff168373ffffffffffffffffffffffffffffffffffffffff161415611097576040517f08c379a000000000000000000000000000000000000000000000000000000000815260040161108e906121e6565b60405180910390fd5b600073ffffffffffffffffffffffffffffffffffffffff168273ffffffffffffffffffffffffffffffffffffffff161415611107576040517f08c379a00000000000000000000000000000000000000000000000000000000081526004016110fe90612278565b60405180910390fd5b80600160008573ffffffffffffffffffffffffffffffffffffffff1673ffffffffffffffffffffffffffffffffffffffff16815260200190815260200160002060008473ffffffffffffffffffffffffffffffffffffffff1673ffffffffffffffffffffffffffffffffffffffff168152602001908152602001600020819055508173ffffffffffffffffffffffffffffffffffffffff168373ffffffffffffffffffffffffffffffffffffffff167f8c5be1e5ebec7d5bd14f71427d1e84f3dd0314c0f7b2291e5b200ac8c7c3b925836040516111e591906119a6565b60405180910390a3505050565b600073ffffffffffffffffffffffffffffffffffffffff168373ffffffffffffffffffffffffffffffffffffffff161415611262576040517f08c379a00000000000000000000000000000000000000000000000000000000081526004016112599061230a565b60405180910390fd5b600073ffffffffffffffffffffffffffffffffffffffff168273ffffffffffffffffffffffffffffffffffffffff1614156112d2576040517f08c379a00000000000000000000000000000000000000000000000000000000081526004016112c99061239c565b60405180910390fd5b6112dd83838361163e565b60008060008573ffffffffffffffffffffffffffffffffffffffff1673ffffffffffffffffffffffffffffffffffffffff16815260200190815260200160002054905081811015611363576040517f08c379a000000000000000000000000000000000000000000000000000000000815260040161135a9061242e565b60405180910390fd5b8181036000808673ffffffffffffffffffffffffffffffffffffffff1673ffffffffffffffffffffffffffffffffffffffff16815260200190815260200160002081905550816000808573ffffffffffffffffffffffffffffffffffffffff1673ffffffffffffffffffffffffffffffffffffffff16815260200190815260200160002060008282546113f69190611f90565b925050819055508273ffffffffffffffffffffffffffffffffffffffff168473ffffffffffffffffffffffffffffffffffffffff167fddf252ad1be2c89b69c2b068fc378daa952ba7f163c4a11628f55a4df523b3ef8460405161145a91906119a6565b60405180910390a361146d848484611643565b50505050565b600061147e82611648565b905060008111156114da5761149382826114de565b600554600660008473ffffffffffffffffffffffffffffffffffffffff1673ffffffffffffffffffffffffffffffffffffffff168152602001908152602001600020819055505b5050565b600073ffffffffffffffffffffffffffffffffffffffff168273ffffffffffffffffffffffffffffffffffffffff16141561154e576040517f08c379a00000000000000000000000000000000000000000000000000000000081526004016115459061249a565b60405180910390fd5b61155a6000838361163e565b806002600082825461156c9190611f90565b92505081905550806000808473ffffffffffffffffffffffffffffffffffffffff1673ffffffffffffffffffffffffffffffffffffffff16815260200190815260200160002060008282546115c19190611f90565b925050819055508173ffffffffffffffffffffffffffffffffffffffff16600073ffffffffffffffffffffffffffffffffffffffff167fddf252ad1be2c89b69c2b068fc378daa952ba7f163c4a11628f55a4df523b3ef8360405161162691906119a6565b60405180910390a361163a60008383611643565b5050565b505050565b505050565b600080600660008473ffffffffffffffffffffffffffffffffffffffff1673ffffffffffffffffffffffffffffffffffffffff168152602001908152602001600020546005546116989190611e4d565b9050600760009054906101000a900473ffffffffffffffffffffffffffffffffffffffff1673ffffffffffffffffffffffffffffffffffffffff166370a08231306040518263ffffffff1660e01b81526004016116f59190611b57565b602060405180830381865afa158015611712573d6000803e3d6000fd5b505050506040513d601f19601f820116820180604052508101906117369190611d85565b816117419190611eb0565b3073ffffffffffffffffffffffffffffffffffffffff166370a08231336040518263ffffffff1660e01b815260040161177a9190611b57565b602060405180830381865afa158015611797573d6000803e3d6000fd5b505050506040513d601f19601f820116820180604052508101906117bb9190611d85565b6117c59190611ee1565b915050919050565b600081519050919050565b600082825260208201905092915050565b60005b838110156118075780820151818401526020810190506117ec565b83811115611816576000848401525b50505050565b6000601f19601f8301169050919050565b6000611838826117cd565b61184281856117d8565b93506118528185602086016117e9565b61185b8161181c565b840191505092915050565b60006020820190508181036000830152611880818461182d565b905092915050565b600080fd5b600073ffffffffffffffffffffffffffffffffffffffff82169050919050565b60006118b88261188d565b9050919050565b6118c8816118ad565b81146118d357600080fd5b50565b6000813590506118e5816118bf565b92915050565b6000819050919050565b6118fe816118eb565b811461190957600080fd5b50565b60008135905061191b816118f5565b92915050565b6000806040838503121561193857611937611888565b5b6000611946858286016118d6565b92505060206119578582860161190c565b9150509250929050565b60008115159050919050565b61197681611961565b82525050565b6000602082019050611991600083018461196d565b92915050565b6119a0816118eb565b82525050565b60006020820190506119bb6000830184611997565b92915050565b6000806000606084860312156119da576119d9611888565b5b60006119e8868287016118d6565b93505060206119f9868287016118d6565b9250506040611a0a8682870161190c565b9150509250925092565b600060208284031215611a2a57611a29611888565b5b6000611a388482850161190c565b91505092915050565b600060ff82169050919050565b611a5781611a41565b82525050565b6000602082019050611a726000830184611a4e565b92915050565b611a81816118ad565b82525050565b6000604082019050611a9c6000830185611a78565b611aa96020830184611997565b9392505050565b6000819050919050565b6000611ad5611ad0611acb8461188d565b611ab0565b61188d565b9050919050565b6000611ae782611aba565b9050919050565b6000611af982611adc565b9050919050565b611b0981611aee565b82525050565b6000602082019050611b246000830184611b00565b92915050565b600060208284031215611b4057611b3f611888565b5b6000611b4e848285016118d6565b91505092915050565b6000602082019050611b6c6000830184611a78565b92915050565b6000611b7d82611aba565b9050919050565b6000611b8f82611b72565b9050919050565b611b9f81611b84565b82525050565b6000602082019050611bba6000830184611b96565b92915050565b6000611bcb8261188d565b9050919050565b6000611bdd82611bc0565b9050919050565b611bed81611bd2565b8114611bf857600080fd5b50565b600081359050611c0a81611be4565b92915050565b600060208284031215611c2657611c25611888565b5b6000611c3484828501611bfb565b91505092915050565b60008060408385031215611c5457611c53611888565b5b6000611c62858286016118d6565b9250506020611c73858286016118d6565b9150509250929050565b7f4e487b7100000000000000000000000000000000000000000000000000000000600052602260045260246000fd5b60006002820490506001821680611cc457607f821691505b60208210811415611cd857611cd7611c7d565b5b50919050565b7f45524332303a207472616e7366657220616d6f756e742065786365656473206160008201527f6c6c6f77616e6365000000000000000000000000000000000000000000000000602082015250565b6000611d3a6028836117d8565b9150611d4582611cde565b604082019050919050565b60006020820190508181036000830152611d6981611d2d565b9050919050565b600081519050611d7f816118f5565b92915050565b600060208284031215611d9b57611d9a611888565b5b6000611da984828501611d70565b91505092915050565b7f6e6f000000000000000000000000000000000000000000000000000000000000600082015250565b6000611de86002836117d8565b9150611df382611db2565b602082019050919050565b60006020820190508181036000830152611e1781611ddb565b9050919050565b7f4e487b7100000000000000000000000000000000000000000000000000000000600052601160045260246000fd5b6000611e58826118eb565b9150611e63836118eb565b925082821015611e7657611e75611e1e565b5b828203905092915050565b7f4e487b7100000000000000000000000000000000000000000000000000000000600052601260045260246000fd5b6000611ebb826118eb565b9150611ec6836118eb565b925082611ed657611ed5611e81565b5b828204905092915050565b6000611eec826118eb565b9150611ef7836118eb565b9250817fffffffffffffffffffffffffffffffffffffffffffffffffffffffffffffffff0483118215151615611f3057611f2f611e1e565b5b828202905092915050565b600081519050611f4a816118bf565b92915050565b60008060408385031215611f6757611f66611888565b5b6000611f7585828601611f3b565b9250506020611f8685828601611d70565b9150509250929050565b6000611f9b826118eb565b9150611fa6836118eb565b9250827fffffffffffffffffffffffffffffffffffffffffffffffffffffffffffffffff03821115611fdb57611fda611e1e565b5b828201905092915050565b7f45524332303a2064656372656173656420616c6c6f77616e63652062656c6f7760008201527f207a65726f000000000000000000000000000000000000000000000000000000602082015250565b60006120426025836117d8565b915061204d82611fe6565b604082019050919050565b6000602082019050818103600083015261207181612035565b9050919050565b600060608201905061208d6000830186611a78565b61209a6020830185611a78565b6120a76040830184611997565b949350505050565b6120b881611961565b81146120c357600080fd5b50565b6000815190506120d5816120af565b92915050565b6000602082840312156120f1576120f0611888565b5b60006120ff848285016120c6565b91505092915050565b7f2161646d696e0000000000000000000000000000000000000000000000000000600082015250565b600061213e6006836117d8565b915061214982612108565b602082019050919050565b6000602082019050818103600083015261216d81612131565b9050919050565b7f45524332303a20617070726f76652066726f6d20746865207a65726f2061646460008201527f7265737300000000000000000000000000000000000000000000000000000000602082015250565b60006121d06024836117d8565b91506121db82612174565b604082019050919050565b600060208201905081810360008301526121ff816121c3565b9050919050565b7f45524332303a20617070726f766520746f20746865207a65726f20616464726560008201527f7373000000000000000000000000000000000000000000000000000000000000602082015250565b60006122626022836117d8565b915061226d82612206565b604082019050919050565b6000602082019050818103600083015261229181612255565b9050919050565b7f45524332303a207472616e736665722066726f6d20746865207a65726f20616460008201527f6472657373000000000000000000000000000000000000000000000000000000602082015250565b60006122f46025836117d8565b91506122ff82612298565b604082019050919050565b60006020820190508181036000830152612323816122e7565b9050919050565b7f45524332303a207472616e7366657220746f20746865207a65726f206164647260008201527f6573730000000000000000000000000000000000000000000000000000000000602082015250565b60006123866023836117d8565b91506123918261232a565b604082019050919050565b600060208201905081810360008301526123b581612379565b9050919050565b7f45524332303a207472616e7366657220616d6f756e742065786365656473206260008201527f616c616e63650000000000000000000000000000000000000000000000000000602082015250565b60006124186026836117d8565b9150612423826123bc565b604082019050919050565b600060208201905081810360008301526124478161240b565b9050919050565b7f45524332303a206d696e7420746f20746865207a65726f206164647265737300600082015250565b6000612484601f836117d8565b915061248f8261244e565b602082019050919050565b600060208201905081810360008301526124b381612477565b905091905056fea2646970667358221220b855a39cda2069de5140090e85673927be9999e55ad437148032224fa0d3ec3d64736f6c634300080a0033",
  "immutableReferences": {
    "1076": [
      {
        "length": 32,
        "start": 2450
      }
    ]
  },
  "source": "// SPDX-License-Identifier: MIT \npragma solidity ^0.8.10; \n\nimport \"@openzeppelin/contracts/token/ERC20/IERC20.sol\"; \nimport \"@openzeppelin/contracts/token/ERC20/ERC20.sol\"; \nimport \"./strategies/ShortFarmFTM.sol\"; \n\n//The deposit contract for Djinn Finance\ncontract DjinnBottleUSDC is ERC20 {\n\n\taddress public immutable USDC = 0x04068DA6C83AFCFA0e13ba15A6696662335D5B75;  \t \n\tuint public globalRewards; \n\tmapping(address => uint) private lastHarvest; \n\tIERC20 public usdc;\n\n\taddress private admin; \t\n\tShortFarmFTM public shortStrategy; \n\n\tconstructor( address _usdc) ERC20(\"Djinn Finance USDC Vault\",\"djUSDC\") {\n\t\tadmin = msg.sender; \n\t\tusdc = IERC20(_usdc); \n\t}\n\n\tfunction initialize(ShortFarmFTM _shortStrategy) external {\n\t\trequire(msg.sender == admin, \"!admin\"); \n\t\tshortStrategy = _shortStrategy; \n\t}\n\t\n\tfunction sendAddress() public view returns(address, uint) {\n\t\treturn shortStrategy.returnSender(); \n\t}\n\n\tfunction deposit(uint amount) public {\n\t\tusdc.transferFrom(msg.sender, address(this), amount); \t\t\n\t\t//mint tokens 1:1 to usdc to keep it simple \n\t\t_mint(msg.sender, amount); \n\t\t\n\t\t//now send funds to strategy\t\n\t\tusdc.transfer(address(shortStrategy), amount); \n\t\tshortStrategy.open(amount);  \n\t}\n\t\n\t//we get msg.sender's % of pool and then subtract amount to get percent to withdraw\n\tfunction withdraw(uint amount) public {\n\t\trequire(amount <= IERC20(address(this)).balanceOf(msg.sender), \"no\"); \t\n\t\t//calculate how much the user is owed in LP tokens \n\t\tuint newAmount = IERC20(address(this)).balanceOf(msg.sender) - amount; \n\t\tuint percentToWithdraw = newAmount / totalSupply() * 100; \n\t\t//then we pass this to the strategy contract to withdraw the correct % of LP tokens\n\t\tshortStrategy.close(percentToWithdraw); \n\n\t\t//send back user their usdc \n\t\t//usdc.transfer(msg.sender, amount); \n\t}\t\n\n\tfunction claim() external {\n\t\tcheckHarvest(msg.sender); \n\t}\n\t\n\t//get percentage of profits by balance of this erc20 token in wallet \n\tfunction harvest(address user) internal view returns(uint) {\n\t\tuint percentageReward = globalRewards - lastHarvest[user]; \n\t\t\n\t\treturn IERC20(address(this)).balanceOf(msg.sender) * (percentageReward / usdc.balanceOf(address(this))); \n\t}\n\n\tfunction checkHarvest(address user) internal {\n\t\tuint owed = harvest(user); \n\t\tif (owed > 0) { \n\t\t\t_mint(user, owed); \n\t\t\tlastHarvest[user] = globalRewards; \n\t\t}\n\t}\n\t\n\t//deposits from strategies using this function  \n\tfunction depositProfits(uint amount) external {\n\t\trequire(msg.sender == admin, \"no\"); \n\t\tusdc.transferFrom(msg.sender, address(this), amount); \n\t\n\t\tglobalRewards += amount; \n\t}\n}\n\n\n",
  "sourcePath": "/home/kevin/Code/solidity_projects/djinnFinance/contracts/DjinnBottleUSDC.sol",
  "compiler": {
    "name": "solc",
    "version": "0.8.10+commit.fc410830.Emscripten.clang"
  },
  "schemaVersion": "3.4.3",
  "updatedAt": "2022-01-28T21:24:35.520Z",
  "networkType": "ethereum",
  "devdoc": {
    "kind": "dev",
    "methods": {
      "allowance(address,address)": {
        "details": "See {IERC20-allowance}."
      },
      "approve(address,uint256)": {
        "details": "See {IERC20-approve}. Requirements: - `spender` cannot be the zero address."
      },
      "balanceOf(address)": {
        "details": "See {IERC20-balanceOf}."
      },
      "decimals()": {
        "details": "Returns the number of decimals used to get its user representation. For example, if `decimals` equals `2`, a balance of `505` tokens should be displayed to a user as `5.05` (`505 / 10 ** 2`). Tokens usually opt for a value of 18, imitating the relationship between Ether and Wei. This is the value {ERC20} uses, unless this function is overridden; NOTE: This information is only used for _display_ purposes: it in no way affects any of the arithmetic of the contract, including {IERC20-balanceOf} and {IERC20-transfer}."
      },
      "decreaseAllowance(address,uint256)": {
        "details": "Atomically decreases the allowance granted to `spender` by the caller. This is an alternative to {approve} that can be used as a mitigation for problems described in {IERC20-approve}. Emits an {Approval} event indicating the updated allowance. Requirements: - `spender` cannot be the zero address. - `spender` must have allowance for the caller of at least `subtractedValue`."
      },
      "increaseAllowance(address,uint256)": {
        "details": "Atomically increases the allowance granted to `spender` by the caller. This is an alternative to {approve} that can be used as a mitigation for problems described in {IERC20-approve}. Emits an {Approval} event indicating the updated allowance. Requirements: - `spender` cannot be the zero address."
      },
      "name()": {
        "details": "Returns the name of the token."
      },
      "symbol()": {
        "details": "Returns the symbol of the token, usually a shorter version of the name."
      },
      "totalSupply()": {
        "details": "See {IERC20-totalSupply}."
      },
      "transfer(address,uint256)": {
        "details": "See {IERC20-transfer}. Requirements: - `recipient` cannot be the zero address. - the caller must have a balance of at least `amount`."
      },
      "transferFrom(address,address,uint256)": {
        "details": "See {IERC20-transferFrom}. Emits an {Approval} event indicating the updated allowance. This is not required by the EIP. See the note at the beginning of {ERC20}. Requirements: - `sender` and `recipient` cannot be the zero address. - `sender` must have a balance of at least `amount`. - the caller must have allowance for ``sender``'s tokens of at least `amount`."
      }
    },
    "version": 1
  },
  "userdoc": {
    "kind": "user",
    "methods": {},
    "version": 1
  }
}