{
  "contractName": "ShortFarmFTM",
  "abi": [
    {
      "inputs": [
        {
          "internalType": "contract DjinnBottleUSDC",
          "name": "_djBottle",
          "type": "address"
        },
        {
          "internalType": "contract IUniswapV2Router02",
          "name": "_spookyRouter",
          "type": "address"
        },
        {
          "internalType": "contract ComptrollerInterface",
          "name": "_comptroller",
          "type": "address"
        },
        {
          "internalType": "contract IStdReference",
          "name": "_priceOracle",
          "type": "address"
        },
        {
          "internalType": "contract CERC20",
          "name": "_cERC20",
          "type": "address"
        }
      ],
      "stateMutability": "nonpayable",
      "type": "constructor"
    },
    {
      "anonymous": false,
      "inputs": [
        {
          "indexed": true,
          "internalType": "address",
          "name": "owner",
          "type": "address"
        },
        {
          "indexed": true,
          "internalType": "address",
          "name": "spender",
          "type": "address"
        },
        {
          "indexed": false,
          "internalType": "uint256",
          "name": "value",
          "type": "uint256"
        }
      ],
      "name": "Approval",
      "type": "event"
    },
    {
      "anonymous": false,
      "inputs": [
        {
          "indexed": true,
          "internalType": "address",
          "name": "from",
          "type": "address"
        },
        {
          "indexed": true,
          "internalType": "address",
          "name": "to",
          "type": "address"
        },
        {
          "indexed": false,
          "internalType": "uint256",
          "name": "value",
          "type": "uint256"
        }
      ],
      "name": "Transfer",
      "type": "event"
    },
    {
      "inputs": [],
      "name": "TOMB",
      "outputs": [
        {
          "internalType": "address",
          "name": "",
          "type": "address"
        }
      ],
      "stateMutability": "view",
      "type": "function",
      "constant": true
    },
    {
      "inputs": [],
      "name": "TSHARE",
      "outputs": [
        {
          "internalType": "address",
          "name": "",
          "type": "address"
        }
      ],
      "stateMutability": "view",
      "type": "function",
      "constant": true
    },
    {
      "inputs": [],
      "name": "USDC",
      "outputs": [
        {
          "internalType": "address",
          "name": "",
          "type": "address"
        }
      ],
      "stateMutability": "view",
      "type": "function",
      "constant": true
    },
    {
      "inputs": [],
      "name": "VAULT",
      "outputs": [
        {
          "internalType": "contract DjinnBottleUSDC",
          "name": "",
          "type": "address"
        }
      ],
      "stateMutability": "view",
      "type": "function",
      "constant": true
    },
    {
      "inputs": [],
      "name": "WFTM",
      "outputs": [
        {
          "internalType": "address",
          "name": "",
          "type": "address"
        }
      ],
      "stateMutability": "view",
      "type": "function",
      "constant": true
    },
    {
      "inputs": [
        {
          "internalType": "address",
          "name": "owner",
          "type": "address"
        },
        {
          "internalType": "address",
          "name": "spender",
          "type": "address"
        }
      ],
      "name": "allowance",
      "outputs": [
        {
          "internalType": "uint256",
          "name": "",
          "type": "uint256"
        }
      ],
      "stateMutability": "view",
      "type": "function",
      "constant": true
    },
    {
      "inputs": [
        {
          "internalType": "address",
          "name": "spender",
          "type": "address"
        },
        {
          "internalType": "uint256",
          "name": "amount",
          "type": "uint256"
        }
      ],
      "name": "approve",
      "outputs": [
        {
          "internalType": "bool",
          "name": "",
          "type": "bool"
        }
      ],
      "stateMutability": "nonpayable",
      "type": "function"
    },
    {
      "inputs": [
        {
          "internalType": "address",
          "name": "account",
          "type": "address"
        }
      ],
      "name": "balanceOf",
      "outputs": [
        {
          "internalType": "uint256",
          "name": "",
          "type": "uint256"
        }
      ],
      "stateMutability": "view",
      "type": "function",
      "constant": true
    },
    {
      "inputs": [],
      "name": "comptroller",
      "outputs": [
        {
          "internalType": "contract ComptrollerInterface",
          "name": "",
          "type": "address"
        }
      ],
      "stateMutability": "view",
      "type": "function",
      "constant": true
    },
    {
      "inputs": [],
      "name": "crUSDC",
      "outputs": [
        {
          "internalType": "address",
          "name": "",
          "type": "address"
        }
      ],
      "stateMutability": "view",
      "type": "function",
      "constant": true
    },
    {
      "inputs": [],
      "name": "crWFTM",
      "outputs": [
        {
          "internalType": "contract CERC20",
          "name": "",
          "type": "address"
        }
      ],
      "stateMutability": "view",
      "type": "function",
      "constant": true
    },
    {
      "inputs": [],
      "name": "creator",
      "outputs": [
        {
          "internalType": "address",
          "name": "",
          "type": "address"
        }
      ],
      "stateMutability": "view",
      "type": "function",
      "constant": true
    },
    {
      "inputs": [],
      "name": "decimals",
      "outputs": [
        {
          "internalType": "uint8",
          "name": "",
          "type": "uint8"
        }
      ],
      "stateMutability": "view",
      "type": "function",
      "constant": true
    },
    {
      "inputs": [
        {
          "internalType": "address",
          "name": "spender",
          "type": "address"
        },
        {
          "internalType": "uint256",
          "name": "subtractedValue",
          "type": "uint256"
        }
      ],
      "name": "decreaseAllowance",
      "outputs": [
        {
          "internalType": "bool",
          "name": "",
          "type": "bool"
        }
      ],
      "stateMutability": "nonpayable",
      "type": "function"
    },
    {
      "inputs": [
        {
          "internalType": "address",
          "name": "",
          "type": "address"
        }
      ],
      "name": "depositBalance",
      "outputs": [
        {
          "internalType": "uint256",
          "name": "",
          "type": "uint256"
        }
      ],
      "stateMutability": "view",
      "type": "function",
      "constant": true
    },
    {
      "inputs": [
        {
          "internalType": "address",
          "name": "spender",
          "type": "address"
        },
        {
          "internalType": "uint256",
          "name": "addedValue",
          "type": "uint256"
        }
      ],
      "name": "increaseAllowance",
      "outputs": [
        {
          "internalType": "bool",
          "name": "",
          "type": "bool"
        }
      ],
      "stateMutability": "nonpayable",
      "type": "function"
    },
    {
      "inputs": [],
      "name": "name",
      "outputs": [
        {
          "internalType": "string",
          "name": "",
          "type": "string"
        }
      ],
      "stateMutability": "view",
      "type": "function",
      "constant": true
    },
    {
      "inputs": [],
      "name": "priceOracle",
      "outputs": [
        {
          "internalType": "contract IStdReference",
          "name": "",
          "type": "address"
        }
      ],
      "stateMutability": "view",
      "type": "function",
      "constant": true
    },
    {
      "inputs": [],
      "name": "spookyAddress",
      "outputs": [
        {
          "internalType": "address",
          "name": "",
          "type": "address"
        }
      ],
      "stateMutability": "view",
      "type": "function",
      "constant": true
    },
    {
      "inputs": [],
      "name": "spookyFtmTombLP",
      "outputs": [
        {
          "internalType": "address",
          "name": "",
          "type": "address"
        }
      ],
      "stateMutability": "view",
      "type": "function",
      "constant": true
    },
    {
      "inputs": [],
      "name": "spookyRouter",
      "outputs": [
        {
          "internalType": "contract IUniswapV2Router02",
          "name": "",
          "type": "address"
        }
      ],
      "stateMutability": "view",
      "type": "function",
      "constant": true
    },
    {
      "inputs": [],
      "name": "symbol",
      "outputs": [
        {
          "internalType": "string",
          "name": "",
          "type": "string"
        }
      ],
      "stateMutability": "view",
      "type": "function",
      "constant": true
    },
    {
      "inputs": [],
      "name": "tShareRewardPool",
      "outputs": [
        {
          "internalType": "address",
          "name": "",
          "type": "address"
        }
      ],
      "stateMutability": "view",
      "type": "function",
      "constant": true
    },
    {
      "inputs": [],
      "name": "totalSupply",
      "outputs": [
        {
          "internalType": "uint256",
          "name": "",
          "type": "uint256"
        }
      ],
      "stateMutability": "view",
      "type": "function",
      "constant": true
    },
    {
      "inputs": [
        {
          "internalType": "address",
          "name": "recipient",
          "type": "address"
        },
        {
          "internalType": "uint256",
          "name": "amount",
          "type": "uint256"
        }
      ],
      "name": "transfer",
      "outputs": [
        {
          "internalType": "bool",
          "name": "",
          "type": "bool"
        }
      ],
      "stateMutability": "nonpayable",
      "type": "function"
    },
    {
      "inputs": [
        {
          "internalType": "address",
          "name": "sender",
          "type": "address"
        },
        {
          "internalType": "address",
          "name": "recipient",
          "type": "address"
        },
        {
          "internalType": "uint256",
          "name": "amount",
          "type": "uint256"
        }
      ],
      "name": "transferFrom",
      "outputs": [
        {
          "internalType": "bool",
          "name": "",
          "type": "bool"
        }
      ],
      "stateMutability": "nonpayable",
      "type": "function"
    },
    {
      "stateMutability": "payable",
      "type": "receive",
      "payable": true
    },
    {
      "inputs": [
        {
          "internalType": "address",
          "name": "user",
          "type": "address"
        },
        {
          "internalType": "uint256",
          "name": "amount",
          "type": "uint256"
        }
      ],
      "name": "open",
      "outputs": [],
      "stateMutability": "nonpayable",
      "type": "function"
    },
    {
      "inputs": [],
      "name": "harvest",
      "outputs": [],
      "stateMutability": "nonpayable",
      "type": "function"
    },
    {
      "inputs": [
        {
          "internalType": "address",
          "name": "user",
          "type": "address"
        },
        {
          "internalType": "uint256",
          "name": "amountShares",
          "type": "uint256"
        }
      ],
      "name": "close",
      "outputs": [],
      "stateMutability": "nonpayable",
      "type": "function"
    },
    {
      "inputs": [],
      "name": "getbal",
      "outputs": [
        {
          "internalType": "uint256",
          "name": "",
          "type": "uint256"
        }
      ],
      "stateMutability": "view",
      "type": "function",
      "constant": true
    },
    {
      "inputs": [],
      "name": "getUnderlying",
      "outputs": [
        {
          "internalType": "uint256",
          "name": "",
          "type": "uint256"
        }
      ],
      "stateMutability": "nonpayable",
      "type": "function"
    },
    {
      "inputs": [],
      "name": "getLPBalnace",
      "outputs": [
        {
          "internalType": "uint256",
          "name": "lpAmount",
          "type": "uint256"
        }
      ],
      "stateMutability": "view",
      "type": "function",
      "constant": true
    }
  ],
  "bytecode": "0x6101006040523480156200001257600080fd5b506040516200530c3803806200530c83398181016040528101906200003891906200043c565b6040518060400160405280601c81526020017f446a696e6e2046696e616e63652046544d2053686f7274204661726d000000008152506040518060400160405280600a81526020017f646646544d53686f7274000000000000000000000000000000000000000000008152508160039080519060200190620000bc929190620001fa565b508060049080519060200190620000d5929190620001fa565b505050600033905085600660006101000a81548173ffffffffffffffffffffffffffffffffffffffff021916908373ffffffffffffffffffffffffffffffffffffffff1602179055508473ffffffffffffffffffffffffffffffffffffffff1660808173ffffffffffffffffffffffffffffffffffffffff16815250508373ffffffffffffffffffffffffffffffffffffffff1660a08173ffffffffffffffffffffffffffffffffffffffff16815250508273ffffffffffffffffffffffffffffffffffffffff1660c08173ffffffffffffffffffffffffffffffffffffffff16815250508173ffffffffffffffffffffffffffffffffffffffff1660e08173ffffffffffffffffffffffffffffffffffffffff168152505050505050505062000529565b8280546200020890620004f3565b90600052602060002090601f0160209004810192826200022c576000855562000278565b82601f106200024757805160ff191683800117855562000278565b8280016001018555821562000278579182015b82811115620002775782518255916020019190600101906200025a565b5b5090506200028791906200028b565b5090565b5b80821115620002a65760008160009055506001016200028c565b5090565b600080fd5b600073ffffffffffffffffffffffffffffffffffffffff82169050919050565b6000620002dc82620002af565b9050919050565b6000620002f082620002cf565b9050919050565b6200030281620002e3565b81146200030e57600080fd5b50565b6000815190506200032281620002f7565b92915050565b60006200033582620002cf565b9050919050565b620003478162000328565b81146200035357600080fd5b50565b60008151905062000367816200033c565b92915050565b60006200037a82620002cf565b9050919050565b6200038c816200036d565b81146200039857600080fd5b50565b600081519050620003ac8162000381565b92915050565b6000620003bf82620002cf565b9050919050565b620003d181620003b2565b8114620003dd57600080fd5b50565b600081519050620003f181620003c6565b92915050565b60006200040482620002cf565b9050919050565b6200041681620003f7565b81146200042257600080fd5b50565b60008151905062000436816200040b565b92915050565b600080600080600060a086880312156200045b576200045a620002aa565b5b60006200046b8882890162000311565b95505060206200047e8882890162000356565b945050604062000491888289016200039b565b9350506060620004a488828901620003e0565b9250506080620004b78882890162000425565b9150509295509295909350565b7f4e487b7100000000000000000000000000000000000000000000000000000000600052602260045260246000fd5b600060028204905060018216806200050c57607f821691505b60208210811415620005235762000522620004c4565b5b50919050565b60805160a05160c05160e051614d63620005a9600039600081816108d30152818161167b0152818161342301526134a6015260008181610a9c01528181612a600152613297015260008181610cdf015281816115cb01526129bc015260008181610d7b01528181612462015281816126a801526131dd0152614d636000f3fe6080604052600436106101e75760003560e01c806370a08231116101025780639d84fe8111610095578063b5ee45c111610064578063b5ee45c11461070f578063c139acfa1461073a578063dd62ed3e14610765578063e49280cb146107a2576101ee565b80639d84fe811461063f578063a457c2d71461066a578063a6f8d405146106a7578063a9059cbb146106d2576101ee565b8063956501bb116100d1578063956501bb1461058157806395d89b41146105be5780639816f473146105e95780639cdd8ee714610614576101ee565b806370a08231146104c357806382c70bbf1461050057806389a302711461052b5780638ed8ea7e14610556576101ee565b806323b872dd1161017a57806339509351116101495780633950935114610419578063411557d1146104565780634641257d146104815780635fe3b56714610498576101ee565b806323b872dd1461035b5780632630c12f146103985780632c1c1836146103c3578063313ce567146103ee576101ee565b806318160ddd116101b657806318160ddd146102af5780631882bf44146102da5780631b3f4e071461030557806321dbe87614610330576101ee565b806302d05d3f146101f357806306fdde031461021e578063095ea7b3146102495780630a0e5c9d14610286576101ee565b366101ee57005b600080fd5b3480156101ff57600080fd5b506102086107cb565b604051610215919061393f565b60405180910390f35b34801561022a57600080fd5b506102336107f1565b60405161024091906139f3565b60405180910390f35b34801561025557600080fd5b50610270600480360381019061026b9190613a8b565b610883565b60405161027d9190613ae6565b60405180910390f35b34801561029257600080fd5b506102ad60048036038101906102a89190613a8b565b6108a1565b005b3480156102bb57600080fd5b506102c46108c7565b6040516102d19190613b10565b60405180910390f35b3480156102e657600080fd5b506102ef6108d1565b6040516102fc9190613b8a565b60405180910390f35b34801561031157600080fd5b5061031a6108f5565b6040516103279190613b10565b60405180910390f35b34801561033c57600080fd5b5061034561098a565b604051610352919061393f565b60405180910390f35b34801561036757600080fd5b50610382600480360381019061037d9190613ba5565b6109a2565b60405161038f9190613ae6565b60405180910390f35b3480156103a457600080fd5b506103ad610a9a565b6040516103ba9190613c19565b60405180910390f35b3480156103cf57600080fd5b506103d8610abe565b6040516103e5919061393f565b60405180910390f35b3480156103fa57600080fd5b50610403610ad6565b6040516104109190613c50565b60405180910390f35b34801561042557600080fd5b50610440600480360381019061043b9190613a8b565b610adf565b60405161044d9190613ae6565b60405180910390f35b34801561046257600080fd5b5061046b610b8b565b6040516104789190613c8c565b60405180910390f35b34801561048d57600080fd5b50610496610bb1565b005b3480156104a457600080fd5b506104ad610cdd565b6040516104ba9190613cc8565b60405180910390f35b3480156104cf57600080fd5b506104ea60048036038101906104e59190613ce3565b610d01565b6040516104f79190613b10565b60405180910390f35b34801561050c57600080fd5b50610515610d49565b604051610522919061393f565b60405180910390f35b34801561053757600080fd5b50610540610d61565b60405161054d919061393f565b60405180910390f35b34801561056257600080fd5b5061056b610d79565b6040516105789190613d31565b60405180910390f35b34801561058d57600080fd5b506105a860048036038101906105a39190613ce3565b610d9d565b6040516105b59190613b10565b60405180910390f35b3480156105ca57600080fd5b506105d3610db5565b6040516105e091906139f3565b60405180910390f35b3480156105f557600080fd5b506105fe610e47565b60405161060b9190613b10565b60405180910390f35b34801561062057600080fd5b50610629610ede565b604051610636919061393f565b60405180910390f35b34801561064b57600080fd5b50610654610ef6565b6040516106619190613b10565b60405180910390f35b34801561067657600080fd5b50610691600480360381019061068c9190613a8b565b610f8b565b60405161069e9190613ae6565b60405180910390f35b3480156106b357600080fd5b506106bc611076565b6040516106c9919061393f565b60405180910390f35b3480156106de57600080fd5b506106f960048036038101906106f49190613a8b565b61108e565b6040516107069190613ae6565b60405180910390f35b34801561071b57600080fd5b506107246110ac565b604051610731919061393f565b60405180910390f35b34801561074657600080fd5b5061074f6110c4565b60405161075c919061393f565b60405180910390f35b34801561077157600080fd5b5061078c60048036038101906107879190613d4c565b6110dc565b6040516107999190613b10565b60405180910390f35b3480156107ae57600080fd5b506107c960048036038101906107c49190613a8b565b611163565b005b600560009054906101000a900473ffffffffffffffffffffffffffffffffffffffff1681565b60606003805461080090613dbb565b80601f016020809104026020016040519081016040528092919081815260200182805461082c90613dbb565b80156108795780601f1061084e57610100808354040283529160200191610879565b820191906000526020600020905b81548152906001019060200180831161085c57829003601f168201915b5050505050905090565b6000610897610890611201565b8484611209565b6001905092915050565b6108ab82826113d4565b6108b3611791565b6108bb611a99565b6108c3611de5565b5050565b6000600254905090565b7f000000000000000000000000000000000000000000000000000000000000000081565b6000732a651563c9d3af67ae0388a5c8f89b867038089e73ffffffffffffffffffffffffffffffffffffffff166370a08231306040518263ffffffff1660e01b8152600401610944919061393f565b602060405180830381865afa158015610961573d6000803e3d6000fd5b505050506040513d601f19601f820116820180604052508101906109859190613e02565b905090565b7321be370d5312f44cb42ce377bc9b8a0cef1a4c8381565b60006109af848484611fad565b6000600160008673ffffffffffffffffffffffffffffffffffffffff1673ffffffffffffffffffffffffffffffffffffffff16815260200190815260200160002060006109fa611201565b73ffffffffffffffffffffffffffffffffffffffff1673ffffffffffffffffffffffffffffffffffffffff16815260200190815260200160002054905082811015610a7a576040517f08c379a0000000000000000000000000000000000000000000000000000000008152600401610a7190613ea1565b60405180910390fd5b610a8e85610a86611201565b858403611209565b60019150509392505050565b7f000000000000000000000000000000000000000000000000000000000000000081565b73cc0a87f7e7c693042a9cc703661f5060c80acb4381565b60006012905090565b6000610b81610aec611201565b848460016000610afa611201565b73ffffffffffffffffffffffffffffffffffffffff1673ffffffffffffffffffffffffffffffffffffffff16815260200190815260200160002060008873ffffffffffffffffffffffffffffffffffffffff1673ffffffffffffffffffffffffffffffffffffffff16815260200190815260200160002054610b7c9190613ef0565b611209565b6001905092915050565b600660009054906101000a900473ffffffffffffffffffffffffffffffffffffffff1681565b600660009054906101000a900473ffffffffffffffffffffffffffffffffffffffff1673ffffffffffffffffffffffffffffffffffffffff163373ffffffffffffffffffffffffffffffffffffffff1614610c41576040517f08c379a0000000000000000000000000000000000000000000000000000000008152600401610c3890613f92565b60405180910390fd5b73cc0a87f7e7c693042a9cc703661f5060c80acb4373ffffffffffffffffffffffffffffffffffffffff1663e2bbb1586000806040518363ffffffff1660e01b8152600401610c91929190613fed565b600060405180830381600087803b158015610cab57600080fd5b505af1158015610cbf573d6000803e3d6000fd5b50505050610ccb61222e565b610cd3611a99565b610cdb611de5565b565b7f000000000000000000000000000000000000000000000000000000000000000081565b60008060008373ffffffffffffffffffffffffffffffffffffffff1673ffffffffffffffffffffffffffffffffffffffff168152602001908152602001600020549050919050565b73328a7b4d538a2b3942653a9983fda3c12c57114181565b7304068da6c83afcfa0e13ba15a6696662335d5b7581565b7f000000000000000000000000000000000000000000000000000000000000000081565b60076020528060005260406000206000915090505481565b606060048054610dc490613dbb565b80601f0160208091040260200160405190810160405280929190818152602001828054610df090613dbb565b8015610e3d5780601f10610e1257610100808354040283529160200191610e3d565b820191906000526020600020905b815481529060010190602001808311610e2057829003601f168201915b5050505050905090565b600073328a7b4d538a2b3942653a9983fda3c12c57114173ffffffffffffffffffffffffffffffffffffffff16633af9e669306040518263ffffffff1660e01b8152600401610e96919061393f565b6020604051808303816000875af1158015610eb5573d6000803e3d6000fd5b505050506040513d601f19601f82011682018060405250810190610ed99190613e02565b905090565b732a651563c9d3af67ae0388a5c8f89b867038089e81565b6000732a651563c9d3af67ae0388a5c8f89b867038089e73ffffffffffffffffffffffffffffffffffffffff166370a08231306040518263ffffffff1660e01b8152600401610f45919061393f565b602060405180830381865afa158015610f62573d6000803e3d6000fd5b505050506040513d601f19601f82011682018060405250810190610f869190613e02565b905090565b60008060016000610f9a611201565b73ffffffffffffffffffffffffffffffffffffffff1673ffffffffffffffffffffffffffffffffffffffff16815260200190815260200160002060008573ffffffffffffffffffffffffffffffffffffffff1673ffffffffffffffffffffffffffffffffffffffff16815260200190815260200160002054905082811015611057576040517f08c379a000000000000000000000000000000000000000000000000000000000815260040161104e90614088565b60405180910390fd5b61106b611062611201565b85858403611209565b600191505092915050565b73f491e7b69e4244ad4002bc14e878a34207e38c2981565b60006110a261109b611201565b8484611fad565b6001905092915050565b734cdf39285d7ca8eb3f090fda0c069ba5f4145b3781565b736c021ae822bea943b2e66552bde1d2696a53fbb781565b6000600160008473ffffffffffffffffffffffffffffffffffffffff1673ffffffffffffffffffffffffffffffffffffffff16815260200190815260200160002060008373ffffffffffffffffffffffffffffffffffffffff1673ffffffffffffffffffffffffffffffffffffffff16815260200190815260200160002054905092915050565b600660009054906101000a900473ffffffffffffffffffffffffffffffffffffffff1673ffffffffffffffffffffffffffffffffffffffff163373ffffffffffffffffffffffffffffffffffffffff16146111f3576040517f08c379a00000000000000000000000000000000000000000000000000000000081526004016111ea906140f4565b60405180910390fd5b6111fd828261274d565b5050565b600033905090565b600073ffffffffffffffffffffffffffffffffffffffff168373ffffffffffffffffffffffffffffffffffffffff161415611279576040517f08c379a000000000000000000000000000000000000000000000000000000000815260040161127090614186565b60405180910390fd5b600073ffffffffffffffffffffffffffffffffffffffff168273ffffffffffffffffffffffffffffffffffffffff1614156112e9576040517f08c379a00000000000000000000000000000000000000000000000000000000081526004016112e090614218565b60405180910390fd5b80600160008573ffffffffffffffffffffffffffffffffffffffff1673ffffffffffffffffffffffffffffffffffffffff16815260200190815260200160002060008473ffffffffffffffffffffffffffffffffffffffff1673ffffffffffffffffffffffffffffffffffffffff168152602001908152602001600020819055508173ffffffffffffffffffffffffffffffffffffffff168373ffffffffffffffffffffffffffffffffffffffff167f8c5be1e5ebec7d5bd14f71427d1e84f3dd0314c0f7b2291e5b200ac8c7c3b925836040516113c79190613b10565b60405180910390a3505050565b60006113de610e47565b90507304068da6c83afcfa0e13ba15a6696662335d5b7573ffffffffffffffffffffffffffffffffffffffff1663095ea7b373328a7b4d538a2b3942653a9983fda3c12c571141846040518363ffffffff1660e01b8152600401611443929190614238565b6020604051808303816000875af1158015611462573d6000803e3d6000fd5b505050506040513d601f19601f82011682018060405250810190611486919061428d565b5073328a7b4d538a2b3942653a9983fda3c12c57114173ffffffffffffffffffffffffffffffffffffffff1663a0712d68836040518263ffffffff1660e01b81526004016114d49190613b10565b6020604051808303816000875af11580156114f3573d6000803e3d6000fd5b505050506040513d601f19601f820116820180604052508101906115179190613e02565b506000600167ffffffffffffffff811115611535576115346142ba565b5b6040519080825280602002602001820160405280156115635781602001602082028036833780820191505090505b50905073328a7b4d538a2b3942653a9983fda3c12c5711418160008151811061158f5761158e6142e9565b5b602002602001019073ffffffffffffffffffffffffffffffffffffffff16908173ffffffffffffffffffffffffffffffffffffffff16815250507f000000000000000000000000000000000000000000000000000000000000000073ffffffffffffffffffffffffffffffffffffffff1663c2998238826040518263ffffffff1660e01b815260040161162291906143d6565b6000604051808303816000875af1158015611641573d6000803e3d6000fd5b505050506040513d6000823e3d601f19601f8201168201806040525081019061166a9190614511565b5060006116756129b5565b509150507f000000000000000000000000000000000000000000000000000000000000000073ffffffffffffffffffffffffffffffffffffffff1663c5ebeaec826040518263ffffffff1660e01b81526004016116d29190613b10565b6020604051808303816000875af11580156116f1573d6000803e3d6000fd5b505050506040513d601f19601f820116820180604052508101906117159190613e02565b506000611720610e47565b905060008482611730919061455a565b905080600760008973ffffffffffffffffffffffffffffffffffffffff1673ffffffffffffffffffffffffffffffffffffffff16815260200190815260200160002060008282546117819190613ef0565b9250508190555050505050505050565b6000606460327321be370d5312f44cb42ce377bc9b8a0cef1a4c8373ffffffffffffffffffffffffffffffffffffffff166370a08231306040518263ffffffff1660e01b81526004016117e4919061393f565b602060405180830381865afa158015611801573d6000803e3d6000fd5b505050506040513d601f19601f820116820180604052508101906118259190613e02565b61182f919061458e565b6118399190614617565b90507321be370d5312f44cb42ce377bc9b8a0cef1a4c8373ffffffffffffffffffffffffffffffffffffffff1663095ea7b373f491e7b69e4244ad4002bc14e878a34207e38c29836040518363ffffffff1660e01b815260040161189e929190614238565b6020604051808303816000875af11580156118bd573d6000803e3d6000fd5b505050506040513d601f19601f820116820180604052508101906118e1919061428d565b506000600267ffffffffffffffff8111156118ff576118fe6142ba565b5b60405190808252806020026020018201604052801561192d5781602001602082028036833780820191505090505b5090507321be370d5312f44cb42ce377bc9b8a0cef1a4c8381600081518110611959576119586142e9565b5b602002602001019073ffffffffffffffffffffffffffffffffffffffff16908173ffffffffffffffffffffffffffffffffffffffff1681525050736c021ae822bea943b2e66552bde1d2696a53fbb7816001815181106119bc576119bb6142e9565b5b602002602001019073ffffffffffffffffffffffffffffffffffffffff16908173ffffffffffffffffffffffffffffffffffffffff168152505073f491e7b69e4244ad4002bc14e878a34207e38c2973ffffffffffffffffffffffffffffffffffffffff166338ed17398360008430426040518663ffffffff1660e01b8152600401611a4c959493929190614648565b6000604051808303816000875af1158015611a6b573d6000803e3d6000fd5b505050506040513d6000823e3d601f19601f82011682018060405250810190611a949190614511565b505050565b6000736c021ae822bea943b2e66552bde1d2696a53fbb773ffffffffffffffffffffffffffffffffffffffff166370a08231306040518263ffffffff1660e01b8152600401611ae8919061393f565b602060405180830381865afa158015611b05573d6000803e3d6000fd5b505050506040513d601f19601f82011682018060405250810190611b299190613e02565b905060007321be370d5312f44cb42ce377bc9b8a0cef1a4c8373ffffffffffffffffffffffffffffffffffffffff166370a08231306040518263ffffffff1660e01b8152600401611b7a919061393f565b602060405180830381865afa158015611b97573d6000803e3d6000fd5b505050506040513d601f19601f82011682018060405250810190611bbb9190613e02565b9050736c021ae822bea943b2e66552bde1d2696a53fbb773ffffffffffffffffffffffffffffffffffffffff1663095ea7b373f491e7b69e4244ad4002bc14e878a34207e38c29846040518363ffffffff1660e01b8152600401611c20929190614238565b6020604051808303816000875af1158015611c3f573d6000803e3d6000fd5b505050506040513d601f19601f82011682018060405250810190611c63919061428d565b507321be370d5312f44cb42ce377bc9b8a0cef1a4c8373ffffffffffffffffffffffffffffffffffffffff1663095ea7b373f491e7b69e4244ad4002bc14e878a34207e38c29836040518363ffffffff1660e01b8152600401611cc7929190614238565b6020604051808303816000875af1158015611ce6573d6000803e3d6000fd5b505050506040513d601f19601f82011682018060405250810190611d0a919061428d565b5073f491e7b69e4244ad4002bc14e878a34207e38c2973ffffffffffffffffffffffffffffffffffffffff1663e8e33700736c021ae822bea943b2e66552bde1d2696a53fbb77321be370d5312f44cb42ce377bc9b8a0cef1a4c83858560018030601e42611d789190613ef0565b6040518963ffffffff1660e01b8152600401611d9b9897969594939291906146dd565b6060604051808303816000875af1158015611dba573d6000803e3d6000fd5b505050506040513d601f19601f82011682018060405250810190611dde919061475b565b5050505050565b6000732a651563c9d3af67ae0388a5c8f89b867038089e73ffffffffffffffffffffffffffffffffffffffff166370a08231306040518263ffffffff1660e01b8152600401611e34919061393f565b602060405180830381865afa158015611e51573d6000803e3d6000fd5b505050506040513d601f19601f82011682018060405250810190611e759190613e02565b9050611e813082612b44565b732a651563c9d3af67ae0388a5c8f89b867038089e73ffffffffffffffffffffffffffffffffffffffff1663095ea7b373cc0a87f7e7c693042a9cc703661f5060c80acb43836040518363ffffffff1660e01b8152600401611ee4929190614238565b6020604051808303816000875af1158015611f03573d6000803e3d6000fd5b505050506040513d601f19601f82011682018060405250810190611f27919061428d565b5073cc0a87f7e7c693042a9cc703661f5060c80acb4373ffffffffffffffffffffffffffffffffffffffff1663e2bbb1586000836040518363ffffffff1660e01b8152600401611f789291906147ae565b600060405180830381600087803b158015611f9257600080fd5b505af1158015611fa6573d6000803e3d6000fd5b5050505050565b600073ffffffffffffffffffffffffffffffffffffffff168373ffffffffffffffffffffffffffffffffffffffff16141561201d576040517f08c379a000000000000000000000000000000000000000000000000000000000815260040161201490614849565b60405180910390fd5b600073ffffffffffffffffffffffffffffffffffffffff168273ffffffffffffffffffffffffffffffffffffffff16141561208d576040517f08c379a0000000000000000000000000000000000000000000000000000000008152600401612084906148db565b60405180910390fd5b612098838383612ca4565b60008060008573ffffffffffffffffffffffffffffffffffffffff1673ffffffffffffffffffffffffffffffffffffffff1681526020019081526020016000205490508181101561211e576040517f08c379a00000000000000000000000000000000000000000000000000000000081526004016121159061496d565b60405180910390fd5b8181036000808673ffffffffffffffffffffffffffffffffffffffff1673ffffffffffffffffffffffffffffffffffffffff16815260200190815260200160002081905550816000808573ffffffffffffffffffffffffffffffffffffffff1673ffffffffffffffffffffffffffffffffffffffff16815260200190815260200160002060008282546121b19190613ef0565b925050819055508273ffffffffffffffffffffffffffffffffffffffff168473ffffffffffffffffffffffffffffffffffffffff167fddf252ad1be2c89b69c2b068fc378daa952ba7f163c4a11628f55a4df523b3ef846040516122159190613b10565b60405180910390a3612228848484612ca9565b50505050565b600060646032734cdf39285d7ca8eb3f090fda0c069ba5f4145b3773ffffffffffffffffffffffffffffffffffffffff166370a08231306040518263ffffffff1660e01b8152600401612281919061393f565b602060405180830381865afa15801561229e573d6000803e3d6000fd5b505050506040513d601f19601f820116820180604052508101906122c29190613e02565b6122cc919061458e565b6122d69190614617565b905060006064826122e7919061458e565b90506000600367ffffffffffffffff811115612306576123056142ba565b5b6040519080825280602002602001820160405280156123345781602001602082028036833780820191505090505b509050734cdf39285d7ca8eb3f090fda0c069ba5f4145b37816000815181106123605761235f6142e9565b5b602002602001019073ffffffffffffffffffffffffffffffffffffffff16908173ffffffffffffffffffffffffffffffffffffffff16815250507321be370d5312f44cb42ce377bc9b8a0cef1a4c83816001815181106123c3576123c26142e9565b5b602002602001019073ffffffffffffffffffffffffffffffffffffffff16908173ffffffffffffffffffffffffffffffffffffffff1681525050736c021ae822bea943b2e66552bde1d2696a53fbb781600281518110612426576124256142e9565b5b602002602001019073ffffffffffffffffffffffffffffffffffffffff16908173ffffffffffffffffffffffffffffffffffffffff16815250507f000000000000000000000000000000000000000000000000000000000000000073ffffffffffffffffffffffffffffffffffffffff16635c11d7958460008430601e426124ae9190613ef0565b6040518663ffffffff1660e01b81526004016124ce959493929190614648565b600060405180830381600087803b1580156124e857600080fd5b505af11580156124fc573d6000803e3d6000fd5b505050506000734cdf39285d7ca8eb3f090fda0c069ba5f4145b3773ffffffffffffffffffffffffffffffffffffffff166370a08231306040518263ffffffff1660e01b815260040161254f919061393f565b602060405180830381865afa15801561256c573d6000803e3d6000fd5b505050506040513d601f19601f820116820180604052508101906125909190613e02565b90506000600267ffffffffffffffff8111156125af576125ae6142ba565b5b6040519080825280602002602001820160405280156125dd5781602001602082028036833780820191505090505b509050734cdf39285d7ca8eb3f090fda0c069ba5f4145b3781600081518110612609576126086142e9565b5b602002602001019073ffffffffffffffffffffffffffffffffffffffff16908173ffffffffffffffffffffffffffffffffffffffff16815250507321be370d5312f44cb42ce377bc9b8a0cef1a4c838160018151811061266c5761266b6142e9565b5b602002602001019073ffffffffffffffffffffffffffffffffffffffff16908173ffffffffffffffffffffffffffffffffffffffff16815250507f000000000000000000000000000000000000000000000000000000000000000073ffffffffffffffffffffffffffffffffffffffff16635c11d7958360008430601e426126f49190613ef0565b6040518663ffffffff1660e01b8152600401612714959493929190614648565b600060405180830381600087803b15801561272e57600080fd5b505af1158015612742573d6000803e3d6000fd5b505050505050505050565b60003073ffffffffffffffffffffffffffffffffffffffff166370a08231306040518263ffffffff1660e01b8152600401612788919061393f565b602060405180830381865afa1580156127a5573d6000803e3d6000fd5b505050506040513d601f19601f820116820180604052508101906127c99190613e02565b9050600082826127d99190614617565b9050600083826127e9919061458e565b90506000732a651563c9d3af67ae0388a5c8f89b867038089e73ffffffffffffffffffffffffffffffffffffffff166370a08231306040518263ffffffff1660e01b815260040161283a919061393f565b602060405180830381865afa158015612857573d6000803e3d6000fd5b505050506040513d601f19601f8201168201806040525081019061287b9190613e02565b905073cc0a87f7e7c693042a9cc703661f5060c80acb4373ffffffffffffffffffffffffffffffffffffffff1663441a3e706000846040518363ffffffff1660e01b81526004016128cd9291906147ae565b600060405180830381600087803b1580156128e757600080fd5b505af11580156128fb573d6000803e3d6000fd5b505050506000732a651563c9d3af67ae0388a5c8f89b867038089e73ffffffffffffffffffffffffffffffffffffffff166370a08231306040518263ffffffff1660e01b815260040161294e919061393f565b602060405180830381865afa15801561296b573d6000803e3d6000fd5b505050506040513d601f19601f8201168201806040525081019061298f9190613e02565b90506000828261299f919061455a565b90506129ab8882612cae565b5050505050505050565b60008060007f000000000000000000000000000000000000000000000000000000000000000073ffffffffffffffffffffffffffffffffffffffff16635ec88c79306040518263ffffffff1660e01b8152600401612a13919061393f565b606060405180830381865afa158015612a30573d6000803e3d6000fd5b505050506040513d601f19601f82011682018060405250810190612a54919061475b565b909150508093505060007f000000000000000000000000000000000000000000000000000000000000000073ffffffffffffffffffffffffffffffffffffffff166365555bcc6040518163ffffffff1660e01b8152600401612ab590614a25565b606060405180830381865afa158015612ad2573d6000803e3d6000fd5b505050506040513d601f19601f82011682018060405250810190612af69190614ac1565b905080600001519150600082670de0b6b3a764000086612b16919061458e565b612b209190614617565b90506064604b82612b31919061458e565b612b3b9190614617565b93505050909192565b600073ffffffffffffffffffffffffffffffffffffffff168273ffffffffffffffffffffffffffffffffffffffff161415612bb4576040517f08c379a0000000000000000000000000000000000000000000000000000000008152600401612bab90614b3a565b60405180910390fd5b612bc060008383612ca4565b8060026000828254612bd29190613ef0565b92505081905550806000808473ffffffffffffffffffffffffffffffffffffffff1673ffffffffffffffffffffffffffffffffffffffff1681526020019081526020016000206000828254612c279190613ef0565b925050819055508173ffffffffffffffffffffffffffffffffffffffff16600073ffffffffffffffffffffffffffffffffffffffff167fddf252ad1be2c89b69c2b068fc378daa952ba7f163c4a11628f55a4df523b3ef83604051612c8c9190613b10565b60405180910390a3612ca060008383612ca9565b5050565b505050565b505050565b732a651563c9d3af67ae0388a5c8f89b867038089e73ffffffffffffffffffffffffffffffffffffffff1663095ea7b373f491e7b69e4244ad4002bc14e878a34207e38c29836040518363ffffffff1660e01b8152600401612d11929190614238565b6020604051808303816000875af1158015612d30573d6000803e3d6000fd5b505050506040513d601f19601f82011682018060405250810190612d54919061428d565b5060008073f491e7b69e4244ad4002bc14e878a34207e38c2973ffffffffffffffffffffffffffffffffffffffff1663baa2abde7321be370d5312f44cb42ce377bc9b8a0cef1a4c83736c021ae822bea943b2e66552bde1d2696a53fbb78660018030601e42612dc49190613ef0565b6040518863ffffffff1660e01b8152600401612de69796959493929190614b5a565b60408051808303816000875af1158015612e04573d6000803e3d6000fd5b505050506040513d601f19601f82011682018060405250810190612e289190614bc9565b91509150612e363084612e47565b612e4184838361301e565b50505050565b600073ffffffffffffffffffffffffffffffffffffffff168273ffffffffffffffffffffffffffffffffffffffff161415612eb7576040517f08c379a0000000000000000000000000000000000000000000000000000000008152600401612eae90614c7b565b60405180910390fd5b612ec382600083612ca4565b60008060008473ffffffffffffffffffffffffffffffffffffffff1673ffffffffffffffffffffffffffffffffffffffff16815260200190815260200160002054905081811015612f49576040517f08c379a0000000000000000000000000000000000000000000000000000000008152600401612f4090614d0d565b60405180910390fd5b8181036000808573ffffffffffffffffffffffffffffffffffffffff1673ffffffffffffffffffffffffffffffffffffffff168152602001908152602001600020819055508160026000828254612fa0919061455a565b92505081905550600073ffffffffffffffffffffffffffffffffffffffff168373ffffffffffffffffffffffffffffffffffffffff167fddf252ad1be2c89b69c2b068fc378daa952ba7f163c4a11628f55a4df523b3ef846040516130059190613b10565b60405180910390a361301983600084612ca9565b505050565b736c021ae822bea943b2e66552bde1d2696a53fbb773ffffffffffffffffffffffffffffffffffffffff1663095ea7b373f491e7b69e4244ad4002bc14e878a34207e38c29836040518363ffffffff1660e01b8152600401613081929190614238565b6020604051808303816000875af11580156130a0573d6000803e3d6000fd5b505050506040513d601f19601f820116820180604052508101906130c4919061428d565b506000600267ffffffffffffffff8111156130e2576130e16142ba565b5b6040519080825280602002602001820160405280156131105781602001602082028036833780820191505090505b509050736c021ae822bea943b2e66552bde1d2696a53fbb78160008151811061313c5761313b6142e9565b5b602002602001019073ffffffffffffffffffffffffffffffffffffffff16908173ffffffffffffffffffffffffffffffffffffffff16815250507321be370d5312f44cb42ce377bc9b8a0cef1a4c838160018151811061319f5761319e6142e9565b5b602002602001019073ffffffffffffffffffffffffffffffffffffffff16908173ffffffffffffffffffffffffffffffffffffffff168152505060007f000000000000000000000000000000000000000000000000000000000000000073ffffffffffffffffffffffffffffffffffffffff166338ed17398460008530601e426132299190613ef0565b6040518663ffffffff1660e01b8152600401613249959493929190614648565b6000604051808303816000875af1158015613268573d6000803e3d6000fd5b505050506040513d6000823e3d601f19601f820116820180604052508101906132919190614511565b905060007f000000000000000000000000000000000000000000000000000000000000000073ffffffffffffffffffffffffffffffffffffffff166365555bcc6040518163ffffffff1660e01b81526004016132ec90614a25565b606060405180830381865afa158015613309573d6000803e3d6000fd5b505050506040513d601f19601f8201168201806040525081019061332d9190614ac1565b9050600082600081518110613345576133446142e9565b5b6020026020010151866133589190613ef0565b90506000620f4240670de0b6b3a764000084600001516133789190614617565b670de0b6b3a76400008461338c9190614617565b613396919061458e565b6133a0919061458e565b90506000600760008a73ffffffffffffffffffffffffffffffffffffffff1673ffffffffffffffffffffffffffffffffffffffff16815260200190815260200160002054826133ef9190613ef0565b90507321be370d5312f44cb42ce377bc9b8a0cef1a4c8373ffffffffffffffffffffffffffffffffffffffff1663095ea7b37f0000000000000000000000000000000000000000000000000000000000000000856040518363ffffffff1660e01b8152600401613460929190614238565b6020604051808303816000875af115801561347f573d6000803e3d6000fd5b505050506040513d601f19601f820116820180604052508101906134a3919061428d565b507f000000000000000000000000000000000000000000000000000000000000000073ffffffffffffffffffffffffffffffffffffffff16630e752702846040518263ffffffff1660e01b81526004016134fd9190613b10565b6020604051808303816000875af115801561351c573d6000803e3d6000fd5b505050506040513d601f19601f820116820180604052508101906135409190613e02565b5060007304068da6c83afcfa0e13ba15a6696662335d5b7573ffffffffffffffffffffffffffffffffffffffff166370a08231306040518263ffffffff1660e01b8152600401613590919061393f565b602060405180830381865afa1580156135ad573d6000803e3d6000fd5b505050506040513d601f19601f820116820180604052508101906135d19190613e02565b905073328a7b4d538a2b3942653a9983fda3c12c57114173ffffffffffffffffffffffffffffffffffffffff1663852a12e3836040518263ffffffff1660e01b81526004016136209190613b10565b6020604051808303816000875af115801561363f573d6000803e3d6000fd5b505050506040513d601f19601f820116820180604052508101906136639190613e02565b5060007304068da6c83afcfa0e13ba15a6696662335d5b7573ffffffffffffffffffffffffffffffffffffffff166370a08231306040518263ffffffff1660e01b81526004016136b3919061393f565b602060405180830381865afa1580156136d0573d6000803e3d6000fd5b505050506040513d601f19601f820116820180604052508101906136f49190613e02565b905060008282613704919061455a565b90506000600760008e73ffffffffffffffffffffffffffffffffffffffff1673ffffffffffffffffffffffffffffffffffffffff1681526020019081526020016000205485111561379657600760008e73ffffffffffffffffffffffffffffffffffffffff1673ffffffffffffffffffffffffffffffffffffffff1681526020019081526020016000205490506137e4565b84600760008f73ffffffffffffffffffffffffffffffffffffffff1673ffffffffffffffffffffffffffffffffffffffff168152602001908152602001600020546137e1919061455a565b90505b80600760008f73ffffffffffffffffffffffffffffffffffffffff1673ffffffffffffffffffffffffffffffffffffffff1681526020019081526020016000206000828254613833919061455a565b925050819055507304068da6c83afcfa0e13ba15a6696662335d5b7573ffffffffffffffffffffffffffffffffffffffff1663a9059cbb600660009054906101000a900473ffffffffffffffffffffffffffffffffffffffff16846040518363ffffffff1660e01b81526004016138ab929190614238565b6020604051808303816000875af11580156138ca573d6000803e3d6000fd5b505050506040513d601f19601f820116820180604052508101906138ee919061428d565b5050505050505050505050505050565b600073ffffffffffffffffffffffffffffffffffffffff82169050919050565b6000613929826138fe565b9050919050565b6139398161391e565b82525050565b60006020820190506139546000830184613930565b92915050565b600081519050919050565b600082825260208201905092915050565b60005b83811015613994578082015181840152602081019050613979565b838111156139a3576000848401525b50505050565b6000601f19601f8301169050919050565b60006139c58261395a565b6139cf8185613965565b93506139df818560208601613976565b6139e8816139a9565b840191505092915050565b60006020820190508181036000830152613a0d81846139ba565b905092915050565b6000604051905090565b600080fd5b600080fd5b613a328161391e565b8114613a3d57600080fd5b50565b600081359050613a4f81613a29565b92915050565b6000819050919050565b613a6881613a55565b8114613a7357600080fd5b50565b600081359050613a8581613a5f565b92915050565b60008060408385031215613aa257613aa1613a1f565b5b6000613ab085828601613a40565b9250506020613ac185828601613a76565b9150509250929050565b60008115159050919050565b613ae081613acb565b82525050565b6000602082019050613afb6000830184613ad7565b92915050565b613b0a81613a55565b82525050565b6000602082019050613b256000830184613b01565b92915050565b6000819050919050565b6000613b50613b4b613b46846138fe565b613b2b565b6138fe565b9050919050565b6000613b6282613b35565b9050919050565b6000613b7482613b57565b9050919050565b613b8481613b69565b82525050565b6000602082019050613b9f6000830184613b7b565b92915050565b600080600060608486031215613bbe57613bbd613a1f565b5b6000613bcc86828701613a40565b9350506020613bdd86828701613a40565b9250506040613bee86828701613a76565b9150509250925092565b6000613c0382613b57565b9050919050565b613c1381613bf8565b82525050565b6000602082019050613c2e6000830184613c0a565b92915050565b600060ff82169050919050565b613c4a81613c34565b82525050565b6000602082019050613c656000830184613c41565b92915050565b6000613c7682613b57565b9050919050565b613c8681613c6b565b82525050565b6000602082019050613ca16000830184613c7d565b92915050565b6000613cb282613b57565b9050919050565b613cc281613ca7565b82525050565b6000602082019050613cdd6000830184613cb9565b92915050565b600060208284031215613cf957613cf8613a1f565b5b6000613d0784828501613a40565b91505092915050565b6000613d1b82613b57565b9050919050565b613d2b81613d10565b82525050565b6000602082019050613d466000830184613d22565b92915050565b60008060408385031215613d6357613d62613a1f565b5b6000613d7185828601613a40565b9250506020613d8285828601613a40565b9150509250929050565b7f4e487b7100000000000000000000000000000000000000000000000000000000600052602260045260246000fd5b60006002820490506001821680613dd357607f821691505b60208210811415613de757613de6613d8c565b5b50919050565b600081519050613dfc81613a5f565b92915050565b600060208284031215613e1857613e17613a1f565b5b6000613e2684828501613ded565b91505092915050565b7f45524332303a207472616e7366657220616d6f756e742065786365656473206160008201527f6c6c6f77616e6365000000000000000000000000000000000000000000000000602082015250565b6000613e8b602883613965565b9150613e9682613e2f565b604082019050919050565b60006020820190508181036000830152613eba81613e7e565b9050919050565b7f4e487b7100000000000000000000000000000000000000000000000000000000600052601160045260246000fd5b6000613efb82613a55565b9150613f0683613a55565b9250827fffffffffffffffffffffffffffffffffffffffffffffffffffffffffffffffff03821115613f3b57613f3a613ec1565b5b828201905092915050565b7f6e6f000000000000000000000000000000000000000000000000000000000000600082015250565b6000613f7c600283613965565b9150613f8782613f46565b602082019050919050565b60006020820190508181036000830152613fab81613f6f565b9050919050565b6000819050919050565b6000613fd7613fd2613fcd84613fb2565b613b2b565b613a55565b9050919050565b613fe781613fbc565b82525050565b60006040820190506140026000830185613fde565b61400f6020830184613fde565b9392505050565b7f45524332303a2064656372656173656420616c6c6f77616e63652062656c6f7760008201527f207a65726f000000000000000000000000000000000000000000000000000000602082015250565b6000614072602583613965565b915061407d82614016565b604082019050919050565b600060208201905081810360008301526140a181614065565b9050919050565b7f217661756c740000000000000000000000000000000000000000000000000000600082015250565b60006140de600683613965565b91506140e9826140a8565b602082019050919050565b6000602082019050818103600083015261410d816140d1565b9050919050565b7f45524332303a20617070726f76652066726f6d20746865207a65726f2061646460008201527f7265737300000000000000000000000000000000000000000000000000000000602082015250565b6000614170602483613965565b915061417b82614114565b604082019050919050565b6000602082019050818103600083015261419f81614163565b9050919050565b7f45524332303a20617070726f766520746f20746865207a65726f20616464726560008201527f7373000000000000000000000000000000000000000000000000000000000000602082015250565b6000614202602283613965565b915061420d826141a6565b604082019050919050565b60006020820190508181036000830152614231816141f5565b9050919050565b600060408201905061424d6000830185613930565b61425a6020830184613b01565b9392505050565b61426a81613acb565b811461427557600080fd5b50565b60008151905061428781614261565b92915050565b6000602082840312156142a3576142a2613a1f565b5b60006142b184828501614278565b91505092915050565b7f4e487b7100000000000000000000000000000000000000000000000000000000600052604160045260246000fd5b7f4e487b7100000000000000000000000000000000000000000000000000000000600052603260045260246000fd5b600081519050919050565b600082825260208201905092915050565b6000819050602082019050919050565b61434d8161391e565b82525050565b600061435f8383614344565b60208301905092915050565b6000602082019050919050565b600061438382614318565b61438d8185614323565b935061439883614334565b8060005b838110156143c95781516143b08882614353565b97506143bb8361436b565b92505060018101905061439c565b5085935050505092915050565b600060208201905081810360008301526143f08184614378565b905092915050565b600080fd5b614406826139a9565b810181811067ffffffffffffffff82111715614425576144246142ba565b5b80604052505050565b6000614438613a15565b905061444482826143fd565b919050565b600067ffffffffffffffff821115614464576144636142ba565b5b602082029050602081019050919050565b600080fd5b600061448d61448884614449565b61442e565b905080838252602082019050602084028301858111156144b0576144af614475565b5b835b818110156144d957806144c58882613ded565b8452602084019350506020810190506144b2565b5050509392505050565b600082601f8301126144f8576144f76143f8565b5b815161450884826020860161447a565b91505092915050565b60006020828403121561452757614526613a1f565b5b600082015167ffffffffffffffff81111561454557614544613a24565b5b614551848285016144e3565b91505092915050565b600061456582613a55565b915061457083613a55565b92508282101561458357614582613ec1565b5b828203905092915050565b600061459982613a55565b91506145a483613a55565b9250817fffffffffffffffffffffffffffffffffffffffffffffffffffffffffffffffff04831182151516156145dd576145dc613ec1565b5b828202905092915050565b7f4e487b7100000000000000000000000000000000000000000000000000000000600052601260045260246000fd5b600061462282613a55565b915061462d83613a55565b92508261463d5761463c6145e8565b5b828204905092915050565b600060a08201905061465d6000830188613b01565b61466a6020830187613fde565b818103604083015261467c8186614378565b905061468b6060830185613930565b6146986080830184613b01565b9695505050505050565b6000819050919050565b60006146c76146c26146bd846146a2565b613b2b565b613a55565b9050919050565b6146d7816146ac565b82525050565b6000610100820190506146f3600083018b613930565b614700602083018a613930565b61470d6040830189613b01565b61471a6060830188613b01565b61472760808301876146ce565b61473460a08301866146ce565b61474160c0830185613930565b61474e60e0830184613b01565b9998505050505050505050565b60008060006060848603121561477457614773613a1f565b5b600061478286828701613ded565b935050602061479386828701613ded565b92505060406147a486828701613ded565b9150509250925092565b60006040820190506147c36000830185613fde565b6147d06020830184613b01565b9392505050565b7f45524332303a207472616e736665722066726f6d20746865207a65726f20616460008201527f6472657373000000000000000000000000000000000000000000000000000000602082015250565b6000614833602583613965565b915061483e826147d7565b604082019050919050565b6000602082019050818103600083015261486281614826565b9050919050565b7f45524332303a207472616e7366657220746f20746865207a65726f206164647260008201527f6573730000000000000000000000000000000000000000000000000000000000602082015250565b60006148c5602383613965565b91506148d082614869565b604082019050919050565b600060208201905081810360008301526148f4816148b8565b9050919050565b7f45524332303a207472616e7366657220616d6f756e742065786365656473206260008201527f616c616e63650000000000000000000000000000000000000000000000000000602082015250565b6000614957602683613965565b9150614962826148fb565b604082019050919050565b600060208201905081810360008301526149868161494a565b9050919050565b7f46544d0000000000000000000000000000000000000000000000000000000000600082015250565b60006149c3600383613965565b91506149ce8261498d565b602082019050919050565b7f5553444300000000000000000000000000000000000000000000000000000000600082015250565b6000614a0f600483613965565b9150614a1a826149d9565b602082019050919050565b60006040820190508181036000830152614a3e816149b6565b90508181036020830152614a5181614a02565b9050919050565b600080fd5b600060608284031215614a7357614a72614a58565b5b614a7d606061442e565b90506000614a8d84828501613ded565b6000830152506020614aa184828501613ded565b6020830152506040614ab584828501613ded565b60408301525092915050565b600060608284031215614ad757614ad6613a1f565b5b6000614ae584828501614a5d565b91505092915050565b7f45524332303a206d696e7420746f20746865207a65726f206164647265737300600082015250565b6000614b24601f83613965565b9150614b2f82614aee565b602082019050919050565b60006020820190508181036000830152614b5381614b17565b9050919050565b600060e082019050614b6f600083018a613930565b614b7c6020830189613930565b614b896040830188613b01565b614b9660608301876146ce565b614ba360808301866146ce565b614bb060a0830185613930565b614bbd60c0830184613b01565b98975050505050505050565b60008060408385031215614be057614bdf613a1f565b5b6000614bee85828601613ded565b9250506020614bff85828601613ded565b9150509250929050565b7f45524332303a206275726e2066726f6d20746865207a65726f2061646472657360008201527f7300000000000000000000000000000000000000000000000000000000000000602082015250565b6000614c65602183613965565b9150614c7082614c09565b604082019050919050565b60006020820190508181036000830152614c9481614c58565b9050919050565b7f45524332303a206275726e20616d6f756e7420657863656564732062616c616e60008201527f6365000000000000000000000000000000000000000000000000000000000000602082015250565b6000614cf7602283613965565b9150614d0282614c9b565b604082019050919050565b60006020820190508181036000830152614d2681614cea565b905091905056fea2646970667358221220573e5bbc1f82dc7da9b3c1fdef80c7f962fa7a74a9c4a2911caf94276afe8c5164736f6c634300080a0033",
  "immutableReferences": {
    "1911": [
      {
        "length": 32,
        "start": 3451
      },
      {
        "length": 32,
        "start": 9314
      },
      {
        "length": 32,
        "start": 9896
      },
      {
        "length": 32,
        "start": 12765
      }
    ],
    "1914": [
      {
        "length": 32,
        "start": 3295
      },
      {
        "length": 32,
        "start": 5579
      },
      {
        "length": 32,
        "start": 10684
      }
    ],
    "1917": [
      {
        "length": 32,
        "start": 2716
      },
      {
        "length": 32,
        "start": 10848
      },
      {
        "length": 32,
        "start": 12951
      }
    ],
    "1920": [
      {
        "length": 32,
        "start": 2259
      },
      {
        "length": 32,
        "start": 5755
      },
      {
        "length": 32,
        "start": 13347
      },
      {
        "length": 32,
        "start": 13478
      }
    ]
  },
  "source": "pragma solidity ^0.8.10; \npragma abicoder v2;  \n\nimport \"../DjinnBottleUSDC.sol\"; \nimport \"../interfaces/CTokenInterfaces.sol\"; \nimport \"../interfaces/ComptrollerInterface.sol\";  \nimport \"../interfaces/IStdReference.sol\"; \nimport \"@uniswap/v2-periphery/contracts/interfaces/IUniswapV2Router02.sol\"; \nimport \"../interfaces/IMasterChef.sol\"; \nimport \"@openzeppelin/contracts/token/ERC20/IERC20.sol\"; \n\n\ncontract ShortFarmFTM is ERC20 {\n\t\n\t//Contract Specifics \n\taddress public creator; \n\tuint private constant CREATOR_FEE = 100; //1% \n\tDjinnBottleUSDC public VAULT; \n\n\tmapping(address => uint) public depositBalance; \n\n\t//Cream Finance Contracts \n\taddress public constant crUSDC = 0x328A7b4d538A2b3942653a9983fdA3C12c571141; \n\n\t//Public Tokens\n\taddress public constant USDC = 0x04068DA6C83AFCFA0e13ba15A6696662335D5B75; \n\taddress public constant WFTM = 0x21be370D5312f44cB42ce377BC9b8a0cEF1A4C83; \n\taddress public constant TOMB = 0x6c021Ae822BEa943b2E66552bDe1D2696a53fbB7; \n\taddress public constant TSHARE = 0x4cdF39285D7Ca8eB3f090fDA0C069ba5F4145B37; \n\t\n\t//SpookySwap Router, LP, TSHAREPool \n\taddress public constant spookyAddress = 0xF491e7B69E4244ad4002BC14e878a34207E38c29;\t\t\n\taddress public constant spookyFtmTombLP = 0x2A651563C9d3Af67aE0388a5c8F89b867038089e; \n\taddress public constant tShareRewardPool = 0xcc0a87F7e7c693042a9Cc703661F5060c80ACb43; \n\n\n\t//Contract Interfaces  \n\tIUniswapV2Router02 public immutable spookyRouter; \n\tComptrollerInterface public immutable comptroller; \n\tIStdReference public immutable priceOracle;\n\tCERC20 public immutable crWFTM; \t\n\t\n\n\n\tconstructor(DjinnBottleUSDC _djBottle, \t\n\t\t\t\tIUniswapV2Router02 _spookyRouter, \n\t\t\t\tComptrollerInterface _comptroller, \n\t\t\t\tIStdReference _priceOracle,\n\t\t\t\tCERC20 _cERC20) ERC20(\"Djinn Finance FTM Short Farm\", \"dfFTMShort\") {\n\t\t\t\t\taddress creator = msg.sender;\n\t\t\t\t\tVAULT = _djBottle; \n\t\t\t\t\tspookyRouter = _spookyRouter; \n\t\t\t\t\tcomptroller = _comptroller;  \n\t\t\t\t\tpriceOracle = _priceOracle; \n\t\t\t\t\tcrWFTM = _cERC20; \n\t\t\t\t}\n\t\n\t//automate opening a position\n\t//designed for single user ie. user opens via vault contract \t\n\tfunction open(address user, uint amount) external {\n\t\tborrow(user, amount); //same amount in USDC to keep track of how many tokens we have supplied \n\t\tswap(); //swap half of bal to TOMB and unwrap the rest to FTM \n\t\tgetLPTokens(); //get FTM-TOMB LP tokens \t\n\t\tdepositLPGetTShare(); //deposit LP tokens on TOMB to earn TSHARE\n\t}\n\n\t//automate the harvest \n\tfunction harvest() external {\n\t\trequire(msg.sender == address(VAULT), \"no\"); \n\t\tIMasterChef(tShareRewardPool).deposit(0, 0); //0 is poolId and we call a deposit of 0 to allocate the shares to this contract\n\t\t//chargeFees(); \n\t\tsellAndSwap(); //sell tshare for 50% TOMB 50% WFTM \n\t\tgetLPTokens(); \n\t\tdepositLPGetTShare(); \n\t}\n\t\n\t//automate the closing of the position\n\t//designed for single use ie. user closes via vault contract \t\n\t//so we need to vault contract to determine how many tokens belong to the user from this contract \n\tfunction close(address user, uint amountShares) external {\n\t\trequire(msg.sender == address(VAULT), \"!vault\"); \n\t\t//swap all LP tokens back to underlying \n\t\tswapAndWithdraw(user, amountShares);   \n\t}\n\t\n\t//next we borrow WTFM from cream <= 75% so we don't get liquidated\n\t//cream allows for 75% collateral on deposits of USDC, but this 75% is on the 75% \n\t//so we are effectively borrowing ~55% of our deposit amount, which leaves room to the upside  \t\t\n\tfunction borrow(address user, uint amount) internal {\n\t\tuint underlyingBefore = getUnderlying(); \n\n\t\t//first we supply USDC\n\t\tIERC20(USDC).approve(crUSDC, amount);  \n\t\tCERC20(crUSDC).mint(amount); \n\t\t\n\t\t//we enter the marker to use usdc as collateral \t\n\t\taddress[] memory cTokenSupplied = new address[](1); \n\t\tcTokenSupplied[0] = crUSDC; //cToken address\n\t\tcomptroller.enterMarkets(cTokenSupplied); \n\t\t\n\t\t//get max borrow && borrow  \n\t\t(, uint borrowAmount,) = getBorrowAmount(); //borrow amount returns the token amount scaled up by 1e18 @ 75% of our max borrow\n\t\tcrWFTM.borrow(borrowAmount);  \n\t\tuint underlyingAfter = getUnderlying();  \n\t\tuint depositAmount = underlyingAfter - underlyingBefore; \n\t\t\n\t\t//update user deposit balance to keep track of amount supplied vs amount borrowed  \n\t\tdepositBalance[user] += depositAmount; \n\t}\n\n\tfunction getBorrowAmount() internal view returns(uint liquidity, uint borrowAmount, uint price) {\n\t\t(, liquidity,) = comptroller.getAccountLiquidity(address(this)); \n\t\tIStdReference.ReferenceData memory data = priceOracle.getReferenceData(\"FTM\", \"USDC\"); \n\t\tprice = data.rate; \n\t\tuint maxTokenBorrow = (liquidity * 10**18) / price; //wFTM has 18 decimals   \t\n\t\tborrowAmount = (maxTokenBorrow * 75) / 100; \n\t\treturn (liquidity, borrowAmount, price); \n\t}\n\n\t//where amount is the percentage of LP tokens relative to the callers % ownership of the vault \n\tfunction swapAndWithdraw(address user, uint amountShares) internal {\n\t\tuint strategyBalance = IERC20(address(this)).balanceOf(address(this)); \n\t\tuint sharePerLPToken = strategyBalance / amountShares; //both are scaled by 1e18 already I think  \n\t\tuint percentLP = sharePerLPToken * amountShares; \n\n\t\t//we first withdraw the LP tokens from TOMB  \n\t\t//we have to check the balances before and after the withdrawl in case there are leftovers \n\t\tuint amountBefore = IERC20(spookyFtmTombLP).balanceOf(address(this)); \n\t\tIMasterChef(tShareRewardPool).withdraw(0, percentLP);  \n\t\tuint amountAfter = IERC20(spookyFtmTombLP).balanceOf(address(this)); \n\t\tuint lpTokenAmount = amountAfter - amountBefore; \n\t\t\n\t\tremoveLiq(user, lpTokenAmount); \n\t}\n\n\tfunction getbal() external view returns(uint) {\n\t\treturn IERC20(spookyFtmTombLP).balanceOf(address(this)); \n\t}\n\n\tfunction removeLiq(address user, uint lpTokenAmount) internal {\t\t \n\t\t//we remove liquidity belonging to the user(amount) back for tomb + wftm \n\t\tIERC20(spookyFtmTombLP).approve(spookyAddress, lpTokenAmount); \n\t\t(uint amountWftm, uint amountTomb) = IUniswapV2Router02(spookyAddress).removeLiquidity(\n\t\t\tWFTM,\n\t\t\tTOMB, \n\t\t\tlpTokenAmount,\n\t\t   \t1,\n\t\t   \t1,\n\t\t   \taddress(this),\n\t\t   \tblock.timestamp + 30\n\t\t); \n\n\t\t_burn(address(this), lpTokenAmount); \n\t\t//next step\t\n\t\tswapBack(user, amountWftm, amountTomb); \n\t}\n\n\tfunction getUnderlying() public returns(uint) {\n\t\treturn CERC20(crUSDC).balanceOfUnderlying(address(this)); //this returns the underlying USDC amount in 6 decimals \n\t}\n\t\n\tfunction swapBack(address user, uint amountWftm, uint amountTomb) internal {\n\t\t//now we swap tomb back for wftm\n\t\t//only need to approve TOMB because wftm is not being swapped \n\t\tIERC20(TOMB).approve(spookyAddress, amountTomb); \n\t\taddress[] memory path = new address[](2); \n\t\tpath[0] = TOMB; \n\t\tpath[1] = WFTM; \n\t\tuint[] memory amounts = spookyRouter.swapExactTokensForTokens(\n\t\t\tamountTomb,\n\t\t\t0,\n\t\t\tpath,\n\t\t\taddress(this),\n\t\t\tblock.timestamp + 30\n\t\t);\n\t\n\t\tIStdReference.ReferenceData memory data = priceOracle.getReferenceData(\"FTM\", \"USDC\"); \t\t\n\t\tuint amountToRepay = amountWftm + amounts[0]; //amount from removing liq + amount from swap  \n\t\tuint dollarAmount = (amountToRepay / 1e18) * (data.rate / 1e18) * 1e6; //token price in USDC for amount of wftm   \n\t\tuint redeemAmount = dollarAmount + depositBalance[user]; //initial deposit + any profits from swapping back \n \n\t\t//now we can repay our users borrow\n\t   \t//need to convert wftm token amount to dollar amount \n\t\tIERC20(WFTM).approve(address(crWFTM), amountToRepay); //this is wftm token amount  \n\t\tcrWFTM.repayBorrow(amountToRepay); \n\t\t\n\t\t//creamUSDC balance redeem \n\t\tuint beforeBalance = IERC20(USDC).balanceOf(address(this)); \n\t\tCERC20(crUSDC).redeemUnderlying(redeemAmount); \n\t\t\n\t\t//get usdc balance after redeem \n\t\tuint afterBalance = IERC20(USDC).balanceOf(address(this));\n\t\tuint sendAmount\t= afterBalance - beforeBalance; //check for difference to send correct amount \n\t\n\t\t//update deposit mapping\t\n\t\tuint subtractAmount; \n\t\tif (redeemAmount > depositBalance[user]) {\n\t\t\tsubtractAmount = depositBalance[user]; //if they are redeeming their whole position    \n\t\t} else {\n\t\t\tsubtractAmount = depositBalance[user] - redeemAmount; \n\t\t}\n\t\tdepositBalance[user] -= subtractAmount;  \n\t\n\t\tIERC20(USDC).transfer(address(VAULT), sendAmount);  \n\t}\n\n\t//then we send the funds to spookyswap where we sell 50% to tomb and then unwrap the rest \n\tfunction swap() internal { \n\t\t//swap 50% to TOMB & approve \n\t\tuint half = IERC20(WFTM).balanceOf(address(this)) * 50 / 100; \n\t\tIERC20(WFTM).approve(spookyAddress, half);\n\t\n \n         address[] memory path = new address[](2);\n         path[0] = WFTM;\n         path[1] = TOMB;\n         IUniswapV2Router02(spookyAddress).swapExactTokensForTokens(\n             half,\n             0,\n             path,\n             address(this),\n             block.timestamp\n\t\t ); \n\t }\n\n\t\n\n\tfunction sellAndSwap() internal {\n\t\tuint half = IERC20(TSHARE).balanceOf(address(this)) * 50 / 100; \n\t\tuint fee = half * CREATOR_FEE; \n\t\taddress[] memory pathToTomb = new address[](3); \n\t\tpathToTomb[0] = TSHARE;  \n\t\tpathToTomb[1] = WFTM; \n\t\tpathToTomb[2] = TOMB; \n\t\tspookyRouter.swapExactTokensForTokensSupportingFeeOnTransferTokens(\n\t\t\thalf,\n\t\t\t0,\n\t\t\tpathToTomb,\n\t\t\taddress(this),\n\t\t\tblock.timestamp + 30\n\t\t); \n\n\t\t//swap rest to WFTM \n\t\tuint rest = IERC20(TSHARE).balanceOf(address(this)); \n\t\taddress[] memory pathToWftm = new address[](2); \n\t\tpathToWftm[0] = TSHARE; \n\t\tpathToWftm[1] = WFTM; \n\t\tspookyRouter.swapExactTokensForTokensSupportingFeeOnTransferTokens(\n\t\t\trest,\n\t\t\t0,\n\t\t\tpathToWftm,\n\t\t\taddress(this),\n\t\t\tblock.timestamp + 30\n\t\t); \n\t}\n\n\tfunction getLPTokens() internal {\n\t\t//we need to approve the router to spend our TOMB\n\t\tuint tombAmount = IERC20(TOMB).balanceOf(address(this)); \n\t\tuint ftmAmount = IERC20(WFTM).balanceOf(address(this));  \n\n\t\t//now we add liquidity \n\t\t//@params token, tokenAmount, minToken, minETH, to, deadline\n\t\tIERC20(TOMB).approve(spookyAddress, tombAmount); \n\t\tIERC20(WFTM).approve(spookyAddress, ftmAmount); \n\t\tIUniswapV2Router02(spookyAddress).addLiquidity(TOMB, WFTM, tombAmount, ftmAmount, 1, 1, address(this), block.timestamp + 30); \n\t}\n\n\tfunction getLPBalnace() external view returns(uint lpAmount) {\n\t\treturn lpAmount = IERC20(spookyFtmTombLP).balanceOf(address(this));\t\n\t}\n\n\tfunction depositLPGetTShare() internal {\n\t\t//deposit into tshare vault using _pid but idk how to get that currently \t\n\t\tuint lpTokenBalance = IERC20(spookyFtmTombLP).balanceOf(address(this)); \n\n\t\t_mint(address(this), lpTokenBalance); \n\n\t\t//after this deposit the contract should be earning tshares as a reward \n\t\tIERC20(spookyFtmTombLP).approve(tShareRewardPool, lpTokenBalance); \n\t\tIMasterChef(tShareRewardPool).deposit(0, lpTokenBalance); //FTM-TOMB pool ID is 0 on Tomb.finance  \n\t}\n\n\treceive() external payable{} \n\t\n} \n",
  "sourcePath": "/home/kevin/Code/solidity_projects/djinnFinance/contracts/strategies/ShortFarmFTM.sol",
  "compiler": {
    "name": "solc",
    "version": "0.8.10+commit.fc410830.Emscripten.clang"
  },
  "schemaVersion": "3.4.3",
  "updatedAt": "2022-01-30T22:48:06.613Z",
  "networkType": "ethereum",
  "devdoc": {
    "kind": "dev",
    "methods": {
      "allowance(address,address)": {
        "details": "See {IERC20-allowance}."
      },
      "approve(address,uint256)": {
        "details": "See {IERC20-approve}. Requirements: - `spender` cannot be the zero address."
      },
      "balanceOf(address)": {
        "details": "See {IERC20-balanceOf}."
      },
      "decimals()": {
        "details": "Returns the number of decimals used to get its user representation. For example, if `decimals` equals `2`, a balance of `505` tokens should be displayed to a user as `5.05` (`505 / 10 ** 2`). Tokens usually opt for a value of 18, imitating the relationship between Ether and Wei. This is the value {ERC20} uses, unless this function is overridden; NOTE: This information is only used for _display_ purposes: it in no way affects any of the arithmetic of the contract, including {IERC20-balanceOf} and {IERC20-transfer}."
      },
      "decreaseAllowance(address,uint256)": {
        "details": "Atomically decreases the allowance granted to `spender` by the caller. This is an alternative to {approve} that can be used as a mitigation for problems described in {IERC20-approve}. Emits an {Approval} event indicating the updated allowance. Requirements: - `spender` cannot be the zero address. - `spender` must have allowance for the caller of at least `subtractedValue`."
      },
      "increaseAllowance(address,uint256)": {
        "details": "Atomically increases the allowance granted to `spender` by the caller. This is an alternative to {approve} that can be used as a mitigation for problems described in {IERC20-approve}. Emits an {Approval} event indicating the updated allowance. Requirements: - `spender` cannot be the zero address."
      },
      "name()": {
        "details": "Returns the name of the token."
      },
      "symbol()": {
        "details": "Returns the symbol of the token, usually a shorter version of the name."
      },
      "totalSupply()": {
        "details": "See {IERC20-totalSupply}."
      },
      "transfer(address,uint256)": {
        "details": "See {IERC20-transfer}. Requirements: - `recipient` cannot be the zero address. - the caller must have a balance of at least `amount`."
      },
      "transferFrom(address,address,uint256)": {
        "details": "See {IERC20-transferFrom}. Emits an {Approval} event indicating the updated allowance. This is not required by the EIP. See the note at the beginning of {ERC20}. Requirements: - `sender` and `recipient` cannot be the zero address. - `sender` must have a balance of at least `amount`. - the caller must have allowance for ``sender``'s tokens of at least `amount`."
      }
    },
    "version": 1
  },
  "userdoc": {
    "kind": "user",
    "methods": {},
    "version": 1
  }
}