{
  "contractName": "ShortFarmFTM",
  "abi": [
    {
      "inputs": [
        {
          "internalType": "contract DjinnBottleUSDC",
          "name": "_djBottle",
          "type": "address"
        },
        {
          "internalType": "contract IUniswapV2Router02",
          "name": "_spookyRouter",
          "type": "address"
        },
        {
          "internalType": "contract ComptrollerInterface",
          "name": "_comptroller",
          "type": "address"
        },
        {
          "internalType": "contract IStdReference",
          "name": "_priceOracle",
          "type": "address"
        },
        {
          "internalType": "contract CERC20",
          "name": "_cERC20",
          "type": "address"
        }
      ],
      "stateMutability": "nonpayable",
      "type": "constructor"
    },
    {
      "anonymous": false,
      "inputs": [
        {
          "indexed": true,
          "internalType": "address",
          "name": "owner",
          "type": "address"
        },
        {
          "indexed": true,
          "internalType": "address",
          "name": "spender",
          "type": "address"
        },
        {
          "indexed": false,
          "internalType": "uint256",
          "name": "value",
          "type": "uint256"
        }
      ],
      "name": "Approval",
      "type": "event"
    },
    {
      "anonymous": false,
      "inputs": [
        {
          "indexed": true,
          "internalType": "address",
          "name": "from",
          "type": "address"
        },
        {
          "indexed": true,
          "internalType": "address",
          "name": "to",
          "type": "address"
        },
        {
          "indexed": false,
          "internalType": "uint256",
          "name": "value",
          "type": "uint256"
        }
      ],
      "name": "Transfer",
      "type": "event"
    },
    {
      "inputs": [],
      "name": "TOMB",
      "outputs": [
        {
          "internalType": "address",
          "name": "",
          "type": "address"
        }
      ],
      "stateMutability": "view",
      "type": "function",
      "constant": true
    },
    {
      "inputs": [],
      "name": "TSHARE",
      "outputs": [
        {
          "internalType": "address",
          "name": "",
          "type": "address"
        }
      ],
      "stateMutability": "view",
      "type": "function",
      "constant": true
    },
    {
      "inputs": [],
      "name": "USDC",
      "outputs": [
        {
          "internalType": "address",
          "name": "",
          "type": "address"
        }
      ],
      "stateMutability": "view",
      "type": "function",
      "constant": true
    },
    {
      "inputs": [],
      "name": "VAULT",
      "outputs": [
        {
          "internalType": "contract DjinnBottleUSDC",
          "name": "",
          "type": "address"
        }
      ],
      "stateMutability": "view",
      "type": "function",
      "constant": true
    },
    {
      "inputs": [],
      "name": "WFTM",
      "outputs": [
        {
          "internalType": "address",
          "name": "",
          "type": "address"
        }
      ],
      "stateMutability": "view",
      "type": "function",
      "constant": true
    },
    {
      "inputs": [
        {
          "internalType": "address",
          "name": "owner",
          "type": "address"
        },
        {
          "internalType": "address",
          "name": "spender",
          "type": "address"
        }
      ],
      "name": "allowance",
      "outputs": [
        {
          "internalType": "uint256",
          "name": "",
          "type": "uint256"
        }
      ],
      "stateMutability": "view",
      "type": "function",
      "constant": true
    },
    {
      "inputs": [
        {
          "internalType": "address",
          "name": "spender",
          "type": "address"
        },
        {
          "internalType": "uint256",
          "name": "amount",
          "type": "uint256"
        }
      ],
      "name": "approve",
      "outputs": [
        {
          "internalType": "bool",
          "name": "",
          "type": "bool"
        }
      ],
      "stateMutability": "nonpayable",
      "type": "function"
    },
    {
      "inputs": [
        {
          "internalType": "address",
          "name": "account",
          "type": "address"
        }
      ],
      "name": "balanceOf",
      "outputs": [
        {
          "internalType": "uint256",
          "name": "",
          "type": "uint256"
        }
      ],
      "stateMutability": "view",
      "type": "function",
      "constant": true
    },
    {
      "inputs": [],
      "name": "comptroller",
      "outputs": [
        {
          "internalType": "contract ComptrollerInterface",
          "name": "",
          "type": "address"
        }
      ],
      "stateMutability": "view",
      "type": "function",
      "constant": true
    },
    {
      "inputs": [],
      "name": "crUSDC",
      "outputs": [
        {
          "internalType": "address",
          "name": "",
          "type": "address"
        }
      ],
      "stateMutability": "view",
      "type": "function",
      "constant": true
    },
    {
      "inputs": [],
      "name": "crWFTM",
      "outputs": [
        {
          "internalType": "contract CERC20",
          "name": "",
          "type": "address"
        }
      ],
      "stateMutability": "view",
      "type": "function",
      "constant": true
    },
    {
      "inputs": [],
      "name": "creator",
      "outputs": [
        {
          "internalType": "address",
          "name": "",
          "type": "address"
        }
      ],
      "stateMutability": "view",
      "type": "function",
      "constant": true
    },
    {
      "inputs": [],
      "name": "decimals",
      "outputs": [
        {
          "internalType": "uint8",
          "name": "",
          "type": "uint8"
        }
      ],
      "stateMutability": "view",
      "type": "function",
      "constant": true
    },
    {
      "inputs": [
        {
          "internalType": "address",
          "name": "spender",
          "type": "address"
        },
        {
          "internalType": "uint256",
          "name": "subtractedValue",
          "type": "uint256"
        }
      ],
      "name": "decreaseAllowance",
      "outputs": [
        {
          "internalType": "bool",
          "name": "",
          "type": "bool"
        }
      ],
      "stateMutability": "nonpayable",
      "type": "function"
    },
    {
      "inputs": [
        {
          "internalType": "address",
          "name": "",
          "type": "address"
        }
      ],
      "name": "depositBalance",
      "outputs": [
        {
          "internalType": "uint256",
          "name": "",
          "type": "uint256"
        }
      ],
      "stateMutability": "view",
      "type": "function",
      "constant": true
    },
    {
      "inputs": [
        {
          "internalType": "address",
          "name": "spender",
          "type": "address"
        },
        {
          "internalType": "uint256",
          "name": "addedValue",
          "type": "uint256"
        }
      ],
      "name": "increaseAllowance",
      "outputs": [
        {
          "internalType": "bool",
          "name": "",
          "type": "bool"
        }
      ],
      "stateMutability": "nonpayable",
      "type": "function"
    },
    {
      "inputs": [],
      "name": "name",
      "outputs": [
        {
          "internalType": "string",
          "name": "",
          "type": "string"
        }
      ],
      "stateMutability": "view",
      "type": "function",
      "constant": true
    },
    {
      "inputs": [],
      "name": "priceOracle",
      "outputs": [
        {
          "internalType": "contract IStdReference",
          "name": "",
          "type": "address"
        }
      ],
      "stateMutability": "view",
      "type": "function",
      "constant": true
    },
    {
      "inputs": [],
      "name": "spookyAddress",
      "outputs": [
        {
          "internalType": "address",
          "name": "",
          "type": "address"
        }
      ],
      "stateMutability": "view",
      "type": "function",
      "constant": true
    },
    {
      "inputs": [],
      "name": "spookyFtmTombLP",
      "outputs": [
        {
          "internalType": "address",
          "name": "",
          "type": "address"
        }
      ],
      "stateMutability": "view",
      "type": "function",
      "constant": true
    },
    {
      "inputs": [],
      "name": "spookyRouter",
      "outputs": [
        {
          "internalType": "contract IUniswapV2Router02",
          "name": "",
          "type": "address"
        }
      ],
      "stateMutability": "view",
      "type": "function",
      "constant": true
    },
    {
      "inputs": [],
      "name": "symbol",
      "outputs": [
        {
          "internalType": "string",
          "name": "",
          "type": "string"
        }
      ],
      "stateMutability": "view",
      "type": "function",
      "constant": true
    },
    {
      "inputs": [],
      "name": "tShareRewardPool",
      "outputs": [
        {
          "internalType": "address",
          "name": "",
          "type": "address"
        }
      ],
      "stateMutability": "view",
      "type": "function",
      "constant": true
    },
    {
      "inputs": [],
      "name": "totalSupply",
      "outputs": [
        {
          "internalType": "uint256",
          "name": "",
          "type": "uint256"
        }
      ],
      "stateMutability": "view",
      "type": "function",
      "constant": true
    },
    {
      "inputs": [
        {
          "internalType": "address",
          "name": "recipient",
          "type": "address"
        },
        {
          "internalType": "uint256",
          "name": "amount",
          "type": "uint256"
        }
      ],
      "name": "transfer",
      "outputs": [
        {
          "internalType": "bool",
          "name": "",
          "type": "bool"
        }
      ],
      "stateMutability": "nonpayable",
      "type": "function"
    },
    {
      "inputs": [
        {
          "internalType": "address",
          "name": "sender",
          "type": "address"
        },
        {
          "internalType": "address",
          "name": "recipient",
          "type": "address"
        },
        {
          "internalType": "uint256",
          "name": "amount",
          "type": "uint256"
        }
      ],
      "name": "transferFrom",
      "outputs": [
        {
          "internalType": "bool",
          "name": "",
          "type": "bool"
        }
      ],
      "stateMutability": "nonpayable",
      "type": "function"
    },
    {
      "stateMutability": "payable",
      "type": "receive",
      "payable": true
    },
    {
      "inputs": [
        {
          "internalType": "address",
          "name": "user",
          "type": "address"
        },
        {
          "internalType": "uint256",
          "name": "amount",
          "type": "uint256"
        },
        {
          "internalType": "uint256",
          "name": "amountShares",
          "type": "uint256"
        }
      ],
      "name": "open",
      "outputs": [],
      "stateMutability": "nonpayable",
      "type": "function"
    },
    {
      "inputs": [],
      "name": "harvest",
      "outputs": [],
      "stateMutability": "nonpayable",
      "type": "function"
    },
    {
      "inputs": [
        {
          "internalType": "address",
          "name": "user",
          "type": "address"
        },
        {
          "internalType": "uint256",
          "name": "amountShares",
          "type": "uint256"
        }
      ],
      "name": "close",
      "outputs": [],
      "stateMutability": "nonpayable",
      "type": "function"
    },
    {
      "inputs": [],
      "name": "getbal",
      "outputs": [
        {
          "internalType": "uint256",
          "name": "",
          "type": "uint256"
        }
      ],
      "stateMutability": "view",
      "type": "function",
      "constant": true
    },
    {
      "inputs": [],
      "name": "getUnderlying",
      "outputs": [
        {
          "internalType": "uint256",
          "name": "",
          "type": "uint256"
        }
      ],
      "stateMutability": "nonpayable",
      "type": "function"
    }
  ],
  "bytecode": "0x6101006040523480156200001257600080fd5b506040516200565f3803806200565f83398181016040528101906200003891906200043c565b6040518060400160405280601c81526020017f446a696e6e2046696e616e63652046544d2053686f7274204661726d000000008152506040518060400160405280600a81526020017f646646544d53686f7274000000000000000000000000000000000000000000008152508160039080519060200190620000bc929190620001fa565b508060049080519060200190620000d5929190620001fa565b505050600033905085600660006101000a81548173ffffffffffffffffffffffffffffffffffffffff021916908373ffffffffffffffffffffffffffffffffffffffff1602179055508473ffffffffffffffffffffffffffffffffffffffff1660808173ffffffffffffffffffffffffffffffffffffffff16815250508373ffffffffffffffffffffffffffffffffffffffff1660a08173ffffffffffffffffffffffffffffffffffffffff16815250508273ffffffffffffffffffffffffffffffffffffffff1660c08173ffffffffffffffffffffffffffffffffffffffff16815250508173ffffffffffffffffffffffffffffffffffffffff1660e08173ffffffffffffffffffffffffffffffffffffffff168152505050505050505062000529565b8280546200020890620004f3565b90600052602060002090601f0160209004810192826200022c576000855562000278565b82601f106200024757805160ff191683800117855562000278565b8280016001018555821562000278579182015b82811115620002775782518255916020019190600101906200025a565b5b5090506200028791906200028b565b5090565b5b80821115620002a65760008160009055506001016200028c565b5090565b600080fd5b600073ffffffffffffffffffffffffffffffffffffffff82169050919050565b6000620002dc82620002af565b9050919050565b6000620002f082620002cf565b9050919050565b6200030281620002e3565b81146200030e57600080fd5b50565b6000815190506200032281620002f7565b92915050565b60006200033582620002cf565b9050919050565b620003478162000328565b81146200035357600080fd5b50565b60008151905062000367816200033c565b92915050565b60006200037a82620002cf565b9050919050565b6200038c816200036d565b81146200039857600080fd5b50565b600081519050620003ac8162000381565b92915050565b6000620003bf82620002cf565b9050919050565b620003d181620003b2565b8114620003dd57600080fd5b50565b600081519050620003f181620003c6565b92915050565b60006200040482620002cf565b9050919050565b6200041681620003f7565b81146200042257600080fd5b50565b60008151905062000436816200040b565b92915050565b600080600080600060a086880312156200045b576200045a620002aa565b5b60006200046b8882890162000311565b95505060206200047e8882890162000356565b945050604062000491888289016200039b565b9350506060620004a488828901620003e0565b9250506080620004b78882890162000425565b9150509295509295909350565b7f4e487b7100000000000000000000000000000000000000000000000000000000600052602260045260246000fd5b600060028204905060018216806200050c57607f821691505b60208210811415620005235762000522620004c4565b5b50919050565b60805160a05160c05160e0516150b6620005a960003960008181610877015281816124a70152818161372401526137a7015260008181610a4001528181612efa01526135c7015260008181610c83015281816123f20152612e56015260008181610dd70152818161184e01528181611a94015261350d01526150b66000f3fe6080604052600436106101dc5760003560e01c806370a08231116101025780639cdd8ee711610095578063b5ee45c111610064578063b5ee45c1146106d9578063c139acfa14610704578063dd62ed3e1461072f578063e49280cb1461076c576101e3565b80639cdd8ee714610609578063a457c2d714610634578063a6f8d40514610671578063a9059cbb1461069c576101e3565b80638ed8ea7e116100d15780638ed8ea7e1461054b578063956501bb1461057657806395d89b41146105b35780639816f473146105de576101e3565b806370a082311461048f57806382c70bbf146104cc57806389a30271146104f757806389a86ad314610522576101e3565b806323b872dd1161017a578063395093511161014957806339509351146103e5578063411557d1146104225780634641257d1461044d5780635fe3b56714610464576101e3565b806323b872dd146103275780632630c12f146103645780632c1c18361461038f578063313ce567146103ba576101e3565b806318160ddd116101b657806318160ddd1461027b5780631882bf44146102a65780631b3f4e07146102d157806321dbe876146102fc576101e3565b806302d05d3f146101e857806306fdde0314610213578063095ea7b31461023e576101e3565b366101e357005b600080fd5b3480156101f457600080fd5b506101fd610795565b60405161020a9190613c3f565b60405180910390f35b34801561021f57600080fd5b506102286107bb565b6040516102359190613cf3565b60405180910390f35b34801561024a57600080fd5b5061026560048036038101906102609190613d8b565b61084d565b6040516102729190613de6565b60405180910390f35b34801561028757600080fd5b5061029061086b565b60405161029d9190613e10565b60405180910390f35b3480156102b257600080fd5b506102bb610875565b6040516102c89190613e8a565b60405180910390f35b3480156102dd57600080fd5b506102e6610899565b6040516102f39190613e10565b60405180910390f35b34801561030857600080fd5b5061031161092e565b60405161031e9190613c3f565b60405180910390f35b34801561033357600080fd5b5061034e60048036038101906103499190613ea5565b610946565b60405161035b9190613de6565b60405180910390f35b34801561037057600080fd5b50610379610a3e565b6040516103869190613f19565b60405180910390f35b34801561039b57600080fd5b506103a4610a62565b6040516103b19190613c3f565b60405180910390f35b3480156103c657600080fd5b506103cf610a7a565b6040516103dc9190613f50565b60405180910390f35b3480156103f157600080fd5b5061040c60048036038101906104079190613d8b565b610a83565b6040516104199190613de6565b60405180910390f35b34801561042e57600080fd5b50610437610b2f565b6040516104449190613f8c565b60405180910390f35b34801561045957600080fd5b50610462610b55565b005b34801561047057600080fd5b50610479610c81565b6040516104869190613fc8565b60405180910390f35b34801561049b57600080fd5b506104b660048036038101906104b19190613fe3565b610ca5565b6040516104c39190613e10565b60405180910390f35b3480156104d857600080fd5b506104e1610ced565b6040516104ee9190613c3f565b60405180910390f35b34801561050357600080fd5b5061050c610d05565b6040516105199190613c3f565b60405180910390f35b34801561052e57600080fd5b5061054960048036038101906105449190614010565b610d1d565b005b34801561055757600080fd5b50610560610dd5565b60405161056d9190614084565b60405180910390f35b34801561058257600080fd5b5061059d60048036038101906105989190613fe3565b610df9565b6040516105aa9190613e10565b60405180910390f35b3480156105bf57600080fd5b506105c8610e11565b6040516105d59190613cf3565b60405180910390f35b3480156105ea57600080fd5b506105f3610ea3565b6040516106009190613e10565b60405180910390f35b34801561061557600080fd5b5061061e610f3a565b60405161062b9190613c3f565b60405180910390f35b34801561064057600080fd5b5061065b60048036038101906106569190613d8b565b610f52565b6040516106689190613de6565b60405180910390f35b34801561067d57600080fd5b5061068661103d565b6040516106939190613c3f565b60405180910390f35b3480156106a857600080fd5b506106c360048036038101906106be9190613d8b565b611055565b6040516106d09190613de6565b60405180910390f35b3480156106e557600080fd5b506106ee611073565b6040516106fb9190613c3f565b60405180910390f35b34801561071057600080fd5b5061071961108b565b6040516107269190613c3f565b60405180910390f35b34801561073b57600080fd5b506107566004803603810190610751919061409f565b6110a3565b6040516107639190613e10565b60405180910390f35b34801561077857600080fd5b50610793600480360381019061078e9190613d8b565b61112a565b005b600560009054906101000a900473ffffffffffffffffffffffffffffffffffffffff1681565b6060600380546107ca9061410e565b80601f01602080910402602001604051908101604052809291908181526020018280546107f69061410e565b80156108435780601f1061081857610100808354040283529160200191610843565b820191906000526020600020905b81548152906001019060200180831161082657829003601f168201915b5050505050905090565b600061086161085a6111c8565b84846111d0565b6001905092915050565b6000600254905090565b7f000000000000000000000000000000000000000000000000000000000000000081565b6000732a651563c9d3af67ae0388a5c8f89b867038089e73ffffffffffffffffffffffffffffffffffffffff166370a08231306040518263ffffffff1660e01b81526004016108e89190613c3f565b602060405180830381865afa158015610905573d6000803e3d6000fd5b505050506040513d601f19601f820116820180604052508101906109299190614155565b905090565b7321be370d5312f44cb42ce377bc9b8a0cef1a4c8381565b600061095384848461139b565b6000600160008673ffffffffffffffffffffffffffffffffffffffff1673ffffffffffffffffffffffffffffffffffffffff168152602001908152602001600020600061099e6111c8565b73ffffffffffffffffffffffffffffffffffffffff1673ffffffffffffffffffffffffffffffffffffffff16815260200190815260200160002054905082811015610a1e576040517f08c379a0000000000000000000000000000000000000000000000000000000008152600401610a15906141f4565b60405180910390fd5b610a3285610a2a6111c8565b8584036111d0565b60019150509392505050565b7f000000000000000000000000000000000000000000000000000000000000000081565b73cc0a87f7e7c693042a9cc703661f5060c80acb4381565b60006012905090565b6000610b25610a906111c8565b848460016000610a9e6111c8565b73ffffffffffffffffffffffffffffffffffffffff1673ffffffffffffffffffffffffffffffffffffffff16815260200190815260200160002060008873ffffffffffffffffffffffffffffffffffffffff1673ffffffffffffffffffffffffffffffffffffffff16815260200190815260200160002054610b209190614243565b6111d0565b6001905092915050565b600660009054906101000a900473ffffffffffffffffffffffffffffffffffffffff1681565b600660009054906101000a900473ffffffffffffffffffffffffffffffffffffffff1673ffffffffffffffffffffffffffffffffffffffff163373ffffffffffffffffffffffffffffffffffffffff1614610be5576040517f08c379a0000000000000000000000000000000000000000000000000000000008152600401610bdc906142e5565b60405180910390fd5b73cc0a87f7e7c693042a9cc703661f5060c80acb4373ffffffffffffffffffffffffffffffffffffffff1663e2bbb1586000806040518363ffffffff1660e01b8152600401610c35929190614340565b600060405180830381600087803b158015610c4f57600080fd5b505af1158015610c63573d6000803e3d6000fd5b50505050610c6f61161c565b610c77611cf3565b610c7f61203f565b565b7f000000000000000000000000000000000000000000000000000000000000000081565b60008060008373ffffffffffffffffffffffffffffffffffffffff1673ffffffffffffffffffffffffffffffffffffffff168152602001908152602001600020549050919050565b73328a7b4d538a2b3942653a9983fda3c12c57114181565b7304068da6c83afcfa0e13ba15a6696662335d5b7581565b600660009054906101000a900473ffffffffffffffffffffffffffffffffffffffff1673ffffffffffffffffffffffffffffffffffffffff163373ffffffffffffffffffffffffffffffffffffffff1614610dad576040517f08c379a0000000000000000000000000000000000000000000000000000000008152600401610da4906143b5565b60405180910390fd5b610db8838383612207565b610dc061258f565b610dc8611cf3565b610dd061203f565b505050565b7f000000000000000000000000000000000000000000000000000000000000000081565b60076020528060005260406000206000915090505481565b606060048054610e209061410e565b80601f0160208091040260200160405190810160405280929190818152602001828054610e4c9061410e565b8015610e995780601f10610e6e57610100808354040283529160200191610e99565b820191906000526020600020905b815481529060010190602001808311610e7c57829003601f168201915b5050505050905090565b600073328a7b4d538a2b3942653a9983fda3c12c57114173ffffffffffffffffffffffffffffffffffffffff16633af9e669306040518263ffffffff1660e01b8152600401610ef29190613c3f565b6020604051808303816000875af1158015610f11573d6000803e3d6000fd5b505050506040513d601f19601f82011682018060405250810190610f359190614155565b905090565b732a651563c9d3af67ae0388a5c8f89b867038089e81565b60008060016000610f616111c8565b73ffffffffffffffffffffffffffffffffffffffff1673ffffffffffffffffffffffffffffffffffffffff16815260200190815260200160002060008573ffffffffffffffffffffffffffffffffffffffff1673ffffffffffffffffffffffffffffffffffffffff1681526020019081526020016000205490508281101561101e576040517f08c379a000000000000000000000000000000000000000000000000000000000815260040161101590614447565b60405180910390fd5b6110326110296111c8565b858584036111d0565b600191505092915050565b73f491e7b69e4244ad4002bc14e878a34207e38c2981565b60006110696110626111c8565b848461139b565b6001905092915050565b734cdf39285d7ca8eb3f090fda0c069ba5f4145b3781565b736c021ae822bea943b2e66552bde1d2696a53fbb781565b6000600160008473ffffffffffffffffffffffffffffffffffffffff1673ffffffffffffffffffffffffffffffffffffffff16815260200190815260200160002060008373ffffffffffffffffffffffffffffffffffffffff1673ffffffffffffffffffffffffffffffffffffffff16815260200190815260200160002054905092915050565b600660009054906101000a900473ffffffffffffffffffffffffffffffffffffffff1673ffffffffffffffffffffffffffffffffffffffff163373ffffffffffffffffffffffffffffffffffffffff16146111ba576040517f08c379a00000000000000000000000000000000000000000000000000000000081526004016111b1906143b5565b60405180910390fd5b6111c48282612897565b5050565b600033905090565b600073ffffffffffffffffffffffffffffffffffffffff168373ffffffffffffffffffffffffffffffffffffffff161415611240576040517f08c379a0000000000000000000000000000000000000000000000000000000008152600401611237906144d9565b60405180910390fd5b600073ffffffffffffffffffffffffffffffffffffffff168273ffffffffffffffffffffffffffffffffffffffff1614156112b0576040517f08c379a00000000000000000000000000000000000000000000000000000000081526004016112a79061456b565b60405180910390fd5b80600160008573ffffffffffffffffffffffffffffffffffffffff1673ffffffffffffffffffffffffffffffffffffffff16815260200190815260200160002060008473ffffffffffffffffffffffffffffffffffffffff1673ffffffffffffffffffffffffffffffffffffffff168152602001908152602001600020819055508173ffffffffffffffffffffffffffffffffffffffff168373ffffffffffffffffffffffffffffffffffffffff167f8c5be1e5ebec7d5bd14f71427d1e84f3dd0314c0f7b2291e5b200ac8c7c3b9258360405161138e9190613e10565b60405180910390a3505050565b600073ffffffffffffffffffffffffffffffffffffffff168373ffffffffffffffffffffffffffffffffffffffff16141561140b576040517f08c379a0000000000000000000000000000000000000000000000000000000008152600401611402906145fd565b60405180910390fd5b600073ffffffffffffffffffffffffffffffffffffffff168273ffffffffffffffffffffffffffffffffffffffff16141561147b576040517f08c379a00000000000000000000000000000000000000000000000000000000081526004016114729061468f565b60405180910390fd5b611486838383612b8f565b60008060008573ffffffffffffffffffffffffffffffffffffffff1673ffffffffffffffffffffffffffffffffffffffff1681526020019081526020016000205490508181101561150c576040517f08c379a000000000000000000000000000000000000000000000000000000000815260040161150390614721565b60405180910390fd5b8181036000808673ffffffffffffffffffffffffffffffffffffffff1673ffffffffffffffffffffffffffffffffffffffff16815260200190815260200160002081905550816000808573ffffffffffffffffffffffffffffffffffffffff1673ffffffffffffffffffffffffffffffffffffffff168152602001908152602001600020600082825461159f9190614243565b925050819055508273ffffffffffffffffffffffffffffffffffffffff168473ffffffffffffffffffffffffffffffffffffffff167fddf252ad1be2c89b69c2b068fc378daa952ba7f163c4a11628f55a4df523b3ef846040516116039190613e10565b60405180910390a3611616848484612b94565b50505050565b600080611627612b99565b91509150600060646032734cdf39285d7ca8eb3f090fda0c069ba5f4145b3773ffffffffffffffffffffffffffffffffffffffff166370a08231306040518263ffffffff1660e01b815260040161167e9190613c3f565b602060405180830381865afa15801561169b573d6000803e3d6000fd5b505050506040513d601f19601f820116820180604052508101906116bf9190614155565b6116c99190614741565b6116d391906147ca565b90506000600367ffffffffffffffff8111156116f2576116f16147fb565b5b6040519080825280602002602001820160405280156117205781602001602082028036833780820191505090505b509050734cdf39285d7ca8eb3f090fda0c069ba5f4145b378160008151811061174c5761174b61482a565b5b602002602001019073ffffffffffffffffffffffffffffffffffffffff16908173ffffffffffffffffffffffffffffffffffffffff16815250507321be370d5312f44cb42ce377bc9b8a0cef1a4c83816001815181106117af576117ae61482a565b5b602002602001019073ffffffffffffffffffffffffffffffffffffffff16908173ffffffffffffffffffffffffffffffffffffffff1681525050736c021ae822bea943b2e66552bde1d2696a53fbb7816002815181106118125761181161482a565b5b602002602001019073ffffffffffffffffffffffffffffffffffffffff16908173ffffffffffffffffffffffffffffffffffffffff16815250507f000000000000000000000000000000000000000000000000000000000000000073ffffffffffffffffffffffffffffffffffffffff16635c11d7958360008430601e4261189a9190614243565b6040518663ffffffff1660e01b81526004016118ba959493929190614917565b600060405180830381600087803b1580156118d457600080fd5b505af11580156118e8573d6000803e3d6000fd5b505050506000734cdf39285d7ca8eb3f090fda0c069ba5f4145b3773ffffffffffffffffffffffffffffffffffffffff166370a08231306040518263ffffffff1660e01b815260040161193b9190613c3f565b602060405180830381865afa158015611958573d6000803e3d6000fd5b505050506040513d601f19601f8201168201806040525081019061197c9190614155565b90506000600267ffffffffffffffff81111561199b5761199a6147fb565b5b6040519080825280602002602001820160405280156119c95781602001602082028036833780820191505090505b509050734cdf39285d7ca8eb3f090fda0c069ba5f4145b37816000815181106119f5576119f461482a565b5b602002602001019073ffffffffffffffffffffffffffffffffffffffff16908173ffffffffffffffffffffffffffffffffffffffff16815250507321be370d5312f44cb42ce377bc9b8a0cef1a4c8381600181518110611a5857611a5761482a565b5b602002602001019073ffffffffffffffffffffffffffffffffffffffff16908173ffffffffffffffffffffffffffffffffffffffff16815250507f000000000000000000000000000000000000000000000000000000000000000073ffffffffffffffffffffffffffffffffffffffff16635c11d7958360008430601e42611ae09190614243565b6040518663ffffffff1660e01b8152600401611b00959493929190614917565b600060405180830381600087803b158015611b1a57600080fd5b505af1158015611b2e573d6000803e3d6000fd5b50505050600080611b3d612b99565b9150915060008883611b4f9190614971565b905060008883611b5f9190614971565b90506000611b6c83612cc0565b90506000611b7983612cc0565b9050736c021ae822bea943b2e66552bde1d2696a53fbb773ffffffffffffffffffffffffffffffffffffffff1663a9059cbb600660009054906101000a900473ffffffffffffffffffffffffffffffffffffffff16846040518363ffffffff1660e01b8152600401611bec9291906149a5565b6020604051808303816000875af1158015611c0b573d6000803e3d6000fd5b505050506040513d601f19601f82011682018060405250810190611c2f91906149fa565b507321be370d5312f44cb42ce377bc9b8a0cef1a4c8373ffffffffffffffffffffffffffffffffffffffff1663a9059cbb600660009054906101000a900473ffffffffffffffffffffffffffffffffffffffff16836040518363ffffffff1660e01b8152600401611ca19291906149a5565b6020604051808303816000875af1158015611cc0573d6000803e3d6000fd5b505050506040513d601f19601f82011682018060405250810190611ce491906149fa565b50505050505050505050505050565b6000736c021ae822bea943b2e66552bde1d2696a53fbb773ffffffffffffffffffffffffffffffffffffffff166370a08231306040518263ffffffff1660e01b8152600401611d429190613c3f565b602060405180830381865afa158015611d5f573d6000803e3d6000fd5b505050506040513d601f19601f82011682018060405250810190611d839190614155565b905060007321be370d5312f44cb42ce377bc9b8a0cef1a4c8373ffffffffffffffffffffffffffffffffffffffff166370a08231306040518263ffffffff1660e01b8152600401611dd49190613c3f565b602060405180830381865afa158015611df1573d6000803e3d6000fd5b505050506040513d601f19601f82011682018060405250810190611e159190614155565b9050736c021ae822bea943b2e66552bde1d2696a53fbb773ffffffffffffffffffffffffffffffffffffffff1663095ea7b373f491e7b69e4244ad4002bc14e878a34207e38c29846040518363ffffffff1660e01b8152600401611e7a9291906149a5565b6020604051808303816000875af1158015611e99573d6000803e3d6000fd5b505050506040513d601f19601f82011682018060405250810190611ebd91906149fa565b507321be370d5312f44cb42ce377bc9b8a0cef1a4c8373ffffffffffffffffffffffffffffffffffffffff1663095ea7b373f491e7b69e4244ad4002bc14e878a34207e38c29836040518363ffffffff1660e01b8152600401611f219291906149a5565b6020604051808303816000875af1158015611f40573d6000803e3d6000fd5b505050506040513d601f19601f82011682018060405250810190611f6491906149fa565b5073f491e7b69e4244ad4002bc14e878a34207e38c2973ffffffffffffffffffffffffffffffffffffffff1663e8e33700736c021ae822bea943b2e66552bde1d2696a53fbb77321be370d5312f44cb42ce377bc9b8a0cef1a4c83858560018030601e42611fd29190614243565b6040518963ffffffff1660e01b8152600401611ff5989796959493929190614a62565b6060604051808303816000875af1158015612014573d6000803e3d6000fd5b505050506040513d601f19601f820116820180604052508101906120389190614ae0565b5050505050565b6000732a651563c9d3af67ae0388a5c8f89b867038089e73ffffffffffffffffffffffffffffffffffffffff166370a08231306040518263ffffffff1660e01b815260040161208e9190613c3f565b602060405180830381865afa1580156120ab573d6000803e3d6000fd5b505050506040513d601f19601f820116820180604052508101906120cf9190614155565b90506120db3082612cef565b732a651563c9d3af67ae0388a5c8f89b867038089e73ffffffffffffffffffffffffffffffffffffffff1663095ea7b373cc0a87f7e7c693042a9cc703661f5060c80acb43836040518363ffffffff1660e01b815260040161213e9291906149a5565b6020604051808303816000875af115801561215d573d6000803e3d6000fd5b505050506040513d601f19601f8201168201806040525081019061218191906149fa565b5073cc0a87f7e7c693042a9cc703661f5060c80acb4373ffffffffffffffffffffffffffffffffffffffff1663e2bbb1586000836040518363ffffffff1660e01b81526004016121d2929190614b33565b600060405180830381600087803b1580156121ec57600080fd5b505af1158015612200573d6000803e3d6000fd5b5050505050565b7304068da6c83afcfa0e13ba15a6696662335d5b7573ffffffffffffffffffffffffffffffffffffffff1663095ea7b373328a7b4d538a2b3942653a9983fda3c12c571141846040518363ffffffff1660e01b815260040161226a9291906149a5565b6020604051808303816000875af1158015612289573d6000803e3d6000fd5b505050506040513d601f19601f820116820180604052508101906122ad91906149fa565b5073328a7b4d538a2b3942653a9983fda3c12c57114173ffffffffffffffffffffffffffffffffffffffff1663a0712d68836040518263ffffffff1660e01b81526004016122fb9190613e10565b6020604051808303816000875af115801561231a573d6000803e3d6000fd5b505050506040513d601f19601f8201168201806040525081019061233e9190614155565b506000600167ffffffffffffffff81111561235c5761235b6147fb565b5b60405190808252806020026020018201604052801561238a5781602001602082028036833780820191505090505b50905073328a7b4d538a2b3942653a9983fda3c12c571141816000815181106123b6576123b561482a565b5b602002602001019073ffffffffffffffffffffffffffffffffffffffff16908173ffffffffffffffffffffffffffffffffffffffff16815250507f000000000000000000000000000000000000000000000000000000000000000073ffffffffffffffffffffffffffffffffffffffff1663c2998238826040518263ffffffff1660e01b81526004016124499190614b5c565b6000604051808303816000875af1158015612468573d6000803e3d6000fd5b505050506040513d6000823e3d601f19601f820116820180604052508101906124919190614c97565b50600080600061249f612e4f565b9250925092507f000000000000000000000000000000000000000000000000000000000000000073ffffffffffffffffffffffffffffffffffffffff1663c5ebeaec836040518263ffffffff1660e01b81526004016124fe9190613e10565b6020604051808303816000875af115801561251d573d6000803e3d6000fd5b505050506040513d601f19601f820116820180604052508101906125419190614155565b5084600760008973ffffffffffffffffffffffffffffffffffffffff1673ffffffffffffffffffffffffffffffffffffffff1681526020019081526020016000208190555050505050505050565b6000606460327321be370d5312f44cb42ce377bc9b8a0cef1a4c8373ffffffffffffffffffffffffffffffffffffffff166370a08231306040518263ffffffff1660e01b81526004016125e29190613c3f565b602060405180830381865afa1580156125ff573d6000803e3d6000fd5b505050506040513d601f19601f820116820180604052508101906126239190614155565b61262d9190614741565b61263791906147ca565b90507321be370d5312f44cb42ce377bc9b8a0cef1a4c8373ffffffffffffffffffffffffffffffffffffffff1663095ea7b373f491e7b69e4244ad4002bc14e878a34207e38c29836040518363ffffffff1660e01b815260040161269c9291906149a5565b6020604051808303816000875af11580156126bb573d6000803e3d6000fd5b505050506040513d601f19601f820116820180604052508101906126df91906149fa565b506000600267ffffffffffffffff8111156126fd576126fc6147fb565b5b60405190808252806020026020018201604052801561272b5781602001602082028036833780820191505090505b5090507321be370d5312f44cb42ce377bc9b8a0cef1a4c83816000815181106127575761275661482a565b5b602002602001019073ffffffffffffffffffffffffffffffffffffffff16908173ffffffffffffffffffffffffffffffffffffffff1681525050736c021ae822bea943b2e66552bde1d2696a53fbb7816001815181106127ba576127b961482a565b5b602002602001019073ffffffffffffffffffffffffffffffffffffffff16908173ffffffffffffffffffffffffffffffffffffffff168152505073f491e7b69e4244ad4002bc14e878a34207e38c2973ffffffffffffffffffffffffffffffffffffffff166338ed17398360008430426040518663ffffffff1660e01b815260040161284a959493929190614917565b6000604051808303816000875af1158015612869573d6000803e3d6000fd5b505050506040513d6000823e3d601f19601f820116820180604052508101906128929190614c97565b505050565b60003073ffffffffffffffffffffffffffffffffffffffff166370a08231306040518263ffffffff1660e01b81526004016128d29190613c3f565b602060405180830381865afa1580156128ef573d6000803e3d6000fd5b505050506040513d601f19601f820116820180604052508101906129139190614155565b90506000600660009054906101000a900473ffffffffffffffffffffffffffffffffffffffff1673ffffffffffffffffffffffffffffffffffffffff166318160ddd6040518163ffffffff1660e01b8152600401602060405180830381865afa158015612984573d6000803e3d6000fd5b505050506040513d601f19601f820116820180604052508101906129a89190614155565b826129b391906147ca565b9050600083826129c39190614741565b90506000732a651563c9d3af67ae0388a5c8f89b867038089e73ffffffffffffffffffffffffffffffffffffffff166370a08231306040518263ffffffff1660e01b8152600401612a149190613c3f565b602060405180830381865afa158015612a31573d6000803e3d6000fd5b505050506040513d601f19601f82011682018060405250810190612a559190614155565b905073cc0a87f7e7c693042a9cc703661f5060c80acb4373ffffffffffffffffffffffffffffffffffffffff1663441a3e706000846040518363ffffffff1660e01b8152600401612aa7929190614b33565b600060405180830381600087803b158015612ac157600080fd5b505af1158015612ad5573d6000803e3d6000fd5b505050506000732a651563c9d3af67ae0388a5c8f89b867038089e73ffffffffffffffffffffffffffffffffffffffff166370a08231306040518263ffffffff1660e01b8152600401612b289190613c3f565b602060405180830381865afa158015612b45573d6000803e3d6000fd5b505050506040513d601f19601f82011682018060405250810190612b699190614155565b905060008282612b799190614971565b9050612b858882612fde565b5050505050505050565b505050565b505050565b600080736c021ae822bea943b2e66552bde1d2696a53fbb773ffffffffffffffffffffffffffffffffffffffff166370a08231306040518263ffffffff1660e01b8152600401612be99190613c3f565b602060405180830381865afa158015612c06573d6000803e3d6000fd5b505050506040513d601f19601f82011682018060405250810190612c2a9190614155565b91507321be370d5312f44cb42ce377bc9b8a0cef1a4c8373ffffffffffffffffffffffffffffffffffffffff166370a08231306040518263ffffffff1660e01b8152600401612c799190613c3f565b602060405180830381865afa158015612c96573d6000803e3d6000fd5b505050506040513d601f19601f82011682018060405250810190612cba9190614155565b90509091565b600060646127106064612cd391906147ca565b83612cde9190614741565b612ce89190614741565b9050919050565b600073ffffffffffffffffffffffffffffffffffffffff168273ffffffffffffffffffffffffffffffffffffffff161415612d5f576040517f08c379a0000000000000000000000000000000000000000000000000000000008152600401612d5690614d2c565b60405180910390fd5b612d6b60008383612b8f565b8060026000828254612d7d9190614243565b92505081905550806000808473ffffffffffffffffffffffffffffffffffffffff1673ffffffffffffffffffffffffffffffffffffffff1681526020019081526020016000206000828254612dd29190614243565b925050819055508173ffffffffffffffffffffffffffffffffffffffff16600073ffffffffffffffffffffffffffffffffffffffff167fddf252ad1be2c89b69c2b068fc378daa952ba7f163c4a11628f55a4df523b3ef83604051612e379190613e10565b60405180910390a3612e4b60008383612b94565b5050565b60008060007f000000000000000000000000000000000000000000000000000000000000000073ffffffffffffffffffffffffffffffffffffffff16635ec88c79306040518263ffffffff1660e01b8152600401612ead9190613c3f565b606060405180830381865afa158015612eca573d6000803e3d6000fd5b505050506040513d601f19601f82011682018060405250810190612eee9190614ae0565b909150508093505060007f000000000000000000000000000000000000000000000000000000000000000073ffffffffffffffffffffffffffffffffffffffff166365555bcc6040518163ffffffff1660e01b8152600401612f4f90614de4565b606060405180830381865afa158015612f6c573d6000803e3d6000fd5b505050506040513d601f19601f82011682018060405250810190612f909190614e80565b905080600001519150600082670de0b6b3a764000086612fb09190614741565b612fba91906147ca565b90506064604b82612fcb9190614741565b612fd591906147ca565b93505050909192565b732a651563c9d3af67ae0388a5c8f89b867038089e73ffffffffffffffffffffffffffffffffffffffff1663095ea7b373f491e7b69e4244ad4002bc14e878a34207e38c29836040518363ffffffff1660e01b81526004016130419291906149a5565b6020604051808303816000875af1158015613060573d6000803e3d6000fd5b505050506040513d601f19601f8201168201806040525081019061308491906149fa565b5060008073f491e7b69e4244ad4002bc14e878a34207e38c2973ffffffffffffffffffffffffffffffffffffffff1663baa2abde7321be370d5312f44cb42ce377bc9b8a0cef1a4c83736c021ae822bea943b2e66552bde1d2696a53fbb78660018030601e426130f49190614243565b6040518863ffffffff1660e01b81526004016131169796959493929190614ead565b60408051808303816000875af1158015613134573d6000803e3d6000fd5b505050506040513d601f19601f820116820180604052508101906131589190614f1c565b915091506131663084613177565b61317184838361334e565b50505050565b600073ffffffffffffffffffffffffffffffffffffffff168273ffffffffffffffffffffffffffffffffffffffff1614156131e7576040517f08c379a00000000000000000000000000000000000000000000000000000000081526004016131de90614fce565b60405180910390fd5b6131f382600083612b8f565b60008060008473ffffffffffffffffffffffffffffffffffffffff1673ffffffffffffffffffffffffffffffffffffffff16815260200190815260200160002054905081811015613279576040517f08c379a000000000000000000000000000000000000000000000000000000000815260040161327090615060565b60405180910390fd5b8181036000808573ffffffffffffffffffffffffffffffffffffffff1673ffffffffffffffffffffffffffffffffffffffff1681526020019081526020016000208190555081600260008282546132d09190614971565b92505081905550600073ffffffffffffffffffffffffffffffffffffffff168373ffffffffffffffffffffffffffffffffffffffff167fddf252ad1be2c89b69c2b068fc378daa952ba7f163c4a11628f55a4df523b3ef846040516133359190613e10565b60405180910390a361334983600084612b94565b505050565b736c021ae822bea943b2e66552bde1d2696a53fbb773ffffffffffffffffffffffffffffffffffffffff1663095ea7b373f491e7b69e4244ad4002bc14e878a34207e38c29836040518363ffffffff1660e01b81526004016133b19291906149a5565b6020604051808303816000875af11580156133d0573d6000803e3d6000fd5b505050506040513d601f19601f820116820180604052508101906133f491906149fa565b506000600267ffffffffffffffff811115613412576134116147fb565b5b6040519080825280602002602001820160405280156134405781602001602082028036833780820191505090505b509050736c021ae822bea943b2e66552bde1d2696a53fbb78160008151811061346c5761346b61482a565b5b602002602001019073ffffffffffffffffffffffffffffffffffffffff16908173ffffffffffffffffffffffffffffffffffffffff16815250507321be370d5312f44cb42ce377bc9b8a0cef1a4c83816001815181106134cf576134ce61482a565b5b602002602001019073ffffffffffffffffffffffffffffffffffffffff16908173ffffffffffffffffffffffffffffffffffffffff168152505060007f000000000000000000000000000000000000000000000000000000000000000073ffffffffffffffffffffffffffffffffffffffff166338ed17398460008530601e426135599190614243565b6040518663ffffffff1660e01b8152600401613579959493929190614917565b6000604051808303816000875af1158015613598573d6000803e3d6000fd5b505050506040513d6000823e3d601f19601f820116820180604052508101906135c19190614c97565b905060007f000000000000000000000000000000000000000000000000000000000000000073ffffffffffffffffffffffffffffffffffffffff166365555bcc6040518163ffffffff1660e01b815260040161361c90614de4565b606060405180830381865afa158015613639573d6000803e3d6000fd5b505050506040513d601f19601f8201168201806040525081019061365d9190614e80565b90506000826000815181106136755761367461482a565b5b6020026020010151866136889190614243565b90506000613694610ea3565b61369c610ea3565b600760008b73ffffffffffffffffffffffffffffffffffffffff1673ffffffffffffffffffffffffffffffffffffffff168152602001908152602001600020546136e691906147ca565b6136f09190614741565b90507321be370d5312f44cb42ce377bc9b8a0cef1a4c8373ffffffffffffffffffffffffffffffffffffffff1663095ea7b37f0000000000000000000000000000000000000000000000000000000000000000846040518363ffffffff1660e01b81526004016137619291906149a5565b6020604051808303816000875af1158015613780573d6000803e3d6000fd5b505050506040513d601f19601f820116820180604052508101906137a491906149fa565b507f000000000000000000000000000000000000000000000000000000000000000073ffffffffffffffffffffffffffffffffffffffff16630e752702836040518263ffffffff1660e01b81526004016137fe9190613e10565b6020604051808303816000875af115801561381d573d6000803e3d6000fd5b505050506040513d601f19601f820116820180604052508101906138419190614155565b5060007304068da6c83afcfa0e13ba15a6696662335d5b7573ffffffffffffffffffffffffffffffffffffffff166370a08231306040518263ffffffff1660e01b81526004016138919190613c3f565b602060405180830381865afa1580156138ae573d6000803e3d6000fd5b505050506040513d601f19601f820116820180604052508101906138d29190614155565b905073328a7b4d538a2b3942653a9983fda3c12c57114173ffffffffffffffffffffffffffffffffffffffff1663852a12e3836040518263ffffffff1660e01b81526004016139219190613e10565b6020604051808303816000875af1158015613940573d6000803e3d6000fd5b505050506040513d601f19601f820116820180604052508101906139649190614155565b5060007304068da6c83afcfa0e13ba15a6696662335d5b7573ffffffffffffffffffffffffffffffffffffffff166370a08231306040518263ffffffff1660e01b81526004016139b49190613c3f565b602060405180830381865afa1580156139d1573d6000803e3d6000fd5b505050506040513d601f19601f820116820180604052508101906139f59190614155565b905060008282613a059190614971565b90506000600760008d73ffffffffffffffffffffffffffffffffffffffff1673ffffffffffffffffffffffffffffffffffffffff16815260200190815260200160002054851115613a9757600760008d73ffffffffffffffffffffffffffffffffffffffff1673ffffffffffffffffffffffffffffffffffffffff168152602001908152602001600020549050613ae5565b84600760008e73ffffffffffffffffffffffffffffffffffffffff1673ffffffffffffffffffffffffffffffffffffffff16815260200190815260200160002054613ae29190614971565b90505b80600760008e73ffffffffffffffffffffffffffffffffffffffff1673ffffffffffffffffffffffffffffffffffffffff1681526020019081526020016000206000828254613b349190614971565b925050819055507304068da6c83afcfa0e13ba15a6696662335d5b7573ffffffffffffffffffffffffffffffffffffffff1663a9059cbb600660009054906101000a900473ffffffffffffffffffffffffffffffffffffffff16846040518363ffffffff1660e01b8152600401613bac9291906149a5565b6020604051808303816000875af1158015613bcb573d6000803e3d6000fd5b505050506040513d601f19601f82011682018060405250810190613bef91906149fa565b50505050505050505050505050565b600073ffffffffffffffffffffffffffffffffffffffff82169050919050565b6000613c2982613bfe565b9050919050565b613c3981613c1e565b82525050565b6000602082019050613c546000830184613c30565b92915050565b600081519050919050565b600082825260208201905092915050565b60005b83811015613c94578082015181840152602081019050613c79565b83811115613ca3576000848401525b50505050565b6000601f19601f8301169050919050565b6000613cc582613c5a565b613ccf8185613c65565b9350613cdf818560208601613c76565b613ce881613ca9565b840191505092915050565b60006020820190508181036000830152613d0d8184613cba565b905092915050565b6000604051905090565b600080fd5b600080fd5b613d3281613c1e565b8114613d3d57600080fd5b50565b600081359050613d4f81613d29565b92915050565b6000819050919050565b613d6881613d55565b8114613d7357600080fd5b50565b600081359050613d8581613d5f565b92915050565b60008060408385031215613da257613da1613d1f565b5b6000613db085828601613d40565b9250506020613dc185828601613d76565b9150509250929050565b60008115159050919050565b613de081613dcb565b82525050565b6000602082019050613dfb6000830184613dd7565b92915050565b613e0a81613d55565b82525050565b6000602082019050613e256000830184613e01565b92915050565b6000819050919050565b6000613e50613e4b613e4684613bfe565b613e2b565b613bfe565b9050919050565b6000613e6282613e35565b9050919050565b6000613e7482613e57565b9050919050565b613e8481613e69565b82525050565b6000602082019050613e9f6000830184613e7b565b92915050565b600080600060608486031215613ebe57613ebd613d1f565b5b6000613ecc86828701613d40565b9350506020613edd86828701613d40565b9250506040613eee86828701613d76565b9150509250925092565b6000613f0382613e57565b9050919050565b613f1381613ef8565b82525050565b6000602082019050613f2e6000830184613f0a565b92915050565b600060ff82169050919050565b613f4a81613f34565b82525050565b6000602082019050613f656000830184613f41565b92915050565b6000613f7682613e57565b9050919050565b613f8681613f6b565b82525050565b6000602082019050613fa16000830184613f7d565b92915050565b6000613fb282613e57565b9050919050565b613fc281613fa7565b82525050565b6000602082019050613fdd6000830184613fb9565b92915050565b600060208284031215613ff957613ff8613d1f565b5b600061400784828501613d40565b91505092915050565b60008060006060848603121561402957614028613d1f565b5b600061403786828701613d40565b935050602061404886828701613d76565b925050604061405986828701613d76565b9150509250925092565b600061406e82613e57565b9050919050565b61407e81614063565b82525050565b60006020820190506140996000830184614075565b92915050565b600080604083850312156140b6576140b5613d1f565b5b60006140c485828601613d40565b92505060206140d585828601613d40565b9150509250929050565b7f4e487b7100000000000000000000000000000000000000000000000000000000600052602260045260246000fd5b6000600282049050600182168061412657607f821691505b6020821081141561413a576141396140df565b5b50919050565b60008151905061414f81613d5f565b92915050565b60006020828403121561416b5761416a613d1f565b5b600061417984828501614140565b91505092915050565b7f45524332303a207472616e7366657220616d6f756e742065786365656473206160008201527f6c6c6f77616e6365000000000000000000000000000000000000000000000000602082015250565b60006141de602883613c65565b91506141e982614182565b604082019050919050565b6000602082019050818103600083015261420d816141d1565b9050919050565b7f4e487b7100000000000000000000000000000000000000000000000000000000600052601160045260246000fd5b600061424e82613d55565b915061425983613d55565b9250827fffffffffffffffffffffffffffffffffffffffffffffffffffffffffffffffff0382111561428e5761428d614214565b5b828201905092915050565b7f7661756c74000000000000000000000000000000000000000000000000000000600082015250565b60006142cf600583613c65565b91506142da82614299565b602082019050919050565b600060208201905081810360008301526142fe816142c2565b9050919050565b6000819050919050565b600061432a61432561432084614305565b613e2b565b613d55565b9050919050565b61433a8161430f565b82525050565b60006040820190506143556000830185614331565b6143626020830184614331565b9392505050565b7f217661756c740000000000000000000000000000000000000000000000000000600082015250565b600061439f600683613c65565b91506143aa82614369565b602082019050919050565b600060208201905081810360008301526143ce81614392565b9050919050565b7f45524332303a2064656372656173656420616c6c6f77616e63652062656c6f7760008201527f207a65726f000000000000000000000000000000000000000000000000000000602082015250565b6000614431602583613c65565b915061443c826143d5565b604082019050919050565b6000602082019050818103600083015261446081614424565b9050919050565b7f45524332303a20617070726f76652066726f6d20746865207a65726f2061646460008201527f7265737300000000000000000000000000000000000000000000000000000000602082015250565b60006144c3602483613c65565b91506144ce82614467565b604082019050919050565b600060208201905081810360008301526144f2816144b6565b9050919050565b7f45524332303a20617070726f766520746f20746865207a65726f20616464726560008201527f7373000000000000000000000000000000000000000000000000000000000000602082015250565b6000614555602283613c65565b9150614560826144f9565b604082019050919050565b6000602082019050818103600083015261458481614548565b9050919050565b7f45524332303a207472616e736665722066726f6d20746865207a65726f20616460008201527f6472657373000000000000000000000000000000000000000000000000000000602082015250565b60006145e7602583613c65565b91506145f28261458b565b604082019050919050565b60006020820190508181036000830152614616816145da565b9050919050565b7f45524332303a207472616e7366657220746f20746865207a65726f206164647260008201527f6573730000000000000000000000000000000000000000000000000000000000602082015250565b6000614679602383613c65565b91506146848261461d565b604082019050919050565b600060208201905081810360008301526146a88161466c565b9050919050565b7f45524332303a207472616e7366657220616d6f756e742065786365656473206260008201527f616c616e63650000000000000000000000000000000000000000000000000000602082015250565b600061470b602683613c65565b9150614716826146af565b604082019050919050565b6000602082019050818103600083015261473a816146fe565b9050919050565b600061474c82613d55565b915061475783613d55565b9250817fffffffffffffffffffffffffffffffffffffffffffffffffffffffffffffffff04831182151516156147905761478f614214565b5b828202905092915050565b7f4e487b7100000000000000000000000000000000000000000000000000000000600052601260045260246000fd5b60006147d582613d55565b91506147e083613d55565b9250826147f0576147ef61479b565b5b828204905092915050565b7f4e487b7100000000000000000000000000000000000000000000000000000000600052604160045260246000fd5b7f4e487b7100000000000000000000000000000000000000000000000000000000600052603260045260246000fd5b600081519050919050565b600082825260208201905092915050565b6000819050602082019050919050565b61488e81613c1e565b82525050565b60006148a08383614885565b60208301905092915050565b6000602082019050919050565b60006148c482614859565b6148ce8185614864565b93506148d983614875565b8060005b8381101561490a5781516148f18882614894565b97506148fc836148ac565b9250506001810190506148dd565b5085935050505092915050565b600060a08201905061492c6000830188613e01565b6149396020830187614331565b818103604083015261494b81866148b9565b905061495a6060830185613c30565b6149676080830184613e01565b9695505050505050565b600061497c82613d55565b915061498783613d55565b92508282101561499a57614999614214565b5b828203905092915050565b60006040820190506149ba6000830185613c30565b6149c76020830184613e01565b9392505050565b6149d781613dcb565b81146149e257600080fd5b50565b6000815190506149f4816149ce565b92915050565b600060208284031215614a1057614a0f613d1f565b5b6000614a1e848285016149e5565b91505092915050565b6000819050919050565b6000614a4c614a47614a4284614a27565b613e2b565b613d55565b9050919050565b614a5c81614a31565b82525050565b600061010082019050614a78600083018b613c30565b614a85602083018a613c30565b614a926040830189613e01565b614a9f6060830188613e01565b614aac6080830187614a53565b614ab960a0830186614a53565b614ac660c0830185613c30565b614ad360e0830184613e01565b9998505050505050505050565b600080600060608486031215614af957614af8613d1f565b5b6000614b0786828701614140565b9350506020614b1886828701614140565b9250506040614b2986828701614140565b9150509250925092565b6000604082019050614b486000830185614331565b614b556020830184613e01565b9392505050565b60006020820190508181036000830152614b7681846148b9565b905092915050565b600080fd5b614b8c82613ca9565b810181811067ffffffffffffffff82111715614bab57614baa6147fb565b5b80604052505050565b6000614bbe613d15565b9050614bca8282614b83565b919050565b600067ffffffffffffffff821115614bea57614be96147fb565b5b602082029050602081019050919050565b600080fd5b6000614c13614c0e84614bcf565b614bb4565b90508083825260208201905060208402830185811115614c3657614c35614bfb565b5b835b81811015614c5f5780614c4b8882614140565b845260208401935050602081019050614c38565b5050509392505050565b600082601f830112614c7e57614c7d614b7e565b5b8151614c8e848260208601614c00565b91505092915050565b600060208284031215614cad57614cac613d1f565b5b600082015167ffffffffffffffff811115614ccb57614cca613d24565b5b614cd784828501614c69565b91505092915050565b7f45524332303a206d696e7420746f20746865207a65726f206164647265737300600082015250565b6000614d16601f83613c65565b9150614d2182614ce0565b602082019050919050565b60006020820190508181036000830152614d4581614d09565b9050919050565b7f46544d0000000000000000000000000000000000000000000000000000000000600082015250565b6000614d82600383613c65565b9150614d8d82614d4c565b602082019050919050565b7f5553444300000000000000000000000000000000000000000000000000000000600082015250565b6000614dce600483613c65565b9150614dd982614d98565b602082019050919050565b60006040820190508181036000830152614dfd81614d75565b90508181036020830152614e1081614dc1565b9050919050565b600080fd5b600060608284031215614e3257614e31614e17565b5b614e3c6060614bb4565b90506000614e4c84828501614140565b6000830152506020614e6084828501614140565b6020830152506040614e7484828501614140565b60408301525092915050565b600060608284031215614e9657614e95613d1f565b5b6000614ea484828501614e1c565b91505092915050565b600060e082019050614ec2600083018a613c30565b614ecf6020830189613c30565b614edc6040830188613e01565b614ee96060830187614a53565b614ef66080830186614a53565b614f0360a0830185613c30565b614f1060c0830184613e01565b98975050505050505050565b60008060408385031215614f3357614f32613d1f565b5b6000614f4185828601614140565b9250506020614f5285828601614140565b9150509250929050565b7f45524332303a206275726e2066726f6d20746865207a65726f2061646472657360008201527f7300000000000000000000000000000000000000000000000000000000000000602082015250565b6000614fb8602183613c65565b9150614fc382614f5c565b604082019050919050565b60006020820190508181036000830152614fe781614fab565b9050919050565b7f45524332303a206275726e20616d6f756e7420657863656564732062616c616e60008201527f6365000000000000000000000000000000000000000000000000000000000000602082015250565b600061504a602283613c65565b915061505582614fee565b604082019050919050565b600060208201905081810360008301526150798161503d565b905091905056fea2646970667358221220293a08bfe7cfc19e18caa7b617c0b98de05273fd847a14a5dbf8339ae1ed19d564736f6c634300080a0033",
  "immutableReferences": {
    "2131": [
      {
        "length": 32,
        "start": 3543
      },
      {
        "length": 32,
        "start": 6222
      },
      {
        "length": 32,
        "start": 6804
      },
      {
        "length": 32,
        "start": 13581
      }
    ],
    "2134": [
      {
        "length": 32,
        "start": 3203
      },
      {
        "length": 32,
        "start": 9202
      },
      {
        "length": 32,
        "start": 11862
      }
    ],
    "2137": [
      {
        "length": 32,
        "start": 2624
      },
      {
        "length": 32,
        "start": 12026
      },
      {
        "length": 32,
        "start": 13767
      }
    ],
    "2140": [
      {
        "length": 32,
        "start": 2167
      },
      {
        "length": 32,
        "start": 9383
      },
      {
        "length": 32,
        "start": 14116
      },
      {
        "length": 32,
        "start": 14247
      }
    ]
  },
  "source": "pragma solidity ^0.8.10; \npragma abicoder v2;  \n\nimport \"../DjinnBottleUSDC.sol\"; \nimport \"../interfaces/CTokenInterfaces.sol\"; \nimport \"../interfaces/ComptrollerInterface.sol\";  \nimport \"../interfaces/IStdReference.sol\"; \nimport \"@uniswap/v2-periphery/contracts/interfaces/IUniswapV2Router02.sol\"; \nimport \"../interfaces/IMasterChef.sol\"; \nimport \"@openzeppelin/contracts/token/ERC20/IERC20.sol\"; \n\n\ncontract ShortFarmFTM is ERC20 {\n\t\n\t//Contract Specifics \n\taddress public creator; \n\tuint private constant CREATOR_FEE = 100; //1% \n\tDjinnBottleUSDC public VAULT; \n\n\tmapping(address => uint) public depositBalance; \n\n\t//Cream Finance Contracts \n\taddress public constant crUSDC = 0x328A7b4d538A2b3942653a9983fdA3C12c571141; \n\n\t//Public Tokens\n\taddress public constant USDC = 0x04068DA6C83AFCFA0e13ba15A6696662335D5B75; \n\taddress public constant WFTM = 0x21be370D5312f44cB42ce377BC9b8a0cEF1A4C83; \n\taddress public constant TOMB = 0x6c021Ae822BEa943b2E66552bDe1D2696a53fbB7; \n\taddress public constant TSHARE = 0x4cdF39285D7Ca8eB3f090fDA0C069ba5F4145B37; \n\t\n\t//SpookySwap Router, LP, TSHAREPool \n\taddress public constant spookyAddress = 0xF491e7B69E4244ad4002BC14e878a34207E38c29;\t\t\n\taddress public constant spookyFtmTombLP = 0x2A651563C9d3Af67aE0388a5c8F89b867038089e; \n\taddress public constant tShareRewardPool = 0xcc0a87F7e7c693042a9Cc703661F5060c80ACb43; \n\n\n\t//Contract Interfaces  \n\tIUniswapV2Router02 public immutable spookyRouter; \n\tComptrollerInterface public immutable comptroller; \n\tIStdReference public immutable priceOracle;\n\tCERC20 public immutable crWFTM; \t\n\t\n\n\n\tconstructor(DjinnBottleUSDC _djBottle, \t\n\t\t\t\tIUniswapV2Router02 _spookyRouter, \n\t\t\t\tComptrollerInterface _comptroller, \n\t\t\t\tIStdReference _priceOracle,\n\t\t\t\tCERC20 _cERC20) ERC20(\"Djinn Finance FTM Short Farm\", \"dfFTMShort\") {\n\t\t\t\t\taddress creator = msg.sender;\n\t\t\t\t\tVAULT = _djBottle; \n\t\t\t\t\tspookyRouter = _spookyRouter; \n\t\t\t\t\tcomptroller = _comptroller;  \n\t\t\t\t\tpriceOracle = _priceOracle; \n\t\t\t\t\tcrWFTM = _cERC20; \n\t\t\t\t}\n\t\n\t//automate opening a position\n\t//designed for single user ie. user opens via vault contract \t\n\tfunction open(address user, uint amount, uint amountShares) external {\n\t\trequire(msg.sender == address(VAULT), \"!vault\"); \n\t\tborrow(user, amount, amountShares); //same amount in USDC to keep track of how many tokens we have supplied \n\t\tswap(); //swap half of bal to TOMB and unwrap the rest to FTM \n\t\tgetLPTokens(); //get FTM-TOMB LP tokens \t\n\t\tdepositLPGetTShare(); //deposit LP tokens on TOMB to earn TSHARE\n\t}\n\n\t//automate the harvest \n\tfunction harvest() external {\n\t\trequire(msg.sender == address(VAULT), \"vault\"); \n\t\tIMasterChef(tShareRewardPool).deposit(0, 0); //0 is poolId and we call a deposit of 0 to allocate the shares to this contract\n\t\tsellAndSwap(); //sell tshare for 50% TOMB 50% WFTM \n\t\tgetLPTokens(); \n\t\tdepositLPGetTShare(); \n\t}\n\t\n\t//automate the closing of the position\n\t//designed for single use ie. user closes via vault contract \t\n\t//so we need to vault contract to determine how many tokens belong to the user from this contract \n\tfunction close(address user, uint amountShares) external {\n\t\trequire(msg.sender == address(VAULT), \"!vault\"); \n\t\t//swap all LP tokens back to underlying \n\t\tswapAndWithdraw(user, amountShares);   \n\t}\n\t\n\t//next we borrow WTFM from cream <= 75% so we don't get liquidated\n\t//cream allows for 75% collateral on deposits of USDC, but this 75% is on the 75% \n\t//so we are effectively borrowing ~55% of our deposit amount, which leaves room to the upside  \t\t\n\tfunction borrow(address user, uint amount, uint amountShares) internal {\n\t\t//first we supply USDC\n\t\tIERC20(USDC).approve(crUSDC, amount);  \n\t\tCERC20(crUSDC).mint(amount); \n\t\t\n\t\t//we enter the marker to use usdc as collateral \t\n\t\taddress[] memory cTokenSupplied = new address[](1); \n\t\tcTokenSupplied[0] = crUSDC; //cToken address\n\t\tcomptroller.enterMarkets(cTokenSupplied); \n\t\t\n\t\t//get max borrow && borrow  \n\t\t(uint liquidity, uint borrowAmount, uint price) = getBorrowAmount();\n\t\tcrWFTM.borrow(borrowAmount);  \n\t\t\n\t\tdepositBalance[user] = amountShares; \n\t}\n\n\tfunction getBorrowAmount() internal view returns(uint liquidity, uint borrowAmount, uint price) {\n\t\t(, liquidity,) = comptroller.getAccountLiquidity(address(this)); \n\t\tIStdReference.ReferenceData memory data = priceOracle.getReferenceData(\"FTM\", \"USDC\"); \n\t\tprice = data.rate; \n\t\tuint maxTokenBorrow = (liquidity * 10**18) / price; //wFTM has 18 decimals   \t\n\t\tborrowAmount = (maxTokenBorrow * 75) / 100; //this is token amount  \n\t\treturn (liquidity, borrowAmount, price); \n\t}\n\n\t//where amount is the percentage of LP tokens relative to the callers % ownership of the vault \n\tfunction swapAndWithdraw(address user, uint amountShares) internal {\n\t\tuint strategyBalance = IERC20(address(this)).balanceOf(address(this)); \n\t\tuint sharePerLPToken = strategyBalance / VAULT.totalSupply(); //both already WAD scaled \n\t\tuint percentLP = sharePerLPToken * amountShares; \n\n\t\t//we first withdraw the LP tokens from TOMB  \n\t\t//we have to check the balances before and after the withdrawl in case there are leftovers \n\t\tuint amountBefore = IERC20(spookyFtmTombLP).balanceOf(address(this)); \n\t\tIMasterChef(tShareRewardPool).withdraw(0, percentLP);  \n\t\tuint amountAfter = IERC20(spookyFtmTombLP).balanceOf(address(this)); \n\t\tuint lpTokenAmount = amountAfter - amountBefore; \n\t\t\n\t\tremoveLiq(user, lpTokenAmount); \n\t}\n\n\tfunction getbal() external view returns(uint) {\n\t\treturn IERC20(spookyFtmTombLP).balanceOf(address(this)); \n\t}\n\n\tfunction removeLiq(address user, uint lpTokenAmount) internal {\t\t \n\t\t//we remove liquidity belonging to the user(amount) back for tomb + wftm \n\t\tIERC20(spookyFtmTombLP).approve(spookyAddress, lpTokenAmount); \n\t\t(uint amountWftm, uint amountTomb) = IUniswapV2Router02(spookyAddress).removeLiquidity(\n\t\t\tWFTM,\n\t\t\tTOMB, \n\t\t\tlpTokenAmount,\n\t\t   \t1,\n\t\t   \t1,\n\t\t   \taddress(this),\n\t\t   \tblock.timestamp + 30\n\t\t); \n\n\t\t_burn(address(this), lpTokenAmount); \n\t\t//next step\t\n\t\tswapBack(user, amountWftm, amountTomb); \n\t}\n\n\tfunction getUnderlying() public returns(uint) {\n\t\treturn CERC20(crUSDC).balanceOfUnderlying(address(this)); //this returns the underlying USDC amount in 6 decimals \n\t}\n\t\n\tfunction swapBack(address user, uint amountWftm, uint amountTomb) internal {\n\t\t//now we swap tomb back for wftm\n\t\t//only need to approve TOMB because wftm is not being swapped \n\t\tIERC20(TOMB).approve(spookyAddress, amountTomb); \n\t\taddress[] memory path = new address[](2); \n\t\tpath[0] = TOMB; \n\t\tpath[1] = WFTM; \n\t\tuint[] memory amounts = spookyRouter.swapExactTokensForTokens(\n\t\t\tamountTomb,\n\t\t\t0,\n\t\t\tpath,\n\t\t\taddress(this),\n\t\t\tblock.timestamp + 30\n\t\t);\n\t\n\t\tIStdReference.ReferenceData memory data = priceOracle.getReferenceData(\"FTM\", \"USDC\"); \t\t\n\t\tuint amountToRepay = amountWftm + amounts[0]; //amount from removing liq + amount from swap  \n\t\t//uint dollarAmount = (amountToRepay / 1e18) * (data.rate / 1e18) * 1e6; //token price in USDC for amount of wftm   \n\t\t//uint redeemAmount = dollarAmount + depositBalance[user]; //initial deposit + any profits from swapping back \n\t\t\n\t\t//deposit balance is share amount \n\t\tuint redeemAmount = (depositBalance[user] / getUnderlying()) * getUnderlying(); //percentage of underlying by share amount  \n\n \n\t\t//now we can repay our users borrow\n\t   \t//need to convert wftm token amount to dollar amount \n\t\tIERC20(WFTM).approve(address(crWFTM), amountToRepay); //this is wftm token amount  \n\t\tcrWFTM.repayBorrow(amountToRepay); \n\t\t\n\t\t//creamUSDC balance redeem \n\t\tuint beforeBalance = IERC20(USDC).balanceOf(address(this)); \n\t\tCERC20(crUSDC).redeemUnderlying(redeemAmount); \n\t\t\n\t\t//get usdc balance after redeem \n\t\tuint afterBalance = IERC20(USDC).balanceOf(address(this));\n\t\tuint sendAmount\t= afterBalance - beforeBalance; //check for difference to send correct amount \n\t\n\t\t//update deposit mapping\t\n\t\tuint subtractAmount; \n\t\tif (redeemAmount > depositBalance[user]) {\n\t\t\tsubtractAmount = depositBalance[user]; //if they are redeeming their whole position    \n\t\t} else {\n\t\t\tsubtractAmount = depositBalance[user] - redeemAmount; \n\t\t}\n\t\tdepositBalance[user] -= subtractAmount;  \n\t\n\t\tIERC20(USDC).transfer(address(VAULT), sendAmount);  \n\t}\n\n\t//then we send the funds to spookyswap where we sell 50% to tomb and then unwrap the rest \n\tfunction swap() internal { \n\t\t//swap 50% to TOMB & approve \n\t\tuint half = IERC20(WFTM).balanceOf(address(this)) * 50 / 100; \n\t\tIERC20(WFTM).approve(spookyAddress, half);\n\t\n \n         address[] memory path = new address[](2);\n         path[0] = WFTM;\n         path[1] = TOMB;\n         IUniswapV2Router02(spookyAddress).swapExactTokensForTokens(\n             half,\n             0,\n             path,\n             address(this),\n             block.timestamp\n\t\t ); \n\t }\n\n\tfunction sellAndSwap() internal {\n\t\t(uint tombBefore, uint wftmBefore) = getIERC20Balance(); \n\n\t\tuint half = IERC20(TSHARE).balanceOf(address(this)) * 50 / 100;   \n\t\taddress[] memory pathToTomb = new address[](3); \n\t\tpathToTomb[0] = TSHARE;  \n\t\tpathToTomb[1] = WFTM; \n\t\tpathToTomb[2] = TOMB; \n\t\tspookyRouter.swapExactTokensForTokensSupportingFeeOnTransferTokens(\n\t\t\thalf,\n\t\t\t0,\n\t\t\tpathToTomb,\n\t\t\taddress(this),\n\t\t\tblock.timestamp + 30\n\t\t); \n\n\t\t//swap rest to WFTM \n\t\tuint rest = IERC20(TSHARE).balanceOf(address(this)); \n\t\taddress[] memory pathToWftm = new address[](2); \n\t\tpathToWftm[0] = TSHARE; \n\t\tpathToWftm[1] = WFTM; \n\t\tspookyRouter.swapExactTokensForTokensSupportingFeeOnTransferTokens(\n\t\t\trest,\n\t\t\t0,\n\t\t\tpathToWftm,\n\t\t\taddress(this),\n\t\t\tblock.timestamp + 30\n\t\t); \n\t\t\n\t\t(uint tombAfter, uint wftmAfter) = getIERC20Balance(); \t\n\t\tuint tombToSend = tombAfter - tombBefore; \n\t\tuint wftmToSend = wftmAfter - wftmBefore; \n\t\t\n\t\t//charge the fees here\n\t\tuint feeAmountTomb = chargeFeesOnHarvest(tombToSend); \t\n\t\tuint feeAmountWftm = chargeFeesOnHarvest(wftmToSend);\n\t\tIERC20(TOMB).transfer(address(VAULT), feeAmountTomb); \n\t\tIERC20(WFTM).transfer(address(VAULT), feeAmountWftm); \t\n\t}\n\n\tfunction getLPTokens() internal {\n\t\t//we need to approve the router to spend our TOMB\n\t\tuint tombAmount = IERC20(TOMB).balanceOf(address(this)); \n\t\tuint ftmAmount = IERC20(WFTM).balanceOf(address(this));  \n\n\t\t//now we add liquidity \n\t\t//@params token, tokenAmount, minToken, minETH, to, deadline\n\t\tIERC20(TOMB).approve(spookyAddress, tombAmount); \n\t\tIERC20(WFTM).approve(spookyAddress, ftmAmount); \n\t\tIUniswapV2Router02(spookyAddress).addLiquidity(TOMB, WFTM, tombAmount, ftmAmount, 1, 1, address(this), block.timestamp + 30); \n\t}\n\n\tfunction depositLPGetTShare() internal {\n\t\t//deposit into tshare vault using _pid but idk how to get that currently \t\n\t\tuint lpTokenBalance = IERC20(spookyFtmTombLP).balanceOf(address(this)); \n\n\t\t_mint(address(this), lpTokenBalance); \n\n\t\t//after this deposit the contract should be earning tshares as a reward \n\t\tIERC20(spookyFtmTombLP).approve(tShareRewardPool, lpTokenBalance); \n\t\tIMasterChef(tShareRewardPool).deposit(0, lpTokenBalance); //FTM-TOMB pool ID is 0 on Tomb.finance  \n\t}\n\n\tfunction chargeFeesOnHarvest(uint amount) internal view returns(uint feeAmount) {\n\t\treturn feeAmount = amount * (CREATOR_FEE / 10000) * 100; //0.1 or 1% \n\t}\n\n\tfunction getIERC20Balance() internal view returns(uint amountTomb, uint amountWftm) {\n\t\tamountTomb = IERC20(TOMB).balanceOf(address(this)); \n\t\tamountWftm = IERC20(WFTM).balanceOf(address(this)); \n\t\treturn (amountTomb, amountWftm); \n\t}\n\n\treceive() external payable{} \n\t\n} \n",
  "sourcePath": "/home/kevin/Code/solidity_projects/djinn/contracts/strategies/ShortFarmFTM.sol",
  "compiler": {
    "name": "solc",
    "version": "0.8.10+commit.fc410830.Emscripten.clang"
  },
  "schemaVersion": "3.4.3",
  "updatedAt": "2022-02-05T15:22:43.598Z",
  "networkType": "ethereum",
  "devdoc": {
    "kind": "dev",
    "methods": {
      "allowance(address,address)": {
        "details": "See {IERC20-allowance}."
      },
      "approve(address,uint256)": {
        "details": "See {IERC20-approve}. Requirements: - `spender` cannot be the zero address."
      },
      "balanceOf(address)": {
        "details": "See {IERC20-balanceOf}."
      },
      "decimals()": {
        "details": "Returns the number of decimals used to get its user representation. For example, if `decimals` equals `2`, a balance of `505` tokens should be displayed to a user as `5.05` (`505 / 10 ** 2`). Tokens usually opt for a value of 18, imitating the relationship between Ether and Wei. This is the value {ERC20} uses, unless this function is overridden; NOTE: This information is only used for _display_ purposes: it in no way affects any of the arithmetic of the contract, including {IERC20-balanceOf} and {IERC20-transfer}."
      },
      "decreaseAllowance(address,uint256)": {
        "details": "Atomically decreases the allowance granted to `spender` by the caller. This is an alternative to {approve} that can be used as a mitigation for problems described in {IERC20-approve}. Emits an {Approval} event indicating the updated allowance. Requirements: - `spender` cannot be the zero address. - `spender` must have allowance for the caller of at least `subtractedValue`."
      },
      "increaseAllowance(address,uint256)": {
        "details": "Atomically increases the allowance granted to `spender` by the caller. This is an alternative to {approve} that can be used as a mitigation for problems described in {IERC20-approve}. Emits an {Approval} event indicating the updated allowance. Requirements: - `spender` cannot be the zero address."
      },
      "name()": {
        "details": "Returns the name of the token."
      },
      "symbol()": {
        "details": "Returns the symbol of the token, usually a shorter version of the name."
      },
      "totalSupply()": {
        "details": "See {IERC20-totalSupply}."
      },
      "transfer(address,uint256)": {
        "details": "See {IERC20-transfer}. Requirements: - `recipient` cannot be the zero address. - the caller must have a balance of at least `amount`."
      },
      "transferFrom(address,address,uint256)": {
        "details": "See {IERC20-transferFrom}. Emits an {Approval} event indicating the updated allowance. This is not required by the EIP. See the note at the beginning of {ERC20}. Requirements: - `sender` and `recipient` cannot be the zero address. - `sender` must have a balance of at least `amount`. - the caller must have allowance for ``sender``'s tokens of at least `amount`."
      }
    },
    "version": 1
  },
  "userdoc": {
    "kind": "user",
    "methods": {},
    "version": 1
  }
}