{
  "contractName": "ShortFarmFTM",
  "abi": [
    {
      "inputs": [
        {
          "internalType": "contract DjinnBottleUSDC",
          "name": "_djBottle",
          "type": "address"
        },
        {
          "internalType": "contract IUniswapV2Router02",
          "name": "_spookyRouter",
          "type": "address"
        },
        {
          "internalType": "contract IMasterChef",
          "name": "_tsharePool",
          "type": "address"
        },
        {
          "internalType": "contract ComptrollerInterface",
          "name": "_comptroller",
          "type": "address"
        },
        {
          "internalType": "contract IStdReference",
          "name": "_priceOracle",
          "type": "address"
        },
        {
          "internalType": "contract CERC20",
          "name": "_cERC20",
          "type": "address"
        }
      ],
      "stateMutability": "nonpayable",
      "type": "constructor"
    },
    {
      "inputs": [],
      "name": "TOMB",
      "outputs": [
        {
          "internalType": "address",
          "name": "",
          "type": "address"
        }
      ],
      "stateMutability": "view",
      "type": "function",
      "constant": true
    },
    {
      "inputs": [],
      "name": "TSHARE",
      "outputs": [
        {
          "internalType": "address",
          "name": "",
          "type": "address"
        }
      ],
      "stateMutability": "view",
      "type": "function",
      "constant": true
    },
    {
      "inputs": [],
      "name": "USDC",
      "outputs": [
        {
          "internalType": "address",
          "name": "",
          "type": "address"
        }
      ],
      "stateMutability": "view",
      "type": "function",
      "constant": true
    },
    {
      "inputs": [],
      "name": "VAULT",
      "outputs": [
        {
          "internalType": "contract DjinnBottleUSDC",
          "name": "",
          "type": "address"
        }
      ],
      "stateMutability": "view",
      "type": "function",
      "constant": true
    },
    {
      "inputs": [],
      "name": "WFTM",
      "outputs": [
        {
          "internalType": "address",
          "name": "",
          "type": "address"
        }
      ],
      "stateMutability": "view",
      "type": "function",
      "constant": true
    },
    {
      "inputs": [],
      "name": "comptroller",
      "outputs": [
        {
          "internalType": "contract ComptrollerInterface",
          "name": "",
          "type": "address"
        }
      ],
      "stateMutability": "view",
      "type": "function",
      "constant": true
    },
    {
      "inputs": [],
      "name": "crUSDC",
      "outputs": [
        {
          "internalType": "address",
          "name": "",
          "type": "address"
        }
      ],
      "stateMutability": "view",
      "type": "function",
      "constant": true
    },
    {
      "inputs": [],
      "name": "crWFTM",
      "outputs": [
        {
          "internalType": "contract CERC20",
          "name": "",
          "type": "address"
        }
      ],
      "stateMutability": "view",
      "type": "function",
      "constant": true
    },
    {
      "inputs": [],
      "name": "creator",
      "outputs": [
        {
          "internalType": "address",
          "name": "",
          "type": "address"
        }
      ],
      "stateMutability": "view",
      "type": "function",
      "constant": true
    },
    {
      "inputs": [],
      "name": "priceOracle",
      "outputs": [
        {
          "internalType": "contract IStdReference",
          "name": "",
          "type": "address"
        }
      ],
      "stateMutability": "view",
      "type": "function",
      "constant": true
    },
    {
      "inputs": [],
      "name": "spookyAddress",
      "outputs": [
        {
          "internalType": "address",
          "name": "",
          "type": "address"
        }
      ],
      "stateMutability": "view",
      "type": "function",
      "constant": true
    },
    {
      "inputs": [],
      "name": "spookyFtmTombLP",
      "outputs": [
        {
          "internalType": "address",
          "name": "",
          "type": "address"
        }
      ],
      "stateMutability": "view",
      "type": "function",
      "constant": true
    },
    {
      "inputs": [],
      "name": "spookyRouter",
      "outputs": [
        {
          "internalType": "contract IUniswapV2Router02",
          "name": "",
          "type": "address"
        }
      ],
      "stateMutability": "view",
      "type": "function",
      "constant": true
    },
    {
      "inputs": [],
      "name": "tsharePool",
      "outputs": [
        {
          "internalType": "contract IMasterChef",
          "name": "",
          "type": "address"
        }
      ],
      "stateMutability": "view",
      "type": "function",
      "constant": true
    },
    {
      "stateMutability": "payable",
      "type": "receive",
      "payable": true
    },
    {
      "inputs": [
        {
          "internalType": "uint256",
          "name": "amount",
          "type": "uint256"
        }
      ],
      "name": "open",
      "outputs": [],
      "stateMutability": "nonpayable",
      "type": "function"
    },
    {
      "inputs": [],
      "name": "harvest",
      "outputs": [],
      "stateMutability": "nonpayable",
      "type": "function"
    },
    {
      "inputs": [
        {
          "internalType": "uint256",
          "name": "amount",
          "type": "uint256"
        }
      ],
      "name": "close",
      "outputs": [],
      "stateMutability": "nonpayable",
      "type": "function"
    },
    {
      "inputs": [],
      "name": "getBorrowAmount",
      "outputs": [
        {
          "internalType": "uint256",
          "name": "liquidity",
          "type": "uint256"
        },
        {
          "internalType": "uint256",
          "name": "borrowAmount",
          "type": "uint256"
        },
        {
          "internalType": "uint256",
          "name": "price",
          "type": "uint256"
        }
      ],
      "stateMutability": "view",
      "type": "function",
      "constant": true
    }
  ],
  "bytecode": "0x61022060405273328a7b4d538a2b3942653a9983fda3c12c57114173ffffffffffffffffffffffffffffffffffffffff1660a09073ffffffffffffffffffffffffffffffffffffffff168152507304068da6c83afcfa0e13ba15a6696662335d5b7573ffffffffffffffffffffffffffffffffffffffff1660c09073ffffffffffffffffffffffffffffffffffffffff168152507321be370d5312f44cb42ce377bc9b8a0cef1a4c8373ffffffffffffffffffffffffffffffffffffffff1660e09073ffffffffffffffffffffffffffffffffffffffff16815250736c021ae822bea943b2e66552bde1d2696a53fbb773ffffffffffffffffffffffffffffffffffffffff166101009073ffffffffffffffffffffffffffffffffffffffff16815250734cdf39285d7ca8eb3f090fda0c069ba5f4145b3773ffffffffffffffffffffffffffffffffffffffff166101209073ffffffffffffffffffffffffffffffffffffffff16815250732a651563c9d3af67ae0388a5c8f89b867038089e73ffffffffffffffffffffffffffffffffffffffff166101409073ffffffffffffffffffffffffffffffffffffffff1681525073f491e7b69e4244ad4002bc14e878a34207e38c2973ffffffffffffffffffffffffffffffffffffffff166101609073ffffffffffffffffffffffffffffffffffffffff168152503480156200020757600080fd5b506040516200307a3803806200307a83398181016040528101906200022d919062000553565b60003390508573ffffffffffffffffffffffffffffffffffffffff166101808173ffffffffffffffffffffffffffffffffffffffff16815250508673ffffffffffffffffffffffffffffffffffffffff1660808173ffffffffffffffffffffffffffffffffffffffff16815250508473ffffffffffffffffffffffffffffffffffffffff166101a08173ffffffffffffffffffffffffffffffffffffffff16815250508373ffffffffffffffffffffffffffffffffffffffff166101c08173ffffffffffffffffffffffffffffffffffffffff16815250508273ffffffffffffffffffffffffffffffffffffffff166101e08173ffffffffffffffffffffffffffffffffffffffff16815250508173ffffffffffffffffffffffffffffffffffffffff166102008173ffffffffffffffffffffffffffffffffffffffff168152505050505050505050620005ef565b600080fd5b600073ffffffffffffffffffffffffffffffffffffffff82169050919050565b6000620003ae8262000381565b9050919050565b6000620003c282620003a1565b9050919050565b620003d481620003b5565b8114620003e057600080fd5b50565b600081519050620003f481620003c9565b92915050565b60006200040782620003a1565b9050919050565b6200041981620003fa565b81146200042557600080fd5b50565b60008151905062000439816200040e565b92915050565b60006200044c82620003a1565b9050919050565b6200045e816200043f565b81146200046a57600080fd5b50565b6000815190506200047e8162000453565b92915050565b60006200049182620003a1565b9050919050565b620004a38162000484565b8114620004af57600080fd5b50565b600081519050620004c38162000498565b92915050565b6000620004d682620003a1565b9050919050565b620004e881620004c9565b8114620004f457600080fd5b50565b6000815190506200050881620004dd565b92915050565b60006200051b82620003a1565b9050919050565b6200052d816200050e565b81146200053957600080fd5b50565b6000815190506200054d8162000522565b92915050565b60008060008060008060c087890312156200057357620005726200037c565b5b60006200058389828a01620003e3565b96505060206200059689828a0162000428565b9550506040620005a989828a016200046d565b9450506060620005bc89828a01620004b2565b9350506080620005cf89828a01620004f7565b92505060a0620005e289828a016200053c565b9150509295509295509295565b60805160a05160c05160e05161010051610120516101405161016051610180516101a0516101c0516101e051610200516128f262000788600039600081816104c901528181610dcc0152611a7e01526000818161051101526107350152600081816106950152818161081f015261196d0152600081816105e70152818161090c01528181610a3201526116be0152600081816108a001528181610ac301528181610ce9015281816110d50152818161133f0152611522015260006108e80152600081816108c40152818161098c015261162201526000818161093001528181610e7901528181610f8801528181611177015261126101526000818161095401528181610aff01528181610c0901528181611066015281816113e8015261155e0152600081816104ed01528181610b2001528181610c7801528181610ff7015281816112d001528181611486015261157f01526000818161087c015261174f0152600081816108580152818161178b0152818161180e01526118fc01526000818161042f01528181610535015261055901526128f26000f3fe60806040526004361061010d5760003560e01c8063690e7c09116100955780639cdd8ee7116100645780639cdd8ee714610332578063a6f8d4051461035d578063a7afae2914610388578063b5ee45c1146103b3578063c139acfa146103de57610114565b8063690e7c091461028857806382c70bbf146102b157806389a30271146102dc5780638ed8ea7e1461030757610114565b80632630c12f116100dc5780632630c12f146101c3578063411557d1146101ee5780634641257d146102195780634fbb30ed146102305780635fe3b5671461025d57610114565b806302d05d3f146101195780630aebeb4e146101445780631882bf441461016d57806321dbe8761461019857610114565b3661011457005b600080fd5b34801561012557600080fd5b5061012e610409565b60405161013b9190611b9f565b60405180910390f35b34801561015057600080fd5b5061016b60048036038101906101669190611c04565b61042d565b005b34801561017957600080fd5b506101826104c7565b60405161018f9190611c90565b60405180910390f35b3480156101a457600080fd5b506101ad6104eb565b6040516101ba9190611b9f565b60405180910390f35b3480156101cf57600080fd5b506101d861050f565b6040516101e59190611ccc565b60405180910390f35b3480156101fa57600080fd5b50610203610533565b6040516102109190611d08565b60405180910390f35b34801561022557600080fd5b5061022e610557565b005b34801561023c57600080fd5b5061024561068d565b60405161025493929190611d32565b60405180910390f35b34801561026957600080fd5b5061027261081d565b60405161027f9190611d8a565b60405180910390f35b34801561029457600080fd5b506102af60048036038101906102aa9190611c04565b610841565b005b3480156102bd57600080fd5b506102c6610856565b6040516102d39190611b9f565b60405180910390f35b3480156102e857600080fd5b506102f161087a565b6040516102fe9190611b9f565b60405180910390f35b34801561031357600080fd5b5061031c61089e565b6040516103299190611dc6565b60405180910390f35b34801561033e57600080fd5b506103476108c2565b6040516103549190611b9f565b60405180910390f35b34801561036957600080fd5b506103726108e6565b60405161037f9190611b9f565b60405180910390f35b34801561039457600080fd5b5061039d61090a565b6040516103aa9190611e02565b60405180910390f35b3480156103bf57600080fd5b506103c861092e565b6040516103d59190611b9f565b60405180910390f35b3480156103ea57600080fd5b506103f3610952565b6040516104009190611b9f565b60405180910390f35b60008054906101000a900473ffffffffffffffffffffffffffffffffffffffff1681565b7f000000000000000000000000000000000000000000000000000000000000000073ffffffffffffffffffffffffffffffffffffffff163373ffffffffffffffffffffffffffffffffffffffff16146104bb576040517f08c379a00000000000000000000000000000000000000000000000000000000081526004016104b290611e7a565b60405180910390fd5b6104c481610976565b50565b7f000000000000000000000000000000000000000000000000000000000000000081565b7f000000000000000000000000000000000000000000000000000000000000000081565b7f000000000000000000000000000000000000000000000000000000000000000081565b7f000000000000000000000000000000000000000000000000000000000000000081565b7f000000000000000000000000000000000000000000000000000000000000000073ffffffffffffffffffffffffffffffffffffffff163373ffffffffffffffffffffffffffffffffffffffff16146105e5576040517f08c379a00000000000000000000000000000000000000000000000000000000081526004016105dc90611ee6565b60405180910390fd5b7f000000000000000000000000000000000000000000000000000000000000000073ffffffffffffffffffffffffffffffffffffffff1663e2bbb1586000806040518363ffffffff1660e01b8152600401610641929190611f41565b600060405180830381600087803b15801561065b57600080fd5b505af115801561066f573d6000803e3d6000fd5b5050505061067b610e71565b6106836113e4565b61068b61161e565b565b6000806000807f000000000000000000000000000000000000000000000000000000000000000073ffffffffffffffffffffffffffffffffffffffff16635ec88c79306040518263ffffffff1660e01b81526004016106ec9190611b9f565b606060405180830381865afa158015610709573d6000803e3d6000fd5b505050506040513d601f19601f8201168201806040525081019061072d9190611f7f565b5091505060007f000000000000000000000000000000000000000000000000000000000000000073ffffffffffffffffffffffffffffffffffffffff166365555bcc6040518163ffffffff1660e01b815260040161078a9061206a565b606060405180830381865afa1580156107a7573d6000803e3d6000fd5b505050506040513d601f19601f820116820180604052508101906107cb9190612192565b905080600001519250600083670de0b6b3a7640000846107eb91906121ee565b6107f59190612277565b90506064604b8261080691906121ee565b6108109190612277565b9450829550505050909192565b7f000000000000000000000000000000000000000000000000000000000000000081565b61084a8161174d565b610853816118ac565b50565b7f000000000000000000000000000000000000000000000000000000000000000081565b7f000000000000000000000000000000000000000000000000000000000000000081565b7f000000000000000000000000000000000000000000000000000000000000000081565b7f000000000000000000000000000000000000000000000000000000000000000081565b7f000000000000000000000000000000000000000000000000000000000000000081565b7f000000000000000000000000000000000000000000000000000000000000000081565b7f000000000000000000000000000000000000000000000000000000000000000081565b7f000000000000000000000000000000000000000000000000000000000000000081565b60006064826109859190612277565b90506000817f000000000000000000000000000000000000000000000000000000000000000073ffffffffffffffffffffffffffffffffffffffff166370a08231306040518263ffffffff1660e01b81526004016109e39190611b9f565b602060405180830381865afa158015610a00573d6000803e3d6000fd5b505050506040513d601f19601f82011682018060405250810190610a2491906122a8565b610a2e91906121ee565b90507f000000000000000000000000000000000000000000000000000000000000000073ffffffffffffffffffffffffffffffffffffffff1663441a3e706000836040518363ffffffff1660e01b8152600401610a8c9291906122d5565b600060405180830381600087803b158015610aa657600080fd5b505af1158015610aba573d6000803e3d6000fd5b505050506000807f000000000000000000000000000000000000000000000000000000000000000073ffffffffffffffffffffffffffffffffffffffff1663baa2abde7f00000000000000000000000000000000000000000000000000000000000000007f00000000000000000000000000000000000000000000000000000000000000008660008030601e42610b5191906122fe565b6040518863ffffffff1660e01b8152600401610b739796959493929190612354565b60408051808303816000875af1158015610b91573d6000803e3d6000fd5b505050506040513d601f19601f82011682018060405250810190610bb591906123c3565b915091506000600267ffffffffffffffff811115610bd657610bd56120b3565b5b604051908082528060200260200182016040528015610c045781602001602082028036833780820191505090505b5090507f000000000000000000000000000000000000000000000000000000000000000081600081518110610c3c57610c3b612403565b5b602002602001019073ffffffffffffffffffffffffffffffffffffffff16908173ffffffffffffffffffffffffffffffffffffffff16815250507f000000000000000000000000000000000000000000000000000000000000000081600181518110610cab57610caa612403565b5b602002602001019073ffffffffffffffffffffffffffffffffffffffff16908173ffffffffffffffffffffffffffffffffffffffff168152505060007f000000000000000000000000000000000000000000000000000000000000000073ffffffffffffffffffffffffffffffffffffffff166338ed17398560008530601e42610d3591906122fe565b6040518663ffffffff1660e01b8152600401610d559594939291906124f0565b6000604051808303816000875af1158015610d74573d6000803e3d6000fd5b505050506040513d6000823e3d601f19601f82011682018060405250810190610d9d9190612617565b905060008382600081518110610db657610db5612403565b5b6020026020010151610dc891906122fe565b90507f000000000000000000000000000000000000000000000000000000000000000073ffffffffffffffffffffffffffffffffffffffff16630e752702826040518263ffffffff1660e01b8152600401610e239190612660565b6020604051808303816000875af1158015610e42573d6000803e3d6000fd5b505050506040513d601f19601f82011682018060405250810190610e6691906122a8565b505050505050505050565b6000606460327f000000000000000000000000000000000000000000000000000000000000000073ffffffffffffffffffffffffffffffffffffffff166370a08231306040518263ffffffff1660e01b8152600401610ed09190611b9f565b602060405180830381865afa158015610eed573d6000803e3d6000fd5b505050506040513d601f19601f82011682018060405250810190610f1191906122a8565b610f1b91906121ee565b610f259190612277565b90506000606482610f3691906121ee565b90506000600367ffffffffffffffff811115610f5557610f546120b3565b5b604051908082528060200260200182016040528015610f835781602001602082028036833780820191505090505b5090507f000000000000000000000000000000000000000000000000000000000000000081600081518110610fbb57610fba612403565b5b602002602001019073ffffffffffffffffffffffffffffffffffffffff16908173ffffffffffffffffffffffffffffffffffffffff16815250507f00000000000000000000000000000000000000000000000000000000000000008160018151811061102a57611029612403565b5b602002602001019073ffffffffffffffffffffffffffffffffffffffff16908173ffffffffffffffffffffffffffffffffffffffff16815250507f00000000000000000000000000000000000000000000000000000000000000008160028151811061109957611098612403565b5b602002602001019073ffffffffffffffffffffffffffffffffffffffff16908173ffffffffffffffffffffffffffffffffffffffff16815250507f000000000000000000000000000000000000000000000000000000000000000073ffffffffffffffffffffffffffffffffffffffff16635c11d7958460008430601e4261112191906122fe565b6040518663ffffffff1660e01b81526004016111419594939291906124f0565b600060405180830381600087803b15801561115b57600080fd5b505af115801561116f573d6000803e3d6000fd5b5050505060007f000000000000000000000000000000000000000000000000000000000000000073ffffffffffffffffffffffffffffffffffffffff166370a08231306040518263ffffffff1660e01b81526004016111ce9190611b9f565b602060405180830381865afa1580156111eb573d6000803e3d6000fd5b505050506040513d601f19601f8201168201806040525081019061120f91906122a8565b90506000600267ffffffffffffffff81111561122e5761122d6120b3565b5b60405190808252806020026020018201604052801561125c5781602001602082028036833780820191505090505b5090507f00000000000000000000000000000000000000000000000000000000000000008160008151811061129457611293612403565b5b602002602001019073ffffffffffffffffffffffffffffffffffffffff16908173ffffffffffffffffffffffffffffffffffffffff16815250507f00000000000000000000000000000000000000000000000000000000000000008160018151811061130357611302612403565b5b602002602001019073ffffffffffffffffffffffffffffffffffffffff16908173ffffffffffffffffffffffffffffffffffffffff16815250507f000000000000000000000000000000000000000000000000000000000000000073ffffffffffffffffffffffffffffffffffffffff16635c11d7958360008430601e4261138b91906122fe565b6040518663ffffffff1660e01b81526004016113ab9594939291906124f0565b600060405180830381600087803b1580156113c557600080fd5b505af11580156113d9573d6000803e3d6000fd5b505050505050505050565b60007f000000000000000000000000000000000000000000000000000000000000000073ffffffffffffffffffffffffffffffffffffffff166370a08231306040518263ffffffff1660e01b815260040161143f9190611b9f565b602060405180830381865afa15801561145c573d6000803e3d6000fd5b505050506040513d601f19601f8201168201806040525081019061148091906122a8565b905060007f000000000000000000000000000000000000000000000000000000000000000073ffffffffffffffffffffffffffffffffffffffff166370a08231306040518263ffffffff1660e01b81526004016114dd9190611b9f565b602060405180830381865afa1580156114fa573d6000803e3d6000fd5b505050506040513d601f19601f8201168201806040525081019061151e91906122a8565b90507f000000000000000000000000000000000000000000000000000000000000000073ffffffffffffffffffffffffffffffffffffffff1663e8e337007f00000000000000000000000000000000000000000000000000000000000000007f0000000000000000000000000000000000000000000000000000000000000000858560018030601e426115b191906122fe565b6040518963ffffffff1660e01b81526004016115d49897969594939291906126b6565b6060604051808303816000875af11580156115f3573d6000803e3d6000fd5b505050506040513d601f19601f820116820180604052508101906116179190611f7f565b5050505050565b60007f000000000000000000000000000000000000000000000000000000000000000073ffffffffffffffffffffffffffffffffffffffff166370a08231306040518263ffffffff1660e01b81526004016116799190611b9f565b602060405180830381865afa158015611696573d6000803e3d6000fd5b505050506040513d601f19601f820116820180604052508101906116ba91906122a8565b90507f000000000000000000000000000000000000000000000000000000000000000073ffffffffffffffffffffffffffffffffffffffff1663e2bbb1586000836040518363ffffffff1660e01b81526004016117189291906122d5565b600060405180830381600087803b15801561173257600080fd5b505af1158015611746573d6000803e3d6000fd5b5050505050565b7f000000000000000000000000000000000000000000000000000000000000000073ffffffffffffffffffffffffffffffffffffffff1663095ea7b37f0000000000000000000000000000000000000000000000000000000000000000836040518363ffffffff1660e01b81526004016117c8929190612734565b6020604051808303816000875af11580156117e7573d6000803e3d6000fd5b505050506040513d601f19601f8201168201806040525081019061180b9190612795565b507f000000000000000000000000000000000000000000000000000000000000000073ffffffffffffffffffffffffffffffffffffffff1663a0712d68826040518263ffffffff1660e01b81526004016118659190612660565b6020604051808303816000875af1158015611884573d6000803e3d6000fd5b505050506040513d601f19601f820116820180604052508101906118a891906122a8565b5050565b6000600167ffffffffffffffff8111156118c9576118c86120b3565b5b6040519080825280602002602001820160405280156118f75781602001602082028036833780820191505090505b5090507f00000000000000000000000000000000000000000000000000000000000000008160008151811061192f5761192e612403565b5b602002602001019073ffffffffffffffffffffffffffffffffffffffff16908173ffffffffffffffffffffffffffffffffffffffff168152505060007f000000000000000000000000000000000000000000000000000000000000000073ffffffffffffffffffffffffffffffffffffffff1663c2998238836040518263ffffffff1660e01b81526004016119c491906127c2565b6000604051808303816000875af11580156119e3573d6000803e3d6000fd5b505050506040513d6000823e3d601f19601f82011682018060405250810190611a0c9190612617565b9050600081600081518110611a2457611a23612403565b5b602002602001015114611a6c576040517f08c379a0000000000000000000000000000000000000000000000000000000008152600401611a6390612830565b60405180910390fd5b6000611a7661068d565b5091505060007f000000000000000000000000000000000000000000000000000000000000000073ffffffffffffffffffffffffffffffffffffffff1663c5ebeaec836040518263ffffffff1660e01b8152600401611ad59190612660565b6020604051808303816000875af1158015611af4573d6000803e3d6000fd5b505050506040513d601f19601f82011682018060405250810190611b1891906122a8565b14611b58576040517f08c379a0000000000000000000000000000000000000000000000000000000008152600401611b4f9061289c565b60405180910390fd5b50505050565b600073ffffffffffffffffffffffffffffffffffffffff82169050919050565b6000611b8982611b5e565b9050919050565b611b9981611b7e565b82525050565b6000602082019050611bb46000830184611b90565b92915050565b6000604051905090565b600080fd5b600080fd5b6000819050919050565b611be181611bce565b8114611bec57600080fd5b50565b600081359050611bfe81611bd8565b92915050565b600060208284031215611c1a57611c19611bc4565b5b6000611c2884828501611bef565b91505092915050565b6000819050919050565b6000611c56611c51611c4c84611b5e565b611c31565b611b5e565b9050919050565b6000611c6882611c3b565b9050919050565b6000611c7a82611c5d565b9050919050565b611c8a81611c6f565b82525050565b6000602082019050611ca56000830184611c81565b92915050565b6000611cb682611c5d565b9050919050565b611cc681611cab565b82525050565b6000602082019050611ce16000830184611cbd565b92915050565b6000611cf282611c5d565b9050919050565b611d0281611ce7565b82525050565b6000602082019050611d1d6000830184611cf9565b92915050565b611d2c81611bce565b82525050565b6000606082019050611d476000830186611d23565b611d546020830185611d23565b611d616040830184611d23565b949350505050565b6000611d7482611c5d565b9050919050565b611d8481611d69565b82525050565b6000602082019050611d9f6000830184611d7b565b92915050565b6000611db082611c5d565b9050919050565b611dc081611da5565b82525050565b6000602082019050611ddb6000830184611db7565b92915050565b6000611dec82611c5d565b9050919050565b611dfc81611de1565b82525050565b6000602082019050611e176000830184611df3565b92915050565b600082825260208201905092915050565b7f217661756c740000000000000000000000000000000000000000000000000000600082015250565b6000611e64600683611e1d565b9150611e6f82611e2e565b602082019050919050565b60006020820190508181036000830152611e9381611e57565b9050919050565b7f6e6f000000000000000000000000000000000000000000000000000000000000600082015250565b6000611ed0600283611e1d565b9150611edb82611e9a565b602082019050919050565b60006020820190508181036000830152611eff81611ec3565b9050919050565b6000819050919050565b6000611f2b611f26611f2184611f06565b611c31565b611bce565b9050919050565b611f3b81611f10565b82525050565b6000604082019050611f566000830185611f32565b611f636020830184611f32565b9392505050565b600081519050611f7981611bd8565b92915050565b600080600060608486031215611f9857611f97611bc4565b5b6000611fa686828701611f6a565b9350506020611fb786828701611f6a565b9250506040611fc886828701611f6a565b9150509250925092565b7f46544d0000000000000000000000000000000000000000000000000000000000600082015250565b6000612008600383611e1d565b915061201382611fd2565b602082019050919050565b7f5553444300000000000000000000000000000000000000000000000000000000600082015250565b6000612054600483611e1d565b915061205f8261201e565b602082019050919050565b6000604082019050818103600083015261208381611ffb565b9050818103602083015261209681612047565b9050919050565b600080fd5b6000601f19601f8301169050919050565b7f4e487b7100000000000000000000000000000000000000000000000000000000600052604160045260246000fd5b6120eb826120a2565b810181811067ffffffffffffffff8211171561210a576121096120b3565b5b80604052505050565b600061211d611bba565b905061212982826120e2565b919050565b6000606082840312156121445761214361209d565b5b61214e6060612113565b9050600061215e84828501611f6a565b600083015250602061217284828501611f6a565b602083015250604061218684828501611f6a565b60408301525092915050565b6000606082840312156121a8576121a7611bc4565b5b60006121b68482850161212e565b91505092915050565b7f4e487b7100000000000000000000000000000000000000000000000000000000600052601160045260246000fd5b60006121f982611bce565b915061220483611bce565b9250817fffffffffffffffffffffffffffffffffffffffffffffffffffffffffffffffff048311821515161561223d5761223c6121bf565b5b828202905092915050565b7f4e487b7100000000000000000000000000000000000000000000000000000000600052601260045260246000fd5b600061228282611bce565b915061228d83611bce565b92508261229d5761229c612248565b5b828204905092915050565b6000602082840312156122be576122bd611bc4565b5b60006122cc84828501611f6a565b91505092915050565b60006040820190506122ea6000830185611f32565b6122f76020830184611d23565b9392505050565b600061230982611bce565b915061231483611bce565b9250827fffffffffffffffffffffffffffffffffffffffffffffffffffffffffffffffff03821115612349576123486121bf565b5b828201905092915050565b600060e082019050612369600083018a611b90565b6123766020830189611b90565b6123836040830188611d23565b6123906060830187611f32565b61239d6080830186611f32565b6123aa60a0830185611b90565b6123b760c0830184611d23565b98975050505050505050565b600080604083850312156123da576123d9611bc4565b5b60006123e885828601611f6a565b92505060206123f985828601611f6a565b9150509250929050565b7f4e487b7100000000000000000000000000000000000000000000000000000000600052603260045260246000fd5b600081519050919050565b600082825260208201905092915050565b6000819050602082019050919050565b61246781611b7e565b82525050565b6000612479838361245e565b60208301905092915050565b6000602082019050919050565b600061249d82612432565b6124a7818561243d565b93506124b28361244e565b8060005b838110156124e35781516124ca888261246d565b97506124d583612485565b9250506001810190506124b6565b5085935050505092915050565b600060a0820190506125056000830188611d23565b6125126020830187611f32565b81810360408301526125248186612492565b90506125336060830185611b90565b6125406080830184611d23565b9695505050505050565b600080fd5b600067ffffffffffffffff82111561256a576125696120b3565b5b602082029050602081019050919050565b600080fd5b600061259361258e8461254f565b612113565b905080838252602082019050602084028301858111156125b6576125b561257b565b5b835b818110156125df57806125cb8882611f6a565b8452602084019350506020810190506125b8565b5050509392505050565b600082601f8301126125fe576125fd61254a565b5b815161260e848260208601612580565b91505092915050565b60006020828403121561262d5761262c611bc4565b5b600082015167ffffffffffffffff81111561264b5761264a611bc9565b5b612657848285016125e9565b91505092915050565b60006020820190506126756000830184611d23565b92915050565b6000819050919050565b60006126a061269b6126968461267b565b611c31565b611bce565b9050919050565b6126b081612685565b82525050565b6000610100820190506126cc600083018b611b90565b6126d9602083018a611b90565b6126e66040830189611d23565b6126f36060830188611d23565b61270060808301876126a7565b61270d60a08301866126a7565b61271a60c0830185611b90565b61272760e0830184611d23565b9998505050505050505050565b60006040820190506127496000830185611b90565b6127566020830184611d23565b9392505050565b60008115159050919050565b6127728161275d565b811461277d57600080fd5b50565b60008151905061278f81612769565b92915050565b6000602082840312156127ab576127aa611bc4565b5b60006127b984828501612780565b91505092915050565b600060208201905081810360008301526127dc8184612492565b905092915050565b7f6d61726b6574206661696c656400000000000000000000000000000000000000600082015250565b600061281a600d83611e1d565b9150612825826127e4565b602082019050919050565b600060208201905081810360008301526128498161280d565b9050919050565b7f626f72726f77206661696c656400000000000000000000000000000000000000600082015250565b6000612886600d83611e1d565b915061289182612850565b602082019050919050565b600060208201905081810360008301526128b581612879565b905091905056fea26469706673582212202f374b36fa834350b295d61f5e4aed1c753f60bed3494bb7b75bef0ea683fd0b64736f6c634300080a0033",
  "immutableReferences": {
    "1839": [
      {
        "length": 32,
        "start": 1071
      },
      {
        "length": 32,
        "start": 1333
      },
      {
        "length": 32,
        "start": 1369
      }
    ],
    "1842": [
      {
        "length": 32,
        "start": 2136
      },
      {
        "length": 32,
        "start": 6027
      },
      {
        "length": 32,
        "start": 6158
      },
      {
        "length": 32,
        "start": 6396
      }
    ],
    "1845": [
      {
        "length": 32,
        "start": 2172
      },
      {
        "length": 32,
        "start": 5967
      }
    ],
    "1848": [
      {
        "length": 32,
        "start": 1261
      },
      {
        "length": 32,
        "start": 2848
      },
      {
        "length": 32,
        "start": 3192
      },
      {
        "length": 32,
        "start": 4087
      },
      {
        "length": 32,
        "start": 4816
      },
      {
        "length": 32,
        "start": 5254
      },
      {
        "length": 32,
        "start": 5503
      }
    ],
    "1851": [
      {
        "length": 32,
        "start": 2388
      },
      {
        "length": 32,
        "start": 2815
      },
      {
        "length": 32,
        "start": 3081
      },
      {
        "length": 32,
        "start": 4198
      },
      {
        "length": 32,
        "start": 5096
      },
      {
        "length": 32,
        "start": 5470
      }
    ],
    "1854": [
      {
        "length": 32,
        "start": 2352
      },
      {
        "length": 32,
        "start": 3705
      },
      {
        "length": 32,
        "start": 3976
      },
      {
        "length": 32,
        "start": 4471
      },
      {
        "length": 32,
        "start": 4705
      }
    ],
    "1857": [
      {
        "length": 32,
        "start": 2244
      },
      {
        "length": 32,
        "start": 2444
      },
      {
        "length": 32,
        "start": 5666
      }
    ],
    "1860": [
      {
        "length": 32,
        "start": 2280
      }
    ],
    "1863": [
      {
        "length": 32,
        "start": 2208
      },
      {
        "length": 32,
        "start": 2755
      },
      {
        "length": 32,
        "start": 3305
      },
      {
        "length": 32,
        "start": 4309
      },
      {
        "length": 32,
        "start": 4927
      },
      {
        "length": 32,
        "start": 5410
      }
    ],
    "1866": [
      {
        "length": 32,
        "start": 1511
      },
      {
        "length": 32,
        "start": 2316
      },
      {
        "length": 32,
        "start": 2610
      },
      {
        "length": 32,
        "start": 5822
      }
    ],
    "1869": [
      {
        "length": 32,
        "start": 1685
      },
      {
        "length": 32,
        "start": 2079
      },
      {
        "length": 32,
        "start": 6509
      }
    ],
    "1872": [
      {
        "length": 32,
        "start": 1297
      },
      {
        "length": 32,
        "start": 1845
      }
    ],
    "1875": [
      {
        "length": 32,
        "start": 1225
      },
      {
        "length": 32,
        "start": 3532
      },
      {
        "length": 32,
        "start": 6782
      }
    ]
  },
  "source": "pragma solidity ^0.8.10; \npragma abicoder v2;  \n\nimport \"../DjinnBottleUSDC.sol\"; \nimport \"../interfaces/CTokenInterfaces.sol\"; \nimport \"../interfaces/ComptrollerInterface.sol\";  \nimport \"../interfaces/IStdReference.sol\"; \nimport \"@uniswap/v2-periphery/contracts/interfaces/IUniswapV2Router02.sol\"; \nimport \"../interfaces/IMasterChef.sol\"; \nimport \"@openzeppelin/contracts/token/ERC20/IERC20.sol\"; \n\n\ncontract ShortFarmFTM {\n\n\taddress public creator; \n\tuint private constant CREATOR_FEE = 100; \n\tDjinnBottleUSDC public immutable VAULT; \n\n\t//Cream Finance Contracts \n\taddress public immutable crUSDC = 0x328A7b4d538A2b3942653a9983fdA3C12c571141; \n\n\t//Public Tokens\n\taddress public immutable USDC = 0x04068DA6C83AFCFA0e13ba15A6696662335D5B75; \n\taddress public immutable WFTM = 0x21be370D5312f44cB42ce377BC9b8a0cEF1A4C83; \n\taddress public immutable TOMB = 0x6c021Ae822BEa943b2E66552bDe1D2696a53fbB7; \n\taddress public immutable TSHARE = 0x4cdF39285D7Ca8eB3f090fDA0C069ba5F4145B37; \n\t\n\t//SpookySwap Router and LP \n\taddress public immutable spookyFtmTombLP = 0x2A651563C9d3Af67aE0388a5c8F89b867038089e; \n\taddress public immutable spookyAddress = 0xF491e7B69E4244ad4002BC14e878a34207E38c29;\t\t\n\n\t//Contract Interfaces  \n\tIUniswapV2Router02 public immutable spookyRouter; \n\tIMasterChef public immutable tsharePool; \n\tComptrollerInterface public immutable comptroller; \n\tIStdReference public immutable priceOracle;\n\tCERC20 public immutable crWFTM; \t\n\n\n\tconstructor(DjinnBottleUSDC _djBottle, \t\n\t\t\t\tIUniswapV2Router02 _spookyRouter, \n\t\t\t\tIMasterChef _tsharePool, \n\t\t\t\tComptrollerInterface _comptroller, \n\t\t\t\tIStdReference _priceOracle,\n\t\t\t\tCERC20 _cERC20) {\n\t\t\t\t\taddress creator = msg.sender;\n\t\t\t\t\tspookyRouter = _spookyRouter; \n\t\t\t\t\tVAULT = _djBottle; \n\t\t\t\t\ttsharePool = _tsharePool;\n\t\t\t\t\tcomptroller = _comptroller;  \n\t\t\t\t\tpriceOracle = _priceOracle; \n\t\t\t\t\tcrWFTM = _cERC20; \n\t\t\t\t}\n\t\n\t//automate opening a position\n\t//designed for single user ie. user opens via vault contract \t\n\tfunction open(uint amount) external {\n\t\tsupply(amount); \t\n\t\tborrow(amount); //same amount in USDC to keep track of how many tokens we have supplied \n\t\t//swap(); //swap half of bal to TOMB and unwrap the rest to FTM \n\t\t//getLPTokens(); //get FTM-TOMB LP tokens \t\n\t\t//depositLPGetTShare(); //deposit LP tokens on TOMB to earn TSHARE\n\t}\n\n\t//automate the harvest \n\tfunction harvest() external {\n\t\trequire(msg.sender == address(VAULT), \"no\"); \n\t\tIMasterChef(tsharePool).deposit(0, 0); //0 is poolId and we call a deposit of 0 to allocate the shares to this contract\n\t\t//chargeFees(); \n\t\tsellAndSwap(); //sell tshare for 50% TOMB 50% WFTM \n\t\tgetLPTokens(); \n\t\tdepositLPGetTShare(); \n\t}\n\t\n\t//automate the closing of the position\n\t//designed for single use ie. user closes via vault contract \t\n\t//so we need to vault contract to determine how many tokens belong to the user from this contract \n\tfunction close(uint amount) external {\n\t\trequire(msg.sender == address(VAULT), \"!vault\"); \n\t\t//swap all LP tokens back to underlying \n\t\tswapAndWithdraw(amount);  \n\t\t//redeemUnderlying(); //to get USDC back \n\t\t//send back to vault to allow for withdraw \n\t}\n\t\n\t//next we borrow WTFM from cream <= 75% so we don't get liquidated\n\t//cream allows for 75% collateral on deposits of USDC, but this 75% is on the 75% \n\t//so we are effectively borrowing ~55% of our deposit amount, which leaves room to the upside  \t\n\tfunction supply(uint amount) internal {\n\t\tIERC20(USDC).approve(crUSDC, amount);  \n\t\tCERC20(crUSDC).mint(amount); \n\t}\n\t\n\tfunction borrow(uint amount) internal {\n\t\taddress[] memory cTokenSupplied = new address[](1); \n\t\tcTokenSupplied[0] = crUSDC; //cToken address\n\t\tuint[] memory errors = comptroller.enterMarkets(cTokenSupplied); \n\t\trequire(errors[0] == 0, \"market failed\");  \n\t\t\n\t\t//get max borrow \n\t\t(, uint borrowAmount,) = getBorrowAmount(); //borrow amount returns the token amount scaled up by 1e18 @ 75% of our max borrow\n\t\trequire(crWFTM.borrow(borrowAmount) == 0,\"borrow failed\"); //1 wFT \n\t}\n\n\tfunction getBorrowAmount() public view returns(uint liquidity, uint borrowAmount, uint price) {\n\t\t(, uint liquidity,) = comptroller.getAccountLiquidity(address(this)); \n\t\tIStdReference.ReferenceData memory data = priceOracle.getReferenceData(\"FTM\", \"USDC\"); \n\t\t price = data.rate; \n\t\tuint maxTokenBorrow = (liquidity * 10**18) / price; //wFTM has 18 decimals   \t\n\t\tborrowAmount = (maxTokenBorrow * 75) / 100; \n\t\treturn (liquidity, borrowAmount, price); \n\t}\n\n\t//where amount is the percentage of LP tokens relative to the callers % ownership of the vault \n\tfunction swapAndWithdraw(uint amount) internal {\n\t\tuint percentOfLP = amount / 100; //div by 100 to get percentage\t\n\t\tuint amountToWithdraw = IERC20(spookyFtmTombLP).balanceOf(address(this)) * percentOfLP;  \n\t\t//we first withdraw the LP tokens from TOMB  \n\t\tIMasterChef(tsharePool).withdraw(0, amountToWithdraw); //where amount is the amount of LP tokens \n\t\t\n\t\t//we remove liquidity belonging to the user(amount) back for tomb + wftm \n\t\t(uint amountTomb, uint amountWftm) = spookyRouter.removeLiquidity(\n\t\t\tTOMB, \n\t\t\tWFTM,\n\t\t   \tamountToWithdraw,\n\t\t   \t0,\n\t\t   \t0,\n\t\t   \taddress(this),\n\t\t   \tblock.timestamp + 30\n\t\t); \n\t\t\n\t\t//now we swap tomb back for wftm \n\t\taddress[] memory path = new address[](2); \n\t\tpath[0] = TOMB; \n\t\tpath[1] = WFTM; \n\t\tuint[] memory amounts = spookyRouter.swapExactTokensForTokens(\n\t\t\tamountTomb,\n\t\t\t0,\n\t\t\tpath,\n\t\t\taddress(this),\n\t\t\tblock.timestamp + 30\n\t\t);\n\n\t\tuint amountToRepay = amounts[0] + amountWftm; \n\t\t//now we can repay our users borrow \n\t\tCERC20(crWFTM).repayBorrow(amountToRepay); \n\t}\n\t\n\t//then we send the funds to spookyswap where we sell 50% to tomb and then unwrap the rest \n\tfunction swap() internal { \n\t\t//swap 50% to TOMB\n\t\tuint half = IERC20(WFTM).balanceOf(address(this)) * 50 / 100; \n\t\taddress[] memory path = new address[](2);\n\t\tpath[0] = WFTM; \n\t\tpath[1] = TOMB; \n\t\t//we swap half of the balance of WFTM for TOMB \n\t\tspookyRouter.swapExactTokensForTokensSupportingFeeOnTransferTokens(\n\t\t\thalf,\n\t\t   \t0,\n\t\t   \tpath,\n\t\t   \taddress(this),\n\t\t   \tblock.timestamp + 30\n\t\t);\n\n\t}\n\n\tfunction sellAndSwap() internal {\n\t\tuint half = IERC20(TSHARE).balanceOf(address(this)) * 50 / 100; \n\t\tuint fee = half * CREATOR_FEE; \n\t\taddress[] memory pathToTomb = new address[](3); \n\t\tpathToTomb[0] = TSHARE;  \n\t\tpathToTomb[1] = WFTM; \n\t\tpathToTomb[2] = TOMB; \n\t\tspookyRouter.swapExactTokensForTokensSupportingFeeOnTransferTokens(\n\t\t\thalf,\n\t\t\t0,\n\t\t\tpathToTomb,\n\t\t\taddress(this),\n\t\t\tblock.timestamp + 30\n\t\t); \n\n\t\t//swap rest to WFTM \n\t\tuint rest = IERC20(TSHARE).balanceOf(address(this)); \n\t\taddress[] memory pathToWftm = new address[](2); \n\t\tpathToWftm[0] = TSHARE; \n\t\tpathToWftm[1] = WFTM; \n\t\tspookyRouter.swapExactTokensForTokensSupportingFeeOnTransferTokens(\n\t\t\trest,\n\t\t\t0,\n\t\t\tpathToWftm,\n\t\t\taddress(this),\n\t\t\tblock.timestamp + 30\n\t\t); \n\t}\n\n\tfunction getLPTokens() internal {\n\t\t//we need to approve the router to spend our TOMB\n\t\tuint tombAmount = IERC20(TOMB).balanceOf(address(this)); \n\t\tuint ftmAmount = IERC20(WFTM).balanceOf(address(this));  \n\n\t\t//now we add liquidity \n\t\t//@params token, tokenAmount, minToken, minETH, to, deadline\n\t\tspookyRouter.addLiquidity(TOMB, WFTM, tombAmount, ftmAmount, 1, 1, address(this), block.timestamp + 30); \n\t}\n\n\tfunction depositLPGetTShare() internal {\n\t\t//deposit into tshare vault using _pid but idk how to get that currently \t\n\t\tuint lpTokenBalance = IERC20(spookyFtmTombLP).balanceOf(address(this)); \n\t\t//tomb has 2 pools that give tshare rewards for staked LPs, the TSHARE-FTM and TOMB-FTM, \n\t\t//they are both distributed from the same contract tho, and they don't say which is which anywhere?? cringe. \n\t\t//after this deposit the contract should be earning tshares as a reward \n\t\tIMasterChef(tsharePool).deposit(0, lpTokenBalance); //I think the FTM-TOMB pool ID is 0 tho \n\t}\n\n\treceive() external payable{} \n\t\n} \n",
  "sourcePath": "/home/kevin/Code/solidity_projects/djinnFinance/contracts/strategies/ShortFarmFTM.sol",
  "compiler": {
    "name": "solc",
    "version": "0.8.10+commit.fc410830.Emscripten.clang"
  },
  "schemaVersion": "3.4.3",
  "updatedAt": "2022-01-23T23:40:29.406Z",
  "networkType": "ethereum",
  "devdoc": {
    "kind": "dev",
    "methods": {},
    "version": 1
  },
  "userdoc": {
    "kind": "user",
    "methods": {},
    "version": 1
  }
}