{
  "contractName": "ShortFarmFTM",
  "abi": [
    {
      "inputs": [
        {
          "internalType": "contract DjinnBottleUSDC",
          "name": "_djBottle",
          "type": "address"
        },
        {
          "internalType": "contract IUniswapV2Router02",
          "name": "_spookyRouter",
          "type": "address"
        },
        {
          "internalType": "contract ComptrollerInterface",
          "name": "_comptroller",
          "type": "address"
        },
        {
          "internalType": "contract IStdReference",
          "name": "_priceOracle",
          "type": "address"
        },
        {
          "internalType": "contract CERC20",
          "name": "_cERC20",
          "type": "address"
        }
      ],
      "stateMutability": "nonpayable",
      "type": "constructor"
    },
    {
      "inputs": [],
      "name": "TOMB",
      "outputs": [
        {
          "internalType": "address",
          "name": "",
          "type": "address"
        }
      ],
      "stateMutability": "view",
      "type": "function",
      "constant": true
    },
    {
      "inputs": [],
      "name": "TSHARE",
      "outputs": [
        {
          "internalType": "address",
          "name": "",
          "type": "address"
        }
      ],
      "stateMutability": "view",
      "type": "function",
      "constant": true
    },
    {
      "inputs": [],
      "name": "USDC",
      "outputs": [
        {
          "internalType": "address",
          "name": "",
          "type": "address"
        }
      ],
      "stateMutability": "view",
      "type": "function",
      "constant": true
    },
    {
      "inputs": [],
      "name": "VAULT",
      "outputs": [
        {
          "internalType": "contract DjinnBottleUSDC",
          "name": "",
          "type": "address"
        }
      ],
      "stateMutability": "view",
      "type": "function",
      "constant": true
    },
    {
      "inputs": [],
      "name": "WFTM",
      "outputs": [
        {
          "internalType": "address",
          "name": "",
          "type": "address"
        }
      ],
      "stateMutability": "view",
      "type": "function",
      "constant": true
    },
    {
      "inputs": [],
      "name": "comptroller",
      "outputs": [
        {
          "internalType": "contract ComptrollerInterface",
          "name": "",
          "type": "address"
        }
      ],
      "stateMutability": "view",
      "type": "function",
      "constant": true
    },
    {
      "inputs": [],
      "name": "crUSDC",
      "outputs": [
        {
          "internalType": "address",
          "name": "",
          "type": "address"
        }
      ],
      "stateMutability": "view",
      "type": "function",
      "constant": true
    },
    {
      "inputs": [],
      "name": "crWFTM",
      "outputs": [
        {
          "internalType": "contract CERC20",
          "name": "",
          "type": "address"
        }
      ],
      "stateMutability": "view",
      "type": "function",
      "constant": true
    },
    {
      "inputs": [],
      "name": "creator",
      "outputs": [
        {
          "internalType": "address",
          "name": "",
          "type": "address"
        }
      ],
      "stateMutability": "view",
      "type": "function",
      "constant": true
    },
    {
      "inputs": [],
      "name": "priceOracle",
      "outputs": [
        {
          "internalType": "contract IStdReference",
          "name": "",
          "type": "address"
        }
      ],
      "stateMutability": "view",
      "type": "function",
      "constant": true
    },
    {
      "inputs": [],
      "name": "spookyAddress",
      "outputs": [
        {
          "internalType": "address",
          "name": "",
          "type": "address"
        }
      ],
      "stateMutability": "view",
      "type": "function",
      "constant": true
    },
    {
      "inputs": [],
      "name": "spookyFtmTombLP",
      "outputs": [
        {
          "internalType": "address",
          "name": "",
          "type": "address"
        }
      ],
      "stateMutability": "view",
      "type": "function",
      "constant": true
    },
    {
      "inputs": [],
      "name": "spookyRouter",
      "outputs": [
        {
          "internalType": "contract IUniswapV2Router02",
          "name": "",
          "type": "address"
        }
      ],
      "stateMutability": "view",
      "type": "function",
      "constant": true
    },
    {
      "inputs": [],
      "name": "tShareRewardPool",
      "outputs": [
        {
          "internalType": "address",
          "name": "",
          "type": "address"
        }
      ],
      "stateMutability": "view",
      "type": "function",
      "constant": true
    },
    {
      "stateMutability": "payable",
      "type": "receive",
      "payable": true
    },
    {
      "inputs": [
        {
          "internalType": "uint256",
          "name": "amount",
          "type": "uint256"
        }
      ],
      "name": "open",
      "outputs": [],
      "stateMutability": "nonpayable",
      "type": "function"
    },
    {
      "inputs": [],
      "name": "harvest",
      "outputs": [],
      "stateMutability": "nonpayable",
      "type": "function"
    },
    {
      "inputs": [
        {
          "internalType": "uint256",
          "name": "amount",
          "type": "uint256"
        }
      ],
      "name": "close",
      "outputs": [],
      "stateMutability": "nonpayable",
      "type": "function"
    },
    {
      "inputs": [],
      "name": "returnSender",
      "outputs": [
        {
          "internalType": "address",
          "name": "",
          "type": "address"
        },
        {
          "internalType": "uint256",
          "name": "",
          "type": "uint256"
        }
      ],
      "stateMutability": "view",
      "type": "function",
      "constant": true
    },
    {
      "inputs": [],
      "name": "getUnderlying",
      "outputs": [
        {
          "internalType": "uint256",
          "name": "",
          "type": "uint256"
        }
      ],
      "stateMutability": "nonpayable",
      "type": "function"
    },
    {
      "inputs": [],
      "name": "getLPBalnace",
      "outputs": [
        {
          "internalType": "uint256",
          "name": "lpAmount",
          "type": "uint256"
        }
      ],
      "stateMutability": "view",
      "type": "function",
      "constant": true
    }
  ],
  "bytecode": "0x6101006040523480156200001257600080fd5b5060405162003648380380620036488339818101604052810190620000389190620002ec565b600033905085600160006101000a81548173ffffffffffffffffffffffffffffffffffffffff021916908373ffffffffffffffffffffffffffffffffffffffff1602179055508473ffffffffffffffffffffffffffffffffffffffff1660808173ffffffffffffffffffffffffffffffffffffffff16815250508373ffffffffffffffffffffffffffffffffffffffff1660a08173ffffffffffffffffffffffffffffffffffffffff16815250508273ffffffffffffffffffffffffffffffffffffffff1660c08173ffffffffffffffffffffffffffffffffffffffff16815250508173ffffffffffffffffffffffffffffffffffffffff1660e08173ffffffffffffffffffffffffffffffffffffffff168152505050505050505062000374565b600080fd5b600073ffffffffffffffffffffffffffffffffffffffff82169050919050565b60006200018c826200015f565b9050919050565b6000620001a0826200017f565b9050919050565b620001b28162000193565b8114620001be57600080fd5b50565b600081519050620001d281620001a7565b92915050565b6000620001e5826200017f565b9050919050565b620001f781620001d8565b81146200020357600080fd5b50565b6000815190506200021781620001ec565b92915050565b60006200022a826200017f565b9050919050565b6200023c816200021d565b81146200024857600080fd5b50565b6000815190506200025c8162000231565b92915050565b60006200026f826200017f565b9050919050565b620002818162000262565b81146200028d57600080fd5b50565b600081519050620002a18162000276565b92915050565b6000620002b4826200017f565b9050919050565b620002c681620002a7565b8114620002d257600080fd5b50565b600081519050620002e681620002bb565b92915050565b600080600080600060a086880312156200030b576200030a6200015a565b5b60006200031b88828901620001c1565b95505060206200032e8882890162000206565b945050604062000341888289016200024b565b9350506060620003548882890162000290565b92505060806200036788828901620002d5565b9150509295509295909350565b60805160a05160c05160e05161325b620003ed60003960008181610546015281816110f40152818161117701526120db015260008181610582015261252e0152600081816107cc0152818161202b015261248a01526000818161084401528181610f7a0152818161164b0152611891015261325b6000f3fe6080604052600436106101235760003560e01c8063690e7c09116100a05780639cdd8ee7116100645780639cdd8ee71461039d5780639d84fe81146103c8578063a6f8d405146103f3578063b5ee45c11461041e578063c139acfa146104495761012a565b8063690e7c09146102c857806382c70bbf146102f157806389a302711461031c5780638ed8ea7e146103475780639816f473146103725761012a565b80632c1c1836116100e75780632c1c183614610204578063411557d11461022f5780634641257d1461025a5780635170a9d0146102715780635fe3b5671461029d5761012a565b806302d05d3f1461012f5780630aebeb4e1461015a5780631882bf441461018357806321dbe876146101ae5780632630c12f146101d95761012a565b3661012a57005b600080fd5b34801561013b57600080fd5b50610144610474565b6040516101519190612653565b60405180910390f35b34801561016657600080fd5b50610181600480360381019061017c91906126b8565b610498565b005b34801561018f57600080fd5b50610198610544565b6040516101a59190612744565b60405180910390f35b3480156101ba57600080fd5b506101c3610568565b6040516101d09190612653565b60405180910390f35b3480156101e557600080fd5b506101ee610580565b6040516101fb9190612780565b60405180910390f35b34801561021057600080fd5b506102196105a4565b6040516102269190612653565b60405180910390f35b34801561023b57600080fd5b506102446105bc565b60405161025191906127bc565b60405180910390f35b34801561026657600080fd5b5061026f6105e2565b005b34801561027d57600080fd5b5061028661070e565b6040516102949291906127e6565b60405180910390f35b3480156102a957600080fd5b506102b26107ca565b6040516102bf9190612830565b60405180910390f35b3480156102d457600080fd5b506102ef60048036038101906102ea91906126b8565b6107ee565b005b3480156102fd57600080fd5b50610306610812565b6040516103139190612653565b60405180910390f35b34801561032857600080fd5b5061033161082a565b60405161033e9190612653565b60405180910390f35b34801561035357600080fd5b5061035c610842565b604051610369919061286c565b60405180910390f35b34801561037e57600080fd5b50610387610866565b6040516103949190612887565b60405180910390f35b3480156103a957600080fd5b506103b26108fd565b6040516103bf9190612653565b60405180910390f35b3480156103d457600080fd5b506103dd610915565b6040516103ea9190612887565b60405180910390f35b3480156103ff57600080fd5b506104086109aa565b6040516104159190612653565b60405180910390f35b34801561042a57600080fd5b506104336109c2565b6040516104409190612653565b60405180910390f35b34801561045557600080fd5b5061045e6109da565b60405161046b9190612653565b60405180910390f35b60008054906101000a900473ffffffffffffffffffffffffffffffffffffffff1681565b600160009054906101000a900473ffffffffffffffffffffffffffffffffffffffff1673ffffffffffffffffffffffffffffffffffffffff163373ffffffffffffffffffffffffffffffffffffffff1614610528576040517f08c379a000000000000000000000000000000000000000000000000000000000815260040161051f906128ff565b60405180910390fd5b610531816109f2565b610539610a82565b610541610c97565b50565b7f000000000000000000000000000000000000000000000000000000000000000081565b7321be370d5312f44cb42ce377bc9b8a0cef1a4c8381565b7f000000000000000000000000000000000000000000000000000000000000000081565b73cc0a87f7e7c693042a9cc703661f5060c80acb4381565b600160009054906101000a900473ffffffffffffffffffffffffffffffffffffffff1681565b600160009054906101000a900473ffffffffffffffffffffffffffffffffffffffff1673ffffffffffffffffffffffffffffffffffffffff163373ffffffffffffffffffffffffffffffffffffffff1614610672576040517f08c379a00000000000000000000000000000000000000000000000000000000081526004016106699061296b565b60405180910390fd5b73cc0a87f7e7c693042a9cc703661f5060c80acb4373ffffffffffffffffffffffffffffffffffffffff1663e2bbb1586000806040518363ffffffff1660e01b81526004016106c29291906129c6565b600060405180830381600087803b1580156106dc57600080fd5b505af11580156106f0573d6000803e3d6000fd5b505050506106fc611417565b610704611936565b61070c611c82565b565b600080600160009054906101000a900473ffffffffffffffffffffffffffffffffffffffff16732a651563c9d3af67ae0388a5c8f89b867038089e73ffffffffffffffffffffffffffffffffffffffff166370a08231306040518263ffffffff1660e01b81526004016107819190612653565b602060405180830381865afa15801561079e573d6000803e3d6000fd5b505050506040513d601f19601f820116820180604052508101906107c29190612a04565b915091509091565b7f000000000000000000000000000000000000000000000000000000000000000081565b6107f781611e40565b6107ff61217b565b610807611936565b61080f611c82565b50565b73328a7b4d538a2b3942653a9983fda3c12c57114181565b7304068da6c83afcfa0e13ba15a6696662335d5b7581565b7f000000000000000000000000000000000000000000000000000000000000000081565b600073328a7b4d538a2b3942653a9983fda3c12c57114173ffffffffffffffffffffffffffffffffffffffff16633af9e669306040518263ffffffff1660e01b81526004016108b59190612653565b6020604051808303816000875af11580156108d4573d6000803e3d6000fd5b505050506040513d601f19601f820116820180604052508101906108f89190612a04565b905090565b732a651563c9d3af67ae0388a5c8f89b867038089e81565b6000732a651563c9d3af67ae0388a5c8f89b867038089e73ffffffffffffffffffffffffffffffffffffffff166370a08231306040518263ffffffff1660e01b81526004016109649190612653565b602060405180830381865afa158015610981573d6000803e3d6000fd5b505050506040513d601f19601f820116820180604052508101906109a59190612a04565b905090565b73f491e7b69e4244ad4002bc14e878a34207e38c2981565b734cdf39285d7ca8eb3f090fda0c069ba5f4145b3781565b736c021ae822bea943b2e66552bde1d2696a53fbb781565b672bf23365b9fda000905073cc0a87f7e7c693042a9cc703661f5060c80acb4373ffffffffffffffffffffffffffffffffffffffff1663441a3e706000836040518363ffffffff1660e01b8152600401610a4d929190612a31565b600060405180830381600087803b158015610a6757600080fd5b505af1158015610a7b573d6000803e3d6000fd5b5050505050565b6000732a651563c9d3af67ae0388a5c8f89b867038089e73ffffffffffffffffffffffffffffffffffffffff166370a08231306040518263ffffffff1660e01b8152600401610ad19190612653565b602060405180830381865afa158015610aee573d6000803e3d6000fd5b505050506040513d601f19601f82011682018060405250810190610b129190612a04565b9050732a651563c9d3af67ae0388a5c8f89b867038089e73ffffffffffffffffffffffffffffffffffffffff1663095ea7b373f491e7b69e4244ad4002bc14e878a34207e38c29836040518363ffffffff1660e01b8152600401610b779291906127e6565b6020604051808303816000875af1158015610b96573d6000803e3d6000fd5b505050506040513d601f19601f82011682018060405250810190610bba9190612a92565b5060008073f491e7b69e4244ad4002bc14e878a34207e38c2973ffffffffffffffffffffffffffffffffffffffff1663baa2abde7321be370d5312f44cb42ce377bc9b8a0cef1a4c83736c021ae822bea943b2e66552bde1d2696a53fbb78660018030601e42610c2a9190612aee565b6040518863ffffffff1660e01b8152600401610c4c9796959493929190612b7f565b60408051808303816000875af1158015610c6a573d6000803e3d6000fd5b505050506040513d601f19601f82011682018060405250810190610c8e9190612bee565b91509150505050565b6000736c021ae822bea943b2e66552bde1d2696a53fbb773ffffffffffffffffffffffffffffffffffffffff166370a08231306040518263ffffffff1660e01b8152600401610ce69190612653565b602060405180830381865afa158015610d03573d6000803e3d6000fd5b505050506040513d601f19601f82011682018060405250810190610d279190612a04565b905060007321be370d5312f44cb42ce377bc9b8a0cef1a4c8373ffffffffffffffffffffffffffffffffffffffff166370a08231306040518263ffffffff1660e01b8152600401610d789190612653565b602060405180830381865afa158015610d95573d6000803e3d6000fd5b505050506040513d601f19601f82011682018060405250810190610db99190612a04565b9050736c021ae822bea943b2e66552bde1d2696a53fbb773ffffffffffffffffffffffffffffffffffffffff1663095ea7b373f491e7b69e4244ad4002bc14e878a34207e38c29846040518363ffffffff1660e01b8152600401610e1e9291906127e6565b6020604051808303816000875af1158015610e3d573d6000803e3d6000fd5b505050506040513d601f19601f82011682018060405250810190610e619190612a92565b506000600267ffffffffffffffff811115610e7f57610e7e612c2e565b5b604051908082528060200260200182016040528015610ead5781602001602082028036833780820191505090505b509050736c021ae822bea943b2e66552bde1d2696a53fbb781600081518110610ed957610ed8612c5d565b5b602002602001019073ffffffffffffffffffffffffffffffffffffffff16908173ffffffffffffffffffffffffffffffffffffffff16815250507321be370d5312f44cb42ce377bc9b8a0cef1a4c8381600181518110610f3c57610f3b612c5d565b5b602002602001019073ffffffffffffffffffffffffffffffffffffffff16908173ffffffffffffffffffffffffffffffffffffffff168152505060007f000000000000000000000000000000000000000000000000000000000000000073ffffffffffffffffffffffffffffffffffffffff166338ed17398560008530601e42610fc69190612aee565b6040518663ffffffff1660e01b8152600401610fe6959493929190612d4a565b6000604051808303816000875af1158015611005573d6000803e3d6000fd5b505050506040513d6000823e3d601f19601f8201168201806040525081019061102e9190612ece565b905060007321be370d5312f44cb42ce377bc9b8a0cef1a4c8373ffffffffffffffffffffffffffffffffffffffff166370a08231306040518263ffffffff1660e01b815260040161107f9190612653565b602060405180830381865afa15801561109c573d6000803e3d6000fd5b505050506040513d601f19601f820116820180604052508101906110c09190612a04565b90507321be370d5312f44cb42ce377bc9b8a0cef1a4c8373ffffffffffffffffffffffffffffffffffffffff1663095ea7b37f0000000000000000000000000000000000000000000000000000000000000000836040518363ffffffff1660e01b81526004016111319291906127e6565b6020604051808303816000875af1158015611150573d6000803e3d6000fd5b505050506040513d601f19601f820116820180604052508101906111749190612a92565b507f000000000000000000000000000000000000000000000000000000000000000073ffffffffffffffffffffffffffffffffffffffff16630e752702826040518263ffffffff1660e01b81526004016111ce9190612887565b6020604051808303816000875af11580156111ed573d6000803e3d6000fd5b505050506040513d601f19601f820116820180604052508101906112119190612a04565b50600060646032611220610866565b61122a9190612f17565b6112349190612fa0565b905073328a7b4d538a2b3942653a9983fda3c12c57114173ffffffffffffffffffffffffffffffffffffffff1663852a12e3826040518263ffffffff1660e01b81526004016112839190612887565b6020604051808303816000875af11580156112a2573d6000803e3d6000fd5b505050506040513d601f19601f820116820180604052508101906112c69190612a04565b5060007304068da6c83afcfa0e13ba15a6696662335d5b7573ffffffffffffffffffffffffffffffffffffffff166370a08231306040518263ffffffff1660e01b81526004016113169190612653565b602060405180830381865afa158015611333573d6000803e3d6000fd5b505050506040513d601f19601f820116820180604052508101906113579190612a04565b90507304068da6c83afcfa0e13ba15a6696662335d5b7573ffffffffffffffffffffffffffffffffffffffff1663a9059cbb600160009054906101000a900473ffffffffffffffffffffffffffffffffffffffff16836040518363ffffffff1660e01b81526004016113ca9291906127e6565b6020604051808303816000875af11580156113e9573d6000803e3d6000fd5b505050506040513d601f19601f8201168201806040525081019061140d9190612a92565b5050505050505050565b600060646032734cdf39285d7ca8eb3f090fda0c069ba5f4145b3773ffffffffffffffffffffffffffffffffffffffff166370a08231306040518263ffffffff1660e01b815260040161146a9190612653565b602060405180830381865afa158015611487573d6000803e3d6000fd5b505050506040513d601f19601f820116820180604052508101906114ab9190612a04565b6114b59190612f17565b6114bf9190612fa0565b905060006064826114d09190612f17565b90506000600367ffffffffffffffff8111156114ef576114ee612c2e565b5b60405190808252806020026020018201604052801561151d5781602001602082028036833780820191505090505b509050734cdf39285d7ca8eb3f090fda0c069ba5f4145b378160008151811061154957611548612c5d565b5b602002602001019073ffffffffffffffffffffffffffffffffffffffff16908173ffffffffffffffffffffffffffffffffffffffff16815250507321be370d5312f44cb42ce377bc9b8a0cef1a4c83816001815181106115ac576115ab612c5d565b5b602002602001019073ffffffffffffffffffffffffffffffffffffffff16908173ffffffffffffffffffffffffffffffffffffffff1681525050736c021ae822bea943b2e66552bde1d2696a53fbb78160028151811061160f5761160e612c5d565b5b602002602001019073ffffffffffffffffffffffffffffffffffffffff16908173ffffffffffffffffffffffffffffffffffffffff16815250507f000000000000000000000000000000000000000000000000000000000000000073ffffffffffffffffffffffffffffffffffffffff16635c11d7958460008430601e426116979190612aee565b6040518663ffffffff1660e01b81526004016116b7959493929190612d4a565b600060405180830381600087803b1580156116d157600080fd5b505af11580156116e5573d6000803e3d6000fd5b505050506000734cdf39285d7ca8eb3f090fda0c069ba5f4145b3773ffffffffffffffffffffffffffffffffffffffff166370a08231306040518263ffffffff1660e01b81526004016117389190612653565b602060405180830381865afa158015611755573d6000803e3d6000fd5b505050506040513d601f19601f820116820180604052508101906117799190612a04565b90506000600267ffffffffffffffff81111561179857611797612c2e565b5b6040519080825280602002602001820160405280156117c65781602001602082028036833780820191505090505b509050734cdf39285d7ca8eb3f090fda0c069ba5f4145b37816000815181106117f2576117f1612c5d565b5b602002602001019073ffffffffffffffffffffffffffffffffffffffff16908173ffffffffffffffffffffffffffffffffffffffff16815250507321be370d5312f44cb42ce377bc9b8a0cef1a4c838160018151811061185557611854612c5d565b5b602002602001019073ffffffffffffffffffffffffffffffffffffffff16908173ffffffffffffffffffffffffffffffffffffffff16815250507f000000000000000000000000000000000000000000000000000000000000000073ffffffffffffffffffffffffffffffffffffffff16635c11d7958360008430601e426118dd9190612aee565b6040518663ffffffff1660e01b81526004016118fd959493929190612d4a565b600060405180830381600087803b15801561191757600080fd5b505af115801561192b573d6000803e3d6000fd5b505050505050505050565b6000736c021ae822bea943b2e66552bde1d2696a53fbb773ffffffffffffffffffffffffffffffffffffffff166370a08231306040518263ffffffff1660e01b81526004016119859190612653565b602060405180830381865afa1580156119a2573d6000803e3d6000fd5b505050506040513d601f19601f820116820180604052508101906119c69190612a04565b905060007321be370d5312f44cb42ce377bc9b8a0cef1a4c8373ffffffffffffffffffffffffffffffffffffffff166370a08231306040518263ffffffff1660e01b8152600401611a179190612653565b602060405180830381865afa158015611a34573d6000803e3d6000fd5b505050506040513d601f19601f82011682018060405250810190611a589190612a04565b9050736c021ae822bea943b2e66552bde1d2696a53fbb773ffffffffffffffffffffffffffffffffffffffff1663095ea7b373f491e7b69e4244ad4002bc14e878a34207e38c29846040518363ffffffff1660e01b8152600401611abd9291906127e6565b6020604051808303816000875af1158015611adc573d6000803e3d6000fd5b505050506040513d601f19601f82011682018060405250810190611b009190612a92565b507321be370d5312f44cb42ce377bc9b8a0cef1a4c8373ffffffffffffffffffffffffffffffffffffffff1663095ea7b373f491e7b69e4244ad4002bc14e878a34207e38c29836040518363ffffffff1660e01b8152600401611b649291906127e6565b6020604051808303816000875af1158015611b83573d6000803e3d6000fd5b505050506040513d601f19601f82011682018060405250810190611ba79190612a92565b5073f491e7b69e4244ad4002bc14e878a34207e38c2973ffffffffffffffffffffffffffffffffffffffff1663e8e33700736c021ae822bea943b2e66552bde1d2696a53fbb77321be370d5312f44cb42ce377bc9b8a0cef1a4c83858560018030601e42611c159190612aee565b6040518963ffffffff1660e01b8152600401611c38989796959493929190612fd1565b6060604051808303816000875af1158015611c57573d6000803e3d6000fd5b505050506040513d601f19601f82011682018060405250810190611c7b919061304f565b5050505050565b6000732a651563c9d3af67ae0388a5c8f89b867038089e73ffffffffffffffffffffffffffffffffffffffff166370a08231306040518263ffffffff1660e01b8152600401611cd19190612653565b602060405180830381865afa158015611cee573d6000803e3d6000fd5b505050506040513d601f19601f82011682018060405250810190611d129190612a04565b9050732a651563c9d3af67ae0388a5c8f89b867038089e73ffffffffffffffffffffffffffffffffffffffff1663095ea7b373cc0a87f7e7c693042a9cc703661f5060c80acb43836040518363ffffffff1660e01b8152600401611d779291906127e6565b6020604051808303816000875af1158015611d96573d6000803e3d6000fd5b505050506040513d601f19601f82011682018060405250810190611dba9190612a92565b5073cc0a87f7e7c693042a9cc703661f5060c80acb4373ffffffffffffffffffffffffffffffffffffffff1663e2bbb1586000836040518363ffffffff1660e01b8152600401611e0b929190612a31565b600060405180830381600087803b158015611e2557600080fd5b505af1158015611e39573d6000803e3d6000fd5b5050505050565b7304068da6c83afcfa0e13ba15a6696662335d5b7573ffffffffffffffffffffffffffffffffffffffff1663095ea7b373328a7b4d538a2b3942653a9983fda3c12c571141836040518363ffffffff1660e01b8152600401611ea39291906127e6565b6020604051808303816000875af1158015611ec2573d6000803e3d6000fd5b505050506040513d601f19601f82011682018060405250810190611ee69190612a92565b5073328a7b4d538a2b3942653a9983fda3c12c57114173ffffffffffffffffffffffffffffffffffffffff1663a0712d68826040518263ffffffff1660e01b8152600401611f349190612887565b6020604051808303816000875af1158015611f53573d6000803e3d6000fd5b505050506040513d601f19601f82011682018060405250810190611f779190612a04565b506000600167ffffffffffffffff811115611f9557611f94612c2e565b5b604051908082528060200260200182016040528015611fc35781602001602082028036833780820191505090505b50905073328a7b4d538a2b3942653a9983fda3c12c57114181600081518110611fef57611fee612c5d565b5b602002602001019073ffffffffffffffffffffffffffffffffffffffff16908173ffffffffffffffffffffffffffffffffffffffff16815250507f000000000000000000000000000000000000000000000000000000000000000073ffffffffffffffffffffffffffffffffffffffff1663c2998238826040518263ffffffff1660e01b815260040161208291906130a2565b6000604051808303816000875af11580156120a1573d6000803e3d6000fd5b505050506040513d6000823e3d601f19601f820116820180604052508101906120ca9190612ece565b5060006120d5612483565b509150507f000000000000000000000000000000000000000000000000000000000000000073ffffffffffffffffffffffffffffffffffffffff1663c5ebeaec826040518263ffffffff1660e01b81526004016121329190612887565b6020604051808303816000875af1158015612151573d6000803e3d6000fd5b505050506040513d601f19601f820116820180604052508101906121759190612a04565b50505050565b6000606460327321be370d5312f44cb42ce377bc9b8a0cef1a4c8373ffffffffffffffffffffffffffffffffffffffff166370a08231306040518263ffffffff1660e01b81526004016121ce9190612653565b602060405180830381865afa1580156121eb573d6000803e3d6000fd5b505050506040513d601f19601f8201168201806040525081019061220f9190612a04565b6122199190612f17565b6122239190612fa0565b90507321be370d5312f44cb42ce377bc9b8a0cef1a4c8373ffffffffffffffffffffffffffffffffffffffff1663095ea7b373f491e7b69e4244ad4002bc14e878a34207e38c29836040518363ffffffff1660e01b81526004016122889291906127e6565b6020604051808303816000875af11580156122a7573d6000803e3d6000fd5b505050506040513d601f19601f820116820180604052508101906122cb9190612a92565b506000600267ffffffffffffffff8111156122e9576122e8612c2e565b5b6040519080825280602002602001820160405280156123175781602001602082028036833780820191505090505b5090507321be370d5312f44cb42ce377bc9b8a0cef1a4c838160008151811061234357612342612c5d565b5b602002602001019073ffffffffffffffffffffffffffffffffffffffff16908173ffffffffffffffffffffffffffffffffffffffff1681525050736c021ae822bea943b2e66552bde1d2696a53fbb7816001815181106123a6576123a5612c5d565b5b602002602001019073ffffffffffffffffffffffffffffffffffffffff16908173ffffffffffffffffffffffffffffffffffffffff168152505073f491e7b69e4244ad4002bc14e878a34207e38c2973ffffffffffffffffffffffffffffffffffffffff166338ed17398360008430426040518663ffffffff1660e01b8152600401612436959493929190612d4a565b6000604051808303816000875af1158015612455573d6000803e3d6000fd5b505050506040513d6000823e3d601f19601f8201168201806040525081019061247e9190612ece565b505050565b60008060007f000000000000000000000000000000000000000000000000000000000000000073ffffffffffffffffffffffffffffffffffffffff16635ec88c79306040518263ffffffff1660e01b81526004016124e19190612653565b606060405180830381865afa1580156124fe573d6000803e3d6000fd5b505050506040513d601f19601f82011682018060405250810190612522919061304f565b909150508093505060007f000000000000000000000000000000000000000000000000000000000000000073ffffffffffffffffffffffffffffffffffffffff166365555bcc6040518163ffffffff1660e01b81526004016125839061315c565b606060405180830381865afa1580156125a0573d6000803e3d6000fd5b505050506040513d601f19601f820116820180604052508101906125c491906131f8565b905080600001519150600082670de0b6b3a7640000866125e49190612f17565b6125ee9190612fa0565b90506064604b826125ff9190612f17565b6126099190612fa0565b93505050909192565b600073ffffffffffffffffffffffffffffffffffffffff82169050919050565b600061263d82612612565b9050919050565b61264d81612632565b82525050565b60006020820190506126686000830184612644565b92915050565b6000604051905090565b600080fd5b600080fd5b6000819050919050565b61269581612682565b81146126a057600080fd5b50565b6000813590506126b28161268c565b92915050565b6000602082840312156126ce576126cd612678565b5b60006126dc848285016126a3565b91505092915050565b6000819050919050565b600061270a61270561270084612612565b6126e5565b612612565b9050919050565b600061271c826126ef565b9050919050565b600061272e82612711565b9050919050565b61273e81612723565b82525050565b60006020820190506127596000830184612735565b92915050565b600061276a82612711565b9050919050565b61277a8161275f565b82525050565b60006020820190506127956000830184612771565b92915050565b60006127a682612711565b9050919050565b6127b68161279b565b82525050565b60006020820190506127d160008301846127ad565b92915050565b6127e081612682565b82525050565b60006040820190506127fb6000830185612644565b61280860208301846127d7565b9392505050565b600061281a82612711565b9050919050565b61282a8161280f565b82525050565b60006020820190506128456000830184612821565b92915050565b600061285682612711565b9050919050565b6128668161284b565b82525050565b6000602082019050612881600083018461285d565b92915050565b600060208201905061289c60008301846127d7565b92915050565b600082825260208201905092915050565b7f217661756c740000000000000000000000000000000000000000000000000000600082015250565b60006128e96006836128a2565b91506128f4826128b3565b602082019050919050565b60006020820190508181036000830152612918816128dc565b9050919050565b7f6e6f000000000000000000000000000000000000000000000000000000000000600082015250565b60006129556002836128a2565b91506129608261291f565b602082019050919050565b6000602082019050818103600083015261298481612948565b9050919050565b6000819050919050565b60006129b06129ab6129a68461298b565b6126e5565b612682565b9050919050565b6129c081612995565b82525050565b60006040820190506129db60008301856129b7565b6129e860208301846129b7565b9392505050565b6000815190506129fe8161268c565b92915050565b600060208284031215612a1a57612a19612678565b5b6000612a28848285016129ef565b91505092915050565b6000604082019050612a4660008301856129b7565b612a5360208301846127d7565b9392505050565b60008115159050919050565b612a6f81612a5a565b8114612a7a57600080fd5b50565b600081519050612a8c81612a66565b92915050565b600060208284031215612aa857612aa7612678565b5b6000612ab684828501612a7d565b91505092915050565b7f4e487b7100000000000000000000000000000000000000000000000000000000600052601160045260246000fd5b6000612af982612682565b9150612b0483612682565b9250827fffffffffffffffffffffffffffffffffffffffffffffffffffffffffffffffff03821115612b3957612b38612abf565b5b828201905092915050565b6000819050919050565b6000612b69612b64612b5f84612b44565b6126e5565b612682565b9050919050565b612b7981612b4e565b82525050565b600060e082019050612b94600083018a612644565b612ba16020830189612644565b612bae60408301886127d7565b612bbb6060830187612b70565b612bc86080830186612b70565b612bd560a0830185612644565b612be260c08301846127d7565b98975050505050505050565b60008060408385031215612c0557612c04612678565b5b6000612c13858286016129ef565b9250506020612c24858286016129ef565b9150509250929050565b7f4e487b7100000000000000000000000000000000000000000000000000000000600052604160045260246000fd5b7f4e487b7100000000000000000000000000000000000000000000000000000000600052603260045260246000fd5b600081519050919050565b600082825260208201905092915050565b6000819050602082019050919050565b612cc181612632565b82525050565b6000612cd38383612cb8565b60208301905092915050565b6000602082019050919050565b6000612cf782612c8c565b612d018185612c97565b9350612d0c83612ca8565b8060005b83811015612d3d578151612d248882612cc7565b9750612d2f83612cdf565b925050600181019050612d10565b5085935050505092915050565b600060a082019050612d5f60008301886127d7565b612d6c60208301876129b7565b8181036040830152612d7e8186612cec565b9050612d8d6060830185612644565b612d9a60808301846127d7565b9695505050505050565b600080fd5b6000601f19601f8301169050919050565b612dc382612da9565b810181811067ffffffffffffffff82111715612de257612de1612c2e565b5b80604052505050565b6000612df561266e565b9050612e018282612dba565b919050565b600067ffffffffffffffff821115612e2157612e20612c2e565b5b602082029050602081019050919050565b600080fd5b6000612e4a612e4584612e06565b612deb565b90508083825260208201905060208402830185811115612e6d57612e6c612e32565b5b835b81811015612e965780612e8288826129ef565b845260208401935050602081019050612e6f565b5050509392505050565b600082601f830112612eb557612eb4612da4565b5b8151612ec5848260208601612e37565b91505092915050565b600060208284031215612ee457612ee3612678565b5b600082015167ffffffffffffffff811115612f0257612f0161267d565b5b612f0e84828501612ea0565b91505092915050565b6000612f2282612682565b9150612f2d83612682565b9250817fffffffffffffffffffffffffffffffffffffffffffffffffffffffffffffffff0483118215151615612f6657612f65612abf565b5b828202905092915050565b7f4e487b7100000000000000000000000000000000000000000000000000000000600052601260045260246000fd5b6000612fab82612682565b9150612fb683612682565b925082612fc657612fc5612f71565b5b828204905092915050565b600061010082019050612fe7600083018b612644565b612ff4602083018a612644565b61300160408301896127d7565b61300e60608301886127d7565b61301b6080830187612b70565b61302860a0830186612b70565b61303560c0830185612644565b61304260e08301846127d7565b9998505050505050505050565b60008060006060848603121561306857613067612678565b5b6000613076868287016129ef565b9350506020613087868287016129ef565b9250506040613098868287016129ef565b9150509250925092565b600060208201905081810360008301526130bc8184612cec565b905092915050565b7f46544d0000000000000000000000000000000000000000000000000000000000600082015250565b60006130fa6003836128a2565b9150613105826130c4565b602082019050919050565b7f5553444300000000000000000000000000000000000000000000000000000000600082015250565b60006131466004836128a2565b915061315182613110565b602082019050919050565b60006040820190508181036000830152613175816130ed565b9050818103602083015261318881613139565b9050919050565b600080fd5b6000606082840312156131aa576131a961318f565b5b6131b46060612deb565b905060006131c4848285016129ef565b60008301525060206131d8848285016129ef565b60208301525060406131ec848285016129ef565b60408301525092915050565b60006060828403121561320e5761320d612678565b5b600061321c84828501613194565b9150509291505056fea2646970667358221220b4f0280ad09fb7da3895e5055e88167a70529989867d32925b331b1cd0532b8464736f6c634300080a0033",
  "immutableReferences": {
    "1870": [
      {
        "length": 32,
        "start": 2116
      },
      {
        "length": 32,
        "start": 3962
      },
      {
        "length": 32,
        "start": 5707
      },
      {
        "length": 32,
        "start": 6289
      }
    ],
    "1873": [
      {
        "length": 32,
        "start": 1996
      },
      {
        "length": 32,
        "start": 8235
      },
      {
        "length": 32,
        "start": 9354
      }
    ],
    "1876": [
      {
        "length": 32,
        "start": 1410
      },
      {
        "length": 32,
        "start": 9518
      }
    ],
    "1879": [
      {
        "length": 32,
        "start": 1350
      },
      {
        "length": 32,
        "start": 4340
      },
      {
        "length": 32,
        "start": 4471
      },
      {
        "length": 32,
        "start": 8411
      }
    ]
  },
  "source": "pragma solidity ^0.8.10; \npragma abicoder v2;  \n\nimport \"../DjinnBottleUSDC.sol\"; \nimport \"../interfaces/CTokenInterfaces.sol\"; \nimport \"../interfaces/ComptrollerInterface.sol\";  \nimport \"../interfaces/IStdReference.sol\"; \nimport \"@uniswap/v2-periphery/contracts/interfaces/IUniswapV2Router02.sol\"; \nimport \"../interfaces/IMasterChef.sol\"; \nimport \"@openzeppelin/contracts/token/ERC20/IERC20.sol\"; \n\n\ncontract ShortFarmFTM {\n\t\n\t//Contract Specifics \n\taddress public creator; \n\tuint private constant CREATOR_FEE = 100; //1% \n\tDjinnBottleUSDC public VAULT; \n\n\t//Cream Finance Contracts \n\taddress public constant crUSDC = 0x328A7b4d538A2b3942653a9983fdA3C12c571141; \n\n\t//Public Tokens\n\taddress public constant USDC = 0x04068DA6C83AFCFA0e13ba15A6696662335D5B75; \n\taddress public constant WFTM = 0x21be370D5312f44cB42ce377BC9b8a0cEF1A4C83; \n\taddress public constant TOMB = 0x6c021Ae822BEa943b2E66552bDe1D2696a53fbB7; \n\taddress public constant TSHARE = 0x4cdF39285D7Ca8eB3f090fDA0C069ba5F4145B37; \n\t\n\t//SpookySwap Router, LP, TSHAREPool \n\taddress public constant spookyAddress = 0xF491e7B69E4244ad4002BC14e878a34207E38c29;\t\t\n\taddress public constant spookyFtmTombLP = 0x2A651563C9d3Af67aE0388a5c8F89b867038089e; \n\taddress public constant tShareRewardPool = 0xcc0a87F7e7c693042a9Cc703661F5060c80ACb43; \n\n\n\t//Contract Interfaces  \n\tIUniswapV2Router02 public immutable spookyRouter; \n\tComptrollerInterface public immutable comptroller; \n\tIStdReference public immutable priceOracle;\n\tCERC20 public immutable crWFTM; \t\n\t\n\n\n\tconstructor(DjinnBottleUSDC _djBottle, \t\n\t\t\t\tIUniswapV2Router02 _spookyRouter, \n\t\t\t\tComptrollerInterface _comptroller, \n\t\t\t\tIStdReference _priceOracle,\n\t\t\t\tCERC20 _cERC20) {\n\t\t\t\t\taddress creator = msg.sender;\n\t\t\t\t\tVAULT = _djBottle; \n\t\t\t\t\tspookyRouter = _spookyRouter; \n\t\t\t\t\tcomptroller = _comptroller;  \n\t\t\t\t\tpriceOracle = _priceOracle; \n\t\t\t\t\tcrWFTM = _cERC20; \n\t\t\t\t}\n\t\n\t//automate opening a position\n\t//designed for single user ie. user opens via vault contract \t\n\tfunction open(uint amount) external {\n\t\tborrow(amount); //same amount in USDC to keep track of how many tokens we have supplied \n\t\tswap(); //swap half of bal to TOMB and unwrap the rest to FTM \n\t\tgetLPTokens(); //get FTM-TOMB LP tokens \t\n\t\tdepositLPGetTShare(); //deposit LP tokens on TOMB to earn TSHARE\n\t}\n\n\t//automate the harvest \n\tfunction harvest() external {\n\t\trequire(msg.sender == address(VAULT), \"no\"); \n\t\tIMasterChef(tShareRewardPool).deposit(0, 0); //0 is poolId and we call a deposit of 0 to allocate the shares to this contract\n\t\t//chargeFees(); \n\t\tsellAndSwap(); //sell tshare for 50% TOMB 50% WFTM \n\t\tgetLPTokens(); \n\t\tdepositLPGetTShare(); \n\t}\n\t\n\t//automate the closing of the position\n\t//designed for single use ie. user closes via vault contract \t\n\t//so we need to vault contract to determine how many tokens belong to the user from this contract \n\tfunction close(uint amount) external {\n\t\trequire(msg.sender == address(VAULT), \"!vault\"); \n\t\t//swap all LP tokens back to underlying \n\t\tswapAndWithdraw(amount);  \n\t\tremoveLiq(); \n\t\tswapBack(); \n\t\t//send back to vault to allow for withdraw \n\t}\n\n\tfunction returnSender() external view returns(address, uint) {\n\t\treturn (address(VAULT), IERC20(spookyFtmTombLP).balanceOf(address(this))); \n\n\t}\n\t\n\t//next we borrow WTFM from cream <= 75% so we don't get liquidated\n\t//cream allows for 75% collateral on deposits of USDC, but this 75% is on the 75% \n\t//so we are effectively borrowing ~55% of our deposit amount, which leaves room to the upside  \t\t\n\tfunction borrow(uint amount) internal {\n\t\t//first we supply USDC\n\t\tIERC20(USDC).approve(crUSDC, amount);  \n\t\tCERC20(crUSDC).mint(amount); \n\t\t\n\t\t//we enter the marker to use usdc as collateral \t\n\t\taddress[] memory cTokenSupplied = new address[](1); \n\t\tcTokenSupplied[0] = crUSDC; //cToken address\n\t\tcomptroller.enterMarkets(cTokenSupplied); \n\t\t\n\t\t//get max borrow && borrow  \n\t\t(, uint borrowAmount,) = getBorrowAmount(); //borrow amount returns the token amount scaled up by 1e18 @ 75% of our max borrow\n\t\tcrWFTM.borrow(borrowAmount);  \n\t}\n\n\tfunction getBorrowAmount() internal view returns(uint liquidity, uint borrowAmount, uint price) {\n\t\t(, liquidity,) = comptroller.getAccountLiquidity(address(this)); \n\t\tIStdReference.ReferenceData memory data = priceOracle.getReferenceData(\"FTM\", \"USDC\"); \n\t\tprice = data.rate; \n\t\tuint maxTokenBorrow = (liquidity * 10**18) / price; //wFTM has 18 decimals   \t\n\t\tborrowAmount = (maxTokenBorrow * 75) / 100; \n\t\treturn (liquidity, borrowAmount, price); \n\t}\n\n\t//where amount is the percentage of LP tokens relative to the callers % ownership of the vault \n\tfunction swapAndWithdraw(uint amount) internal {\n\t\t//uint percentOfLP = amount / 100; //div by 100 to get percentage\t\n\t\t//uint amountToWithdraw = IERC20(spookyFtmTombLP).balanceOf(address(this)) * percentOfLP;  \n\t\tamount = 6333300000000000000 * 50 / 100;  \n\t\t//we first withdraw the LP tokens from TOMB  \n\t\tIMasterChef(tShareRewardPool).withdraw(0, amount); //where amount is the amount of LP tokens \n\t}\n\n\tfunction removeLiq() internal {\t\n\t\t//we remove liquidity belonging to the user(amount) back for tomb + wftm \n\t\tuint amountToWithdraw = IERC20(spookyFtmTombLP).balanceOf(address(this)); \n\t\tIERC20(spookyFtmTombLP).approve(spookyAddress, amountToWithdraw); \n\t\t(uint amountWftm, uint amountTomb) = IUniswapV2Router02(spookyAddress).removeLiquidity(\n\t\t\tWFTM,\n\t\t\tTOMB, \n\t\t   \tamountToWithdraw,\n\t\t   \t1,\n\t\t   \t1,\n\t\t   \taddress(this),\n\t\t   \tblock.timestamp + 30\n\t\t); \n\t}\n\n\tfunction getUnderlying() public returns(uint) {\n\t\treturn CERC20(crUSDC).balanceOfUnderlying(address(this)); \n\t}\n\t\n\tfunction swapBack() internal {\n\t\t//now we swap tomb back for wftm \n\t\tuint amountTomb = IERC20(TOMB).balanceOf(address(this));  \n\t\tuint amountWftm = IERC20(WFTM).balanceOf(address(this)); \n\t\t\n\t\t//only need to approve TOMB because wftm is not being swapped \n\t\tIERC20(TOMB).approve(spookyAddress, amountTomb); \n\t\taddress[] memory path = new address[](2); \n\t\tpath[0] = TOMB; \n\t\tpath[1] = WFTM; \n\t\tuint[] memory amounts = spookyRouter.swapExactTokensForTokens(\n\t\t\tamountTomb,\n\t\t\t0,\n\t\t\tpath,\n\t\t\taddress(this),\n\t\t\tblock.timestamp + 30\n\t\t);\n\n\t\tuint amountToRepay = IERC20(WFTM).balanceOf(address(this));  \n\n\t\t//now we can repay our users borrow \n\t\tIERC20(WFTM).approve(address(crWFTM), amountToRepay); \n\t\tcrWFTM.repayBorrow(amountToRepay); \n\n\t\t//creamUSDC balance redeem \n\t\tuint crBal = getUnderlying() * 50 / 100; \n\t\tCERC20(crUSDC).redeemUnderlying(crBal); \n\n\t\tuint usdcBalance = IERC20(USDC).balanceOf(address(this)); \n\t\tIERC20(USDC).transfer(address(VAULT), usdcBalance); \n\t}\n\n\t//then we send the funds to spookyswap where we sell 50% to tomb and then unwrap the rest \n\tfunction swap() internal { \n\t\t//swap 50% to TOMB & approve \n\t\tuint half = IERC20(WFTM).balanceOf(address(this)) * 50 / 100; \n\t\tIERC20(WFTM).approve(spookyAddress, half);\n\t\n \n         address[] memory path = new address[](2);\n         path[0] = WFTM;\n         path[1] = TOMB;\n         IUniswapV2Router02(spookyAddress).swapExactTokensForTokens(\n             half,\n             0,\n             path,\n             address(this),\n             block.timestamp\n\t\t ); \n\t }\n\n\t\n\n\tfunction sellAndSwap() internal {\n\t\tuint half = IERC20(TSHARE).balanceOf(address(this)) * 50 / 100; \n\t\tuint fee = half * CREATOR_FEE; \n\t\taddress[] memory pathToTomb = new address[](3); \n\t\tpathToTomb[0] = TSHARE;  \n\t\tpathToTomb[1] = WFTM; \n\t\tpathToTomb[2] = TOMB; \n\t\tspookyRouter.swapExactTokensForTokensSupportingFeeOnTransferTokens(\n\t\t\thalf,\n\t\t\t0,\n\t\t\tpathToTomb,\n\t\t\taddress(this),\n\t\t\tblock.timestamp + 30\n\t\t); \n\n\t\t//swap rest to WFTM \n\t\tuint rest = IERC20(TSHARE).balanceOf(address(this)); \n\t\taddress[] memory pathToWftm = new address[](2); \n\t\tpathToWftm[0] = TSHARE; \n\t\tpathToWftm[1] = WFTM; \n\t\tspookyRouter.swapExactTokensForTokensSupportingFeeOnTransferTokens(\n\t\t\trest,\n\t\t\t0,\n\t\t\tpathToWftm,\n\t\t\taddress(this),\n\t\t\tblock.timestamp + 30\n\t\t); \n\t}\n\n\tfunction getLPTokens() internal {\n\t\t//we need to approve the router to spend our TOMB\n\t\tuint tombAmount = IERC20(TOMB).balanceOf(address(this)); \n\t\tuint ftmAmount = IERC20(WFTM).balanceOf(address(this));  \n\n\t\t//now we add liquidity \n\t\t//@params token, tokenAmount, minToken, minETH, to, deadline\n\t\tIERC20(TOMB).approve(spookyAddress, tombAmount); \n\t\tIERC20(WFTM).approve(spookyAddress, ftmAmount); \n\t\tIUniswapV2Router02(spookyAddress).addLiquidity(TOMB, WFTM, tombAmount, ftmAmount, 1, 1, address(this), block.timestamp + 30); \n\t}\n\n\tfunction getLPBalnace() external view returns(uint lpAmount) {\n\t\treturn lpAmount = IERC20(spookyFtmTombLP).balanceOf(address(this));\t\n\t}\n\n\tfunction depositLPGetTShare() internal {\n\t\t//deposit into tshare vault using _pid but idk how to get that currently \t\n\t\tuint lpTokenBalance = IERC20(spookyFtmTombLP).balanceOf(address(this)); \n\t\t//tomb has 2 pools that give tshare rewards for staked LPs, the TSHARE-FTM and TOMB-FTM, \n\t\t//they are both distributed from the same contract tho, and they don't say which is which anywhere?? cringe. \n\t\t//after this deposit the contract should be earning tshares as a reward \n\t\tIERC20(spookyFtmTombLP).approve(tShareRewardPool, lpTokenBalance); \n\t\tIMasterChef(tShareRewardPool).deposit(0, lpTokenBalance); //I think the FTM-TOMB pool ID is 0 tho \n\t}\n\n\treceive() external payable{} \n\t\n} \n",
  "sourcePath": "/home/kevin/Code/solidity_projects/djinnFinance/contracts/strategies/ShortFarmFTM.sol",
  "compiler": {
    "name": "solc",
    "version": "0.8.10+commit.fc410830.Emscripten.clang"
  },
  "schemaVersion": "3.4.3",
  "updatedAt": "2022-01-28T21:24:35.555Z",
  "networkType": "ethereum",
  "devdoc": {
    "kind": "dev",
    "methods": {},
    "version": 1
  },
  "userdoc": {
    "kind": "user",
    "methods": {},
    "version": 1
  }
}