{
  "contractName": "ShortFarmFTM",
  "abi": [
    {
      "inputs": [
        {
          "internalType": "address",
          "name": "creator",
          "type": "address"
        },
        {
          "internalType": "contract DjinnBottleUSDC",
          "name": "_djBottle",
          "type": "address"
        },
        {
          "internalType": "contract IUniswapV2Router02",
          "name": "_spookyRouter",
          "type": "address"
        },
        {
          "internalType": "contract IMasterChef",
          "name": "_tsharePool",
          "type": "address"
        }
      ],
      "stateMutability": "nonpayable",
      "type": "constructor"
    },
    {
      "inputs": [],
      "name": "TOMB",
      "outputs": [
        {
          "internalType": "address",
          "name": "",
          "type": "address"
        }
      ],
      "stateMutability": "view",
      "type": "function"
    },
    {
      "inputs": [],
      "name": "TSHARE",
      "outputs": [
        {
          "internalType": "address",
          "name": "",
          "type": "address"
        }
      ],
      "stateMutability": "view",
      "type": "function"
    },
    {
      "inputs": [],
      "name": "USDC",
      "outputs": [
        {
          "internalType": "address",
          "name": "",
          "type": "address"
        }
      ],
      "stateMutability": "view",
      "type": "function"
    },
    {
      "inputs": [],
      "name": "VAULT",
      "outputs": [
        {
          "internalType": "contract DjinnBottleUSDC",
          "name": "",
          "type": "address"
        }
      ],
      "stateMutability": "view",
      "type": "function"
    },
    {
      "inputs": [],
      "name": "WFTM",
      "outputs": [
        {
          "internalType": "address",
          "name": "",
          "type": "address"
        }
      ],
      "stateMutability": "view",
      "type": "function"
    },
    {
      "inputs": [],
      "name": "crUSDC",
      "outputs": [
        {
          "internalType": "address",
          "name": "",
          "type": "address"
        }
      ],
      "stateMutability": "view",
      "type": "function"
    },
    {
      "inputs": [],
      "name": "crWFTM",
      "outputs": [
        {
          "internalType": "address",
          "name": "",
          "type": "address"
        }
      ],
      "stateMutability": "view",
      "type": "function"
    },
    {
      "inputs": [],
      "name": "spookyAddress",
      "outputs": [
        {
          "internalType": "address",
          "name": "",
          "type": "address"
        }
      ],
      "stateMutability": "view",
      "type": "function"
    },
    {
      "inputs": [],
      "name": "spookyFtmTombLP",
      "outputs": [
        {
          "internalType": "address",
          "name": "",
          "type": "address"
        }
      ],
      "stateMutability": "view",
      "type": "function"
    },
    {
      "inputs": [],
      "name": "spookyRouter",
      "outputs": [
        {
          "internalType": "contract IUniswapV2Router02",
          "name": "",
          "type": "address"
        }
      ],
      "stateMutability": "view",
      "type": "function"
    },
    {
      "inputs": [],
      "name": "tsharePool",
      "outputs": [
        {
          "internalType": "contract IMasterChef",
          "name": "",
          "type": "address"
        }
      ],
      "stateMutability": "view",
      "type": "function"
    },
    {
      "inputs": [
        {
          "internalType": "uint256",
          "name": "amount",
          "type": "uint256"
        }
      ],
      "name": "open",
      "outputs": [],
      "stateMutability": "nonpayable",
      "type": "function"
    },
    {
      "inputs": [],
      "name": "harvest",
      "outputs": [],
      "stateMutability": "nonpayable",
      "type": "function"
    },
    {
      "inputs": [
        {
          "internalType": "uint256",
          "name": "amount",
          "type": "uint256"
        }
      ],
      "name": "close",
      "outputs": [],
      "stateMutability": "nonpayable",
      "type": "function"
    }
  ],
  "bytecode": "0x6101e060405273328a7b4d538a2b3942653a9983fda3c12c57114173ffffffffffffffffffffffffffffffffffffffff1660a09073ffffffffffffffffffffffffffffffffffffffff1681525073d528697008ac67a21818751a5e3c58c8dae5469673ffffffffffffffffffffffffffffffffffffffff1660c09073ffffffffffffffffffffffffffffffffffffffff168152507304068da6c83afcfa0e13ba15a6696662335d5b7573ffffffffffffffffffffffffffffffffffffffff1660e09073ffffffffffffffffffffffffffffffffffffffff168152507321be370d5312f44cb42ce377bc9b8a0cef1a4c8373ffffffffffffffffffffffffffffffffffffffff166101009073ffffffffffffffffffffffffffffffffffffffff16815250736c021ae822bea943b2e66552bde1d2696a53fbb773ffffffffffffffffffffffffffffffffffffffff166101209073ffffffffffffffffffffffffffffffffffffffff16815250734cdf39285d7ca8eb3f090fda0c069ba5f4145b3773ffffffffffffffffffffffffffffffffffffffff166101409073ffffffffffffffffffffffffffffffffffffffff16815250732a651563c9d3af67ae0388a5c8f89b867038089e73ffffffffffffffffffffffffffffffffffffffff166101609073ffffffffffffffffffffffffffffffffffffffff1681525073f491e7b69e4244ad4002bc14e878a34207e38c2973ffffffffffffffffffffffffffffffffffffffff166101809073ffffffffffffffffffffffffffffffffffffffff168152503480156200024f57600080fd5b5060405162002aac38038062002aac833981810160405281019062000275919062000459565b3393508173ffffffffffffffffffffffffffffffffffffffff166101a08173ffffffffffffffffffffffffffffffffffffffff16815250508273ffffffffffffffffffffffffffffffffffffffff1660808173ffffffffffffffffffffffffffffffffffffffff16815250508073ffffffffffffffffffffffffffffffffffffffff166101c08173ffffffffffffffffffffffffffffffffffffffff168152505050505050620004cb565b600080fd5b600073ffffffffffffffffffffffffffffffffffffffff82169050919050565b6000620003528262000325565b9050919050565b620003648162000345565b81146200037057600080fd5b50565b600081519050620003848162000359565b92915050565b6000620003978262000345565b9050919050565b620003a9816200038a565b8114620003b557600080fd5b50565b600081519050620003c9816200039e565b92915050565b6000620003dc8262000345565b9050919050565b620003ee81620003cf565b8114620003fa57600080fd5b50565b6000815190506200040e81620003e3565b92915050565b6000620004218262000345565b9050919050565b620004338162000414565b81146200043f57600080fd5b50565b600081519050620004538162000428565b92915050565b6000806000806080858703121562000476576200047562000320565b5b6000620004868782880162000373565b94505060206200049987828801620003b8565b9350506040620004ac87828801620003fd565b9250506060620004bf8782880162000442565b91505092959194509250565b60805160a05160c05160e05161010051610120516101405161016051610180516101a0516101c051612449620006636000396000818161041101528181610599015281816106bf015261133901526000818161052d015281816107500152818161097601528181610d5101528181610fbb0152818161119d01526119220152600061057501526000818161055101528181610619015261129d0152600081816105bd01528181610b0601528181610c0401528181610df30152610edd0152600081816105e10152818161078c0152818161089601528181610ce201528181611063015281816111d901526118b301526000818161033b015281816107ad0152818161090501528181610c7301528181610f4c01528181611101015281816111fa015281816117460152611844015260008181610509015281816113ca015261148b01526000818161031701528181610a5901526116a00152600081816104e5015281816114c70152818161154a01526115f001526000818161027d0152818161035f01528181610383015261140601526124496000f3fe608060405234801561001057600080fd5b50600436106100ea5760003560e01c806389a302711161008c578063a6f8d40511610066578063a6f8d40514610203578063a7afae2914610221578063b5ee45c11461023f578063c139acfa1461025d576100ea565b806389a30271146101a95780638ed8ea7e146101c75780639cdd8ee7146101e5576100ea565b8063411557d1116100c8578063411557d1146101475780634641257d14610165578063690e7c091461016f57806382c70bbf1461018b576100ea565b80630aebeb4e146100ef5780631882bf441461010b57806321dbe87614610129575b600080fd5b61010960048036038101906101049190611a0e565b61027b565b005b610113610315565b6040516101209190611a7c565b60405180910390f35b610131610339565b60405161013e9190611a7c565b60405180910390f35b61014f61035d565b60405161015c9190611af6565b60405180910390f35b61016d610381565b005b61018960048036038101906101849190611a0e565b6104b7565b005b6101936104e3565b6040516101a09190611a7c565b60405180910390f35b6101b1610507565b6040516101be9190611a7c565b60405180910390f35b6101cf61052b565b6040516101dc9190611b32565b60405180910390f35b6101ed61054f565b6040516101fa9190611a7c565b60405180910390f35b61020b610573565b6040516102189190611a7c565b60405180910390f35b610229610597565b6040516102369190611b6e565b60405180910390f35b6102476105bb565b6040516102549190611a7c565b60405180910390f35b6102656105df565b6040516102729190611a7c565b60405180910390f35b7f000000000000000000000000000000000000000000000000000000000000000073ffffffffffffffffffffffffffffffffffffffff163373ffffffffffffffffffffffffffffffffffffffff1614610309576040517f08c379a000000000000000000000000000000000000000000000000000000000815260040161030090611be6565b60405180910390fd5b61031281610603565b50565b7f000000000000000000000000000000000000000000000000000000000000000081565b7f000000000000000000000000000000000000000000000000000000000000000081565b7f000000000000000000000000000000000000000000000000000000000000000081565b7f000000000000000000000000000000000000000000000000000000000000000073ffffffffffffffffffffffffffffffffffffffff163373ffffffffffffffffffffffffffffffffffffffff161461040f576040517f08c379a000000000000000000000000000000000000000000000000000000000815260040161040690611c52565b60405180910390fd5b7f000000000000000000000000000000000000000000000000000000000000000073ffffffffffffffffffffffffffffffffffffffff1663e2bbb1586000806040518363ffffffff1660e01b815260040161046b929190611cad565b600060405180830381600087803b15801561048557600080fd5b505af1158015610499573d6000803e3d6000fd5b505050506104a5610afe565b6104ad61105f565b6104b5611299565b565b6104c0816113c8565b6104c86115e8565b6104d061173e565b6104d861105f565b6104e0611299565b50565b7f000000000000000000000000000000000000000000000000000000000000000081565b7f000000000000000000000000000000000000000000000000000000000000000081565b7f000000000000000000000000000000000000000000000000000000000000000081565b7f000000000000000000000000000000000000000000000000000000000000000081565b7f000000000000000000000000000000000000000000000000000000000000000081565b7f000000000000000000000000000000000000000000000000000000000000000081565b7f000000000000000000000000000000000000000000000000000000000000000081565b7f000000000000000000000000000000000000000000000000000000000000000081565b60006064826106129190611d34565b90506000817f000000000000000000000000000000000000000000000000000000000000000073ffffffffffffffffffffffffffffffffffffffff166370a08231306040518263ffffffff1660e01b81526004016106709190611a7c565b602060405180830381865afa15801561068d573d6000803e3d6000fd5b505050506040513d601f19601f820116820180604052508101906106b19190611d7a565b6106bb9190611da7565b90507f000000000000000000000000000000000000000000000000000000000000000073ffffffffffffffffffffffffffffffffffffffff1663441a3e706000836040518363ffffffff1660e01b8152600401610719929190611e10565b600060405180830381600087803b15801561073357600080fd5b505af1158015610747573d6000803e3d6000fd5b505050506000807f000000000000000000000000000000000000000000000000000000000000000073ffffffffffffffffffffffffffffffffffffffff1663baa2abde7f00000000000000000000000000000000000000000000000000000000000000007f00000000000000000000000000000000000000000000000000000000000000008660008030601e426107de9190611e39565b6040518863ffffffff1660e01b81526004016108009796959493929190611e8f565b60408051808303816000875af115801561081e573d6000803e3d6000fd5b505050506040513d601f19601f820116820180604052508101906108429190611efe565b915091506000600267ffffffffffffffff81111561086357610862611f3e565b5b6040519080825280602002602001820160405280156108915781602001602082028036833780820191505090505b5090507f0000000000000000000000000000000000000000000000000000000000000000816000815181106108c9576108c8611f6d565b5b602002602001019073ffffffffffffffffffffffffffffffffffffffff16908173ffffffffffffffffffffffffffffffffffffffff16815250507f00000000000000000000000000000000000000000000000000000000000000008160018151811061093857610937611f6d565b5b602002602001019073ffffffffffffffffffffffffffffffffffffffff16908173ffffffffffffffffffffffffffffffffffffffff168152505060007f000000000000000000000000000000000000000000000000000000000000000073ffffffffffffffffffffffffffffffffffffffff166338ed17398560008530601e426109c29190611e39565b6040518663ffffffff1660e01b81526004016109e295949392919061205a565b6000604051808303816000875af1158015610a01573d6000803e3d6000fd5b505050506040513d6000823e3d601f19601f82011682018060405250810190610a2a91906121de565b905060008382600081518110610a4357610a42611f6d565b5b6020026020010151610a559190611e39565b90507f000000000000000000000000000000000000000000000000000000000000000073ffffffffffffffffffffffffffffffffffffffff16630e752702826040518263ffffffff1660e01b8152600401610ab09190612227565b6020604051808303816000875af1158015610acf573d6000803e3d6000fd5b505050506040513d601f19601f82011682018060405250810190610af39190611d7a565b505050505050505050565b6000606460327f000000000000000000000000000000000000000000000000000000000000000073ffffffffffffffffffffffffffffffffffffffff166370a08231306040518263ffffffff1660e01b8152600401610b5d9190611a7c565b602060405180830381865afa158015610b7a573d6000803e3d6000fd5b505050506040513d601f19601f82011682018060405250810190610b9e9190611d7a565b610ba89190611da7565b610bb29190611d34565b90506000600367ffffffffffffffff811115610bd157610bd0611f3e565b5b604051908082528060200260200182016040528015610bff5781602001602082028036833780820191505090505b5090507f000000000000000000000000000000000000000000000000000000000000000081600081518110610c3757610c36611f6d565b5b602002602001019073ffffffffffffffffffffffffffffffffffffffff16908173ffffffffffffffffffffffffffffffffffffffff16815250507f000000000000000000000000000000000000000000000000000000000000000081600181518110610ca657610ca5611f6d565b5b602002602001019073ffffffffffffffffffffffffffffffffffffffff16908173ffffffffffffffffffffffffffffffffffffffff16815250507f000000000000000000000000000000000000000000000000000000000000000081600281518110610d1557610d14611f6d565b5b602002602001019073ffffffffffffffffffffffffffffffffffffffff16908173ffffffffffffffffffffffffffffffffffffffff16815250507f000000000000000000000000000000000000000000000000000000000000000073ffffffffffffffffffffffffffffffffffffffff16635c11d7958360008430601e42610d9d9190611e39565b6040518663ffffffff1660e01b8152600401610dbd95949392919061205a565b600060405180830381600087803b158015610dd757600080fd5b505af1158015610deb573d6000803e3d6000fd5b5050505060007f000000000000000000000000000000000000000000000000000000000000000073ffffffffffffffffffffffffffffffffffffffff166370a08231306040518263ffffffff1660e01b8152600401610e4a9190611a7c565b602060405180830381865afa158015610e67573d6000803e3d6000fd5b505050506040513d601f19601f82011682018060405250810190610e8b9190611d7a565b90506000600267ffffffffffffffff811115610eaa57610ea9611f3e565b5b604051908082528060200260200182016040528015610ed85781602001602082028036833780820191505090505b5090507f000000000000000000000000000000000000000000000000000000000000000081600081518110610f1057610f0f611f6d565b5b602002602001019073ffffffffffffffffffffffffffffffffffffffff16908173ffffffffffffffffffffffffffffffffffffffff16815250507f000000000000000000000000000000000000000000000000000000000000000081600181518110610f7f57610f7e611f6d565b5b602002602001019073ffffffffffffffffffffffffffffffffffffffff16908173ffffffffffffffffffffffffffffffffffffffff16815250507f000000000000000000000000000000000000000000000000000000000000000073ffffffffffffffffffffffffffffffffffffffff16635c11d7958360008430601e426110079190611e39565b6040518663ffffffff1660e01b815260040161102795949392919061205a565b600060405180830381600087803b15801561104157600080fd5b505af1158015611055573d6000803e3d6000fd5b5050505050505050565b60007f000000000000000000000000000000000000000000000000000000000000000073ffffffffffffffffffffffffffffffffffffffff166370a08231306040518263ffffffff1660e01b81526004016110ba9190611a7c565b602060405180830381865afa1580156110d7573d6000803e3d6000fd5b505050506040513d601f19601f820116820180604052508101906110fb9190611d7a565b905060007f000000000000000000000000000000000000000000000000000000000000000073ffffffffffffffffffffffffffffffffffffffff166370a08231306040518263ffffffff1660e01b81526004016111589190611a7c565b602060405180830381865afa158015611175573d6000803e3d6000fd5b505050506040513d601f19601f820116820180604052508101906111999190611d7a565b90507f000000000000000000000000000000000000000000000000000000000000000073ffffffffffffffffffffffffffffffffffffffff1663e8e337007f00000000000000000000000000000000000000000000000000000000000000007f0000000000000000000000000000000000000000000000000000000000000000858560018030601e4261122c9190611e39565b6040518963ffffffff1660e01b815260040161124f98979695949392919061227d565b6060604051808303816000875af115801561126e573d6000803e3d6000fd5b505050506040513d601f19601f8201168201806040525081019061129291906122fb565b5050505050565b60007f000000000000000000000000000000000000000000000000000000000000000073ffffffffffffffffffffffffffffffffffffffff166370a08231306040518263ffffffff1660e01b81526004016112f49190611a7c565b602060405180830381865afa158015611311573d6000803e3d6000fd5b505050506040513d601f19601f820116820180604052508101906113359190611d7a565b90507f000000000000000000000000000000000000000000000000000000000000000073ffffffffffffffffffffffffffffffffffffffff1663e2bbb1586000836040518363ffffffff1660e01b8152600401611393929190611e10565b600060405180830381600087803b1580156113ad57600080fd5b505af11580156113c1573d6000803e3d6000fd5b5050505050565b7f000000000000000000000000000000000000000000000000000000000000000073ffffffffffffffffffffffffffffffffffffffff166323b872dd7f000000000000000000000000000000000000000000000000000000000000000030846040518463ffffffff1660e01b81526004016114459392919061234e565b6020604051808303816000875af1158015611464573d6000803e3d6000fd5b505050506040513d601f19601f8201168201806040525081019061148891906123bd565b507f000000000000000000000000000000000000000000000000000000000000000073ffffffffffffffffffffffffffffffffffffffff1663095ea7b37f0000000000000000000000000000000000000000000000000000000000000000836040518363ffffffff1660e01b81526004016115049291906123ea565b6020604051808303816000875af1158015611523573d6000803e3d6000fd5b505050506040513d601f19601f8201168201806040525081019061154791906123bd565b507f000000000000000000000000000000000000000000000000000000000000000073ffffffffffffffffffffffffffffffffffffffff1663a0712d68826040518263ffffffff1660e01b81526004016115a19190612227565b6020604051808303816000875af11580156115c0573d6000803e3d6000fd5b505050506040513d601f19601f820116820180604052508101906115e49190611d7a565b5050565b60006064604b7f000000000000000000000000000000000000000000000000000000000000000073ffffffffffffffffffffffffffffffffffffffff166370a08231306040518263ffffffff1660e01b81526004016116479190611a7c565b602060405180830381865afa158015611664573d6000803e3d6000fd5b505050506040513d601f19601f820116820180604052508101906116889190611d7a565b6116929190611da7565b61169c9190611d34565b90507f000000000000000000000000000000000000000000000000000000000000000073ffffffffffffffffffffffffffffffffffffffff1663c5ebeaec826040518263ffffffff1660e01b81526004016116f79190612227565b6020604051808303816000875af1158015611716573d6000803e3d6000fd5b505050506040513d601f19601f8201168201806040525081019061173a9190611d7a565b5050565b6000606460327f000000000000000000000000000000000000000000000000000000000000000073ffffffffffffffffffffffffffffffffffffffff166370a08231306040518263ffffffff1660e01b815260040161179d9190611a7c565b602060405180830381865afa1580156117ba573d6000803e3d6000fd5b505050506040513d601f19601f820116820180604052508101906117de9190611d7a565b6117e89190611da7565b6117f29190611d34565b90506000600267ffffffffffffffff81111561181157611810611f3e565b5b60405190808252806020026020018201604052801561183f5781602001602082028036833780820191505090505b5090507f00000000000000000000000000000000000000000000000000000000000000008160008151811061187757611876611f6d565b5b602002602001019073ffffffffffffffffffffffffffffffffffffffff16908173ffffffffffffffffffffffffffffffffffffffff16815250507f0000000000000000000000000000000000000000000000000000000000000000816001815181106118e6576118e5611f6d565b5b602002602001019073ffffffffffffffffffffffffffffffffffffffff16908173ffffffffffffffffffffffffffffffffffffffff16815250507f000000000000000000000000000000000000000000000000000000000000000073ffffffffffffffffffffffffffffffffffffffff16635c11d7958360008430601e4261196e9190611e39565b6040518663ffffffff1660e01b815260040161198e95949392919061205a565b600060405180830381600087803b1580156119a857600080fd5b505af11580156119bc573d6000803e3d6000fd5b505050505050565b6000604051905090565b600080fd5b600080fd5b6000819050919050565b6119eb816119d8565b81146119f657600080fd5b50565b600081359050611a08816119e2565b92915050565b600060208284031215611a2457611a236119ce565b5b6000611a32848285016119f9565b91505092915050565b600073ffffffffffffffffffffffffffffffffffffffff82169050919050565b6000611a6682611a3b565b9050919050565b611a7681611a5b565b82525050565b6000602082019050611a916000830184611a6d565b92915050565b6000819050919050565b6000611abc611ab7611ab284611a3b565b611a97565b611a3b565b9050919050565b6000611ace82611aa1565b9050919050565b6000611ae082611ac3565b9050919050565b611af081611ad5565b82525050565b6000602082019050611b0b6000830184611ae7565b92915050565b6000611b1c82611ac3565b9050919050565b611b2c81611b11565b82525050565b6000602082019050611b476000830184611b23565b92915050565b6000611b5882611ac3565b9050919050565b611b6881611b4d565b82525050565b6000602082019050611b836000830184611b5f565b92915050565b600082825260208201905092915050565b7f217661756c740000000000000000000000000000000000000000000000000000600082015250565b6000611bd0600683611b89565b9150611bdb82611b9a565b602082019050919050565b60006020820190508181036000830152611bff81611bc3565b9050919050565b7f6e6f000000000000000000000000000000000000000000000000000000000000600082015250565b6000611c3c600283611b89565b9150611c4782611c06565b602082019050919050565b60006020820190508181036000830152611c6b81611c2f565b9050919050565b6000819050919050565b6000611c97611c92611c8d84611c72565b611a97565b6119d8565b9050919050565b611ca781611c7c565b82525050565b6000604082019050611cc26000830185611c9e565b611ccf6020830184611c9e565b9392505050565b7f4e487b7100000000000000000000000000000000000000000000000000000000600052601260045260246000fd5b7f4e487b7100000000000000000000000000000000000000000000000000000000600052601160045260246000fd5b6000611d3f826119d8565b9150611d4a836119d8565b925082611d5a57611d59611cd6565b5b828204905092915050565b600081519050611d74816119e2565b92915050565b600060208284031215611d9057611d8f6119ce565b5b6000611d9e84828501611d65565b91505092915050565b6000611db2826119d8565b9150611dbd836119d8565b9250817fffffffffffffffffffffffffffffffffffffffffffffffffffffffffffffffff0483118215151615611df657611df5611d05565b5b828202905092915050565b611e0a816119d8565b82525050565b6000604082019050611e256000830185611c9e565b611e326020830184611e01565b9392505050565b6000611e44826119d8565b9150611e4f836119d8565b9250827fffffffffffffffffffffffffffffffffffffffffffffffffffffffffffffffff03821115611e8457611e83611d05565b5b828201905092915050565b600060e082019050611ea4600083018a611a6d565b611eb16020830189611a6d565b611ebe6040830188611e01565b611ecb6060830187611c9e565b611ed86080830186611c9e565b611ee560a0830185611a6d565b611ef260c0830184611e01565b98975050505050505050565b60008060408385031215611f1557611f146119ce565b5b6000611f2385828601611d65565b9250506020611f3485828601611d65565b9150509250929050565b7f4e487b7100000000000000000000000000000000000000000000000000000000600052604160045260246000fd5b7f4e487b7100000000000000000000000000000000000000000000000000000000600052603260045260246000fd5b600081519050919050565b600082825260208201905092915050565b6000819050602082019050919050565b611fd181611a5b565b82525050565b6000611fe38383611fc8565b60208301905092915050565b6000602082019050919050565b600061200782611f9c565b6120118185611fa7565b935061201c83611fb8565b8060005b8381101561204d5781516120348882611fd7565b975061203f83611fef565b925050600181019050612020565b5085935050505092915050565b600060a08201905061206f6000830188611e01565b61207c6020830187611c9e565b818103604083015261208e8186611ffc565b905061209d6060830185611a6d565b6120aa6080830184611e01565b9695505050505050565b600080fd5b6000601f19601f8301169050919050565b6120d3826120b9565b810181811067ffffffffffffffff821117156120f2576120f1611f3e565b5b80604052505050565b60006121056119c4565b905061211182826120ca565b919050565b600067ffffffffffffffff82111561213157612130611f3e565b5b602082029050602081019050919050565b600080fd5b600061215a61215584612116565b6120fb565b9050808382526020820190506020840283018581111561217d5761217c612142565b5b835b818110156121a657806121928882611d65565b84526020840193505060208101905061217f565b5050509392505050565b600082601f8301126121c5576121c46120b4565b5b81516121d5848260208601612147565b91505092915050565b6000602082840312156121f4576121f36119ce565b5b600082015167ffffffffffffffff811115612212576122116119d3565b5b61221e848285016121b0565b91505092915050565b600060208201905061223c6000830184611e01565b92915050565b6000819050919050565b600061226761226261225d84612242565b611a97565b6119d8565b9050919050565b6122778161224c565b82525050565b600061010082019050612293600083018b611a6d565b6122a0602083018a611a6d565b6122ad6040830189611e01565b6122ba6060830188611e01565b6122c7608083018761226e565b6122d460a083018661226e565b6122e160c0830185611a6d565b6122ee60e0830184611e01565b9998505050505050505050565b600080600060608486031215612314576123136119ce565b5b600061232286828701611d65565b935050602061233386828701611d65565b925050604061234486828701611d65565b9150509250925092565b60006060820190506123636000830186611a6d565b6123706020830185611a6d565b61237d6040830184611e01565b949350505050565b60008115159050919050565b61239a81612385565b81146123a557600080fd5b50565b6000815190506123b781612391565b92915050565b6000602082840312156123d3576123d26119ce565b5b60006123e1848285016123a8565b91505092915050565b60006040820190506123ff6000830185611a6d565b61240c6020830184611e01565b939250505056fea26469706673582212209221faa49e0a0d12d7ebb1a6c2869b04be7c7064f07009b516386f5af3337eee64736f6c634300080a0033",
  "immutableReferences": {
    "1458": [
      {
        "length": 32,
        "start": 637
      },
      {
        "length": 32,
        "start": 863
      },
      {
        "length": 32,
        "start": 899
      },
      {
        "length": 32,
        "start": 5126
      }
    ],
    "1461": [
      {
        "length": 32,
        "start": 1253
      },
      {
        "length": 32,
        "start": 5319
      },
      {
        "length": 32,
        "start": 5450
      },
      {
        "length": 32,
        "start": 5616
      }
    ],
    "1464": [
      {
        "length": 32,
        "start": 791
      },
      {
        "length": 32,
        "start": 2649
      },
      {
        "length": 32,
        "start": 5792
      }
    ],
    "1467": [
      {
        "length": 32,
        "start": 1289
      },
      {
        "length": 32,
        "start": 5066
      },
      {
        "length": 32,
        "start": 5259
      }
    ],
    "1470": [
      {
        "length": 32,
        "start": 827
      },
      {
        "length": 32,
        "start": 1965
      },
      {
        "length": 32,
        "start": 2309
      },
      {
        "length": 32,
        "start": 3187
      },
      {
        "length": 32,
        "start": 3916
      },
      {
        "length": 32,
        "start": 4353
      },
      {
        "length": 32,
        "start": 4602
      },
      {
        "length": 32,
        "start": 5958
      },
      {
        "length": 32,
        "start": 6212
      }
    ],
    "1473": [
      {
        "length": 32,
        "start": 1505
      },
      {
        "length": 32,
        "start": 1932
      },
      {
        "length": 32,
        "start": 2198
      },
      {
        "length": 32,
        "start": 3298
      },
      {
        "length": 32,
        "start": 4195
      },
      {
        "length": 32,
        "start": 4569
      },
      {
        "length": 32,
        "start": 6323
      }
    ],
    "1476": [
      {
        "length": 32,
        "start": 1469
      },
      {
        "length": 32,
        "start": 2822
      },
      {
        "length": 32,
        "start": 3076
      },
      {
        "length": 32,
        "start": 3571
      },
      {
        "length": 32,
        "start": 3805
      }
    ],
    "1479": [
      {
        "length": 32,
        "start": 1361
      },
      {
        "length": 32,
        "start": 1561
      },
      {
        "length": 32,
        "start": 4765
      }
    ],
    "1482": [
      {
        "length": 32,
        "start": 1397
      }
    ],
    "1485": [
      {
        "length": 32,
        "start": 1325
      },
      {
        "length": 32,
        "start": 1872
      },
      {
        "length": 32,
        "start": 2422
      },
      {
        "length": 32,
        "start": 3409
      },
      {
        "length": 32,
        "start": 4027
      },
      {
        "length": 32,
        "start": 4509
      },
      {
        "length": 32,
        "start": 6434
      }
    ],
    "1488": [
      {
        "length": 32,
        "start": 1041
      },
      {
        "length": 32,
        "start": 1433
      },
      {
        "length": 32,
        "start": 1727
      },
      {
        "length": 32,
        "start": 4921
      }
    ]
  },
  "source": "pragma solidity ^0.8.10; \npragma abicoder v2;  \n\nimport \"../DjinnBottleUSDC.sol\"; \nimport \"../interfaces/CTokenInterfaces.sol\"; \nimport \"@uniswap/v2-periphery/contracts/interfaces/IUniswapV2Router02.sol\"; \nimport \"../interfaces/IMasterChef.sol\"; \nimport \"@openzeppelin/contracts/token/ERC20/IERC20.sol\"; \n\n\ncontract ShortFarmFTM {\n\n\n\tufixed8x2 private constant CREATOR_FEE = 1 / 100; \n\tDjinnBottleUSDC public immutable VAULT; \n\n\t//Cream Finance Contracts \n\taddress public immutable crUSDC = 0x328A7b4d538A2b3942653a9983fdA3C12c571141; \n\taddress public immutable crWFTM = 0xd528697008aC67A21818751A5e3c58C8daE54696; \n\n\t//Public Tokens\n\taddress public immutable USDC = 0x04068DA6C83AFCFA0e13ba15A6696662335D5B75; \n\taddress public immutable WFTM = 0x21be370D5312f44cB42ce377BC9b8a0cEF1A4C83; \n\taddress public immutable TOMB = 0x6c021Ae822BEa943b2E66552bDe1D2696a53fbB7; \n\taddress public immutable TSHARE = 0x4cdF39285D7Ca8eB3f090fDA0C069ba5F4145B37; \n\t\n\t//SpookySwap Router and LP \n\taddress public immutable spookyFtmTombLP = 0x2A651563C9d3Af67aE0388a5c8F89b867038089e; \n\taddress public immutable spookyAddress = 0xF491e7B69E4244ad4002BC14e878a34207E38c29;\t\t\n\n\t//Router Interface && Tomb Share Rewards Pool Interface \n\tIUniswapV2Router02 public immutable spookyRouter; \n\tIMasterChef public immutable tsharePool; \n\n\tuint borrowAmount; \n\n\tconstructor(address creator,\n\t\t\t\tDjinnBottleUSDC _djBottle, \t\n\t\t\t\tIUniswapV2Router02 _spookyRouter, \n\t\t\t\tIMasterChef _tsharePool) {\n\t\t\t\t\tcreator = msg.sender;\n\t\t\t\t\tspookyRouter = _spookyRouter; \n\t\t\t\t\tVAULT = _djBottle; \n\t\t\t\t\ttsharePool = _tsharePool; \n\t\t}\n\t\n\t//automate opening a position\n\t//designed for single user ie. user opens via vault contract \t\n\tfunction open(uint amount) external { //make sure to pass msg.value when opening \n\t\tdeposit(amount); \n\t\tborrow(); \n\t\tswap(); //swap half of bal to TOMB and unwrap the rest to FTM \n\t\tgetLPTokens(); //get FTM-TOMB LP tokens \t\n\t\tdepositLPGetTShare(); //deposit LP tokens on TOMB to earn TSHARE\n\t}\n\n\t//automate the harvest \n\tfunction harvest() external {\n\t\trequire(msg.sender == address(VAULT), \"no\"); \n\t\tIMasterChef(tsharePool).deposit(0, 0); //0 is poolId and we call a deposit of 0 to allocate the shares to this contract\n\t\t//chargeFees(); \n\t\tsellAndSwap(); //sell tshare for 50% TOMB 50% WFTM \n\t\tgetLPTokens(); \n\t\tdepositLPGetTShare(); \n\t}\n\t\n\t//automate the closing of the position\n\t//designed for single use ie. user closes via vault contract \t\n\t//so we need to vault contract to determine how many tokens belong to the user from this contract \n\tfunction close(uint amount) external {\n\t\trequire(msg.sender == address(VAULT), \"!vault\"); \n\t\t//swap all LP tokens back to underlying \n\t\tswapAndWithdraw(amount);  \n\t\t//redeemUnderlying(); //to get USDC back \n\t\t//send back to vault to allow for withdraw \n\t}\n\t\n\t//first we deposit the USDC into the corresponding market on CREAM \n\tfunction deposit(uint amount) internal {\n\t\tIERC20(USDC).transferFrom(address(VAULT), address(this), amount); \n\t\tIERC20(USDC).approve(crUSDC, amount); \n\n\t\t//this is the supply function on cream/compound \n\t\tcToken(crUSDC).mint(amount);  \n\t}\n\n\t//next we borrow WTFM from cream <= 70% so we don't get liquidated\n\t//cream allows for 75% collateral on deposits of USDC, but this 75% is on the 75% \n\t//so we are effectively borrowing ~55% of our deposit amount, which leaves room to the upside  \t\n\tfunction borrow() internal {\n\t\tuint amount = IERC20(crUSDC).balanceOf(address(this)) * 75 / 100; \n\t\tcToken(crWFTM).borrow(amount); //returns WFTM to msg.sender  \n\t}\n\n\t//where amount is the percentage of LP tokens relative to the callers % ownership of the vault \n\tfunction swapAndWithdraw(uint amount) internal {\n\t\tuint percentOfLP = amount / 100; //div by 100 to get percentage\t\n\t\tuint amountToWithdraw = IERC20(spookyFtmTombLP).balanceOf(address(this)) * percentOfLP;  \n\t\t//we first withdraw the LP tokens from TOMB  \n\t\tIMasterChef(tsharePool).withdraw(0, amountToWithdraw); //where amount is the amount of LP tokens \n\t\t\n\t\t//we remove liquidity belonging to the user(amount) back for tomb + wftm \n\t\t(uint amountTomb, uint amountWftm) = spookyRouter.removeLiquidity(\n\t\t\tTOMB, \n\t\t\tWFTM,\n\t\t   \tamountToWithdraw,\n\t\t   \t0,\n\t\t   \t0,\n\t\t   \taddress(this),\n\t\t   \tblock.timestamp + 30\n\t\t); \n\t\t\n\t\t//now we swap tomb back for wftm \n\t\taddress[] memory path = new address[](2); \n\t\tpath[0] = TOMB; \n\t\tpath[1] = WFTM; \n\t\tuint[] memory amounts = spookyRouter.swapExactTokensForTokens(\n\t\t\tamountTomb,\n\t\t\t0,\n\t\t\tpath,\n\t\t\taddress(this),\n\t\t\tblock.timestamp + 30\n\t\t);\n\n\t\tuint amountToRepay = amounts[0] + amountWftm; \n\t\t//now we can repay our users borrow \n\t\tcToken(crWFTM).repayBorrow(amountToRepay); \n\t}\n\t\n\t//then we send the funds to spookyswap where we sell 50% to tomb and then unwrap the rest \n\tfunction swap() internal { \n\t\t//swap 50% to TOMB\n\t\tuint half = IERC20(WFTM).balanceOf(address(this)) * 50 / 100; \n\t\taddress[] memory path = new address[](2);\n\t\tpath[0] = WFTM; \n\t\tpath[1] = TOMB; \n\t\t//we swap half of the balance of WFTM for TOMB \n\t\tspookyRouter.swapExactTokensForTokensSupportingFeeOnTransferTokens(\n\t\t\thalf,\n\t\t   \t0,\n\t\t   \tpath,\n\t\t   \taddress(this),\n\t\t   \tblock.timestamp + 30\n\t\t);\n\n\t}\n\n\tfunction sellAndSwap() internal {\n\t\tuint half = IERC20(TSHARE).balanceOf(address(this)) * 50 / 100; \n\t\taddress[] memory pathToTomb = new address[](3); \n\t\tpathToTomb[0] = TSHARE;  \n\t\tpathToTomb[1] = WFTM; \n\t\tpathToTomb[2] = TOMB; \n\t\tspookyRouter.swapExactTokensForTokensSupportingFeeOnTransferTokens(\n\t\t\thalf,\n\t\t\t0,\n\t\t\tpathToTomb,\n\t\t\taddress(this),\n\t\t\tblock.timestamp + 30\n\t\t); \n\n\t\t//swap rest to WFTM \n\t\tuint rest = IERC20(TSHARE).balanceOf(address(this)); \n\t\taddress[] memory pathToWftm = new address[](2); \n\t\tpathToWftm[0] = TSHARE; \n\t\tpathToWftm[1] = WFTM; \n\t\tspookyRouter.swapExactTokensForTokensSupportingFeeOnTransferTokens(\n\t\t\trest,\n\t\t\t0,\n\t\t\tpathToWftm,\n\t\t\taddress(this),\n\t\t\tblock.timestamp + 30\n\t\t); \n\t}\n\n\tfunction getLPTokens() internal {\n\t\t//we need to approve the router to spend our TOMB\n\t\tuint tombAmount = IERC20(TOMB).balanceOf(address(this)); \n\t\tuint ftmAmount = IERC20(WFTM).balanceOf(address(this));  \n\n\t\t//now we add liquidity \n\t\t//@params token, tokenAmount, minToken, minETH, to, deadline\n\t\tspookyRouter.addLiquidity(TOMB, WFTM, tombAmount, ftmAmount, 1, 1, address(this), block.timestamp + 30); \n\t}\n\n\tfunction depositLPGetTShare() internal {\n\t\t//deposit into tshare vault using _pid but idk how to get that currently \t\n\t\tuint lpTokenBalance = IERC20(spookyFtmTombLP).balanceOf(address(this)); \n\t\t//tomb has 2 pools that give tshare rewards for staked LPs, the TSHARE-FTM and TOMB-FTM, \n\t\t//they are both distributed from the same contract tho, and they don't say which is which anywhere?? cringe. \n\t\t//after this deposit the contract should be earning tshares as a reward \n\t\tIMasterChef(tsharePool).deposit(0, lpTokenBalance); //I think the FTM-TOMB pool ID is 0 tho \n\t}\t\n\n} \n",
  "sourcePath": "/home/kevin/Code/solidity_projects/djinnFinance/contracts/strategies/ShortFarmFTM.sol",
  "compiler": {
    "name": "solc",
    "version": "0.8.10+commit.fc410830.Emscripten.clang"
  },
  "schemaVersion": "3.4.3",
  "updatedAt": "2022-01-21T22:12:06.462Z",
  "devdoc": {
    "kind": "dev",
    "methods": {},
    "version": 1
  },
  "userdoc": {
    "kind": "user",
    "methods": {},
    "version": 1
  }
}