{
  "contractName": "ShortFarmFTM",
  "abi": [
    {
      "inputs": [
        {
          "internalType": "contract DjinnBottleUSDC",
          "name": "_djBottle",
          "type": "address"
        },
        {
          "internalType": "contract IUniswapV2Router02",
          "name": "_spookyRouter",
          "type": "address"
        },
        {
          "internalType": "contract ComptrollerInterface",
          "name": "_comptroller",
          "type": "address"
        },
        {
          "internalType": "contract IStdReference",
          "name": "_priceOracle",
          "type": "address"
        },
        {
          "internalType": "contract CERC20",
          "name": "_cERC20",
          "type": "address"
        }
      ],
      "stateMutability": "nonpayable",
      "type": "constructor"
    },
    {
      "anonymous": false,
      "inputs": [
        {
          "indexed": true,
          "internalType": "address",
          "name": "owner",
          "type": "address"
        },
        {
          "indexed": true,
          "internalType": "address",
          "name": "spender",
          "type": "address"
        },
        {
          "indexed": false,
          "internalType": "uint256",
          "name": "value",
          "type": "uint256"
        }
      ],
      "name": "Approval",
      "type": "event"
    },
    {
      "anonymous": false,
      "inputs": [
        {
          "indexed": true,
          "internalType": "address",
          "name": "from",
          "type": "address"
        },
        {
          "indexed": true,
          "internalType": "address",
          "name": "to",
          "type": "address"
        },
        {
          "indexed": false,
          "internalType": "uint256",
          "name": "value",
          "type": "uint256"
        }
      ],
      "name": "Transfer",
      "type": "event"
    },
    {
      "inputs": [],
      "name": "TOMB",
      "outputs": [
        {
          "internalType": "address",
          "name": "",
          "type": "address"
        }
      ],
      "stateMutability": "view",
      "type": "function",
      "constant": true
    },
    {
      "inputs": [],
      "name": "TSHARE",
      "outputs": [
        {
          "internalType": "address",
          "name": "",
          "type": "address"
        }
      ],
      "stateMutability": "view",
      "type": "function",
      "constant": true
    },
    {
      "inputs": [],
      "name": "USDC",
      "outputs": [
        {
          "internalType": "address",
          "name": "",
          "type": "address"
        }
      ],
      "stateMutability": "view",
      "type": "function",
      "constant": true
    },
    {
      "inputs": [],
      "name": "VAULT",
      "outputs": [
        {
          "internalType": "contract DjinnBottleUSDC",
          "name": "",
          "type": "address"
        }
      ],
      "stateMutability": "view",
      "type": "function",
      "constant": true
    },
    {
      "inputs": [],
      "name": "WFTM",
      "outputs": [
        {
          "internalType": "address",
          "name": "",
          "type": "address"
        }
      ],
      "stateMutability": "view",
      "type": "function",
      "constant": true
    },
    {
      "inputs": [
        {
          "internalType": "address",
          "name": "owner",
          "type": "address"
        },
        {
          "internalType": "address",
          "name": "spender",
          "type": "address"
        }
      ],
      "name": "allowance",
      "outputs": [
        {
          "internalType": "uint256",
          "name": "",
          "type": "uint256"
        }
      ],
      "stateMutability": "view",
      "type": "function",
      "constant": true
    },
    {
      "inputs": [
        {
          "internalType": "address",
          "name": "spender",
          "type": "address"
        },
        {
          "internalType": "uint256",
          "name": "amount",
          "type": "uint256"
        }
      ],
      "name": "approve",
      "outputs": [
        {
          "internalType": "bool",
          "name": "",
          "type": "bool"
        }
      ],
      "stateMutability": "nonpayable",
      "type": "function"
    },
    {
      "inputs": [],
      "name": "ass",
      "outputs": [
        {
          "internalType": "uint256",
          "name": "",
          "type": "uint256"
        }
      ],
      "stateMutability": "view",
      "type": "function",
      "constant": true
    },
    {
      "inputs": [
        {
          "internalType": "address",
          "name": "account",
          "type": "address"
        }
      ],
      "name": "balanceOf",
      "outputs": [
        {
          "internalType": "uint256",
          "name": "",
          "type": "uint256"
        }
      ],
      "stateMutability": "view",
      "type": "function",
      "constant": true
    },
    {
      "inputs": [],
      "name": "balls",
      "outputs": [
        {
          "internalType": "uint256",
          "name": "",
          "type": "uint256"
        }
      ],
      "stateMutability": "view",
      "type": "function",
      "constant": true
    },
    {
      "inputs": [],
      "name": "cocks",
      "outputs": [
        {
          "internalType": "uint256",
          "name": "",
          "type": "uint256"
        }
      ],
      "stateMutability": "view",
      "type": "function",
      "constant": true
    },
    {
      "inputs": [],
      "name": "comptroller",
      "outputs": [
        {
          "internalType": "contract ComptrollerInterface",
          "name": "",
          "type": "address"
        }
      ],
      "stateMutability": "view",
      "type": "function",
      "constant": true
    },
    {
      "inputs": [],
      "name": "crUSDC",
      "outputs": [
        {
          "internalType": "address",
          "name": "",
          "type": "address"
        }
      ],
      "stateMutability": "view",
      "type": "function",
      "constant": true
    },
    {
      "inputs": [],
      "name": "crWFTM",
      "outputs": [
        {
          "internalType": "contract CERC20",
          "name": "",
          "type": "address"
        }
      ],
      "stateMutability": "view",
      "type": "function",
      "constant": true
    },
    {
      "inputs": [],
      "name": "creator",
      "outputs": [
        {
          "internalType": "address",
          "name": "",
          "type": "address"
        }
      ],
      "stateMutability": "view",
      "type": "function",
      "constant": true
    },
    {
      "inputs": [],
      "name": "decimals",
      "outputs": [
        {
          "internalType": "uint8",
          "name": "",
          "type": "uint8"
        }
      ],
      "stateMutability": "view",
      "type": "function",
      "constant": true
    },
    {
      "inputs": [
        {
          "internalType": "address",
          "name": "spender",
          "type": "address"
        },
        {
          "internalType": "uint256",
          "name": "subtractedValue",
          "type": "uint256"
        }
      ],
      "name": "decreaseAllowance",
      "outputs": [
        {
          "internalType": "bool",
          "name": "",
          "type": "bool"
        }
      ],
      "stateMutability": "nonpayable",
      "type": "function"
    },
    {
      "inputs": [
        {
          "internalType": "address",
          "name": "",
          "type": "address"
        }
      ],
      "name": "depositBalance",
      "outputs": [
        {
          "internalType": "uint256",
          "name": "",
          "type": "uint256"
        }
      ],
      "stateMutability": "view",
      "type": "function",
      "constant": true
    },
    {
      "inputs": [
        {
          "internalType": "address",
          "name": "spender",
          "type": "address"
        },
        {
          "internalType": "uint256",
          "name": "addedValue",
          "type": "uint256"
        }
      ],
      "name": "increaseAllowance",
      "outputs": [
        {
          "internalType": "bool",
          "name": "",
          "type": "bool"
        }
      ],
      "stateMutability": "nonpayable",
      "type": "function"
    },
    {
      "inputs": [],
      "name": "name",
      "outputs": [
        {
          "internalType": "string",
          "name": "",
          "type": "string"
        }
      ],
      "stateMutability": "view",
      "type": "function",
      "constant": true
    },
    {
      "inputs": [],
      "name": "priceOracle",
      "outputs": [
        {
          "internalType": "contract IStdReference",
          "name": "",
          "type": "address"
        }
      ],
      "stateMutability": "view",
      "type": "function",
      "constant": true
    },
    {
      "inputs": [],
      "name": "spookyAddress",
      "outputs": [
        {
          "internalType": "address",
          "name": "",
          "type": "address"
        }
      ],
      "stateMutability": "view",
      "type": "function",
      "constant": true
    },
    {
      "inputs": [],
      "name": "spookyFtmTombLP",
      "outputs": [
        {
          "internalType": "address",
          "name": "",
          "type": "address"
        }
      ],
      "stateMutability": "view",
      "type": "function",
      "constant": true
    },
    {
      "inputs": [],
      "name": "spookyRouter",
      "outputs": [
        {
          "internalType": "contract IUniswapV2Router02",
          "name": "",
          "type": "address"
        }
      ],
      "stateMutability": "view",
      "type": "function",
      "constant": true
    },
    {
      "inputs": [],
      "name": "symbol",
      "outputs": [
        {
          "internalType": "string",
          "name": "",
          "type": "string"
        }
      ],
      "stateMutability": "view",
      "type": "function",
      "constant": true
    },
    {
      "inputs": [],
      "name": "tShareRewardPool",
      "outputs": [
        {
          "internalType": "address",
          "name": "",
          "type": "address"
        }
      ],
      "stateMutability": "view",
      "type": "function",
      "constant": true
    },
    {
      "inputs": [],
      "name": "totalSupply",
      "outputs": [
        {
          "internalType": "uint256",
          "name": "",
          "type": "uint256"
        }
      ],
      "stateMutability": "view",
      "type": "function",
      "constant": true
    },
    {
      "inputs": [
        {
          "internalType": "address",
          "name": "recipient",
          "type": "address"
        },
        {
          "internalType": "uint256",
          "name": "amount",
          "type": "uint256"
        }
      ],
      "name": "transfer",
      "outputs": [
        {
          "internalType": "bool",
          "name": "",
          "type": "bool"
        }
      ],
      "stateMutability": "nonpayable",
      "type": "function"
    },
    {
      "inputs": [
        {
          "internalType": "address",
          "name": "sender",
          "type": "address"
        },
        {
          "internalType": "address",
          "name": "recipient",
          "type": "address"
        },
        {
          "internalType": "uint256",
          "name": "amount",
          "type": "uint256"
        }
      ],
      "name": "transferFrom",
      "outputs": [
        {
          "internalType": "bool",
          "name": "",
          "type": "bool"
        }
      ],
      "stateMutability": "nonpayable",
      "type": "function"
    },
    {
      "stateMutability": "payable",
      "type": "receive",
      "payable": true
    },
    {
      "inputs": [
        {
          "internalType": "address",
          "name": "user",
          "type": "address"
        },
        {
          "internalType": "uint256",
          "name": "amount",
          "type": "uint256"
        }
      ],
      "name": "open",
      "outputs": [],
      "stateMutability": "nonpayable",
      "type": "function"
    },
    {
      "inputs": [],
      "name": "harvest",
      "outputs": [],
      "stateMutability": "nonpayable",
      "type": "function"
    },
    {
      "inputs": [
        {
          "internalType": "address",
          "name": "user",
          "type": "address"
        },
        {
          "internalType": "uint256",
          "name": "amountShares",
          "type": "uint256"
        }
      ],
      "name": "close",
      "outputs": [],
      "stateMutability": "nonpayable",
      "type": "function"
    },
    {
      "inputs": [],
      "name": "rebalance",
      "outputs": [],
      "stateMutability": "nonpayable",
      "type": "function"
    },
    {
      "inputs": [],
      "name": "getBorrowAmount",
      "outputs": [
        {
          "internalType": "uint256",
          "name": "liquidity",
          "type": "uint256"
        },
        {
          "internalType": "uint256",
          "name": "borrowAmount",
          "type": "uint256"
        },
        {
          "internalType": "uint256",
          "name": "price",
          "type": "uint256"
        }
      ],
      "stateMutability": "view",
      "type": "function",
      "constant": true
    },
    {
      "inputs": [],
      "name": "vaultBalance",
      "outputs": [
        {
          "internalType": "uint256",
          "name": "",
          "type": "uint256"
        }
      ],
      "stateMutability": "nonpayable",
      "type": "function"
    },
    {
      "inputs": [],
      "name": "getUnderlying",
      "outputs": [
        {
          "internalType": "uint256",
          "name": "",
          "type": "uint256"
        }
      ],
      "stateMutability": "nonpayable",
      "type": "function"
    },
    {
      "inputs": [],
      "name": "borrowBalance",
      "outputs": [
        {
          "internalType": "uint256",
          "name": "",
          "type": "uint256"
        }
      ],
      "stateMutability": "nonpayable",
      "type": "function"
    }
  ],
  "bytecode": "0x6101006040523480156200001257600080fd5b50604051620058f3380380620058f383398181016040528101906200003891906200043c565b6040518060400160405280601481526020017f446a696e6e2046544d2053686f7274204661726d0000000000000000000000008152506040518060400160405280600981526020017f6446544d53686f727400000000000000000000000000000000000000000000008152508160039080519060200190620000bc929190620001fa565b508060049080519060200190620000d5929190620001fa565b505050600033905085600660006101000a81548173ffffffffffffffffffffffffffffffffffffffff021916908373ffffffffffffffffffffffffffffffffffffffff1602179055508473ffffffffffffffffffffffffffffffffffffffff1660808173ffffffffffffffffffffffffffffffffffffffff16815250508373ffffffffffffffffffffffffffffffffffffffff1660a08173ffffffffffffffffffffffffffffffffffffffff16815250508273ffffffffffffffffffffffffffffffffffffffff1660c08173ffffffffffffffffffffffffffffffffffffffff16815250508173ffffffffffffffffffffffffffffffffffffffff1660e08173ffffffffffffffffffffffffffffffffffffffff168152505050505050505062000529565b8280546200020890620004f3565b90600052602060002090601f0160209004810192826200022c576000855562000278565b82601f106200024757805160ff191683800117855562000278565b8280016001018555821562000278579182015b82811115620002775782518255916020019190600101906200025a565b5b5090506200028791906200028b565b5090565b5b80821115620002a65760008160009055506001016200028c565b5090565b600080fd5b600073ffffffffffffffffffffffffffffffffffffffff82169050919050565b6000620002dc82620002af565b9050919050565b6000620002f082620002cf565b9050919050565b6200030281620002e3565b81146200030e57600080fd5b50565b6000815190506200032281620002f7565b92915050565b60006200033582620002cf565b9050919050565b620003478162000328565b81146200035357600080fd5b50565b60008151905062000367816200033c565b92915050565b60006200037a82620002cf565b9050919050565b6200038c816200036d565b81146200039857600080fd5b50565b600081519050620003ac8162000381565b92915050565b6000620003bf82620002cf565b9050919050565b620003d181620003b2565b8114620003dd57600080fd5b50565b600081519050620003f181620003c6565b92915050565b60006200040482620002cf565b9050919050565b6200041681620003f7565b81146200042257600080fd5b50565b60008151905062000436816200040b565b92915050565b600080600080600060a086880312156200045b576200045a620002aa565b5b60006200046b8882890162000311565b95505060206200047e8882890162000356565b945050604062000491888289016200039b565b9350506060620004a488828901620003e0565b9250506080620004b78882890162000425565b9150509295509295909350565b7f4e487b7100000000000000000000000000000000000000000000000000000000600052602260045260246000fd5b600060028204905060018216806200050c57607f821691505b60208210811415620005235762000522620004c4565b5b50919050565b60805160a05160c05160e05161533c620005b760003960008181610b3901528181610c6f0152818161116801528181611b6701528181613bf50152613c78015260008181610d10015281816110020152613980015260008181610f5e015281816110e80152611ab70152600081816112be015281816128d701528181612b1d01526138c6015261533c6000f3fe60806040526004361061021e5760003560e01c80635fe3b567116101235780639816f473116100ab578063b5ee45c11161006f578063b5ee45c1146107e0578063c139acfa1461080b578063dd62ed3e14610836578063e08c398814610873578063e49280cb1461089e57610225565b80639816f473146106e55780639cdd8ee714610710578063a457c2d71461073b578063a6f8d40514610778578063a9059cbb146107a357610225565b806382c70bbf116100f257806382c70bbf146105fc57806389a30271146106275780638ed8ea7e14610652578063956501bb1461067d57806395d89b41146106ba57610225565b80635fe3b5671461055257806366f2addc1461057d57806370a08231146105a85780637d7c2a1c146105e557610225565b8063243cd14e116101a65780633950935111610175578063395093511461047b578063411557d1146104b85780634641257d146104e35780634c373e78146104fa5780634fbb30ed1461052557610225565b8063243cd14e146103cf5780632630c12f146103fa5780632c1c183614610425578063313ce5671461045057610225565b80630bf6cc08116101ed5780630bf6cc08146102e657806318160ddd146103115780631882bf441461033c57806321dbe8761461036757806323b872dd1461039257610225565b806302d05d3f1461022a57806306fdde0314610255578063095ea7b3146102805780630a0e5c9d146102bd57610225565b3661022557005b600080fd5b34801561023657600080fd5b5061023f6108c7565b60405161024c9190613f4d565b60405180910390f35b34801561026157600080fd5b5061026a6108ed565b6040516102779190614001565b60405180910390f35b34801561028c57600080fd5b506102a760048036038101906102a29190614099565b61097f565b6040516102b491906140f4565b60405180910390f35b3480156102c957600080fd5b506102e460048036038101906102df9190614099565b61099d565b005b3480156102f257600080fd5b506102fb610a53565b604051610308919061411e565b60405180910390f35b34801561031d57600080fd5b50610326610b2d565b604051610333919061411e565b60405180910390f35b34801561034857600080fd5b50610351610b37565b60405161035e9190614198565b60405180910390f35b34801561037357600080fd5b5061037c610b5b565b6040516103899190613f4d565b60405180910390f35b34801561039e57600080fd5b506103b960048036038101906103b491906141b3565b610b73565b6040516103c691906140f4565b60405180910390f35b3480156103db57600080fd5b506103e4610c6b565b6040516103f1919061411e565b60405180910390f35b34801561040657600080fd5b5061040f610d0e565b60405161041c9190614227565b60405180910390f35b34801561043157600080fd5b5061043a610d32565b6040516104479190613f4d565b60405180910390f35b34801561045c57600080fd5b50610465610d4a565b604051610472919061425e565b60405180910390f35b34801561048757600080fd5b506104a2600480360381019061049d9190614099565b610d53565b6040516104af91906140f4565b60405180910390f35b3480156104c457600080fd5b506104cd610dff565b6040516104da919061429a565b60405180910390f35b3480156104ef57600080fd5b506104f8610e25565b005b34801561050657600080fd5b5061050f610f51565b60405161051c919061411e565b60405180910390f35b34801561053157600080fd5b5061053a610f57565b604051610549939291906142b5565b60405180910390f35b34801561055e57600080fd5b506105676110e6565b604051610574919061430d565b60405180910390f35b34801561058957600080fd5b5061059261110a565b60405161059f919061411e565b60405180910390f35b3480156105b457600080fd5b506105cf60048036038101906105ca9190614328565b611110565b6040516105dc919061411e565b60405180910390f35b3480156105f157600080fd5b506105fa611158565b005b34801561060857600080fd5b5061061161128c565b60405161061e9190613f4d565b60405180910390f35b34801561063357600080fd5b5061063c6112a4565b6040516106499190613f4d565b60405180910390f35b34801561065e57600080fd5b506106676112bc565b6040516106749190614376565b60405180910390f35b34801561068957600080fd5b506106a4600480360381019061069f9190614328565b6112e0565b6040516106b1919061411e565b60405180910390f35b3480156106c657600080fd5b506106cf6112f8565b6040516106dc9190614001565b60405180910390f35b3480156106f157600080fd5b506106fa61138a565b604051610707919061411e565b60405180910390f35b34801561071c57600080fd5b50610725611421565b6040516107329190613f4d565b60405180910390f35b34801561074757600080fd5b50610762600480360381019061075d9190614099565b611439565b60405161076f91906140f4565b60405180910390f35b34801561078457600080fd5b5061078d611524565b60405161079a9190613f4d565b60405180910390f35b3480156107af57600080fd5b506107ca60048036038101906107c59190614099565b61153c565b6040516107d791906140f4565b60405180910390f35b3480156107ec57600080fd5b506107f561155a565b6040516108029190613f4d565b60405180910390f35b34801561081757600080fd5b50610820611572565b60405161082d9190613f4d565b60405180910390f35b34801561084257600080fd5b5061085d60048036038101906108589190614391565b61158a565b60405161086a919061411e565b60405180910390f35b34801561087f57600080fd5b50610888611611565b604051610895919061411e565b60405180910390f35b3480156108aa57600080fd5b506108c560048036038101906108c09190614099565b611617565b005b600560009054906101000a900473ffffffffffffffffffffffffffffffffffffffff1681565b6060600380546108fc90614400565b80601f016020809104026020016040519081016040528092919081815260200182805461092890614400565b80156109755780601f1061094a57610100808354040283529160200191610975565b820191906000526020600020905b81548152906001019060200180831161095857829003601f168201915b5050505050905090565b600061099361098c6116b5565b84846116bd565b6001905092915050565b600660009054906101000a900473ffffffffffffffffffffffffffffffffffffffff1673ffffffffffffffffffffffffffffffffffffffff163373ffffffffffffffffffffffffffffffffffffffff1614610a2d576040517f08c379a0000000000000000000000000000000000000000000000000000000008152600401610a249061447e565b60405180910390fd5b610a378282611888565b610a3f611c08565b610a47611f10565b610a4f61225c565b5050565b6000807304068da6c83afcfa0e13ba15a6696662335d5b7573ffffffffffffffffffffffffffffffffffffffff166370a08231600660009054906101000a900473ffffffffffffffffffffffffffffffffffffffff166040518263ffffffff1660e01b8152600401610ac59190613f4d565b602060405180830381865afa158015610ae2573d6000803e3d6000fd5b505050506040513d601f19601f82011682018060405250810190610b0691906144b3565b90506000610b1261138a565b905060008183610b22919061450f565b905080935050505090565b6000600254905090565b7f000000000000000000000000000000000000000000000000000000000000000081565b7321be370d5312f44cb42ce377bc9b8a0cef1a4c8381565b6000610b80848484612424565b6000600160008673ffffffffffffffffffffffffffffffffffffffff1673ffffffffffffffffffffffffffffffffffffffff1681526020019081526020016000206000610bcb6116b5565b73ffffffffffffffffffffffffffffffffffffffff1673ffffffffffffffffffffffffffffffffffffffff16815260200190815260200160002054905082811015610c4b576040517f08c379a0000000000000000000000000000000000000000000000000000000008152600401610c42906145d7565b60405180910390fd5b610c5f85610c576116b5565b8584036116bd565b60019150509392505050565b60007f000000000000000000000000000000000000000000000000000000000000000073ffffffffffffffffffffffffffffffffffffffff166317bfdfbc306040518263ffffffff1660e01b8152600401610cc69190613f4d565b6020604051808303816000875af1158015610ce5573d6000803e3d6000fd5b505050506040513d601f19601f82011682018060405250810190610d0991906144b3565b905090565b7f000000000000000000000000000000000000000000000000000000000000000081565b73cc0a87f7e7c693042a9cc703661f5060c80acb4381565b60006012905090565b6000610df5610d606116b5565b848460016000610d6e6116b5565b73ffffffffffffffffffffffffffffffffffffffff1673ffffffffffffffffffffffffffffffffffffffff16815260200190815260200160002060008873ffffffffffffffffffffffffffffffffffffffff1673ffffffffffffffffffffffffffffffffffffffff16815260200190815260200160002054610df0919061450f565b6116bd565b6001905092915050565b600660009054906101000a900473ffffffffffffffffffffffffffffffffffffffff1681565b600660009054906101000a900473ffffffffffffffffffffffffffffffffffffffff1673ffffffffffffffffffffffffffffffffffffffff163373ffffffffffffffffffffffffffffffffffffffff1614610eb5576040517f08c379a0000000000000000000000000000000000000000000000000000000008152600401610eac9061447e565b60405180910390fd5b73cc0a87f7e7c693042a9cc703661f5060c80acb4373ffffffffffffffffffffffffffffffffffffffff1663e2bbb1586000806040518363ffffffff1660e01b8152600401610f05929190614632565b600060405180830381600087803b158015610f1f57600080fd5b505af1158015610f33573d6000803e3d6000fd5b50505050610f3f6126a5565b610f47611f10565b610f4f61225c565b565b600a5481565b60008060007f000000000000000000000000000000000000000000000000000000000000000073ffffffffffffffffffffffffffffffffffffffff16635ec88c79306040518263ffffffff1660e01b8152600401610fb59190613f4d565b606060405180830381865afa158015610fd2573d6000803e3d6000fd5b505050506040513d601f19601f82011682018060405250810190610ff6919061465b565b909150508093505060007f000000000000000000000000000000000000000000000000000000000000000073ffffffffffffffffffffffffffffffffffffffff166365555bcc6040518163ffffffff1660e01b815260040161105790614746565b606060405180830381865afa158015611074573d6000803e3d6000fd5b505050506040513d601f19601f82011682018060405250810190611098919061485d565b905080600001519150600082670de0b6b3a7640000866110b8919061488a565b6110c29190614913565b90506064604b826110d3919061488a565b6110dd9190614913565b93505050909192565b7f000000000000000000000000000000000000000000000000000000000000000081565b60095481565b60008060008373ffffffffffffffffffffffffffffffffffffffff1673ffffffffffffffffffffffffffffffffffffffff168152602001908152602001600020549050919050565b600061116261138a565b905060007f000000000000000000000000000000000000000000000000000000000000000073ffffffffffffffffffffffffffffffffffffffff166317bfdfbc306040518263ffffffff1660e01b81526004016111bf9190613f4d565b6020604051808303816000875af11580156111de573d6000803e3d6000fd5b505050506040513d601f19601f8201168201806040525081019061120291906144b3565b9050600082606483611214919061488a565b61121e9190614913565b905060006064604b85611231919061488a565b61123b9190614913565b90506000606460558361124e919061488a565b6112589190614913565b90506000606460418461126b919061488a565b6112759190614913565b905082841061128357611284565b5b505050505050565b73328a7b4d538a2b3942653a9983fda3c12c57114181565b7304068da6c83afcfa0e13ba15a6696662335d5b7581565b7f000000000000000000000000000000000000000000000000000000000000000081565b60076020528060005260406000206000915090505481565b60606004805461130790614400565b80601f016020809104026020016040519081016040528092919081815260200182805461133390614400565b80156113805780601f1061135557610100808354040283529160200191611380565b820191906000526020600020905b81548152906001019060200180831161136357829003601f168201915b5050505050905090565b600073328a7b4d538a2b3942653a9983fda3c12c57114173ffffffffffffffffffffffffffffffffffffffff16633af9e669306040518263ffffffff1660e01b81526004016113d99190613f4d565b6020604051808303816000875af11580156113f8573d6000803e3d6000fd5b505050506040513d601f19601f8201168201806040525081019061141c91906144b3565b905090565b732a651563c9d3af67ae0388a5c8f89b867038089e81565b600080600160006114486116b5565b73ffffffffffffffffffffffffffffffffffffffff1673ffffffffffffffffffffffffffffffffffffffff16815260200190815260200160002060008573ffffffffffffffffffffffffffffffffffffffff1673ffffffffffffffffffffffffffffffffffffffff16815260200190815260200160002054905082811015611505576040517f08c379a00000000000000000000000000000000000000000000000000000000081526004016114fc906149b6565b60405180910390fd5b6115196115106116b5565b858584036116bd565b600191505092915050565b73f491e7b69e4244ad4002bc14e878a34207e38c2981565b60006115506115496116b5565b8484612424565b6001905092915050565b734cdf39285d7ca8eb3f090fda0c069ba5f4145b3781565b736c021ae822bea943b2e66552bde1d2696a53fbb781565b6000600160008473ffffffffffffffffffffffffffffffffffffffff1673ffffffffffffffffffffffffffffffffffffffff16815260200190815260200160002060008373ffffffffffffffffffffffffffffffffffffffff1673ffffffffffffffffffffffffffffffffffffffff16815260200190815260200160002054905092915050565b60085481565b600660009054906101000a900473ffffffffffffffffffffffffffffffffffffffff1673ffffffffffffffffffffffffffffffffffffffff163373ffffffffffffffffffffffffffffffffffffffff16146116a7576040517f08c379a000000000000000000000000000000000000000000000000000000000815260040161169e9061447e565b60405180910390fd5b6116b18282612d7c565b5050565b600033905090565b600073ffffffffffffffffffffffffffffffffffffffff168373ffffffffffffffffffffffffffffffffffffffff16141561172d576040517f08c379a000000000000000000000000000000000000000000000000000000000815260040161172490614a48565b60405180910390fd5b600073ffffffffffffffffffffffffffffffffffffffff168273ffffffffffffffffffffffffffffffffffffffff16141561179d576040517f08c379a000000000000000000000000000000000000000000000000000000000815260040161179490614ada565b60405180910390fd5b80600160008573ffffffffffffffffffffffffffffffffffffffff1673ffffffffffffffffffffffffffffffffffffffff16815260200190815260200160002060008473ffffffffffffffffffffffffffffffffffffffff1673ffffffffffffffffffffffffffffffffffffffff168152602001908152602001600020819055508173ffffffffffffffffffffffffffffffffffffffff168373ffffffffffffffffffffffffffffffffffffffff167f8c5be1e5ebec7d5bd14f71427d1e84f3dd0314c0f7b2291e5b200ac8c7c3b9258360405161187b919061411e565b60405180910390a3505050565b80600760008473ffffffffffffffffffffffffffffffffffffffff1673ffffffffffffffffffffffffffffffffffffffff168152602001908152602001600020819055507304068da6c83afcfa0e13ba15a6696662335d5b7573ffffffffffffffffffffffffffffffffffffffff1663095ea7b373328a7b4d538a2b3942653a9983fda3c12c571141836040518363ffffffff1660e01b815260040161192f929190614afa565b6020604051808303816000875af115801561194e573d6000803e3d6000fd5b505050506040513d601f19601f820116820180604052508101906119729190614b4f565b5073328a7b4d538a2b3942653a9983fda3c12c57114173ffffffffffffffffffffffffffffffffffffffff1663a0712d68826040518263ffffffff1660e01b81526004016119c0919061411e565b6020604051808303816000875af11580156119df573d6000803e3d6000fd5b505050506040513d601f19601f82011682018060405250810190611a0391906144b3565b506000600167ffffffffffffffff811115611a2157611a2061477e565b5b604051908082528060200260200182016040528015611a4f5781602001602082028036833780820191505090505b50905073328a7b4d538a2b3942653a9983fda3c12c57114181600081518110611a7b57611a7a614b7c565b5b602002602001019073ffffffffffffffffffffffffffffffffffffffff16908173ffffffffffffffffffffffffffffffffffffffff16815250507f000000000000000000000000000000000000000000000000000000000000000073ffffffffffffffffffffffffffffffffffffffff1663c2998238826040518263ffffffff1660e01b8152600401611b0e9190614c69565b6000604051808303816000875af1158015611b2d573d6000803e3d6000fd5b505050506040513d6000823e3d601f19601f82011682018060405250810190611b569190614d58565b506000611b61610f57565b509150507f000000000000000000000000000000000000000000000000000000000000000073ffffffffffffffffffffffffffffffffffffffff1663c5ebeaec826040518263ffffffff1660e01b8152600401611bbe919061411e565b6020604051808303816000875af1158015611bdd573d6000803e3d6000fd5b505050506040513d601f19601f82011682018060405250810190611c0191906144b3565b5050505050565b6000606460327321be370d5312f44cb42ce377bc9b8a0cef1a4c8373ffffffffffffffffffffffffffffffffffffffff166370a08231306040518263ffffffff1660e01b8152600401611c5b9190613f4d565b602060405180830381865afa158015611c78573d6000803e3d6000fd5b505050506040513d601f19601f82011682018060405250810190611c9c91906144b3565b611ca6919061488a565b611cb09190614913565b90507321be370d5312f44cb42ce377bc9b8a0cef1a4c8373ffffffffffffffffffffffffffffffffffffffff1663095ea7b373f491e7b69e4244ad4002bc14e878a34207e38c29836040518363ffffffff1660e01b8152600401611d15929190614afa565b6020604051808303816000875af1158015611d34573d6000803e3d6000fd5b505050506040513d601f19601f82011682018060405250810190611d589190614b4f565b506000600267ffffffffffffffff811115611d7657611d7561477e565b5b604051908082528060200260200182016040528015611da45781602001602082028036833780820191505090505b5090507321be370d5312f44cb42ce377bc9b8a0cef1a4c8381600081518110611dd057611dcf614b7c565b5b602002602001019073ffffffffffffffffffffffffffffffffffffffff16908173ffffffffffffffffffffffffffffffffffffffff1681525050736c021ae822bea943b2e66552bde1d2696a53fbb781600181518110611e3357611e32614b7c565b5b602002602001019073ffffffffffffffffffffffffffffffffffffffff16908173ffffffffffffffffffffffffffffffffffffffff168152505073f491e7b69e4244ad4002bc14e878a34207e38c2973ffffffffffffffffffffffffffffffffffffffff166338ed17398360008430426040518663ffffffff1660e01b8152600401611ec3959493929190614da1565b6000604051808303816000875af1158015611ee2573d6000803e3d6000fd5b505050506040513d6000823e3d601f19601f82011682018060405250810190611f0b9190614d58565b505050565b6000736c021ae822bea943b2e66552bde1d2696a53fbb773ffffffffffffffffffffffffffffffffffffffff166370a08231306040518263ffffffff1660e01b8152600401611f5f9190613f4d565b602060405180830381865afa158015611f7c573d6000803e3d6000fd5b505050506040513d601f19601f82011682018060405250810190611fa091906144b3565b905060007321be370d5312f44cb42ce377bc9b8a0cef1a4c8373ffffffffffffffffffffffffffffffffffffffff166370a08231306040518263ffffffff1660e01b8152600401611ff19190613f4d565b602060405180830381865afa15801561200e573d6000803e3d6000fd5b505050506040513d601f19601f8201168201806040525081019061203291906144b3565b9050736c021ae822bea943b2e66552bde1d2696a53fbb773ffffffffffffffffffffffffffffffffffffffff1663095ea7b373f491e7b69e4244ad4002bc14e878a34207e38c29846040518363ffffffff1660e01b8152600401612097929190614afa565b6020604051808303816000875af11580156120b6573d6000803e3d6000fd5b505050506040513d601f19601f820116820180604052508101906120da9190614b4f565b507321be370d5312f44cb42ce377bc9b8a0cef1a4c8373ffffffffffffffffffffffffffffffffffffffff1663095ea7b373f491e7b69e4244ad4002bc14e878a34207e38c29836040518363ffffffff1660e01b815260040161213e929190614afa565b6020604051808303816000875af115801561215d573d6000803e3d6000fd5b505050506040513d601f19601f820116820180604052508101906121819190614b4f565b5073f491e7b69e4244ad4002bc14e878a34207e38c2973ffffffffffffffffffffffffffffffffffffffff1663e8e33700736c021ae822bea943b2e66552bde1d2696a53fbb77321be370d5312f44cb42ce377bc9b8a0cef1a4c83858560018030601e426121ef919061450f565b6040518963ffffffff1660e01b8152600401612212989796959493929190614e36565b6060604051808303816000875af1158015612231573d6000803e3d6000fd5b505050506040513d601f19601f82011682018060405250810190612255919061465b565b5050505050565b6000732a651563c9d3af67ae0388a5c8f89b867038089e73ffffffffffffffffffffffffffffffffffffffff166370a08231306040518263ffffffff1660e01b81526004016122ab9190613f4d565b602060405180830381865afa1580156122c8573d6000803e3d6000fd5b505050506040513d601f19601f820116820180604052508101906122ec91906144b3565b90506122f830826130d7565b732a651563c9d3af67ae0388a5c8f89b867038089e73ffffffffffffffffffffffffffffffffffffffff1663095ea7b373cc0a87f7e7c693042a9cc703661f5060c80acb43836040518363ffffffff1660e01b815260040161235b929190614afa565b6020604051808303816000875af115801561237a573d6000803e3d6000fd5b505050506040513d601f19601f8201168201806040525081019061239e9190614b4f565b5073cc0a87f7e7c693042a9cc703661f5060c80acb4373ffffffffffffffffffffffffffffffffffffffff1663e2bbb1586000836040518363ffffffff1660e01b81526004016123ef929190614eb4565b600060405180830381600087803b15801561240957600080fd5b505af115801561241d573d6000803e3d6000fd5b5050505050565b600073ffffffffffffffffffffffffffffffffffffffff168373ffffffffffffffffffffffffffffffffffffffff161415612494576040517f08c379a000000000000000000000000000000000000000000000000000000000815260040161248b90614f4f565b60405180910390fd5b600073ffffffffffffffffffffffffffffffffffffffff168273ffffffffffffffffffffffffffffffffffffffff161415612504576040517f08c379a00000000000000000000000000000000000000000000000000000000081526004016124fb90614fe1565b60405180910390fd5b61250f838383613237565b60008060008573ffffffffffffffffffffffffffffffffffffffff1673ffffffffffffffffffffffffffffffffffffffff16815260200190815260200160002054905081811015612595576040517f08c379a000000000000000000000000000000000000000000000000000000000815260040161258c90615073565b60405180910390fd5b8181036000808673ffffffffffffffffffffffffffffffffffffffff1673ffffffffffffffffffffffffffffffffffffffff16815260200190815260200160002081905550816000808573ffffffffffffffffffffffffffffffffffffffff1673ffffffffffffffffffffffffffffffffffffffff1681526020019081526020016000206000828254612628919061450f565b925050819055508273ffffffffffffffffffffffffffffffffffffffff168473ffffffffffffffffffffffffffffffffffffffff167fddf252ad1be2c89b69c2b068fc378daa952ba7f163c4a11628f55a4df523b3ef8460405161268c919061411e565b60405180910390a361269f84848461323c565b50505050565b6000806126b0613241565b91509150600060646032734cdf39285d7ca8eb3f090fda0c069ba5f4145b3773ffffffffffffffffffffffffffffffffffffffff166370a08231306040518263ffffffff1660e01b81526004016127079190613f4d565b602060405180830381865afa158015612724573d6000803e3d6000fd5b505050506040513d601f19601f8201168201806040525081019061274891906144b3565b612752919061488a565b61275c9190614913565b90506000600367ffffffffffffffff81111561277b5761277a61477e565b5b6040519080825280602002602001820160405280156127a95781602001602082028036833780820191505090505b509050734cdf39285d7ca8eb3f090fda0c069ba5f4145b37816000815181106127d5576127d4614b7c565b5b602002602001019073ffffffffffffffffffffffffffffffffffffffff16908173ffffffffffffffffffffffffffffffffffffffff16815250507321be370d5312f44cb42ce377bc9b8a0cef1a4c838160018151811061283857612837614b7c565b5b602002602001019073ffffffffffffffffffffffffffffffffffffffff16908173ffffffffffffffffffffffffffffffffffffffff1681525050736c021ae822bea943b2e66552bde1d2696a53fbb78160028151811061289b5761289a614b7c565b5b602002602001019073ffffffffffffffffffffffffffffffffffffffff16908173ffffffffffffffffffffffffffffffffffffffff16815250507f000000000000000000000000000000000000000000000000000000000000000073ffffffffffffffffffffffffffffffffffffffff16635c11d7958360008430601e42612923919061450f565b6040518663ffffffff1660e01b8152600401612943959493929190614da1565b600060405180830381600087803b15801561295d57600080fd5b505af1158015612971573d6000803e3d6000fd5b505050506000734cdf39285d7ca8eb3f090fda0c069ba5f4145b3773ffffffffffffffffffffffffffffffffffffffff166370a08231306040518263ffffffff1660e01b81526004016129c49190613f4d565b602060405180830381865afa1580156129e1573d6000803e3d6000fd5b505050506040513d601f19601f82011682018060405250810190612a0591906144b3565b90506000600267ffffffffffffffff811115612a2457612a2361477e565b5b604051908082528060200260200182016040528015612a525781602001602082028036833780820191505090505b509050734cdf39285d7ca8eb3f090fda0c069ba5f4145b3781600081518110612a7e57612a7d614b7c565b5b602002602001019073ffffffffffffffffffffffffffffffffffffffff16908173ffffffffffffffffffffffffffffffffffffffff16815250507321be370d5312f44cb42ce377bc9b8a0cef1a4c8381600181518110612ae157612ae0614b7c565b5b602002602001019073ffffffffffffffffffffffffffffffffffffffff16908173ffffffffffffffffffffffffffffffffffffffff16815250507f000000000000000000000000000000000000000000000000000000000000000073ffffffffffffffffffffffffffffffffffffffff16635c11d7958360008430601e42612b69919061450f565b6040518663ffffffff1660e01b8152600401612b89959493929190614da1565b600060405180830381600087803b158015612ba357600080fd5b505af1158015612bb7573d6000803e3d6000fd5b50505050600080612bc6613241565b9150915060008883612bd89190615093565b905060008883612be89190615093565b90506000612bf583613368565b90506000612c0283613368565b9050736c021ae822bea943b2e66552bde1d2696a53fbb773ffffffffffffffffffffffffffffffffffffffff1663a9059cbb600660009054906101000a900473ffffffffffffffffffffffffffffffffffffffff16846040518363ffffffff1660e01b8152600401612c75929190614afa565b6020604051808303816000875af1158015612c94573d6000803e3d6000fd5b505050506040513d601f19601f82011682018060405250810190612cb89190614b4f565b507321be370d5312f44cb42ce377bc9b8a0cef1a4c8373ffffffffffffffffffffffffffffffffffffffff1663a9059cbb600660009054906101000a900473ffffffffffffffffffffffffffffffffffffffff16836040518363ffffffff1660e01b8152600401612d2a929190614afa565b6020604051808303816000875af1158015612d49573d6000803e3d6000fd5b505050506040513d601f19601f82011682018060405250810190612d6d9190614b4f565b50505050505050505050505050565b60003073ffffffffffffffffffffffffffffffffffffffff166370a08231306040518263ffffffff1660e01b8152600401612db79190613f4d565b602060405180830381865afa158015612dd4573d6000803e3d6000fd5b505050506040513d601f19601f82011682018060405250810190612df891906144b3565b90506000612e04610a53565b90506000600660009054906101000a900473ffffffffffffffffffffffffffffffffffffffff1673ffffffffffffffffffffffffffffffffffffffff166318160ddd6040518163ffffffff1660e01b8152600401602060405180830381865afa158015612e75573d6000803e3d6000fd5b505050506040513d601f19601f82011682018060405250810190612e9991906144b3565b905060008284612ea99190614913565b905060008582612eb9919061488a565b905084811115612ec7578490505b6000732a651563c9d3af67ae0388a5c8f89b867038089e73ffffffffffffffffffffffffffffffffffffffff166370a08231306040518263ffffffff1660e01b8152600401612f169190613f4d565b602060405180830381865afa158015612f33573d6000803e3d6000fd5b505050506040513d601f19601f82011682018060405250810190612f5791906144b3565b905073cc0a87f7e7c693042a9cc703661f5060c80acb4373ffffffffffffffffffffffffffffffffffffffff1663441a3e706000846040518363ffffffff1660e01b8152600401612fa9929190614eb4565b600060405180830381600087803b158015612fc357600080fd5b505af1158015612fd7573d6000803e3d6000fd5b505050506000732a651563c9d3af67ae0388a5c8f89b867038089e73ffffffffffffffffffffffffffffffffffffffff166370a08231306040518263ffffffff1660e01b815260040161302a9190613f4d565b602060405180830381865afa158015613047573d6000803e3d6000fd5b505050506040513d601f19601f8201168201806040525081019061306b91906144b3565b90506000828261307b9190615093565b905088600760008c73ffffffffffffffffffffffffffffffffffffffff1673ffffffffffffffffffffffffffffffffffffffff168152602001908152602001600020819055506130cb8a82613397565b50505050505050505050565b600073ffffffffffffffffffffffffffffffffffffffff168273ffffffffffffffffffffffffffffffffffffffff161415613147576040517f08c379a000000000000000000000000000000000000000000000000000000000815260040161313e90615113565b60405180910390fd5b61315360008383613237565b8060026000828254613165919061450f565b92505081905550806000808473ffffffffffffffffffffffffffffffffffffffff1673ffffffffffffffffffffffffffffffffffffffff16815260200190815260200160002060008282546131ba919061450f565b925050819055508173ffffffffffffffffffffffffffffffffffffffff16600073ffffffffffffffffffffffffffffffffffffffff167fddf252ad1be2c89b69c2b068fc378daa952ba7f163c4a11628f55a4df523b3ef8360405161321f919061411e565b60405180910390a36132336000838361323c565b5050565b505050565b505050565b600080736c021ae822bea943b2e66552bde1d2696a53fbb773ffffffffffffffffffffffffffffffffffffffff166370a08231306040518263ffffffff1660e01b81526004016132919190613f4d565b602060405180830381865afa1580156132ae573d6000803e3d6000fd5b505050506040513d601f19601f820116820180604052508101906132d291906144b3565b91507321be370d5312f44cb42ce377bc9b8a0cef1a4c8373ffffffffffffffffffffffffffffffffffffffff166370a08231306040518263ffffffff1660e01b81526004016133219190613f4d565b602060405180830381865afa15801561333e573d6000803e3d6000fd5b505050506040513d601f19601f8201168201806040525081019061336291906144b3565b90509091565b60006064612710606461337b9190614913565b83613386919061488a565b613390919061488a565b9050919050565b732a651563c9d3af67ae0388a5c8f89b867038089e73ffffffffffffffffffffffffffffffffffffffff1663095ea7b373f491e7b69e4244ad4002bc14e878a34207e38c29836040518363ffffffff1660e01b81526004016133fa929190614afa565b6020604051808303816000875af1158015613419573d6000803e3d6000fd5b505050506040513d601f19601f8201168201806040525081019061343d9190614b4f565b5060008073f491e7b69e4244ad4002bc14e878a34207e38c2973ffffffffffffffffffffffffffffffffffffffff1663baa2abde7321be370d5312f44cb42ce377bc9b8a0cef1a4c83736c021ae822bea943b2e66552bde1d2696a53fbb78660018030601e426134ad919061450f565b6040518863ffffffff1660e01b81526004016134cf9796959493929190615133565b60408051808303816000875af11580156134ed573d6000803e3d6000fd5b505050506040513d601f19601f8201168201806040525081019061351191906151a2565b9150915061351f3084613530565b61352a848383613707565b50505050565b600073ffffffffffffffffffffffffffffffffffffffff168273ffffffffffffffffffffffffffffffffffffffff1614156135a0576040517f08c379a000000000000000000000000000000000000000000000000000000000815260040161359790615254565b60405180910390fd5b6135ac82600083613237565b60008060008473ffffffffffffffffffffffffffffffffffffffff1673ffffffffffffffffffffffffffffffffffffffff16815260200190815260200160002054905081811015613632576040517f08c379a0000000000000000000000000000000000000000000000000000000008152600401613629906152e6565b60405180910390fd5b8181036000808573ffffffffffffffffffffffffffffffffffffffff1673ffffffffffffffffffffffffffffffffffffffff1681526020019081526020016000208190555081600260008282546136899190615093565b92505081905550600073ffffffffffffffffffffffffffffffffffffffff168373ffffffffffffffffffffffffffffffffffffffff167fddf252ad1be2c89b69c2b068fc378daa952ba7f163c4a11628f55a4df523b3ef846040516136ee919061411e565b60405180910390a36137028360008461323c565b505050565b736c021ae822bea943b2e66552bde1d2696a53fbb773ffffffffffffffffffffffffffffffffffffffff1663095ea7b373f491e7b69e4244ad4002bc14e878a34207e38c29836040518363ffffffff1660e01b815260040161376a929190614afa565b6020604051808303816000875af1158015613789573d6000803e3d6000fd5b505050506040513d601f19601f820116820180604052508101906137ad9190614b4f565b506000600267ffffffffffffffff8111156137cb576137ca61477e565b5b6040519080825280602002602001820160405280156137f95781602001602082028036833780820191505090505b509050736c021ae822bea943b2e66552bde1d2696a53fbb78160008151811061382557613824614b7c565b5b602002602001019073ffffffffffffffffffffffffffffffffffffffff16908173ffffffffffffffffffffffffffffffffffffffff16815250507321be370d5312f44cb42ce377bc9b8a0cef1a4c838160018151811061388857613887614b7c565b5b602002602001019073ffffffffffffffffffffffffffffffffffffffff16908173ffffffffffffffffffffffffffffffffffffffff168152505060007f000000000000000000000000000000000000000000000000000000000000000073ffffffffffffffffffffffffffffffffffffffff166338ed17398460008530601e42613912919061450f565b6040518663ffffffff1660e01b8152600401613932959493929190614da1565b6000604051808303816000875af1158015613951573d6000803e3d6000fd5b505050506040513d6000823e3d601f19601f8201168201806040525081019061397a9190614d58565b905060007f000000000000000000000000000000000000000000000000000000000000000073ffffffffffffffffffffffffffffffffffffffff166365555bcc6040518163ffffffff1660e01b81526004016139d590614746565b606060405180830381865afa1580156139f2573d6000803e3d6000fd5b505050506040513d601f19601f82011682018060405250810190613a16919061485d565b9050600082600081518110613a2e57613a2d614b7c565b5b602002602001015186613a41919061450f565b905060007321be370d5312f44cb42ce377bc9b8a0cef1a4c8373ffffffffffffffffffffffffffffffffffffffff166370a08231306040518263ffffffff1660e01b8152600401613a929190613f4d565b602060405180830381865afa158015613aaf573d6000803e3d6000fd5b505050506040513d601f19601f82011682018060405250810190613ad391906144b3565b905081600881905550808210613ae7578091505b6000620f4240670de0b6b3a76400008560000151613b059190614913565b670de0b6b3a764000085613b199190614913565b613b23919061488a565b613b2d919061488a565b9050600081600760008c73ffffffffffffffffffffffffffffffffffffffff1673ffffffffffffffffffffffffffffffffffffffff16815260200190815260200160002054613b7c9190615093565b905060008282613b8c919061450f565b90506000612710606483613ba0919061488a565b613baa9190614913565b905060008183613bba9190615093565b9050806009819055507321be370d5312f44cb42ce377bc9b8a0cef1a4c8373ffffffffffffffffffffffffffffffffffffffff1663095ea7b37f0000000000000000000000000000000000000000000000000000000000000000896040518363ffffffff1660e01b8152600401613c32929190614afa565b6020604051808303816000875af1158015613c51573d6000803e3d6000fd5b505050506040513d601f19601f82011682018060405250810190613c759190614b4f565b507f000000000000000000000000000000000000000000000000000000000000000073ffffffffffffffffffffffffffffffffffffffff16630e752702886040518263ffffffff1660e01b8152600401613ccf919061411e565b6020604051808303816000875af1158015613cee573d6000803e3d6000fd5b505050506040513d601f19601f82011682018060405250810190613d1291906144b3565b5060007304068da6c83afcfa0e13ba15a6696662335d5b7573ffffffffffffffffffffffffffffffffffffffff166370a08231306040518263ffffffff1660e01b8152600401613d629190613f4d565b602060405180830381865afa158015613d7f573d6000803e3d6000fd5b505050506040513d601f19601f82011682018060405250810190613da391906144b3565b9050613dad61138a565b8210613dbe57613dbb61138a565b91505b73328a7b4d538a2b3942653a9983fda3c12c57114173ffffffffffffffffffffffffffffffffffffffff1663852a12e36009546040518263ffffffff1660e01b8152600401613e0d919061411e565b6020604051808303816000875af1158015613e2c573d6000803e3d6000fd5b505050506040513d601f19601f82011682018060405250810190613e5091906144b3565b5060007304068da6c83afcfa0e13ba15a6696662335d5b7573ffffffffffffffffffffffffffffffffffffffff166370a08231306040518263ffffffff1660e01b8152600401613ea09190613f4d565b602060405180830381865afa158015613ebd573d6000803e3d6000fd5b505050506040513d601f19601f82011682018060405250810190613ee191906144b3565b905060008282613ef19190615093565b905080600a8190555050505050505050505050505050505050565b600073ffffffffffffffffffffffffffffffffffffffff82169050919050565b6000613f3782613f0c565b9050919050565b613f4781613f2c565b82525050565b6000602082019050613f626000830184613f3e565b92915050565b600081519050919050565b600082825260208201905092915050565b60005b83811015613fa2578082015181840152602081019050613f87565b83811115613fb1576000848401525b50505050565b6000601f19601f8301169050919050565b6000613fd382613f68565b613fdd8185613f73565b9350613fed818560208601613f84565b613ff681613fb7565b840191505092915050565b6000602082019050818103600083015261401b8184613fc8565b905092915050565b6000604051905090565b600080fd5b600080fd5b61404081613f2c565b811461404b57600080fd5b50565b60008135905061405d81614037565b92915050565b6000819050919050565b61407681614063565b811461408157600080fd5b50565b6000813590506140938161406d565b92915050565b600080604083850312156140b0576140af61402d565b5b60006140be8582860161404e565b92505060206140cf85828601614084565b9150509250929050565b60008115159050919050565b6140ee816140d9565b82525050565b600060208201905061410960008301846140e5565b92915050565b61411881614063565b82525050565b6000602082019050614133600083018461410f565b92915050565b6000819050919050565b600061415e61415961415484613f0c565b614139565b613f0c565b9050919050565b600061417082614143565b9050919050565b600061418282614165565b9050919050565b61419281614177565b82525050565b60006020820190506141ad6000830184614189565b92915050565b6000806000606084860312156141cc576141cb61402d565b5b60006141da8682870161404e565b93505060206141eb8682870161404e565b92505060406141fc86828701614084565b9150509250925092565b600061421182614165565b9050919050565b61422181614206565b82525050565b600060208201905061423c6000830184614218565b92915050565b600060ff82169050919050565b61425881614242565b82525050565b6000602082019050614273600083018461424f565b92915050565b600061428482614165565b9050919050565b61429481614279565b82525050565b60006020820190506142af600083018461428b565b92915050565b60006060820190506142ca600083018661410f565b6142d7602083018561410f565b6142e4604083018461410f565b949350505050565b60006142f782614165565b9050919050565b614307816142ec565b82525050565b600060208201905061432260008301846142fe565b92915050565b60006020828403121561433e5761433d61402d565b5b600061434c8482850161404e565b91505092915050565b600061436082614165565b9050919050565b61437081614355565b82525050565b600060208201905061438b6000830184614367565b92915050565b600080604083850312156143a8576143a761402d565b5b60006143b68582860161404e565b92505060206143c78582860161404e565b9150509250929050565b7f4e487b7100000000000000000000000000000000000000000000000000000000600052602260045260246000fd5b6000600282049050600182168061441857607f821691505b6020821081141561442c5761442b6143d1565b5b50919050565b7f217661756c740000000000000000000000000000000000000000000000000000600082015250565b6000614468600683613f73565b915061447382614432565b602082019050919050565b600060208201905081810360008301526144978161445b565b9050919050565b6000815190506144ad8161406d565b92915050565b6000602082840312156144c9576144c861402d565b5b60006144d78482850161449e565b91505092915050565b7f4e487b7100000000000000000000000000000000000000000000000000000000600052601160045260246000fd5b600061451a82614063565b915061452583614063565b9250827fffffffffffffffffffffffffffffffffffffffffffffffffffffffffffffffff0382111561455a576145596144e0565b5b828201905092915050565b7f45524332303a207472616e7366657220616d6f756e742065786365656473206160008201527f6c6c6f77616e6365000000000000000000000000000000000000000000000000602082015250565b60006145c1602883613f73565b91506145cc82614565565b604082019050919050565b600060208201905081810360008301526145f0816145b4565b9050919050565b6000819050919050565b600061461c614617614612846145f7565b614139565b614063565b9050919050565b61462c81614601565b82525050565b60006040820190506146476000830185614623565b6146546020830184614623565b9392505050565b6000806000606084860312156146745761467361402d565b5b60006146828682870161449e565b93505060206146938682870161449e565b92505060406146a48682870161449e565b9150509250925092565b7f46544d0000000000000000000000000000000000000000000000000000000000600082015250565b60006146e4600383613f73565b91506146ef826146ae565b602082019050919050565b7f5553444300000000000000000000000000000000000000000000000000000000600082015250565b6000614730600483613f73565b915061473b826146fa565b602082019050919050565b6000604082019050818103600083015261475f816146d7565b9050818103602083015261477281614723565b9050919050565b600080fd5b7f4e487b7100000000000000000000000000000000000000000000000000000000600052604160045260246000fd5b6147b682613fb7565b810181811067ffffffffffffffff821117156147d5576147d461477e565b5b80604052505050565b60006147e8614023565b90506147f482826147ad565b919050565b60006060828403121561480f5761480e614779565b5b61481960606147de565b905060006148298482850161449e565b600083015250602061483d8482850161449e565b60208301525060406148518482850161449e565b60408301525092915050565b6000606082840312156148735761487261402d565b5b6000614881848285016147f9565b91505092915050565b600061489582614063565b91506148a083614063565b9250817fffffffffffffffffffffffffffffffffffffffffffffffffffffffffffffffff04831182151516156148d9576148d86144e0565b5b828202905092915050565b7f4e487b7100000000000000000000000000000000000000000000000000000000600052601260045260246000fd5b600061491e82614063565b915061492983614063565b925082614939576149386148e4565b5b828204905092915050565b7f45524332303a2064656372656173656420616c6c6f77616e63652062656c6f7760008201527f207a65726f000000000000000000000000000000000000000000000000000000602082015250565b60006149a0602583613f73565b91506149ab82614944565b604082019050919050565b600060208201905081810360008301526149cf81614993565b9050919050565b7f45524332303a20617070726f76652066726f6d20746865207a65726f2061646460008201527f7265737300000000000000000000000000000000000000000000000000000000602082015250565b6000614a32602483613f73565b9150614a3d826149d6565b604082019050919050565b60006020820190508181036000830152614a6181614a25565b9050919050565b7f45524332303a20617070726f766520746f20746865207a65726f20616464726560008201527f7373000000000000000000000000000000000000000000000000000000000000602082015250565b6000614ac4602283613f73565b9150614acf82614a68565b604082019050919050565b60006020820190508181036000830152614af381614ab7565b9050919050565b6000604082019050614b0f6000830185613f3e565b614b1c602083018461410f565b9392505050565b614b2c816140d9565b8114614b3757600080fd5b50565b600081519050614b4981614b23565b92915050565b600060208284031215614b6557614b6461402d565b5b6000614b7384828501614b3a565b91505092915050565b7f4e487b7100000000000000000000000000000000000000000000000000000000600052603260045260246000fd5b600081519050919050565b600082825260208201905092915050565b6000819050602082019050919050565b614be081613f2c565b82525050565b6000614bf28383614bd7565b60208301905092915050565b6000602082019050919050565b6000614c1682614bab565b614c208185614bb6565b9350614c2b83614bc7565b8060005b83811015614c5c578151614c438882614be6565b9750614c4e83614bfe565b925050600181019050614c2f565b5085935050505092915050565b60006020820190508181036000830152614c838184614c0b565b905092915050565b600080fd5b600067ffffffffffffffff821115614cab57614caa61477e565b5b602082029050602081019050919050565b600080fd5b6000614cd4614ccf84614c90565b6147de565b90508083825260208201905060208402830185811115614cf757614cf6614cbc565b5b835b81811015614d205780614d0c888261449e565b845260208401935050602081019050614cf9565b5050509392505050565b600082601f830112614d3f57614d3e614c8b565b5b8151614d4f848260208601614cc1565b91505092915050565b600060208284031215614d6e57614d6d61402d565b5b600082015167ffffffffffffffff811115614d8c57614d8b614032565b5b614d9884828501614d2a565b91505092915050565b600060a082019050614db6600083018861410f565b614dc36020830187614623565b8181036040830152614dd58186614c0b565b9050614de46060830185613f3e565b614df1608083018461410f565b9695505050505050565b6000819050919050565b6000614e20614e1b614e1684614dfb565b614139565b614063565b9050919050565b614e3081614e05565b82525050565b600061010082019050614e4c600083018b613f3e565b614e59602083018a613f3e565b614e66604083018961410f565b614e73606083018861410f565b614e806080830187614e27565b614e8d60a0830186614e27565b614e9a60c0830185613f3e565b614ea760e083018461410f565b9998505050505050505050565b6000604082019050614ec96000830185614623565b614ed6602083018461410f565b9392505050565b7f45524332303a207472616e736665722066726f6d20746865207a65726f20616460008201527f6472657373000000000000000000000000000000000000000000000000000000602082015250565b6000614f39602583613f73565b9150614f4482614edd565b604082019050919050565b60006020820190508181036000830152614f6881614f2c565b9050919050565b7f45524332303a207472616e7366657220746f20746865207a65726f206164647260008201527f6573730000000000000000000000000000000000000000000000000000000000602082015250565b6000614fcb602383613f73565b9150614fd682614f6f565b604082019050919050565b60006020820190508181036000830152614ffa81614fbe565b9050919050565b7f45524332303a207472616e7366657220616d6f756e742065786365656473206260008201527f616c616e63650000000000000000000000000000000000000000000000000000602082015250565b600061505d602683613f73565b915061506882615001565b604082019050919050565b6000602082019050818103600083015261508c81615050565b9050919050565b600061509e82614063565b91506150a983614063565b9250828210156150bc576150bb6144e0565b5b828203905092915050565b7f45524332303a206d696e7420746f20746865207a65726f206164647265737300600082015250565b60006150fd601f83613f73565b9150615108826150c7565b602082019050919050565b6000602082019050818103600083015261512c816150f0565b9050919050565b600060e082019050615148600083018a613f3e565b6151556020830189613f3e565b615162604083018861410f565b61516f6060830187614e27565b61517c6080830186614e27565b61518960a0830185613f3e565b61519660c083018461410f565b98975050505050505050565b600080604083850312156151b9576151b861402d565b5b60006151c78582860161449e565b92505060206151d88582860161449e565b9150509250929050565b7f45524332303a206275726e2066726f6d20746865207a65726f2061646472657360008201527f7300000000000000000000000000000000000000000000000000000000000000602082015250565b600061523e602183613f73565b9150615249826151e2565b604082019050919050565b6000602082019050818103600083015261526d81615231565b9050919050565b7f45524332303a206275726e20616d6f756e7420657863656564732062616c616e60008201527f6365000000000000000000000000000000000000000000000000000000000000602082015250565b60006152d0602283613f73565b91506152db82615274565b604082019050919050565b600060208201905081810360008301526152ff816152c3565b905091905056fea2646970667358221220bae4215de37e226d2a4192b7de6e318901921b2fc1303553960feca4a49e8bf564736f6c634300080a0033",
  "immutableReferences": {
    "1842": [
      {
        "length": 32,
        "start": 4798
      },
      {
        "length": 32,
        "start": 10455
      },
      {
        "length": 32,
        "start": 11037
      },
      {
        "length": 32,
        "start": 14534
      }
    ],
    "1845": [
      {
        "length": 32,
        "start": 3934
      },
      {
        "length": 32,
        "start": 4328
      },
      {
        "length": 32,
        "start": 6839
      }
    ],
    "1848": [
      {
        "length": 32,
        "start": 3344
      },
      {
        "length": 32,
        "start": 4098
      },
      {
        "length": 32,
        "start": 14720
      }
    ],
    "1851": [
      {
        "length": 32,
        "start": 2873
      },
      {
        "length": 32,
        "start": 3183
      },
      {
        "length": 32,
        "start": 4456
      },
      {
        "length": 32,
        "start": 7015
      },
      {
        "length": 32,
        "start": 15349
      },
      {
        "length": 32,
        "start": 15480
      }
    ]
  },
  "source": "pragma solidity ^0.8.10; \npragma abicoder v2;  \n\nimport \"../DjinnBottleUSDC.sol\"; \nimport \"../interfaces/CTokenInterfaces.sol\"; \nimport \"../interfaces/ComptrollerInterface.sol\";  \nimport \"../interfaces/IStdReference.sol\"; \nimport \"@uniswap/v2-periphery/contracts/interfaces/IUniswapV2Router02.sol\"; \nimport \"../interfaces/IMasterChef.sol\"; \nimport \"@openzeppelin/contracts/token/ERC20/IERC20.sol\"; \n\n\ncontract ShortFarmFTM is ERC20 {\n\t\n\t//Contract Specifics \n\taddress public creator; \n\tuint private constant CREATOR_FEE = 100; //1% \n\tDjinnBottleUSDC public VAULT; \n\n\tmapping(address => uint) public depositBalance;\n\tuint public ass; \n\tuint public balls; \n\tuint public cocks; \n\t//Cream Finance Contracts \n\taddress public constant crUSDC = 0x328A7b4d538A2b3942653a9983fdA3C12c571141; \n\n\t//Public Tokens\n\taddress public constant USDC = 0x04068DA6C83AFCFA0e13ba15A6696662335D5B75; \n\taddress public constant WFTM = 0x21be370D5312f44cB42ce377BC9b8a0cEF1A4C83; \n\taddress public constant TOMB = 0x6c021Ae822BEa943b2E66552bDe1D2696a53fbB7; \n\taddress public constant TSHARE = 0x4cdF39285D7Ca8eB3f090fDA0C069ba5F4145B37; \n\t\n\t//SpookySwap Router, LP, TSHAREPool \n\taddress public constant spookyAddress = 0xF491e7B69E4244ad4002BC14e878a34207E38c29;\t\t\n\taddress public constant spookyFtmTombLP = 0x2A651563C9d3Af67aE0388a5c8F89b867038089e; \n\taddress public constant tShareRewardPool = 0xcc0a87F7e7c693042a9Cc703661F5060c80ACb43; \n\n\n\t//Contract Interfaces  \n\tIUniswapV2Router02 public immutable spookyRouter; \n\tComptrollerInterface public immutable comptroller; \n\tIStdReference public immutable priceOracle;\n\tCERC20 public immutable crWFTM; \t\n\t\n\n\n\tconstructor(DjinnBottleUSDC _djBottle, \t\n\t\t\t\tIUniswapV2Router02 _spookyRouter, \n\t\t\t\tComptrollerInterface _comptroller, \n\t\t\t\tIStdReference _priceOracle,\n\t\t\t\tCERC20 _cERC20) ERC20(\"Djinn FTM Short Farm\", \"dFTMShort\") {\n\t\t\t\t\taddress creator = msg.sender;\n\t\t\t\t\tVAULT = _djBottle; \n\t\t\t\t\tspookyRouter = _spookyRouter; \n\t\t\t\t\tcomptroller = _comptroller;  \n\t\t\t\t\tpriceOracle = _priceOracle; \n\t\t\t\t\tcrWFTM = _cERC20; \n\t\t\t\t}\n\t\n\t//automate opening a position\n\t//designed for single user ie. user opens via vault contract \t\n\tfunction open(address user, uint amount) external {\n\t\trequire(msg.sender == address(VAULT), \"!vault\"); \n\t\tborrow(user, amount); //same amount in USDC to keep track of how many tokens we have supplied \n\t\tswap(); //swap half of bal to TOMB and unwrap the rest to FTM \n\t\tgetLPTokens(); //get FTM-TOMB LP tokens \t\n\t\tdepositLPGetTShare(); //deposit LP tokens on TOMB to earn TSHARE\n\t}\n\n\t//automate the harvest \n\tfunction harvest() external {\n\t\trequire(msg.sender == address(VAULT), \"!vault\"); \n\t\tIMasterChef(tShareRewardPool).deposit(0, 0); //0 is poolId and we call a deposit of 0 to allocate the shares to this contract\n\t\tsellAndSwap(); //sell tshare for 50% TOMB 50% WFTM \n\t\tgetLPTokens(); \n\t\tdepositLPGetTShare(); \n\t}\n\t\n\t//automate the closing of the position\n\t//designed for single use ie. user closes via vault contract \t\n\t//so we need to vault contract to determine how many tokens belong to the user from this contract \n\tfunction close(address user, uint amountShares) external {\n\t\trequire(msg.sender == address(VAULT), \"!vault\"); \n\t\t//swap all LP tokens back to underlying \n\t\tswapAndWithdraw(user, amountShares);   \n\t}\n\n\t//this function can be called by anyone if they notice that the vault needs to be rebalanced to avoid being liquidated \n\tfunction rebalance() external {\n\t\t//get how much we have deposited by getting the underyling\n\t\tuint underlyingAmount = getUnderlying(); \n\t\t\n\t\tuint borrowBalance = crWFTM.borrowBalanceCurrent(address(this)); \n\t\tuint borrowPercent = (borrowBalance * 100) / underlyingAmount; \n\t\tuint maxSafePercent = (underlyingAmount * 75) / 100; //the reserve factor for the underlying  \n\t\tuint maxBorrowVault = (maxSafePercent * 85) / 100; //85% of reserve factor  \n\t\tuint borrowMoreTrigger = (maxSafePercent * 65) / 100; //borrow more when the vaults USD amount is == 60% of reserve factor   \n\t\t\n\t\t//check how the vault's current underlying percent comapres to the rabalance range 60-85% of borrow \n\t\tif (borrowPercent >= maxSafePercent) {\n\t\t\t//repay 10% of loan  \n\t\t} else if (borrowPercent <= borrowMoreTrigger) {\n\t\t\t//borrow 10% more  \n\t\t} \n\n\t\t//do nothing \n\t}\n\t\n\t//next we borrow WTFM from cream <= 75% so we don't get liquidated\n\t//cream allows for 75% collateral on deposits of USDC, but this 75% is on the 75% \n\t//so we are effectively borrowing ~55% of our deposit amount, which leaves room to the upside  \t\t\n\tfunction borrow(address user, uint amount) internal {\n\t\t//store user balance for withdraw later \n\t\tdepositBalance[user] = amount; \n\n\t\t//first we supply USDC\n\t\tIERC20(USDC).approve(crUSDC, amount);  \n\t\tCERC20(crUSDC).mint(amount); \n\t\t\n\t\t//we enter the marker to use usdc as collateral \t\n\t\taddress[] memory cTokenSupplied = new address[](1); \n\t\tcTokenSupplied[0] = crUSDC; //cToken address\n\t\tcomptroller.enterMarkets(cTokenSupplied); \n\t\t\n\t\t//get max borrow && borrow  \n\t\t( ,uint borrowAmount, ) = getBorrowAmount();\n\t\tcrWFTM.borrow(borrowAmount);  \n\t\t\n\t}\n\n\tfunction getBorrowAmount() public view returns(uint liquidity, uint borrowAmount, uint price) {\n\t\t(, liquidity,) = comptroller.getAccountLiquidity(address(this)); \n\t\tIStdReference.ReferenceData memory data = priceOracle.getReferenceData(\"FTM\", \"USDC\"); \n\t\tprice = data.rate; \n\t\tuint maxTokenBorrow = (liquidity * 10**18) / price; //wFTM has 18 decimals   \t\n\t\tborrowAmount = (maxTokenBorrow * 75) / 100; //this is token amount  \n\t\treturn (liquidity, borrowAmount, price); \n\t}\n\n\tfunction vaultBalance() public returns(uint) {\n\t\tuint vault = IERC20(USDC).balanceOf(address(VAULT)); \n\t\tuint underlying = getUnderlying(); \n\t\tuint total = vault + underlying; \n\t\treturn total; \n\t}\n\n\t//where amount is the percentage of LP tokens relative to the users USDC amount in vault \n\tfunction swapAndWithdraw(address user, uint amountShares) internal {\n\n\t\tuint strategyBalance = IERC20(address(this)).balanceOf(address(this)); //18 decimals \n\t\tuint pool = vaultBalance(); //6 decimals \n\t\tuint totalShares = IERC20(address(VAULT)).totalSupply(); //6 decimals \n\n\t\tuint amountPerShare = (strategyBalance / pool);\n\t\tuint percentLP = amountPerShare * amountShares; //returns WAD scaled LP balance\n\t\t\n\t\t//handle rounding error case on big withdraw \n\t\tif (percentLP > strategyBalance) {\n\t\t\tpercentLP = strategyBalance; \n\t\t}\n\n\t\t//we first withdraw the LP tokens from TOMB  \n\t\t//we have to check the balances before and after the withdrawl in case there are leftovers \n\t\tuint amountBefore = IERC20(spookyFtmTombLP).balanceOf(address(this)); \n\t\tIMasterChef(tShareRewardPool).withdraw(0, percentLP);  \n\t\tuint amountAfter = IERC20(spookyFtmTombLP).balanceOf(address(this)); \n\t\tuint lpTokenAmount = amountAfter - amountBefore; \n\n\t\t//idr why I had this here? \n\t\tdepositBalance[user] = amountShares;\t\t\n\t\t//put this bitch in quarantine \n\n\t\tremoveLiq(user, lpTokenAmount); \n\t}\n\n\tfunction removeLiq(address user, uint lpTokenAmount) internal {\t\t \n\t\t//we remove liquidity belonging to the user(amount) back for tomb + wftm \n\t\tIERC20(spookyFtmTombLP).approve(spookyAddress, lpTokenAmount); \n\t\t(uint amountWftm, uint amountTomb) = IUniswapV2Router02(spookyAddress).removeLiquidity(\n\t\t\tWFTM,\n\t\t\tTOMB, \n\t\t\tlpTokenAmount,\n\t\t   \t1,\n\t\t   \t1,\n\t\t   \taddress(this),\n\t\t   \tblock.timestamp + 30\n\t\t); \n\n\t\t_burn(address(this), lpTokenAmount); \n\t\t//next step\t\n\t\tswapBack(user, amountWftm, amountTomb); \n\t}\n\n\tfunction getUnderlying() public returns(uint) {\n\t\treturn CERC20(crUSDC).balanceOfUnderlying(address(this)); //this returns the underlying USDC amount in 6 decimals \n\t}\n\t\n\tfunction borrowBalance() public returns(uint) {\n\t\treturn crWFTM.borrowBalanceCurrent(address(this)); \n\t}\n\n\tfunction swapBack(address user, uint amountWftm, uint amountTomb) internal {\n\t\t//now we swap tomb back for wftm\n\t\t//only need to approve TOMB because wftm is not being swapped \n\t\tIERC20(TOMB).approve(spookyAddress, amountTomb); \n\t\taddress[] memory path = new address[](2); \n\t\tpath[0] = TOMB; \n\t\tpath[1] = WFTM; \n\t\tuint[] memory amounts = spookyRouter.swapExactTokensForTokens(\n\t\t\tamountTomb,\n\t\t\t0,\n\t\t\tpath,\n\t\t\taddress(this),\n\t\t\tblock.timestamp + 30\n\t\t);\n\n\t\tIStdReference.ReferenceData memory data = priceOracle.getReferenceData(\"FTM\", \"USDC\"); \t\t\n\t\tuint amountToRepay = amountWftm + amounts[0]; //amount from removing liq + amount from swap in token \n\t\tuint holding = IERC20(WFTM).balanceOf(address(this)); \n\t\t\n\t\tass = amountToRepay; \n\n\t\tif (amountToRepay >= holding) {\n\t\t\tamountToRepay = holding; \n\t\t}\t\n\n\t\tuint dollarAmount = (amountToRepay / 1e18) * (data.rate / 1e18) * 1e6; //token price in USDC for amount of wftm   \n\t\tuint diff  = depositBalance[user] - dollarAmount; //share amount - LP token amount = diff  \n\n\t\t\n\t\t//deposit balance is share amount  \n\t\tuint initial = diff + dollarAmount;  \n\t\tuint fee = (initial * CREATOR_FEE) / 10000;\n\t\tuint redeemAmount = initial - fee; \n\t\t\n\t\tballs = redeemAmount; \n\n\t\t//now we can repay our users borrow\n\t   \t//need to convert wftm token amount to dollar amount \n\t\tIERC20(WFTM).approve(address(crWFTM), amountToRepay); //this is wftm token amount  \n\t\tcrWFTM.repayBorrow(amountToRepay); \n\n\n\t\t//creamUSDC balance redeem\n\t\tuint beforeBalance = IERC20(USDC).balanceOf(address(this)); \n\t\tif (redeemAmount >= getUnderlying()) {\n\t\t\tredeemAmount = getUnderlying();\n\t\t}\n\t\t\n\t\t//have to cheat a bit due to all the dust if one person is in farm, they won't be able to withdraw unless we\n\t\t//charge the fee here to allow them to withdraw less than is in account   \t\n\t\tCERC20(crUSDC).redeemUnderlying(balls); \n\t\t\n\t\t//get usdc balance after redeem \n\t\tuint afterBalance = IERC20(USDC).balanceOf(address(this));\n\t\tuint sendAmount\t= afterBalance - beforeBalance; //check for difference to send correct amount \n\t\t\n\t\tcocks = sendAmount; \n\n//\t\tIERC20(USDC).transfer(address(VAULT), sendAmount);  \n\t}\n\n\t//then we send the funds to spookyswap where we sell 50% to tomb and then unwrap the rest \n\tfunction swap() internal { \n\t\t//swap 50% to TOMB & approve \n\t\tuint half = IERC20(WFTM).balanceOf(address(this)) * 50 / 100; \n\t\tIERC20(WFTM).approve(spookyAddress, half);\n\t\n \n         address[] memory path = new address[](2);\n         path[0] = WFTM;\n         path[1] = TOMB;\n         IUniswapV2Router02(spookyAddress).swapExactTokensForTokens(\n             half,\n             0,\n             path,\n             address(this),\n             block.timestamp\n\t\t ); \n\t }\n\n\tfunction sellAndSwap() internal {\n\t\t(uint tombBefore, uint wftmBefore) = getIERC20Balance(); \n\n\t\tuint half = IERC20(TSHARE).balanceOf(address(this)) * 50 / 100;   \n\t\taddress[] memory pathToTomb = new address[](3); \n\t\tpathToTomb[0] = TSHARE;  \n\t\tpathToTomb[1] = WFTM; \n\t\tpathToTomb[2] = TOMB; \n\t\tspookyRouter.swapExactTokensForTokensSupportingFeeOnTransferTokens(\n\t\t\thalf,\n\t\t\t0,\n\t\t\tpathToTomb,\n\t\t\taddress(this),\n\t\t\tblock.timestamp + 30\n\t\t); \n\n\t\t//swap rest to WFTM \n\t\tuint rest = IERC20(TSHARE).balanceOf(address(this)); \n\t\taddress[] memory pathToWftm = new address[](2); \n\t\tpathToWftm[0] = TSHARE; \n\t\tpathToWftm[1] = WFTM; \n\t\tspookyRouter.swapExactTokensForTokensSupportingFeeOnTransferTokens(\n\t\t\trest,\n\t\t\t0,\n\t\t\tpathToWftm,\n\t\t\taddress(this),\n\t\t\tblock.timestamp + 30\n\t\t); \n\t\t\n\t\t(uint tombAfter, uint wftmAfter) = getIERC20Balance(); \t\n\t\tuint tombToSend = tombAfter - tombBefore; \n\t\tuint wftmToSend = wftmAfter - wftmBefore; \n\t\t\n\t\t//charge the fees here\n\t\tuint feeAmountTomb = chargeFeesOnHarvest(tombToSend); \t\n\t\tuint feeAmountWftm = chargeFeesOnHarvest(wftmToSend);\n\t\tIERC20(TOMB).transfer(address(VAULT), feeAmountTomb); \n\t\tIERC20(WFTM).transfer(address(VAULT), feeAmountWftm); \t\n\t}\n\n\tfunction getLPTokens() internal {\n\t\t//we need to approve the router to spend our TOMB\n\t\tuint tombAmount = IERC20(TOMB).balanceOf(address(this)); \n\t\tuint ftmAmount = IERC20(WFTM).balanceOf(address(this));  \n\n\t\t//now we add liquidity \n\t\t//@params token, tokenAmount, minToken, minETH, to, deadline\n\t\tIERC20(TOMB).approve(spookyAddress, tombAmount); \n\t\tIERC20(WFTM).approve(spookyAddress, ftmAmount); \n\t\tIUniswapV2Router02(spookyAddress).addLiquidity(TOMB, WFTM, tombAmount, ftmAmount, 1, 1, address(this), block.timestamp + 30); \n\t}\n\n\tfunction depositLPGetTShare() internal {\n\t\t//deposit into tshare vault using _pid but idk how to get that currently \t\n\t\tuint lpTokenBalance = IERC20(spookyFtmTombLP).balanceOf(address(this)); \n\n\t\t_mint(address(this), lpTokenBalance); \n\n\t\t//after this deposit the contract should be earning tshares as a reward \n\t\tIERC20(spookyFtmTombLP).approve(tShareRewardPool, lpTokenBalance); \n\t\tIMasterChef(tShareRewardPool).deposit(0, lpTokenBalance); //FTM-TOMB pool ID is 0 on Tomb.finance  \n\t}\n\n\tfunction chargeFeesOnHarvest(uint amount) internal view returns(uint feeAmount) {\n\t\treturn feeAmount = amount * (CREATOR_FEE / 10000) * 100; //0.1 or 1% \n\t}\n\n\tfunction getIERC20Balance() internal view returns(uint amountTomb, uint amountWftm) {\n\t\tamountTomb = IERC20(TOMB).balanceOf(address(this)); \n\t\tamountWftm = IERC20(WFTM).balanceOf(address(this)); \n\t\treturn (amountTomb, amountWftm); \n\t}\n\n\treceive() external payable{} \n\t\n} \n",
  "sourcePath": "/home/kevin/Code/solidity_projects/djinn/contracts/strategies/ShortFarmFTM.sol",
  "compiler": {
    "name": "solc",
    "version": "0.8.10+commit.fc410830.Emscripten.clang"
  },
  "schemaVersion": "3.4.3",
  "updatedAt": "2022-02-16T13:54:34.457Z",
  "networkType": "ethereum",
  "devdoc": {
    "kind": "dev",
    "methods": {
      "allowance(address,address)": {
        "details": "See {IERC20-allowance}."
      },
      "approve(address,uint256)": {
        "details": "See {IERC20-approve}. Requirements: - `spender` cannot be the zero address."
      },
      "balanceOf(address)": {
        "details": "See {IERC20-balanceOf}."
      },
      "decimals()": {
        "details": "Returns the number of decimals used to get its user representation. For example, if `decimals` equals `2`, a balance of `505` tokens should be displayed to a user as `5.05` (`505 / 10 ** 2`). Tokens usually opt for a value of 18, imitating the relationship between Ether and Wei. This is the value {ERC20} uses, unless this function is overridden; NOTE: This information is only used for _display_ purposes: it in no way affects any of the arithmetic of the contract, including {IERC20-balanceOf} and {IERC20-transfer}."
      },
      "decreaseAllowance(address,uint256)": {
        "details": "Atomically decreases the allowance granted to `spender` by the caller. This is an alternative to {approve} that can be used as a mitigation for problems described in {IERC20-approve}. Emits an {Approval} event indicating the updated allowance. Requirements: - `spender` cannot be the zero address. - `spender` must have allowance for the caller of at least `subtractedValue`."
      },
      "increaseAllowance(address,uint256)": {
        "details": "Atomically increases the allowance granted to `spender` by the caller. This is an alternative to {approve} that can be used as a mitigation for problems described in {IERC20-approve}. Emits an {Approval} event indicating the updated allowance. Requirements: - `spender` cannot be the zero address."
      },
      "name()": {
        "details": "Returns the name of the token."
      },
      "symbol()": {
        "details": "Returns the symbol of the token, usually a shorter version of the name."
      },
      "totalSupply()": {
        "details": "See {IERC20-totalSupply}."
      },
      "transfer(address,uint256)": {
        "details": "See {IERC20-transfer}. Requirements: - `recipient` cannot be the zero address. - the caller must have a balance of at least `amount`."
      },
      "transferFrom(address,address,uint256)": {
        "details": "See {IERC20-transferFrom}. Emits an {Approval} event indicating the updated allowance. This is not required by the EIP. See the note at the beginning of {ERC20}. Requirements: - `sender` and `recipient` cannot be the zero address. - `sender` must have a balance of at least `amount`. - the caller must have allowance for ``sender``'s tokens of at least `amount`."
      }
    },
    "version": 1
  },
  "userdoc": {
    "kind": "user",
    "methods": {},
    "version": 1
  }
}