{
  "contractName": "ShortFarmFTM",
  "abi": [
    {
      "inputs": [
        {
          "internalType": "contract DjinnBottleUSDC",
          "name": "_djBottle",
          "type": "address"
        },
        {
          "internalType": "contract IUniswapV2Router02",
          "name": "_spookyRouter",
          "type": "address"
        },
        {
          "internalType": "contract ComptrollerInterface",
          "name": "_comptroller",
          "type": "address"
        },
        {
          "internalType": "contract IStdReference",
          "name": "_priceOracle",
          "type": "address"
        }
      ],
      "stateMutability": "nonpayable",
      "type": "constructor"
    },
    {
      "anonymous": false,
      "inputs": [
        {
          "indexed": true,
          "internalType": "address",
          "name": "owner",
          "type": "address"
        },
        {
          "indexed": true,
          "internalType": "address",
          "name": "spender",
          "type": "address"
        },
        {
          "indexed": false,
          "internalType": "uint256",
          "name": "value",
          "type": "uint256"
        }
      ],
      "name": "Approval",
      "type": "event"
    },
    {
      "anonymous": false,
      "inputs": [
        {
          "indexed": true,
          "internalType": "address",
          "name": "from",
          "type": "address"
        },
        {
          "indexed": true,
          "internalType": "address",
          "name": "to",
          "type": "address"
        },
        {
          "indexed": false,
          "internalType": "uint256",
          "name": "value",
          "type": "uint256"
        }
      ],
      "name": "Transfer",
      "type": "event"
    },
    {
      "inputs": [],
      "name": "TOMB",
      "outputs": [
        {
          "internalType": "address",
          "name": "",
          "type": "address"
        }
      ],
      "stateMutability": "view",
      "type": "function",
      "constant": true
    },
    {
      "inputs": [],
      "name": "TSHARE",
      "outputs": [
        {
          "internalType": "address",
          "name": "",
          "type": "address"
        }
      ],
      "stateMutability": "view",
      "type": "function",
      "constant": true
    },
    {
      "inputs": [],
      "name": "USDC",
      "outputs": [
        {
          "internalType": "address",
          "name": "",
          "type": "address"
        }
      ],
      "stateMutability": "view",
      "type": "function",
      "constant": true
    },
    {
      "inputs": [],
      "name": "VAULT",
      "outputs": [
        {
          "internalType": "contract DjinnBottleUSDC",
          "name": "",
          "type": "address"
        }
      ],
      "stateMutability": "view",
      "type": "function",
      "constant": true
    },
    {
      "inputs": [],
      "name": "WFTM",
      "outputs": [
        {
          "internalType": "address",
          "name": "",
          "type": "address"
        }
      ],
      "stateMutability": "view",
      "type": "function",
      "constant": true
    },
    {
      "inputs": [
        {
          "internalType": "address",
          "name": "owner",
          "type": "address"
        },
        {
          "internalType": "address",
          "name": "spender",
          "type": "address"
        }
      ],
      "name": "allowance",
      "outputs": [
        {
          "internalType": "uint256",
          "name": "",
          "type": "uint256"
        }
      ],
      "stateMutability": "view",
      "type": "function",
      "constant": true
    },
    {
      "inputs": [
        {
          "internalType": "address",
          "name": "spender",
          "type": "address"
        },
        {
          "internalType": "uint256",
          "name": "amount",
          "type": "uint256"
        }
      ],
      "name": "approve",
      "outputs": [
        {
          "internalType": "bool",
          "name": "",
          "type": "bool"
        }
      ],
      "stateMutability": "nonpayable",
      "type": "function"
    },
    {
      "inputs": [],
      "name": "ass",
      "outputs": [
        {
          "internalType": "uint256",
          "name": "",
          "type": "uint256"
        }
      ],
      "stateMutability": "view",
      "type": "function",
      "constant": true
    },
    {
      "inputs": [
        {
          "internalType": "address",
          "name": "account",
          "type": "address"
        }
      ],
      "name": "balanceOf",
      "outputs": [
        {
          "internalType": "uint256",
          "name": "",
          "type": "uint256"
        }
      ],
      "stateMutability": "view",
      "type": "function",
      "constant": true
    },
    {
      "inputs": [],
      "name": "comptroller",
      "outputs": [
        {
          "internalType": "contract ComptrollerInterface",
          "name": "",
          "type": "address"
        }
      ],
      "stateMutability": "view",
      "type": "function",
      "constant": true
    },
    {
      "inputs": [],
      "name": "crUSDC",
      "outputs": [
        {
          "internalType": "address",
          "name": "",
          "type": "address"
        }
      ],
      "stateMutability": "view",
      "type": "function",
      "constant": true
    },
    {
      "inputs": [],
      "name": "crWFTM",
      "outputs": [
        {
          "internalType": "address",
          "name": "",
          "type": "address"
        }
      ],
      "stateMutability": "view",
      "type": "function",
      "constant": true
    },
    {
      "inputs": [],
      "name": "creator",
      "outputs": [
        {
          "internalType": "address",
          "name": "",
          "type": "address"
        }
      ],
      "stateMutability": "view",
      "type": "function",
      "constant": true
    },
    {
      "inputs": [],
      "name": "decimals",
      "outputs": [
        {
          "internalType": "uint8",
          "name": "",
          "type": "uint8"
        }
      ],
      "stateMutability": "view",
      "type": "function",
      "constant": true
    },
    {
      "inputs": [
        {
          "internalType": "address",
          "name": "spender",
          "type": "address"
        },
        {
          "internalType": "uint256",
          "name": "subtractedValue",
          "type": "uint256"
        }
      ],
      "name": "decreaseAllowance",
      "outputs": [
        {
          "internalType": "bool",
          "name": "",
          "type": "bool"
        }
      ],
      "stateMutability": "nonpayable",
      "type": "function"
    },
    {
      "inputs": [
        {
          "internalType": "address",
          "name": "",
          "type": "address"
        }
      ],
      "name": "depositBalance",
      "outputs": [
        {
          "internalType": "uint256",
          "name": "",
          "type": "uint256"
        }
      ],
      "stateMutability": "view",
      "type": "function",
      "constant": true
    },
    {
      "inputs": [
        {
          "internalType": "address",
          "name": "spender",
          "type": "address"
        },
        {
          "internalType": "uint256",
          "name": "addedValue",
          "type": "uint256"
        }
      ],
      "name": "increaseAllowance",
      "outputs": [
        {
          "internalType": "bool",
          "name": "",
          "type": "bool"
        }
      ],
      "stateMutability": "nonpayable",
      "type": "function"
    },
    {
      "inputs": [],
      "name": "name",
      "outputs": [
        {
          "internalType": "string",
          "name": "",
          "type": "string"
        }
      ],
      "stateMutability": "view",
      "type": "function",
      "constant": true
    },
    {
      "inputs": [],
      "name": "priceOracle",
      "outputs": [
        {
          "internalType": "contract IStdReference",
          "name": "",
          "type": "address"
        }
      ],
      "stateMutability": "view",
      "type": "function",
      "constant": true
    },
    {
      "inputs": [],
      "name": "spookyAddress",
      "outputs": [
        {
          "internalType": "address",
          "name": "",
          "type": "address"
        }
      ],
      "stateMutability": "view",
      "type": "function",
      "constant": true
    },
    {
      "inputs": [],
      "name": "spookyFtmTombLP",
      "outputs": [
        {
          "internalType": "address",
          "name": "",
          "type": "address"
        }
      ],
      "stateMutability": "view",
      "type": "function",
      "constant": true
    },
    {
      "inputs": [],
      "name": "spookyRouter",
      "outputs": [
        {
          "internalType": "contract IUniswapV2Router02",
          "name": "",
          "type": "address"
        }
      ],
      "stateMutability": "view",
      "type": "function",
      "constant": true
    },
    {
      "inputs": [],
      "name": "symbol",
      "outputs": [
        {
          "internalType": "string",
          "name": "",
          "type": "string"
        }
      ],
      "stateMutability": "view",
      "type": "function",
      "constant": true
    },
    {
      "inputs": [],
      "name": "tShareRewardPool",
      "outputs": [
        {
          "internalType": "address",
          "name": "",
          "type": "address"
        }
      ],
      "stateMutability": "view",
      "type": "function",
      "constant": true
    },
    {
      "inputs": [
        {
          "internalType": "address",
          "name": "",
          "type": "address"
        }
      ],
      "name": "tokenBorrowBalance",
      "outputs": [
        {
          "internalType": "uint256",
          "name": "",
          "type": "uint256"
        }
      ],
      "stateMutability": "view",
      "type": "function",
      "constant": true
    },
    {
      "inputs": [],
      "name": "totalSupply",
      "outputs": [
        {
          "internalType": "uint256",
          "name": "",
          "type": "uint256"
        }
      ],
      "stateMutability": "view",
      "type": "function",
      "constant": true
    },
    {
      "inputs": [
        {
          "internalType": "address",
          "name": "recipient",
          "type": "address"
        },
        {
          "internalType": "uint256",
          "name": "amount",
          "type": "uint256"
        }
      ],
      "name": "transfer",
      "outputs": [
        {
          "internalType": "bool",
          "name": "",
          "type": "bool"
        }
      ],
      "stateMutability": "nonpayable",
      "type": "function"
    },
    {
      "inputs": [
        {
          "internalType": "address",
          "name": "sender",
          "type": "address"
        },
        {
          "internalType": "address",
          "name": "recipient",
          "type": "address"
        },
        {
          "internalType": "uint256",
          "name": "amount",
          "type": "uint256"
        }
      ],
      "name": "transferFrom",
      "outputs": [
        {
          "internalType": "bool",
          "name": "",
          "type": "bool"
        }
      ],
      "stateMutability": "nonpayable",
      "type": "function"
    },
    {
      "stateMutability": "payable",
      "type": "receive",
      "payable": true
    },
    {
      "inputs": [
        {
          "internalType": "address",
          "name": "user",
          "type": "address"
        },
        {
          "internalType": "uint256",
          "name": "amount",
          "type": "uint256"
        }
      ],
      "name": "open",
      "outputs": [],
      "stateMutability": "nonpayable",
      "type": "function"
    },
    {
      "inputs": [],
      "name": "harvest",
      "outputs": [],
      "stateMutability": "nonpayable",
      "type": "function"
    },
    {
      "inputs": [
        {
          "internalType": "address",
          "name": "user",
          "type": "address"
        },
        {
          "internalType": "uint256",
          "name": "amountShares",
          "type": "uint256"
        }
      ],
      "name": "close",
      "outputs": [],
      "stateMutability": "nonpayable",
      "type": "function"
    },
    {
      "inputs": [],
      "name": "rebalance",
      "outputs": [],
      "stateMutability": "nonpayable",
      "type": "function"
    },
    {
      "inputs": [],
      "name": "getBorrowAmount",
      "outputs": [
        {
          "internalType": "uint256",
          "name": "liquidity",
          "type": "uint256"
        },
        {
          "internalType": "uint256",
          "name": "borrowAmount",
          "type": "uint256"
        },
        {
          "internalType": "uint256",
          "name": "price",
          "type": "uint256"
        }
      ],
      "stateMutability": "view",
      "type": "function",
      "constant": true
    },
    {
      "inputs": [],
      "name": "getUnderlying",
      "outputs": [
        {
          "internalType": "uint256",
          "name": "",
          "type": "uint256"
        }
      ],
      "stateMutability": "nonpayable",
      "type": "function"
    },
    {
      "inputs": [],
      "name": "borrowBalance",
      "outputs": [
        {
          "internalType": "uint256",
          "name": "",
          "type": "uint256"
        }
      ],
      "stateMutability": "nonpayable",
      "type": "function"
    },
    {
      "inputs": [],
      "name": "tshareBalance",
      "outputs": [
        {
          "internalType": "uint256",
          "name": "",
          "type": "uint256"
        }
      ],
      "stateMutability": "view",
      "type": "function",
      "constant": true
    }
  ],
  "bytecode": "0x60e06040523480156200001157600080fd5b5060405162006394380380620063948339818101604052810190620000379190620003c1565b6040518060400160405280601481526020017f446a696e6e2046544d2053686f7274204661726d0000000000000000000000008152506040518060400160405280600981526020017f6446544d53686f727400000000000000000000000000000000000000000000008152508160039080519060200190620000bb929190620001c4565b508060049080519060200190620000d4929190620001c4565b505050600033905084600660006101000a81548173ffffffffffffffffffffffffffffffffffffffff021916908373ffffffffffffffffffffffffffffffffffffffff1602179055508373ffffffffffffffffffffffffffffffffffffffff1660808173ffffffffffffffffffffffffffffffffffffffff16815250508273ffffffffffffffffffffffffffffffffffffffff1660a08173ffffffffffffffffffffffffffffffffffffffff16815250508173ffffffffffffffffffffffffffffffffffffffff1660c08173ffffffffffffffffffffffffffffffffffffffff1681525050505050505062000498565b828054620001d29062000462565b90600052602060002090601f016020900481019282620001f6576000855562000242565b82601f106200021157805160ff191683800117855562000242565b8280016001018555821562000242579182015b828111156200024157825182559160200191906001019062000224565b5b50905062000251919062000255565b5090565b5b808211156200027057600081600090555060010162000256565b5090565b600080fd5b600073ffffffffffffffffffffffffffffffffffffffff82169050919050565b6000620002a68262000279565b9050919050565b6000620002ba8262000299565b9050919050565b620002cc81620002ad565b8114620002d857600080fd5b50565b600081519050620002ec81620002c1565b92915050565b6000620002ff8262000299565b9050919050565b6200031181620002f2565b81146200031d57600080fd5b50565b600081519050620003318162000306565b92915050565b6000620003448262000299565b9050919050565b620003568162000337565b81146200036257600080fd5b50565b60008151905062000376816200034b565b92915050565b6000620003898262000299565b9050919050565b6200039b816200037c565b8114620003a757600080fd5b50565b600081519050620003bb8162000390565b92915050565b60008060008060808587031215620003de57620003dd62000274565b5b6000620003ee87828801620002db565b9450506020620004018782880162000320565b9350506040620004148782880162000365565b92505060606200042787828801620003aa565b91505092959194509250565b7f4e487b7100000000000000000000000000000000000000000000000000000000600052602260045260246000fd5b600060028204905060018216806200047b57607f821691505b6020821081141562000492576200049162000433565b5b50919050565b60805160a05160c051615e946200050060003960008181610c1201528181610eee0152612f5b015260008181610e4a01528181610fd40152611cfb01526000818161132d01528181612c8901528181612e6001528181613a3a015261474c0152615e946000f3fe6080604052600436106102135760003560e01c806370a08231116101185780639cdd8ee7116100a0578063b5ee45c11161006f578063b5ee45c1146107bc578063c139acfa146107e7578063dd62ed3e14610812578063e08c39881461084f578063e49280cb1461087a5761021a565b80639cdd8ee7146106ec578063a457c2d714610717578063a6f8d40514610754578063a9059cbb1461077f5761021a565b806389a30271116100e757806389a30271146106035780638ed8ea7e1461062e578063956501bb1461065957806395d89b41146106965780639816f473146106c15761021a565b806370a08231146105595780637d7c2a1c1461059657806382c70bbf146105ad578063844bbd5f146105d85761021a565b8063243cd14e1161019b578063395093511161016a5780633950935114610482578063411557d1146104bf5780634641257d146104ea5780634fbb30ed146105015780635fe3b5671461052e5761021a565b8063243cd14e146103d65780632630c12f146104015780632c1c18361461042c578063313ce567146104575761021a565b806310760616116101e257806310760616146102db57806318160ddd146103185780631882bf441461034357806321dbe8761461036e57806323b872dd146103995761021a565b806302d05d3f1461021f57806306fdde031461024a578063095ea7b3146102755780630a0e5c9d146102b25761021a565b3661021a57005b600080fd5b34801561022b57600080fd5b506102346108a3565b6040516102419190614ae1565b60405180910390f35b34801561025657600080fd5b5061025f6108c9565b60405161026c9190614b95565b60405180910390f35b34801561028157600080fd5b5061029c60048036038101906102979190614c2d565b61095b565b6040516102a99190614c88565b60405180910390f35b3480156102be57600080fd5b506102d960048036038101906102d49190614c2d565b610979565b005b3480156102e757600080fd5b5061030260048036038101906102fd9190614ca3565b610a2f565b60405161030f9190614cdf565b60405180910390f35b34801561032457600080fd5b5061032d610a47565b60405161033a9190614cdf565b60405180910390f35b34801561034f57600080fd5b50610358610a51565b6040516103659190614ae1565b60405180910390f35b34801561037a57600080fd5b50610383610a69565b6040516103909190614ae1565b60405180910390f35b3480156103a557600080fd5b506103c060048036038101906103bb9190614cfa565b610a81565b6040516103cd9190614c88565b60405180910390f35b3480156103e257600080fd5b506103eb610b79565b6040516103f89190614cdf565b60405180910390f35b34801561040d57600080fd5b50610416610c10565b6040516104239190614dac565b60405180910390f35b34801561043857600080fd5b50610441610c34565b60405161044e9190614ae1565b60405180910390f35b34801561046357600080fd5b5061046c610c4c565b6040516104799190614de3565b60405180910390f35b34801561048e57600080fd5b506104a960048036038101906104a49190614c2d565b610c55565b6040516104b69190614c88565b60405180910390f35b3480156104cb57600080fd5b506104d4610d01565b6040516104e19190614e1f565b60405180910390f35b3480156104f657600080fd5b506104ff610d27565b005b34801561050d57600080fd5b50610516610e43565b60405161052593929190614e3a565b60405180910390f35b34801561053a57600080fd5b50610543610fd2565b6040516105509190614e92565b60405180910390f35b34801561056557600080fd5b50610580600480360381019061057b9190614ca3565b610ff6565b60405161058d9190614cdf565b60405180910390f35b3480156105a257600080fd5b506105ab61103e565b005b3480156105b957600080fd5b506105c2611266565b6040516105cf9190614ae1565b60405180910390f35b3480156105e457600080fd5b506105ed61127e565b6040516105fa9190614cdf565b60405180910390f35b34801561060f57600080fd5b50610618611313565b6040516106259190614ae1565b60405180910390f35b34801561063a57600080fd5b5061064361132b565b6040516106509190614ece565b60405180910390f35b34801561066557600080fd5b50610680600480360381019061067b9190614ca3565b61134f565b60405161068d9190614cdf565b60405180910390f35b3480156106a257600080fd5b506106ab611367565b6040516106b89190614b95565b60405180910390f35b3480156106cd57600080fd5b506106d66113f9565b6040516106e39190614cdf565b60405180910390f35b3480156106f857600080fd5b50610701611490565b60405161070e9190614ae1565b60405180910390f35b34801561072357600080fd5b5061073e60048036038101906107399190614c2d565b6114a8565b60405161074b9190614c88565b60405180910390f35b34801561076057600080fd5b50610769611593565b6040516107769190614ae1565b60405180910390f35b34801561078b57600080fd5b506107a660048036038101906107a19190614c2d565b6115ab565b6040516107b39190614c88565b60405180910390f35b3480156107c857600080fd5b506107d16115c9565b6040516107de9190614ae1565b60405180910390f35b3480156107f357600080fd5b506107fc6115e1565b6040516108099190614ae1565b60405180910390f35b34801561081e57600080fd5b5061083960048036038101906108349190614ee9565b6115f9565b6040516108469190614cdf565b60405180910390f35b34801561085b57600080fd5b50610864611680565b6040516108719190614cdf565b60405180910390f35b34801561088657600080fd5b506108a1600480360381019061089c9190614c2d565b611686565b005b600560009054906101000a900473ffffffffffffffffffffffffffffffffffffffff1681565b6060600380546108d890614f58565b80601f016020809104026020016040519081016040528092919081815260200182805461090490614f58565b80156109515780601f1061092657610100808354040283529160200191610951565b820191906000526020600020905b81548152906001019060200180831161093457829003601f168201915b5050505050905090565b600061096f610968611724565b848461172c565b6001905092915050565b600660009054906101000a900473ffffffffffffffffffffffffffffffffffffffff1673ffffffffffffffffffffffffffffffffffffffff163373ffffffffffffffffffffffffffffffffffffffff1614610a09576040517f08c379a0000000000000000000000000000000000000000000000000000000008152600401610a0090614fd6565b60405180910390fd5b610a1382826118f7565b610a1b611ec6565b610a236121ce565b610a2b61251a565b5050565b60096020528060005260406000206000915090505481565b6000600254905090565b73d528697008ac67a21818751a5e3c58c8dae5469681565b7321be370d5312f44cb42ce377bc9b8a0cef1a4c8381565b6000610a8e8484846126e2565b6000600160008673ffffffffffffffffffffffffffffffffffffffff1673ffffffffffffffffffffffffffffffffffffffff1681526020019081526020016000206000610ad9611724565b73ffffffffffffffffffffffffffffffffffffffff1673ffffffffffffffffffffffffffffffffffffffff16815260200190815260200160002054905082811015610b59576040517f08c379a0000000000000000000000000000000000000000000000000000000008152600401610b5090615068565b60405180910390fd5b610b6d85610b65611724565b85840361172c565b60019150509392505050565b600073d528697008ac67a21818751a5e3c58c8dae5469673ffffffffffffffffffffffffffffffffffffffff166317bfdfbc306040518263ffffffff1660e01b8152600401610bc89190614ae1565b6020604051808303816000875af1158015610be7573d6000803e3d6000fd5b505050506040513d601f19601f82011682018060405250810190610c0b919061509d565b905090565b7f000000000000000000000000000000000000000000000000000000000000000081565b73cc0a87f7e7c693042a9cc703661f5060c80acb4381565b60006012905090565b6000610cf7610c62611724565b848460016000610c70611724565b73ffffffffffffffffffffffffffffffffffffffff1673ffffffffffffffffffffffffffffffffffffffff16815260200190815260200160002060008873ffffffffffffffffffffffffffffffffffffffff1673ffffffffffffffffffffffffffffffffffffffff16815260200190815260200160002054610cf291906150f9565b61172c565b6001905092915050565b600660009054906101000a900473ffffffffffffffffffffffffffffffffffffffff1681565b600660009054906101000a900473ffffffffffffffffffffffffffffffffffffffff1673ffffffffffffffffffffffffffffffffffffffff163373ffffffffffffffffffffffffffffffffffffffff1614610db7576040517f08c379a0000000000000000000000000000000000000000000000000000000008152600401610dae90614fd6565b60405180910390fd5b73cc0a87f7e7c693042a9cc703661f5060c80acb4373ffffffffffffffffffffffffffffffffffffffff1663e2bbb1586000806040518363ffffffff1660e01b8152600401610e0792919061518a565b600060405180830381600087803b158015610e2157600080fd5b505af1158015610e35573d6000803e3d6000fd5b50505050610e41612963565b565b60008060007f000000000000000000000000000000000000000000000000000000000000000073ffffffffffffffffffffffffffffffffffffffff16635ec88c79306040518263ffffffff1660e01b8152600401610ea19190614ae1565b606060405180830381865afa158015610ebe573d6000803e3d6000fd5b505050506040513d601f19601f82011682018060405250810190610ee291906151b3565b909150508093505060007f000000000000000000000000000000000000000000000000000000000000000073ffffffffffffffffffffffffffffffffffffffff166365555bcc6040518163ffffffff1660e01b8152600401610f439061529e565b606060405180830381865afa158015610f60573d6000803e3d6000fd5b505050506040513d601f19601f82011682018060405250810190610f8491906153b5565b905080600001519150600082670de0b6b3a764000086610fa491906153e2565b610fae919061546b565b90506064604b82610fbf91906153e2565b610fc9919061546b565b93505050909192565b7f000000000000000000000000000000000000000000000000000000000000000081565b60008060008373ffffffffffffffffffffffffffffffffffffffff1673ffffffffffffffffffffffffffffffffffffffff168152602001908152602001600020549050919050565b600080600061104b612f53565b925092509250606460558361106091906153e2565b61106a919061546b565b8111156111ae577321be370d5312f44cb42ce377bc9b8a0cef1a4c8373ffffffffffffffffffffffffffffffffffffffff1663095ea7b373d528697008ac67a21818751a5e3c58c8dae54696856040518363ffffffff1660e01b81526004016110d492919061549c565b6020604051808303816000875af11580156110f3573d6000803e3d6000fd5b505050506040513d601f19601f8201168201806040525081019061111791906154f1565b5073d528697008ac67a21818751a5e3c58c8dae5469673ffffffffffffffffffffffffffffffffffffffff16630e752702846040518263ffffffff1660e01b81526004016111659190614cdf565b6020604051808303816000875af1158015611184573d6000803e3d6000fd5b505050506040513d601f19601f820116820180604052508101906111a8919061509d565b50611261565b60646046836111bd91906153e2565b6111c7919061546b565b8110156112605773d528697008ac67a21818751a5e3c58c8dae5469673ffffffffffffffffffffffffffffffffffffffff1663c5ebeaec846040518263ffffffff1660e01b815260040161121b9190614cdf565b6020604051808303816000875af115801561123a573d6000803e3d6000fd5b505050506040513d601f19601f8201168201806040525081019061125e919061509d565b505b5b505050565b73328a7b4d538a2b3942653a9983fda3c12c57114181565b6000734cdf39285d7ca8eb3f090fda0c069ba5f4145b3773ffffffffffffffffffffffffffffffffffffffff166370a08231306040518263ffffffff1660e01b81526004016112cd9190614ae1565b602060405180830381865afa1580156112ea573d6000803e3d6000fd5b505050506040513d601f19601f8201168201806040525081019061130e919061509d565b905090565b7304068da6c83afcfa0e13ba15a6696662335d5b7581565b7f000000000000000000000000000000000000000000000000000000000000000081565b60086020528060005260406000206000915090505481565b60606004805461137690614f58565b80601f01602080910402602001604051908101604052809291908181526020018280546113a290614f58565b80156113ef5780601f106113c4576101008083540402835291602001916113ef565b820191906000526020600020905b8154815290600101906020018083116113d257829003601f168201915b5050505050905090565b600073328a7b4d538a2b3942653a9983fda3c12c57114173ffffffffffffffffffffffffffffffffffffffff16633af9e669306040518263ffffffff1660e01b81526004016114489190614ae1565b6020604051808303816000875af1158015611467573d6000803e3d6000fd5b505050506040513d601f19601f8201168201806040525081019061148b919061509d565b905090565b732a651563c9d3af67ae0388a5c8f89b867038089e81565b600080600160006114b7611724565b73ffffffffffffffffffffffffffffffffffffffff1673ffffffffffffffffffffffffffffffffffffffff16815260200190815260200160002060008573ffffffffffffffffffffffffffffffffffffffff1673ffffffffffffffffffffffffffffffffffffffff16815260200190815260200160002054905082811015611574576040517f08c379a000000000000000000000000000000000000000000000000000000000815260040161156b90615590565b60405180910390fd5b61158861157f611724565b8585840361172c565b600191505092915050565b73f491e7b69e4244ad4002bc14e878a34207e38c2981565b60006115bf6115b8611724565b84846126e2565b6001905092915050565b734cdf39285d7ca8eb3f090fda0c069ba5f4145b3781565b736c021ae822bea943b2e66552bde1d2696a53fbb781565b6000600160008473ffffffffffffffffffffffffffffffffffffffff1673ffffffffffffffffffffffffffffffffffffffff16815260200190815260200160002060008373ffffffffffffffffffffffffffffffffffffffff1673ffffffffffffffffffffffffffffffffffffffff16815260200190815260200160002054905092915050565b60075481565b600660009054906101000a900473ffffffffffffffffffffffffffffffffffffffff1673ffffffffffffffffffffffffffffffffffffffff163373ffffffffffffffffffffffffffffffffffffffff1614611716576040517f08c379a000000000000000000000000000000000000000000000000000000000815260040161170d90614fd6565b60405180910390fd5b6117208282613106565b5050565b600033905090565b600073ffffffffffffffffffffffffffffffffffffffff168373ffffffffffffffffffffffffffffffffffffffff16141561179c576040517f08c379a000000000000000000000000000000000000000000000000000000000815260040161179390615622565b60405180910390fd5b600073ffffffffffffffffffffffffffffffffffffffff168273ffffffffffffffffffffffffffffffffffffffff16141561180c576040517f08c379a0000000000000000000000000000000000000000000000000000000008152600401611803906156b4565b60405180910390fd5b80600160008573ffffffffffffffffffffffffffffffffffffffff1673ffffffffffffffffffffffffffffffffffffffff16815260200190815260200160002060008473ffffffffffffffffffffffffffffffffffffffff1673ffffffffffffffffffffffffffffffffffffffff168152602001908152602001600020819055508173ffffffffffffffffffffffffffffffffffffffff168373ffffffffffffffffffffffffffffffffffffffff167f8c5be1e5ebec7d5bd14f71427d1e84f3dd0314c0f7b2291e5b200ac8c7c3b925836040516118ea9190614cdf565b60405180910390a3505050565b600073328a7b4d538a2b3942653a9983fda3c12c57114173ffffffffffffffffffffffffffffffffffffffff166370a08231306040518263ffffffff1660e01b81526004016119469190614ae1565b602060405180830381865afa158015611963573d6000803e3d6000fd5b505050506040513d601f19601f82011682018060405250810190611987919061509d565b90507304068da6c83afcfa0e13ba15a6696662335d5b7573ffffffffffffffffffffffffffffffffffffffff1663095ea7b373328a7b4d538a2b3942653a9983fda3c12c571141846040518363ffffffff1660e01b81526004016119ec92919061549c565b6020604051808303816000875af1158015611a0b573d6000803e3d6000fd5b505050506040513d601f19601f82011682018060405250810190611a2f91906154f1565b5073328a7b4d538a2b3942653a9983fda3c12c57114173ffffffffffffffffffffffffffffffffffffffff1663a0712d68836040518263ffffffff1660e01b8152600401611a7d9190614cdf565b6020604051808303816000875af1158015611a9c573d6000803e3d6000fd5b505050506040513d601f19601f82011682018060405250810190611ac0919061509d565b50600073328a7b4d538a2b3942653a9983fda3c12c57114173ffffffffffffffffffffffffffffffffffffffff166370a08231306040518263ffffffff1660e01b8152600401611b109190614ae1565b602060405180830381865afa158015611b2d573d6000803e3d6000fd5b505050506040513d601f19601f82011682018060405250810190611b51919061509d565b905060008282611b6191906156d4565b905080600860008773ffffffffffffffffffffffffffffffffffffffff1673ffffffffffffffffffffffffffffffffffffffff1681526020019081526020016000206000828254611bb291906150f9565b92505081905550600660009054906101000a900473ffffffffffffffffffffffffffffffffffffffff1673ffffffffffffffffffffffffffffffffffffffff166350b79c7b86836040518363ffffffff1660e01b8152600401611c1692919061549c565b600060405180830381600087803b158015611c3057600080fd5b505af1158015611c44573d6000803e3d6000fd5b505050506000600167ffffffffffffffff811115611c6557611c646152d6565b5b604051908082528060200260200182016040528015611c935781602001602082028036833780820191505090505b50905073328a7b4d538a2b3942653a9983fda3c12c57114181600081518110611cbf57611cbe615708565b5b602002602001019073ffffffffffffffffffffffffffffffffffffffff16908173ffffffffffffffffffffffffffffffffffffffff16815250507f000000000000000000000000000000000000000000000000000000000000000073ffffffffffffffffffffffffffffffffffffffff1663c2998238826040518263ffffffff1660e01b8152600401611d5291906157f5565b6000604051808303816000875af1158015611d71573d6000803e3d6000fd5b505050506040513d6000823e3d601f19601f82011682018060405250810190611d9a91906158e4565b506000611da5610b79565b90506000611db1610e43565b5091505073d528697008ac67a21818751a5e3c58c8dae5469673ffffffffffffffffffffffffffffffffffffffff1663c5ebeaec826040518263ffffffff1660e01b8152600401611e029190614cdf565b6020604051808303816000875af1158015611e21573d6000803e3d6000fd5b505050506040513d601f19601f82011682018060405250810190611e45919061509d565b50611e4e61103e565b6000611e58610b79565b90508281611e6691906156d4565b600960008b73ffffffffffffffffffffffffffffffffffffffff1673ffffffffffffffffffffffffffffffffffffffff1681526020019081526020016000206000828254611eb491906150f9565b92505081905550505050505050505050565b6000606460327321be370d5312f44cb42ce377bc9b8a0cef1a4c8373ffffffffffffffffffffffffffffffffffffffff166370a08231306040518263ffffffff1660e01b8152600401611f199190614ae1565b602060405180830381865afa158015611f36573d6000803e3d6000fd5b505050506040513d601f19601f82011682018060405250810190611f5a919061509d565b611f6491906153e2565b611f6e919061546b565b90507321be370d5312f44cb42ce377bc9b8a0cef1a4c8373ffffffffffffffffffffffffffffffffffffffff1663095ea7b373f491e7b69e4244ad4002bc14e878a34207e38c29836040518363ffffffff1660e01b8152600401611fd392919061549c565b6020604051808303816000875af1158015611ff2573d6000803e3d6000fd5b505050506040513d601f19601f8201168201806040525081019061201691906154f1565b506000600267ffffffffffffffff811115612034576120336152d6565b5b6040519080825280602002602001820160405280156120625781602001602082028036833780820191505090505b5090507321be370d5312f44cb42ce377bc9b8a0cef1a4c838160008151811061208e5761208d615708565b5b602002602001019073ffffffffffffffffffffffffffffffffffffffff16908173ffffffffffffffffffffffffffffffffffffffff1681525050736c021ae822bea943b2e66552bde1d2696a53fbb7816001815181106120f1576120f0615708565b5b602002602001019073ffffffffffffffffffffffffffffffffffffffff16908173ffffffffffffffffffffffffffffffffffffffff168152505073f491e7b69e4244ad4002bc14e878a34207e38c2973ffffffffffffffffffffffffffffffffffffffff166338ed17398360008430426040518663ffffffff1660e01b815260040161218195949392919061592d565b6000604051808303816000875af11580156121a0573d6000803e3d6000fd5b505050506040513d6000823e3d601f19601f820116820180604052508101906121c991906158e4565b505050565b6000736c021ae822bea943b2e66552bde1d2696a53fbb773ffffffffffffffffffffffffffffffffffffffff166370a08231306040518263ffffffff1660e01b815260040161221d9190614ae1565b602060405180830381865afa15801561223a573d6000803e3d6000fd5b505050506040513d601f19601f8201168201806040525081019061225e919061509d565b905060007321be370d5312f44cb42ce377bc9b8a0cef1a4c8373ffffffffffffffffffffffffffffffffffffffff166370a08231306040518263ffffffff1660e01b81526004016122af9190614ae1565b602060405180830381865afa1580156122cc573d6000803e3d6000fd5b505050506040513d601f19601f820116820180604052508101906122f0919061509d565b9050736c021ae822bea943b2e66552bde1d2696a53fbb773ffffffffffffffffffffffffffffffffffffffff1663095ea7b373f491e7b69e4244ad4002bc14e878a34207e38c29846040518363ffffffff1660e01b815260040161235592919061549c565b6020604051808303816000875af1158015612374573d6000803e3d6000fd5b505050506040513d601f19601f8201168201806040525081019061239891906154f1565b507321be370d5312f44cb42ce377bc9b8a0cef1a4c8373ffffffffffffffffffffffffffffffffffffffff1663095ea7b373f491e7b69e4244ad4002bc14e878a34207e38c29836040518363ffffffff1660e01b81526004016123fc92919061549c565b6020604051808303816000875af115801561241b573d6000803e3d6000fd5b505050506040513d601f19601f8201168201806040525081019061243f91906154f1565b5073f491e7b69e4244ad4002bc14e878a34207e38c2973ffffffffffffffffffffffffffffffffffffffff1663e8e33700736c021ae822bea943b2e66552bde1d2696a53fbb77321be370d5312f44cb42ce377bc9b8a0cef1a4c83858560018030601e426124ad91906150f9565b6040518963ffffffff1660e01b81526004016124d09897969594939291906159c2565b6060604051808303816000875af11580156124ef573d6000803e3d6000fd5b505050506040513d601f19601f8201168201806040525081019061251391906151b3565b5050505050565b6000732a651563c9d3af67ae0388a5c8f89b867038089e73ffffffffffffffffffffffffffffffffffffffff166370a08231306040518263ffffffff1660e01b81526004016125699190614ae1565b602060405180830381865afa158015612586573d6000803e3d6000fd5b505050506040513d601f19601f820116820180604052508101906125aa919061509d565b90506125b63082613411565b732a651563c9d3af67ae0388a5c8f89b867038089e73ffffffffffffffffffffffffffffffffffffffff1663095ea7b373cc0a87f7e7c693042a9cc703661f5060c80acb43836040518363ffffffff1660e01b815260040161261992919061549c565b6020604051808303816000875af1158015612638573d6000803e3d6000fd5b505050506040513d601f19601f8201168201806040525081019061265c91906154f1565b5073cc0a87f7e7c693042a9cc703661f5060c80acb4373ffffffffffffffffffffffffffffffffffffffff1663e2bbb1586000836040518363ffffffff1660e01b81526004016126ad929190615a40565b600060405180830381600087803b1580156126c757600080fd5b505af11580156126db573d6000803e3d6000fd5b5050505050565b600073ffffffffffffffffffffffffffffffffffffffff168373ffffffffffffffffffffffffffffffffffffffff161415612752576040517f08c379a000000000000000000000000000000000000000000000000000000000815260040161274990615adb565b60405180910390fd5b600073ffffffffffffffffffffffffffffffffffffffff168273ffffffffffffffffffffffffffffffffffffffff1614156127c2576040517f08c379a00000000000000000000000000000000000000000000000000000000081526004016127b990615b6d565b60405180910390fd5b6127cd838383613571565b60008060008573ffffffffffffffffffffffffffffffffffffffff1673ffffffffffffffffffffffffffffffffffffffff16815260200190815260200160002054905081811015612853576040517f08c379a000000000000000000000000000000000000000000000000000000000815260040161284a90615bff565b60405180910390fd5b8181036000808673ffffffffffffffffffffffffffffffffffffffff1673ffffffffffffffffffffffffffffffffffffffff16815260200190815260200160002081905550816000808573ffffffffffffffffffffffffffffffffffffffff1673ffffffffffffffffffffffffffffffffffffffff16815260200190815260200160002060008282546128e691906150f9565b925050819055508273ffffffffffffffffffffffffffffffffffffffff168473ffffffffffffffffffffffffffffffffffffffff167fddf252ad1be2c89b69c2b068fc378daa952ba7f163c4a11628f55a4df523b3ef8460405161294a9190614cdf565b60405180910390a361295d848484613576565b50505050565b60008061296e61357b565b91509150600061297c61127e565b90506000612989826136a2565b9050734cdf39285d7ca8eb3f090fda0c069ba5f4145b3773ffffffffffffffffffffffffffffffffffffffff1663a9059cbb600660009054906101000a900473ffffffffffffffffffffffffffffffffffffffff16836040518363ffffffff1660e01b81526004016129fc92919061549c565b6020604051808303816000875af1158015612a1b573d6000803e3d6000fd5b505050506040513d601f19601f82011682018060405250810190612a3f91906154f1565b506000612a4a61127e565b905060006064603283612a5d91906153e2565b612a67919061546b565b9050734cdf39285d7ca8eb3f090fda0c069ba5f4145b3773ffffffffffffffffffffffffffffffffffffffff1663095ea7b373f491e7b69e4244ad4002bc14e878a34207e38c29846040518363ffffffff1660e01b8152600401612acc92919061549c565b6020604051808303816000875af1158015612aeb573d6000803e3d6000fd5b505050506040513d601f19601f82011682018060405250810190612b0f91906154f1565b506000600367ffffffffffffffff811115612b2d57612b2c6152d6565b5b604051908082528060200260200182016040528015612b5b5781602001602082028036833780820191505090505b509050734cdf39285d7ca8eb3f090fda0c069ba5f4145b3781600081518110612b8757612b86615708565b5b602002602001019073ffffffffffffffffffffffffffffffffffffffff16908173ffffffffffffffffffffffffffffffffffffffff16815250507321be370d5312f44cb42ce377bc9b8a0cef1a4c8381600181518110612bea57612be9615708565b5b602002602001019073ffffffffffffffffffffffffffffffffffffffff16908173ffffffffffffffffffffffffffffffffffffffff1681525050736c021ae822bea943b2e66552bde1d2696a53fbb781600281518110612c4d57612c4c615708565b5b602002602001019073ffffffffffffffffffffffffffffffffffffffff16908173ffffffffffffffffffffffffffffffffffffffff16815250507f000000000000000000000000000000000000000000000000000000000000000073ffffffffffffffffffffffffffffffffffffffff166338ed17398360008430601e42612cd591906150f9565b6040518663ffffffff1660e01b8152600401612cf595949392919061592d565b6000604051808303816000875af1158015612d14573d6000803e3d6000fd5b505050506040513d6000823e3d601f19601f82011682018060405250810190612d3d91906158e4565b506000612d4861127e565b90506000600267ffffffffffffffff811115612d6757612d666152d6565b5b604051908082528060200260200182016040528015612d955781602001602082028036833780820191505090505b509050734cdf39285d7ca8eb3f090fda0c069ba5f4145b3781600081518110612dc157612dc0615708565b5b602002602001019073ffffffffffffffffffffffffffffffffffffffff16908173ffffffffffffffffffffffffffffffffffffffff16815250507321be370d5312f44cb42ce377bc9b8a0cef1a4c8381600181518110612e2457612e23615708565b5b602002602001019073ffffffffffffffffffffffffffffffffffffffff16908173ffffffffffffffffffffffffffffffffffffffff16815250507f000000000000000000000000000000000000000000000000000000000000000073ffffffffffffffffffffffffffffffffffffffff166338ed17398360008430601e42612eac91906150f9565b6040518663ffffffff1660e01b8152600401612ecc95949392919061592d565b6000604051808303816000875af1158015612eeb573d6000803e3d6000fd5b505050506040513d6000823e3d601f19601f82011682018060405250810190612f1491906158e4565b50600080612f2061357b565b9150915060008b83612f3291906156d4565b905060008b83612f4291906156d4565b905050505050505050505050505050565b6000806000807f000000000000000000000000000000000000000000000000000000000000000073ffffffffffffffffffffffffffffffffffffffff166365555bcc6040518163ffffffff1660e01b8152600401612fb09061529e565b606060405180830381865afa158015612fcd573d6000803e3d6000fd5b505050506040513d601f19601f82011682018060405250810190612ff191906153b5565b9050600081600001519050600064e8d4a5100082670de0b6b3a76400006130166113f9565b61302091906153e2565b61302a919061546b565b61303491906153e2565b90506064600a8261304591906153e2565b61304f919061546b565b95506064604b8261306091906153e2565b61306a919061546b565b945073d528697008ac67a21818751a5e3c58c8dae5469673ffffffffffffffffffffffffffffffffffffffff166317bfdfbc306040518263ffffffff1660e01b81526004016130b99190614ae1565b6020604051808303816000875af11580156130d8573d6000803e3d6000fd5b505050506040513d601f19601f820116820180604052508101906130fc919061509d565b9350505050909192565b60003073ffffffffffffffffffffffffffffffffffffffff166370a08231306040518263ffffffff1660e01b81526004016131419190614ae1565b602060405180830381865afa15801561315e573d6000803e3d6000fd5b505050506040513d601f19601f82011682018060405250810190613182919061509d565b90506000600660009054906101000a900473ffffffffffffffffffffffffffffffffffffffff1673ffffffffffffffffffffffffffffffffffffffff166318160ddd6040518163ffffffff1660e01b8152600401602060405180830381865afa1580156131f3573d6000803e3d6000fd5b505050506040513d601f19601f82011682018060405250810190613217919061509d565b905060008183613227919061546b565b90506000848261323791906153e2565b905083811115613245578390505b6000732a651563c9d3af67ae0388a5c8f89b867038089e73ffffffffffffffffffffffffffffffffffffffff166370a08231306040518263ffffffff1660e01b81526004016132949190614ae1565b602060405180830381865afa1580156132b1573d6000803e3d6000fd5b505050506040513d601f19601f820116820180604052508101906132d5919061509d565b905073cc0a87f7e7c693042a9cc703661f5060c80acb4373ffffffffffffffffffffffffffffffffffffffff1663441a3e706000846040518363ffffffff1660e01b8152600401613327929190615a40565b600060405180830381600087803b15801561334157600080fd5b505af1158015613355573d6000803e3d6000fd5b505050506000732a651563c9d3af67ae0388a5c8f89b867038089e73ffffffffffffffffffffffffffffffffffffffff166370a08231306040518263ffffffff1660e01b81526004016133a89190614ae1565b602060405180830381865afa1580156133c5573d6000803e3d6000fd5b505050506040513d601f19601f820116820180604052508101906133e9919061509d565b9050600082826133f991906156d4565b905061340689828a6136c5565b505050505050505050565b600073ffffffffffffffffffffffffffffffffffffffff168273ffffffffffffffffffffffffffffffffffffffff161415613481576040517f08c379a000000000000000000000000000000000000000000000000000000000815260040161347890615c6b565b60405180910390fd5b61348d60008383613571565b806002600082825461349f91906150f9565b92505081905550806000808473ffffffffffffffffffffffffffffffffffffffff1673ffffffffffffffffffffffffffffffffffffffff16815260200190815260200160002060008282546134f491906150f9565b925050819055508173ffffffffffffffffffffffffffffffffffffffff16600073ffffffffffffffffffffffffffffffffffffffff167fddf252ad1be2c89b69c2b068fc378daa952ba7f163c4a11628f55a4df523b3ef836040516135599190614cdf565b60405180910390a361356d60008383613576565b5050565b505050565b505050565b600080736c021ae822bea943b2e66552bde1d2696a53fbb773ffffffffffffffffffffffffffffffffffffffff166370a08231306040518263ffffffff1660e01b81526004016135cb9190614ae1565b602060405180830381865afa1580156135e8573d6000803e3d6000fd5b505050506040513d601f19601f8201168201806040525081019061360c919061509d565b91507321be370d5312f44cb42ce377bc9b8a0cef1a4c8373ffffffffffffffffffffffffffffffffffffffff166370a08231306040518263ffffffff1660e01b815260040161365b9190614ae1565b602060405180830381865afa158015613678573d6000803e3d6000fd5b505050506040513d601f19601f8201168201806040525081019061369c919061509d565b90509091565b60006127106064836136b491906153e2565b6136be919061546b565b9050919050565b6000806136d061357b565b91509150732a651563c9d3af67ae0388a5c8f89b867038089e73ffffffffffffffffffffffffffffffffffffffff1663095ea7b373f491e7b69e4244ad4002bc14e878a34207e38c29866040518363ffffffff1660e01b815260040161373792919061549c565b6020604051808303816000875af1158015613756573d6000803e3d6000fd5b505050506040513d601f19601f8201168201806040525081019061377a91906154f1565b5060008073f491e7b69e4244ad4002bc14e878a34207e38c2973ffffffffffffffffffffffffffffffffffffffff1663baa2abde7321be370d5312f44cb42ce377bc9b8a0cef1a4c83736c021ae822bea943b2e66552bde1d2696a53fbb78960018030601e426137ea91906150f9565b6040518863ffffffff1660e01b815260040161380c9796959493929190615c8b565b60408051808303816000875af115801561382a573d6000803e3d6000fd5b505050506040513d601f19601f8201168201806040525081019061384e9190615cfa565b9150915061385c3087613b9c565b60008061386761357b565b915091506000868361387991906156d4565b9050736c021ae822bea943b2e66552bde1d2696a53fbb773ffffffffffffffffffffffffffffffffffffffff1663095ea7b373f491e7b69e4244ad4002bc14e878a34207e38c29836040518363ffffffff1660e01b81526004016138de92919061549c565b6020604051808303816000875af11580156138fd573d6000803e3d6000fd5b505050506040513d601f19601f8201168201806040525081019061392191906154f1565b506000600267ffffffffffffffff81111561393f5761393e6152d6565b5b60405190808252806020026020018201604052801561396d5781602001602082028036833780820191505090505b509050736c021ae822bea943b2e66552bde1d2696a53fbb78160008151811061399957613998615708565b5b602002602001019073ffffffffffffffffffffffffffffffffffffffff16908173ffffffffffffffffffffffffffffffffffffffff16815250507321be370d5312f44cb42ce377bc9b8a0cef1a4c83816001815181106139fc576139fb615708565b5b602002602001019073ffffffffffffffffffffffffffffffffffffffff16908173ffffffffffffffffffffffffffffffffffffffff168152505060007f000000000000000000000000000000000000000000000000000000000000000073ffffffffffffffffffffffffffffffffffffffff166338ed17398460008530601e42613a8691906150f9565b6040518663ffffffff1660e01b8152600401613aa695949392919061592d565b6000604051808303816000875af1158015613ac5573d6000803e3d6000fd5b505050506040513d6000823e3d601f19601f82011682018060405250810190613aee91906158e4565b905060007321be370d5312f44cb42ce377bc9b8a0cef1a4c8373ffffffffffffffffffffffffffffffffffffffff166370a08231306040518263ffffffff1660e01b8152600401613b3f9190614ae1565b602060405180830381865afa158015613b5c573d6000803e3d6000fd5b505050506040513d601f19601f82011682018060405250810190613b80919061509d565b9050613b8d8d8c83613d73565b50505050505050505050505050565b600073ffffffffffffffffffffffffffffffffffffffff168273ffffffffffffffffffffffffffffffffffffffff161415613c0c576040517f08c379a0000000000000000000000000000000000000000000000000000000008152600401613c0390615dac565b60405180910390fd5b613c1882600083613571565b60008060008473ffffffffffffffffffffffffffffffffffffffff1673ffffffffffffffffffffffffffffffffffffffff16815260200190815260200160002054905081811015613c9e576040517f08c379a0000000000000000000000000000000000000000000000000000000008152600401613c9590615e3e565b60405180910390fd5b8181036000808573ffffffffffffffffffffffffffffffffffffffff1673ffffffffffffffffffffffffffffffffffffffff168152602001908152602001600020819055508160026000828254613cf591906156d4565b92505081905550600073ffffffffffffffffffffffffffffffffffffffff168373ffffffffffffffffffffffffffffffffffffffff167fddf252ad1be2c89b69c2b068fc378daa952ba7f163c4a11628f55a4df523b3ef84604051613d5a9190614cdf565b60405180910390a3613d6e83600084613576565b505050565b81600860008573ffffffffffffffffffffffffffffffffffffffff1673ffffffffffffffffffffffffffffffffffffffff1681526020019081526020016000206000828254613dc291906156d4565b92505081905550600080600960008673ffffffffffffffffffffffffffffffffffffffff1673ffffffffffffffffffffffffffffffffffffffff16815260200190815260200160002054831115613eec57600960008673ffffffffffffffffffffffffffffffffffffffff1673ffffffffffffffffffffffffffffffffffffffff1681526020019081526020016000205483613e5e91906156d4565b9150600960008673ffffffffffffffffffffffffffffffffffffffff1673ffffffffffffffffffffffffffffffffffffffff1681526020019081526020016000205490506000600960008773ffffffffffffffffffffffffffffffffffffffff1673ffffffffffffffffffffffffffffffffffffffff16815260200190815260200160002081905550613f4a565b6000915082905082600960008773ffffffffffffffffffffffffffffffffffffffff1673ffffffffffffffffffffffffffffffffffffffff1681526020019081526020016000206000828254613f4291906156d4565b925050819055505b6000612710606486613f5c91906153e2565b613f66919061546b565b905060008186613f7691906156d4565b905073328a7b4d538a2b3942653a9983fda3c12c57114173ffffffffffffffffffffffffffffffffffffffff166370a08231306040518263ffffffff1660e01b8152600401613fc59190614ae1565b602060405180830381865afa158015613fe2573d6000803e3d6000fd5b505050506040513d601f19601f82011682018060405250810190614006919061509d565b81111561409e5773328a7b4d538a2b3942653a9983fda3c12c57114173ffffffffffffffffffffffffffffffffffffffff166370a08231306040518263ffffffff1660e01b815260040161405a9190614ae1565b602060405180830381865afa158015614077573d6000803e3d6000fd5b505050506040513d601f19601f8201168201806040525081019061409b919061509d565b90505b6140a6610b79565b8311156140b8576140b5610b79565b92505b7321be370d5312f44cb42ce377bc9b8a0cef1a4c8373ffffffffffffffffffffffffffffffffffffffff1663095ea7b373d528697008ac67a21818751a5e3c58c8dae54696856040518363ffffffff1660e01b815260040161411b92919061549c565b6020604051808303816000875af115801561413a573d6000803e3d6000fd5b505050506040513d601f19601f8201168201806040525081019061415e91906154f1565b5073d528697008ac67a21818751a5e3c58c8dae5469673ffffffffffffffffffffffffffffffffffffffff16630e752702846040518263ffffffff1660e01b81526004016141ac9190614cdf565b6020604051808303816000875af11580156141cb573d6000803e3d6000fd5b505050506040513d601f19601f820116820180604052508101906141ef919061509d565b5060007304068da6c83afcfa0e13ba15a6696662335d5b7573ffffffffffffffffffffffffffffffffffffffff166370a08231306040518263ffffffff1660e01b815260040161423f9190614ae1565b602060405180830381865afa15801561425c573d6000803e3d6000fd5b505050506040513d601f19601f82011682018060405250810190614280919061509d565b905073328a7b4d538a2b3942653a9983fda3c12c57114173ffffffffffffffffffffffffffffffffffffffff1663db006a75836040518263ffffffff1660e01b81526004016142cf9190614cdf565b6020604051808303816000875af11580156142ee573d6000803e3d6000fd5b505050506040513d601f19601f82011682018060405250810190614312919061509d565b5060007304068da6c83afcfa0e13ba15a6696662335d5b7573ffffffffffffffffffffffffffffffffffffffff166370a08231306040518263ffffffff1660e01b81526004016143629190614ae1565b602060405180830381865afa15801561437f573d6000803e3d6000fd5b505050506040513d601f19601f820116820180604052508101906143a3919061509d565b9050600082826143b391906156d4565b90507321be370d5312f44cb42ce377bc9b8a0cef1a4c8373ffffffffffffffffffffffffffffffffffffffff166370a08231306040518263ffffffff1660e01b81526004016144029190614ae1565b602060405180830381865afa15801561441f573d6000803e3d6000fd5b505050506040513d601f19601f82011682018060405250810190614443919061509d565b8711156144db577321be370d5312f44cb42ce377bc9b8a0cef1a4c8373ffffffffffffffffffffffffffffffffffffffff166370a08231306040518263ffffffff1660e01b81526004016144979190614ae1565b602060405180830381865afa1580156144b4573d6000803e3d6000fd5b505050506040513d601f19601f820116820180604052508101906144d8919061509d565b96505b6144e581886144f1565b50505050505050505050565b6000808211156148bc5760007304068da6c83afcfa0e13ba15a6696662335d5b7573ffffffffffffffffffffffffffffffffffffffff166370a08231306040518263ffffffff1660e01b815260040161454a9190614ae1565b602060405180830381865afa158015614567573d6000803e3d6000fd5b505050506040513d601f19601f8201168201806040525081019061458b919061509d565b90507321be370d5312f44cb42ce377bc9b8a0cef1a4c8373ffffffffffffffffffffffffffffffffffffffff1663095ea7b373f491e7b69e4244ad4002bc14e878a34207e38c29856040518363ffffffff1660e01b81526004016145f092919061549c565b6020604051808303816000875af115801561460f573d6000803e3d6000fd5b505050506040513d601f19601f8201168201806040525081019061463391906154f1565b506000600267ffffffffffffffff811115614651576146506152d6565b5b60405190808252806020026020018201604052801561467f5781602001602082028036833780820191505090505b5090507321be370d5312f44cb42ce377bc9b8a0cef1a4c83816000815181106146ab576146aa615708565b5b602002602001019073ffffffffffffffffffffffffffffffffffffffff16908173ffffffffffffffffffffffffffffffffffffffff16815250507304068da6c83afcfa0e13ba15a6696662335d5b758160018151811061470e5761470d615708565b5b602002602001019073ffffffffffffffffffffffffffffffffffffffff16908173ffffffffffffffffffffffffffffffffffffffff168152505060007f000000000000000000000000000000000000000000000000000000000000000073ffffffffffffffffffffffffffffffffffffffff166338ed17398660008530601e4261479891906150f9565b6040518663ffffffff1660e01b81526004016147b895949392919061592d565b6000604051808303816000875af11580156147d7573d6000803e3d6000fd5b505050506040513d6000823e3d601f19601f8201168201806040525081019061480091906158e4565b905060007304068da6c83afcfa0e13ba15a6696662335d5b7573ffffffffffffffffffffffffffffffffffffffff166370a08231306040518263ffffffff1660e01b81526004016148519190614ae1565b602060405180830381865afa15801561486e573d6000803e3d6000fd5b505050506040513d601f19601f82011682018060405250810190614892919061509d565b9050600084826148a291906156d4565b905087816148b091906150f9565b955050505050506148c0565b8290505b7304068da6c83afcfa0e13ba15a6696662335d5b7573ffffffffffffffffffffffffffffffffffffffff166370a08231306040518263ffffffff1660e01b815260040161490d9190614ae1565b602060405180830381865afa15801561492a573d6000803e3d6000fd5b505050506040513d601f19601f8201168201806040525081019061494e919061509d565b8111156149e6577304068da6c83afcfa0e13ba15a6696662335d5b7573ffffffffffffffffffffffffffffffffffffffff166370a08231306040518263ffffffff1660e01b81526004016149a29190614ae1565b602060405180830381865afa1580156149bf573d6000803e3d6000fd5b505050506040513d601f19601f820116820180604052508101906149e3919061509d565b90505b7304068da6c83afcfa0e13ba15a6696662335d5b7573ffffffffffffffffffffffffffffffffffffffff1663a9059cbb600660009054906101000a900473ffffffffffffffffffffffffffffffffffffffff16836040518363ffffffff1660e01b8152600401614a5792919061549c565b6020604051808303816000875af1158015614a76573d6000803e3d6000fd5b505050506040513d601f19601f82011682018060405250810190614a9a91906154f1565b50505050565b600073ffffffffffffffffffffffffffffffffffffffff82169050919050565b6000614acb82614aa0565b9050919050565b614adb81614ac0565b82525050565b6000602082019050614af66000830184614ad2565b92915050565b600081519050919050565b600082825260208201905092915050565b60005b83811015614b36578082015181840152602081019050614b1b565b83811115614b45576000848401525b50505050565b6000601f19601f8301169050919050565b6000614b6782614afc565b614b718185614b07565b9350614b81818560208601614b18565b614b8a81614b4b565b840191505092915050565b60006020820190508181036000830152614baf8184614b5c565b905092915050565b6000604051905090565b600080fd5b600080fd5b614bd481614ac0565b8114614bdf57600080fd5b50565b600081359050614bf181614bcb565b92915050565b6000819050919050565b614c0a81614bf7565b8114614c1557600080fd5b50565b600081359050614c2781614c01565b92915050565b60008060408385031215614c4457614c43614bc1565b5b6000614c5285828601614be2565b9250506020614c6385828601614c18565b9150509250929050565b60008115159050919050565b614c8281614c6d565b82525050565b6000602082019050614c9d6000830184614c79565b92915050565b600060208284031215614cb957614cb8614bc1565b5b6000614cc784828501614be2565b91505092915050565b614cd981614bf7565b82525050565b6000602082019050614cf46000830184614cd0565b92915050565b600080600060608486031215614d1357614d12614bc1565b5b6000614d2186828701614be2565b9350506020614d3286828701614be2565b9250506040614d4386828701614c18565b9150509250925092565b6000819050919050565b6000614d72614d6d614d6884614aa0565b614d4d565b614aa0565b9050919050565b6000614d8482614d57565b9050919050565b6000614d9682614d79565b9050919050565b614da681614d8b565b82525050565b6000602082019050614dc16000830184614d9d565b92915050565b600060ff82169050919050565b614ddd81614dc7565b82525050565b6000602082019050614df86000830184614dd4565b92915050565b6000614e0982614d79565b9050919050565b614e1981614dfe565b82525050565b6000602082019050614e346000830184614e10565b92915050565b6000606082019050614e4f6000830186614cd0565b614e5c6020830185614cd0565b614e696040830184614cd0565b949350505050565b6000614e7c82614d79565b9050919050565b614e8c81614e71565b82525050565b6000602082019050614ea76000830184614e83565b92915050565b6000614eb882614d79565b9050919050565b614ec881614ead565b82525050565b6000602082019050614ee36000830184614ebf565b92915050565b60008060408385031215614f0057614eff614bc1565b5b6000614f0e85828601614be2565b9250506020614f1f85828601614be2565b9150509250929050565b7f4e487b7100000000000000000000000000000000000000000000000000000000600052602260045260246000fd5b60006002820490506001821680614f7057607f821691505b60208210811415614f8457614f83614f29565b5b50919050565b7f217661756c740000000000000000000000000000000000000000000000000000600082015250565b6000614fc0600683614b07565b9150614fcb82614f8a565b602082019050919050565b60006020820190508181036000830152614fef81614fb3565b9050919050565b7f45524332303a207472616e7366657220616d6f756e742065786365656473206160008201527f6c6c6f77616e6365000000000000000000000000000000000000000000000000602082015250565b6000615052602883614b07565b915061505d82614ff6565b604082019050919050565b6000602082019050818103600083015261508181615045565b9050919050565b60008151905061509781614c01565b92915050565b6000602082840312156150b3576150b2614bc1565b5b60006150c184828501615088565b91505092915050565b7f4e487b7100000000000000000000000000000000000000000000000000000000600052601160045260246000fd5b600061510482614bf7565b915061510f83614bf7565b9250827fffffffffffffffffffffffffffffffffffffffffffffffffffffffffffffffff03821115615144576151436150ca565b5b828201905092915050565b6000819050919050565b600061517461516f61516a8461514f565b614d4d565b614bf7565b9050919050565b61518481615159565b82525050565b600060408201905061519f600083018561517b565b6151ac602083018461517b565b9392505050565b6000806000606084860312156151cc576151cb614bc1565b5b60006151da86828701615088565b93505060206151eb86828701615088565b92505060406151fc86828701615088565b9150509250925092565b7f46544d0000000000000000000000000000000000000000000000000000000000600082015250565b600061523c600383614b07565b915061524782615206565b602082019050919050565b7f5553444300000000000000000000000000000000000000000000000000000000600082015250565b6000615288600483614b07565b915061529382615252565b602082019050919050565b600060408201905081810360008301526152b78161522f565b905081810360208301526152ca8161527b565b9050919050565b600080fd5b7f4e487b7100000000000000000000000000000000000000000000000000000000600052604160045260246000fd5b61530e82614b4b565b810181811067ffffffffffffffff8211171561532d5761532c6152d6565b5b80604052505050565b6000615340614bb7565b905061534c8282615305565b919050565b600060608284031215615367576153666152d1565b5b6153716060615336565b9050600061538184828501615088565b600083015250602061539584828501615088565b60208301525060406153a984828501615088565b60408301525092915050565b6000606082840312156153cb576153ca614bc1565b5b60006153d984828501615351565b91505092915050565b60006153ed82614bf7565b91506153f883614bf7565b9250817fffffffffffffffffffffffffffffffffffffffffffffffffffffffffffffffff0483118215151615615431576154306150ca565b5b828202905092915050565b7f4e487b7100000000000000000000000000000000000000000000000000000000600052601260045260246000fd5b600061547682614bf7565b915061548183614bf7565b9250826154915761549061543c565b5b828204905092915050565b60006040820190506154b16000830185614ad2565b6154be6020830184614cd0565b9392505050565b6154ce81614c6d565b81146154d957600080fd5b50565b6000815190506154eb816154c5565b92915050565b60006020828403121561550757615506614bc1565b5b6000615515848285016154dc565b91505092915050565b7f45524332303a2064656372656173656420616c6c6f77616e63652062656c6f7760008201527f207a65726f000000000000000000000000000000000000000000000000000000602082015250565b600061557a602583614b07565b91506155858261551e565b604082019050919050565b600060208201905081810360008301526155a98161556d565b9050919050565b7f45524332303a20617070726f76652066726f6d20746865207a65726f2061646460008201527f7265737300000000000000000000000000000000000000000000000000000000602082015250565b600061560c602483614b07565b9150615617826155b0565b604082019050919050565b6000602082019050818103600083015261563b816155ff565b9050919050565b7f45524332303a20617070726f766520746f20746865207a65726f20616464726560008201527f7373000000000000000000000000000000000000000000000000000000000000602082015250565b600061569e602283614b07565b91506156a982615642565b604082019050919050565b600060208201905081810360008301526156cd81615691565b9050919050565b60006156df82614bf7565b91506156ea83614bf7565b9250828210156156fd576156fc6150ca565b5b828203905092915050565b7f4e487b7100000000000000000000000000000000000000000000000000000000600052603260045260246000fd5b600081519050919050565b600082825260208201905092915050565b6000819050602082019050919050565b61576c81614ac0565b82525050565b600061577e8383615763565b60208301905092915050565b6000602082019050919050565b60006157a282615737565b6157ac8185615742565b93506157b783615753565b8060005b838110156157e85781516157cf8882615772565b97506157da8361578a565b9250506001810190506157bb565b5085935050505092915050565b6000602082019050818103600083015261580f8184615797565b905092915050565b600080fd5b600067ffffffffffffffff821115615837576158366152d6565b5b602082029050602081019050919050565b600080fd5b600061586061585b8461581c565b615336565b9050808382526020820190506020840283018581111561588357615882615848565b5b835b818110156158ac57806158988882615088565b845260208401935050602081019050615885565b5050509392505050565b600082601f8301126158cb576158ca615817565b5b81516158db84826020860161584d565b91505092915050565b6000602082840312156158fa576158f9614bc1565b5b600082015167ffffffffffffffff81111561591857615917614bc6565b5b615924848285016158b6565b91505092915050565b600060a0820190506159426000830188614cd0565b61594f602083018761517b565b81810360408301526159618186615797565b90506159706060830185614ad2565b61597d6080830184614cd0565b9695505050505050565b6000819050919050565b60006159ac6159a76159a284615987565b614d4d565b614bf7565b9050919050565b6159bc81615991565b82525050565b6000610100820190506159d8600083018b614ad2565b6159e5602083018a614ad2565b6159f26040830189614cd0565b6159ff6060830188614cd0565b615a0c60808301876159b3565b615a1960a08301866159b3565b615a2660c0830185614ad2565b615a3360e0830184614cd0565b9998505050505050505050565b6000604082019050615a55600083018561517b565b615a626020830184614cd0565b9392505050565b7f45524332303a207472616e736665722066726f6d20746865207a65726f20616460008201527f6472657373000000000000000000000000000000000000000000000000000000602082015250565b6000615ac5602583614b07565b9150615ad082615a69565b604082019050919050565b60006020820190508181036000830152615af481615ab8565b9050919050565b7f45524332303a207472616e7366657220746f20746865207a65726f206164647260008201527f6573730000000000000000000000000000000000000000000000000000000000602082015250565b6000615b57602383614b07565b9150615b6282615afb565b604082019050919050565b60006020820190508181036000830152615b8681615b4a565b9050919050565b7f45524332303a207472616e7366657220616d6f756e742065786365656473206260008201527f616c616e63650000000000000000000000000000000000000000000000000000602082015250565b6000615be9602683614b07565b9150615bf482615b8d565b604082019050919050565b60006020820190508181036000830152615c1881615bdc565b9050919050565b7f45524332303a206d696e7420746f20746865207a65726f206164647265737300600082015250565b6000615c55601f83614b07565b9150615c6082615c1f565b602082019050919050565b60006020820190508181036000830152615c8481615c48565b9050919050565b600060e082019050615ca0600083018a614ad2565b615cad6020830189614ad2565b615cba6040830188614cd0565b615cc760608301876159b3565b615cd460808301866159b3565b615ce160a0830185614ad2565b615cee60c0830184614cd0565b98975050505050505050565b60008060408385031215615d1157615d10614bc1565b5b6000615d1f85828601615088565b9250506020615d3085828601615088565b9150509250929050565b7f45524332303a206275726e2066726f6d20746865207a65726f2061646472657360008201527f7300000000000000000000000000000000000000000000000000000000000000602082015250565b6000615d96602183614b07565b9150615da182615d3a565b604082019050919050565b60006020820190508181036000830152615dc581615d89565b9050919050565b7f45524332303a206275726e20616d6f756e7420657863656564732062616c616e60008201527f6365000000000000000000000000000000000000000000000000000000000000602082015250565b6000615e28602283614b07565b9150615e3382615dcc565b604082019050919050565b60006020820190508181036000830152615e5781615e1b565b905091905056fea26469706673582212205fe8e5d6fb5d7fd2dbbfb73cea615ad113b7a1a359b77944935fe1baab7e247764736f6c634300080a0033",
  "immutableReferences": {
    "1929": [
      {
        "length": 32,
        "start": 4909
      },
      {
        "length": 32,
        "start": 11401
      },
      {
        "length": 32,
        "start": 11872
      },
      {
        "length": 32,
        "start": 14906
      },
      {
        "length": 32,
        "start": 18252
      }
    ],
    "1932": [
      {
        "length": 32,
        "start": 3658
      },
      {
        "length": 32,
        "start": 4052
      },
      {
        "length": 32,
        "start": 7419
      }
    ],
    "1935": [
      {
        "length": 32,
        "start": 3090
      },
      {
        "length": 32,
        "start": 3822
      },
      {
        "length": 32,
        "start": 12123
      }
    ]
  },
  "source": "pragma solidity ^0.8.10; \npragma abicoder v2;  \n\nimport \"../DjinnBottleUSDC.sol\"; \nimport \"../interfaces/CTokenInterfaces.sol\"; \nimport \"../interfaces/ComptrollerInterface.sol\";  \nimport \"../interfaces/IStdReference.sol\"; \nimport \"@uniswap/v2-periphery/contracts/interfaces/IUniswapV2Router02.sol\"; \nimport \"../interfaces/IMasterChef.sol\"; \nimport \"@openzeppelin/contracts/token/ERC20/IERC20.sol\"; \n\n\ncontract ShortFarmFTM is ERC20 {\n\t\n\t//Contract Specifics \n\taddress public creator; \n\tuint private constant CREATOR_FEE = 100; //1% \n\tDjinnBottleUSDC public VAULT; \n\n\tuint public ass; \n\t\n\t//Balances For Withdraw \n\tmapping(address => uint) public depositBalance;\n\tmapping(address => uint) public tokenBorrowBalance; \n\n\t//Cream Finance Contracts (on Fantom these are also just the Iron Bank Contracts)\n\taddress public constant crUSDC = 0x328A7b4d538A2b3942653a9983fdA3C12c571141; \n\taddress public constant crWFTM = 0xd528697008aC67A21818751A5e3c58C8daE54696;  \n\n\t//Public Tokens\n\taddress public constant USDC = 0x04068DA6C83AFCFA0e13ba15A6696662335D5B75; \n\taddress public constant WFTM = 0x21be370D5312f44cB42ce377BC9b8a0cEF1A4C83; \n\taddress public constant TOMB = 0x6c021Ae822BEa943b2E66552bDe1D2696a53fbB7; \n\taddress public constant TSHARE = 0x4cdF39285D7Ca8eB3f090fDA0C069ba5F4145B37; \n\t\n\t//SpookySwap Router, LP, TSHAREPool \n\taddress public constant spookyAddress = 0xF491e7B69E4244ad4002BC14e878a34207E38c29;\t\t\n\taddress public constant spookyFtmTombLP = 0x2A651563C9d3Af67aE0388a5c8F89b867038089e; \n\taddress public constant tShareRewardPool = 0xcc0a87F7e7c693042a9Cc703661F5060c80ACb43; \n\n\n\t//Contract Interfaces  \n\tIUniswapV2Router02 public immutable spookyRouter; \n\tComptrollerInterface public immutable comptroller; \n\tIStdReference public immutable priceOracle;\n\t\n\n\n\tconstructor(DjinnBottleUSDC _djBottle, \t\n\t\t\t\tIUniswapV2Router02 _spookyRouter, \n\t\t\t\tComptrollerInterface _comptroller, \n\t\t\t\tIStdReference _priceOracle) ERC20(\"Djinn FTM Short Farm\", \"dFTMShort\") {\n\t\t\t\t\taddress creator = msg.sender;\n\t\t\t\t\tVAULT = _djBottle; \n\t\t\t\t\tspookyRouter = _spookyRouter; \n\t\t\t\t\tcomptroller = _comptroller;  \n\t\t\t\t\tpriceOracle = _priceOracle; \n\t\t\t\t}\n\t\n\t//automate opening a position\n\t//designed for single user ie. user opens via vault contract \t\n\tfunction open(address user, uint amount) external {\n\t\trequire(msg.sender == address(VAULT), \"!vault\"); \n\t\tborrow(user, amount); //same amount in USDC to keep track of how many tokens we have supplied \n\t\tswap(); //swap half of bal to TOMB and unwrap the rest to FTM \n\t\tgetLPTokens(); //get FTM-TOMB LP tokens \t\n\t\tdepositLPGetTShare(); //deposit LP tokens on TOMB to earn TSHARE\n\t}\n\n\t//automate the harvest \n\tfunction harvest() external {\n\t\trequire(msg.sender == address(VAULT), \"!vault\"); \n\t\tIMasterChef(tShareRewardPool).deposit(0, 0); //0 is poolId and we call a deposit of 0 to allocate the shares to this contract\n\t\tsellAndSwap(); //sell tshare for 50% TOMB 50% WFTM \n\t\t//getLPTokens(); \n\t\t//depositLPGetTShare(); \n\t}\n\t\n\t//automate the closing of the position\n\t//designed for single use ie. user closes via vault contract \t\n\t//so we need to vault contract to determine how many tokens belong to the user from this contract \n\tfunction close(address user, uint amountShares) external {\n\t\trequire(msg.sender == address(VAULT), \"!vault\"); \n\t\t//swap all LP tokens back to underlying \n\t\tswapAndWithdraw(user, amountShares);   \n\t}\n\n\t//this function can be called by anyone if they notice that the vault needs to be rebalanced to avoid being liquidated \n\tfunction rebalance() public {\n\t\t(uint tenPercent, uint underlyingAmountInToken, uint borrowBalance) = rebalanceParams(); \n\t\t//get how much we have deposited by getting the underyling\n\t\t//check that current borrow balance does not exceed 85% of underlying (usd) amount\n\t\tif (borrowBalance > (underlyingAmountInToken * 85) / 100) {\n\t\t\tIERC20(WFTM).approve(crWFTM, tenPercent);  \n\t\t\tCERC20(crWFTM).repayBorrow(tenPercent); \n\t\t} else if (borrowBalance < (underlyingAmountInToken * 70) / 100) { \n\t\t\tCERC20(crWFTM).borrow(tenPercent); \n\t\t}\n\t\t//do nothing if not above or below the range \n\t}\n\n\tfunction rebalanceParams() internal returns(uint tenPercent, uint maxBorrow, uint borrowBalance) {\t\n\t\tIStdReference.ReferenceData memory data = priceOracle.getReferenceData(\"FTM\", \"USDC\"); //returns struct \n\t\tuint price = data.rate; \n\t\tuint underlyingAmountInToken = ((getUnderlying() * 1e18) / price) * 1e12; //returns 1e18 \n\n\t\ttenPercent = (underlyingAmountInToken * 10) / 100;\n\t\tmaxBorrow = (underlyingAmountInToken * 75) / 100; \n\t\tborrowBalance = CERC20(crWFTM).borrowBalanceCurrent(address(this)); \n\t\t\n\t\treturn (tenPercent, maxBorrow, borrowBalance); \n\t}\n\t\n\t//next we borrow WTFM from cream <= 75% so we don't get liquidated\n\t//cream allows for 75% collateral on deposits of USDC, but this 75% is on the 75% \n\t//so we are effectively borrowing ~55% of our deposit amount, which leaves room for price appreciation  \t\t\n\tfunction borrow(address user, uint amount) internal {\n\t\t//first check for any leftovers in the contract\n\t\tuint cTokensBefore = CERC20(crUSDC).balanceOf(address(this)); \n\n\t\t//supply USDC\n\t\tIERC20(USDC).approve(crUSDC, amount);  \n\t\tCERC20(crUSDC).mint(amount); \n\n\t\t//recheck cToken amount and store mint amount as deposit balance for withdraw later \n\t\tuint cTokensAfter = CERC20(crUSDC).balanceOf(address(this)); \n\t\tuint cTokenAmount = cTokensAfter - cTokensBefore; \n\t\tdepositBalance[user] += cTokenAmount; \n\t\tVAULT.storeCrTokens(user, cTokenAmount); \n\t\n\t\t//we enter the marker to use usdc as collateral \t\n\t\taddress[] memory cTokenSupplied = new address[](1); \n\t\tcTokenSupplied[0] = crUSDC; //cToken address\n\t\tcomptroller.enterMarkets(cTokenSupplied); \n\t\t\n\t\tuint borrowBalanceBefore = borrowBalance(); \t\n\t\t//get max borrow && borrow  \n\t\t( ,uint borrowAmount, ) = getBorrowAmount();\n\t\tCERC20(crWFTM).borrow(borrowAmount);  \n\t\t\n\t\t//rebalance if needed \n\t\trebalance(); \n\n\t\tuint borrowBalanceAfter = borrowBalance(); \n\t\ttokenBorrowBalance[user] += (borrowBalanceAfter - borrowBalanceBefore);   \n\t}\n\n\tfunction getBorrowAmount() public view returns(uint liquidity, uint borrowAmount, uint price) {\n\t\t(, liquidity,) = comptroller.getAccountLiquidity(address(this)); \n\t\tIStdReference.ReferenceData memory data = priceOracle.getReferenceData(\"FTM\", \"USDC\"); \n\t\tprice = data.rate; \n\n\t\tuint maxTokenBorrow = (liquidity * 10**18) / price; //wFTM has 18 decimals   \t\n\t\tborrowAmount = (maxTokenBorrow * 75) / 100; //this is token amount  \n\n\t\treturn (liquidity, borrowAmount, price); \n\t}\n\n\t//where amount is the percentage of LP tokens relative to the users USDC amount in vault \n\tfunction swapAndWithdraw(address user, uint amountShares) internal {\n\n\t\tuint strategyBalance = IERC20(address(this)).balanceOf(address(this)); //18 decimals \n\t\tuint totalShares = IERC20(address(VAULT)).totalSupply(); //8 decimals \n\n\t\tuint amountPerShare = (strategyBalance / totalShares);\n\t\tuint percentLP = amountPerShare * amountShares; //returns WAD scaled LP balance\n\n\t\t//handle rounding error case on big withdraw \n\t\tif (percentLP > strategyBalance) {\n\t\t\tpercentLP = strategyBalance; \n\t\t}\n\n\t\t//we first withdraw the LP tokens from TOMB  \n\t\t///we have to check the balances before and after the withdrawl in case there are leftovers \n\t\tuint amountBefore = IERC20(spookyFtmTombLP).balanceOf(address(this)); \n\n\t\tIMasterChef(tShareRewardPool).withdraw(0, percentLP);  \n\n\t\tuint amountAfter = IERC20(spookyFtmTombLP).balanceOf(address(this)); \n\t\tuint lpTokenAmount = amountAfter - amountBefore; \n\n\t\tremoveLiq(user, lpTokenAmount, amountShares); \n\t}\n\n\tfunction removeLiq(address user, uint lpTokenAmount, uint amountShares) internal {\t\t \n\t\t//we remove liquidity belonging to the user(amount) back for tomb + wftm \n\t\t(uint tombBefore, uint wftmBefore) = getIERC20Balance(); \n\n\t\tIERC20(spookyFtmTombLP).approve(spookyAddress, lpTokenAmount); \n\t\t(uint amountWftm, uint amountTomb) = IUniswapV2Router02(spookyAddress).removeLiquidity(\n\t\t\tWFTM,\n\t\t\tTOMB, \n\t\t\tlpTokenAmount,\n\t\t   \t1,\n\t\t   \t1,\n\t\t   \taddress(this),\n\t\t   \tblock.timestamp + 30\n\t\t); \n\n\t\t_burn(address(this), lpTokenAmount); \n\n\t\t(uint tombAfter, uint wftmAfter) = getIERC20Balance(); \n\t\tuint tombToSwap = tombAfter - tombBefore; \n\t\t\n\t\t//now we swap tomb back for wftm\n\t\t//only need to approve TOMB because wftm is not being swapped \n\t\tIERC20(TOMB).approve(spookyAddress, tombToSwap); \n\t\taddress[] memory path = new address[](2); \n\t\tpath[0] = TOMB; \n\t\tpath[1] = WFTM; \n\t\tuint[] memory amounts = spookyRouter.swapExactTokensForTokens(\n\t\t\ttombToSwap,\n\t\t\t0,\n\t\t\tpath,\n\t\t\taddress(this),\n\t\t\tblock.timestamp + 30\n\t\t);\n\t\tuint wftmAfterSwap = IERC20(WFTM).balanceOf(address(this));\n\n\t\t//next step\t\n\t\tswapBack(user, amountShares, wftmAfterSwap); \n\t}\n\t\n\tfunction swapBack(address user, uint amountShares, uint wftmAfterSwap) internal {\t\n\t\tdepositBalance[user] -= amountShares; \t\n\n\t\tuint profits; \n\t\tuint amountToRepay;\n\t\tif (wftmAfterSwap > tokenBorrowBalance[user]) {\n\t\t\tprofits = wftmAfterSwap - tokenBorrowBalance[user]; \n\t\t\tamountToRepay = tokenBorrowBalance[user]; \n\t\t\ttokenBorrowBalance[user] = 0; \n\t\t} else {\n\t\t\tprofits = 0; \n\t\t\tamountToRepay = wftmAfterSwap; \n\t\t\ttokenBorrowBalance[user] -= wftmAfterSwap; \n\t\t}\t\n\n\t\tuint fee = (amountShares * CREATOR_FEE) / 1e4; //1%\n\t\tuint redeemAmount = amountShares - fee; \n\n\t\t//case where last user has to withdraw and there are not enough funds to cover  \n\t\tif (redeemAmount > CERC20(crUSDC).balanceOf(address(this))) {\n\t\t\tredeemAmount = CERC20(crUSDC).balanceOf(address(this));  \n\t\t}\n\t\t\n\t\t//account for rounding errors if last person in vault wants to withdraw \n\t\tif (amountToRepay > borrowBalance()) {\n\t\t\tamountToRepay = borrowBalance(); \n\t\t}\n\n\t\t//now we can repay our users borrow\n\t\tIERC20(WFTM).approve(crWFTM, amountToRepay); //this is wftm token amount  \n\t\tCERC20(crWFTM).repayBorrow(amountToRepay); \t\n\n\t\t//redeem initial deposit amount + interest \n\t\tuint usdcBefore = IERC20(USDC).balanceOf(address(this)); \n\t\tCERC20(crUSDC).redeem(redeemAmount); \n\t\tuint usdcAfter = IERC20(USDC).balanceOf(address(this)); \n\n\t\tuint usdcAmount = usdcAfter - usdcBefore; \n\n\t\t//one final check for dust \n\t\tif (profits > IERC20(WFTM).balanceOf(address(this))) {\n\t\t\tprofits = IERC20(WFTM).balanceOf(address(this)); \n\t\t}\n\n\t\t//final step \n\t\tswapProfits(usdcAmount, profits); \n\t}\n\n\t//swap wftm for usdc and send back to vault\n\tfunction swapProfits(uint redeemedAmount, uint profits) internal {\t\n\t\tuint totalToSend; \n\n\t\tif (profits > 0) {\n\t\t\tuint usdcBefore = IERC20(USDC).balanceOf(address(this)); \n\t\t\tIERC20(WFTM).approve(spookyAddress, profits); \n\t\t\taddress[] memory path = new address[](2); \n\n\t\t\tpath[0] = WFTM; \n\t\t\tpath[1] = USDC; \n\t\t\tuint[] memory amounts = spookyRouter.swapExactTokensForTokens(\n\t\t\t\tprofits, \n\t\t\t\t0,\n\t\t\t\tpath,\n\t\t\t\taddress(this),\n\t\t\t\tblock.timestamp + 30 \n\t\t\t); \n\n\t\t\tuint usdcAfter = IERC20(USDC).balanceOf(address(this)); \n\t\t\tuint total = usdcAfter - usdcBefore; \n\t\t\ttotalToSend = total + redeemedAmount; \n\t\t} else {\n\n\t\t\ttotalToSend = redeemedAmount; \n\n\t\t}\n\n\t\tif (totalToSend > IERC20(USDC).balanceOf(address(this))) {\n\t\t\ttotalToSend = IERC20(USDC).balanceOf(address(this));  \n\t\t}\n\n\t\tIERC20(USDC).transfer(address(VAULT), totalToSend); \n\t}\n\n\t//then we send the funds to spookyswap where we sell 50% to tomb and then unwrap the rest \n\tfunction swap() internal { \n\t\t//swap 50% to TOMB & approve \n\t\tuint half = IERC20(WFTM).balanceOf(address(this)) * 50 / 100; \n\t\tIERC20(WFTM).approve(spookyAddress, half);\n\t\n \n         address[] memory path = new address[](2);\n         path[0] = WFTM;\n         path[1] = TOMB;\n         IUniswapV2Router02(spookyAddress).swapExactTokensForTokens(\n             half,\n             0,\n             path,\n             address(this),\n             block.timestamp\n\t\t ); \n\t }\n\n\tfunction sellAndSwap() internal {\n\t\t(uint tombBefore, uint wftmBefore) = getIERC20Balance(); \n\n\t\tuint tsharesInitial = tshareBalance(); \n\t\tuint harvestFee = chargeFeesOnHarvest(tsharesInitial); \n\t\tIERC20(TSHARE).transfer(address(VAULT), harvestFee); //goes to vault and will be swapped for gas  \n\n\t\tuint tshares = tshareBalance(); //update amount \n\t\tuint half = (tshares * 50) / 100; \n\t\tIERC20(TSHARE).approve(spookyAddress, tshares); \n\n\t\taddress[] memory pathToTomb = new address[](3); \n\t\tpathToTomb[0] = TSHARE;  \n\t\tpathToTomb[1] = WFTM; \n\t\tpathToTomb[2] = TOMB; \n\t\tspookyRouter.swapExactTokensForTokens(\n\t\t\thalf,\n\t\t\t0,\n\t\t\tpathToTomb,\n\t\t\taddress(this),\n\t\t\tblock.timestamp + 30\n\t\t); \n\t\n\t\t//swap rest to WFTM \n\t\t//call again to avoid rounding errors \n\t\tuint rest = tshareBalance();  \n\t \taddress[] memory pathToWftm = new address[](2); \n\t \tpathToWftm[0] = TSHARE; \n\t \tpathToWftm[1] = WFTM; \n\t \tspookyRouter.swapExactTokensForTokens(\n\t \t\trest,\n\t \t\t0,\n\t \t\tpathToWftm,\n\t \t\taddress(this),\n\t \t\tblock.timestamp + 30\n\t \t); \n\t\t\n\t\t(uint tombAfter, uint wftmAfter) = getIERC20Balance(); \t\n\t\tuint tombToSend = tombAfter - tombBefore; \n\t\tuint wftmToSend = wftmAfter - wftmBefore; \t\n\t}\n\n\tfunction getLPTokens() internal {\n\t\t//we need to approve the router to spend our TOMB\n\t\tuint tombAmount = IERC20(TOMB).balanceOf(address(this)); \n\t\tuint ftmAmount = IERC20(WFTM).balanceOf(address(this));  \n\n\t\t//now we add liquidity \n\t\t//@params token, tokenAmount, minToken, minETH, to, deadline\n\t\tIERC20(TOMB).approve(spookyAddress, tombAmount); \n\t\tIERC20(WFTM).approve(spookyAddress, ftmAmount); \n\t\tIUniswapV2Router02(spookyAddress).addLiquidity(TOMB, WFTM, tombAmount, ftmAmount, 1, 1, address(this), block.timestamp + 30); \n\t}\n\n\tfunction depositLPGetTShare() internal {\n\t\t//deposit into tshare vault using _pid but idk how to get that currently \t\n\t\tuint lpTokenBalance = IERC20(spookyFtmTombLP).balanceOf(address(this)); \n\n\t\t_mint(address(this), lpTokenBalance); \n\n\t\t//after this deposit the contract should be earning tshares as a reward \n\t\tIERC20(spookyFtmTombLP).approve(tShareRewardPool, lpTokenBalance); \n\t\tIMasterChef(tShareRewardPool).deposit(0, lpTokenBalance); //FTM-TOMB pool ID is 0 on Tomb.finance  \n\t}\n\n\tfunction chargeFeesOnHarvest(uint amount) internal view returns(uint feeAmount) {\n\t\treturn feeAmount = (amount * CREATOR_FEE) / 1e4; //0.1 or 1% \n\t}\n\n\tfunction getIERC20Balance() internal view returns(uint amountTomb, uint amountWftm) {\n\t\tamountTomb = IERC20(TOMB).balanceOf(address(this)); \n\t\tamountWftm = IERC20(WFTM).balanceOf(address(this)); \n\t\treturn (amountTomb, amountWftm); \n\t}\n\n\tfunction getUnderlying() public returns(uint) {\n\t\treturn CERC20(crUSDC).balanceOfUnderlying(address(this)); //this returns the underlying USDC amount in 6 decimals \n\t}\n\n\tfunction borrowBalance() public returns(uint) {\n\t\treturn CERC20(crWFTM).borrowBalanceCurrent(address(this)); \n\t}\n\n\tfunction tshareBalance() public view returns(uint) {\n\t\treturn IERC20(TSHARE).balanceOf(address(this)); \n\t}\n\n\treceive() external payable{} \t\n} \n",
  "sourcePath": "/home/kevin/Code/solidity_projects/djinn/contracts/strategies/ShortFarmFTM.sol",
  "compiler": {
    "name": "solc",
    "version": "0.8.10+commit.fc410830.Emscripten.clang"
  },
  "schemaVersion": "3.4.3",
  "updatedAt": "2022-02-21T18:44:46.983Z",
  "networkType": "ethereum",
  "devdoc": {
    "kind": "dev",
    "methods": {
      "allowance(address,address)": {
        "details": "See {IERC20-allowance}."
      },
      "approve(address,uint256)": {
        "details": "See {IERC20-approve}. Requirements: - `spender` cannot be the zero address."
      },
      "balanceOf(address)": {
        "details": "See {IERC20-balanceOf}."
      },
      "decimals()": {
        "details": "Returns the number of decimals used to get its user representation. For example, if `decimals` equals `2`, a balance of `505` tokens should be displayed to a user as `5.05` (`505 / 10 ** 2`). Tokens usually opt for a value of 18, imitating the relationship between Ether and Wei. This is the value {ERC20} uses, unless this function is overridden; NOTE: This information is only used for _display_ purposes: it in no way affects any of the arithmetic of the contract, including {IERC20-balanceOf} and {IERC20-transfer}."
      },
      "decreaseAllowance(address,uint256)": {
        "details": "Atomically decreases the allowance granted to `spender` by the caller. This is an alternative to {approve} that can be used as a mitigation for problems described in {IERC20-approve}. Emits an {Approval} event indicating the updated allowance. Requirements: - `spender` cannot be the zero address. - `spender` must have allowance for the caller of at least `subtractedValue`."
      },
      "increaseAllowance(address,uint256)": {
        "details": "Atomically increases the allowance granted to `spender` by the caller. This is an alternative to {approve} that can be used as a mitigation for problems described in {IERC20-approve}. Emits an {Approval} event indicating the updated allowance. Requirements: - `spender` cannot be the zero address."
      },
      "name()": {
        "details": "Returns the name of the token."
      },
      "symbol()": {
        "details": "Returns the symbol of the token, usually a shorter version of the name."
      },
      "totalSupply()": {
        "details": "See {IERC20-totalSupply}."
      },
      "transfer(address,uint256)": {
        "details": "See {IERC20-transfer}. Requirements: - `recipient` cannot be the zero address. - the caller must have a balance of at least `amount`."
      },
      "transferFrom(address,address,uint256)": {
        "details": "See {IERC20-transferFrom}. Emits an {Approval} event indicating the updated allowance. This is not required by the EIP. See the note at the beginning of {ERC20}. Requirements: - `sender` and `recipient` cannot be the zero address. - `sender` must have a balance of at least `amount`. - the caller must have allowance for ``sender``'s tokens of at least `amount`."
      }
    },
    "version": 1
  },
  "userdoc": {
    "kind": "user",
    "methods": {},
    "version": 1
  }
}