{
  "contractName": "ShortFarmFTM",
  "abi": [
    {
      "inputs": [
        {
          "internalType": "contract DjinnBottleUSDC",
          "name": "_djBottle",
          "type": "address"
        },
        {
          "internalType": "contract IUniswapV2Router02",
          "name": "_spookyRouter",
          "type": "address"
        },
        {
          "internalType": "contract ComptrollerInterface",
          "name": "_comptroller",
          "type": "address"
        },
        {
          "internalType": "contract IStdReference",
          "name": "_priceOracle",
          "type": "address"
        },
        {
          "internalType": "contract CERC20",
          "name": "_cERC20",
          "type": "address"
        }
      ],
      "stateMutability": "nonpayable",
      "type": "constructor"
    },
    {
      "anonymous": false,
      "inputs": [
        {
          "indexed": true,
          "internalType": "address",
          "name": "owner",
          "type": "address"
        },
        {
          "indexed": true,
          "internalType": "address",
          "name": "spender",
          "type": "address"
        },
        {
          "indexed": false,
          "internalType": "uint256",
          "name": "value",
          "type": "uint256"
        }
      ],
      "name": "Approval",
      "type": "event"
    },
    {
      "anonymous": false,
      "inputs": [
        {
          "indexed": true,
          "internalType": "address",
          "name": "from",
          "type": "address"
        },
        {
          "indexed": true,
          "internalType": "address",
          "name": "to",
          "type": "address"
        },
        {
          "indexed": false,
          "internalType": "uint256",
          "name": "value",
          "type": "uint256"
        }
      ],
      "name": "Transfer",
      "type": "event"
    },
    {
      "inputs": [],
      "name": "TOMB",
      "outputs": [
        {
          "internalType": "address",
          "name": "",
          "type": "address"
        }
      ],
      "stateMutability": "view",
      "type": "function",
      "constant": true
    },
    {
      "inputs": [],
      "name": "TSHARE",
      "outputs": [
        {
          "internalType": "address",
          "name": "",
          "type": "address"
        }
      ],
      "stateMutability": "view",
      "type": "function",
      "constant": true
    },
    {
      "inputs": [],
      "name": "USDC",
      "outputs": [
        {
          "internalType": "address",
          "name": "",
          "type": "address"
        }
      ],
      "stateMutability": "view",
      "type": "function",
      "constant": true
    },
    {
      "inputs": [],
      "name": "VAULT",
      "outputs": [
        {
          "internalType": "contract DjinnBottleUSDC",
          "name": "",
          "type": "address"
        }
      ],
      "stateMutability": "view",
      "type": "function",
      "constant": true
    },
    {
      "inputs": [],
      "name": "WFTM",
      "outputs": [
        {
          "internalType": "address",
          "name": "",
          "type": "address"
        }
      ],
      "stateMutability": "view",
      "type": "function",
      "constant": true
    },
    {
      "inputs": [
        {
          "internalType": "address",
          "name": "owner",
          "type": "address"
        },
        {
          "internalType": "address",
          "name": "spender",
          "type": "address"
        }
      ],
      "name": "allowance",
      "outputs": [
        {
          "internalType": "uint256",
          "name": "",
          "type": "uint256"
        }
      ],
      "stateMutability": "view",
      "type": "function",
      "constant": true
    },
    {
      "inputs": [
        {
          "internalType": "address",
          "name": "spender",
          "type": "address"
        },
        {
          "internalType": "uint256",
          "name": "amount",
          "type": "uint256"
        }
      ],
      "name": "approve",
      "outputs": [
        {
          "internalType": "bool",
          "name": "",
          "type": "bool"
        }
      ],
      "stateMutability": "nonpayable",
      "type": "function"
    },
    {
      "inputs": [],
      "name": "ass",
      "outputs": [
        {
          "internalType": "uint256",
          "name": "",
          "type": "uint256"
        }
      ],
      "stateMutability": "view",
      "type": "function",
      "constant": true
    },
    {
      "inputs": [
        {
          "internalType": "address",
          "name": "account",
          "type": "address"
        }
      ],
      "name": "balanceOf",
      "outputs": [
        {
          "internalType": "uint256",
          "name": "",
          "type": "uint256"
        }
      ],
      "stateMutability": "view",
      "type": "function",
      "constant": true
    },
    {
      "inputs": [],
      "name": "balls",
      "outputs": [
        {
          "internalType": "uint256",
          "name": "",
          "type": "uint256"
        }
      ],
      "stateMutability": "view",
      "type": "function",
      "constant": true
    },
    {
      "inputs": [],
      "name": "comptroller",
      "outputs": [
        {
          "internalType": "contract ComptrollerInterface",
          "name": "",
          "type": "address"
        }
      ],
      "stateMutability": "view",
      "type": "function",
      "constant": true
    },
    {
      "inputs": [],
      "name": "crUSDC",
      "outputs": [
        {
          "internalType": "address",
          "name": "",
          "type": "address"
        }
      ],
      "stateMutability": "view",
      "type": "function",
      "constant": true
    },
    {
      "inputs": [],
      "name": "crWFTM",
      "outputs": [
        {
          "internalType": "contract CERC20",
          "name": "",
          "type": "address"
        }
      ],
      "stateMutability": "view",
      "type": "function",
      "constant": true
    },
    {
      "inputs": [],
      "name": "creator",
      "outputs": [
        {
          "internalType": "address",
          "name": "",
          "type": "address"
        }
      ],
      "stateMutability": "view",
      "type": "function",
      "constant": true
    },
    {
      "inputs": [],
      "name": "decimals",
      "outputs": [
        {
          "internalType": "uint8",
          "name": "",
          "type": "uint8"
        }
      ],
      "stateMutability": "view",
      "type": "function",
      "constant": true
    },
    {
      "inputs": [
        {
          "internalType": "address",
          "name": "spender",
          "type": "address"
        },
        {
          "internalType": "uint256",
          "name": "subtractedValue",
          "type": "uint256"
        }
      ],
      "name": "decreaseAllowance",
      "outputs": [
        {
          "internalType": "bool",
          "name": "",
          "type": "bool"
        }
      ],
      "stateMutability": "nonpayable",
      "type": "function"
    },
    {
      "inputs": [
        {
          "internalType": "address",
          "name": "",
          "type": "address"
        }
      ],
      "name": "depositBalance",
      "outputs": [
        {
          "internalType": "uint256",
          "name": "",
          "type": "uint256"
        }
      ],
      "stateMutability": "view",
      "type": "function",
      "constant": true
    },
    {
      "inputs": [
        {
          "internalType": "address",
          "name": "spender",
          "type": "address"
        },
        {
          "internalType": "uint256",
          "name": "addedValue",
          "type": "uint256"
        }
      ],
      "name": "increaseAllowance",
      "outputs": [
        {
          "internalType": "bool",
          "name": "",
          "type": "bool"
        }
      ],
      "stateMutability": "nonpayable",
      "type": "function"
    },
    {
      "inputs": [],
      "name": "name",
      "outputs": [
        {
          "internalType": "string",
          "name": "",
          "type": "string"
        }
      ],
      "stateMutability": "view",
      "type": "function",
      "constant": true
    },
    {
      "inputs": [],
      "name": "priceOracle",
      "outputs": [
        {
          "internalType": "contract IStdReference",
          "name": "",
          "type": "address"
        }
      ],
      "stateMutability": "view",
      "type": "function",
      "constant": true
    },
    {
      "inputs": [],
      "name": "spookyAddress",
      "outputs": [
        {
          "internalType": "address",
          "name": "",
          "type": "address"
        }
      ],
      "stateMutability": "view",
      "type": "function",
      "constant": true
    },
    {
      "inputs": [],
      "name": "spookyFtmTombLP",
      "outputs": [
        {
          "internalType": "address",
          "name": "",
          "type": "address"
        }
      ],
      "stateMutability": "view",
      "type": "function",
      "constant": true
    },
    {
      "inputs": [],
      "name": "spookyRouter",
      "outputs": [
        {
          "internalType": "contract IUniswapV2Router02",
          "name": "",
          "type": "address"
        }
      ],
      "stateMutability": "view",
      "type": "function",
      "constant": true
    },
    {
      "inputs": [],
      "name": "symbol",
      "outputs": [
        {
          "internalType": "string",
          "name": "",
          "type": "string"
        }
      ],
      "stateMutability": "view",
      "type": "function",
      "constant": true
    },
    {
      "inputs": [],
      "name": "tShareRewardPool",
      "outputs": [
        {
          "internalType": "address",
          "name": "",
          "type": "address"
        }
      ],
      "stateMutability": "view",
      "type": "function",
      "constant": true
    },
    {
      "inputs": [],
      "name": "totalSupply",
      "outputs": [
        {
          "internalType": "uint256",
          "name": "",
          "type": "uint256"
        }
      ],
      "stateMutability": "view",
      "type": "function",
      "constant": true
    },
    {
      "inputs": [
        {
          "internalType": "address",
          "name": "recipient",
          "type": "address"
        },
        {
          "internalType": "uint256",
          "name": "amount",
          "type": "uint256"
        }
      ],
      "name": "transfer",
      "outputs": [
        {
          "internalType": "bool",
          "name": "",
          "type": "bool"
        }
      ],
      "stateMutability": "nonpayable",
      "type": "function"
    },
    {
      "inputs": [
        {
          "internalType": "address",
          "name": "sender",
          "type": "address"
        },
        {
          "internalType": "address",
          "name": "recipient",
          "type": "address"
        },
        {
          "internalType": "uint256",
          "name": "amount",
          "type": "uint256"
        }
      ],
      "name": "transferFrom",
      "outputs": [
        {
          "internalType": "bool",
          "name": "",
          "type": "bool"
        }
      ],
      "stateMutability": "nonpayable",
      "type": "function"
    },
    {
      "stateMutability": "payable",
      "type": "receive",
      "payable": true
    },
    {
      "inputs": [
        {
          "internalType": "address",
          "name": "user",
          "type": "address"
        },
        {
          "internalType": "uint256",
          "name": "amount",
          "type": "uint256"
        }
      ],
      "name": "open",
      "outputs": [],
      "stateMutability": "nonpayable",
      "type": "function"
    },
    {
      "inputs": [],
      "name": "harvest",
      "outputs": [],
      "stateMutability": "nonpayable",
      "type": "function"
    },
    {
      "inputs": [
        {
          "internalType": "address",
          "name": "user",
          "type": "address"
        },
        {
          "internalType": "uint256",
          "name": "amountShares",
          "type": "uint256"
        }
      ],
      "name": "close",
      "outputs": [],
      "stateMutability": "nonpayable",
      "type": "function"
    },
    {
      "inputs": [],
      "name": "getBorrowAmount",
      "outputs": [
        {
          "internalType": "uint256",
          "name": "liquidity",
          "type": "uint256"
        },
        {
          "internalType": "uint256",
          "name": "borrowAmount",
          "type": "uint256"
        },
        {
          "internalType": "uint256",
          "name": "price",
          "type": "uint256"
        }
      ],
      "stateMutability": "view",
      "type": "function",
      "constant": true
    },
    {
      "inputs": [],
      "name": "vaultBalance",
      "outputs": [
        {
          "internalType": "uint256",
          "name": "",
          "type": "uint256"
        }
      ],
      "stateMutability": "nonpayable",
      "type": "function"
    },
    {
      "inputs": [],
      "name": "getUnderlying",
      "outputs": [
        {
          "internalType": "uint256",
          "name": "",
          "type": "uint256"
        }
      ],
      "stateMutability": "nonpayable",
      "type": "function"
    },
    {
      "inputs": [],
      "name": "borrowBalance",
      "outputs": [
        {
          "internalType": "uint256",
          "name": "",
          "type": "uint256"
        }
      ],
      "stateMutability": "nonpayable",
      "type": "function"
    }
  ],
  "bytecode": "0x6101006040523480156200001257600080fd5b50604051620057d6380380620057d683398181016040528101906200003891906200043c565b6040518060400160405280601c81526020017f446a696e6e2046696e616e63652046544d2053686f7274204661726d000000008152506040518060400160405280600a81526020017f646646544d53686f7274000000000000000000000000000000000000000000008152508160039080519060200190620000bc929190620001fa565b508060049080519060200190620000d5929190620001fa565b505050600033905085600660006101000a81548173ffffffffffffffffffffffffffffffffffffffff021916908373ffffffffffffffffffffffffffffffffffffffff1602179055508473ffffffffffffffffffffffffffffffffffffffff1660808173ffffffffffffffffffffffffffffffffffffffff16815250508373ffffffffffffffffffffffffffffffffffffffff1660a08173ffffffffffffffffffffffffffffffffffffffff16815250508273ffffffffffffffffffffffffffffffffffffffff1660c08173ffffffffffffffffffffffffffffffffffffffff16815250508173ffffffffffffffffffffffffffffffffffffffff1660e08173ffffffffffffffffffffffffffffffffffffffff168152505050505050505062000529565b8280546200020890620004f3565b90600052602060002090601f0160209004810192826200022c576000855562000278565b82601f106200024757805160ff191683800117855562000278565b8280016001018555821562000278579182015b82811115620002775782518255916020019190600101906200025a565b5b5090506200028791906200028b565b5090565b5b80821115620002a65760008160009055506001016200028c565b5090565b600080fd5b600073ffffffffffffffffffffffffffffffffffffffff82169050919050565b6000620002dc82620002af565b9050919050565b6000620002f082620002cf565b9050919050565b6200030281620002e3565b81146200030e57600080fd5b50565b6000815190506200032281620002f7565b92915050565b60006200033582620002cf565b9050919050565b620003478162000328565b81146200035357600080fd5b50565b60008151905062000367816200033c565b92915050565b60006200037a82620002cf565b9050919050565b6200038c816200036d565b81146200039857600080fd5b50565b600081519050620003ac8162000381565b92915050565b6000620003bf82620002cf565b9050919050565b620003d181620003b2565b8114620003dd57600080fd5b50565b600081519050620003f181620003c6565b92915050565b60006200040482620002cf565b9050919050565b6200041681620003f7565b81146200042257600080fd5b50565b60008151905062000436816200040b565b92915050565b600080600080600060a086880312156200045b576200045a620002aa565b5b60006200046b8882890162000311565b95505060206200047e8882890162000356565b945050604062000491888289016200039b565b9350506060620004a488828901620003e0565b9250506080620004b78882890162000425565b9150509295509295909350565b7f4e487b7100000000000000000000000000000000000000000000000000000000600052602260045260246000fd5b600060028204905060018216806200050c57607f821691505b60208210811415620005235762000522620004c4565b5b50919050565b60805160a05160c05160e051615226620005b060003960008181610ae101528181610c17015281816119d5015281816139b90152613a3c015260008181610cb801528181610fa40152613752015260008181610f000152818161108a015261192501526000818161112c015281816127450152818161298b015261369801526152266000f3fe6080604052600436106102085760003560e01c80635fe3b567116101185780639cdd8ee7116100a0578063b5ee45c11161006f578063b5ee45c114610788578063c139acfa146107b3578063dd62ed3e146107de578063e08c39881461081b578063e49280cb146108465761020f565b80639cdd8ee7146106b8578063a457c2d7146106e3578063a6f8d40514610720578063a9059cbb1461074b5761020f565b806389a30271116100e757806389a30271146105cf5780638ed8ea7e146105fa578063956501bb1461062557806395d89b41146106625780639816f4731461068d5761020f565b80635fe3b5671461051157806366f2addc1461053c57806370a082311461056757806382c70bbf146105a45761020f565b806323b872dd1161019b578063313ce5671161016a578063313ce5671461043a5780633950935114610465578063411557d1146104a25780634641257d146104cd5780634fbb30ed146104e45761020f565b806323b872dd1461037c578063243cd14e146103b95780632630c12f146103e45780632c1c18361461040f5761020f565b80630bf6cc08116101d75780630bf6cc08146102d057806318160ddd146102fb5780631882bf441461032657806321dbe876146103515761020f565b806302d05d3f1461021457806306fdde031461023f578063095ea7b31461026a5780630a0e5c9d146102a75761020f565b3661020f57005b600080fd5b34801561022057600080fd5b5061022961086f565b6040516102369190613dcb565b60405180910390f35b34801561024b57600080fd5b50610254610895565b6040516102619190613e7f565b60405180910390f35b34801561027657600080fd5b50610291600480360381019061028c9190613f17565b610927565b60405161029e9190613f72565b60405180910390f35b3480156102b357600080fd5b506102ce60048036038101906102c99190613f17565b610945565b005b3480156102dc57600080fd5b506102e56109fb565b6040516102f29190613f9c565b60405180910390f35b34801561030757600080fd5b50610310610ad5565b60405161031d9190613f9c565b60405180910390f35b34801561033257600080fd5b5061033b610adf565b6040516103489190614016565b60405180910390f35b34801561035d57600080fd5b50610366610b03565b6040516103739190613dcb565b60405180910390f35b34801561038857600080fd5b506103a3600480360381019061039e9190614031565b610b1b565b6040516103b09190613f72565b60405180910390f35b3480156103c557600080fd5b506103ce610c13565b6040516103db9190613f9c565b60405180910390f35b3480156103f057600080fd5b506103f9610cb6565b60405161040691906140a5565b60405180910390f35b34801561041b57600080fd5b50610424610cda565b6040516104319190613dcb565b60405180910390f35b34801561044657600080fd5b5061044f610cf2565b60405161045c91906140dc565b60405180910390f35b34801561047157600080fd5b5061048c60048036038101906104879190613f17565b610cfb565b6040516104999190613f72565b60405180910390f35b3480156104ae57600080fd5b506104b7610da7565b6040516104c49190614118565b60405180910390f35b3480156104d957600080fd5b506104e2610dcd565b005b3480156104f057600080fd5b506104f9610ef9565b60405161050893929190614133565b60405180910390f35b34801561051d57600080fd5b50610526611088565b604051610533919061418b565b60405180910390f35b34801561054857600080fd5b506105516110ac565b60405161055e9190613f9c565b60405180910390f35b34801561057357600080fd5b5061058e600480360381019061058991906141a6565b6110b2565b60405161059b9190613f9c565b60405180910390f35b3480156105b057600080fd5b506105b96110fa565b6040516105c69190613dcb565b60405180910390f35b3480156105db57600080fd5b506105e4611112565b6040516105f19190613dcb565b60405180910390f35b34801561060657600080fd5b5061060f61112a565b60405161061c91906141f4565b60405180910390f35b34801561063157600080fd5b5061064c600480360381019061064791906141a6565b61114e565b6040516106599190613f9c565b60405180910390f35b34801561066e57600080fd5b50610677611166565b6040516106849190613e7f565b60405180910390f35b34801561069957600080fd5b506106a26111f8565b6040516106af9190613f9c565b60405180910390f35b3480156106c457600080fd5b506106cd61128f565b6040516106da9190613dcb565b60405180910390f35b3480156106ef57600080fd5b5061070a60048036038101906107059190613f17565b6112a7565b6040516107179190613f72565b60405180910390f35b34801561072c57600080fd5b50610735611392565b6040516107429190613dcb565b60405180910390f35b34801561075757600080fd5b50610772600480360381019061076d9190613f17565b6113aa565b60405161077f9190613f72565b60405180910390f35b34801561079457600080fd5b5061079d6113c8565b6040516107aa9190613dcb565b60405180910390f35b3480156107bf57600080fd5b506107c86113e0565b6040516107d59190613dcb565b60405180910390f35b3480156107ea57600080fd5b506108056004803603810190610800919061420f565b6113f8565b6040516108129190613f9c565b60405180910390f35b34801561082757600080fd5b5061083061147f565b60405161083d9190613f9c565b60405180910390f35b34801561085257600080fd5b5061086d60048036038101906108689190613f17565b611485565b005b600560009054906101000a900473ffffffffffffffffffffffffffffffffffffffff1681565b6060600380546108a49061427e565b80601f01602080910402602001604051908101604052809291908181526020018280546108d09061427e565b801561091d5780601f106108f25761010080835404028352916020019161091d565b820191906000526020600020905b81548152906001019060200180831161090057829003601f168201915b5050505050905090565b600061093b610934611523565b848461152b565b6001905092915050565b600660009054906101000a900473ffffffffffffffffffffffffffffffffffffffff1673ffffffffffffffffffffffffffffffffffffffff163373ffffffffffffffffffffffffffffffffffffffff16146109d5576040517f08c379a00000000000000000000000000000000000000000000000000000000081526004016109cc906142fc565b60405180910390fd5b6109df82826116f6565b6109e7611a76565b6109ef611d7e565b6109f76120ca565b5050565b6000807304068da6c83afcfa0e13ba15a6696662335d5b7573ffffffffffffffffffffffffffffffffffffffff166370a08231600660009054906101000a900473ffffffffffffffffffffffffffffffffffffffff166040518263ffffffff1660e01b8152600401610a6d9190613dcb565b602060405180830381865afa158015610a8a573d6000803e3d6000fd5b505050506040513d601f19601f82011682018060405250810190610aae9190614331565b90506000610aba6111f8565b905060008183610aca919061438d565b905080935050505090565b6000600254905090565b7f000000000000000000000000000000000000000000000000000000000000000081565b7321be370d5312f44cb42ce377bc9b8a0cef1a4c8381565b6000610b28848484612292565b6000600160008673ffffffffffffffffffffffffffffffffffffffff1673ffffffffffffffffffffffffffffffffffffffff1681526020019081526020016000206000610b73611523565b73ffffffffffffffffffffffffffffffffffffffff1673ffffffffffffffffffffffffffffffffffffffff16815260200190815260200160002054905082811015610bf3576040517f08c379a0000000000000000000000000000000000000000000000000000000008152600401610bea90614455565b60405180910390fd5b610c0785610bff611523565b85840361152b565b60019150509392505050565b60007f000000000000000000000000000000000000000000000000000000000000000073ffffffffffffffffffffffffffffffffffffffff166317bfdfbc306040518263ffffffff1660e01b8152600401610c6e9190613dcb565b6020604051808303816000875af1158015610c8d573d6000803e3d6000fd5b505050506040513d601f19601f82011682018060405250810190610cb19190614331565b905090565b7f000000000000000000000000000000000000000000000000000000000000000081565b73cc0a87f7e7c693042a9cc703661f5060c80acb4381565b60006012905090565b6000610d9d610d08611523565b848460016000610d16611523565b73ffffffffffffffffffffffffffffffffffffffff1673ffffffffffffffffffffffffffffffffffffffff16815260200190815260200160002060008873ffffffffffffffffffffffffffffffffffffffff1673ffffffffffffffffffffffffffffffffffffffff16815260200190815260200160002054610d98919061438d565b61152b565b6001905092915050565b600660009054906101000a900473ffffffffffffffffffffffffffffffffffffffff1681565b600660009054906101000a900473ffffffffffffffffffffffffffffffffffffffff1673ffffffffffffffffffffffffffffffffffffffff163373ffffffffffffffffffffffffffffffffffffffff1614610e5d576040517f08c379a0000000000000000000000000000000000000000000000000000000008152600401610e54906144c1565b60405180910390fd5b73cc0a87f7e7c693042a9cc703661f5060c80acb4373ffffffffffffffffffffffffffffffffffffffff1663e2bbb1586000806040518363ffffffff1660e01b8152600401610ead92919061451c565b600060405180830381600087803b158015610ec757600080fd5b505af1158015610edb573d6000803e3d6000fd5b50505050610ee7612513565b610eef611d7e565b610ef76120ca565b565b60008060007f000000000000000000000000000000000000000000000000000000000000000073ffffffffffffffffffffffffffffffffffffffff16635ec88c79306040518263ffffffff1660e01b8152600401610f579190613dcb565b606060405180830381865afa158015610f74573d6000803e3d6000fd5b505050506040513d601f19601f82011682018060405250810190610f989190614545565b909150508093505060007f000000000000000000000000000000000000000000000000000000000000000073ffffffffffffffffffffffffffffffffffffffff166365555bcc6040518163ffffffff1660e01b8152600401610ff990614630565b606060405180830381865afa158015611016573d6000803e3d6000fd5b505050506040513d601f19601f8201168201806040525081019061103a9190614747565b905080600001519150600082670de0b6b3a76400008661105a9190614774565b61106491906147fd565b90506064604b826110759190614774565b61107f91906147fd565b93505050909192565b7f000000000000000000000000000000000000000000000000000000000000000081565b60095481565b60008060008373ffffffffffffffffffffffffffffffffffffffff1673ffffffffffffffffffffffffffffffffffffffff168152602001908152602001600020549050919050565b73328a7b4d538a2b3942653a9983fda3c12c57114181565b7304068da6c83afcfa0e13ba15a6696662335d5b7581565b7f000000000000000000000000000000000000000000000000000000000000000081565b60076020528060005260406000206000915090505481565b6060600480546111759061427e565b80601f01602080910402602001604051908101604052809291908181526020018280546111a19061427e565b80156111ee5780601f106111c3576101008083540402835291602001916111ee565b820191906000526020600020905b8154815290600101906020018083116111d157829003601f168201915b5050505050905090565b600073328a7b4d538a2b3942653a9983fda3c12c57114173ffffffffffffffffffffffffffffffffffffffff16633af9e669306040518263ffffffff1660e01b81526004016112479190613dcb565b6020604051808303816000875af1158015611266573d6000803e3d6000fd5b505050506040513d601f19601f8201168201806040525081019061128a9190614331565b905090565b732a651563c9d3af67ae0388a5c8f89b867038089e81565b600080600160006112b6611523565b73ffffffffffffffffffffffffffffffffffffffff1673ffffffffffffffffffffffffffffffffffffffff16815260200190815260200160002060008573ffffffffffffffffffffffffffffffffffffffff1673ffffffffffffffffffffffffffffffffffffffff16815260200190815260200160002054905082811015611373576040517f08c379a000000000000000000000000000000000000000000000000000000000815260040161136a906148a0565b60405180910390fd5b61138761137e611523565b8585840361152b565b600191505092915050565b73f491e7b69e4244ad4002bc14e878a34207e38c2981565b60006113be6113b7611523565b8484612292565b6001905092915050565b734cdf39285d7ca8eb3f090fda0c069ba5f4145b3781565b736c021ae822bea943b2e66552bde1d2696a53fbb781565b6000600160008473ffffffffffffffffffffffffffffffffffffffff1673ffffffffffffffffffffffffffffffffffffffff16815260200190815260200160002060008373ffffffffffffffffffffffffffffffffffffffff1673ffffffffffffffffffffffffffffffffffffffff16815260200190815260200160002054905092915050565b60085481565b600660009054906101000a900473ffffffffffffffffffffffffffffffffffffffff1673ffffffffffffffffffffffffffffffffffffffff163373ffffffffffffffffffffffffffffffffffffffff1614611515576040517f08c379a000000000000000000000000000000000000000000000000000000000815260040161150c906142fc565b60405180910390fd5b61151f8282612bea565b5050565b600033905090565b600073ffffffffffffffffffffffffffffffffffffffff168373ffffffffffffffffffffffffffffffffffffffff16141561159b576040517f08c379a000000000000000000000000000000000000000000000000000000000815260040161159290614932565b60405180910390fd5b600073ffffffffffffffffffffffffffffffffffffffff168273ffffffffffffffffffffffffffffffffffffffff16141561160b576040517f08c379a0000000000000000000000000000000000000000000000000000000008152600401611602906149c4565b60405180910390fd5b80600160008573ffffffffffffffffffffffffffffffffffffffff1673ffffffffffffffffffffffffffffffffffffffff16815260200190815260200160002060008473ffffffffffffffffffffffffffffffffffffffff1673ffffffffffffffffffffffffffffffffffffffff168152602001908152602001600020819055508173ffffffffffffffffffffffffffffffffffffffff168373ffffffffffffffffffffffffffffffffffffffff167f8c5be1e5ebec7d5bd14f71427d1e84f3dd0314c0f7b2291e5b200ac8c7c3b925836040516116e99190613f9c565b60405180910390a3505050565b80600760008473ffffffffffffffffffffffffffffffffffffffff1673ffffffffffffffffffffffffffffffffffffffff168152602001908152602001600020819055507304068da6c83afcfa0e13ba15a6696662335d5b7573ffffffffffffffffffffffffffffffffffffffff1663095ea7b373328a7b4d538a2b3942653a9983fda3c12c571141836040518363ffffffff1660e01b815260040161179d9291906149e4565b6020604051808303816000875af11580156117bc573d6000803e3d6000fd5b505050506040513d601f19601f820116820180604052508101906117e09190614a39565b5073328a7b4d538a2b3942653a9983fda3c12c57114173ffffffffffffffffffffffffffffffffffffffff1663a0712d68826040518263ffffffff1660e01b815260040161182e9190613f9c565b6020604051808303816000875af115801561184d573d6000803e3d6000fd5b505050506040513d601f19601f820116820180604052508101906118719190614331565b506000600167ffffffffffffffff81111561188f5761188e614668565b5b6040519080825280602002602001820160405280156118bd5781602001602082028036833780820191505090505b50905073328a7b4d538a2b3942653a9983fda3c12c571141816000815181106118e9576118e8614a66565b5b602002602001019073ffffffffffffffffffffffffffffffffffffffff16908173ffffffffffffffffffffffffffffffffffffffff16815250507f000000000000000000000000000000000000000000000000000000000000000073ffffffffffffffffffffffffffffffffffffffff1663c2998238826040518263ffffffff1660e01b815260040161197c9190614b53565b6000604051808303816000875af115801561199b573d6000803e3d6000fd5b505050506040513d6000823e3d601f19601f820116820180604052508101906119c49190614c42565b5060006119cf610ef9565b509150507f000000000000000000000000000000000000000000000000000000000000000073ffffffffffffffffffffffffffffffffffffffff1663c5ebeaec826040518263ffffffff1660e01b8152600401611a2c9190613f9c565b6020604051808303816000875af1158015611a4b573d6000803e3d6000fd5b505050506040513d601f19601f82011682018060405250810190611a6f9190614331565b5050505050565b6000606460327321be370d5312f44cb42ce377bc9b8a0cef1a4c8373ffffffffffffffffffffffffffffffffffffffff166370a08231306040518263ffffffff1660e01b8152600401611ac99190613dcb565b602060405180830381865afa158015611ae6573d6000803e3d6000fd5b505050506040513d601f19601f82011682018060405250810190611b0a9190614331565b611b149190614774565b611b1e91906147fd565b90507321be370d5312f44cb42ce377bc9b8a0cef1a4c8373ffffffffffffffffffffffffffffffffffffffff1663095ea7b373f491e7b69e4244ad4002bc14e878a34207e38c29836040518363ffffffff1660e01b8152600401611b839291906149e4565b6020604051808303816000875af1158015611ba2573d6000803e3d6000fd5b505050506040513d601f19601f82011682018060405250810190611bc69190614a39565b506000600267ffffffffffffffff811115611be457611be3614668565b5b604051908082528060200260200182016040528015611c125781602001602082028036833780820191505090505b5090507321be370d5312f44cb42ce377bc9b8a0cef1a4c8381600081518110611c3e57611c3d614a66565b5b602002602001019073ffffffffffffffffffffffffffffffffffffffff16908173ffffffffffffffffffffffffffffffffffffffff1681525050736c021ae822bea943b2e66552bde1d2696a53fbb781600181518110611ca157611ca0614a66565b5b602002602001019073ffffffffffffffffffffffffffffffffffffffff16908173ffffffffffffffffffffffffffffffffffffffff168152505073f491e7b69e4244ad4002bc14e878a34207e38c2973ffffffffffffffffffffffffffffffffffffffff166338ed17398360008430426040518663ffffffff1660e01b8152600401611d31959493929190614c8b565b6000604051808303816000875af1158015611d50573d6000803e3d6000fd5b505050506040513d6000823e3d601f19601f82011682018060405250810190611d799190614c42565b505050565b6000736c021ae822bea943b2e66552bde1d2696a53fbb773ffffffffffffffffffffffffffffffffffffffff166370a08231306040518263ffffffff1660e01b8152600401611dcd9190613dcb565b602060405180830381865afa158015611dea573d6000803e3d6000fd5b505050506040513d601f19601f82011682018060405250810190611e0e9190614331565b905060007321be370d5312f44cb42ce377bc9b8a0cef1a4c8373ffffffffffffffffffffffffffffffffffffffff166370a08231306040518263ffffffff1660e01b8152600401611e5f9190613dcb565b602060405180830381865afa158015611e7c573d6000803e3d6000fd5b505050506040513d601f19601f82011682018060405250810190611ea09190614331565b9050736c021ae822bea943b2e66552bde1d2696a53fbb773ffffffffffffffffffffffffffffffffffffffff1663095ea7b373f491e7b69e4244ad4002bc14e878a34207e38c29846040518363ffffffff1660e01b8152600401611f059291906149e4565b6020604051808303816000875af1158015611f24573d6000803e3d6000fd5b505050506040513d601f19601f82011682018060405250810190611f489190614a39565b507321be370d5312f44cb42ce377bc9b8a0cef1a4c8373ffffffffffffffffffffffffffffffffffffffff1663095ea7b373f491e7b69e4244ad4002bc14e878a34207e38c29836040518363ffffffff1660e01b8152600401611fac9291906149e4565b6020604051808303816000875af1158015611fcb573d6000803e3d6000fd5b505050506040513d601f19601f82011682018060405250810190611fef9190614a39565b5073f491e7b69e4244ad4002bc14e878a34207e38c2973ffffffffffffffffffffffffffffffffffffffff1663e8e33700736c021ae822bea943b2e66552bde1d2696a53fbb77321be370d5312f44cb42ce377bc9b8a0cef1a4c83858560018030601e4261205d919061438d565b6040518963ffffffff1660e01b8152600401612080989796959493929190614d20565b6060604051808303816000875af115801561209f573d6000803e3d6000fd5b505050506040513d601f19601f820116820180604052508101906120c39190614545565b5050505050565b6000732a651563c9d3af67ae0388a5c8f89b867038089e73ffffffffffffffffffffffffffffffffffffffff166370a08231306040518263ffffffff1660e01b81526004016121199190613dcb565b602060405180830381865afa158015612136573d6000803e3d6000fd5b505050506040513d601f19601f8201168201806040525081019061215a9190614331565b90506121663082612ea9565b732a651563c9d3af67ae0388a5c8f89b867038089e73ffffffffffffffffffffffffffffffffffffffff1663095ea7b373cc0a87f7e7c693042a9cc703661f5060c80acb43836040518363ffffffff1660e01b81526004016121c99291906149e4565b6020604051808303816000875af11580156121e8573d6000803e3d6000fd5b505050506040513d601f19601f8201168201806040525081019061220c9190614a39565b5073cc0a87f7e7c693042a9cc703661f5060c80acb4373ffffffffffffffffffffffffffffffffffffffff1663e2bbb1586000836040518363ffffffff1660e01b815260040161225d929190614d9e565b600060405180830381600087803b15801561227757600080fd5b505af115801561228b573d6000803e3d6000fd5b5050505050565b600073ffffffffffffffffffffffffffffffffffffffff168373ffffffffffffffffffffffffffffffffffffffff161415612302576040517f08c379a00000000000000000000000000000000000000000000000000000000081526004016122f990614e39565b60405180910390fd5b600073ffffffffffffffffffffffffffffffffffffffff168273ffffffffffffffffffffffffffffffffffffffff161415612372576040517f08c379a000000000000000000000000000000000000000000000000000000000815260040161236990614ecb565b60405180910390fd5b61237d838383613009565b60008060008573ffffffffffffffffffffffffffffffffffffffff1673ffffffffffffffffffffffffffffffffffffffff16815260200190815260200160002054905081811015612403576040517f08c379a00000000000000000000000000000000000000000000000000000000081526004016123fa90614f5d565b60405180910390fd5b8181036000808673ffffffffffffffffffffffffffffffffffffffff1673ffffffffffffffffffffffffffffffffffffffff16815260200190815260200160002081905550816000808573ffffffffffffffffffffffffffffffffffffffff1673ffffffffffffffffffffffffffffffffffffffff1681526020019081526020016000206000828254612496919061438d565b925050819055508273ffffffffffffffffffffffffffffffffffffffff168473ffffffffffffffffffffffffffffffffffffffff167fddf252ad1be2c89b69c2b068fc378daa952ba7f163c4a11628f55a4df523b3ef846040516124fa9190613f9c565b60405180910390a361250d84848461300e565b50505050565b60008061251e613013565b91509150600060646032734cdf39285d7ca8eb3f090fda0c069ba5f4145b3773ffffffffffffffffffffffffffffffffffffffff166370a08231306040518263ffffffff1660e01b81526004016125759190613dcb565b602060405180830381865afa158015612592573d6000803e3d6000fd5b505050506040513d601f19601f820116820180604052508101906125b69190614331565b6125c09190614774565b6125ca91906147fd565b90506000600367ffffffffffffffff8111156125e9576125e8614668565b5b6040519080825280602002602001820160405280156126175781602001602082028036833780820191505090505b509050734cdf39285d7ca8eb3f090fda0c069ba5f4145b378160008151811061264357612642614a66565b5b602002602001019073ffffffffffffffffffffffffffffffffffffffff16908173ffffffffffffffffffffffffffffffffffffffff16815250507321be370d5312f44cb42ce377bc9b8a0cef1a4c83816001815181106126a6576126a5614a66565b5b602002602001019073ffffffffffffffffffffffffffffffffffffffff16908173ffffffffffffffffffffffffffffffffffffffff1681525050736c021ae822bea943b2e66552bde1d2696a53fbb78160028151811061270957612708614a66565b5b602002602001019073ffffffffffffffffffffffffffffffffffffffff16908173ffffffffffffffffffffffffffffffffffffffff16815250507f000000000000000000000000000000000000000000000000000000000000000073ffffffffffffffffffffffffffffffffffffffff16635c11d7958360008430601e42612791919061438d565b6040518663ffffffff1660e01b81526004016127b1959493929190614c8b565b600060405180830381600087803b1580156127cb57600080fd5b505af11580156127df573d6000803e3d6000fd5b505050506000734cdf39285d7ca8eb3f090fda0c069ba5f4145b3773ffffffffffffffffffffffffffffffffffffffff166370a08231306040518263ffffffff1660e01b81526004016128329190613dcb565b602060405180830381865afa15801561284f573d6000803e3d6000fd5b505050506040513d601f19601f820116820180604052508101906128739190614331565b90506000600267ffffffffffffffff81111561289257612891614668565b5b6040519080825280602002602001820160405280156128c05781602001602082028036833780820191505090505b509050734cdf39285d7ca8eb3f090fda0c069ba5f4145b37816000815181106128ec576128eb614a66565b5b602002602001019073ffffffffffffffffffffffffffffffffffffffff16908173ffffffffffffffffffffffffffffffffffffffff16815250507321be370d5312f44cb42ce377bc9b8a0cef1a4c838160018151811061294f5761294e614a66565b5b602002602001019073ffffffffffffffffffffffffffffffffffffffff16908173ffffffffffffffffffffffffffffffffffffffff16815250507f000000000000000000000000000000000000000000000000000000000000000073ffffffffffffffffffffffffffffffffffffffff16635c11d7958360008430601e426129d7919061438d565b6040518663ffffffff1660e01b81526004016129f7959493929190614c8b565b600060405180830381600087803b158015612a1157600080fd5b505af1158015612a25573d6000803e3d6000fd5b50505050600080612a34613013565b9150915060008883612a469190614f7d565b905060008883612a569190614f7d565b90506000612a638361313a565b90506000612a708361313a565b9050736c021ae822bea943b2e66552bde1d2696a53fbb773ffffffffffffffffffffffffffffffffffffffff1663a9059cbb600660009054906101000a900473ffffffffffffffffffffffffffffffffffffffff16846040518363ffffffff1660e01b8152600401612ae39291906149e4565b6020604051808303816000875af1158015612b02573d6000803e3d6000fd5b505050506040513d601f19601f82011682018060405250810190612b269190614a39565b507321be370d5312f44cb42ce377bc9b8a0cef1a4c8373ffffffffffffffffffffffffffffffffffffffff1663a9059cbb600660009054906101000a900473ffffffffffffffffffffffffffffffffffffffff16836040518363ffffffff1660e01b8152600401612b989291906149e4565b6020604051808303816000875af1158015612bb7573d6000803e3d6000fd5b505050506040513d601f19601f82011682018060405250810190612bdb9190614a39565b50505050505050505050505050565b60003073ffffffffffffffffffffffffffffffffffffffff166370a08231306040518263ffffffff1660e01b8152600401612c259190613dcb565b602060405180830381865afa158015612c42573d6000803e3d6000fd5b505050506040513d601f19601f82011682018060405250810190612c669190614331565b90506000612c726109fb565b90506000838284612c839190614774565b612c8d91906147fd565b905082811115612c9b578290505b6000732a651563c9d3af67ae0388a5c8f89b867038089e73ffffffffffffffffffffffffffffffffffffffff166370a08231306040518263ffffffff1660e01b8152600401612cea9190613dcb565b602060405180830381865afa158015612d07573d6000803e3d6000fd5b505050506040513d601f19601f82011682018060405250810190612d2b9190614331565b905073cc0a87f7e7c693042a9cc703661f5060c80acb4373ffffffffffffffffffffffffffffffffffffffff1663441a3e706000846040518363ffffffff1660e01b8152600401612d7d929190614d9e565b600060405180830381600087803b158015612d9757600080fd5b505af1158015612dab573d6000803e3d6000fd5b505050506000732a651563c9d3af67ae0388a5c8f89b867038089e73ffffffffffffffffffffffffffffffffffffffff166370a08231306040518263ffffffff1660e01b8152600401612dfe9190613dcb565b602060405180830381865afa158015612e1b573d6000803e3d6000fd5b505050506040513d601f19601f82011682018060405250810190612e3f9190614331565b905060008282612e4f9190614f7d565b905086600760008a73ffffffffffffffffffffffffffffffffffffffff1673ffffffffffffffffffffffffffffffffffffffff16815260200190815260200160002081905550612e9f8882613169565b5050505050505050565b600073ffffffffffffffffffffffffffffffffffffffff168273ffffffffffffffffffffffffffffffffffffffff161415612f19576040517f08c379a0000000000000000000000000000000000000000000000000000000008152600401612f1090614ffd565b60405180910390fd5b612f2560008383613009565b8060026000828254612f37919061438d565b92505081905550806000808473ffffffffffffffffffffffffffffffffffffffff1673ffffffffffffffffffffffffffffffffffffffff1681526020019081526020016000206000828254612f8c919061438d565b925050819055508173ffffffffffffffffffffffffffffffffffffffff16600073ffffffffffffffffffffffffffffffffffffffff167fddf252ad1be2c89b69c2b068fc378daa952ba7f163c4a11628f55a4df523b3ef83604051612ff19190613f9c565b60405180910390a36130056000838361300e565b5050565b505050565b505050565b600080736c021ae822bea943b2e66552bde1d2696a53fbb773ffffffffffffffffffffffffffffffffffffffff166370a08231306040518263ffffffff1660e01b81526004016130639190613dcb565b602060405180830381865afa158015613080573d6000803e3d6000fd5b505050506040513d601f19601f820116820180604052508101906130a49190614331565b91507321be370d5312f44cb42ce377bc9b8a0cef1a4c8373ffffffffffffffffffffffffffffffffffffffff166370a08231306040518263ffffffff1660e01b81526004016130f39190613dcb565b602060405180830381865afa158015613110573d6000803e3d6000fd5b505050506040513d601f19601f820116820180604052508101906131349190614331565b90509091565b60006064612710606461314d91906147fd565b836131589190614774565b6131629190614774565b9050919050565b732a651563c9d3af67ae0388a5c8f89b867038089e73ffffffffffffffffffffffffffffffffffffffff1663095ea7b373f491e7b69e4244ad4002bc14e878a34207e38c29836040518363ffffffff1660e01b81526004016131cc9291906149e4565b6020604051808303816000875af11580156131eb573d6000803e3d6000fd5b505050506040513d601f19601f8201168201806040525081019061320f9190614a39565b5060008073f491e7b69e4244ad4002bc14e878a34207e38c2973ffffffffffffffffffffffffffffffffffffffff1663baa2abde7321be370d5312f44cb42ce377bc9b8a0cef1a4c83736c021ae822bea943b2e66552bde1d2696a53fbb78660018030601e4261327f919061438d565b6040518863ffffffff1660e01b81526004016132a1979695949392919061501d565b60408051808303816000875af11580156132bf573d6000803e3d6000fd5b505050506040513d601f19601f820116820180604052508101906132e3919061508c565b915091506132f13084613302565b6132fc8483836134d9565b50505050565b600073ffffffffffffffffffffffffffffffffffffffff168273ffffffffffffffffffffffffffffffffffffffff161415613372576040517f08c379a00000000000000000000000000000000000000000000000000000000081526004016133699061513e565b60405180910390fd5b61337e82600083613009565b60008060008473ffffffffffffffffffffffffffffffffffffffff1673ffffffffffffffffffffffffffffffffffffffff16815260200190815260200160002054905081811015613404576040517f08c379a00000000000000000000000000000000000000000000000000000000081526004016133fb906151d0565b60405180910390fd5b8181036000808573ffffffffffffffffffffffffffffffffffffffff1673ffffffffffffffffffffffffffffffffffffffff16815260200190815260200160002081905550816002600082825461345b9190614f7d565b92505081905550600073ffffffffffffffffffffffffffffffffffffffff168373ffffffffffffffffffffffffffffffffffffffff167fddf252ad1be2c89b69c2b068fc378daa952ba7f163c4a11628f55a4df523b3ef846040516134c09190613f9c565b60405180910390a36134d48360008461300e565b505050565b736c021ae822bea943b2e66552bde1d2696a53fbb773ffffffffffffffffffffffffffffffffffffffff1663095ea7b373f491e7b69e4244ad4002bc14e878a34207e38c29836040518363ffffffff1660e01b815260040161353c9291906149e4565b6020604051808303816000875af115801561355b573d6000803e3d6000fd5b505050506040513d601f19601f8201168201806040525081019061357f9190614a39565b506000600267ffffffffffffffff81111561359d5761359c614668565b5b6040519080825280602002602001820160405280156135cb5781602001602082028036833780820191505090505b509050736c021ae822bea943b2e66552bde1d2696a53fbb7816000815181106135f7576135f6614a66565b5b602002602001019073ffffffffffffffffffffffffffffffffffffffff16908173ffffffffffffffffffffffffffffffffffffffff16815250507321be370d5312f44cb42ce377bc9b8a0cef1a4c838160018151811061365a57613659614a66565b5b602002602001019073ffffffffffffffffffffffffffffffffffffffff16908173ffffffffffffffffffffffffffffffffffffffff168152505060007f000000000000000000000000000000000000000000000000000000000000000073ffffffffffffffffffffffffffffffffffffffff166338ed17398460008530601e426136e4919061438d565b6040518663ffffffff1660e01b8152600401613704959493929190614c8b565b6000604051808303816000875af1158015613723573d6000803e3d6000fd5b505050506040513d6000823e3d601f19601f8201168201806040525081019061374c9190614c42565b905060007f000000000000000000000000000000000000000000000000000000000000000073ffffffffffffffffffffffffffffffffffffffff166365555bcc6040518163ffffffff1660e01b81526004016137a790614630565b606060405180830381865afa1580156137c4573d6000803e3d6000fd5b505050506040513d601f19601f820116820180604052508101906137e89190614747565b9050600082600081518110613800576137ff614a66565b5b602002602001015186613813919061438d565b905060007321be370d5312f44cb42ce377bc9b8a0cef1a4c8373ffffffffffffffffffffffffffffffffffffffff166370a08231306040518263ffffffff1660e01b81526004016138649190613dcb565b602060405180830381865afa158015613881573d6000803e3d6000fd5b505050506040513d601f19601f820116820180604052508101906138a59190614331565b90508082106138b2578091505b6000620f4240670de0b6b3a764000085600001516138d091906147fd565b670de0b6b3a7640000856138e491906147fd565b6138ee9190614774565b6138f89190614774565b9050600081600760008c73ffffffffffffffffffffffffffffffffffffffff1673ffffffffffffffffffffffffffffffffffffffff168152602001908152602001600020546139479190614f7d565b905060008282613957919061438d565b9050600061271060648361396b9190614774565b61397591906147fd565b9050600081836139859190614f7d565b90507321be370d5312f44cb42ce377bc9b8a0cef1a4c8373ffffffffffffffffffffffffffffffffffffffff1663095ea7b37f0000000000000000000000000000000000000000000000000000000000000000896040518363ffffffff1660e01b81526004016139f69291906149e4565b6020604051808303816000875af1158015613a15573d6000803e3d6000fd5b505050506040513d601f19601f82011682018060405250810190613a399190614a39565b507f000000000000000000000000000000000000000000000000000000000000000073ffffffffffffffffffffffffffffffffffffffff16630e752702886040518263ffffffff1660e01b8152600401613a939190613f9c565b6020604051808303816000875af1158015613ab2573d6000803e3d6000fd5b505050506040513d601f19601f82011682018060405250810190613ad69190614331565b5060007304068da6c83afcfa0e13ba15a6696662335d5b7573ffffffffffffffffffffffffffffffffffffffff166370a08231306040518263ffffffff1660e01b8152600401613b269190613dcb565b602060405180830381865afa158015613b43573d6000803e3d6000fd5b505050506040513d601f19601f82011682018060405250810190613b679190614331565b9050613b716111f8565b8210613b8257613b7f6111f8565b91505b8060088190555073328a7b4d538a2b3942653a9983fda3c12c57114173ffffffffffffffffffffffffffffffffffffffff1663852a12e3836040518263ffffffff1660e01b8152600401613bd69190613f9c565b6020604051808303816000875af1158015613bf5573d6000803e3d6000fd5b505050506040513d601f19601f82011682018060405250810190613c199190614331565b5060007304068da6c83afcfa0e13ba15a6696662335d5b7573ffffffffffffffffffffffffffffffffffffffff166370a08231306040518263ffffffff1660e01b8152600401613c699190613dcb565b602060405180830381865afa158015613c86573d6000803e3d6000fd5b505050506040513d601f19601f82011682018060405250810190613caa9190614331565b90508060098190555060008282613cc19190614f7d565b90507304068da6c83afcfa0e13ba15a6696662335d5b7573ffffffffffffffffffffffffffffffffffffffff1663a9059cbb600660009054906101000a900473ffffffffffffffffffffffffffffffffffffffff16836040518363ffffffff1660e01b8152600401613d349291906149e4565b6020604051808303816000875af1158015613d53573d6000803e3d6000fd5b505050506040513d601f19601f82011682018060405250810190613d779190614a39565b5050505050505050505050505050505050565b600073ffffffffffffffffffffffffffffffffffffffff82169050919050565b6000613db582613d8a565b9050919050565b613dc581613daa565b82525050565b6000602082019050613de06000830184613dbc565b92915050565b600081519050919050565b600082825260208201905092915050565b60005b83811015613e20578082015181840152602081019050613e05565b83811115613e2f576000848401525b50505050565b6000601f19601f8301169050919050565b6000613e5182613de6565b613e5b8185613df1565b9350613e6b818560208601613e02565b613e7481613e35565b840191505092915050565b60006020820190508181036000830152613e998184613e46565b905092915050565b6000604051905090565b600080fd5b600080fd5b613ebe81613daa565b8114613ec957600080fd5b50565b600081359050613edb81613eb5565b92915050565b6000819050919050565b613ef481613ee1565b8114613eff57600080fd5b50565b600081359050613f1181613eeb565b92915050565b60008060408385031215613f2e57613f2d613eab565b5b6000613f3c85828601613ecc565b9250506020613f4d85828601613f02565b9150509250929050565b60008115159050919050565b613f6c81613f57565b82525050565b6000602082019050613f876000830184613f63565b92915050565b613f9681613ee1565b82525050565b6000602082019050613fb16000830184613f8d565b92915050565b6000819050919050565b6000613fdc613fd7613fd284613d8a565b613fb7565b613d8a565b9050919050565b6000613fee82613fc1565b9050919050565b600061400082613fe3565b9050919050565b61401081613ff5565b82525050565b600060208201905061402b6000830184614007565b92915050565b60008060006060848603121561404a57614049613eab565b5b600061405886828701613ecc565b935050602061406986828701613ecc565b925050604061407a86828701613f02565b9150509250925092565b600061408f82613fe3565b9050919050565b61409f81614084565b82525050565b60006020820190506140ba6000830184614096565b92915050565b600060ff82169050919050565b6140d6816140c0565b82525050565b60006020820190506140f160008301846140cd565b92915050565b600061410282613fe3565b9050919050565b614112816140f7565b82525050565b600060208201905061412d6000830184614109565b92915050565b60006060820190506141486000830186613f8d565b6141556020830185613f8d565b6141626040830184613f8d565b949350505050565b600061417582613fe3565b9050919050565b6141858161416a565b82525050565b60006020820190506141a0600083018461417c565b92915050565b6000602082840312156141bc576141bb613eab565b5b60006141ca84828501613ecc565b91505092915050565b60006141de82613fe3565b9050919050565b6141ee816141d3565b82525050565b600060208201905061420960008301846141e5565b92915050565b6000806040838503121561422657614225613eab565b5b600061423485828601613ecc565b925050602061424585828601613ecc565b9150509250929050565b7f4e487b7100000000000000000000000000000000000000000000000000000000600052602260045260246000fd5b6000600282049050600182168061429657607f821691505b602082108114156142aa576142a961424f565b5b50919050565b7f217661756c740000000000000000000000000000000000000000000000000000600082015250565b60006142e6600683613df1565b91506142f1826142b0565b602082019050919050565b60006020820190508181036000830152614315816142d9565b9050919050565b60008151905061432b81613eeb565b92915050565b60006020828403121561434757614346613eab565b5b60006143558482850161431c565b91505092915050565b7f4e487b7100000000000000000000000000000000000000000000000000000000600052601160045260246000fd5b600061439882613ee1565b91506143a383613ee1565b9250827fffffffffffffffffffffffffffffffffffffffffffffffffffffffffffffffff038211156143d8576143d761435e565b5b828201905092915050565b7f45524332303a207472616e7366657220616d6f756e742065786365656473206160008201527f6c6c6f77616e6365000000000000000000000000000000000000000000000000602082015250565b600061443f602883613df1565b915061444a826143e3565b604082019050919050565b6000602082019050818103600083015261446e81614432565b9050919050565b7f7661756c74000000000000000000000000000000000000000000000000000000600082015250565b60006144ab600583613df1565b91506144b682614475565b602082019050919050565b600060208201905081810360008301526144da8161449e565b9050919050565b6000819050919050565b60006145066145016144fc846144e1565b613fb7565b613ee1565b9050919050565b614516816144eb565b82525050565b6000604082019050614531600083018561450d565b61453e602083018461450d565b9392505050565b60008060006060848603121561455e5761455d613eab565b5b600061456c8682870161431c565b935050602061457d8682870161431c565b925050604061458e8682870161431c565b9150509250925092565b7f46544d0000000000000000000000000000000000000000000000000000000000600082015250565b60006145ce600383613df1565b91506145d982614598565b602082019050919050565b7f5553444300000000000000000000000000000000000000000000000000000000600082015250565b600061461a600483613df1565b9150614625826145e4565b602082019050919050565b60006040820190508181036000830152614649816145c1565b9050818103602083015261465c8161460d565b9050919050565b600080fd5b7f4e487b7100000000000000000000000000000000000000000000000000000000600052604160045260246000fd5b6146a082613e35565b810181811067ffffffffffffffff821117156146bf576146be614668565b5b80604052505050565b60006146d2613ea1565b90506146de8282614697565b919050565b6000606082840312156146f9576146f8614663565b5b61470360606146c8565b905060006147138482850161431c565b60008301525060206147278482850161431c565b602083015250604061473b8482850161431c565b60408301525092915050565b60006060828403121561475d5761475c613eab565b5b600061476b848285016146e3565b91505092915050565b600061477f82613ee1565b915061478a83613ee1565b9250817fffffffffffffffffffffffffffffffffffffffffffffffffffffffffffffffff04831182151516156147c3576147c261435e565b5b828202905092915050565b7f4e487b7100000000000000000000000000000000000000000000000000000000600052601260045260246000fd5b600061480882613ee1565b915061481383613ee1565b925082614823576148226147ce565b5b828204905092915050565b7f45524332303a2064656372656173656420616c6c6f77616e63652062656c6f7760008201527f207a65726f000000000000000000000000000000000000000000000000000000602082015250565b600061488a602583613df1565b91506148958261482e565b604082019050919050565b600060208201905081810360008301526148b98161487d565b9050919050565b7f45524332303a20617070726f76652066726f6d20746865207a65726f2061646460008201527f7265737300000000000000000000000000000000000000000000000000000000602082015250565b600061491c602483613df1565b9150614927826148c0565b604082019050919050565b6000602082019050818103600083015261494b8161490f565b9050919050565b7f45524332303a20617070726f766520746f20746865207a65726f20616464726560008201527f7373000000000000000000000000000000000000000000000000000000000000602082015250565b60006149ae602283613df1565b91506149b982614952565b604082019050919050565b600060208201905081810360008301526149dd816149a1565b9050919050565b60006040820190506149f96000830185613dbc565b614a066020830184613f8d565b9392505050565b614a1681613f57565b8114614a2157600080fd5b50565b600081519050614a3381614a0d565b92915050565b600060208284031215614a4f57614a4e613eab565b5b6000614a5d84828501614a24565b91505092915050565b7f4e487b7100000000000000000000000000000000000000000000000000000000600052603260045260246000fd5b600081519050919050565b600082825260208201905092915050565b6000819050602082019050919050565b614aca81613daa565b82525050565b6000614adc8383614ac1565b60208301905092915050565b6000602082019050919050565b6000614b0082614a95565b614b0a8185614aa0565b9350614b1583614ab1565b8060005b83811015614b46578151614b2d8882614ad0565b9750614b3883614ae8565b925050600181019050614b19565b5085935050505092915050565b60006020820190508181036000830152614b6d8184614af5565b905092915050565b600080fd5b600067ffffffffffffffff821115614b9557614b94614668565b5b602082029050602081019050919050565b600080fd5b6000614bbe614bb984614b7a565b6146c8565b90508083825260208201905060208402830185811115614be157614be0614ba6565b5b835b81811015614c0a5780614bf6888261431c565b845260208401935050602081019050614be3565b5050509392505050565b600082601f830112614c2957614c28614b75565b5b8151614c39848260208601614bab565b91505092915050565b600060208284031215614c5857614c57613eab565b5b600082015167ffffffffffffffff811115614c7657614c75613eb0565b5b614c8284828501614c14565b91505092915050565b600060a082019050614ca06000830188613f8d565b614cad602083018761450d565b8181036040830152614cbf8186614af5565b9050614cce6060830185613dbc565b614cdb6080830184613f8d565b9695505050505050565b6000819050919050565b6000614d0a614d05614d0084614ce5565b613fb7565b613ee1565b9050919050565b614d1a81614cef565b82525050565b600061010082019050614d36600083018b613dbc565b614d43602083018a613dbc565b614d506040830189613f8d565b614d5d6060830188613f8d565b614d6a6080830187614d11565b614d7760a0830186614d11565b614d8460c0830185613dbc565b614d9160e0830184613f8d565b9998505050505050505050565b6000604082019050614db3600083018561450d565b614dc06020830184613f8d565b9392505050565b7f45524332303a207472616e736665722066726f6d20746865207a65726f20616460008201527f6472657373000000000000000000000000000000000000000000000000000000602082015250565b6000614e23602583613df1565b9150614e2e82614dc7565b604082019050919050565b60006020820190508181036000830152614e5281614e16565b9050919050565b7f45524332303a207472616e7366657220746f20746865207a65726f206164647260008201527f6573730000000000000000000000000000000000000000000000000000000000602082015250565b6000614eb5602383613df1565b9150614ec082614e59565b604082019050919050565b60006020820190508181036000830152614ee481614ea8565b9050919050565b7f45524332303a207472616e7366657220616d6f756e742065786365656473206260008201527f616c616e63650000000000000000000000000000000000000000000000000000602082015250565b6000614f47602683613df1565b9150614f5282614eeb565b604082019050919050565b60006020820190508181036000830152614f7681614f3a565b9050919050565b6000614f8882613ee1565b9150614f9383613ee1565b925082821015614fa657614fa561435e565b5b828203905092915050565b7f45524332303a206d696e7420746f20746865207a65726f206164647265737300600082015250565b6000614fe7601f83613df1565b9150614ff282614fb1565b602082019050919050565b6000602082019050818103600083015261501681614fda565b9050919050565b600060e082019050615032600083018a613dbc565b61503f6020830189613dbc565b61504c6040830188613f8d565b6150596060830187614d11565b6150666080830186614d11565b61507360a0830185613dbc565b61508060c0830184613f8d565b98975050505050505050565b600080604083850312156150a3576150a2613eab565b5b60006150b18582860161431c565b92505060206150c28582860161431c565b9150509250929050565b7f45524332303a206275726e2066726f6d20746865207a65726f2061646472657360008201527f7300000000000000000000000000000000000000000000000000000000000000602082015250565b6000615128602183613df1565b9150615133826150cc565b604082019050919050565b600060208201905081810360008301526151578161511b565b9050919050565b7f45524332303a206275726e20616d6f756e7420657863656564732062616c616e60008201527f6365000000000000000000000000000000000000000000000000000000000000602082015250565b60006151ba602283613df1565b91506151c58261515e565b604082019050919050565b600060208201905081810360008301526151e9816151ad565b905091905056fea264697066735822122032c0ea854e3c647533eedb6c5e0a6295120e34706ea432acf55010c5b160f51a64736f6c634300080a0033",
  "immutableReferences": {
    "2069": [
      {
        "length": 32,
        "start": 4396
      },
      {
        "length": 32,
        "start": 10053
      },
      {
        "length": 32,
        "start": 10635
      },
      {
        "length": 32,
        "start": 13976
      }
    ],
    "2072": [
      {
        "length": 32,
        "start": 3840
      },
      {
        "length": 32,
        "start": 4234
      },
      {
        "length": 32,
        "start": 6437
      }
    ],
    "2075": [
      {
        "length": 32,
        "start": 3256
      },
      {
        "length": 32,
        "start": 4004
      },
      {
        "length": 32,
        "start": 14162
      }
    ],
    "2078": [
      {
        "length": 32,
        "start": 2785
      },
      {
        "length": 32,
        "start": 3095
      },
      {
        "length": 32,
        "start": 6613
      },
      {
        "length": 32,
        "start": 14777
      },
      {
        "length": 32,
        "start": 14908
      }
    ]
  },
  "source": "pragma solidity ^0.8.10; \npragma abicoder v2;  \n\nimport \"../DjinnBottleUSDC.sol\"; \nimport \"../interfaces/CTokenInterfaces.sol\"; \nimport \"../interfaces/ComptrollerInterface.sol\";  \nimport \"../interfaces/IStdReference.sol\"; \nimport \"@uniswap/v2-periphery/contracts/interfaces/IUniswapV2Router02.sol\"; \nimport \"../interfaces/IMasterChef.sol\"; \nimport \"@openzeppelin/contracts/token/ERC20/IERC20.sol\"; \n\n\ncontract ShortFarmFTM is ERC20 {\n\t\n\t//Contract Specifics \n\taddress public creator; \n\tuint private constant CREATOR_FEE = 100; //1% \n\tDjinnBottleUSDC public VAULT; \n\n\tmapping(address => uint) public depositBalance;\n\tuint public ass; \n\tuint public balls; \n\t//Cream Finance Contracts \n\taddress public constant crUSDC = 0x328A7b4d538A2b3942653a9983fdA3C12c571141; \n\n\t//Public Tokens\n\taddress public constant USDC = 0x04068DA6C83AFCFA0e13ba15A6696662335D5B75; \n\taddress public constant WFTM = 0x21be370D5312f44cB42ce377BC9b8a0cEF1A4C83; \n\taddress public constant TOMB = 0x6c021Ae822BEa943b2E66552bDe1D2696a53fbB7; \n\taddress public constant TSHARE = 0x4cdF39285D7Ca8eB3f090fDA0C069ba5F4145B37; \n\t\n\t//SpookySwap Router, LP, TSHAREPool \n\taddress public constant spookyAddress = 0xF491e7B69E4244ad4002BC14e878a34207E38c29;\t\t\n\taddress public constant spookyFtmTombLP = 0x2A651563C9d3Af67aE0388a5c8F89b867038089e; \n\taddress public constant tShareRewardPool = 0xcc0a87F7e7c693042a9Cc703661F5060c80ACb43; \n\n\n\t//Contract Interfaces  \n\tIUniswapV2Router02 public immutable spookyRouter; \n\tComptrollerInterface public immutable comptroller; \n\tIStdReference public immutable priceOracle;\n\tCERC20 public immutable crWFTM; \t\n\t\n\n\n\tconstructor(DjinnBottleUSDC _djBottle, \t\n\t\t\t\tIUniswapV2Router02 _spookyRouter, \n\t\t\t\tComptrollerInterface _comptroller, \n\t\t\t\tIStdReference _priceOracle,\n\t\t\t\tCERC20 _cERC20) ERC20(\"Djinn Finance FTM Short Farm\", \"dfFTMShort\") {\n\t\t\t\t\taddress creator = msg.sender;\n\t\t\t\t\tVAULT = _djBottle; \n\t\t\t\t\tspookyRouter = _spookyRouter; \n\t\t\t\t\tcomptroller = _comptroller;  \n\t\t\t\t\tpriceOracle = _priceOracle; \n\t\t\t\t\tcrWFTM = _cERC20; \n\t\t\t\t}\n\t\n\t//automate opening a position\n\t//designed for single user ie. user opens via vault contract \t\n\tfunction open(address user, uint amount) external {\n\t\trequire(msg.sender == address(VAULT), \"!vault\"); \n\t\tborrow(user, amount); //same amount in USDC to keep track of how many tokens we have supplied \n\t\tswap(); //swap half of bal to TOMB and unwrap the rest to FTM \n\t\tgetLPTokens(); //get FTM-TOMB LP tokens \t\n\t\tdepositLPGetTShare(); //deposit LP tokens on TOMB to earn TSHARE\n\t}\n\n\t//automate the harvest \n\tfunction harvest() external {\n\t\trequire(msg.sender == address(VAULT), \"vault\"); \n\t\tIMasterChef(tShareRewardPool).deposit(0, 0); //0 is poolId and we call a deposit of 0 to allocate the shares to this contract\n\t\tsellAndSwap(); //sell tshare for 50% TOMB 50% WFTM \n\t\tgetLPTokens(); \n\t\tdepositLPGetTShare(); \n\t}\n\t\n\t//automate the closing of the position\n\t//designed for single use ie. user closes via vault contract \t\n\t//so we need to vault contract to determine how many tokens belong to the user from this contract \n\tfunction close(address user, uint amountShares) external {\n\t\trequire(msg.sender == address(VAULT), \"!vault\"); \n\t\t//swap all LP tokens back to underlying \n\t\tswapAndWithdraw(user, amountShares);   \n\t}\n\t\n\t//next we borrow WTFM from cream <= 75% so we don't get liquidated\n\t//cream allows for 75% collateral on deposits of USDC, but this 75% is on the 75% \n\t//so we are effectively borrowing ~55% of our deposit amount, which leaves room to the upside  \t\t\n\tfunction borrow(address user, uint amount) internal {\n\t\t//store user balance for withdraw later \n\t\tdepositBalance[user] = amount; \n\n\t\t//first we supply USDC\n\t\tIERC20(USDC).approve(crUSDC, amount);  \n\t\tCERC20(crUSDC).mint(amount); \n\t\t\n\t\t//we enter the marker to use usdc as collateral \t\n\t\taddress[] memory cTokenSupplied = new address[](1); \n\t\tcTokenSupplied[0] = crUSDC; //cToken address\n\t\tcomptroller.enterMarkets(cTokenSupplied); \n\t\t\n\t\t//get max borrow && borrow  \n\t\t( ,uint borrowAmount, ) = getBorrowAmount();\n\t\tcrWFTM.borrow(borrowAmount);  \n\t\t\n\t}\n\n\tfunction getBorrowAmount() public view returns(uint liquidity, uint borrowAmount, uint price) {\n\t\t(, liquidity,) = comptroller.getAccountLiquidity(address(this)); \n\t\tIStdReference.ReferenceData memory data = priceOracle.getReferenceData(\"FTM\", \"USDC\"); \n\t\tprice = data.rate; \n\t\tuint maxTokenBorrow = (liquidity * 10**18) / price; //wFTM has 18 decimals   \t\n\t\tborrowAmount = (maxTokenBorrow * 75) / 100; //this is token amount  \n\t\treturn (liquidity, borrowAmount, price); \n\t}\n\n\tfunction vaultBalance() public returns(uint) {\n\t\tuint vault = IERC20(USDC).balanceOf(address(VAULT)); \n\t\tuint underlying = getUnderlying(); \n\t\tuint total = vault + underlying; \n\t\treturn total; \n\t}\n\n\t//where amount is the percentage of LP tokens relative to the users USDC amount in vault \n\tfunction swapAndWithdraw(address user, uint amountShares) internal {\n\t\tuint strategyBalance = IERC20(address(this)).balanceOf(address(this)); \n\t\tuint pool = vaultBalance();  \n\t\tuint percentLP = (strategyBalance * pool) / amountShares; //percentLP is WAD scaled now  \t\n\t\t\n\t\t//handle rounding error case on big withdraw \n\t\tif (percentLP > strategyBalance) {\n\t\t\tpercentLP = strategyBalance; \n\t\t}\n\n\t\t//we first withdraw the LP tokens from TOMB  \n\t\t//we have to check the balances before and after the withdrawl in case there are leftovers \n\t\tuint amountBefore = IERC20(spookyFtmTombLP).balanceOf(address(this)); \n\t\tIMasterChef(tShareRewardPool).withdraw(0, percentLP);  \n\t\tuint amountAfter = IERC20(spookyFtmTombLP).balanceOf(address(this)); \n\t\tuint lpTokenAmount = amountAfter - amountBefore; \n\n\n\t\tdepositBalance[user] = amountShares; \t\n\t\tremoveLiq(user, lpTokenAmount); \n\t}\n\n\tfunction removeLiq(address user, uint lpTokenAmount) internal {\t\t \n\t\t//we remove liquidity belonging to the user(amount) back for tomb + wftm \n\t\tIERC20(spookyFtmTombLP).approve(spookyAddress, lpTokenAmount); \n\t\t(uint amountWftm, uint amountTomb) = IUniswapV2Router02(spookyAddress).removeLiquidity(\n\t\t\tWFTM,\n\t\t\tTOMB, \n\t\t\tlpTokenAmount,\n\t\t   \t1,\n\t\t   \t1,\n\t\t   \taddress(this),\n\t\t   \tblock.timestamp + 30\n\t\t); \n\n\t\t_burn(address(this), lpTokenAmount); \n\t\t//next step\t\n\t\tswapBack(user, amountWftm, amountTomb); \n\t}\n\n\tfunction getUnderlying() public returns(uint) {\n\t\treturn CERC20(crUSDC).balanceOfUnderlying(address(this)); //this returns the underlying USDC amount in 6 decimals \n\t}\n\t\n\tfunction borrowBalance() public returns(uint) {\n\t\treturn crWFTM.borrowBalanceCurrent(address(this)); \n\t}\n\n\tfunction swapBack(address user, uint amountWftm, uint amountTomb) internal {\n\t\t//now we swap tomb back for wftm\n\t\t//only need to approve TOMB because wftm is not being swapped \n\t\tIERC20(TOMB).approve(spookyAddress, amountTomb); \n\t\taddress[] memory path = new address[](2); \n\t\tpath[0] = TOMB; \n\t\tpath[1] = WFTM; \n\t\tuint[] memory amounts = spookyRouter.swapExactTokensForTokens(\n\t\t\tamountTomb,\n\t\t\t0,\n\t\t\tpath,\n\t\t\taddress(this),\n\t\t\tblock.timestamp + 30\n\t\t);\n\n\t\tIStdReference.ReferenceData memory data = priceOracle.getReferenceData(\"FTM\", \"USDC\"); \t\t\n\t\tuint amountToRepay = amountWftm + amounts[0]; //amount from removing liq + amount from swap in token \n\t\tuint holding = IERC20(WFTM).balanceOf(address(this)); \n\n\t\tif (amountToRepay >= holding) {\n\t\t\tamountToRepay = holding; \n\t\t}\t\n\n\t\tuint dollarAmount = (amountToRepay / 1e18) * (data.rate / 1e18) * 1e6; //token price in USDC for amount of wftm   \n\t\tuint diff  = depositBalance[user] - dollarAmount; //share amount - LP token amount = diff  \n\t\t\n\t\t//deposit balance is share amount  \n\t\tuint initial = diff + dollarAmount;  \n\t\tuint fee = (initial * CREATOR_FEE) / 10000;\n\t\tuint redeemAmount = initial - fee; \n\n\n\t\t//now we can repay our users borrow\n\t   \t//need to convert wftm token amount to dollar amount \n\t\tIERC20(WFTM).approve(address(crWFTM), amountToRepay); //this is wftm token amount  \n\t\tcrWFTM.repayBorrow(amountToRepay); \n\n\t\t//creamUSDC balance redeem\n\t\tuint beforeBalance = IERC20(USDC).balanceOf(address(this)); \n\t\tif (redeemAmount >= getUnderlying()) {\n\t\t\tredeemAmount = getUnderlying();\n\t\t}\n\t\t\n\t\tass = beforeBalance; \t\n\t\t//have to cheat a bit due to all the dust if one person is in farm, they won't be able to withdraw unless we\n\t\t//charge the fee here to allow them to withdraw less than is in account   \t\n\t\tCERC20(crUSDC).redeemUnderlying(redeemAmount); \n\t\t\n\t\t//get usdc balance after redeem \n\t\tuint afterBalance = IERC20(USDC).balanceOf(address(this));\n\t\tballs = afterBalance; \n\t\tuint sendAmount\t= afterBalance - beforeBalance; //check for difference to send correct amount \n\t\t\n\t\tIERC20(USDC).transfer(address(VAULT), sendAmount);  \n\t}\n\n\t//then we send the funds to spookyswap where we sell 50% to tomb and then unwrap the rest \n\tfunction swap() internal { \n\t\t//swap 50% to TOMB & approve \n\t\tuint half = IERC20(WFTM).balanceOf(address(this)) * 50 / 100; \n\t\tIERC20(WFTM).approve(spookyAddress, half);\n\t\n \n         address[] memory path = new address[](2);\n         path[0] = WFTM;\n         path[1] = TOMB;\n         IUniswapV2Router02(spookyAddress).swapExactTokensForTokens(\n             half,\n             0,\n             path,\n             address(this),\n             block.timestamp\n\t\t ); \n\t }\n\n\tfunction sellAndSwap() internal {\n\t\t(uint tombBefore, uint wftmBefore) = getIERC20Balance(); \n\n\t\tuint half = IERC20(TSHARE).balanceOf(address(this)) * 50 / 100;   \n\t\taddress[] memory pathToTomb = new address[](3); \n\t\tpathToTomb[0] = TSHARE;  \n\t\tpathToTomb[1] = WFTM; \n\t\tpathToTomb[2] = TOMB; \n\t\tspookyRouter.swapExactTokensForTokensSupportingFeeOnTransferTokens(\n\t\t\thalf,\n\t\t\t0,\n\t\t\tpathToTomb,\n\t\t\taddress(this),\n\t\t\tblock.timestamp + 30\n\t\t); \n\n\t\t//swap rest to WFTM \n\t\tuint rest = IERC20(TSHARE).balanceOf(address(this)); \n\t\taddress[] memory pathToWftm = new address[](2); \n\t\tpathToWftm[0] = TSHARE; \n\t\tpathToWftm[1] = WFTM; \n\t\tspookyRouter.swapExactTokensForTokensSupportingFeeOnTransferTokens(\n\t\t\trest,\n\t\t\t0,\n\t\t\tpathToWftm,\n\t\t\taddress(this),\n\t\t\tblock.timestamp + 30\n\t\t); \n\t\t\n\t\t(uint tombAfter, uint wftmAfter) = getIERC20Balance(); \t\n\t\tuint tombToSend = tombAfter - tombBefore; \n\t\tuint wftmToSend = wftmAfter - wftmBefore; \n\t\t\n\t\t//charge the fees here\n\t\tuint feeAmountTomb = chargeFeesOnHarvest(tombToSend); \t\n\t\tuint feeAmountWftm = chargeFeesOnHarvest(wftmToSend);\n\t\tIERC20(TOMB).transfer(address(VAULT), feeAmountTomb); \n\t\tIERC20(WFTM).transfer(address(VAULT), feeAmountWftm); \t\n\t}\n\n\tfunction getLPTokens() internal {\n\t\t//we need to approve the router to spend our TOMB\n\t\tuint tombAmount = IERC20(TOMB).balanceOf(address(this)); \n\t\tuint ftmAmount = IERC20(WFTM).balanceOf(address(this));  \n\n\t\t//now we add liquidity \n\t\t//@params token, tokenAmount, minToken, minETH, to, deadline\n\t\tIERC20(TOMB).approve(spookyAddress, tombAmount); \n\t\tIERC20(WFTM).approve(spookyAddress, ftmAmount); \n\t\tIUniswapV2Router02(spookyAddress).addLiquidity(TOMB, WFTM, tombAmount, ftmAmount, 1, 1, address(this), block.timestamp + 30); \n\t}\n\n\tfunction depositLPGetTShare() internal {\n\t\t//deposit into tshare vault using _pid but idk how to get that currently \t\n\t\tuint lpTokenBalance = IERC20(spookyFtmTombLP).balanceOf(address(this)); \n\n\t\t_mint(address(this), lpTokenBalance); \n\n\t\t//after this deposit the contract should be earning tshares as a reward \n\t\tIERC20(spookyFtmTombLP).approve(tShareRewardPool, lpTokenBalance); \n\t\tIMasterChef(tShareRewardPool).deposit(0, lpTokenBalance); //FTM-TOMB pool ID is 0 on Tomb.finance  \n\t}\n\n\tfunction chargeFeesOnHarvest(uint amount) internal view returns(uint feeAmount) {\n\t\treturn feeAmount = amount * (CREATOR_FEE / 10000) * 100; //0.1 or 1% \n\t}\n\n\tfunction getIERC20Balance() internal view returns(uint amountTomb, uint amountWftm) {\n\t\tamountTomb = IERC20(TOMB).balanceOf(address(this)); \n\t\tamountWftm = IERC20(WFTM).balanceOf(address(this)); \n\t\treturn (amountTomb, amountWftm); \n\t}\n\n\treceive() external payable{} \n\t\n} \n",
  "sourcePath": "/home/kevin/Code/solidity_projects/djinn/contracts/strategies/ShortFarmFTM.sol",
  "compiler": {
    "name": "solc",
    "version": "0.8.10+commit.fc410830.Emscripten.clang"
  },
  "schemaVersion": "3.4.3",
  "updatedAt": "2022-02-10T00:23:35.515Z",
  "networkType": "ethereum",
  "devdoc": {
    "kind": "dev",
    "methods": {
      "allowance(address,address)": {
        "details": "See {IERC20-allowance}."
      },
      "approve(address,uint256)": {
        "details": "See {IERC20-approve}. Requirements: - `spender` cannot be the zero address."
      },
      "balanceOf(address)": {
        "details": "See {IERC20-balanceOf}."
      },
      "decimals()": {
        "details": "Returns the number of decimals used to get its user representation. For example, if `decimals` equals `2`, a balance of `505` tokens should be displayed to a user as `5.05` (`505 / 10 ** 2`). Tokens usually opt for a value of 18, imitating the relationship between Ether and Wei. This is the value {ERC20} uses, unless this function is overridden; NOTE: This information is only used for _display_ purposes: it in no way affects any of the arithmetic of the contract, including {IERC20-balanceOf} and {IERC20-transfer}."
      },
      "decreaseAllowance(address,uint256)": {
        "details": "Atomically decreases the allowance granted to `spender` by the caller. This is an alternative to {approve} that can be used as a mitigation for problems described in {IERC20-approve}. Emits an {Approval} event indicating the updated allowance. Requirements: - `spender` cannot be the zero address. - `spender` must have allowance for the caller of at least `subtractedValue`."
      },
      "increaseAllowance(address,uint256)": {
        "details": "Atomically increases the allowance granted to `spender` by the caller. This is an alternative to {approve} that can be used as a mitigation for problems described in {IERC20-approve}. Emits an {Approval} event indicating the updated allowance. Requirements: - `spender` cannot be the zero address."
      },
      "name()": {
        "details": "Returns the name of the token."
      },
      "symbol()": {
        "details": "Returns the symbol of the token, usually a shorter version of the name."
      },
      "totalSupply()": {
        "details": "See {IERC20-totalSupply}."
      },
      "transfer(address,uint256)": {
        "details": "See {IERC20-transfer}. Requirements: - `recipient` cannot be the zero address. - the caller must have a balance of at least `amount`."
      },
      "transferFrom(address,address,uint256)": {
        "details": "See {IERC20-transferFrom}. Emits an {Approval} event indicating the updated allowance. This is not required by the EIP. See the note at the beginning of {ERC20}. Requirements: - `sender` and `recipient` cannot be the zero address. - `sender` must have a balance of at least `amount`. - the caller must have allowance for ``sender``'s tokens of at least `amount`."
      }
    },
    "version": 1
  },
  "userdoc": {
    "kind": "user",
    "methods": {},
    "version": 1
  }
}