{
  "contractName": "ShortFarmFTM",
  "abi": [
    {
      "inputs": [
        {
          "internalType": "contract DjinnBottleUSDC",
          "name": "_djBottle",
          "type": "address"
        },
        {
          "internalType": "contract IUniswapV2Router02",
          "name": "_spookyRouter",
          "type": "address"
        },
        {
          "internalType": "contract ComptrollerInterface",
          "name": "_comptroller",
          "type": "address"
        },
        {
          "internalType": "contract IStdReference",
          "name": "_priceOracle",
          "type": "address"
        },
        {
          "internalType": "contract CERC20",
          "name": "_cERC20",
          "type": "address"
        }
      ],
      "stateMutability": "nonpayable",
      "type": "constructor"
    },
    {
      "anonymous": false,
      "inputs": [
        {
          "indexed": true,
          "internalType": "address",
          "name": "owner",
          "type": "address"
        },
        {
          "indexed": true,
          "internalType": "address",
          "name": "spender",
          "type": "address"
        },
        {
          "indexed": false,
          "internalType": "uint256",
          "name": "value",
          "type": "uint256"
        }
      ],
      "name": "Approval",
      "type": "event"
    },
    {
      "anonymous": false,
      "inputs": [
        {
          "indexed": true,
          "internalType": "address",
          "name": "from",
          "type": "address"
        },
        {
          "indexed": true,
          "internalType": "address",
          "name": "to",
          "type": "address"
        },
        {
          "indexed": false,
          "internalType": "uint256",
          "name": "value",
          "type": "uint256"
        }
      ],
      "name": "Transfer",
      "type": "event"
    },
    {
      "inputs": [],
      "name": "TOMB",
      "outputs": [
        {
          "internalType": "address",
          "name": "",
          "type": "address"
        }
      ],
      "stateMutability": "view",
      "type": "function",
      "constant": true
    },
    {
      "inputs": [],
      "name": "TSHARE",
      "outputs": [
        {
          "internalType": "address",
          "name": "",
          "type": "address"
        }
      ],
      "stateMutability": "view",
      "type": "function",
      "constant": true
    },
    {
      "inputs": [],
      "name": "USDC",
      "outputs": [
        {
          "internalType": "address",
          "name": "",
          "type": "address"
        }
      ],
      "stateMutability": "view",
      "type": "function",
      "constant": true
    },
    {
      "inputs": [],
      "name": "VAULT",
      "outputs": [
        {
          "internalType": "contract DjinnBottleUSDC",
          "name": "",
          "type": "address"
        }
      ],
      "stateMutability": "view",
      "type": "function",
      "constant": true
    },
    {
      "inputs": [],
      "name": "WFTM",
      "outputs": [
        {
          "internalType": "address",
          "name": "",
          "type": "address"
        }
      ],
      "stateMutability": "view",
      "type": "function",
      "constant": true
    },
    {
      "inputs": [
        {
          "internalType": "address",
          "name": "owner",
          "type": "address"
        },
        {
          "internalType": "address",
          "name": "spender",
          "type": "address"
        }
      ],
      "name": "allowance",
      "outputs": [
        {
          "internalType": "uint256",
          "name": "",
          "type": "uint256"
        }
      ],
      "stateMutability": "view",
      "type": "function",
      "constant": true
    },
    {
      "inputs": [
        {
          "internalType": "address",
          "name": "spender",
          "type": "address"
        },
        {
          "internalType": "uint256",
          "name": "amount",
          "type": "uint256"
        }
      ],
      "name": "approve",
      "outputs": [
        {
          "internalType": "bool",
          "name": "",
          "type": "bool"
        }
      ],
      "stateMutability": "nonpayable",
      "type": "function"
    },
    {
      "inputs": [],
      "name": "ass",
      "outputs": [
        {
          "internalType": "uint256",
          "name": "",
          "type": "uint256"
        }
      ],
      "stateMutability": "view",
      "type": "function",
      "constant": true
    },
    {
      "inputs": [
        {
          "internalType": "address",
          "name": "account",
          "type": "address"
        }
      ],
      "name": "balanceOf",
      "outputs": [
        {
          "internalType": "uint256",
          "name": "",
          "type": "uint256"
        }
      ],
      "stateMutability": "view",
      "type": "function",
      "constant": true
    },
    {
      "inputs": [],
      "name": "balls",
      "outputs": [
        {
          "internalType": "uint256",
          "name": "",
          "type": "uint256"
        }
      ],
      "stateMutability": "view",
      "type": "function",
      "constant": true
    },
    {
      "inputs": [],
      "name": "comptroller",
      "outputs": [
        {
          "internalType": "contract ComptrollerInterface",
          "name": "",
          "type": "address"
        }
      ],
      "stateMutability": "view",
      "type": "function",
      "constant": true
    },
    {
      "inputs": [],
      "name": "crUSDC",
      "outputs": [
        {
          "internalType": "address",
          "name": "",
          "type": "address"
        }
      ],
      "stateMutability": "view",
      "type": "function",
      "constant": true
    },
    {
      "inputs": [],
      "name": "crWFTM",
      "outputs": [
        {
          "internalType": "contract CERC20",
          "name": "",
          "type": "address"
        }
      ],
      "stateMutability": "view",
      "type": "function",
      "constant": true
    },
    {
      "inputs": [],
      "name": "creator",
      "outputs": [
        {
          "internalType": "address",
          "name": "",
          "type": "address"
        }
      ],
      "stateMutability": "view",
      "type": "function",
      "constant": true
    },
    {
      "inputs": [],
      "name": "decimals",
      "outputs": [
        {
          "internalType": "uint8",
          "name": "",
          "type": "uint8"
        }
      ],
      "stateMutability": "view",
      "type": "function",
      "constant": true
    },
    {
      "inputs": [
        {
          "internalType": "address",
          "name": "spender",
          "type": "address"
        },
        {
          "internalType": "uint256",
          "name": "subtractedValue",
          "type": "uint256"
        }
      ],
      "name": "decreaseAllowance",
      "outputs": [
        {
          "internalType": "bool",
          "name": "",
          "type": "bool"
        }
      ],
      "stateMutability": "nonpayable",
      "type": "function"
    },
    {
      "inputs": [
        {
          "internalType": "address",
          "name": "",
          "type": "address"
        }
      ],
      "name": "depositBalance",
      "outputs": [
        {
          "internalType": "uint256",
          "name": "",
          "type": "uint256"
        }
      ],
      "stateMutability": "view",
      "type": "function",
      "constant": true
    },
    {
      "inputs": [
        {
          "internalType": "address",
          "name": "spender",
          "type": "address"
        },
        {
          "internalType": "uint256",
          "name": "addedValue",
          "type": "uint256"
        }
      ],
      "name": "increaseAllowance",
      "outputs": [
        {
          "internalType": "bool",
          "name": "",
          "type": "bool"
        }
      ],
      "stateMutability": "nonpayable",
      "type": "function"
    },
    {
      "inputs": [],
      "name": "name",
      "outputs": [
        {
          "internalType": "string",
          "name": "",
          "type": "string"
        }
      ],
      "stateMutability": "view",
      "type": "function",
      "constant": true
    },
    {
      "inputs": [],
      "name": "priceOracle",
      "outputs": [
        {
          "internalType": "contract IStdReference",
          "name": "",
          "type": "address"
        }
      ],
      "stateMutability": "view",
      "type": "function",
      "constant": true
    },
    {
      "inputs": [],
      "name": "spookyAddress",
      "outputs": [
        {
          "internalType": "address",
          "name": "",
          "type": "address"
        }
      ],
      "stateMutability": "view",
      "type": "function",
      "constant": true
    },
    {
      "inputs": [],
      "name": "spookyFtmTombLP",
      "outputs": [
        {
          "internalType": "address",
          "name": "",
          "type": "address"
        }
      ],
      "stateMutability": "view",
      "type": "function",
      "constant": true
    },
    {
      "inputs": [],
      "name": "spookyRouter",
      "outputs": [
        {
          "internalType": "contract IUniswapV2Router02",
          "name": "",
          "type": "address"
        }
      ],
      "stateMutability": "view",
      "type": "function",
      "constant": true
    },
    {
      "inputs": [],
      "name": "symbol",
      "outputs": [
        {
          "internalType": "string",
          "name": "",
          "type": "string"
        }
      ],
      "stateMutability": "view",
      "type": "function",
      "constant": true
    },
    {
      "inputs": [],
      "name": "tShareRewardPool",
      "outputs": [
        {
          "internalType": "address",
          "name": "",
          "type": "address"
        }
      ],
      "stateMutability": "view",
      "type": "function",
      "constant": true
    },
    {
      "inputs": [],
      "name": "totalSupply",
      "outputs": [
        {
          "internalType": "uint256",
          "name": "",
          "type": "uint256"
        }
      ],
      "stateMutability": "view",
      "type": "function",
      "constant": true
    },
    {
      "inputs": [
        {
          "internalType": "address",
          "name": "recipient",
          "type": "address"
        },
        {
          "internalType": "uint256",
          "name": "amount",
          "type": "uint256"
        }
      ],
      "name": "transfer",
      "outputs": [
        {
          "internalType": "bool",
          "name": "",
          "type": "bool"
        }
      ],
      "stateMutability": "nonpayable",
      "type": "function"
    },
    {
      "inputs": [
        {
          "internalType": "address",
          "name": "sender",
          "type": "address"
        },
        {
          "internalType": "address",
          "name": "recipient",
          "type": "address"
        },
        {
          "internalType": "uint256",
          "name": "amount",
          "type": "uint256"
        }
      ],
      "name": "transferFrom",
      "outputs": [
        {
          "internalType": "bool",
          "name": "",
          "type": "bool"
        }
      ],
      "stateMutability": "nonpayable",
      "type": "function"
    },
    {
      "stateMutability": "payable",
      "type": "receive",
      "payable": true
    },
    {
      "inputs": [
        {
          "internalType": "address",
          "name": "user",
          "type": "address"
        },
        {
          "internalType": "uint256",
          "name": "amount",
          "type": "uint256"
        }
      ],
      "name": "open",
      "outputs": [],
      "stateMutability": "nonpayable",
      "type": "function"
    },
    {
      "inputs": [],
      "name": "harvest",
      "outputs": [],
      "stateMutability": "nonpayable",
      "type": "function"
    },
    {
      "inputs": [
        {
          "internalType": "address",
          "name": "user",
          "type": "address"
        },
        {
          "internalType": "uint256",
          "name": "amountShares",
          "type": "uint256"
        }
      ],
      "name": "close",
      "outputs": [],
      "stateMutability": "nonpayable",
      "type": "function"
    },
    {
      "inputs": [],
      "name": "getBorrowAmount",
      "outputs": [
        {
          "internalType": "uint256",
          "name": "liquidity",
          "type": "uint256"
        },
        {
          "internalType": "uint256",
          "name": "borrowAmount",
          "type": "uint256"
        },
        {
          "internalType": "uint256",
          "name": "price",
          "type": "uint256"
        }
      ],
      "stateMutability": "view",
      "type": "function",
      "constant": true
    },
    {
      "inputs": [],
      "name": "vaultBalance",
      "outputs": [
        {
          "internalType": "uint256",
          "name": "",
          "type": "uint256"
        }
      ],
      "stateMutability": "nonpayable",
      "type": "function"
    },
    {
      "inputs": [],
      "name": "getAss",
      "outputs": [
        {
          "internalType": "uint256",
          "name": "",
          "type": "uint256"
        }
      ],
      "stateMutability": "view",
      "type": "function",
      "constant": true
    },
    {
      "inputs": [],
      "name": "getUnderlying",
      "outputs": [
        {
          "internalType": "uint256",
          "name": "",
          "type": "uint256"
        }
      ],
      "stateMutability": "nonpayable",
      "type": "function"
    },
    {
      "inputs": [],
      "name": "borrowBalance",
      "outputs": [
        {
          "internalType": "uint256",
          "name": "",
          "type": "uint256"
        }
      ],
      "stateMutability": "nonpayable",
      "type": "function"
    }
  ],
  "bytecode": "0x6101006040523480156200001257600080fd5b50604051620058083803806200580883398181016040528101906200003891906200043c565b6040518060400160405280601c81526020017f446a696e6e2046696e616e63652046544d2053686f7274204661726d000000008152506040518060400160405280600a81526020017f646646544d53686f7274000000000000000000000000000000000000000000008152508160039080519060200190620000bc929190620001fa565b508060049080519060200190620000d5929190620001fa565b505050600033905085600660006101000a81548173ffffffffffffffffffffffffffffffffffffffff021916908373ffffffffffffffffffffffffffffffffffffffff1602179055508473ffffffffffffffffffffffffffffffffffffffff1660808173ffffffffffffffffffffffffffffffffffffffff16815250508373ffffffffffffffffffffffffffffffffffffffff1660a08173ffffffffffffffffffffffffffffffffffffffff16815250508273ffffffffffffffffffffffffffffffffffffffff1660c08173ffffffffffffffffffffffffffffffffffffffff16815250508173ffffffffffffffffffffffffffffffffffffffff1660e08173ffffffffffffffffffffffffffffffffffffffff168152505050505050505062000529565b8280546200020890620004f3565b90600052602060002090601f0160209004810192826200022c576000855562000278565b82601f106200024757805160ff191683800117855562000278565b8280016001018555821562000278579182015b82811115620002775782518255916020019190600101906200025a565b5b5090506200028791906200028b565b5090565b5b80821115620002a65760008160009055506001016200028c565b5090565b600080fd5b600073ffffffffffffffffffffffffffffffffffffffff82169050919050565b6000620002dc82620002af565b9050919050565b6000620002f082620002cf565b9050919050565b6200030281620002e3565b81146200030e57600080fd5b50565b6000815190506200032281620002f7565b92915050565b60006200033582620002cf565b9050919050565b620003478162000328565b81146200035357600080fd5b50565b60008151905062000367816200033c565b92915050565b60006200037a82620002cf565b9050919050565b6200038c816200036d565b81146200039857600080fd5b50565b600081519050620003ac8162000381565b92915050565b6000620003bf82620002cf565b9050919050565b620003d181620003b2565b8114620003dd57600080fd5b50565b600081519050620003f181620003c6565b92915050565b60006200040482620002cf565b9050919050565b6200041681620003f7565b81146200042257600080fd5b50565b60008151905062000436816200040b565b92915050565b600080600080600060a086880312156200045b576200045a620002aa565b5b60006200046b8882890162000311565b95505060206200047e8882890162000356565b945050604062000491888289016200039b565b9350506060620004a488828901620003e0565b9250506080620004b78882890162000425565b9150509295509295909350565b7f4e487b7100000000000000000000000000000000000000000000000000000000600052602260045260246000fd5b600060028204905060018216806200050c57607f821691505b60208210811415620005235762000522620004c4565b5b50919050565b60805160a05160c05160e051615258620005b060003960008181610b1701528181610c4d01528181611a15015281816139f90152613a7c015260008181610cee01528181610fda0152613792015260008181610f36015281816110c0015261196501526000818161116c01528181612785015281816129cb01526136d801526152586000f3fe6080604052600436106102135760003560e01c806366f2addc116101185780639cdd8ee7116100a0578063b5ee45c11161006f578063b5ee45c1146107be578063c139acfa146107e9578063dd62ed3e14610814578063e08c398814610851578063e49280cb1461087c5761021a565b80639cdd8ee7146106ee578063a457c2d714610719578063a6f8d40514610756578063a9059cbb146107815761021a565b806389a30271116100e757806389a30271146106055780638ed8ea7e14610630578063956501bb1461065b57806395d89b41146106985780639816f473146106c35761021a565b806366f2addc1461054757806370a082311461057257806379f9e787146105af57806382c70bbf146105da5761021a565b8063243cd14e1161019b578063395093511161016a5780633950935114610470578063411557d1146104ad5780634641257d146104d85780634fbb30ed146104ef5780635fe3b5671461051c5761021a565b8063243cd14e146103c45780632630c12f146103ef5780632c1c18361461041a578063313ce567146104455761021a565b80630bf6cc08116101e25780630bf6cc08146102db57806318160ddd146103065780631882bf441461033157806321dbe8761461035c57806323b872dd146103875761021a565b806302d05d3f1461021f57806306fdde031461024a578063095ea7b3146102755780630a0e5c9d146102b25761021a565b3661021a57005b600080fd5b34801561022b57600080fd5b506102346108a5565b6040516102419190613dfd565b60405180910390f35b34801561025657600080fd5b5061025f6108cb565b60405161026c9190613eb1565b60405180910390f35b34801561028157600080fd5b5061029c60048036038101906102979190613f49565b61095d565b6040516102a99190613fa4565b60405180910390f35b3480156102be57600080fd5b506102d960048036038101906102d49190613f49565b61097b565b005b3480156102e757600080fd5b506102f0610a31565b6040516102fd9190613fce565b60405180910390f35b34801561031257600080fd5b5061031b610b0b565b6040516103289190613fce565b60405180910390f35b34801561033d57600080fd5b50610346610b15565b6040516103539190614048565b60405180910390f35b34801561036857600080fd5b50610371610b39565b60405161037e9190613dfd565b60405180910390f35b34801561039357600080fd5b506103ae60048036038101906103a99190614063565b610b51565b6040516103bb9190613fa4565b60405180910390f35b3480156103d057600080fd5b506103d9610c49565b6040516103e69190613fce565b60405180910390f35b3480156103fb57600080fd5b50610404610cec565b60405161041191906140d7565b60405180910390f35b34801561042657600080fd5b5061042f610d10565b60405161043c9190613dfd565b60405180910390f35b34801561045157600080fd5b5061045a610d28565b604051610467919061410e565b60405180910390f35b34801561047c57600080fd5b5061049760048036038101906104929190613f49565b610d31565b6040516104a49190613fa4565b60405180910390f35b3480156104b957600080fd5b506104c2610ddd565b6040516104cf919061414a565b60405180910390f35b3480156104e457600080fd5b506104ed610e03565b005b3480156104fb57600080fd5b50610504610f2f565b60405161051393929190614165565b60405180910390f35b34801561052857600080fd5b506105316110be565b60405161053e91906141bd565b60405180910390f35b34801561055357600080fd5b5061055c6110e2565b6040516105699190613fce565b60405180910390f35b34801561057e57600080fd5b50610599600480360381019061059491906141d8565b6110e8565b6040516105a69190613fce565b60405180910390f35b3480156105bb57600080fd5b506105c4611130565b6040516105d19190613fce565b60405180910390f35b3480156105e657600080fd5b506105ef61113a565b6040516105fc9190613dfd565b60405180910390f35b34801561061157600080fd5b5061061a611152565b6040516106279190613dfd565b60405180910390f35b34801561063c57600080fd5b5061064561116a565b6040516106529190614226565b60405180910390f35b34801561066757600080fd5b50610682600480360381019061067d91906141d8565b61118e565b60405161068f9190613fce565b60405180910390f35b3480156106a457600080fd5b506106ad6111a6565b6040516106ba9190613eb1565b60405180910390f35b3480156106cf57600080fd5b506106d8611238565b6040516106e59190613fce565b60405180910390f35b3480156106fa57600080fd5b506107036112cf565b6040516107109190613dfd565b60405180910390f35b34801561072557600080fd5b50610740600480360381019061073b9190613f49565b6112e7565b60405161074d9190613fa4565b60405180910390f35b34801561076257600080fd5b5061076b6113d2565b6040516107789190613dfd565b60405180910390f35b34801561078d57600080fd5b506107a860048036038101906107a39190613f49565b6113ea565b6040516107b59190613fa4565b60405180910390f35b3480156107ca57600080fd5b506107d3611408565b6040516107e09190613dfd565b60405180910390f35b3480156107f557600080fd5b506107fe611420565b60405161080b9190613dfd565b60405180910390f35b34801561082057600080fd5b5061083b60048036038101906108369190614241565b611438565b6040516108489190613fce565b60405180910390f35b34801561085d57600080fd5b506108666114bf565b6040516108739190613fce565b60405180910390f35b34801561088857600080fd5b506108a3600480360381019061089e9190613f49565b6114c5565b005b600560009054906101000a900473ffffffffffffffffffffffffffffffffffffffff1681565b6060600380546108da906142b0565b80601f0160208091040260200160405190810160405280929190818152602001828054610906906142b0565b80156109535780601f1061092857610100808354040283529160200191610953565b820191906000526020600020905b81548152906001019060200180831161093657829003601f168201915b5050505050905090565b600061097161096a611563565b848461156b565b6001905092915050565b600660009054906101000a900473ffffffffffffffffffffffffffffffffffffffff1673ffffffffffffffffffffffffffffffffffffffff163373ffffffffffffffffffffffffffffffffffffffff1614610a0b576040517f08c379a0000000000000000000000000000000000000000000000000000000008152600401610a029061432e565b60405180910390fd5b610a158282611736565b610a1d611ab6565b610a25611dbe565b610a2d61210a565b5050565b6000807304068da6c83afcfa0e13ba15a6696662335d5b7573ffffffffffffffffffffffffffffffffffffffff166370a08231600660009054906101000a900473ffffffffffffffffffffffffffffffffffffffff166040518263ffffffff1660e01b8152600401610aa39190613dfd565b602060405180830381865afa158015610ac0573d6000803e3d6000fd5b505050506040513d601f19601f82011682018060405250810190610ae49190614363565b90506000610af0611238565b905060008183610b0091906143bf565b905080935050505090565b6000600254905090565b7f000000000000000000000000000000000000000000000000000000000000000081565b7321be370d5312f44cb42ce377bc9b8a0cef1a4c8381565b6000610b5e8484846122d2565b6000600160008673ffffffffffffffffffffffffffffffffffffffff1673ffffffffffffffffffffffffffffffffffffffff1681526020019081526020016000206000610ba9611563565b73ffffffffffffffffffffffffffffffffffffffff1673ffffffffffffffffffffffffffffffffffffffff16815260200190815260200160002054905082811015610c29576040517f08c379a0000000000000000000000000000000000000000000000000000000008152600401610c2090614487565b60405180910390fd5b610c3d85610c35611563565b85840361156b565b60019150509392505050565b60007f000000000000000000000000000000000000000000000000000000000000000073ffffffffffffffffffffffffffffffffffffffff166317bfdfbc306040518263ffffffff1660e01b8152600401610ca49190613dfd565b6020604051808303816000875af1158015610cc3573d6000803e3d6000fd5b505050506040513d601f19601f82011682018060405250810190610ce79190614363565b905090565b7f000000000000000000000000000000000000000000000000000000000000000081565b73cc0a87f7e7c693042a9cc703661f5060c80acb4381565b60006012905090565b6000610dd3610d3e611563565b848460016000610d4c611563565b73ffffffffffffffffffffffffffffffffffffffff1673ffffffffffffffffffffffffffffffffffffffff16815260200190815260200160002060008873ffffffffffffffffffffffffffffffffffffffff1673ffffffffffffffffffffffffffffffffffffffff16815260200190815260200160002054610dce91906143bf565b61156b565b6001905092915050565b600660009054906101000a900473ffffffffffffffffffffffffffffffffffffffff1681565b600660009054906101000a900473ffffffffffffffffffffffffffffffffffffffff1673ffffffffffffffffffffffffffffffffffffffff163373ffffffffffffffffffffffffffffffffffffffff1614610e93576040517f08c379a0000000000000000000000000000000000000000000000000000000008152600401610e8a906144f3565b60405180910390fd5b73cc0a87f7e7c693042a9cc703661f5060c80acb4373ffffffffffffffffffffffffffffffffffffffff1663e2bbb1586000806040518363ffffffff1660e01b8152600401610ee392919061454e565b600060405180830381600087803b158015610efd57600080fd5b505af1158015610f11573d6000803e3d6000fd5b50505050610f1d612553565b610f25611dbe565b610f2d61210a565b565b60008060007f000000000000000000000000000000000000000000000000000000000000000073ffffffffffffffffffffffffffffffffffffffff16635ec88c79306040518263ffffffff1660e01b8152600401610f8d9190613dfd565b606060405180830381865afa158015610faa573d6000803e3d6000fd5b505050506040513d601f19601f82011682018060405250810190610fce9190614577565b909150508093505060007f000000000000000000000000000000000000000000000000000000000000000073ffffffffffffffffffffffffffffffffffffffff166365555bcc6040518163ffffffff1660e01b815260040161102f90614662565b606060405180830381865afa15801561104c573d6000803e3d6000fd5b505050506040513d601f19601f820116820180604052508101906110709190614779565b905080600001519150600082670de0b6b3a76400008661109091906147a6565b61109a919061482f565b90506064604b826110ab91906147a6565b6110b5919061482f565b93505050909192565b7f000000000000000000000000000000000000000000000000000000000000000081565b60095481565b60008060008373ffffffffffffffffffffffffffffffffffffffff1673ffffffffffffffffffffffffffffffffffffffff168152602001908152602001600020549050919050565b6000600854905090565b73328a7b4d538a2b3942653a9983fda3c12c57114181565b7304068da6c83afcfa0e13ba15a6696662335d5b7581565b7f000000000000000000000000000000000000000000000000000000000000000081565b60076020528060005260406000206000915090505481565b6060600480546111b5906142b0565b80601f01602080910402602001604051908101604052809291908181526020018280546111e1906142b0565b801561122e5780601f106112035761010080835404028352916020019161122e565b820191906000526020600020905b81548152906001019060200180831161121157829003601f168201915b5050505050905090565b600073328a7b4d538a2b3942653a9983fda3c12c57114173ffffffffffffffffffffffffffffffffffffffff16633af9e669306040518263ffffffff1660e01b81526004016112879190613dfd565b6020604051808303816000875af11580156112a6573d6000803e3d6000fd5b505050506040513d601f19601f820116820180604052508101906112ca9190614363565b905090565b732a651563c9d3af67ae0388a5c8f89b867038089e81565b600080600160006112f6611563565b73ffffffffffffffffffffffffffffffffffffffff1673ffffffffffffffffffffffffffffffffffffffff16815260200190815260200160002060008573ffffffffffffffffffffffffffffffffffffffff1673ffffffffffffffffffffffffffffffffffffffff168152602001908152602001600020549050828110156113b3576040517f08c379a00000000000000000000000000000000000000000000000000000000081526004016113aa906148d2565b60405180910390fd5b6113c76113be611563565b8585840361156b565b600191505092915050565b73f491e7b69e4244ad4002bc14e878a34207e38c2981565b60006113fe6113f7611563565b84846122d2565b6001905092915050565b734cdf39285d7ca8eb3f090fda0c069ba5f4145b3781565b736c021ae822bea943b2e66552bde1d2696a53fbb781565b6000600160008473ffffffffffffffffffffffffffffffffffffffff1673ffffffffffffffffffffffffffffffffffffffff16815260200190815260200160002060008373ffffffffffffffffffffffffffffffffffffffff1673ffffffffffffffffffffffffffffffffffffffff16815260200190815260200160002054905092915050565b60085481565b600660009054906101000a900473ffffffffffffffffffffffffffffffffffffffff1673ffffffffffffffffffffffffffffffffffffffff163373ffffffffffffffffffffffffffffffffffffffff1614611555576040517f08c379a000000000000000000000000000000000000000000000000000000000815260040161154c9061432e565b60405180910390fd5b61155f8282612c2a565b5050565b600033905090565b600073ffffffffffffffffffffffffffffffffffffffff168373ffffffffffffffffffffffffffffffffffffffff1614156115db576040517f08c379a00000000000000000000000000000000000000000000000000000000081526004016115d290614964565b60405180910390fd5b600073ffffffffffffffffffffffffffffffffffffffff168273ffffffffffffffffffffffffffffffffffffffff16141561164b576040517f08c379a0000000000000000000000000000000000000000000000000000000008152600401611642906149f6565b60405180910390fd5b80600160008573ffffffffffffffffffffffffffffffffffffffff1673ffffffffffffffffffffffffffffffffffffffff16815260200190815260200160002060008473ffffffffffffffffffffffffffffffffffffffff1673ffffffffffffffffffffffffffffffffffffffff168152602001908152602001600020819055508173ffffffffffffffffffffffffffffffffffffffff168373ffffffffffffffffffffffffffffffffffffffff167f8c5be1e5ebec7d5bd14f71427d1e84f3dd0314c0f7b2291e5b200ac8c7c3b925836040516117299190613fce565b60405180910390a3505050565b80600760008473ffffffffffffffffffffffffffffffffffffffff1673ffffffffffffffffffffffffffffffffffffffff168152602001908152602001600020819055507304068da6c83afcfa0e13ba15a6696662335d5b7573ffffffffffffffffffffffffffffffffffffffff1663095ea7b373328a7b4d538a2b3942653a9983fda3c12c571141836040518363ffffffff1660e01b81526004016117dd929190614a16565b6020604051808303816000875af11580156117fc573d6000803e3d6000fd5b505050506040513d601f19601f820116820180604052508101906118209190614a6b565b5073328a7b4d538a2b3942653a9983fda3c12c57114173ffffffffffffffffffffffffffffffffffffffff1663a0712d68826040518263ffffffff1660e01b815260040161186e9190613fce565b6020604051808303816000875af115801561188d573d6000803e3d6000fd5b505050506040513d601f19601f820116820180604052508101906118b19190614363565b506000600167ffffffffffffffff8111156118cf576118ce61469a565b5b6040519080825280602002602001820160405280156118fd5781602001602082028036833780820191505090505b50905073328a7b4d538a2b3942653a9983fda3c12c5711418160008151811061192957611928614a98565b5b602002602001019073ffffffffffffffffffffffffffffffffffffffff16908173ffffffffffffffffffffffffffffffffffffffff16815250507f000000000000000000000000000000000000000000000000000000000000000073ffffffffffffffffffffffffffffffffffffffff1663c2998238826040518263ffffffff1660e01b81526004016119bc9190614b85565b6000604051808303816000875af11580156119db573d6000803e3d6000fd5b505050506040513d6000823e3d601f19601f82011682018060405250810190611a049190614c74565b506000611a0f610f2f565b509150507f000000000000000000000000000000000000000000000000000000000000000073ffffffffffffffffffffffffffffffffffffffff1663c5ebeaec826040518263ffffffff1660e01b8152600401611a6c9190613fce565b6020604051808303816000875af1158015611a8b573d6000803e3d6000fd5b505050506040513d601f19601f82011682018060405250810190611aaf9190614363565b5050505050565b6000606460327321be370d5312f44cb42ce377bc9b8a0cef1a4c8373ffffffffffffffffffffffffffffffffffffffff166370a08231306040518263ffffffff1660e01b8152600401611b099190613dfd565b602060405180830381865afa158015611b26573d6000803e3d6000fd5b505050506040513d601f19601f82011682018060405250810190611b4a9190614363565b611b5491906147a6565b611b5e919061482f565b90507321be370d5312f44cb42ce377bc9b8a0cef1a4c8373ffffffffffffffffffffffffffffffffffffffff1663095ea7b373f491e7b69e4244ad4002bc14e878a34207e38c29836040518363ffffffff1660e01b8152600401611bc3929190614a16565b6020604051808303816000875af1158015611be2573d6000803e3d6000fd5b505050506040513d601f19601f82011682018060405250810190611c069190614a6b565b506000600267ffffffffffffffff811115611c2457611c2361469a565b5b604051908082528060200260200182016040528015611c525781602001602082028036833780820191505090505b5090507321be370d5312f44cb42ce377bc9b8a0cef1a4c8381600081518110611c7e57611c7d614a98565b5b602002602001019073ffffffffffffffffffffffffffffffffffffffff16908173ffffffffffffffffffffffffffffffffffffffff1681525050736c021ae822bea943b2e66552bde1d2696a53fbb781600181518110611ce157611ce0614a98565b5b602002602001019073ffffffffffffffffffffffffffffffffffffffff16908173ffffffffffffffffffffffffffffffffffffffff168152505073f491e7b69e4244ad4002bc14e878a34207e38c2973ffffffffffffffffffffffffffffffffffffffff166338ed17398360008430426040518663ffffffff1660e01b8152600401611d71959493929190614cbd565b6000604051808303816000875af1158015611d90573d6000803e3d6000fd5b505050506040513d6000823e3d601f19601f82011682018060405250810190611db99190614c74565b505050565b6000736c021ae822bea943b2e66552bde1d2696a53fbb773ffffffffffffffffffffffffffffffffffffffff166370a08231306040518263ffffffff1660e01b8152600401611e0d9190613dfd565b602060405180830381865afa158015611e2a573d6000803e3d6000fd5b505050506040513d601f19601f82011682018060405250810190611e4e9190614363565b905060007321be370d5312f44cb42ce377bc9b8a0cef1a4c8373ffffffffffffffffffffffffffffffffffffffff166370a08231306040518263ffffffff1660e01b8152600401611e9f9190613dfd565b602060405180830381865afa158015611ebc573d6000803e3d6000fd5b505050506040513d601f19601f82011682018060405250810190611ee09190614363565b9050736c021ae822bea943b2e66552bde1d2696a53fbb773ffffffffffffffffffffffffffffffffffffffff1663095ea7b373f491e7b69e4244ad4002bc14e878a34207e38c29846040518363ffffffff1660e01b8152600401611f45929190614a16565b6020604051808303816000875af1158015611f64573d6000803e3d6000fd5b505050506040513d601f19601f82011682018060405250810190611f889190614a6b565b507321be370d5312f44cb42ce377bc9b8a0cef1a4c8373ffffffffffffffffffffffffffffffffffffffff1663095ea7b373f491e7b69e4244ad4002bc14e878a34207e38c29836040518363ffffffff1660e01b8152600401611fec929190614a16565b6020604051808303816000875af115801561200b573d6000803e3d6000fd5b505050506040513d601f19601f8201168201806040525081019061202f9190614a6b565b5073f491e7b69e4244ad4002bc14e878a34207e38c2973ffffffffffffffffffffffffffffffffffffffff1663e8e33700736c021ae822bea943b2e66552bde1d2696a53fbb77321be370d5312f44cb42ce377bc9b8a0cef1a4c83858560018030601e4261209d91906143bf565b6040518963ffffffff1660e01b81526004016120c0989796959493929190614d52565b6060604051808303816000875af11580156120df573d6000803e3d6000fd5b505050506040513d601f19601f820116820180604052508101906121039190614577565b5050505050565b6000732a651563c9d3af67ae0388a5c8f89b867038089e73ffffffffffffffffffffffffffffffffffffffff166370a08231306040518263ffffffff1660e01b81526004016121599190613dfd565b602060405180830381865afa158015612176573d6000803e3d6000fd5b505050506040513d601f19601f8201168201806040525081019061219a9190614363565b90506121a63082612ee9565b732a651563c9d3af67ae0388a5c8f89b867038089e73ffffffffffffffffffffffffffffffffffffffff1663095ea7b373cc0a87f7e7c693042a9cc703661f5060c80acb43836040518363ffffffff1660e01b8152600401612209929190614a16565b6020604051808303816000875af1158015612228573d6000803e3d6000fd5b505050506040513d601f19601f8201168201806040525081019061224c9190614a6b565b5073cc0a87f7e7c693042a9cc703661f5060c80acb4373ffffffffffffffffffffffffffffffffffffffff1663e2bbb1586000836040518363ffffffff1660e01b815260040161229d929190614dd0565b600060405180830381600087803b1580156122b757600080fd5b505af11580156122cb573d6000803e3d6000fd5b5050505050565b600073ffffffffffffffffffffffffffffffffffffffff168373ffffffffffffffffffffffffffffffffffffffff161415612342576040517f08c379a000000000000000000000000000000000000000000000000000000000815260040161233990614e6b565b60405180910390fd5b600073ffffffffffffffffffffffffffffffffffffffff168273ffffffffffffffffffffffffffffffffffffffff1614156123b2576040517f08c379a00000000000000000000000000000000000000000000000000000000081526004016123a990614efd565b60405180910390fd5b6123bd838383613049565b60008060008573ffffffffffffffffffffffffffffffffffffffff1673ffffffffffffffffffffffffffffffffffffffff16815260200190815260200160002054905081811015612443576040517f08c379a000000000000000000000000000000000000000000000000000000000815260040161243a90614f8f565b60405180910390fd5b8181036000808673ffffffffffffffffffffffffffffffffffffffff1673ffffffffffffffffffffffffffffffffffffffff16815260200190815260200160002081905550816000808573ffffffffffffffffffffffffffffffffffffffff1673ffffffffffffffffffffffffffffffffffffffff16815260200190815260200160002060008282546124d691906143bf565b925050819055508273ffffffffffffffffffffffffffffffffffffffff168473ffffffffffffffffffffffffffffffffffffffff167fddf252ad1be2c89b69c2b068fc378daa952ba7f163c4a11628f55a4df523b3ef8460405161253a9190613fce565b60405180910390a361254d84848461304e565b50505050565b60008061255e613053565b91509150600060646032734cdf39285d7ca8eb3f090fda0c069ba5f4145b3773ffffffffffffffffffffffffffffffffffffffff166370a08231306040518263ffffffff1660e01b81526004016125b59190613dfd565b602060405180830381865afa1580156125d2573d6000803e3d6000fd5b505050506040513d601f19601f820116820180604052508101906125f69190614363565b61260091906147a6565b61260a919061482f565b90506000600367ffffffffffffffff8111156126295761262861469a565b5b6040519080825280602002602001820160405280156126575781602001602082028036833780820191505090505b509050734cdf39285d7ca8eb3f090fda0c069ba5f4145b378160008151811061268357612682614a98565b5b602002602001019073ffffffffffffffffffffffffffffffffffffffff16908173ffffffffffffffffffffffffffffffffffffffff16815250507321be370d5312f44cb42ce377bc9b8a0cef1a4c83816001815181106126e6576126e5614a98565b5b602002602001019073ffffffffffffffffffffffffffffffffffffffff16908173ffffffffffffffffffffffffffffffffffffffff1681525050736c021ae822bea943b2e66552bde1d2696a53fbb78160028151811061274957612748614a98565b5b602002602001019073ffffffffffffffffffffffffffffffffffffffff16908173ffffffffffffffffffffffffffffffffffffffff16815250507f000000000000000000000000000000000000000000000000000000000000000073ffffffffffffffffffffffffffffffffffffffff16635c11d7958360008430601e426127d191906143bf565b6040518663ffffffff1660e01b81526004016127f1959493929190614cbd565b600060405180830381600087803b15801561280b57600080fd5b505af115801561281f573d6000803e3d6000fd5b505050506000734cdf39285d7ca8eb3f090fda0c069ba5f4145b3773ffffffffffffffffffffffffffffffffffffffff166370a08231306040518263ffffffff1660e01b81526004016128729190613dfd565b602060405180830381865afa15801561288f573d6000803e3d6000fd5b505050506040513d601f19601f820116820180604052508101906128b39190614363565b90506000600267ffffffffffffffff8111156128d2576128d161469a565b5b6040519080825280602002602001820160405280156129005781602001602082028036833780820191505090505b509050734cdf39285d7ca8eb3f090fda0c069ba5f4145b378160008151811061292c5761292b614a98565b5b602002602001019073ffffffffffffffffffffffffffffffffffffffff16908173ffffffffffffffffffffffffffffffffffffffff16815250507321be370d5312f44cb42ce377bc9b8a0cef1a4c838160018151811061298f5761298e614a98565b5b602002602001019073ffffffffffffffffffffffffffffffffffffffff16908173ffffffffffffffffffffffffffffffffffffffff16815250507f000000000000000000000000000000000000000000000000000000000000000073ffffffffffffffffffffffffffffffffffffffff16635c11d7958360008430601e42612a1791906143bf565b6040518663ffffffff1660e01b8152600401612a37959493929190614cbd565b600060405180830381600087803b158015612a5157600080fd5b505af1158015612a65573d6000803e3d6000fd5b50505050600080612a74613053565b9150915060008883612a869190614faf565b905060008883612a969190614faf565b90506000612aa38361317a565b90506000612ab08361317a565b9050736c021ae822bea943b2e66552bde1d2696a53fbb773ffffffffffffffffffffffffffffffffffffffff1663a9059cbb600660009054906101000a900473ffffffffffffffffffffffffffffffffffffffff16846040518363ffffffff1660e01b8152600401612b23929190614a16565b6020604051808303816000875af1158015612b42573d6000803e3d6000fd5b505050506040513d601f19601f82011682018060405250810190612b669190614a6b565b507321be370d5312f44cb42ce377bc9b8a0cef1a4c8373ffffffffffffffffffffffffffffffffffffffff1663a9059cbb600660009054906101000a900473ffffffffffffffffffffffffffffffffffffffff16836040518363ffffffff1660e01b8152600401612bd8929190614a16565b6020604051808303816000875af1158015612bf7573d6000803e3d6000fd5b505050506040513d601f19601f82011682018060405250810190612c1b9190614a6b565b50505050505050505050505050565b60003073ffffffffffffffffffffffffffffffffffffffff166370a08231306040518263ffffffff1660e01b8152600401612c659190613dfd565b602060405180830381865afa158015612c82573d6000803e3d6000fd5b505050506040513d601f19601f82011682018060405250810190612ca69190614363565b90506000612cb2610a31565b90506000838284612cc391906147a6565b612ccd919061482f565b905082811115612cdb578290505b6000732a651563c9d3af67ae0388a5c8f89b867038089e73ffffffffffffffffffffffffffffffffffffffff166370a08231306040518263ffffffff1660e01b8152600401612d2a9190613dfd565b602060405180830381865afa158015612d47573d6000803e3d6000fd5b505050506040513d601f19601f82011682018060405250810190612d6b9190614363565b905073cc0a87f7e7c693042a9cc703661f5060c80acb4373ffffffffffffffffffffffffffffffffffffffff1663441a3e706000846040518363ffffffff1660e01b8152600401612dbd929190614dd0565b600060405180830381600087803b158015612dd757600080fd5b505af1158015612deb573d6000803e3d6000fd5b505050506000732a651563c9d3af67ae0388a5c8f89b867038089e73ffffffffffffffffffffffffffffffffffffffff166370a08231306040518263ffffffff1660e01b8152600401612e3e9190613dfd565b602060405180830381865afa158015612e5b573d6000803e3d6000fd5b505050506040513d601f19601f82011682018060405250810190612e7f9190614363565b905060008282612e8f9190614faf565b905086600760008a73ffffffffffffffffffffffffffffffffffffffff1673ffffffffffffffffffffffffffffffffffffffff16815260200190815260200160002081905550612edf88826131a9565b5050505050505050565b600073ffffffffffffffffffffffffffffffffffffffff168273ffffffffffffffffffffffffffffffffffffffff161415612f59576040517f08c379a0000000000000000000000000000000000000000000000000000000008152600401612f509061502f565b60405180910390fd5b612f6560008383613049565b8060026000828254612f7791906143bf565b92505081905550806000808473ffffffffffffffffffffffffffffffffffffffff1673ffffffffffffffffffffffffffffffffffffffff1681526020019081526020016000206000828254612fcc91906143bf565b925050819055508173ffffffffffffffffffffffffffffffffffffffff16600073ffffffffffffffffffffffffffffffffffffffff167fddf252ad1be2c89b69c2b068fc378daa952ba7f163c4a11628f55a4df523b3ef836040516130319190613fce565b60405180910390a36130456000838361304e565b5050565b505050565b505050565b600080736c021ae822bea943b2e66552bde1d2696a53fbb773ffffffffffffffffffffffffffffffffffffffff166370a08231306040518263ffffffff1660e01b81526004016130a39190613dfd565b602060405180830381865afa1580156130c0573d6000803e3d6000fd5b505050506040513d601f19601f820116820180604052508101906130e49190614363565b91507321be370d5312f44cb42ce377bc9b8a0cef1a4c8373ffffffffffffffffffffffffffffffffffffffff166370a08231306040518263ffffffff1660e01b81526004016131339190613dfd565b602060405180830381865afa158015613150573d6000803e3d6000fd5b505050506040513d601f19601f820116820180604052508101906131749190614363565b90509091565b60006064612710606461318d919061482f565b8361319891906147a6565b6131a291906147a6565b9050919050565b732a651563c9d3af67ae0388a5c8f89b867038089e73ffffffffffffffffffffffffffffffffffffffff1663095ea7b373f491e7b69e4244ad4002bc14e878a34207e38c29836040518363ffffffff1660e01b815260040161320c929190614a16565b6020604051808303816000875af115801561322b573d6000803e3d6000fd5b505050506040513d601f19601f8201168201806040525081019061324f9190614a6b565b5060008073f491e7b69e4244ad4002bc14e878a34207e38c2973ffffffffffffffffffffffffffffffffffffffff1663baa2abde7321be370d5312f44cb42ce377bc9b8a0cef1a4c83736c021ae822bea943b2e66552bde1d2696a53fbb78660018030601e426132bf91906143bf565b6040518863ffffffff1660e01b81526004016132e1979695949392919061504f565b60408051808303816000875af11580156132ff573d6000803e3d6000fd5b505050506040513d601f19601f8201168201806040525081019061332391906150be565b915091506133313084613342565b61333c848383613519565b50505050565b600073ffffffffffffffffffffffffffffffffffffffff168273ffffffffffffffffffffffffffffffffffffffff1614156133b2576040517f08c379a00000000000000000000000000000000000000000000000000000000081526004016133a990615170565b60405180910390fd5b6133be82600083613049565b60008060008473ffffffffffffffffffffffffffffffffffffffff1673ffffffffffffffffffffffffffffffffffffffff16815260200190815260200160002054905081811015613444576040517f08c379a000000000000000000000000000000000000000000000000000000000815260040161343b90615202565b60405180910390fd5b8181036000808573ffffffffffffffffffffffffffffffffffffffff1673ffffffffffffffffffffffffffffffffffffffff16815260200190815260200160002081905550816002600082825461349b9190614faf565b92505081905550600073ffffffffffffffffffffffffffffffffffffffff168373ffffffffffffffffffffffffffffffffffffffff167fddf252ad1be2c89b69c2b068fc378daa952ba7f163c4a11628f55a4df523b3ef846040516135009190613fce565b60405180910390a36135148360008461304e565b505050565b736c021ae822bea943b2e66552bde1d2696a53fbb773ffffffffffffffffffffffffffffffffffffffff1663095ea7b373f491e7b69e4244ad4002bc14e878a34207e38c29836040518363ffffffff1660e01b815260040161357c929190614a16565b6020604051808303816000875af115801561359b573d6000803e3d6000fd5b505050506040513d601f19601f820116820180604052508101906135bf9190614a6b565b506000600267ffffffffffffffff8111156135dd576135dc61469a565b5b60405190808252806020026020018201604052801561360b5781602001602082028036833780820191505090505b509050736c021ae822bea943b2e66552bde1d2696a53fbb78160008151811061363757613636614a98565b5b602002602001019073ffffffffffffffffffffffffffffffffffffffff16908173ffffffffffffffffffffffffffffffffffffffff16815250507321be370d5312f44cb42ce377bc9b8a0cef1a4c838160018151811061369a57613699614a98565b5b602002602001019073ffffffffffffffffffffffffffffffffffffffff16908173ffffffffffffffffffffffffffffffffffffffff168152505060007f000000000000000000000000000000000000000000000000000000000000000073ffffffffffffffffffffffffffffffffffffffff166338ed17398460008530601e4261372491906143bf565b6040518663ffffffff1660e01b8152600401613744959493929190614cbd565b6000604051808303816000875af1158015613763573d6000803e3d6000fd5b505050506040513d6000823e3d601f19601f8201168201806040525081019061378c9190614c74565b905060007f000000000000000000000000000000000000000000000000000000000000000073ffffffffffffffffffffffffffffffffffffffff166365555bcc6040518163ffffffff1660e01b81526004016137e790614662565b606060405180830381865afa158015613804573d6000803e3d6000fd5b505050506040513d601f19601f820116820180604052508101906138289190614779565b90506000826000815181106138405761383f614a98565b5b60200260200101518661385391906143bf565b905060007321be370d5312f44cb42ce377bc9b8a0cef1a4c8373ffffffffffffffffffffffffffffffffffffffff166370a08231306040518263ffffffff1660e01b81526004016138a49190613dfd565b602060405180830381865afa1580156138c1573d6000803e3d6000fd5b505050506040513d601f19601f820116820180604052508101906138e59190614363565b90508082106138f2578091505b6000620f4240670de0b6b3a76400008560000151613910919061482f565b670de0b6b3a764000085613924919061482f565b61392e91906147a6565b61393891906147a6565b9050600081600760008c73ffffffffffffffffffffffffffffffffffffffff1673ffffffffffffffffffffffffffffffffffffffff168152602001908152602001600020546139879190614faf565b90506000828261399791906143bf565b905060006127106064836139ab91906147a6565b6139b5919061482f565b9050600081836139c59190614faf565b90507321be370d5312f44cb42ce377bc9b8a0cef1a4c8373ffffffffffffffffffffffffffffffffffffffff1663095ea7b37f0000000000000000000000000000000000000000000000000000000000000000896040518363ffffffff1660e01b8152600401613a36929190614a16565b6020604051808303816000875af1158015613a55573d6000803e3d6000fd5b505050506040513d601f19601f82011682018060405250810190613a799190614a6b565b507f000000000000000000000000000000000000000000000000000000000000000073ffffffffffffffffffffffffffffffffffffffff16630e752702886040518263ffffffff1660e01b8152600401613ad39190613fce565b6020604051808303816000875af1158015613af2573d6000803e3d6000fd5b505050506040513d601f19601f82011682018060405250810190613b169190614363565b5060007304068da6c83afcfa0e13ba15a6696662335d5b7573ffffffffffffffffffffffffffffffffffffffff166370a08231306040518263ffffffff1660e01b8152600401613b669190613dfd565b602060405180830381865afa158015613b83573d6000803e3d6000fd5b505050506040513d601f19601f82011682018060405250810190613ba79190614363565b9050613bb1611238565b8210613bc257613bbf611238565b91505b73328a7b4d538a2b3942653a9983fda3c12c57114173ffffffffffffffffffffffffffffffffffffffff1663852a12e3836040518263ffffffff1660e01b8152600401613c0f9190613fce565b6020604051808303816000875af1158015613c2e573d6000803e3d6000fd5b505050506040513d601f19601f82011682018060405250810190613c529190614363565b5060007304068da6c83afcfa0e13ba15a6696662335d5b7573ffffffffffffffffffffffffffffffffffffffff166370a08231306040518263ffffffff1660e01b8152600401613ca29190613dfd565b602060405180830381865afa158015613cbf573d6000803e3d6000fd5b505050506040513d601f19601f82011682018060405250810190613ce39190614363565b905060008282613cf39190614faf565b90507304068da6c83afcfa0e13ba15a6696662335d5b7573ffffffffffffffffffffffffffffffffffffffff1663a9059cbb600660009054906101000a900473ffffffffffffffffffffffffffffffffffffffff16836040518363ffffffff1660e01b8152600401613d66929190614a16565b6020604051808303816000875af1158015613d85573d6000803e3d6000fd5b505050506040513d601f19601f82011682018060405250810190613da99190614a6b565b5050505050505050505050505050505050565b600073ffffffffffffffffffffffffffffffffffffffff82169050919050565b6000613de782613dbc565b9050919050565b613df781613ddc565b82525050565b6000602082019050613e126000830184613dee565b92915050565b600081519050919050565b600082825260208201905092915050565b60005b83811015613e52578082015181840152602081019050613e37565b83811115613e61576000848401525b50505050565b6000601f19601f8301169050919050565b6000613e8382613e18565b613e8d8185613e23565b9350613e9d818560208601613e34565b613ea681613e67565b840191505092915050565b60006020820190508181036000830152613ecb8184613e78565b905092915050565b6000604051905090565b600080fd5b600080fd5b613ef081613ddc565b8114613efb57600080fd5b50565b600081359050613f0d81613ee7565b92915050565b6000819050919050565b613f2681613f13565b8114613f3157600080fd5b50565b600081359050613f4381613f1d565b92915050565b60008060408385031215613f6057613f5f613edd565b5b6000613f6e85828601613efe565b9250506020613f7f85828601613f34565b9150509250929050565b60008115159050919050565b613f9e81613f89565b82525050565b6000602082019050613fb96000830184613f95565b92915050565b613fc881613f13565b82525050565b6000602082019050613fe36000830184613fbf565b92915050565b6000819050919050565b600061400e61400961400484613dbc565b613fe9565b613dbc565b9050919050565b600061402082613ff3565b9050919050565b600061403282614015565b9050919050565b61404281614027565b82525050565b600060208201905061405d6000830184614039565b92915050565b60008060006060848603121561407c5761407b613edd565b5b600061408a86828701613efe565b935050602061409b86828701613efe565b92505060406140ac86828701613f34565b9150509250925092565b60006140c182614015565b9050919050565b6140d1816140b6565b82525050565b60006020820190506140ec60008301846140c8565b92915050565b600060ff82169050919050565b614108816140f2565b82525050565b600060208201905061412360008301846140ff565b92915050565b600061413482614015565b9050919050565b61414481614129565b82525050565b600060208201905061415f600083018461413b565b92915050565b600060608201905061417a6000830186613fbf565b6141876020830185613fbf565b6141946040830184613fbf565b949350505050565b60006141a782614015565b9050919050565b6141b78161419c565b82525050565b60006020820190506141d260008301846141ae565b92915050565b6000602082840312156141ee576141ed613edd565b5b60006141fc84828501613efe565b91505092915050565b600061421082614015565b9050919050565b61422081614205565b82525050565b600060208201905061423b6000830184614217565b92915050565b6000806040838503121561425857614257613edd565b5b600061426685828601613efe565b925050602061427785828601613efe565b9150509250929050565b7f4e487b7100000000000000000000000000000000000000000000000000000000600052602260045260246000fd5b600060028204905060018216806142c857607f821691505b602082108114156142dc576142db614281565b5b50919050565b7f217661756c740000000000000000000000000000000000000000000000000000600082015250565b6000614318600683613e23565b9150614323826142e2565b602082019050919050565b600060208201905081810360008301526143478161430b565b9050919050565b60008151905061435d81613f1d565b92915050565b60006020828403121561437957614378613edd565b5b60006143878482850161434e565b91505092915050565b7f4e487b7100000000000000000000000000000000000000000000000000000000600052601160045260246000fd5b60006143ca82613f13565b91506143d583613f13565b9250827fffffffffffffffffffffffffffffffffffffffffffffffffffffffffffffffff0382111561440a57614409614390565b5b828201905092915050565b7f45524332303a207472616e7366657220616d6f756e742065786365656473206160008201527f6c6c6f77616e6365000000000000000000000000000000000000000000000000602082015250565b6000614471602883613e23565b915061447c82614415565b604082019050919050565b600060208201905081810360008301526144a081614464565b9050919050565b7f7661756c74000000000000000000000000000000000000000000000000000000600082015250565b60006144dd600583613e23565b91506144e8826144a7565b602082019050919050565b6000602082019050818103600083015261450c816144d0565b9050919050565b6000819050919050565b600061453861453361452e84614513565b613fe9565b613f13565b9050919050565b6145488161451d565b82525050565b6000604082019050614563600083018561453f565b614570602083018461453f565b9392505050565b6000806000606084860312156145905761458f613edd565b5b600061459e8682870161434e565b93505060206145af8682870161434e565b92505060406145c08682870161434e565b9150509250925092565b7f46544d0000000000000000000000000000000000000000000000000000000000600082015250565b6000614600600383613e23565b915061460b826145ca565b602082019050919050565b7f5553444300000000000000000000000000000000000000000000000000000000600082015250565b600061464c600483613e23565b915061465782614616565b602082019050919050565b6000604082019050818103600083015261467b816145f3565b9050818103602083015261468e8161463f565b9050919050565b600080fd5b7f4e487b7100000000000000000000000000000000000000000000000000000000600052604160045260246000fd5b6146d282613e67565b810181811067ffffffffffffffff821117156146f1576146f061469a565b5b80604052505050565b6000614704613ed3565b905061471082826146c9565b919050565b60006060828403121561472b5761472a614695565b5b61473560606146fa565b905060006147458482850161434e565b60008301525060206147598482850161434e565b602083015250604061476d8482850161434e565b60408301525092915050565b60006060828403121561478f5761478e613edd565b5b600061479d84828501614715565b91505092915050565b60006147b182613f13565b91506147bc83613f13565b9250817fffffffffffffffffffffffffffffffffffffffffffffffffffffffffffffffff04831182151516156147f5576147f4614390565b5b828202905092915050565b7f4e487b7100000000000000000000000000000000000000000000000000000000600052601260045260246000fd5b600061483a82613f13565b915061484583613f13565b92508261485557614854614800565b5b828204905092915050565b7f45524332303a2064656372656173656420616c6c6f77616e63652062656c6f7760008201527f207a65726f000000000000000000000000000000000000000000000000000000602082015250565b60006148bc602583613e23565b91506148c782614860565b604082019050919050565b600060208201905081810360008301526148eb816148af565b9050919050565b7f45524332303a20617070726f76652066726f6d20746865207a65726f2061646460008201527f7265737300000000000000000000000000000000000000000000000000000000602082015250565b600061494e602483613e23565b9150614959826148f2565b604082019050919050565b6000602082019050818103600083015261497d81614941565b9050919050565b7f45524332303a20617070726f766520746f20746865207a65726f20616464726560008201527f7373000000000000000000000000000000000000000000000000000000000000602082015250565b60006149e0602283613e23565b91506149eb82614984565b604082019050919050565b60006020820190508181036000830152614a0f816149d3565b9050919050565b6000604082019050614a2b6000830185613dee565b614a386020830184613fbf565b9392505050565b614a4881613f89565b8114614a5357600080fd5b50565b600081519050614a6581614a3f565b92915050565b600060208284031215614a8157614a80613edd565b5b6000614a8f84828501614a56565b91505092915050565b7f4e487b7100000000000000000000000000000000000000000000000000000000600052603260045260246000fd5b600081519050919050565b600082825260208201905092915050565b6000819050602082019050919050565b614afc81613ddc565b82525050565b6000614b0e8383614af3565b60208301905092915050565b6000602082019050919050565b6000614b3282614ac7565b614b3c8185614ad2565b9350614b4783614ae3565b8060005b83811015614b78578151614b5f8882614b02565b9750614b6a83614b1a565b925050600181019050614b4b565b5085935050505092915050565b60006020820190508181036000830152614b9f8184614b27565b905092915050565b600080fd5b600067ffffffffffffffff821115614bc757614bc661469a565b5b602082029050602081019050919050565b600080fd5b6000614bf0614beb84614bac565b6146fa565b90508083825260208201905060208402830185811115614c1357614c12614bd8565b5b835b81811015614c3c5780614c28888261434e565b845260208401935050602081019050614c15565b5050509392505050565b600082601f830112614c5b57614c5a614ba7565b5b8151614c6b848260208601614bdd565b91505092915050565b600060208284031215614c8a57614c89613edd565b5b600082015167ffffffffffffffff811115614ca857614ca7613ee2565b5b614cb484828501614c46565b91505092915050565b600060a082019050614cd26000830188613fbf565b614cdf602083018761453f565b8181036040830152614cf18186614b27565b9050614d006060830185613dee565b614d0d6080830184613fbf565b9695505050505050565b6000819050919050565b6000614d3c614d37614d3284614d17565b613fe9565b613f13565b9050919050565b614d4c81614d21565b82525050565b600061010082019050614d68600083018b613dee565b614d75602083018a613dee565b614d826040830189613fbf565b614d8f6060830188613fbf565b614d9c6080830187614d43565b614da960a0830186614d43565b614db660c0830185613dee565b614dc360e0830184613fbf565b9998505050505050505050565b6000604082019050614de5600083018561453f565b614df26020830184613fbf565b9392505050565b7f45524332303a207472616e736665722066726f6d20746865207a65726f20616460008201527f6472657373000000000000000000000000000000000000000000000000000000602082015250565b6000614e55602583613e23565b9150614e6082614df9565b604082019050919050565b60006020820190508181036000830152614e8481614e48565b9050919050565b7f45524332303a207472616e7366657220746f20746865207a65726f206164647260008201527f6573730000000000000000000000000000000000000000000000000000000000602082015250565b6000614ee7602383613e23565b9150614ef282614e8b565b604082019050919050565b60006020820190508181036000830152614f1681614eda565b9050919050565b7f45524332303a207472616e7366657220616d6f756e742065786365656473206260008201527f616c616e63650000000000000000000000000000000000000000000000000000602082015250565b6000614f79602683613e23565b9150614f8482614f1d565b604082019050919050565b60006020820190508181036000830152614fa881614f6c565b9050919050565b6000614fba82613f13565b9150614fc583613f13565b925082821015614fd857614fd7614390565b5b828203905092915050565b7f45524332303a206d696e7420746f20746865207a65726f206164647265737300600082015250565b6000615019601f83613e23565b915061502482614fe3565b602082019050919050565b600060208201905081810360008301526150488161500c565b9050919050565b600060e082019050615064600083018a613dee565b6150716020830189613dee565b61507e6040830188613fbf565b61508b6060830187614d43565b6150986080830186614d43565b6150a560a0830185613dee565b6150b260c0830184613fbf565b98975050505050505050565b600080604083850312156150d5576150d4613edd565b5b60006150e38582860161434e565b92505060206150f48582860161434e565b9150509250929050565b7f45524332303a206275726e2066726f6d20746865207a65726f2061646472657360008201527f7300000000000000000000000000000000000000000000000000000000000000602082015250565b600061515a602183613e23565b9150615165826150fe565b604082019050919050565b600060208201905081810360008301526151898161514d565b9050919050565b7f45524332303a206275726e20616d6f756e7420657863656564732062616c616e60008201527f6365000000000000000000000000000000000000000000000000000000000000602082015250565b60006151ec602283613e23565b91506151f782615190565b604082019050919050565b6000602082019050818103600083015261521b816151df565b905091905056fea26469706673582212200de71e90665140581a56453b2b4dbed3b3b1ae9ccb6eed0c6cb1419b6239d0e264736f6c634300080a0033",
  "immutableReferences": {
    "2069": [
      {
        "length": 32,
        "start": 4460
      },
      {
        "length": 32,
        "start": 10117
      },
      {
        "length": 32,
        "start": 10699
      },
      {
        "length": 32,
        "start": 14040
      }
    ],
    "2072": [
      {
        "length": 32,
        "start": 3894
      },
      {
        "length": 32,
        "start": 4288
      },
      {
        "length": 32,
        "start": 6501
      }
    ],
    "2075": [
      {
        "length": 32,
        "start": 3310
      },
      {
        "length": 32,
        "start": 4058
      },
      {
        "length": 32,
        "start": 14226
      }
    ],
    "2078": [
      {
        "length": 32,
        "start": 2839
      },
      {
        "length": 32,
        "start": 3149
      },
      {
        "length": 32,
        "start": 6677
      },
      {
        "length": 32,
        "start": 14841
      },
      {
        "length": 32,
        "start": 14972
      }
    ]
  },
  "source": "pragma solidity ^0.8.10; \npragma abicoder v2;  \n\nimport \"../DjinnBottleUSDC.sol\"; \nimport \"../interfaces/CTokenInterfaces.sol\"; \nimport \"../interfaces/ComptrollerInterface.sol\";  \nimport \"../interfaces/IStdReference.sol\"; \nimport \"@uniswap/v2-periphery/contracts/interfaces/IUniswapV2Router02.sol\"; \nimport \"../interfaces/IMasterChef.sol\"; \nimport \"@openzeppelin/contracts/token/ERC20/IERC20.sol\"; \n\n\ncontract ShortFarmFTM is ERC20 {\n\t\n\t//Contract Specifics \n\taddress public creator; \n\tuint private constant CREATOR_FEE = 100; //1% \n\tDjinnBottleUSDC public VAULT; \n\n\tmapping(address => uint) public depositBalance;\n\tuint public ass; \n\tuint public balls; \n\t//Cream Finance Contracts \n\taddress public constant crUSDC = 0x328A7b4d538A2b3942653a9983fdA3C12c571141; \n\n\t//Public Tokens\n\taddress public constant USDC = 0x04068DA6C83AFCFA0e13ba15A6696662335D5B75; \n\taddress public constant WFTM = 0x21be370D5312f44cB42ce377BC9b8a0cEF1A4C83; \n\taddress public constant TOMB = 0x6c021Ae822BEa943b2E66552bDe1D2696a53fbB7; \n\taddress public constant TSHARE = 0x4cdF39285D7Ca8eB3f090fDA0C069ba5F4145B37; \n\t\n\t//SpookySwap Router, LP, TSHAREPool \n\taddress public constant spookyAddress = 0xF491e7B69E4244ad4002BC14e878a34207E38c29;\t\t\n\taddress public constant spookyFtmTombLP = 0x2A651563C9d3Af67aE0388a5c8F89b867038089e; \n\taddress public constant tShareRewardPool = 0xcc0a87F7e7c693042a9Cc703661F5060c80ACb43; \n\n\n\t//Contract Interfaces  \n\tIUniswapV2Router02 public immutable spookyRouter; \n\tComptrollerInterface public immutable comptroller; \n\tIStdReference public immutable priceOracle;\n\tCERC20 public immutable crWFTM; \t\n\t\n\n\n\tconstructor(DjinnBottleUSDC _djBottle, \t\n\t\t\t\tIUniswapV2Router02 _spookyRouter, \n\t\t\t\tComptrollerInterface _comptroller, \n\t\t\t\tIStdReference _priceOracle,\n\t\t\t\tCERC20 _cERC20) ERC20(\"Djinn Finance FTM Short Farm\", \"dfFTMShort\") {\n\t\t\t\t\taddress creator = msg.sender;\n\t\t\t\t\tVAULT = _djBottle; \n\t\t\t\t\tspookyRouter = _spookyRouter; \n\t\t\t\t\tcomptroller = _comptroller;  \n\t\t\t\t\tpriceOracle = _priceOracle; \n\t\t\t\t\tcrWFTM = _cERC20; \n\t\t\t\t}\n\t\n\t//automate opening a position\n\t//designed for single user ie. user opens via vault contract \t\n\tfunction open(address user, uint amount) external {\n\t\trequire(msg.sender == address(VAULT), \"!vault\"); \n\t\tborrow(user, amount); //same amount in USDC to keep track of how many tokens we have supplied \n\t\tswap(); //swap half of bal to TOMB and unwrap the rest to FTM \n\t\tgetLPTokens(); //get FTM-TOMB LP tokens \t\n\t\tdepositLPGetTShare(); //deposit LP tokens on TOMB to earn TSHARE\n\t}\n\n\t//automate the harvest \n\tfunction harvest() external {\n\t\trequire(msg.sender == address(VAULT), \"vault\"); \n\t\tIMasterChef(tShareRewardPool).deposit(0, 0); //0 is poolId and we call a deposit of 0 to allocate the shares to this contract\n\t\tsellAndSwap(); //sell tshare for 50% TOMB 50% WFTM \n\t\tgetLPTokens(); \n\t\tdepositLPGetTShare(); \n\t}\n\t\n\t//automate the closing of the position\n\t//designed for single use ie. user closes via vault contract \t\n\t//so we need to vault contract to determine how many tokens belong to the user from this contract \n\tfunction close(address user, uint amountShares) external {\n\t\trequire(msg.sender == address(VAULT), \"!vault\"); \n\t\t//swap all LP tokens back to underlying \n\t\tswapAndWithdraw(user, amountShares);   \n\t}\n\t\n\t//next we borrow WTFM from cream <= 75% so we don't get liquidated\n\t//cream allows for 75% collateral on deposits of USDC, but this 75% is on the 75% \n\t//so we are effectively borrowing ~55% of our deposit amount, which leaves room to the upside  \t\t\n\tfunction borrow(address user, uint amount) internal {\n\t\t//store user balance for withdraw later \n\t\tdepositBalance[user] = amount; \n\n\t\t//first we supply USDC\n\t\tIERC20(USDC).approve(crUSDC, amount);  \n\t\tCERC20(crUSDC).mint(amount); \n\t\t\n\t\t//we enter the marker to use usdc as collateral \t\n\t\taddress[] memory cTokenSupplied = new address[](1); \n\t\tcTokenSupplied[0] = crUSDC; //cToken address\n\t\tcomptroller.enterMarkets(cTokenSupplied); \n\t\t\n\t\t//get max borrow && borrow  \n\t\t( ,uint borrowAmount, ) = getBorrowAmount();\n\t\tcrWFTM.borrow(borrowAmount);  \n\t\t\n\t}\n\n\tfunction getBorrowAmount() public view returns(uint liquidity, uint borrowAmount, uint price) {\n\t\t(, liquidity,) = comptroller.getAccountLiquidity(address(this)); \n\t\tIStdReference.ReferenceData memory data = priceOracle.getReferenceData(\"FTM\", \"USDC\"); \n\t\tprice = data.rate; \n\t\tuint maxTokenBorrow = (liquidity * 10**18) / price; //wFTM has 18 decimals   \t\n\t\tborrowAmount = (maxTokenBorrow * 75) / 100; //this is token amount  \n\t\treturn (liquidity, borrowAmount, price); \n\t}\n\n\tfunction vaultBalance() public returns(uint) {\n\t\tuint vault = IERC20(USDC).balanceOf(address(VAULT)); \n\t\tuint underlying = getUnderlying(); \n\t\tuint total = vault + underlying; \n\t\treturn total; \n\t}\n\n\t//where amount is the percentage of LP tokens relative to the users USDC amount in vault \n\tfunction swapAndWithdraw(address user, uint amountShares) internal {\n\t\tuint strategyBalance = IERC20(address(this)).balanceOf(address(this)); \n\t\tuint pool = vaultBalance();  \n\t\tuint percentLP = (strategyBalance * pool) / amountShares; //percentLP is WAD scaled now  \t\n\t\t\n\t\t//handle rounding error case on big withdraw \n\t\tif (percentLP > strategyBalance) {\n\t\t\tpercentLP = strategyBalance; \n\t\t}\n\n\t\t//we first withdraw the LP tokens from TOMB  \n\t\t//we have to check the balances before and after the withdrawl in case there are leftovers \n\t\tuint amountBefore = IERC20(spookyFtmTombLP).balanceOf(address(this)); \n\t\tIMasterChef(tShareRewardPool).withdraw(0, percentLP);  \n\t\tuint amountAfter = IERC20(spookyFtmTombLP).balanceOf(address(this)); \n\t\tuint lpTokenAmount = amountAfter - amountBefore; \n\n\n\t\tdepositBalance[user] = amountShares; \t\n\t\tremoveLiq(user, lpTokenAmount); \n\t}\n\n\tfunction getAss() external view returns(uint) {\n\t\treturn ass; \n\t}\n\n\tfunction removeLiq(address user, uint lpTokenAmount) internal {\t\t \n\t\t//we remove liquidity belonging to the user(amount) back for tomb + wftm \n\t\tIERC20(spookyFtmTombLP).approve(spookyAddress, lpTokenAmount); \n\t\t(uint amountWftm, uint amountTomb) = IUniswapV2Router02(spookyAddress).removeLiquidity(\n\t\t\tWFTM,\n\t\t\tTOMB, \n\t\t\tlpTokenAmount,\n\t\t   \t1,\n\t\t   \t1,\n\t\t   \taddress(this),\n\t\t   \tblock.timestamp + 30\n\t\t); \n\n\t\t_burn(address(this), lpTokenAmount); \n\t\t//next step\t\n\t\tswapBack(user, amountWftm, amountTomb); \n\t}\n\n\tfunction getUnderlying() public returns(uint) {\n\t\treturn CERC20(crUSDC).balanceOfUnderlying(address(this)); //this returns the underlying USDC amount in 6 decimals \n\t}\n\t\n\tfunction borrowBalance() public returns(uint) {\n\t\treturn crWFTM.borrowBalanceCurrent(address(this)); \n\t}\n\n\tfunction swapBack(address user, uint amountWftm, uint amountTomb) internal {\n\t\t//now we swap tomb back for wftm\n\t\t//only need to approve TOMB because wftm is not being swapped \n\t\tIERC20(TOMB).approve(spookyAddress, amountTomb); \n\t\taddress[] memory path = new address[](2); \n\t\tpath[0] = TOMB; \n\t\tpath[1] = WFTM; \n\t\tuint[] memory amounts = spookyRouter.swapExactTokensForTokens(\n\t\t\tamountTomb,\n\t\t\t0,\n\t\t\tpath,\n\t\t\taddress(this),\n\t\t\tblock.timestamp + 30\n\t\t);\n\n\t\tIStdReference.ReferenceData memory data = priceOracle.getReferenceData(\"FTM\", \"USDC\"); \t\t\n\t\tuint amountToRepay = amountWftm + amounts[0]; //amount from removing liq + amount from swap in token \n\t\tuint holding = IERC20(WFTM).balanceOf(address(this)); \n\n\t\tif (amountToRepay >= holding) {\n\t\t\tamountToRepay = holding; \n\t\t}\t\n\n\t\tuint dollarAmount = (amountToRepay / 1e18) * (data.rate / 1e18) * 1e6; //token price in USDC for amount of wftm   \n\t\tuint diff  = depositBalance[user] - dollarAmount; //share amount - LP token amount = diff  \n\t\t\n\t\t//deposit balance is share amount  \n\t\tuint initial = diff + dollarAmount;  \n\t\tuint fee = (initial * CREATOR_FEE) / 10000;\n\t\tuint redeemAmount = initial - fee; \n\n\n\t\t//now we can repay our users borrow\n\t   \t//need to convert wftm token amount to dollar amount \n\t\tIERC20(WFTM).approve(address(crWFTM), amountToRepay); //this is wftm token amount  \n\t\tcrWFTM.repayBorrow(amountToRepay); \n\n\t\t//creamUSDC balance redeem\n\t\tuint beforeBalance = IERC20(USDC).balanceOf(address(this)); \n\t\tif (redeemAmount >= getUnderlying()) {\n\t\t\tredeemAmount = getUnderlying();\n\t\t}\n\t\n\t\t//have to cheat a bit due to all the dust if one person is in farm, they won't be able to withdraw unless we\n\t\t//charge the fee here to allow them to get out with a small fee  \t\n\t\tCERC20(crUSDC).redeemUnderlying(redeemAmount); \n\t\t\n\t\t//get usdc balance after redeem \n\t\tuint afterBalance = IERC20(USDC).balanceOf(address(this));\n\t\tuint sendAmount\t= afterBalance - beforeBalance; //check for difference to send correct amount \n\t\t\n\t\tIERC20(USDC).transfer(address(VAULT), sendAmount);  \n\t}\n\n\t//then we send the funds to spookyswap where we sell 50% to tomb and then unwrap the rest \n\tfunction swap() internal { \n\t\t//swap 50% to TOMB & approve \n\t\tuint half = IERC20(WFTM).balanceOf(address(this)) * 50 / 100; \n\t\tIERC20(WFTM).approve(spookyAddress, half);\n\t\n \n         address[] memory path = new address[](2);\n         path[0] = WFTM;\n         path[1] = TOMB;\n         IUniswapV2Router02(spookyAddress).swapExactTokensForTokens(\n             half,\n             0,\n             path,\n             address(this),\n             block.timestamp\n\t\t ); \n\t }\n\n\tfunction sellAndSwap() internal {\n\t\t(uint tombBefore, uint wftmBefore) = getIERC20Balance(); \n\n\t\tuint half = IERC20(TSHARE).balanceOf(address(this)) * 50 / 100;   \n\t\taddress[] memory pathToTomb = new address[](3); \n\t\tpathToTomb[0] = TSHARE;  \n\t\tpathToTomb[1] = WFTM; \n\t\tpathToTomb[2] = TOMB; \n\t\tspookyRouter.swapExactTokensForTokensSupportingFeeOnTransferTokens(\n\t\t\thalf,\n\t\t\t0,\n\t\t\tpathToTomb,\n\t\t\taddress(this),\n\t\t\tblock.timestamp + 30\n\t\t); \n\n\t\t//swap rest to WFTM \n\t\tuint rest = IERC20(TSHARE).balanceOf(address(this)); \n\t\taddress[] memory pathToWftm = new address[](2); \n\t\tpathToWftm[0] = TSHARE; \n\t\tpathToWftm[1] = WFTM; \n\t\tspookyRouter.swapExactTokensForTokensSupportingFeeOnTransferTokens(\n\t\t\trest,\n\t\t\t0,\n\t\t\tpathToWftm,\n\t\t\taddress(this),\n\t\t\tblock.timestamp + 30\n\t\t); \n\t\t\n\t\t(uint tombAfter, uint wftmAfter) = getIERC20Balance(); \t\n\t\tuint tombToSend = tombAfter - tombBefore; \n\t\tuint wftmToSend = wftmAfter - wftmBefore; \n\t\t\n\t\t//charge the fees here\n\t\tuint feeAmountTomb = chargeFeesOnHarvest(tombToSend); \t\n\t\tuint feeAmountWftm = chargeFeesOnHarvest(wftmToSend);\n\t\tIERC20(TOMB).transfer(address(VAULT), feeAmountTomb); \n\t\tIERC20(WFTM).transfer(address(VAULT), feeAmountWftm); \t\n\t}\n\n\tfunction getLPTokens() internal {\n\t\t//we need to approve the router to spend our TOMB\n\t\tuint tombAmount = IERC20(TOMB).balanceOf(address(this)); \n\t\tuint ftmAmount = IERC20(WFTM).balanceOf(address(this));  \n\n\t\t//now we add liquidity \n\t\t//@params token, tokenAmount, minToken, minETH, to, deadline\n\t\tIERC20(TOMB).approve(spookyAddress, tombAmount); \n\t\tIERC20(WFTM).approve(spookyAddress, ftmAmount); \n\t\tIUniswapV2Router02(spookyAddress).addLiquidity(TOMB, WFTM, tombAmount, ftmAmount, 1, 1, address(this), block.timestamp + 30); \n\t}\n\n\tfunction depositLPGetTShare() internal {\n\t\t//deposit into tshare vault using _pid but idk how to get that currently \t\n\t\tuint lpTokenBalance = IERC20(spookyFtmTombLP).balanceOf(address(this)); \n\n\t\t_mint(address(this), lpTokenBalance); \n\n\t\t//after this deposit the contract should be earning tshares as a reward \n\t\tIERC20(spookyFtmTombLP).approve(tShareRewardPool, lpTokenBalance); \n\t\tIMasterChef(tShareRewardPool).deposit(0, lpTokenBalance); //FTM-TOMB pool ID is 0 on Tomb.finance  \n\t}\n\n\tfunction chargeFeesOnHarvest(uint amount) internal view returns(uint feeAmount) {\n\t\treturn feeAmount = amount * (CREATOR_FEE / 10000) * 100; //0.1 or 1% \n\t}\n\n\tfunction getIERC20Balance() internal view returns(uint amountTomb, uint amountWftm) {\n\t\tamountTomb = IERC20(TOMB).balanceOf(address(this)); \n\t\tamountWftm = IERC20(WFTM).balanceOf(address(this)); \n\t\treturn (amountTomb, amountWftm); \n\t}\n\n\treceive() external payable{} \n\t\n} \n",
  "sourcePath": "/home/kevin/Code/solidity_projects/djinn/contracts/strategies/ShortFarmFTM.sol",
  "compiler": {
    "name": "solc",
    "version": "0.8.10+commit.fc410830.Emscripten.clang"
  },
  "schemaVersion": "3.4.3",
  "updatedAt": "2022-02-09T01:35:30.115Z",
  "networkType": "ethereum",
  "devdoc": {
    "kind": "dev",
    "methods": {
      "allowance(address,address)": {
        "details": "See {IERC20-allowance}."
      },
      "approve(address,uint256)": {
        "details": "See {IERC20-approve}. Requirements: - `spender` cannot be the zero address."
      },
      "balanceOf(address)": {
        "details": "See {IERC20-balanceOf}."
      },
      "decimals()": {
        "details": "Returns the number of decimals used to get its user representation. For example, if `decimals` equals `2`, a balance of `505` tokens should be displayed to a user as `5.05` (`505 / 10 ** 2`). Tokens usually opt for a value of 18, imitating the relationship between Ether and Wei. This is the value {ERC20} uses, unless this function is overridden; NOTE: This information is only used for _display_ purposes: it in no way affects any of the arithmetic of the contract, including {IERC20-balanceOf} and {IERC20-transfer}."
      },
      "decreaseAllowance(address,uint256)": {
        "details": "Atomically decreases the allowance granted to `spender` by the caller. This is an alternative to {approve} that can be used as a mitigation for problems described in {IERC20-approve}. Emits an {Approval} event indicating the updated allowance. Requirements: - `spender` cannot be the zero address. - `spender` must have allowance for the caller of at least `subtractedValue`."
      },
      "increaseAllowance(address,uint256)": {
        "details": "Atomically increases the allowance granted to `spender` by the caller. This is an alternative to {approve} that can be used as a mitigation for problems described in {IERC20-approve}. Emits an {Approval} event indicating the updated allowance. Requirements: - `spender` cannot be the zero address."
      },
      "name()": {
        "details": "Returns the name of the token."
      },
      "symbol()": {
        "details": "Returns the symbol of the token, usually a shorter version of the name."
      },
      "totalSupply()": {
        "details": "See {IERC20-totalSupply}."
      },
      "transfer(address,uint256)": {
        "details": "See {IERC20-transfer}. Requirements: - `recipient` cannot be the zero address. - the caller must have a balance of at least `amount`."
      },
      "transferFrom(address,address,uint256)": {
        "details": "See {IERC20-transferFrom}. Emits an {Approval} event indicating the updated allowance. This is not required by the EIP. See the note at the beginning of {ERC20}. Requirements: - `sender` and `recipient` cannot be the zero address. - `sender` must have a balance of at least `amount`. - the caller must have allowance for ``sender``'s tokens of at least `amount`."
      }
    },
    "version": 1
  },
  "userdoc": {
    "kind": "user",
    "methods": {},
    "version": 1
  }
}