{
  "contractName": "ShortFarmFTM",
  "abi": [
    {
      "inputs": [
        {
          "internalType": "address",
          "name": "creator",
          "type": "address"
        },
        {
          "internalType": "contract DjinnBottle",
          "name": "_djBottle",
          "type": "address"
        },
        {
          "internalType": "contract IUniswapV2Router02",
          "name": "_spookyRouter",
          "type": "address"
        },
        {
          "internalType": "contract IWFTM",
          "name": "_wftm",
          "type": "address"
        }
      ],
      "stateMutability": "nonpayable",
      "type": "constructor"
    },
    {
      "inputs": [],
      "name": "TOMB",
      "outputs": [
        {
          "internalType": "address",
          "name": "",
          "type": "address"
        }
      ],
      "stateMutability": "view",
      "type": "function"
    },
    {
      "inputs": [],
      "name": "USDC",
      "outputs": [
        {
          "internalType": "address",
          "name": "",
          "type": "address"
        }
      ],
      "stateMutability": "view",
      "type": "function"
    },
    {
      "inputs": [],
      "name": "VAULT",
      "outputs": [
        {
          "internalType": "contract DjinnBottle",
          "name": "",
          "type": "address"
        }
      ],
      "stateMutability": "view",
      "type": "function"
    },
    {
      "inputs": [],
      "name": "controller",
      "outputs": [
        {
          "internalType": "address",
          "name": "",
          "type": "address"
        }
      ],
      "stateMutability": "view",
      "type": "function"
    },
    {
      "inputs": [],
      "name": "crUSDC",
      "outputs": [
        {
          "internalType": "address",
          "name": "",
          "type": "address"
        }
      ],
      "stateMutability": "view",
      "type": "function"
    },
    {
      "inputs": [],
      "name": "crWFTM",
      "outputs": [
        {
          "internalType": "address",
          "name": "",
          "type": "address"
        }
      ],
      "stateMutability": "view",
      "type": "function"
    },
    {
      "inputs": [],
      "name": "spookyRouter",
      "outputs": [
        {
          "internalType": "contract IUniswapV2Router02",
          "name": "",
          "type": "address"
        }
      ],
      "stateMutability": "view",
      "type": "function"
    },
    {
      "inputs": [
        {
          "internalType": "uint256",
          "name": "amount",
          "type": "uint256"
        }
      ],
      "name": "deposit",
      "outputs": [],
      "stateMutability": "nonpayable",
      "type": "function"
    },
    {
      "inputs": [
        {
          "internalType": "uint256",
          "name": "amount",
          "type": "uint256"
        }
      ],
      "name": "borrow",
      "outputs": [],
      "stateMutability": "nonpayable",
      "type": "function"
    },
    {
      "inputs": [
        {
          "internalType": "uint256",
          "name": "amountOutMin",
          "type": "uint256"
        }
      ],
      "name": "unwrapAndSwap",
      "outputs": [],
      "stateMutability": "nonpayable",
      "type": "function"
    }
  ],
  "bytecode": "0x6101406040527304068da6c83afcfa0e13ba15a6696662335d5b7573ffffffffffffffffffffffffffffffffffffffff1660a09073ffffffffffffffffffffffffffffffffffffffff1681525073328a7b4d538a2b3942653a9983fda3c12c57114173ffffffffffffffffffffffffffffffffffffffff1660c09073ffffffffffffffffffffffffffffffffffffffff1681525073d528697008ac67a21818751a5e3c58c8dae5469673ffffffffffffffffffffffffffffffffffffffff1660e09073ffffffffffffffffffffffffffffffffffffffff16815250736c021ae822bea943b2e66552bde1d2696a53fbb773ffffffffffffffffffffffffffffffffffffffff166101009073ffffffffffffffffffffffffffffffffffffffff1681525073f491e7b69e4244ad4002bc14e878a34207e38c296000806101000a81548173ffffffffffffffffffffffffffffffffffffffff021916908373ffffffffffffffffffffffffffffffffffffffff1602179055503480156200018357600080fd5b506040516200149e3803806200149e8339818101604052810190620001a9919062000399565b3393508173ffffffffffffffffffffffffffffffffffffffff166101208173ffffffffffffffffffffffffffffffffffffffff16815250508273ffffffffffffffffffffffffffffffffffffffff1660808173ffffffffffffffffffffffffffffffffffffffff168152505080600260006101000a81548173ffffffffffffffffffffffffffffffffffffffff021916908373ffffffffffffffffffffffffffffffffffffffff160217905550505050506200040b565b600080fd5b600073ffffffffffffffffffffffffffffffffffffffff82169050919050565b6000620002928262000265565b9050919050565b620002a48162000285565b8114620002b057600080fd5b50565b600081519050620002c48162000299565b92915050565b6000620002d78262000285565b9050919050565b620002e981620002ca565b8114620002f557600080fd5b50565b6000815190506200030981620002de565b92915050565b60006200031c8262000285565b9050919050565b6200032e816200030f565b81146200033a57600080fd5b50565b6000815190506200034e8162000323565b92915050565b6000620003618262000285565b9050919050565b620003738162000354565b81146200037f57600080fd5b50565b600081519050620003938162000368565b92915050565b60008060008060808587031215620003b657620003b562000260565b5b6000620003c687828801620002b3565b9450506020620003d987828801620002f8565b9350506040620003ec878288016200033d565b9250506060620003ff8782880162000382565b91505092959194509250565b60805160a05160c05160e0516101005161012051610fef620004af600039600081816103ad015261060d01526000818161033e01526108510152600081816101d1015281816102cf0152818161047e0152818161057d01526109690152600081816105c50152818161072e015281816107b101526108790152600081816105e90152818161063101526106f20152600081816105a1015261066d0152610fef6000f3fe608060405234801561001057600080fd5b506004361061009e5760003560e01c80638ed8ea7e116100665780638ed8ea7e14610137578063b6b55f2514610155578063c139acfa14610171578063c5ebeaec1461018f578063f77c4791146101ab5761009e565b80630b724f29146100a35780631882bf44146100bf578063411557d1146100dd57806382c70bbf146100fb57806389a3027114610119575b600080fd5b6100bd60048036038101906100b89190610a6d565b6101c9565b005b6100c761057b565b6040516100d49190610adb565b60405180910390f35b6100e561059f565b6040516100f29190610b55565b60405180910390f35b6101036105c3565b6040516101109190610adb565b60405180910390f35b6101216105e7565b60405161012e9190610adb565b60405180910390f35b61013f61060b565b60405161014c9190610b91565b60405180910390f35b61016f600480360381019061016a9190610a6d565b61062f565b005b61017961084f565b6040516101869190610adb565b60405180910390f35b6101a960048036038101906101a49190610a6d565b610873565b005b6101b3610a0c565b6040516101c09190610adb565b60405180910390f35b6000606460327f000000000000000000000000000000000000000000000000000000000000000073ffffffffffffffffffffffffffffffffffffffff166370a08231306040518263ffffffff1660e01b81526004016102289190610adb565b602060405180830381865afa158015610245573d6000803e3d6000fd5b505050506040513d601f19601f820116820180604052508101906102699190610bc1565b6102739190610c1d565b61027d9190610ca6565b90506000600267ffffffffffffffff81111561029c5761029b610cd7565b5b6040519080825280602002602001820160405280156102ca5781602001602082028036833780820191505090505b5090507f00000000000000000000000000000000000000000000000000000000000000008160008151811061030257610301610d06565b5b602002602001019073ffffffffffffffffffffffffffffffffffffffff16908173ffffffffffffffffffffffffffffffffffffffff16815250507f00000000000000000000000000000000000000000000000000000000000000008160018151811061037157610370610d06565b5b602002602001019073ffffffffffffffffffffffffffffffffffffffff16908173ffffffffffffffffffffffffffffffffffffffff16815250507f000000000000000000000000000000000000000000000000000000000000000073ffffffffffffffffffffffffffffffffffffffff16635c11d79583858430426040518663ffffffff1660e01b815260040161040c959493929190610e02565b600060405180830381600087803b15801561042657600080fd5b505af115801561043a573d6000803e3d6000fd5b50505050600260009054906101000a900473ffffffffffffffffffffffffffffffffffffffff1673ffffffffffffffffffffffffffffffffffffffff16632e1a7d4d7f000000000000000000000000000000000000000000000000000000000000000073ffffffffffffffffffffffffffffffffffffffff166370a08231306040518263ffffffff1660e01b81526004016104d59190610adb565b602060405180830381865afa1580156104f2573d6000803e3d6000fd5b505050506040513d601f19601f820116820180604052508101906105169190610bc1565b6040518263ffffffff1660e01b81526004016105329190610e5c565b6020604051808303816000875af1158015610551573d6000803e3d6000fd5b505050506040513d601f19601f820116820180604052508101906105759190610bc1565b50505050565b7f000000000000000000000000000000000000000000000000000000000000000081565b7f000000000000000000000000000000000000000000000000000000000000000081565b7f000000000000000000000000000000000000000000000000000000000000000081565b7f000000000000000000000000000000000000000000000000000000000000000081565b7f000000000000000000000000000000000000000000000000000000000000000081565b7f000000000000000000000000000000000000000000000000000000000000000073ffffffffffffffffffffffffffffffffffffffff166323b872dd7f000000000000000000000000000000000000000000000000000000000000000030846040518463ffffffff1660e01b81526004016106ac93929190610e77565b6020604051808303816000875af11580156106cb573d6000803e3d6000fd5b505050506040513d601f19601f820116820180604052508101906106ef9190610ee6565b507f000000000000000000000000000000000000000000000000000000000000000073ffffffffffffffffffffffffffffffffffffffff1663095ea7b37f0000000000000000000000000000000000000000000000000000000000000000836040518363ffffffff1660e01b815260040161076b929190610f13565b6020604051808303816000875af115801561078a573d6000803e3d6000fd5b505050506040513d601f19601f820116820180604052508101906107ae9190610ee6565b507f000000000000000000000000000000000000000000000000000000000000000073ffffffffffffffffffffffffffffffffffffffff1663a0712d68826040518263ffffffff1660e01b81526004016108089190610e5c565b6020604051808303816000875af1158015610827573d6000803e3d6000fd5b505050506040513d601f19601f8201168201806040525081019061084b9190610bc1565b5050565b7f000000000000000000000000000000000000000000000000000000000000000081565b606460467f000000000000000000000000000000000000000000000000000000000000000073ffffffffffffffffffffffffffffffffffffffff166370a08231306040518263ffffffff1660e01b81526004016108d09190610adb565b602060405180830381865afa1580156108ed573d6000803e3d6000fd5b505050506040513d601f19601f820116820180604052508101906109119190610bc1565b61091b9190610c1d565b6109259190610ca6565b811015610967576040517f08c379a000000000000000000000000000000000000000000000000000000000815260040161095e90610f99565b60405180910390fd5b7f000000000000000000000000000000000000000000000000000000000000000073ffffffffffffffffffffffffffffffffffffffff1663c5ebeaec826040518263ffffffff1660e01b81526004016109c09190610e5c565b6020604051808303816000875af11580156109df573d6000803e3d6000fd5b505050506040513d601f19601f82011682018060405250810190610a039190610bc1565b60038190555050565b600160009054906101000a900473ffffffffffffffffffffffffffffffffffffffff1681565b600080fd5b6000819050919050565b610a4a81610a37565b8114610a5557600080fd5b50565b600081359050610a6781610a41565b92915050565b600060208284031215610a8357610a82610a32565b5b6000610a9184828501610a58565b91505092915050565b600073ffffffffffffffffffffffffffffffffffffffff82169050919050565b6000610ac582610a9a565b9050919050565b610ad581610aba565b82525050565b6000602082019050610af06000830184610acc565b92915050565b6000819050919050565b6000610b1b610b16610b1184610a9a565b610af6565b610a9a565b9050919050565b6000610b2d82610b00565b9050919050565b6000610b3f82610b22565b9050919050565b610b4f81610b34565b82525050565b6000602082019050610b6a6000830184610b46565b92915050565b6000610b7b82610b22565b9050919050565b610b8b81610b70565b82525050565b6000602082019050610ba66000830184610b82565b92915050565b600081519050610bbb81610a41565b92915050565b600060208284031215610bd757610bd6610a32565b5b6000610be584828501610bac565b91505092915050565b7f4e487b7100000000000000000000000000000000000000000000000000000000600052601160045260246000fd5b6000610c2882610a37565b9150610c3383610a37565b9250817fffffffffffffffffffffffffffffffffffffffffffffffffffffffffffffffff0483118215151615610c6c57610c6b610bee565b5b828202905092915050565b7f4e487b7100000000000000000000000000000000000000000000000000000000600052601260045260246000fd5b6000610cb182610a37565b9150610cbc83610a37565b925082610ccc57610ccb610c77565b5b828204905092915050565b7f4e487b7100000000000000000000000000000000000000000000000000000000600052604160045260246000fd5b7f4e487b7100000000000000000000000000000000000000000000000000000000600052603260045260246000fd5b610d3e81610a37565b82525050565b600081519050919050565b600082825260208201905092915050565b6000819050602082019050919050565b610d7981610aba565b82525050565b6000610d8b8383610d70565b60208301905092915050565b6000602082019050919050565b6000610daf82610d44565b610db98185610d4f565b9350610dc483610d60565b8060005b83811015610df5578151610ddc8882610d7f565b9750610de783610d97565b925050600181019050610dc8565b5085935050505092915050565b600060a082019050610e176000830188610d35565b610e246020830187610d35565b8181036040830152610e368186610da4565b9050610e456060830185610acc565b610e526080830184610d35565b9695505050505050565b6000602082019050610e716000830184610d35565b92915050565b6000606082019050610e8c6000830186610acc565b610e996020830185610acc565b610ea66040830184610d35565b949350505050565b60008115159050919050565b610ec381610eae565b8114610ece57600080fd5b50565b600081519050610ee081610eba565b92915050565b600060208284031215610efc57610efb610a32565b5b6000610f0a84828501610ed1565b91505092915050565b6000604082019050610f286000830185610acc565b610f356020830184610d35565b9392505050565b600082825260208201905092915050565b7f62616c616e636520746f6f206c6f770000000000000000000000000000000000600082015250565b6000610f83600f83610f3c565b9150610f8e82610f4d565b602082019050919050565b60006020820190508181036000830152610fb281610f76565b905091905056fea26469706673582212202918a47f89418061b6e649a9c27dd3d56acb7f61449b9de44c9050374ee7f74564736f6c634300080a0033",
  "immutableReferences": {
    "1362": [
      {
        "length": 32,
        "start": 1441
      },
      {
        "length": 32,
        "start": 1645
      }
    ],
    "1365": [
      {
        "length": 32,
        "start": 1513
      },
      {
        "length": 32,
        "start": 1585
      },
      {
        "length": 32,
        "start": 1778
      }
    ],
    "1368": [
      {
        "length": 32,
        "start": 1477
      },
      {
        "length": 32,
        "start": 1838
      },
      {
        "length": 32,
        "start": 1969
      },
      {
        "length": 32,
        "start": 2169
      }
    ],
    "1371": [
      {
        "length": 32,
        "start": 465
      },
      {
        "length": 32,
        "start": 719
      },
      {
        "length": 32,
        "start": 1150
      },
      {
        "length": 32,
        "start": 1405
      },
      {
        "length": 32,
        "start": 2409
      }
    ],
    "1374": [
      {
        "length": 32,
        "start": 830
      },
      {
        "length": 32,
        "start": 2129
      }
    ],
    "1385": [
      {
        "length": 32,
        "start": 941
      },
      {
        "length": 32,
        "start": 1549
      }
    ]
  },
  "source": "pragma solidity ^0.8.10; \npragma abicoder v2;  \n\nimport \"../DjinnBottle.sol\"; \nimport \"../interfaces/CTokenInterfaces.sol\"; \nimport \"@uniswap/v2-periphery/contracts/interfaces/IUniswapV2Router02.sol\"; \nimport \"../interfaces/IWFTM.sol\";\n\n\ncontract ShortFarmFTM {\n\n\n\tufixed8x2 private constant CREATOR_FEE = 1 / 100; \n\tDjinnBottle public immutable VAULT; \n\taddress public immutable USDC = 0x04068DA6C83AFCFA0e13ba15A6696662335D5B75; \n\taddress public immutable crUSDC = 0x328A7b4d538A2b3942653a9983fdA3C12c571141; \n\taddress public immutable crWFTM = 0xd528697008aC67A21818751A5e3c58C8daE54696; \n\taddress public immutable TOMB = 0x6c021Ae822BEa943b2E66552bDe1D2696a53fbB7; \n\taddress spookyAddress = 0xF491e7B69E4244ad4002BC14e878a34207E38c29; \n\taddress public controller; //the address that's going to be controlling when the vault updates percent borrowed  \t\n\t\n\tIWFTM private wftm; \n\t//get FTM and TOMB addresses\n\n\tIUniswapV2Router02 public immutable spookyRouter; \n\n\tuint borrowAmount; \n\n\tconstructor(address creator,\n\t\t\t\tDjinnBottle _djBottle, \t\n\t\t\t\tIUniswapV2Router02 _spookyRouter, \n\t\t\t\tIWFTM _wftm) {\n\t\t\t\t\tcreator = msg.sender;\n\t\t\t\t\tspookyRouter = _spookyRouter; \n\t\t\t\t\tVAULT = _djBottle; \n\t\t\t\t\twftm = _wftm; \n\t\t}\n\t\n\t//first we deposit the USDC into the corresponding market on CREAM \n\tfunction deposit(uint amount) external {\n\t\tIERC20(USDC).transferFrom(address(VAULT), address(this), amount); \n\t\tIERC20(USDC).approve(crUSDC, amount); \n\n\t\t//this is the supply function on cream/compound \n\t\tcToken(crUSDC).mint(amount);  \n\t}\n\n\t//next we borrow WTFM from cream <= 70% so we don't get liquidated \n\tfunction borrow(uint amount) external {\n\t\trequire(amount >= cToken(crUSDC).balanceOf(address(this)) * 70 / 100, \"balance too low\"); \n\t\tborrowAmount = cToken(crWFTM).borrow(amount); //not sure if this returns crWFTM or WFTM (I think WFTM?) \n\t}\n\t\n\t//then we send the funds to spookyswap where we sell 50% to tomb and then unwrap the rest \n\tfunction unwrapAndSwap(uint amountOutMin) external { \n\t\t//swap 50% to TOMB\n\t\tuint half = cToken(crWFTM).balanceOf(address(this)) * 50 / 100; \n\t\taddress[] memory path = new address[](2);\n\t\tpath[0] = crWFTM; //not sure if this has to be WFTM or the cToken equivalent? \n\t\tpath[1] = TOMB; \n\t\t//we swap half of the balance of WFTM for TOMB \n\t\tspookyRouter.swapExactTokensForTokensSupportingFeeOnTransferTokens(\n\t\t\thalf,\n\t\t   \tamountOutMin,\n\t\t   \tpath,\n\t\t   \taddress(this),\n\t\t   \tblock.timestamp\n\t\t);\n\n\t\t//to unwrap we need the IWETH9 interface \n\t\twftm.withdraw(IERC20(crWFTM).balanceOf(address(this))); \n\t}\n\n\tfunction getLPTokens() internal {\n\t\t\t//we need to approve the router to spend our TOMB\n\t\t\tuint tombAmount = IERC20(TOMB).balanceOf(address(this)); \n\t\t\tuint ftmAmount = address(this).balance; \t\n\t\t\tIERC20(TOMB).approve(spookyAddress, tombAmount); \n\n\t\t\t//now we add liquidity \n\t\t\t//@params token, tokenAmount, minToken, minETH, to, deadline\n\t\t\t//I think we should just be able to reuse the amounts since the router doesn't guarantee a price anyways \n\t\t\tspookyRouter.addLiquidityETH{value: msg.value}(TOMB, tombAmount, tombAmount, ftmAmount, address(this), block.timestamp); \n\t}\n\n}\n",
  "sourcePath": "/home/kevin/Code/solidity_projects/djinnFinance/contracts/strategies/ShortFarmFTM.sol",
  "compiler": {
    "name": "solc",
    "version": "0.8.10+commit.fc410830.Emscripten.clang"
  },
  "schemaVersion": "3.4.3",
  "updatedAt": "2022-01-20T21:55:51.808Z",
  "devdoc": {
    "kind": "dev",
    "methods": {},
    "version": 1
  },
  "userdoc": {
    "kind": "user",
    "methods": {},
    "version": 1
  }
}