{
  "contractName": "ShortFarmFTM",
  "abi": [
    {
      "inputs": [
        {
          "internalType": "address",
          "name": "creator",
          "type": "address"
        },
        {
          "internalType": "address",
          "name": "_vault",
          "type": "address"
        },
        {
          "internalType": "contract DjinnBottle",
          "name": "_djBottle",
          "type": "address"
        },
        {
          "internalType": "contract IUniswapV2Router02",
          "name": "_spookyRouter",
          "type": "address"
        }
      ],
      "stateMutability": "nonpayable",
      "type": "constructor"
    },
    {
      "inputs": [],
      "name": "TOMB",
      "outputs": [
        {
          "internalType": "address",
          "name": "",
          "type": "address"
        }
      ],
      "stateMutability": "view",
      "type": "function"
    },
    {
      "inputs": [],
      "name": "USDC",
      "outputs": [
        {
          "internalType": "address",
          "name": "",
          "type": "address"
        }
      ],
      "stateMutability": "view",
      "type": "function"
    },
    {
      "inputs": [],
      "name": "VAULT",
      "outputs": [
        {
          "internalType": "contract DjinnBottle",
          "name": "",
          "type": "address"
        }
      ],
      "stateMutability": "view",
      "type": "function"
    },
    {
      "inputs": [],
      "name": "controller",
      "outputs": [
        {
          "internalType": "address",
          "name": "",
          "type": "address"
        }
      ],
      "stateMutability": "view",
      "type": "function"
    },
    {
      "inputs": [],
      "name": "crUSDC",
      "outputs": [
        {
          "internalType": "address",
          "name": "",
          "type": "address"
        }
      ],
      "stateMutability": "view",
      "type": "function"
    },
    {
      "inputs": [],
      "name": "crWFTM",
      "outputs": [
        {
          "internalType": "address",
          "name": "",
          "type": "address"
        }
      ],
      "stateMutability": "view",
      "type": "function"
    },
    {
      "inputs": [],
      "name": "spookyRouter",
      "outputs": [
        {
          "internalType": "contract IUniswapV2Router02",
          "name": "",
          "type": "address"
        }
      ],
      "stateMutability": "view",
      "type": "function"
    },
    {
      "inputs": [
        {
          "internalType": "uint256",
          "name": "amount",
          "type": "uint256"
        }
      ],
      "name": "deposit",
      "outputs": [],
      "stateMutability": "nonpayable",
      "type": "function"
    },
    {
      "inputs": [
        {
          "internalType": "uint256",
          "name": "amount",
          "type": "uint256"
        }
      ],
      "name": "borrow",
      "outputs": [],
      "stateMutability": "nonpayable",
      "type": "function"
    },
    {
      "inputs": [
        {
          "internalType": "uint256",
          "name": "amountOutMin",
          "type": "uint256"
        }
      ],
      "name": "unwrapAndSwap",
      "outputs": [],
      "stateMutability": "nonpayable",
      "type": "function"
    }
  ],
  "bytecode": "0x6101406040527304068da6c83afcfa0e13ba15a6696662335d5b7573ffffffffffffffffffffffffffffffffffffffff1660a09073ffffffffffffffffffffffffffffffffffffffff1681525073328a7b4d538a2b3942653a9983fda3c12c57114173ffffffffffffffffffffffffffffffffffffffff1660c09073ffffffffffffffffffffffffffffffffffffffff1681525073d528697008ac67a21818751a5e3c58c8dae5469673ffffffffffffffffffffffffffffffffffffffff1660e09073ffffffffffffffffffffffffffffffffffffffff16815250736c021ae822bea943b2e66552bde1d2696a53fbb773ffffffffffffffffffffffffffffffffffffffff166101009073ffffffffffffffffffffffffffffffffffffffff168152503480156200012f57600080fd5b5060405162001540380380620015408339818101604052810190620001559190620002bf565b3393508073ffffffffffffffffffffffffffffffffffffffff166101208173ffffffffffffffffffffffffffffffffffffffff16815250508173ffffffffffffffffffffffffffffffffffffffff1660808173ffffffffffffffffffffffffffffffffffffffff16815250505050505062000331565b600080fd5b600073ffffffffffffffffffffffffffffffffffffffff82169050919050565b6000620001fd82620001d0565b9050919050565b6200020f81620001f0565b81146200021b57600080fd5b50565b6000815190506200022f8162000204565b92915050565b60006200024282620001f0565b9050919050565b620002548162000235565b81146200026057600080fd5b50565b600081519050620002748162000249565b92915050565b60006200028782620001f0565b9050919050565b62000299816200027a565b8114620002a557600080fd5b50565b600081519050620002b9816200028e565b92915050565b60008060008060808587031215620002dc57620002db620001cb565b5b6000620002ec878288016200021e565b9450506020620002ff878288016200021e565b9350506040620003128782880162000263565b92505060606200032587828801620002a8565b91505092959194509250565b60805160a05160c05160e051610100516101205161116b620003d5600039600081816103af0152818161045c01526105d901526000818161033e015261081d0152600081816101d1015281816102cf015281816105490152610935015260008181610591015281816106fa0152818161077d01526108450152600081816105b5015281816105fd01526106be01526000818161056d0152610639015261116b6000f3fe608060405234801561001057600080fd5b506004361061009e5760003560e01c80638ed8ea7e116100665780638ed8ea7e14610137578063b6b55f2514610155578063c139acfa14610171578063c5ebeaec1461018f578063f77c4791146101ab5761009e565b80630b724f29146100a35780631882bf44146100bf578063411557d1146100dd57806382c70bbf146100fb57806389a3027114610119575b600080fd5b6100bd60048036038101906100b89190610a46565b6101c9565b005b6100c7610547565b6040516100d49190610ab4565b60405180910390f35b6100e561056b565b6040516100f29190610b2e565b60405180910390f35b61010361058f565b6040516101109190610ab4565b60405180910390f35b6101216105b3565b60405161012e9190610ab4565b60405180910390f35b61013f6105d7565b60405161014c9190610b6a565b60405180910390f35b61016f600480360381019061016a9190610a46565b6105fb565b005b61017961081b565b6040516101869190610ab4565b60405180910390f35b6101a960048036038101906101a49190610a46565b61083f565b005b6101b36109d8565b6040516101c09190610ab4565b60405180910390f35b6000606460327f000000000000000000000000000000000000000000000000000000000000000073ffffffffffffffffffffffffffffffffffffffff166370a08231306040518263ffffffff1660e01b81526004016102289190610ab4565b602060405180830381865afa158015610245573d6000803e3d6000fd5b505050506040513d601f19601f820116820180604052508101906102699190610b9a565b6102739190610bf6565b61027d9190610c7f565b90506000600267ffffffffffffffff81111561029c5761029b610cb0565b5b6040519080825280602002602001820160405280156102ca5781602001602082028036833780820191505090505b5090507f00000000000000000000000000000000000000000000000000000000000000008160008151811061030257610301610cdf565b5b602002602001019073ffffffffffffffffffffffffffffffffffffffff16908173ffffffffffffffffffffffffffffffffffffffff16815250507f00000000000000000000000000000000000000000000000000000000000000008160018151811061037157610370610cdf565b5b602002602001019073ffffffffffffffffffffffffffffffffffffffff16908173ffffffffffffffffffffffffffffffffffffffff168152505060007f000000000000000000000000000000000000000000000000000000000000000073ffffffffffffffffffffffffffffffffffffffff166338ed173984868530426040518663ffffffff1660e01b815260040161040e959493929190610ddb565b6000604051808303816000875af115801561042d573d6000803e3d6000fd5b505050506040513d6000823e3d601f19601f820116820180604052508101906104569190610f5f565b905060007f000000000000000000000000000000000000000000000000000000000000000073ffffffffffffffffffffffffffffffffffffffff1663d06ca61f85856040518363ffffffff1660e01b81526004016104b5929190610fa8565b600060405180830381865afa1580156104d2573d6000803e3d6000fd5b505050506040513d6000823e3d601f19601f820116820180604052508101906104fb9190610f5f565b90508160008151811061051157610510610cdf565b5b60200260200101518160008151811061052d5761052c610cdf565b5b6020026020010151111561054057600080fd5b5050505050565b7f000000000000000000000000000000000000000000000000000000000000000081565b7f000000000000000000000000000000000000000000000000000000000000000081565b7f000000000000000000000000000000000000000000000000000000000000000081565b7f000000000000000000000000000000000000000000000000000000000000000081565b7f000000000000000000000000000000000000000000000000000000000000000081565b7f000000000000000000000000000000000000000000000000000000000000000073ffffffffffffffffffffffffffffffffffffffff166323b872dd7f000000000000000000000000000000000000000000000000000000000000000030846040518463ffffffff1660e01b815260040161067893929190610fd8565b6020604051808303816000875af1158015610697573d6000803e3d6000fd5b505050506040513d601f19601f820116820180604052508101906106bb9190611047565b507f000000000000000000000000000000000000000000000000000000000000000073ffffffffffffffffffffffffffffffffffffffff1663095ea7b37f0000000000000000000000000000000000000000000000000000000000000000836040518363ffffffff1660e01b8152600401610737929190611074565b6020604051808303816000875af1158015610756573d6000803e3d6000fd5b505050506040513d601f19601f8201168201806040525081019061077a9190611047565b507f000000000000000000000000000000000000000000000000000000000000000073ffffffffffffffffffffffffffffffffffffffff1663a0712d68826040518263ffffffff1660e01b81526004016107d4919061109d565b6020604051808303816000875af11580156107f3573d6000803e3d6000fd5b505050506040513d601f19601f820116820180604052508101906108179190610b9a565b5050565b7f000000000000000000000000000000000000000000000000000000000000000081565b606460467f000000000000000000000000000000000000000000000000000000000000000073ffffffffffffffffffffffffffffffffffffffff166370a08231306040518263ffffffff1660e01b815260040161089c9190610ab4565b602060405180830381865afa1580156108b9573d6000803e3d6000fd5b505050506040513d601f19601f820116820180604052508101906108dd9190610b9a565b6108e79190610bf6565b6108f19190610c7f565b811015610933576040517f08c379a000000000000000000000000000000000000000000000000000000000815260040161092a90611115565b60405180910390fd5b7f000000000000000000000000000000000000000000000000000000000000000073ffffffffffffffffffffffffffffffffffffffff1663c5ebeaec826040518263ffffffff1660e01b815260040161098c919061109d565b6020604051808303816000875af11580156109ab573d6000803e3d6000fd5b505050506040513d601f19601f820116820180604052508101906109cf9190610b9a565b60018190555050565b60008054906101000a900473ffffffffffffffffffffffffffffffffffffffff1681565b6000604051905090565b600080fd5b600080fd5b6000819050919050565b610a2381610a10565b8114610a2e57600080fd5b50565b600081359050610a4081610a1a565b92915050565b600060208284031215610a5c57610a5b610a06565b5b6000610a6a84828501610a31565b91505092915050565b600073ffffffffffffffffffffffffffffffffffffffff82169050919050565b6000610a9e82610a73565b9050919050565b610aae81610a93565b82525050565b6000602082019050610ac96000830184610aa5565b92915050565b6000819050919050565b6000610af4610aef610aea84610a73565b610acf565b610a73565b9050919050565b6000610b0682610ad9565b9050919050565b6000610b1882610afb565b9050919050565b610b2881610b0d565b82525050565b6000602082019050610b436000830184610b1f565b92915050565b6000610b5482610afb565b9050919050565b610b6481610b49565b82525050565b6000602082019050610b7f6000830184610b5b565b92915050565b600081519050610b9481610a1a565b92915050565b600060208284031215610bb057610baf610a06565b5b6000610bbe84828501610b85565b91505092915050565b7f4e487b7100000000000000000000000000000000000000000000000000000000600052601160045260246000fd5b6000610c0182610a10565b9150610c0c83610a10565b9250817fffffffffffffffffffffffffffffffffffffffffffffffffffffffffffffffff0483118215151615610c4557610c44610bc7565b5b828202905092915050565b7f4e487b7100000000000000000000000000000000000000000000000000000000600052601260045260246000fd5b6000610c8a82610a10565b9150610c9583610a10565b925082610ca557610ca4610c50565b5b828204905092915050565b7f4e487b7100000000000000000000000000000000000000000000000000000000600052604160045260246000fd5b7f4e487b7100000000000000000000000000000000000000000000000000000000600052603260045260246000fd5b610d1781610a10565b82525050565b600081519050919050565b600082825260208201905092915050565b6000819050602082019050919050565b610d5281610a93565b82525050565b6000610d648383610d49565b60208301905092915050565b6000602082019050919050565b6000610d8882610d1d565b610d928185610d28565b9350610d9d83610d39565b8060005b83811015610dce578151610db58882610d58565b9750610dc083610d70565b925050600181019050610da1565b5085935050505092915050565b600060a082019050610df06000830188610d0e565b610dfd6020830187610d0e565b8181036040830152610e0f8186610d7d565b9050610e1e6060830185610aa5565b610e2b6080830184610d0e565b9695505050505050565b600080fd5b6000601f19601f8301169050919050565b610e5482610e3a565b810181811067ffffffffffffffff82111715610e7357610e72610cb0565b5b80604052505050565b6000610e866109fc565b9050610e928282610e4b565b919050565b600067ffffffffffffffff821115610eb257610eb1610cb0565b5b602082029050602081019050919050565b600080fd5b6000610edb610ed684610e97565b610e7c565b90508083825260208201905060208402830185811115610efe57610efd610ec3565b5b835b81811015610f275780610f138882610b85565b845260208401935050602081019050610f00565b5050509392505050565b600082601f830112610f4657610f45610e35565b5b8151610f56848260208601610ec8565b91505092915050565b600060208284031215610f7557610f74610a06565b5b600082015167ffffffffffffffff811115610f9357610f92610a0b565b5b610f9f84828501610f31565b91505092915050565b6000604082019050610fbd6000830185610d0e565b8181036020830152610fcf8184610d7d565b90509392505050565b6000606082019050610fed6000830186610aa5565b610ffa6020830185610aa5565b6110076040830184610d0e565b949350505050565b60008115159050919050565b6110248161100f565b811461102f57600080fd5b50565b6000815190506110418161101b565b92915050565b60006020828403121561105d5761105c610a06565b5b600061106b84828501611032565b91505092915050565b60006040820190506110896000830185610aa5565b6110966020830184610d0e565b9392505050565b60006020820190506110b26000830184610d0e565b92915050565b600082825260208201905092915050565b7f62616c616e636520746f6f206c6f770000000000000000000000000000000000600082015250565b60006110ff600f836110b8565b915061110a826110c9565b602082019050919050565b6000602082019050818103600083015261112e816110f2565b905091905056fea2646970667358221220d3b897b680cf41e35490a647a68cfee5805acd411ca1fce7e7c0499bcc50a1fc64736f6c634300080a0033",
  "immutableReferences": {
    "1346": [
      {
        "length": 32,
        "start": 1389
      },
      {
        "length": 32,
        "start": 1593
      }
    ],
    "1349": [
      {
        "length": 32,
        "start": 1461
      },
      {
        "length": 32,
        "start": 1533
      },
      {
        "length": 32,
        "start": 1726
      }
    ],
    "1352": [
      {
        "length": 32,
        "start": 1425
      },
      {
        "length": 32,
        "start": 1786
      },
      {
        "length": 32,
        "start": 1917
      },
      {
        "length": 32,
        "start": 2117
      }
    ],
    "1355": [
      {
        "length": 32,
        "start": 465
      },
      {
        "length": 32,
        "start": 719
      },
      {
        "length": 32,
        "start": 1353
      },
      {
        "length": 32,
        "start": 2357
      }
    ],
    "1358": [
      {
        "length": 32,
        "start": 830
      },
      {
        "length": 32,
        "start": 2077
      }
    ],
    "1363": [
      {
        "length": 32,
        "start": 943
      },
      {
        "length": 32,
        "start": 1116
      },
      {
        "length": 32,
        "start": 1497
      }
    ]
  },
  "source": "pragma solidity ^0.8.10; \npragma abicoder v2;  \n\nimport \"../DjinnBottle.sol\"; \nimport \"../interfaces/CTokenInterfaces.sol\"; \nimport \"@uniswap/v2-periphery/contracts/interfaces/IUniswapV2Router02.sol\"; \n\n\ncontract ShortFarmFTM {\n\n\n\tufixed8x2 private constant CREATOR_FEE = 1 / 100; \n\tDjinnBottle public immutable VAULT; \n\taddress public immutable USDC = 0x04068DA6C83AFCFA0e13ba15A6696662335D5B75; \n\taddress public immutable crUSDC = 0x328A7b4d538A2b3942653a9983fdA3C12c571141; \n\taddress public immutable crWFTM = 0xd528697008aC67A21818751A5e3c58C8daE54696; \n\taddress public immutable TOMB = 0x6c021Ae822BEa943b2E66552bDe1D2696a53fbB7; \n\taddress public controller; //the address that's going to be controlling when the vault updates percent borrowed  \t\n\n\t//get FTM and TOMB addresses\n\n\tIUniswapV2Router02 public immutable spookyRouter; \n\n\tuint borrowAmount; \n\n\tconstructor(address creator,\n\t\t\t   \taddress _vault,\n\t\t\t\tDjinnBottle _djBottle, \t\n\t\t\t\tIUniswapV2Router02 _spookyRouter) {\n\t\t\t\t\tcreator = msg.sender;\n\t\t\t\t\tspookyRouter = _spookyRouter; \n\t\t\t\t\tVAULT = _djBottle; \n\t\t}\n\t\n\t//first we deposit the USDC into the corresponding market on CREAM \n\tfunction deposit(uint amount) external {\n\t\tIERC20(USDC).transferFrom(address(VAULT), address(this), amount); \n\t\tIERC20(USDC).approve(crUSDC, amount); \n\n\t\t//this is the supply function on cream/compound \n\t\tcToken(crUSDC).mint(amount);  \n\t}\n\n\t//next we borrow WTFM from cream <= 70% so we don't get liquidated \n\tfunction borrow(uint amount) external {\n\t\trequire(amount >= cToken(crUSDC).balanceOf(address(this)) * 70 / 100, \"balance too low\"); \n\t\tborrowAmount = cToken(crWFTM).borrow(amount); \n\t}\n\t\n\t//then we send the funds to spookyswap where we sell 50% to tomb and then unwrap the rest \n\tfunction unwrapAndSwap(uint amountOutMin) external { \n\t\t//swap 50% to TOMB\n\t\tuint half = cToken(crWFTM).balanceOf(address(this)) * 50 / 100; \n\t\taddress[] memory path = new address[](2);\n\t\tpath[0] = crWFTM; //not sure if this has to be WFTM or the cToken equivalent? \n\t\tpath[1] = TOMB; \n\t\t//we swap half of the balance of WFTM for TOMB \n\t\tuint[] memory amountOut = spookyRouter.swapExactTokensForTokens(half, amountOutMin, path, address(this), block.timestamp);\n\n\t\t//quick check for slippage \n\t\tuint[] memory amountsOutSlippage = spookyRouter.getAmountsOut(half, path);\t\n\t\trequire(amountsOutSlippage[0] <= amountOut[0]); \t\n\n\t\t//now we unwrap the rest to FTM but idk how to that on spooky rn \n\t}\n\n}\n",
  "sourcePath": "/home/kevin/Code/solidity_projects/djinnFinance/contracts/strategies/ShortFarmFTM.sol",
  "compiler": {
    "name": "solc",
    "version": "0.8.10+commit.fc410830.Emscripten.clang"
  },
  "schemaVersion": "3.4.3",
  "updatedAt": "2022-01-19T01:06:44.112Z",
  "devdoc": {
    "kind": "dev",
    "methods": {},
    "version": 1
  },
  "userdoc": {
    "kind": "user",
    "methods": {},
    "version": 1
  }
}