{
  "contractName": "ShortFarmFTM",
  "abi": [
    {
      "inputs": [
        {
          "internalType": "contract DjinnBottleUSDC",
          "name": "_djBottle",
          "type": "address"
        },
        {
          "internalType": "contract IUniswapV2Router02",
          "name": "_spookyRouter",
          "type": "address"
        },
        {
          "internalType": "contract IMasterChef",
          "name": "_tsharePool",
          "type": "address"
        },
        {
          "internalType": "contract ComptrollerInterface",
          "name": "_comptroller",
          "type": "address"
        },
        {
          "internalType": "contract IStdReference",
          "name": "_priceOracle",
          "type": "address"
        },
        {
          "internalType": "contract CERC20",
          "name": "_cERC20",
          "type": "address"
        }
      ],
      "stateMutability": "nonpayable",
      "type": "constructor"
    },
    {
      "inputs": [],
      "name": "TOMB",
      "outputs": [
        {
          "internalType": "address",
          "name": "",
          "type": "address"
        }
      ],
      "stateMutability": "view",
      "type": "function",
      "constant": true
    },
    {
      "inputs": [],
      "name": "TSHARE",
      "outputs": [
        {
          "internalType": "address",
          "name": "",
          "type": "address"
        }
      ],
      "stateMutability": "view",
      "type": "function",
      "constant": true
    },
    {
      "inputs": [],
      "name": "USDC",
      "outputs": [
        {
          "internalType": "address",
          "name": "",
          "type": "address"
        }
      ],
      "stateMutability": "view",
      "type": "function",
      "constant": true
    },
    {
      "inputs": [],
      "name": "VAULT",
      "outputs": [
        {
          "internalType": "contract DjinnBottleUSDC",
          "name": "",
          "type": "address"
        }
      ],
      "stateMutability": "view",
      "type": "function",
      "constant": true
    },
    {
      "inputs": [],
      "name": "WFTM",
      "outputs": [
        {
          "internalType": "address",
          "name": "",
          "type": "address"
        }
      ],
      "stateMutability": "view",
      "type": "function",
      "constant": true
    },
    {
      "inputs": [],
      "name": "comptroller",
      "outputs": [
        {
          "internalType": "contract ComptrollerInterface",
          "name": "",
          "type": "address"
        }
      ],
      "stateMutability": "view",
      "type": "function",
      "constant": true
    },
    {
      "inputs": [],
      "name": "crUSDC",
      "outputs": [
        {
          "internalType": "address",
          "name": "",
          "type": "address"
        }
      ],
      "stateMutability": "view",
      "type": "function",
      "constant": true
    },
    {
      "inputs": [],
      "name": "crWFTM",
      "outputs": [
        {
          "internalType": "contract CERC20",
          "name": "",
          "type": "address"
        }
      ],
      "stateMutability": "view",
      "type": "function",
      "constant": true
    },
    {
      "inputs": [],
      "name": "creator",
      "outputs": [
        {
          "internalType": "address",
          "name": "",
          "type": "address"
        }
      ],
      "stateMutability": "view",
      "type": "function",
      "constant": true
    },
    {
      "inputs": [],
      "name": "priceOracle",
      "outputs": [
        {
          "internalType": "contract IStdReference",
          "name": "",
          "type": "address"
        }
      ],
      "stateMutability": "view",
      "type": "function",
      "constant": true
    },
    {
      "inputs": [],
      "name": "spookyAddress",
      "outputs": [
        {
          "internalType": "address",
          "name": "",
          "type": "address"
        }
      ],
      "stateMutability": "view",
      "type": "function",
      "constant": true
    },
    {
      "inputs": [],
      "name": "spookyFtmTombLP",
      "outputs": [
        {
          "internalType": "address",
          "name": "",
          "type": "address"
        }
      ],
      "stateMutability": "view",
      "type": "function",
      "constant": true
    },
    {
      "inputs": [],
      "name": "spookyRouter",
      "outputs": [
        {
          "internalType": "contract IUniswapV2Router02",
          "name": "",
          "type": "address"
        }
      ],
      "stateMutability": "view",
      "type": "function",
      "constant": true
    },
    {
      "inputs": [],
      "name": "tsharePool",
      "outputs": [
        {
          "internalType": "contract IMasterChef",
          "name": "",
          "type": "address"
        }
      ],
      "stateMutability": "view",
      "type": "function",
      "constant": true
    },
    {
      "stateMutability": "payable",
      "type": "receive",
      "payable": true
    },
    {
      "inputs": [
        {
          "internalType": "uint256",
          "name": "amount",
          "type": "uint256"
        }
      ],
      "name": "open",
      "outputs": [],
      "stateMutability": "nonpayable",
      "type": "function"
    },
    {
      "inputs": [],
      "name": "harvest",
      "outputs": [],
      "stateMutability": "nonpayable",
      "type": "function"
    },
    {
      "inputs": [
        {
          "internalType": "uint256",
          "name": "amount",
          "type": "uint256"
        }
      ],
      "name": "close",
      "outputs": [],
      "stateMutability": "nonpayable",
      "type": "function"
    },
    {
      "inputs": [],
      "name": "getBalance",
      "outputs": [
        {
          "internalType": "uint256",
          "name": "",
          "type": "uint256"
        }
      ],
      "stateMutability": "view",
      "type": "function",
      "constant": true
    }
  ],
  "bytecode": "0x6101406040523480156200001257600080fd5b5060405162002e5338038062002e5383398181016040528101906200003891906200035b565b60003390508573ffffffffffffffffffffffffffffffffffffffff1660a08173ffffffffffffffffffffffffffffffffffffffff16815250508673ffffffffffffffffffffffffffffffffffffffff1660808173ffffffffffffffffffffffffffffffffffffffff16815250508473ffffffffffffffffffffffffffffffffffffffff1660c08173ffffffffffffffffffffffffffffffffffffffff16815250508373ffffffffffffffffffffffffffffffffffffffff1660e08173ffffffffffffffffffffffffffffffffffffffff16815250508273ffffffffffffffffffffffffffffffffffffffff166101008173ffffffffffffffffffffffffffffffffffffffff16815250508173ffffffffffffffffffffffffffffffffffffffff166101208173ffffffffffffffffffffffffffffffffffffffff168152505050505050505050620003f7565b600080fd5b600073ffffffffffffffffffffffffffffffffffffffff82169050919050565b6000620001b68262000189565b9050919050565b6000620001ca82620001a9565b9050919050565b620001dc81620001bd565b8114620001e857600080fd5b50565b600081519050620001fc81620001d1565b92915050565b60006200020f82620001a9565b9050919050565b620002218162000202565b81146200022d57600080fd5b50565b600081519050620002418162000216565b92915050565b60006200025482620001a9565b9050919050565b620002668162000247565b81146200027257600080fd5b50565b60008151905062000286816200025b565b92915050565b60006200029982620001a9565b9050919050565b620002ab816200028c565b8114620002b757600080fd5b50565b600081519050620002cb81620002a0565b92915050565b6000620002de82620001a9565b9050919050565b620002f081620002d1565b8114620002fc57600080fd5b50565b6000815190506200031081620002e5565b92915050565b60006200032382620001a9565b9050919050565b620003358162000316565b81146200034157600080fd5b50565b60008151905062000355816200032a565b92915050565b60008060008060008060c087890312156200037b576200037a62000184565b5b60006200038b89828a01620001eb565b96505060206200039e89828a0162000230565b9550506040620003b189828a0162000275565b9450506060620003c489828a01620002ba565b9350506080620003d789828a01620002ff565b92505060a0620003ea89828a0162000344565b9150509295509295509295565b60805160a05160c05160e05161010051610120516129a3620004b06000396000818161057901528181610c5b01526117e70152600081816105b50152611c3a015260008181610733015281816117370152611b9601526000818161068b015281816107ef015281816108f101526114bd01526000818161079b0152818161098201528181610b7801528181610f340152818161117a015261134501526000818161042d015281816105d901526105fd01526129a36000f3fe60806040526004361061010d5760003560e01c8063690e7c09116100955780639cdd8ee7116100645780639cdd8ee714610330578063a6f8d4051461035b578063a7afae2914610386578063b5ee45c1146103b1578063c139acfa146103dc57610114565b8063690e7c091461028657806382c70bbf146102af57806389a30271146102da5780638ed8ea7e1461030557610114565b806321dbe876116100dc57806321dbe876146101c35780632630c12f146101ee578063411557d1146102195780634641257d146102445780635fe3b5671461025b57610114565b806302d05d3f146101195780630aebeb4e1461014457806312065fe01461016d5780631882bf441461019857610114565b3661011457005b600080fd5b34801561012557600080fd5b5061012e610407565b60405161013b9190611d5f565b60405180910390f35b34801561015057600080fd5b5061016b60048036038101906101669190611dc4565b61042b565b005b34801561017957600080fd5b506101826104c5565b60405161018f9190611e00565b60405180910390f35b3480156101a457600080fd5b506101ad610577565b6040516101ba9190611e7a565b60405180910390f35b3480156101cf57600080fd5b506101d861059b565b6040516101e59190611d5f565b60405180910390f35b3480156101fa57600080fd5b506102036105b3565b6040516102109190611eb6565b60405180910390f35b34801561022557600080fd5b5061022e6105d7565b60405161023b9190611ef2565b60405180910390f35b34801561025057600080fd5b506102596105fb565b005b34801561026757600080fd5b50610270610731565b60405161027d9190611f2e565b60405180910390f35b34801561029257600080fd5b506102ad60048036038101906102a89190611dc4565b610755565b005b3480156102bb57600080fd5b506102c4610769565b6040516102d19190611d5f565b60405180910390f35b3480156102e657600080fd5b506102ef610781565b6040516102fc9190611d5f565b60405180910390f35b34801561031157600080fd5b5061031a610799565b6040516103279190611f6a565b60405180910390f35b34801561033c57600080fd5b506103456107bd565b6040516103529190611d5f565b60405180910390f35b34801561036757600080fd5b506103706107d5565b60405161037d9190611d5f565b60405180910390f35b34801561039257600080fd5b5061039b6107ed565b6040516103a89190611fa6565b60405180910390f35b3480156103bd57600080fd5b506103c6610811565b6040516103d39190611d5f565b60405180910390f35b3480156103e857600080fd5b506103f1610829565b6040516103fe9190611d5f565b60405180910390f35b60008054906101000a900473ffffffffffffffffffffffffffffffffffffffff1681565b7f000000000000000000000000000000000000000000000000000000000000000073ffffffffffffffffffffffffffffffffffffffff163373ffffffffffffffffffffffffffffffffffffffff16146104b9576040517f08c379a00000000000000000000000000000000000000000000000000000000081526004016104b09061201e565b60405180910390fd5b6104c281610841565b50565b600080606460327321be370d5312f44cb42ce377bc9b8a0cef1a4c8373ffffffffffffffffffffffffffffffffffffffff166370a08231306040518263ffffffff1660e01b81526004016105199190611d5f565b602060405180830381865afa158015610536573d6000803e3d6000fd5b505050506040513d601f19601f8201168201806040525081019061055a9190612053565b61056491906120af565b61056e9190612138565b90508091505090565b7f000000000000000000000000000000000000000000000000000000000000000081565b7321be370d5312f44cb42ce377bc9b8a0cef1a4c8381565b7f000000000000000000000000000000000000000000000000000000000000000081565b7f000000000000000000000000000000000000000000000000000000000000000081565b7f000000000000000000000000000000000000000000000000000000000000000073ffffffffffffffffffffffffffffffffffffffff163373ffffffffffffffffffffffffffffffffffffffff1614610689576040517f08c379a0000000000000000000000000000000000000000000000000000000008152600401610680906121b5565b60405180910390fd5b7f000000000000000000000000000000000000000000000000000000000000000073ffffffffffffffffffffffffffffffffffffffff1663e2bbb1586000806040518363ffffffff1660e01b81526004016106e5929190612210565b600060405180830381600087803b1580156106ff57600080fd5b505af1158015610713573d6000803e3d6000fd5b5050505061071f610d00565b61072761121f565b61072f611429565b565b7f000000000000000000000000000000000000000000000000000000000000000081565b61075e8161154c565b610766611887565b50565b73328a7b4d538a2b3942653a9983fda3c12c57114181565b7304068da6c83afcfa0e13ba15a6696662335d5b7581565b7f000000000000000000000000000000000000000000000000000000000000000081565b732a651563c9d3af67ae0388a5c8f89b867038089e81565b73f491e7b69e4244ad4002bc14e878a34207e38c2981565b7f000000000000000000000000000000000000000000000000000000000000000081565b734cdf39285d7ca8eb3f090fda0c069ba5f4145b3781565b736c021ae822bea943b2e66552bde1d2696a53fbb781565b60006064826108509190612138565b9050600081732a651563c9d3af67ae0388a5c8f89b867038089e73ffffffffffffffffffffffffffffffffffffffff166370a08231306040518263ffffffff1660e01b81526004016108a29190611d5f565b602060405180830381865afa1580156108bf573d6000803e3d6000fd5b505050506040513d601f19601f820116820180604052508101906108e39190612053565b6108ed91906120af565b90507f000000000000000000000000000000000000000000000000000000000000000073ffffffffffffffffffffffffffffffffffffffff1663441a3e706000836040518363ffffffff1660e01b815260040161094b929190612239565b600060405180830381600087803b15801561096557600080fd5b505af1158015610979573d6000803e3d6000fd5b505050506000807f000000000000000000000000000000000000000000000000000000000000000073ffffffffffffffffffffffffffffffffffffffff1663baa2abde736c021ae822bea943b2e66552bde1d2696a53fbb77321be370d5312f44cb42ce377bc9b8a0cef1a4c838660008030601e426109f89190612262565b6040518863ffffffff1660e01b8152600401610a1a97969594939291906122b8565b60408051808303816000875af1158015610a38573d6000803e3d6000fd5b505050506040513d601f19601f82011682018060405250810190610a5c9190612327565b915091506000600267ffffffffffffffff811115610a7d57610a7c612367565b5b604051908082528060200260200182016040528015610aab5781602001602082028036833780820191505090505b509050736c021ae822bea943b2e66552bde1d2696a53fbb781600081518110610ad757610ad6612396565b5b602002602001019073ffffffffffffffffffffffffffffffffffffffff16908173ffffffffffffffffffffffffffffffffffffffff16815250507321be370d5312f44cb42ce377bc9b8a0cef1a4c8381600181518110610b3a57610b39612396565b5b602002602001019073ffffffffffffffffffffffffffffffffffffffff16908173ffffffffffffffffffffffffffffffffffffffff168152505060007f000000000000000000000000000000000000000000000000000000000000000073ffffffffffffffffffffffffffffffffffffffff166338ed17398560008530601e42610bc49190612262565b6040518663ffffffff1660e01b8152600401610be4959493929190612483565b6000604051808303816000875af1158015610c03573d6000803e3d6000fd5b505050506040513d6000823e3d601f19601f82011682018060405250810190610c2c9190612607565b905060008382600081518110610c4557610c44612396565b5b6020026020010151610c579190612262565b90507f000000000000000000000000000000000000000000000000000000000000000073ffffffffffffffffffffffffffffffffffffffff16630e752702826040518263ffffffff1660e01b8152600401610cb29190611e00565b6020604051808303816000875af1158015610cd1573d6000803e3d6000fd5b505050506040513d601f19601f82011682018060405250810190610cf59190612053565b505050505050505050565b600060646032734cdf39285d7ca8eb3f090fda0c069ba5f4145b3773ffffffffffffffffffffffffffffffffffffffff166370a08231306040518263ffffffff1660e01b8152600401610d539190611d5f565b602060405180830381865afa158015610d70573d6000803e3d6000fd5b505050506040513d601f19601f82011682018060405250810190610d949190612053565b610d9e91906120af565b610da89190612138565b90506000606482610db991906120af565b90506000600367ffffffffffffffff811115610dd857610dd7612367565b5b604051908082528060200260200182016040528015610e065781602001602082028036833780820191505090505b509050734cdf39285d7ca8eb3f090fda0c069ba5f4145b3781600081518110610e3257610e31612396565b5b602002602001019073ffffffffffffffffffffffffffffffffffffffff16908173ffffffffffffffffffffffffffffffffffffffff16815250507321be370d5312f44cb42ce377bc9b8a0cef1a4c8381600181518110610e9557610e94612396565b5b602002602001019073ffffffffffffffffffffffffffffffffffffffff16908173ffffffffffffffffffffffffffffffffffffffff1681525050736c021ae822bea943b2e66552bde1d2696a53fbb781600281518110610ef857610ef7612396565b5b602002602001019073ffffffffffffffffffffffffffffffffffffffff16908173ffffffffffffffffffffffffffffffffffffffff16815250507f000000000000000000000000000000000000000000000000000000000000000073ffffffffffffffffffffffffffffffffffffffff16635c11d7958460008430601e42610f809190612262565b6040518663ffffffff1660e01b8152600401610fa0959493929190612483565b600060405180830381600087803b158015610fba57600080fd5b505af1158015610fce573d6000803e3d6000fd5b505050506000734cdf39285d7ca8eb3f090fda0c069ba5f4145b3773ffffffffffffffffffffffffffffffffffffffff166370a08231306040518263ffffffff1660e01b81526004016110219190611d5f565b602060405180830381865afa15801561103e573d6000803e3d6000fd5b505050506040513d601f19601f820116820180604052508101906110629190612053565b90506000600267ffffffffffffffff81111561108157611080612367565b5b6040519080825280602002602001820160405280156110af5781602001602082028036833780820191505090505b509050734cdf39285d7ca8eb3f090fda0c069ba5f4145b37816000815181106110db576110da612396565b5b602002602001019073ffffffffffffffffffffffffffffffffffffffff16908173ffffffffffffffffffffffffffffffffffffffff16815250507321be370d5312f44cb42ce377bc9b8a0cef1a4c838160018151811061113e5761113d612396565b5b602002602001019073ffffffffffffffffffffffffffffffffffffffff16908173ffffffffffffffffffffffffffffffffffffffff16815250507f000000000000000000000000000000000000000000000000000000000000000073ffffffffffffffffffffffffffffffffffffffff16635c11d7958360008430601e426111c69190612262565b6040518663ffffffff1660e01b81526004016111e6959493929190612483565b600060405180830381600087803b15801561120057600080fd5b505af1158015611214573d6000803e3d6000fd5b505050505050505050565b6000736c021ae822bea943b2e66552bde1d2696a53fbb773ffffffffffffffffffffffffffffffffffffffff166370a08231306040518263ffffffff1660e01b815260040161126e9190611d5f565b602060405180830381865afa15801561128b573d6000803e3d6000fd5b505050506040513d601f19601f820116820180604052508101906112af9190612053565b905060007321be370d5312f44cb42ce377bc9b8a0cef1a4c8373ffffffffffffffffffffffffffffffffffffffff166370a08231306040518263ffffffff1660e01b81526004016113009190611d5f565b602060405180830381865afa15801561131d573d6000803e3d6000fd5b505050506040513d601f19601f820116820180604052508101906113419190612053565b90507f000000000000000000000000000000000000000000000000000000000000000073ffffffffffffffffffffffffffffffffffffffff1663e8e33700736c021ae822bea943b2e66552bde1d2696a53fbb77321be370d5312f44cb42ce377bc9b8a0cef1a4c83858560018030601e426113bc9190612262565b6040518963ffffffff1660e01b81526004016113df98979695949392919061268b565b6060604051808303816000875af11580156113fe573d6000803e3d6000fd5b505050506040513d601f19601f820116820180604052508101906114229190612709565b5050505050565b6000732a651563c9d3af67ae0388a5c8f89b867038089e73ffffffffffffffffffffffffffffffffffffffff166370a08231306040518263ffffffff1660e01b81526004016114789190611d5f565b602060405180830381865afa158015611495573d6000803e3d6000fd5b505050506040513d601f19601f820116820180604052508101906114b99190612053565b90507f000000000000000000000000000000000000000000000000000000000000000073ffffffffffffffffffffffffffffffffffffffff1663e2bbb1586000836040518363ffffffff1660e01b8152600401611517929190612239565b600060405180830381600087803b15801561153157600080fd5b505af1158015611545573d6000803e3d6000fd5b5050505050565b7304068da6c83afcfa0e13ba15a6696662335d5b7573ffffffffffffffffffffffffffffffffffffffff1663095ea7b373328a7b4d538a2b3942653a9983fda3c12c571141836040518363ffffffff1660e01b81526004016115af92919061275c565b6020604051808303816000875af11580156115ce573d6000803e3d6000fd5b505050506040513d601f19601f820116820180604052508101906115f291906127bd565b5073328a7b4d538a2b3942653a9983fda3c12c57114173ffffffffffffffffffffffffffffffffffffffff1663a0712d68826040518263ffffffff1660e01b81526004016116409190611e00565b6020604051808303816000875af115801561165f573d6000803e3d6000fd5b505050506040513d601f19601f820116820180604052508101906116839190612053565b506000600167ffffffffffffffff8111156116a1576116a0612367565b5b6040519080825280602002602001820160405280156116cf5781602001602082028036833780820191505090505b50905073328a7b4d538a2b3942653a9983fda3c12c571141816000815181106116fb576116fa612396565b5b602002602001019073ffffffffffffffffffffffffffffffffffffffff16908173ffffffffffffffffffffffffffffffffffffffff16815250507f000000000000000000000000000000000000000000000000000000000000000073ffffffffffffffffffffffffffffffffffffffff1663c2998238826040518263ffffffff1660e01b815260040161178e91906127ea565b6000604051808303816000875af11580156117ad573d6000803e3d6000fd5b505050506040513d6000823e3d601f19601f820116820180604052508101906117d69190612607565b5060006117e1611b8f565b509150507f000000000000000000000000000000000000000000000000000000000000000073ffffffffffffffffffffffffffffffffffffffff1663c5ebeaec826040518263ffffffff1660e01b815260040161183e9190611e00565b6020604051808303816000875af115801561185d573d6000803e3d6000fd5b505050506040513d601f19601f820116820180604052508101906118819190612053565b50505050565b6000606460327321be370d5312f44cb42ce377bc9b8a0cef1a4c8373ffffffffffffffffffffffffffffffffffffffff166370a08231306040518263ffffffff1660e01b81526004016118da9190611d5f565b602060405180830381865afa1580156118f7573d6000803e3d6000fd5b505050506040513d601f19601f8201168201806040525081019061191b9190612053565b61192591906120af565b61192f9190612138565b90507321be370d5312f44cb42ce377bc9b8a0cef1a4c8373ffffffffffffffffffffffffffffffffffffffff1663095ea7b373f491e7b69e4244ad4002bc14e878a34207e38c29836040518363ffffffff1660e01b815260040161199492919061275c565b6020604051808303816000875af11580156119b3573d6000803e3d6000fd5b505050506040513d601f19601f820116820180604052508101906119d791906127bd565b506000600267ffffffffffffffff8111156119f5576119f4612367565b5b604051908082528060200260200182016040528015611a235781602001602082028036833780820191505090505b5090507321be370d5312f44cb42ce377bc9b8a0cef1a4c8381600081518110611a4f57611a4e612396565b5b602002602001019073ffffffffffffffffffffffffffffffffffffffff16908173ffffffffffffffffffffffffffffffffffffffff1681525050736c021ae822bea943b2e66552bde1d2696a53fbb781600181518110611ab257611ab1612396565b5b602002602001019073ffffffffffffffffffffffffffffffffffffffff16908173ffffffffffffffffffffffffffffffffffffffff168152505073f491e7b69e4244ad4002bc14e878a34207e38c2973ffffffffffffffffffffffffffffffffffffffff166338ed17398360008430426040518663ffffffff1660e01b8152600401611b42959493929190612483565b6000604051808303816000875af1158015611b61573d6000803e3d6000fd5b505050506040513d6000823e3d601f19601f82011682018060405250810190611b8a9190612607565b505050565b60008060007f000000000000000000000000000000000000000000000000000000000000000073ffffffffffffffffffffffffffffffffffffffff16635ec88c79306040518263ffffffff1660e01b8152600401611bed9190611d5f565b606060405180830381865afa158015611c0a573d6000803e3d6000fd5b505050506040513d601f19601f82011682018060405250810190611c2e9190612709565b909150508093505060007f000000000000000000000000000000000000000000000000000000000000000073ffffffffffffffffffffffffffffffffffffffff166365555bcc6040518163ffffffff1660e01b8152600401611c8f906128a4565b606060405180830381865afa158015611cac573d6000803e3d6000fd5b505050506040513d601f19601f82011682018060405250810190611cd09190612940565b905080600001519150600082670de0b6b3a764000086611cf091906120af565b611cfa9190612138565b90506064604b82611d0b91906120af565b611d159190612138565b93505050909192565b600073ffffffffffffffffffffffffffffffffffffffff82169050919050565b6000611d4982611d1e565b9050919050565b611d5981611d3e565b82525050565b6000602082019050611d746000830184611d50565b92915050565b6000604051905090565b600080fd5b600080fd5b6000819050919050565b611da181611d8e565b8114611dac57600080fd5b50565b600081359050611dbe81611d98565b92915050565b600060208284031215611dda57611dd9611d84565b5b6000611de884828501611daf565b91505092915050565b611dfa81611d8e565b82525050565b6000602082019050611e156000830184611df1565b92915050565b6000819050919050565b6000611e40611e3b611e3684611d1e565b611e1b565b611d1e565b9050919050565b6000611e5282611e25565b9050919050565b6000611e6482611e47565b9050919050565b611e7481611e59565b82525050565b6000602082019050611e8f6000830184611e6b565b92915050565b6000611ea082611e47565b9050919050565b611eb081611e95565b82525050565b6000602082019050611ecb6000830184611ea7565b92915050565b6000611edc82611e47565b9050919050565b611eec81611ed1565b82525050565b6000602082019050611f076000830184611ee3565b92915050565b6000611f1882611e47565b9050919050565b611f2881611f0d565b82525050565b6000602082019050611f436000830184611f1f565b92915050565b6000611f5482611e47565b9050919050565b611f6481611f49565b82525050565b6000602082019050611f7f6000830184611f5b565b92915050565b6000611f9082611e47565b9050919050565b611fa081611f85565b82525050565b6000602082019050611fbb6000830184611f97565b92915050565b600082825260208201905092915050565b7f217661756c740000000000000000000000000000000000000000000000000000600082015250565b6000612008600683611fc1565b915061201382611fd2565b602082019050919050565b6000602082019050818103600083015261203781611ffb565b9050919050565b60008151905061204d81611d98565b92915050565b60006020828403121561206957612068611d84565b5b60006120778482850161203e565b91505092915050565b7f4e487b7100000000000000000000000000000000000000000000000000000000600052601160045260246000fd5b60006120ba82611d8e565b91506120c583611d8e565b9250817fffffffffffffffffffffffffffffffffffffffffffffffffffffffffffffffff04831182151516156120fe576120fd612080565b5b828202905092915050565b7f4e487b7100000000000000000000000000000000000000000000000000000000600052601260045260246000fd5b600061214382611d8e565b915061214e83611d8e565b92508261215e5761215d612109565b5b828204905092915050565b7f6e6f000000000000000000000000000000000000000000000000000000000000600082015250565b600061219f600283611fc1565b91506121aa82612169565b602082019050919050565b600060208201905081810360008301526121ce81612192565b9050919050565b6000819050919050565b60006121fa6121f56121f0846121d5565b611e1b565b611d8e565b9050919050565b61220a816121df565b82525050565b60006040820190506122256000830185612201565b6122326020830184612201565b9392505050565b600060408201905061224e6000830185612201565b61225b6020830184611df1565b9392505050565b600061226d82611d8e565b915061227883611d8e565b9250827fffffffffffffffffffffffffffffffffffffffffffffffffffffffffffffffff038211156122ad576122ac612080565b5b828201905092915050565b600060e0820190506122cd600083018a611d50565b6122da6020830189611d50565b6122e76040830188611df1565b6122f46060830187612201565b6123016080830186612201565b61230e60a0830185611d50565b61231b60c0830184611df1565b98975050505050505050565b6000806040838503121561233e5761233d611d84565b5b600061234c8582860161203e565b925050602061235d8582860161203e565b9150509250929050565b7f4e487b7100000000000000000000000000000000000000000000000000000000600052604160045260246000fd5b7f4e487b7100000000000000000000000000000000000000000000000000000000600052603260045260246000fd5b600081519050919050565b600082825260208201905092915050565b6000819050602082019050919050565b6123fa81611d3e565b82525050565b600061240c83836123f1565b60208301905092915050565b6000602082019050919050565b6000612430826123c5565b61243a81856123d0565b9350612445836123e1565b8060005b8381101561247657815161245d8882612400565b975061246883612418565b925050600181019050612449565b5085935050505092915050565b600060a0820190506124986000830188611df1565b6124a56020830187612201565b81810360408301526124b78186612425565b90506124c66060830185611d50565b6124d36080830184611df1565b9695505050505050565b600080fd5b6000601f19601f8301169050919050565b6124fc826124e2565b810181811067ffffffffffffffff8211171561251b5761251a612367565b5b80604052505050565b600061252e611d7a565b905061253a82826124f3565b919050565b600067ffffffffffffffff82111561255a57612559612367565b5b602082029050602081019050919050565b600080fd5b600061258361257e8461253f565b612524565b905080838252602082019050602084028301858111156125a6576125a561256b565b5b835b818110156125cf57806125bb888261203e565b8452602084019350506020810190506125a8565b5050509392505050565b600082601f8301126125ee576125ed6124dd565b5b81516125fe848260208601612570565b91505092915050565b60006020828403121561261d5761261c611d84565b5b600082015167ffffffffffffffff81111561263b5761263a611d89565b5b612647848285016125d9565b91505092915050565b6000819050919050565b600061267561267061266b84612650565b611e1b565b611d8e565b9050919050565b6126858161265a565b82525050565b6000610100820190506126a1600083018b611d50565b6126ae602083018a611d50565b6126bb6040830189611df1565b6126c86060830188611df1565b6126d5608083018761267c565b6126e260a083018661267c565b6126ef60c0830185611d50565b6126fc60e0830184611df1565b9998505050505050505050565b60008060006060848603121561272257612721611d84565b5b60006127308682870161203e565b93505060206127418682870161203e565b92505060406127528682870161203e565b9150509250925092565b60006040820190506127716000830185611d50565b61277e6020830184611df1565b9392505050565b60008115159050919050565b61279a81612785565b81146127a557600080fd5b50565b6000815190506127b781612791565b92915050565b6000602082840312156127d3576127d2611d84565b5b60006127e1848285016127a8565b91505092915050565b600060208201905081810360008301526128048184612425565b905092915050565b7f46544d0000000000000000000000000000000000000000000000000000000000600082015250565b6000612842600383611fc1565b915061284d8261280c565b602082019050919050565b7f5553444300000000000000000000000000000000000000000000000000000000600082015250565b600061288e600483611fc1565b915061289982612858565b602082019050919050565b600060408201905081810360008301526128bd81612835565b905081810360208301526128d081612881565b9050919050565b600080fd5b6000606082840312156128f2576128f16128d7565b5b6128fc6060612524565b9050600061290c8482850161203e565b60008301525060206129208482850161203e565b60208301525060406129348482850161203e565b60408301525092915050565b60006060828403121561295657612955611d84565b5b6000612964848285016128dc565b9150509291505056fea2646970667358221220e631dee4e98ef416120e485e7c44f7c0eb242ba8951d5b171e1acde495f0770164736f6c634300080a0033",
  "immutableReferences": {
    "1843": [
      {
        "length": 32,
        "start": 1069
      },
      {
        "length": 32,
        "start": 1497
      },
      {
        "length": 32,
        "start": 1533
      }
    ],
    "1867": [
      {
        "length": 32,
        "start": 1947
      },
      {
        "length": 32,
        "start": 2434
      },
      {
        "length": 32,
        "start": 2936
      },
      {
        "length": 32,
        "start": 3892
      },
      {
        "length": 32,
        "start": 4474
      },
      {
        "length": 32,
        "start": 4933
      }
    ],
    "1870": [
      {
        "length": 32,
        "start": 1675
      },
      {
        "length": 32,
        "start": 2031
      },
      {
        "length": 32,
        "start": 2289
      },
      {
        "length": 32,
        "start": 5309
      }
    ],
    "1873": [
      {
        "length": 32,
        "start": 1843
      },
      {
        "length": 32,
        "start": 5943
      },
      {
        "length": 32,
        "start": 7062
      }
    ],
    "1876": [
      {
        "length": 32,
        "start": 1461
      },
      {
        "length": 32,
        "start": 7226
      }
    ],
    "1879": [
      {
        "length": 32,
        "start": 1401
      },
      {
        "length": 32,
        "start": 3163
      },
      {
        "length": 32,
        "start": 6119
      }
    ]
  },
  "source": "pragma solidity ^0.8.10; \npragma abicoder v2;  \n\nimport \"../DjinnBottleUSDC.sol\"; \nimport \"../interfaces/CTokenInterfaces.sol\"; \nimport \"../interfaces/ComptrollerInterface.sol\";  \nimport \"../interfaces/IStdReference.sol\"; \nimport \"@uniswap/v2-periphery/contracts/interfaces/IUniswapV2Router02.sol\"; \nimport \"../interfaces/IMasterChef.sol\"; \nimport \"@openzeppelin/contracts/token/ERC20/IERC20.sol\"; \n\n\ncontract ShortFarmFTM {\n\n\taddress public creator; \n\tuint private constant CREATOR_FEE = 100; \n\tDjinnBottleUSDC public immutable VAULT; \n\n\t//Cream Finance Contracts \n\taddress public constant crUSDC = 0x328A7b4d538A2b3942653a9983fdA3C12c571141; \n\n\t//Public Tokens\n\taddress public constant USDC = 0x04068DA6C83AFCFA0e13ba15A6696662335D5B75; \n\taddress public constant WFTM = 0x21be370D5312f44cB42ce377BC9b8a0cEF1A4C83; \n\taddress public constant TOMB = 0x6c021Ae822BEa943b2E66552bDe1D2696a53fbB7; \n\taddress public constant TSHARE = 0x4cdF39285D7Ca8eB3f090fDA0C069ba5F4145B37; \n\t\n\t//SpookySwap Router and LP \n\taddress public constant spookyFtmTombLP = 0x2A651563C9d3Af67aE0388a5c8F89b867038089e; \n\taddress public constant spookyAddress = 0xF491e7B69E4244ad4002BC14e878a34207E38c29;\t\t\n\n\t//Contract Interfaces  \n\tIUniswapV2Router02 public immutable spookyRouter; \n\tIMasterChef public immutable tsharePool; \n\tComptrollerInterface public immutable comptroller; \n\tIStdReference public immutable priceOracle;\n\tCERC20 public immutable crWFTM; \t\n\n\n\tconstructor(DjinnBottleUSDC _djBottle, \t\n\t\t\t\tIUniswapV2Router02 _spookyRouter, \n\t\t\t\tIMasterChef _tsharePool, \n\t\t\t\tComptrollerInterface _comptroller, \n\t\t\t\tIStdReference _priceOracle,\n\t\t\t\tCERC20 _cERC20) {\n\t\t\t\t\taddress creator = msg.sender;\n\t\t\t\t\tspookyRouter = _spookyRouter; \n\t\t\t\t\tVAULT = _djBottle; \n\t\t\t\t\ttsharePool = _tsharePool;\n\t\t\t\t\tcomptroller = _comptroller;  \n\t\t\t\t\tpriceOracle = _priceOracle; \n\t\t\t\t\tcrWFTM = _cERC20; \n\t\t\t\t}\n\t\n\t//automate opening a position\n\t//designed for single user ie. user opens via vault contract \t\n\tfunction open(uint amount) external {\n\t\tborrow(amount); //same amount in USDC to keep track of how many tokens we have supplied \n\t\tswap(); //swap half of bal to TOMB and unwrap the rest to FTM \n\t\t//getLPTokens(); //get FTM-TOMB LP tokens \t\n\t\t//depositLPGetTShare(); //deposit LP tokens on TOMB to earn TSHARE\n\t}\n\n\t//automate the harvest \n\tfunction harvest() external {\n\t\trequire(msg.sender == address(VAULT), \"no\"); \n\t\tIMasterChef(tsharePool).deposit(0, 0); //0 is poolId and we call a deposit of 0 to allocate the shares to this contract\n\t\t//chargeFees(); \n\t\tsellAndSwap(); //sell tshare for 50% TOMB 50% WFTM \n\t\tgetLPTokens(); \n\t\tdepositLPGetTShare(); \n\t}\n\t\n\t//automate the closing of the position\n\t//designed for single use ie. user closes via vault contract \t\n\t//so we need to vault contract to determine how many tokens belong to the user from this contract \n\tfunction close(uint amount) external {\n\t\trequire(msg.sender == address(VAULT), \"!vault\"); \n\t\t//swap all LP tokens back to underlying \n\t\tswapAndWithdraw(amount);  \n\t\t//redeemUnderlying(); //to get USDC back \n\t\t//send back to vault to allow for withdraw \n\t}\n\t\n\t//next we borrow WTFM from cream <= 75% so we don't get liquidated\n\t//cream allows for 75% collateral on deposits of USDC, but this 75% is on the 75% \n\t//so we are effectively borrowing ~55% of our deposit amount, which leaves room to the upside  \t\t\n\tfunction borrow(uint amount) internal {\n\t\t//first we supply USDC\n\t\tIERC20(USDC).approve(crUSDC, amount);  \n\t\tCERC20(crUSDC).mint(amount); \n\t\t\n\t\t//we enter the marker to use usdc as collateral \t\n\t\taddress[] memory cTokenSupplied = new address[](1); \n\t\tcTokenSupplied[0] = crUSDC; //cToken address\n\t\tcomptroller.enterMarkets(cTokenSupplied); \n\t\t\n\t\t//get max borrow && borrow  \n\t\t(, uint borrowAmount,) = getBorrowAmount(); //borrow amount returns the token amount scaled up by 1e18 @ 75% of our max borrow\n\t\tcrWFTM.borrow(borrowAmount);  \n\t}\n\n\tfunction getBorrowAmount() internal view returns(uint liquidity, uint borrowAmount, uint price) {\n\t\t(, liquidity,) = comptroller.getAccountLiquidity(address(this)); \n\t\tIStdReference.ReferenceData memory data = priceOracle.getReferenceData(\"FTM\", \"USDC\"); \n\t\tprice = data.rate; \n\t\tuint maxTokenBorrow = (liquidity * 10**18) / price; //wFTM has 18 decimals   \t\n\t\tborrowAmount = (maxTokenBorrow * 75) / 100; \n\t\treturn (liquidity, borrowAmount, price); \n\t}\n\n\t//where amount is the percentage of LP tokens relative to the callers % ownership of the vault \n\tfunction swapAndWithdraw(uint amount) internal {\n\t\tuint percentOfLP = amount / 100; //div by 100 to get percentage\t\n\t\tuint amountToWithdraw = IERC20(spookyFtmTombLP).balanceOf(address(this)) * percentOfLP;  \n\t\t//we first withdraw the LP tokens from TOMB  \n\t\tIMasterChef(tsharePool).withdraw(0, amountToWithdraw); //where amount is the amount of LP tokens \n\t\t\n\t\t//we remove liquidity belonging to the user(amount) back for tomb + wftm \n\t\t(uint amountTomb, uint amountWftm) = spookyRouter.removeLiquidity(\n\t\t\tTOMB, \n\t\t\tWFTM,\n\t\t   \tamountToWithdraw,\n\t\t   \t0,\n\t\t   \t0,\n\t\t   \taddress(this),\n\t\t   \tblock.timestamp + 30\n\t\t); \n\t\t\n\t\t//now we swap tomb back for wftm \n\t\taddress[] memory path = new address[](2); \n\t\tpath[0] = TOMB; \n\t\tpath[1] = WFTM; \n\t\tuint[] memory amounts = spookyRouter.swapExactTokensForTokens(\n\t\t\tamountTomb,\n\t\t\t0,\n\t\t\tpath,\n\t\t\taddress(this),\n\t\t\tblock.timestamp + 30\n\t\t);\n\n\t\tuint amountToRepay = amounts[0] + amountWftm; \n\t\t//now we can repay our users borrow \n\t\tCERC20(crWFTM).repayBorrow(amountToRepay); \n\t}\n\n\tfunction getBalance() external view returns(uint) {\n\t\tuint half = IERC20(WFTM).balanceOf(address(this)) * 50 / 100; \n\t\treturn half; \t\n\t}\n\t\n\t//then we send the funds to spookyswap where we sell 50% to tomb and then unwrap the rest \n\tfunction swap() internal { \n\t\t//swap 50% to TOMB & approve \n\t\tuint half = IERC20(WFTM).balanceOf(address(this)) * 50 / 100; \n\t\tIERC20(WFTM).approve(spookyAddress, half);\n\t\n \n         address[] memory path = new address[](2);\n         path[0] = WFTM;\n         path[1] = TOMB;\n         IUniswapV2Router02(spookyAddress).swapExactTokensForTokens(\n             half,\n             0,\n             path,\n             address(this),\n             block.timestamp\n\t\t ); \n\t }\n\n\t\n\n\tfunction sellAndSwap() internal {\n\t\tuint half = IERC20(TSHARE).balanceOf(address(this)) * 50 / 100; \n\t\tuint fee = half * CREATOR_FEE; \n\t\taddress[] memory pathToTomb = new address[](3); \n\t\tpathToTomb[0] = TSHARE;  \n\t\tpathToTomb[1] = WFTM; \n\t\tpathToTomb[2] = TOMB; \n\t\tspookyRouter.swapExactTokensForTokensSupportingFeeOnTransferTokens(\n\t\t\thalf,\n\t\t\t0,\n\t\t\tpathToTomb,\n\t\t\taddress(this),\n\t\t\tblock.timestamp + 30\n\t\t); \n\n\t\t//swap rest to WFTM \n\t\tuint rest = IERC20(TSHARE).balanceOf(address(this)); \n\t\taddress[] memory pathToWftm = new address[](2); \n\t\tpathToWftm[0] = TSHARE; \n\t\tpathToWftm[1] = WFTM; \n\t\tspookyRouter.swapExactTokensForTokensSupportingFeeOnTransferTokens(\n\t\t\trest,\n\t\t\t0,\n\t\t\tpathToWftm,\n\t\t\taddress(this),\n\t\t\tblock.timestamp + 30\n\t\t); \n\t}\n\n\tfunction getLPTokens() internal {\n\t\t//we need to approve the router to spend our TOMB\n\t\tuint tombAmount = IERC20(TOMB).balanceOf(address(this)); \n\t\tuint ftmAmount = IERC20(WFTM).balanceOf(address(this));  \n\n\t\t//now we add liquidity \n\t\t//@params token, tokenAmount, minToken, minETH, to, deadline\n\t\tspookyRouter.addLiquidity(TOMB, WFTM, tombAmount, ftmAmount, 1, 1, address(this), block.timestamp + 30); \n\t}\n\n\tfunction depositLPGetTShare() internal {\n\t\t//deposit into tshare vault using _pid but idk how to get that currently \t\n\t\tuint lpTokenBalance = IERC20(spookyFtmTombLP).balanceOf(address(this)); \n\t\t//tomb has 2 pools that give tshare rewards for staked LPs, the TSHARE-FTM and TOMB-FTM, \n\t\t//they are both distributed from the same contract tho, and they don't say which is which anywhere?? cringe. \n\t\t//after this deposit the contract should be earning tshares as a reward \n\t\tIMasterChef(tsharePool).deposit(0, lpTokenBalance); //I think the FTM-TOMB pool ID is 0 tho \n\t}\n\n\treceive() external payable{} \n\t\n} \n",
  "sourcePath": "/home/kevin/Code/solidity_projects/djinnFinance/contracts/strategies/ShortFarmFTM.sol",
  "compiler": {
    "name": "solc",
    "version": "0.8.10+commit.fc410830.Emscripten.clang"
  },
  "schemaVersion": "3.4.3",
  "updatedAt": "2022-01-27T01:03:13.292Z",
  "networkType": "ethereum",
  "devdoc": {
    "kind": "dev",
    "methods": {},
    "version": 1
  },
  "userdoc": {
    "kind": "user",
    "methods": {},
    "version": 1
  }
}