{
  "contractName": "ShortFarmFTM",
  "abi": [
    {
      "inputs": [
        {
          "internalType": "contract DjinnBottleUSDC",
          "name": "_djBottle",
          "type": "address"
        },
        {
          "internalType": "contract IUniswapV2Router02",
          "name": "_spookyRouter",
          "type": "address"
        },
        {
          "internalType": "contract ComptrollerInterface",
          "name": "_comptroller",
          "type": "address"
        },
        {
          "internalType": "contract IStdReference",
          "name": "_priceOracle",
          "type": "address"
        },
        {
          "internalType": "contract CERC20",
          "name": "_cERC20",
          "type": "address"
        }
      ],
      "stateMutability": "nonpayable",
      "type": "constructor"
    },
    {
      "anonymous": false,
      "inputs": [
        {
          "indexed": true,
          "internalType": "address",
          "name": "owner",
          "type": "address"
        },
        {
          "indexed": true,
          "internalType": "address",
          "name": "spender",
          "type": "address"
        },
        {
          "indexed": false,
          "internalType": "uint256",
          "name": "value",
          "type": "uint256"
        }
      ],
      "name": "Approval",
      "type": "event"
    },
    {
      "anonymous": false,
      "inputs": [
        {
          "indexed": true,
          "internalType": "address",
          "name": "from",
          "type": "address"
        },
        {
          "indexed": true,
          "internalType": "address",
          "name": "to",
          "type": "address"
        },
        {
          "indexed": false,
          "internalType": "uint256",
          "name": "value",
          "type": "uint256"
        }
      ],
      "name": "Transfer",
      "type": "event"
    },
    {
      "inputs": [],
      "name": "TOMB",
      "outputs": [
        {
          "internalType": "address",
          "name": "",
          "type": "address"
        }
      ],
      "stateMutability": "view",
      "type": "function",
      "constant": true
    },
    {
      "inputs": [],
      "name": "TSHARE",
      "outputs": [
        {
          "internalType": "address",
          "name": "",
          "type": "address"
        }
      ],
      "stateMutability": "view",
      "type": "function",
      "constant": true
    },
    {
      "inputs": [],
      "name": "USDC",
      "outputs": [
        {
          "internalType": "address",
          "name": "",
          "type": "address"
        }
      ],
      "stateMutability": "view",
      "type": "function",
      "constant": true
    },
    {
      "inputs": [],
      "name": "VAULT",
      "outputs": [
        {
          "internalType": "contract DjinnBottleUSDC",
          "name": "",
          "type": "address"
        }
      ],
      "stateMutability": "view",
      "type": "function",
      "constant": true
    },
    {
      "inputs": [],
      "name": "WFTM",
      "outputs": [
        {
          "internalType": "address",
          "name": "",
          "type": "address"
        }
      ],
      "stateMutability": "view",
      "type": "function",
      "constant": true
    },
    {
      "inputs": [
        {
          "internalType": "address",
          "name": "owner",
          "type": "address"
        },
        {
          "internalType": "address",
          "name": "spender",
          "type": "address"
        }
      ],
      "name": "allowance",
      "outputs": [
        {
          "internalType": "uint256",
          "name": "",
          "type": "uint256"
        }
      ],
      "stateMutability": "view",
      "type": "function",
      "constant": true
    },
    {
      "inputs": [
        {
          "internalType": "address",
          "name": "spender",
          "type": "address"
        },
        {
          "internalType": "uint256",
          "name": "amount",
          "type": "uint256"
        }
      ],
      "name": "approve",
      "outputs": [
        {
          "internalType": "bool",
          "name": "",
          "type": "bool"
        }
      ],
      "stateMutability": "nonpayable",
      "type": "function"
    },
    {
      "inputs": [
        {
          "internalType": "address",
          "name": "account",
          "type": "address"
        }
      ],
      "name": "balanceOf",
      "outputs": [
        {
          "internalType": "uint256",
          "name": "",
          "type": "uint256"
        }
      ],
      "stateMutability": "view",
      "type": "function",
      "constant": true
    },
    {
      "inputs": [],
      "name": "comptroller",
      "outputs": [
        {
          "internalType": "contract ComptrollerInterface",
          "name": "",
          "type": "address"
        }
      ],
      "stateMutability": "view",
      "type": "function",
      "constant": true
    },
    {
      "inputs": [],
      "name": "crUSDC",
      "outputs": [
        {
          "internalType": "address",
          "name": "",
          "type": "address"
        }
      ],
      "stateMutability": "view",
      "type": "function",
      "constant": true
    },
    {
      "inputs": [],
      "name": "crWFTM",
      "outputs": [
        {
          "internalType": "contract CERC20",
          "name": "",
          "type": "address"
        }
      ],
      "stateMutability": "view",
      "type": "function",
      "constant": true
    },
    {
      "inputs": [],
      "name": "creator",
      "outputs": [
        {
          "internalType": "address",
          "name": "",
          "type": "address"
        }
      ],
      "stateMutability": "view",
      "type": "function",
      "constant": true
    },
    {
      "inputs": [],
      "name": "decimals",
      "outputs": [
        {
          "internalType": "uint8",
          "name": "",
          "type": "uint8"
        }
      ],
      "stateMutability": "view",
      "type": "function",
      "constant": true
    },
    {
      "inputs": [
        {
          "internalType": "address",
          "name": "spender",
          "type": "address"
        },
        {
          "internalType": "uint256",
          "name": "subtractedValue",
          "type": "uint256"
        }
      ],
      "name": "decreaseAllowance",
      "outputs": [
        {
          "internalType": "bool",
          "name": "",
          "type": "bool"
        }
      ],
      "stateMutability": "nonpayable",
      "type": "function"
    },
    {
      "inputs": [
        {
          "internalType": "address",
          "name": "",
          "type": "address"
        }
      ],
      "name": "depositBalance",
      "outputs": [
        {
          "internalType": "uint256",
          "name": "",
          "type": "uint256"
        }
      ],
      "stateMutability": "view",
      "type": "function",
      "constant": true
    },
    {
      "inputs": [
        {
          "internalType": "address",
          "name": "spender",
          "type": "address"
        },
        {
          "internalType": "uint256",
          "name": "addedValue",
          "type": "uint256"
        }
      ],
      "name": "increaseAllowance",
      "outputs": [
        {
          "internalType": "bool",
          "name": "",
          "type": "bool"
        }
      ],
      "stateMutability": "nonpayable",
      "type": "function"
    },
    {
      "inputs": [],
      "name": "name",
      "outputs": [
        {
          "internalType": "string",
          "name": "",
          "type": "string"
        }
      ],
      "stateMutability": "view",
      "type": "function",
      "constant": true
    },
    {
      "inputs": [],
      "name": "priceOracle",
      "outputs": [
        {
          "internalType": "contract IStdReference",
          "name": "",
          "type": "address"
        }
      ],
      "stateMutability": "view",
      "type": "function",
      "constant": true
    },
    {
      "inputs": [],
      "name": "spookyAddress",
      "outputs": [
        {
          "internalType": "address",
          "name": "",
          "type": "address"
        }
      ],
      "stateMutability": "view",
      "type": "function",
      "constant": true
    },
    {
      "inputs": [],
      "name": "spookyFtmTombLP",
      "outputs": [
        {
          "internalType": "address",
          "name": "",
          "type": "address"
        }
      ],
      "stateMutability": "view",
      "type": "function",
      "constant": true
    },
    {
      "inputs": [],
      "name": "spookyRouter",
      "outputs": [
        {
          "internalType": "contract IUniswapV2Router02",
          "name": "",
          "type": "address"
        }
      ],
      "stateMutability": "view",
      "type": "function",
      "constant": true
    },
    {
      "inputs": [],
      "name": "symbol",
      "outputs": [
        {
          "internalType": "string",
          "name": "",
          "type": "string"
        }
      ],
      "stateMutability": "view",
      "type": "function",
      "constant": true
    },
    {
      "inputs": [],
      "name": "tShareRewardPool",
      "outputs": [
        {
          "internalType": "address",
          "name": "",
          "type": "address"
        }
      ],
      "stateMutability": "view",
      "type": "function",
      "constant": true
    },
    {
      "inputs": [],
      "name": "totalSupply",
      "outputs": [
        {
          "internalType": "uint256",
          "name": "",
          "type": "uint256"
        }
      ],
      "stateMutability": "view",
      "type": "function",
      "constant": true
    },
    {
      "inputs": [
        {
          "internalType": "address",
          "name": "recipient",
          "type": "address"
        },
        {
          "internalType": "uint256",
          "name": "amount",
          "type": "uint256"
        }
      ],
      "name": "transfer",
      "outputs": [
        {
          "internalType": "bool",
          "name": "",
          "type": "bool"
        }
      ],
      "stateMutability": "nonpayable",
      "type": "function"
    },
    {
      "inputs": [
        {
          "internalType": "address",
          "name": "sender",
          "type": "address"
        },
        {
          "internalType": "address",
          "name": "recipient",
          "type": "address"
        },
        {
          "internalType": "uint256",
          "name": "amount",
          "type": "uint256"
        }
      ],
      "name": "transferFrom",
      "outputs": [
        {
          "internalType": "bool",
          "name": "",
          "type": "bool"
        }
      ],
      "stateMutability": "nonpayable",
      "type": "function"
    },
    {
      "stateMutability": "payable",
      "type": "receive",
      "payable": true
    },
    {
      "inputs": [
        {
          "internalType": "address",
          "name": "user",
          "type": "address"
        },
        {
          "internalType": "uint256",
          "name": "amount",
          "type": "uint256"
        }
      ],
      "name": "open",
      "outputs": [],
      "stateMutability": "nonpayable",
      "type": "function"
    },
    {
      "inputs": [],
      "name": "harvest",
      "outputs": [],
      "stateMutability": "nonpayable",
      "type": "function"
    },
    {
      "inputs": [
        {
          "internalType": "address",
          "name": "user",
          "type": "address"
        },
        {
          "internalType": "uint256",
          "name": "amountShares",
          "type": "uint256"
        }
      ],
      "name": "close",
      "outputs": [],
      "stateMutability": "nonpayable",
      "type": "function"
    },
    {
      "inputs": [],
      "name": "getbal",
      "outputs": [
        {
          "internalType": "uint256",
          "name": "",
          "type": "uint256"
        }
      ],
      "stateMutability": "view",
      "type": "function",
      "constant": true
    },
    {
      "inputs": [],
      "name": "getUnderlying",
      "outputs": [
        {
          "internalType": "uint256",
          "name": "",
          "type": "uint256"
        }
      ],
      "stateMutability": "nonpayable",
      "type": "function"
    }
  ],
  "bytecode": "0x6101006040523480156200001257600080fd5b506040516200562a3803806200562a83398181016040528101906200003891906200043c565b6040518060400160405280601c81526020017f446a696e6e2046696e616e63652046544d2053686f7274204661726d000000008152506040518060400160405280600a81526020017f646646544d53686f7274000000000000000000000000000000000000000000008152508160039080519060200190620000bc929190620001fa565b508060049080519060200190620000d5929190620001fa565b505050600033905085600660006101000a81548173ffffffffffffffffffffffffffffffffffffffff021916908373ffffffffffffffffffffffffffffffffffffffff1602179055508473ffffffffffffffffffffffffffffffffffffffff1660808173ffffffffffffffffffffffffffffffffffffffff16815250508373ffffffffffffffffffffffffffffffffffffffff1660a08173ffffffffffffffffffffffffffffffffffffffff16815250508273ffffffffffffffffffffffffffffffffffffffff1660c08173ffffffffffffffffffffffffffffffffffffffff16815250508173ffffffffffffffffffffffffffffffffffffffff1660e08173ffffffffffffffffffffffffffffffffffffffff168152505050505050505062000529565b8280546200020890620004f3565b90600052602060002090601f0160209004810192826200022c576000855562000278565b82601f106200024757805160ff191683800117855562000278565b8280016001018555821562000278579182015b82811115620002775782518255916020019190600101906200025a565b5b5090506200028791906200028b565b5090565b5b80821115620002a65760008160009055506001016200028c565b5090565b600080fd5b600073ffffffffffffffffffffffffffffffffffffffff82169050919050565b6000620002dc82620002af565b9050919050565b6000620002f082620002cf565b9050919050565b6200030281620002e3565b81146200030e57600080fd5b50565b6000815190506200032281620002f7565b92915050565b60006200033582620002cf565b9050919050565b620003478162000328565b81146200035357600080fd5b50565b60008151905062000367816200033c565b92915050565b60006200037a82620002cf565b9050919050565b6200038c816200036d565b81146200039857600080fd5b50565b600081519050620003ac8162000381565b92915050565b6000620003bf82620002cf565b9050919050565b620003d181620003b2565b8114620003dd57600080fd5b50565b600081519050620003f181620003c6565b92915050565b60006200040482620002cf565b9050919050565b6200041681620003f7565b81146200042257600080fd5b50565b60008151905062000436816200040b565b92915050565b600080600080600060a086880312156200045b576200045a620002aa565b5b60006200046b8882890162000311565b95505060206200047e8882890162000356565b945050604062000491888289016200039b565b9350506060620004a488828901620003e0565b9250506080620004b78882890162000425565b9150509295509295909350565b7f4e487b7100000000000000000000000000000000000000000000000000000000600052602260045260246000fd5b600060028204905060018216806200050c57607f821691505b60208210811415620005235762000522620004c4565b5b50919050565b60805160a05160c05160e051615081620005a96000396000818161092d015281816116450152818161374101526137c4015260008181610af601528181612c2801526135b5015260008181610d39015281816115900152612b84015260008181610dd501528181612470015281816126b601526134fb01526150816000f3fe6080604052600436106101dc5760003560e01c80635fe3b567116101025780639cdd8ee711610095578063b5ee45c111610064578063b5ee45c1146106d9578063c139acfa14610704578063dd62ed3e1461072f578063e49280cb1461076c576101e3565b80639cdd8ee714610609578063a457c2d714610634578063a6f8d40514610671578063a9059cbb1461069c576101e3565b80638ed8ea7e116100d15780638ed8ea7e1461054b578063956501bb1461057657806395d89b41146105b35780639816f473146105de576101e3565b80635fe3b5671461048d57806370a08231146104b857806382c70bbf146104f557806389a3027114610520576101e3565b806321dbe8761161017a578063313ce56711610149578063313ce567146103e3578063395093511461040e578063411557d11461044b5780634641257d14610476576101e3565b806321dbe8761461032557806323b872dd146103505780632630c12f1461038d5780632c1c1836146103b8576101e3565b80630a0e5c9d116101b65780630a0e5c9d1461027b57806318160ddd146102a45780631882bf44146102cf5780631b3f4e07146102fa576101e3565b806302d05d3f146101e857806306fdde0314610213578063095ea7b31461023e576101e3565b366101e357005b600080fd5b3480156101f457600080fd5b506101fd610795565b60405161020a9190613c5d565b60405180910390f35b34801561021f57600080fd5b506102286107bb565b6040516102359190613d11565b60405180910390f35b34801561024a57600080fd5b5061026560048036038101906102609190613da9565b61084d565b6040516102729190613e04565b60405180910390f35b34801561028757600080fd5b506102a2600480360381019061029d9190613da9565b61086b565b005b3480156102b057600080fd5b506102b9610921565b6040516102c69190613e2e565b60405180910390f35b3480156102db57600080fd5b506102e461092b565b6040516102f19190613ea8565b60405180910390f35b34801561030657600080fd5b5061030f61094f565b60405161031c9190613e2e565b60405180910390f35b34801561033157600080fd5b5061033a6109e4565b6040516103479190613c5d565b60405180910390f35b34801561035c57600080fd5b5061037760048036038101906103729190613ec3565b6109fc565b6040516103849190613e04565b60405180910390f35b34801561039957600080fd5b506103a2610af4565b6040516103af9190613f37565b60405180910390f35b3480156103c457600080fd5b506103cd610b18565b6040516103da9190613c5d565b60405180910390f35b3480156103ef57600080fd5b506103f8610b30565b6040516104059190613f6e565b60405180910390f35b34801561041a57600080fd5b5061043560048036038101906104309190613da9565b610b39565b6040516104429190613e04565b60405180910390f35b34801561045757600080fd5b50610460610be5565b60405161046d9190613faa565b60405180910390f35b34801561048257600080fd5b5061048b610c0b565b005b34801561049957600080fd5b506104a2610d37565b6040516104af9190613fe6565b60405180910390f35b3480156104c457600080fd5b506104df60048036038101906104da9190614001565b610d5b565b6040516104ec9190613e2e565b60405180910390f35b34801561050157600080fd5b5061050a610da3565b6040516105179190613c5d565b60405180910390f35b34801561052c57600080fd5b50610535610dbb565b6040516105429190613c5d565b60405180910390f35b34801561055757600080fd5b50610560610dd3565b60405161056d919061404f565b60405180910390f35b34801561058257600080fd5b5061059d60048036038101906105989190614001565b610df7565b6040516105aa9190613e2e565b60405180910390f35b3480156105bf57600080fd5b506105c8610e0f565b6040516105d59190613d11565b60405180910390f35b3480156105ea57600080fd5b506105f3610ea1565b6040516106009190613e2e565b60405180910390f35b34801561061557600080fd5b5061061e610f38565b60405161062b9190613c5d565b60405180910390f35b34801561064057600080fd5b5061065b60048036038101906106569190613da9565b610f50565b6040516106689190613e04565b60405180910390f35b34801561067d57600080fd5b5061068661103b565b6040516106939190613c5d565b60405180910390f35b3480156106a857600080fd5b506106c360048036038101906106be9190613da9565b611053565b6040516106d09190613e04565b60405180910390f35b3480156106e557600080fd5b506106ee611071565b6040516106fb9190613c5d565b60405180910390f35b34801561071057600080fd5b50610719611089565b6040516107269190613c5d565b60405180910390f35b34801561073b57600080fd5b506107566004803603810190610751919061406a565b6110a1565b6040516107639190613e2e565b60405180910390f35b34801561077857600080fd5b50610793600480360381019061078e9190613da9565b611128565b005b600560009054906101000a900473ffffffffffffffffffffffffffffffffffffffff1681565b6060600380546107ca906140d9565b80601f01602080910402602001604051908101604052809291908181526020018280546107f6906140d9565b80156108435780601f1061081857610100808354040283529160200191610843565b820191906000526020600020905b81548152906001019060200180831161082657829003601f168201915b5050505050905090565b600061086161085a6111c6565b84846111ce565b6001905092915050565b600660009054906101000a900473ffffffffffffffffffffffffffffffffffffffff1673ffffffffffffffffffffffffffffffffffffffff163373ffffffffffffffffffffffffffffffffffffffff16146108fb576040517f08c379a00000000000000000000000000000000000000000000000000000000081526004016108f290614157565b60405180910390fd5b6109058282611399565b61090d6117a1565b610915611aa9565b61091d611df5565b5050565b6000600254905090565b7f000000000000000000000000000000000000000000000000000000000000000081565b6000732a651563c9d3af67ae0388a5c8f89b867038089e73ffffffffffffffffffffffffffffffffffffffff166370a08231306040518263ffffffff1660e01b815260040161099e9190613c5d565b602060405180830381865afa1580156109bb573d6000803e3d6000fd5b505050506040513d601f19601f820116820180604052508101906109df919061418c565b905090565b7321be370d5312f44cb42ce377bc9b8a0cef1a4c8381565b6000610a09848484611fbd565b6000600160008673ffffffffffffffffffffffffffffffffffffffff1673ffffffffffffffffffffffffffffffffffffffff1681526020019081526020016000206000610a546111c6565b73ffffffffffffffffffffffffffffffffffffffff1673ffffffffffffffffffffffffffffffffffffffff16815260200190815260200160002054905082811015610ad4576040517f08c379a0000000000000000000000000000000000000000000000000000000008152600401610acb9061422b565b60405180910390fd5b610ae885610ae06111c6565b8584036111ce565b60019150509392505050565b7f000000000000000000000000000000000000000000000000000000000000000081565b73cc0a87f7e7c693042a9cc703661f5060c80acb4381565b60006012905090565b6000610bdb610b466111c6565b848460016000610b546111c6565b73ffffffffffffffffffffffffffffffffffffffff1673ffffffffffffffffffffffffffffffffffffffff16815260200190815260200160002060008873ffffffffffffffffffffffffffffffffffffffff1673ffffffffffffffffffffffffffffffffffffffff16815260200190815260200160002054610bd6919061427a565b6111ce565b6001905092915050565b600660009054906101000a900473ffffffffffffffffffffffffffffffffffffffff1681565b600660009054906101000a900473ffffffffffffffffffffffffffffffffffffffff1673ffffffffffffffffffffffffffffffffffffffff163373ffffffffffffffffffffffffffffffffffffffff1614610c9b576040517f08c379a0000000000000000000000000000000000000000000000000000000008152600401610c929061431c565b60405180910390fd5b73cc0a87f7e7c693042a9cc703661f5060c80acb4373ffffffffffffffffffffffffffffffffffffffff1663e2bbb1586000806040518363ffffffff1660e01b8152600401610ceb929190614377565b600060405180830381600087803b158015610d0557600080fd5b505af1158015610d19573d6000803e3d6000fd5b50505050610d2561223e565b610d2d611aa9565b610d35611df5565b565b7f000000000000000000000000000000000000000000000000000000000000000081565b60008060008373ffffffffffffffffffffffffffffffffffffffff1673ffffffffffffffffffffffffffffffffffffffff168152602001908152602001600020549050919050565b73328a7b4d538a2b3942653a9983fda3c12c57114181565b7304068da6c83afcfa0e13ba15a6696662335d5b7581565b7f000000000000000000000000000000000000000000000000000000000000000081565b60076020528060005260406000206000915090505481565b606060048054610e1e906140d9565b80601f0160208091040260200160405190810160405280929190818152602001828054610e4a906140d9565b8015610e975780601f10610e6c57610100808354040283529160200191610e97565b820191906000526020600020905b815481529060010190602001808311610e7a57829003601f168201915b5050505050905090565b600073328a7b4d538a2b3942653a9983fda3c12c57114173ffffffffffffffffffffffffffffffffffffffff16633af9e669306040518263ffffffff1660e01b8152600401610ef09190613c5d565b6020604051808303816000875af1158015610f0f573d6000803e3d6000fd5b505050506040513d601f19601f82011682018060405250810190610f33919061418c565b905090565b732a651563c9d3af67ae0388a5c8f89b867038089e81565b60008060016000610f5f6111c6565b73ffffffffffffffffffffffffffffffffffffffff1673ffffffffffffffffffffffffffffffffffffffff16815260200190815260200160002060008573ffffffffffffffffffffffffffffffffffffffff1673ffffffffffffffffffffffffffffffffffffffff1681526020019081526020016000205490508281101561101c576040517f08c379a000000000000000000000000000000000000000000000000000000000815260040161101390614412565b60405180910390fd5b6110306110276111c6565b858584036111ce565b600191505092915050565b73f491e7b69e4244ad4002bc14e878a34207e38c2981565b60006110676110606111c6565b8484611fbd565b6001905092915050565b734cdf39285d7ca8eb3f090fda0c069ba5f4145b3781565b736c021ae822bea943b2e66552bde1d2696a53fbb781565b6000600160008473ffffffffffffffffffffffffffffffffffffffff1673ffffffffffffffffffffffffffffffffffffffff16815260200190815260200160002060008373ffffffffffffffffffffffffffffffffffffffff1673ffffffffffffffffffffffffffffffffffffffff16815260200190815260200160002054905092915050565b600660009054906101000a900473ffffffffffffffffffffffffffffffffffffffff1673ffffffffffffffffffffffffffffffffffffffff163373ffffffffffffffffffffffffffffffffffffffff16146111b8576040517f08c379a00000000000000000000000000000000000000000000000000000000081526004016111af90614157565b60405180910390fd5b6111c28282612915565b5050565b600033905090565b600073ffffffffffffffffffffffffffffffffffffffff168373ffffffffffffffffffffffffffffffffffffffff16141561123e576040517f08c379a0000000000000000000000000000000000000000000000000000000008152600401611235906144a4565b60405180910390fd5b600073ffffffffffffffffffffffffffffffffffffffff168273ffffffffffffffffffffffffffffffffffffffff1614156112ae576040517f08c379a00000000000000000000000000000000000000000000000000000000081526004016112a590614536565b60405180910390fd5b80600160008573ffffffffffffffffffffffffffffffffffffffff1673ffffffffffffffffffffffffffffffffffffffff16815260200190815260200160002060008473ffffffffffffffffffffffffffffffffffffffff1673ffffffffffffffffffffffffffffffffffffffff168152602001908152602001600020819055508173ffffffffffffffffffffffffffffffffffffffff168373ffffffffffffffffffffffffffffffffffffffff167f8c5be1e5ebec7d5bd14f71427d1e84f3dd0314c0f7b2291e5b200ac8c7c3b9258360405161138c9190613e2e565b60405180910390a3505050565b60006113a3610ea1565b90507304068da6c83afcfa0e13ba15a6696662335d5b7573ffffffffffffffffffffffffffffffffffffffff1663095ea7b373328a7b4d538a2b3942653a9983fda3c12c571141846040518363ffffffff1660e01b8152600401611408929190614556565b6020604051808303816000875af1158015611427573d6000803e3d6000fd5b505050506040513d601f19601f8201168201806040525081019061144b91906145ab565b5073328a7b4d538a2b3942653a9983fda3c12c57114173ffffffffffffffffffffffffffffffffffffffff1663a0712d68836040518263ffffffff1660e01b81526004016114999190613e2e565b6020604051808303816000875af11580156114b8573d6000803e3d6000fd5b505050506040513d601f19601f820116820180604052508101906114dc919061418c565b506000600167ffffffffffffffff8111156114fa576114f96145d8565b5b6040519080825280602002602001820160405280156115285781602001602082028036833780820191505090505b50905073328a7b4d538a2b3942653a9983fda3c12c5711418160008151811061155457611553614607565b5b602002602001019073ffffffffffffffffffffffffffffffffffffffff16908173ffffffffffffffffffffffffffffffffffffffff16815250507f000000000000000000000000000000000000000000000000000000000000000073ffffffffffffffffffffffffffffffffffffffff1663c2998238826040518263ffffffff1660e01b81526004016115e791906146f4565b6000604051808303816000875af1158015611606573d6000803e3d6000fd5b505050506040513d6000823e3d601f19601f8201168201806040525081019061162f919061482f565b50600080600061163d612b7d565b9250925092507f000000000000000000000000000000000000000000000000000000000000000073ffffffffffffffffffffffffffffffffffffffff1663c5ebeaec836040518263ffffffff1660e01b815260040161169c9190613e2e565b6020604051808303816000875af11580156116bb573d6000803e3d6000fd5b505050506040513d601f19601f820116820180604052508101906116df919061418c565b5060006116ea610ea1565b9050600086826116fa9190614878565b90506000620f42406ec097ce7bc90715b34b9f1000000000858761171e91906148ac565b6117289190614935565b61173291906148ac565b8261173d9190614878565b905080600760008c73ffffffffffffffffffffffffffffffffffffffff1673ffffffffffffffffffffffffffffffffffffffff168152602001908152602001600020600082825461178e919061427a565b9250508190555050505050505050505050565b6000606460327321be370d5312f44cb42ce377bc9b8a0cef1a4c8373ffffffffffffffffffffffffffffffffffffffff166370a08231306040518263ffffffff1660e01b81526004016117f49190613c5d565b602060405180830381865afa158015611811573d6000803e3d6000fd5b505050506040513d601f19601f82011682018060405250810190611835919061418c565b61183f91906148ac565b6118499190614935565b90507321be370d5312f44cb42ce377bc9b8a0cef1a4c8373ffffffffffffffffffffffffffffffffffffffff1663095ea7b373f491e7b69e4244ad4002bc14e878a34207e38c29836040518363ffffffff1660e01b81526004016118ae929190614556565b6020604051808303816000875af11580156118cd573d6000803e3d6000fd5b505050506040513d601f19601f820116820180604052508101906118f191906145ab565b506000600267ffffffffffffffff81111561190f5761190e6145d8565b5b60405190808252806020026020018201604052801561193d5781602001602082028036833780820191505090505b5090507321be370d5312f44cb42ce377bc9b8a0cef1a4c838160008151811061196957611968614607565b5b602002602001019073ffffffffffffffffffffffffffffffffffffffff16908173ffffffffffffffffffffffffffffffffffffffff1681525050736c021ae822bea943b2e66552bde1d2696a53fbb7816001815181106119cc576119cb614607565b5b602002602001019073ffffffffffffffffffffffffffffffffffffffff16908173ffffffffffffffffffffffffffffffffffffffff168152505073f491e7b69e4244ad4002bc14e878a34207e38c2973ffffffffffffffffffffffffffffffffffffffff166338ed17398360008430426040518663ffffffff1660e01b8152600401611a5c959493929190614966565b6000604051808303816000875af1158015611a7b573d6000803e3d6000fd5b505050506040513d6000823e3d601f19601f82011682018060405250810190611aa4919061482f565b505050565b6000736c021ae822bea943b2e66552bde1d2696a53fbb773ffffffffffffffffffffffffffffffffffffffff166370a08231306040518263ffffffff1660e01b8152600401611af89190613c5d565b602060405180830381865afa158015611b15573d6000803e3d6000fd5b505050506040513d601f19601f82011682018060405250810190611b39919061418c565b905060007321be370d5312f44cb42ce377bc9b8a0cef1a4c8373ffffffffffffffffffffffffffffffffffffffff166370a08231306040518263ffffffff1660e01b8152600401611b8a9190613c5d565b602060405180830381865afa158015611ba7573d6000803e3d6000fd5b505050506040513d601f19601f82011682018060405250810190611bcb919061418c565b9050736c021ae822bea943b2e66552bde1d2696a53fbb773ffffffffffffffffffffffffffffffffffffffff1663095ea7b373f491e7b69e4244ad4002bc14e878a34207e38c29846040518363ffffffff1660e01b8152600401611c30929190614556565b6020604051808303816000875af1158015611c4f573d6000803e3d6000fd5b505050506040513d601f19601f82011682018060405250810190611c7391906145ab565b507321be370d5312f44cb42ce377bc9b8a0cef1a4c8373ffffffffffffffffffffffffffffffffffffffff1663095ea7b373f491e7b69e4244ad4002bc14e878a34207e38c29836040518363ffffffff1660e01b8152600401611cd7929190614556565b6020604051808303816000875af1158015611cf6573d6000803e3d6000fd5b505050506040513d601f19601f82011682018060405250810190611d1a91906145ab565b5073f491e7b69e4244ad4002bc14e878a34207e38c2973ffffffffffffffffffffffffffffffffffffffff1663e8e33700736c021ae822bea943b2e66552bde1d2696a53fbb77321be370d5312f44cb42ce377bc9b8a0cef1a4c83858560018030601e42611d88919061427a565b6040518963ffffffff1660e01b8152600401611dab9897969594939291906149fb565b6060604051808303816000875af1158015611dca573d6000803e3d6000fd5b505050506040513d601f19601f82011682018060405250810190611dee9190614a79565b5050505050565b6000732a651563c9d3af67ae0388a5c8f89b867038089e73ffffffffffffffffffffffffffffffffffffffff166370a08231306040518263ffffffff1660e01b8152600401611e449190613c5d565b602060405180830381865afa158015611e61573d6000803e3d6000fd5b505050506040513d601f19601f82011682018060405250810190611e85919061418c565b9050611e913082612d0c565b732a651563c9d3af67ae0388a5c8f89b867038089e73ffffffffffffffffffffffffffffffffffffffff1663095ea7b373cc0a87f7e7c693042a9cc703661f5060c80acb43836040518363ffffffff1660e01b8152600401611ef4929190614556565b6020604051808303816000875af1158015611f13573d6000803e3d6000fd5b505050506040513d601f19601f82011682018060405250810190611f3791906145ab565b5073cc0a87f7e7c693042a9cc703661f5060c80acb4373ffffffffffffffffffffffffffffffffffffffff1663e2bbb1586000836040518363ffffffff1660e01b8152600401611f88929190614acc565b600060405180830381600087803b158015611fa257600080fd5b505af1158015611fb6573d6000803e3d6000fd5b5050505050565b600073ffffffffffffffffffffffffffffffffffffffff168373ffffffffffffffffffffffffffffffffffffffff16141561202d576040517f08c379a000000000000000000000000000000000000000000000000000000000815260040161202490614b67565b60405180910390fd5b600073ffffffffffffffffffffffffffffffffffffffff168273ffffffffffffffffffffffffffffffffffffffff16141561209d576040517f08c379a000000000000000000000000000000000000000000000000000000000815260040161209490614bf9565b60405180910390fd5b6120a8838383612e6c565b60008060008573ffffffffffffffffffffffffffffffffffffffff1673ffffffffffffffffffffffffffffffffffffffff1681526020019081526020016000205490508181101561212e576040517f08c379a000000000000000000000000000000000000000000000000000000000815260040161212590614c8b565b60405180910390fd5b8181036000808673ffffffffffffffffffffffffffffffffffffffff1673ffffffffffffffffffffffffffffffffffffffff16815260200190815260200160002081905550816000808573ffffffffffffffffffffffffffffffffffffffff1673ffffffffffffffffffffffffffffffffffffffff16815260200190815260200160002060008282546121c1919061427a565b925050819055508273ffffffffffffffffffffffffffffffffffffffff168473ffffffffffffffffffffffffffffffffffffffff167fddf252ad1be2c89b69c2b068fc378daa952ba7f163c4a11628f55a4df523b3ef846040516122259190613e2e565b60405180910390a3612238848484612e71565b50505050565b600080612249612e76565b91509150600060646032734cdf39285d7ca8eb3f090fda0c069ba5f4145b3773ffffffffffffffffffffffffffffffffffffffff166370a08231306040518263ffffffff1660e01b81526004016122a09190613c5d565b602060405180830381865afa1580156122bd573d6000803e3d6000fd5b505050506040513d601f19601f820116820180604052508101906122e1919061418c565b6122eb91906148ac565b6122f59190614935565b90506000600367ffffffffffffffff811115612314576123136145d8565b5b6040519080825280602002602001820160405280156123425781602001602082028036833780820191505090505b509050734cdf39285d7ca8eb3f090fda0c069ba5f4145b378160008151811061236e5761236d614607565b5b602002602001019073ffffffffffffffffffffffffffffffffffffffff16908173ffffffffffffffffffffffffffffffffffffffff16815250507321be370d5312f44cb42ce377bc9b8a0cef1a4c83816001815181106123d1576123d0614607565b5b602002602001019073ffffffffffffffffffffffffffffffffffffffff16908173ffffffffffffffffffffffffffffffffffffffff1681525050736c021ae822bea943b2e66552bde1d2696a53fbb78160028151811061243457612433614607565b5b602002602001019073ffffffffffffffffffffffffffffffffffffffff16908173ffffffffffffffffffffffffffffffffffffffff16815250507f000000000000000000000000000000000000000000000000000000000000000073ffffffffffffffffffffffffffffffffffffffff16635c11d7958360008430601e426124bc919061427a565b6040518663ffffffff1660e01b81526004016124dc959493929190614966565b600060405180830381600087803b1580156124f657600080fd5b505af115801561250a573d6000803e3d6000fd5b505050506000734cdf39285d7ca8eb3f090fda0c069ba5f4145b3773ffffffffffffffffffffffffffffffffffffffff166370a08231306040518263ffffffff1660e01b815260040161255d9190613c5d565b602060405180830381865afa15801561257a573d6000803e3d6000fd5b505050506040513d601f19601f8201168201806040525081019061259e919061418c565b90506000600267ffffffffffffffff8111156125bd576125bc6145d8565b5b6040519080825280602002602001820160405280156125eb5781602001602082028036833780820191505090505b509050734cdf39285d7ca8eb3f090fda0c069ba5f4145b378160008151811061261757612616614607565b5b602002602001019073ffffffffffffffffffffffffffffffffffffffff16908173ffffffffffffffffffffffffffffffffffffffff16815250507321be370d5312f44cb42ce377bc9b8a0cef1a4c838160018151811061267a57612679614607565b5b602002602001019073ffffffffffffffffffffffffffffffffffffffff16908173ffffffffffffffffffffffffffffffffffffffff16815250507f000000000000000000000000000000000000000000000000000000000000000073ffffffffffffffffffffffffffffffffffffffff16635c11d7958360008430601e42612702919061427a565b6040518663ffffffff1660e01b8152600401612722959493929190614966565b600060405180830381600087803b15801561273c57600080fd5b505af1158015612750573d6000803e3d6000fd5b5050505060008061275f612e76565b91509150600088836127719190614878565b9050600088836127819190614878565b9050600061278e83612f9d565b9050600061279b83612f9d565b9050736c021ae822bea943b2e66552bde1d2696a53fbb773ffffffffffffffffffffffffffffffffffffffff1663a9059cbb600660009054906101000a900473ffffffffffffffffffffffffffffffffffffffff16846040518363ffffffff1660e01b815260040161280e929190614556565b6020604051808303816000875af115801561282d573d6000803e3d6000fd5b505050506040513d601f19601f8201168201806040525081019061285191906145ab565b507321be370d5312f44cb42ce377bc9b8a0cef1a4c8373ffffffffffffffffffffffffffffffffffffffff1663a9059cbb600660009054906101000a900473ffffffffffffffffffffffffffffffffffffffff16836040518363ffffffff1660e01b81526004016128c3929190614556565b6020604051808303816000875af11580156128e2573d6000803e3d6000fd5b505050506040513d601f19601f8201168201806040525081019061290691906145ab565b50505050505050505050505050565b60003073ffffffffffffffffffffffffffffffffffffffff166370a08231306040518263ffffffff1660e01b81526004016129509190613c5d565b602060405180830381865afa15801561296d573d6000803e3d6000fd5b505050506040513d601f19601f82011682018060405250810190612991919061418c565b9050600082826129a19190614935565b9050600083826129b191906148ac565b90506000732a651563c9d3af67ae0388a5c8f89b867038089e73ffffffffffffffffffffffffffffffffffffffff166370a08231306040518263ffffffff1660e01b8152600401612a029190613c5d565b602060405180830381865afa158015612a1f573d6000803e3d6000fd5b505050506040513d601f19601f82011682018060405250810190612a43919061418c565b905073cc0a87f7e7c693042a9cc703661f5060c80acb4373ffffffffffffffffffffffffffffffffffffffff1663441a3e706000846040518363ffffffff1660e01b8152600401612a95929190614acc565b600060405180830381600087803b158015612aaf57600080fd5b505af1158015612ac3573d6000803e3d6000fd5b505050506000732a651563c9d3af67ae0388a5c8f89b867038089e73ffffffffffffffffffffffffffffffffffffffff166370a08231306040518263ffffffff1660e01b8152600401612b169190613c5d565b602060405180830381865afa158015612b33573d6000803e3d6000fd5b505050506040513d601f19601f82011682018060405250810190612b57919061418c565b905060008282612b679190614878565b9050612b738882612fcc565b5050505050505050565b60008060007f000000000000000000000000000000000000000000000000000000000000000073ffffffffffffffffffffffffffffffffffffffff16635ec88c79306040518263ffffffff1660e01b8152600401612bdb9190613c5d565b606060405180830381865afa158015612bf8573d6000803e3d6000fd5b505050506040513d601f19601f82011682018060405250810190612c1c9190614a79565b909150508093505060007f000000000000000000000000000000000000000000000000000000000000000073ffffffffffffffffffffffffffffffffffffffff166365555bcc6040518163ffffffff1660e01b8152600401612c7d90614d43565b606060405180830381865afa158015612c9a573d6000803e3d6000fd5b505050506040513d601f19601f82011682018060405250810190612cbe9190614ddf565b905080600001519150600082670de0b6b3a764000086612cde91906148ac565b612ce89190614935565b90506064604b82612cf991906148ac565b612d039190614935565b93505050909192565b600073ffffffffffffffffffffffffffffffffffffffff168273ffffffffffffffffffffffffffffffffffffffff161415612d7c576040517f08c379a0000000000000000000000000000000000000000000000000000000008152600401612d7390614e58565b60405180910390fd5b612d8860008383612e6c565b8060026000828254612d9a919061427a565b92505081905550806000808473ffffffffffffffffffffffffffffffffffffffff1673ffffffffffffffffffffffffffffffffffffffff1681526020019081526020016000206000828254612def919061427a565b925050819055508173ffffffffffffffffffffffffffffffffffffffff16600073ffffffffffffffffffffffffffffffffffffffff167fddf252ad1be2c89b69c2b068fc378daa952ba7f163c4a11628f55a4df523b3ef83604051612e549190613e2e565b60405180910390a3612e6860008383612e71565b5050565b505050565b505050565b600080736c021ae822bea943b2e66552bde1d2696a53fbb773ffffffffffffffffffffffffffffffffffffffff166370a08231306040518263ffffffff1660e01b8152600401612ec69190613c5d565b602060405180830381865afa158015612ee3573d6000803e3d6000fd5b505050506040513d601f19601f82011682018060405250810190612f07919061418c565b91507321be370d5312f44cb42ce377bc9b8a0cef1a4c8373ffffffffffffffffffffffffffffffffffffffff166370a08231306040518263ffffffff1660e01b8152600401612f569190613c5d565b602060405180830381865afa158015612f73573d6000803e3d6000fd5b505050506040513d601f19601f82011682018060405250810190612f97919061418c565b90509091565b600060646127106064612fb09190614935565b83612fbb91906148ac565b612fc591906148ac565b9050919050565b732a651563c9d3af67ae0388a5c8f89b867038089e73ffffffffffffffffffffffffffffffffffffffff1663095ea7b373f491e7b69e4244ad4002bc14e878a34207e38c29836040518363ffffffff1660e01b815260040161302f929190614556565b6020604051808303816000875af115801561304e573d6000803e3d6000fd5b505050506040513d601f19601f8201168201806040525081019061307291906145ab565b5060008073f491e7b69e4244ad4002bc14e878a34207e38c2973ffffffffffffffffffffffffffffffffffffffff1663baa2abde7321be370d5312f44cb42ce377bc9b8a0cef1a4c83736c021ae822bea943b2e66552bde1d2696a53fbb78660018030601e426130e2919061427a565b6040518863ffffffff1660e01b81526004016131049796959493929190614e78565b60408051808303816000875af1158015613122573d6000803e3d6000fd5b505050506040513d601f19601f820116820180604052508101906131469190614ee7565b915091506131543084613165565b61315f84838361333c565b50505050565b600073ffffffffffffffffffffffffffffffffffffffff168273ffffffffffffffffffffffffffffffffffffffff1614156131d5576040517f08c379a00000000000000000000000000000000000000000000000000000000081526004016131cc90614f99565b60405180910390fd5b6131e182600083612e6c565b60008060008473ffffffffffffffffffffffffffffffffffffffff1673ffffffffffffffffffffffffffffffffffffffff16815260200190815260200160002054905081811015613267576040517f08c379a000000000000000000000000000000000000000000000000000000000815260040161325e9061502b565b60405180910390fd5b8181036000808573ffffffffffffffffffffffffffffffffffffffff1673ffffffffffffffffffffffffffffffffffffffff1681526020019081526020016000208190555081600260008282546132be9190614878565b92505081905550600073ffffffffffffffffffffffffffffffffffffffff168373ffffffffffffffffffffffffffffffffffffffff167fddf252ad1be2c89b69c2b068fc378daa952ba7f163c4a11628f55a4df523b3ef846040516133239190613e2e565b60405180910390a361333783600084612e71565b505050565b736c021ae822bea943b2e66552bde1d2696a53fbb773ffffffffffffffffffffffffffffffffffffffff1663095ea7b373f491e7b69e4244ad4002bc14e878a34207e38c29836040518363ffffffff1660e01b815260040161339f929190614556565b6020604051808303816000875af11580156133be573d6000803e3d6000fd5b505050506040513d601f19601f820116820180604052508101906133e291906145ab565b506000600267ffffffffffffffff811115613400576133ff6145d8565b5b60405190808252806020026020018201604052801561342e5781602001602082028036833780820191505090505b509050736c021ae822bea943b2e66552bde1d2696a53fbb78160008151811061345a57613459614607565b5b602002602001019073ffffffffffffffffffffffffffffffffffffffff16908173ffffffffffffffffffffffffffffffffffffffff16815250507321be370d5312f44cb42ce377bc9b8a0cef1a4c83816001815181106134bd576134bc614607565b5b602002602001019073ffffffffffffffffffffffffffffffffffffffff16908173ffffffffffffffffffffffffffffffffffffffff168152505060007f000000000000000000000000000000000000000000000000000000000000000073ffffffffffffffffffffffffffffffffffffffff166338ed17398460008530601e42613547919061427a565b6040518663ffffffff1660e01b8152600401613567959493929190614966565b6000604051808303816000875af1158015613586573d6000803e3d6000fd5b505050506040513d6000823e3d601f19601f820116820180604052508101906135af919061482f565b905060007f000000000000000000000000000000000000000000000000000000000000000073ffffffffffffffffffffffffffffffffffffffff166365555bcc6040518163ffffffff1660e01b815260040161360a90614d43565b606060405180830381865afa158015613627573d6000803e3d6000fd5b505050506040513d601f19601f8201168201806040525081019061364b9190614ddf565b905060008260008151811061366357613662614607565b5b602002602001015186613676919061427a565b90506000620f4240670de0b6b3a764000084600001516136969190614935565b670de0b6b3a7640000846136aa9190614935565b6136b491906148ac565b6136be91906148ac565b90506000600760008a73ffffffffffffffffffffffffffffffffffffffff1673ffffffffffffffffffffffffffffffffffffffff168152602001908152602001600020548261370d919061427a565b90507321be370d5312f44cb42ce377bc9b8a0cef1a4c8373ffffffffffffffffffffffffffffffffffffffff1663095ea7b37f0000000000000000000000000000000000000000000000000000000000000000856040518363ffffffff1660e01b815260040161377e929190614556565b6020604051808303816000875af115801561379d573d6000803e3d6000fd5b505050506040513d601f19601f820116820180604052508101906137c191906145ab565b507f000000000000000000000000000000000000000000000000000000000000000073ffffffffffffffffffffffffffffffffffffffff16630e752702846040518263ffffffff1660e01b815260040161381b9190613e2e565b6020604051808303816000875af115801561383a573d6000803e3d6000fd5b505050506040513d601f19601f8201168201806040525081019061385e919061418c565b5060007304068da6c83afcfa0e13ba15a6696662335d5b7573ffffffffffffffffffffffffffffffffffffffff166370a08231306040518263ffffffff1660e01b81526004016138ae9190613c5d565b602060405180830381865afa1580156138cb573d6000803e3d6000fd5b505050506040513d601f19601f820116820180604052508101906138ef919061418c565b905073328a7b4d538a2b3942653a9983fda3c12c57114173ffffffffffffffffffffffffffffffffffffffff1663852a12e3836040518263ffffffff1660e01b815260040161393e9190613e2e565b6020604051808303816000875af115801561395d573d6000803e3d6000fd5b505050506040513d601f19601f82011682018060405250810190613981919061418c565b5060007304068da6c83afcfa0e13ba15a6696662335d5b7573ffffffffffffffffffffffffffffffffffffffff166370a08231306040518263ffffffff1660e01b81526004016139d19190613c5d565b602060405180830381865afa1580156139ee573d6000803e3d6000fd5b505050506040513d601f19601f82011682018060405250810190613a12919061418c565b905060008282613a229190614878565b90506000600760008e73ffffffffffffffffffffffffffffffffffffffff1673ffffffffffffffffffffffffffffffffffffffff16815260200190815260200160002054851115613ab457600760008e73ffffffffffffffffffffffffffffffffffffffff1673ffffffffffffffffffffffffffffffffffffffff168152602001908152602001600020549050613b02565b84600760008f73ffffffffffffffffffffffffffffffffffffffff1673ffffffffffffffffffffffffffffffffffffffff16815260200190815260200160002054613aff9190614878565b90505b80600760008f73ffffffffffffffffffffffffffffffffffffffff1673ffffffffffffffffffffffffffffffffffffffff1681526020019081526020016000206000828254613b519190614878565b925050819055507304068da6c83afcfa0e13ba15a6696662335d5b7573ffffffffffffffffffffffffffffffffffffffff1663a9059cbb600660009054906101000a900473ffffffffffffffffffffffffffffffffffffffff16846040518363ffffffff1660e01b8152600401613bc9929190614556565b6020604051808303816000875af1158015613be8573d6000803e3d6000fd5b505050506040513d601f19601f82011682018060405250810190613c0c91906145ab565b5050505050505050505050505050565b600073ffffffffffffffffffffffffffffffffffffffff82169050919050565b6000613c4782613c1c565b9050919050565b613c5781613c3c565b82525050565b6000602082019050613c726000830184613c4e565b92915050565b600081519050919050565b600082825260208201905092915050565b60005b83811015613cb2578082015181840152602081019050613c97565b83811115613cc1576000848401525b50505050565b6000601f19601f8301169050919050565b6000613ce382613c78565b613ced8185613c83565b9350613cfd818560208601613c94565b613d0681613cc7565b840191505092915050565b60006020820190508181036000830152613d2b8184613cd8565b905092915050565b6000604051905090565b600080fd5b600080fd5b613d5081613c3c565b8114613d5b57600080fd5b50565b600081359050613d6d81613d47565b92915050565b6000819050919050565b613d8681613d73565b8114613d9157600080fd5b50565b600081359050613da381613d7d565b92915050565b60008060408385031215613dc057613dbf613d3d565b5b6000613dce85828601613d5e565b9250506020613ddf85828601613d94565b9150509250929050565b60008115159050919050565b613dfe81613de9565b82525050565b6000602082019050613e196000830184613df5565b92915050565b613e2881613d73565b82525050565b6000602082019050613e436000830184613e1f565b92915050565b6000819050919050565b6000613e6e613e69613e6484613c1c565b613e49565b613c1c565b9050919050565b6000613e8082613e53565b9050919050565b6000613e9282613e75565b9050919050565b613ea281613e87565b82525050565b6000602082019050613ebd6000830184613e99565b92915050565b600080600060608486031215613edc57613edb613d3d565b5b6000613eea86828701613d5e565b9350506020613efb86828701613d5e565b9250506040613f0c86828701613d94565b9150509250925092565b6000613f2182613e75565b9050919050565b613f3181613f16565b82525050565b6000602082019050613f4c6000830184613f28565b92915050565b600060ff82169050919050565b613f6881613f52565b82525050565b6000602082019050613f836000830184613f5f565b92915050565b6000613f9482613e75565b9050919050565b613fa481613f89565b82525050565b6000602082019050613fbf6000830184613f9b565b92915050565b6000613fd082613e75565b9050919050565b613fe081613fc5565b82525050565b6000602082019050613ffb6000830184613fd7565b92915050565b60006020828403121561401757614016613d3d565b5b600061402584828501613d5e565b91505092915050565b600061403982613e75565b9050919050565b6140498161402e565b82525050565b60006020820190506140646000830184614040565b92915050565b6000806040838503121561408157614080613d3d565b5b600061408f85828601613d5e565b92505060206140a085828601613d5e565b9150509250929050565b7f4e487b7100000000000000000000000000000000000000000000000000000000600052602260045260246000fd5b600060028204905060018216806140f157607f821691505b60208210811415614105576141046140aa565b5b50919050565b7f217661756c740000000000000000000000000000000000000000000000000000600082015250565b6000614141600683613c83565b915061414c8261410b565b602082019050919050565b6000602082019050818103600083015261417081614134565b9050919050565b60008151905061418681613d7d565b92915050565b6000602082840312156141a2576141a1613d3d565b5b60006141b084828501614177565b91505092915050565b7f45524332303a207472616e7366657220616d6f756e742065786365656473206160008201527f6c6c6f77616e6365000000000000000000000000000000000000000000000000602082015250565b6000614215602883613c83565b9150614220826141b9565b604082019050919050565b6000602082019050818103600083015261424481614208565b9050919050565b7f4e487b7100000000000000000000000000000000000000000000000000000000600052601160045260246000fd5b600061428582613d73565b915061429083613d73565b9250827fffffffffffffffffffffffffffffffffffffffffffffffffffffffffffffffff038211156142c5576142c461424b565b5b828201905092915050565b7f7661756c74000000000000000000000000000000000000000000000000000000600082015250565b6000614306600583613c83565b9150614311826142d0565b602082019050919050565b60006020820190508181036000830152614335816142f9565b9050919050565b6000819050919050565b600061436161435c6143578461433c565b613e49565b613d73565b9050919050565b61437181614346565b82525050565b600060408201905061438c6000830185614368565b6143996020830184614368565b9392505050565b7f45524332303a2064656372656173656420616c6c6f77616e63652062656c6f7760008201527f207a65726f000000000000000000000000000000000000000000000000000000602082015250565b60006143fc602583613c83565b9150614407826143a0565b604082019050919050565b6000602082019050818103600083015261442b816143ef565b9050919050565b7f45524332303a20617070726f76652066726f6d20746865207a65726f2061646460008201527f7265737300000000000000000000000000000000000000000000000000000000602082015250565b600061448e602483613c83565b915061449982614432565b604082019050919050565b600060208201905081810360008301526144bd81614481565b9050919050565b7f45524332303a20617070726f766520746f20746865207a65726f20616464726560008201527f7373000000000000000000000000000000000000000000000000000000000000602082015250565b6000614520602283613c83565b915061452b826144c4565b604082019050919050565b6000602082019050818103600083015261454f81614513565b9050919050565b600060408201905061456b6000830185613c4e565b6145786020830184613e1f565b9392505050565b61458881613de9565b811461459357600080fd5b50565b6000815190506145a58161457f565b92915050565b6000602082840312156145c1576145c0613d3d565b5b60006145cf84828501614596565b91505092915050565b7f4e487b7100000000000000000000000000000000000000000000000000000000600052604160045260246000fd5b7f4e487b7100000000000000000000000000000000000000000000000000000000600052603260045260246000fd5b600081519050919050565b600082825260208201905092915050565b6000819050602082019050919050565b61466b81613c3c565b82525050565b600061467d8383614662565b60208301905092915050565b6000602082019050919050565b60006146a182614636565b6146ab8185614641565b93506146b683614652565b8060005b838110156146e75781516146ce8882614671565b97506146d983614689565b9250506001810190506146ba565b5085935050505092915050565b6000602082019050818103600083015261470e8184614696565b905092915050565b600080fd5b61472482613cc7565b810181811067ffffffffffffffff82111715614743576147426145d8565b5b80604052505050565b6000614756613d33565b9050614762828261471b565b919050565b600067ffffffffffffffff821115614782576147816145d8565b5b602082029050602081019050919050565b600080fd5b60006147ab6147a684614767565b61474c565b905080838252602082019050602084028301858111156147ce576147cd614793565b5b835b818110156147f757806147e38882614177565b8452602084019350506020810190506147d0565b5050509392505050565b600082601f83011261481657614815614716565b5b8151614826848260208601614798565b91505092915050565b60006020828403121561484557614844613d3d565b5b600082015167ffffffffffffffff81111561486357614862613d42565b5b61486f84828501614801565b91505092915050565b600061488382613d73565b915061488e83613d73565b9250828210156148a1576148a061424b565b5b828203905092915050565b60006148b782613d73565b91506148c283613d73565b9250817fffffffffffffffffffffffffffffffffffffffffffffffffffffffffffffffff04831182151516156148fb576148fa61424b565b5b828202905092915050565b7f4e487b7100000000000000000000000000000000000000000000000000000000600052601260045260246000fd5b600061494082613d73565b915061494b83613d73565b92508261495b5761495a614906565b5b828204905092915050565b600060a08201905061497b6000830188613e1f565b6149886020830187614368565b818103604083015261499a8186614696565b90506149a96060830185613c4e565b6149b66080830184613e1f565b9695505050505050565b6000819050919050565b60006149e56149e06149db846149c0565b613e49565b613d73565b9050919050565b6149f5816149ca565b82525050565b600061010082019050614a11600083018b613c4e565b614a1e602083018a613c4e565b614a2b6040830189613e1f565b614a386060830188613e1f565b614a4560808301876149ec565b614a5260a08301866149ec565b614a5f60c0830185613c4e565b614a6c60e0830184613e1f565b9998505050505050505050565b600080600060608486031215614a9257614a91613d3d565b5b6000614aa086828701614177565b9350506020614ab186828701614177565b9250506040614ac286828701614177565b9150509250925092565b6000604082019050614ae16000830185614368565b614aee6020830184613e1f565b9392505050565b7f45524332303a207472616e736665722066726f6d20746865207a65726f20616460008201527f6472657373000000000000000000000000000000000000000000000000000000602082015250565b6000614b51602583613c83565b9150614b5c82614af5565b604082019050919050565b60006020820190508181036000830152614b8081614b44565b9050919050565b7f45524332303a207472616e7366657220746f20746865207a65726f206164647260008201527f6573730000000000000000000000000000000000000000000000000000000000602082015250565b6000614be3602383613c83565b9150614bee82614b87565b604082019050919050565b60006020820190508181036000830152614c1281614bd6565b9050919050565b7f45524332303a207472616e7366657220616d6f756e742065786365656473206260008201527f616c616e63650000000000000000000000000000000000000000000000000000602082015250565b6000614c75602683613c83565b9150614c8082614c19565b604082019050919050565b60006020820190508181036000830152614ca481614c68565b9050919050565b7f46544d0000000000000000000000000000000000000000000000000000000000600082015250565b6000614ce1600383613c83565b9150614cec82614cab565b602082019050919050565b7f5553444300000000000000000000000000000000000000000000000000000000600082015250565b6000614d2d600483613c83565b9150614d3882614cf7565b602082019050919050565b60006040820190508181036000830152614d5c81614cd4565b90508181036020830152614d6f81614d20565b9050919050565b600080fd5b600060608284031215614d9157614d90614d76565b5b614d9b606061474c565b90506000614dab84828501614177565b6000830152506020614dbf84828501614177565b6020830152506040614dd384828501614177565b60408301525092915050565b600060608284031215614df557614df4613d3d565b5b6000614e0384828501614d7b565b91505092915050565b7f45524332303a206d696e7420746f20746865207a65726f206164647265737300600082015250565b6000614e42601f83613c83565b9150614e4d82614e0c565b602082019050919050565b60006020820190508181036000830152614e7181614e35565b9050919050565b600060e082019050614e8d600083018a613c4e565b614e9a6020830189613c4e565b614ea76040830188613e1f565b614eb460608301876149ec565b614ec160808301866149ec565b614ece60a0830185613c4e565b614edb60c0830184613e1f565b98975050505050505050565b60008060408385031215614efe57614efd613d3d565b5b6000614f0c85828601614177565b9250506020614f1d85828601614177565b9150509250929050565b7f45524332303a206275726e2066726f6d20746865207a65726f2061646472657360008201527f7300000000000000000000000000000000000000000000000000000000000000602082015250565b6000614f83602183613c83565b9150614f8e82614f27565b604082019050919050565b60006020820190508181036000830152614fb281614f76565b9050919050565b7f45524332303a206275726e20616d6f756e7420657863656564732062616c616e60008201527f6365000000000000000000000000000000000000000000000000000000000000602082015250565b6000615015602283613c83565b915061502082614fb9565b604082019050919050565b6000602082019050818103600083015261504481615008565b905091905056fea2646970667358221220a948e10fbc10e42c971caab14ab2f425c1191df15610209f5056f54ae3df6d1464736f6c634300080a0033",
  "immutableReferences": {
    "2047": [
      {
        "length": 32,
        "start": 3541
      },
      {
        "length": 32,
        "start": 9328
      },
      {
        "length": 32,
        "start": 9910
      },
      {
        "length": 32,
        "start": 13563
      }
    ],
    "2050": [
      {
        "length": 32,
        "start": 3385
      },
      {
        "length": 32,
        "start": 5520
      },
      {
        "length": 32,
        "start": 11140
      }
    ],
    "2053": [
      {
        "length": 32,
        "start": 2806
      },
      {
        "length": 32,
        "start": 11304
      },
      {
        "length": 32,
        "start": 13749
      }
    ],
    "2056": [
      {
        "length": 32,
        "start": 2349
      },
      {
        "length": 32,
        "start": 5701
      },
      {
        "length": 32,
        "start": 14145
      },
      {
        "length": 32,
        "start": 14276
      }
    ]
  },
  "source": "pragma solidity ^0.8.10; \npragma abicoder v2;  \n\nimport \"../DjinnBottleUSDC.sol\"; \nimport \"../interfaces/CTokenInterfaces.sol\"; \nimport \"../interfaces/ComptrollerInterface.sol\";  \nimport \"../interfaces/IStdReference.sol\"; \nimport \"@uniswap/v2-periphery/contracts/interfaces/IUniswapV2Router02.sol\"; \nimport \"../interfaces/IMasterChef.sol\"; \nimport \"@openzeppelin/contracts/token/ERC20/IERC20.sol\"; \n\n\ncontract ShortFarmFTM is ERC20 {\n\t\n\t//Contract Specifics \n\taddress public creator; \n\tuint private constant CREATOR_FEE = 100; //1% \n\tDjinnBottleUSDC public VAULT; \n\n\tmapping(address => uint) public depositBalance; \n\n\t//Cream Finance Contracts \n\taddress public constant crUSDC = 0x328A7b4d538A2b3942653a9983fdA3C12c571141; \n\n\t//Public Tokens\n\taddress public constant USDC = 0x04068DA6C83AFCFA0e13ba15A6696662335D5B75; \n\taddress public constant WFTM = 0x21be370D5312f44cB42ce377BC9b8a0cEF1A4C83; \n\taddress public constant TOMB = 0x6c021Ae822BEa943b2E66552bDe1D2696a53fbB7; \n\taddress public constant TSHARE = 0x4cdF39285D7Ca8eB3f090fDA0C069ba5F4145B37; \n\t\n\t//SpookySwap Router, LP, TSHAREPool \n\taddress public constant spookyAddress = 0xF491e7B69E4244ad4002BC14e878a34207E38c29;\t\t\n\taddress public constant spookyFtmTombLP = 0x2A651563C9d3Af67aE0388a5c8F89b867038089e; \n\taddress public constant tShareRewardPool = 0xcc0a87F7e7c693042a9Cc703661F5060c80ACb43; \n\n\n\t//Contract Interfaces  \n\tIUniswapV2Router02 public immutable spookyRouter; \n\tComptrollerInterface public immutable comptroller; \n\tIStdReference public immutable priceOracle;\n\tCERC20 public immutable crWFTM; \t\n\t\n\n\n\tconstructor(DjinnBottleUSDC _djBottle, \t\n\t\t\t\tIUniswapV2Router02 _spookyRouter, \n\t\t\t\tComptrollerInterface _comptroller, \n\t\t\t\tIStdReference _priceOracle,\n\t\t\t\tCERC20 _cERC20) ERC20(\"Djinn Finance FTM Short Farm\", \"dfFTMShort\") {\n\t\t\t\t\taddress creator = msg.sender;\n\t\t\t\t\tVAULT = _djBottle; \n\t\t\t\t\tspookyRouter = _spookyRouter; \n\t\t\t\t\tcomptroller = _comptroller;  \n\t\t\t\t\tpriceOracle = _priceOracle; \n\t\t\t\t\tcrWFTM = _cERC20; \n\t\t\t\t}\n\t\n\t//automate opening a position\n\t//designed for single user ie. user opens via vault contract \t\n\tfunction open(address user, uint amount) external {\n\t\trequire(msg.sender == address(VAULT), \"!vault\"); \n\t\tborrow(user, amount); //same amount in USDC to keep track of how many tokens we have supplied \n\t\tswap(); //swap half of bal to TOMB and unwrap the rest to FTM \n\t\tgetLPTokens(); //get FTM-TOMB LP tokens \t\n\t\tdepositLPGetTShare(); //deposit LP tokens on TOMB to earn TSHARE\n\t}\n\n\t//automate the harvest \n\tfunction harvest() external {\n\t\trequire(msg.sender == address(VAULT), \"vault\"); \n\t\tIMasterChef(tShareRewardPool).deposit(0, 0); //0 is poolId and we call a deposit of 0 to allocate the shares to this contract\n\t\tsellAndSwap(); //sell tshare for 50% TOMB 50% WFTM \n\t\tgetLPTokens(); \n\t\tdepositLPGetTShare(); \n\t}\n\t\n\t//automate the closing of the position\n\t//designed for single use ie. user closes via vault contract \t\n\t//so we need to vault contract to determine how many tokens belong to the user from this contract \n\tfunction close(address user, uint amountShares) external {\n\t\trequire(msg.sender == address(VAULT), \"!vault\"); \n\t\t//swap all LP tokens back to underlying \n\t\tswapAndWithdraw(user, amountShares);   \n\t}\n\t\n\t//next we borrow WTFM from cream <= 75% so we don't get liquidated\n\t//cream allows for 75% collateral on deposits of USDC, but this 75% is on the 75% \n\t//so we are effectively borrowing ~55% of our deposit amount, which leaves room to the upside  \t\t\n\tfunction borrow(address user, uint amount) internal {\t\n\t\tuint underlyingBefore = getUnderlying(); \n\n\t\t//first we supply USDC\n\t\tIERC20(USDC).approve(crUSDC, amount);  \n\t\tCERC20(crUSDC).mint(amount); \n\t\t\n\t\t//we enter the marker to use usdc as collateral \t\n\t\taddress[] memory cTokenSupplied = new address[](1); \n\t\tcTokenSupplied[0] = crUSDC; //cToken address\n\t\tcomptroller.enterMarkets(cTokenSupplied); \n\t\t\n\t\t//get max borrow && borrow  \n\t\t(uint liquidity, uint borrowAmount, uint price) = getBorrowAmount();\n\t\tcrWFTM.borrow(borrowAmount);  \n\n\t\t//check how much was deposited by the user\n\t\tuint underlyingAfter = getUnderlying();  \n\t\tuint depositAmount = underlyingAfter - underlyingBefore; //1e6 \n\n\t\t//I'm sorry you have to look at this monstrosity \n\t\t//this stores what percentage of the deposit was not used to swap for LP tokens to return on withdrawl  \n\t\tuint depositRemaining = (depositAmount - ((borrowAmount * price) / 1e36) * 1e6); \n\t\tdepositBalance[user] += depositRemaining; \n\t}\n\n\tfunction getBorrowAmount() internal view returns(uint liquidity, uint borrowAmount, uint price) {\n\t\t(, liquidity,) = comptroller.getAccountLiquidity(address(this)); \n\t\tIStdReference.ReferenceData memory data = priceOracle.getReferenceData(\"FTM\", \"USDC\"); \n\t\tprice = data.rate; \n\t\tuint maxTokenBorrow = (liquidity * 10**18) / price; //wFTM has 18 decimals   \t\n\t\tborrowAmount = (maxTokenBorrow * 75) / 100; \n\t\treturn (liquidity, borrowAmount, price); \n\t}\n\n\t//where amount is the percentage of LP tokens relative to the callers % ownership of the vault \n\tfunction swapAndWithdraw(address user, uint amountShares) internal {\n\t\tuint strategyBalance = IERC20(address(this)).balanceOf(address(this)); \n\t\tuint sharePerLPToken = strategyBalance / amountShares; //both are scaled by 1e18 already I think  \n\t\tuint percentLP = sharePerLPToken * amountShares; \n\n\t\t//we first withdraw the LP tokens from TOMB  \n\t\t//we have to check the balances before and after the withdrawl in case there are leftovers \n\t\tuint amountBefore = IERC20(spookyFtmTombLP).balanceOf(address(this)); \n\t\tIMasterChef(tShareRewardPool).withdraw(0, percentLP);  \n\t\tuint amountAfter = IERC20(spookyFtmTombLP).balanceOf(address(this)); \n\t\tuint lpTokenAmount = amountAfter - amountBefore; \n\t\t\n\t\tremoveLiq(user, lpTokenAmount); \n\t}\n\n\tfunction getbal() external view returns(uint) {\n\t\treturn IERC20(spookyFtmTombLP).balanceOf(address(this)); \n\t}\n\n\tfunction removeLiq(address user, uint lpTokenAmount) internal {\t\t \n\t\t//we remove liquidity belonging to the user(amount) back for tomb + wftm \n\t\tIERC20(spookyFtmTombLP).approve(spookyAddress, lpTokenAmount); \n\t\t(uint amountWftm, uint amountTomb) = IUniswapV2Router02(spookyAddress).removeLiquidity(\n\t\t\tWFTM,\n\t\t\tTOMB, \n\t\t\tlpTokenAmount,\n\t\t   \t1,\n\t\t   \t1,\n\t\t   \taddress(this),\n\t\t   \tblock.timestamp + 30\n\t\t); \n\n\t\t_burn(address(this), lpTokenAmount); \n\t\t//next step\t\n\t\tswapBack(user, amountWftm, amountTomb); \n\t}\n\n\tfunction getUnderlying() public returns(uint) {\n\t\treturn CERC20(crUSDC).balanceOfUnderlying(address(this)); //this returns the underlying USDC amount in 6 decimals \n\t}\n\t\n\tfunction swapBack(address user, uint amountWftm, uint amountTomb) internal {\n\t\t//now we swap tomb back for wftm\n\t\t//only need to approve TOMB because wftm is not being swapped \n\t\tIERC20(TOMB).approve(spookyAddress, amountTomb); \n\t\taddress[] memory path = new address[](2); \n\t\tpath[0] = TOMB; \n\t\tpath[1] = WFTM; \n\t\tuint[] memory amounts = spookyRouter.swapExactTokensForTokens(\n\t\t\tamountTomb,\n\t\t\t0,\n\t\t\tpath,\n\t\t\taddress(this),\n\t\t\tblock.timestamp + 30\n\t\t);\n\t\n\t\tIStdReference.ReferenceData memory data = priceOracle.getReferenceData(\"FTM\", \"USDC\"); \t\t\n\t\tuint amountToRepay = amountWftm + amounts[0]; //amount from removing liq + amount from swap  \n\t\tuint dollarAmount = (amountToRepay / 1e18) * (data.rate / 1e18) * 1e6; //token price in USDC for amount of wftm   \n\t\tuint redeemAmount = dollarAmount + depositBalance[user]; //initial deposit + any profits from swapping back \n \n\t\t//now we can repay our users borrow\n\t   \t//need to convert wftm token amount to dollar amount \n\t\tIERC20(WFTM).approve(address(crWFTM), amountToRepay); //this is wftm token amount  \n\t\tcrWFTM.repayBorrow(amountToRepay); \n\t\t\n\t\t//creamUSDC balance redeem \n\t\tuint beforeBalance = IERC20(USDC).balanceOf(address(this)); \n\t\tCERC20(crUSDC).redeemUnderlying(redeemAmount); \n\t\t\n\t\t//get usdc balance after redeem \n\t\tuint afterBalance = IERC20(USDC).balanceOf(address(this));\n\t\tuint sendAmount\t= afterBalance - beforeBalance; //check for difference to send correct amount \n\t\n\t\t//update deposit mapping\t\n\t\tuint subtractAmount; \n\t\tif (redeemAmount > depositBalance[user]) {\n\t\t\tsubtractAmount = depositBalance[user]; //if they are redeeming their whole position    \n\t\t} else {\n\t\t\tsubtractAmount = depositBalance[user] - redeemAmount; \n\t\t}\n\t\tdepositBalance[user] -= subtractAmount;  \n\t\n\t\tIERC20(USDC).transfer(address(VAULT), sendAmount);  \n\t}\n\n\t//then we send the funds to spookyswap where we sell 50% to tomb and then unwrap the rest \n\tfunction swap() internal { \n\t\t//swap 50% to TOMB & approve \n\t\tuint half = IERC20(WFTM).balanceOf(address(this)) * 50 / 100; \n\t\tIERC20(WFTM).approve(spookyAddress, half);\n\t\n \n         address[] memory path = new address[](2);\n         path[0] = WFTM;\n         path[1] = TOMB;\n         IUniswapV2Router02(spookyAddress).swapExactTokensForTokens(\n             half,\n             0,\n             path,\n             address(this),\n             block.timestamp\n\t\t ); \n\t }\n\n\tfunction sellAndSwap() internal {\n\t\t(uint tombBefore, uint wftmBefore) = getIERC20Balance(); \n\n\t\tuint half = IERC20(TSHARE).balanceOf(address(this)) * 50 / 100;   \n\t\taddress[] memory pathToTomb = new address[](3); \n\t\tpathToTomb[0] = TSHARE;  \n\t\tpathToTomb[1] = WFTM; \n\t\tpathToTomb[2] = TOMB; \n\t\tspookyRouter.swapExactTokensForTokensSupportingFeeOnTransferTokens(\n\t\t\thalf,\n\t\t\t0,\n\t\t\tpathToTomb,\n\t\t\taddress(this),\n\t\t\tblock.timestamp + 30\n\t\t); \n\n\t\t//swap rest to WFTM \n\t\tuint rest = IERC20(TSHARE).balanceOf(address(this)); \n\t\taddress[] memory pathToWftm = new address[](2); \n\t\tpathToWftm[0] = TSHARE; \n\t\tpathToWftm[1] = WFTM; \n\t\tspookyRouter.swapExactTokensForTokensSupportingFeeOnTransferTokens(\n\t\t\trest,\n\t\t\t0,\n\t\t\tpathToWftm,\n\t\t\taddress(this),\n\t\t\tblock.timestamp + 30\n\t\t); \n\t\t\n\t\t(uint tombAfter, uint wftmAfter) = getIERC20Balance(); \t\n\t\tuint tombToSend = tombAfter - tombBefore; \n\t\tuint wftmToSend = wftmAfter - wftmBefore; \n\t\t\n\t\t//charge the fees here\n\t\tuint feeAmountTomb = chargeFeesOnHarvest(tombToSend); \t\n\t\tuint feeAmountWftm = chargeFeesOnHarvest(wftmToSend);\n\t\tIERC20(TOMB).transfer(address(VAULT), feeAmountTomb); \n\t\tIERC20(WFTM).transfer(address(VAULT), feeAmountWftm); \t\n\t}\n\n\tfunction getLPTokens() internal {\n\t\t//we need to approve the router to spend our TOMB\n\t\tuint tombAmount = IERC20(TOMB).balanceOf(address(this)); \n\t\tuint ftmAmount = IERC20(WFTM).balanceOf(address(this));  \n\n\t\t//now we add liquidity \n\t\t//@params token, tokenAmount, minToken, minETH, to, deadline\n\t\tIERC20(TOMB).approve(spookyAddress, tombAmount); \n\t\tIERC20(WFTM).approve(spookyAddress, ftmAmount); \n\t\tIUniswapV2Router02(spookyAddress).addLiquidity(TOMB, WFTM, tombAmount, ftmAmount, 1, 1, address(this), block.timestamp + 30); \n\t}\n\n\tfunction depositLPGetTShare() internal {\n\t\t//deposit into tshare vault using _pid but idk how to get that currently \t\n\t\tuint lpTokenBalance = IERC20(spookyFtmTombLP).balanceOf(address(this)); \n\n\t\t_mint(address(this), lpTokenBalance); \n\n\t\t//after this deposit the contract should be earning tshares as a reward \n\t\tIERC20(spookyFtmTombLP).approve(tShareRewardPool, lpTokenBalance); \n\t\tIMasterChef(tShareRewardPool).deposit(0, lpTokenBalance); //FTM-TOMB pool ID is 0 on Tomb.finance  \n\t}\n\n\tfunction chargeFeesOnHarvest(uint amount) internal view returns(uint feeAmount) {\n\t\treturn feeAmount = amount * (CREATOR_FEE / 10000) * 100; //0.1 or 1% \n\t}\n\n\tfunction getIERC20Balance() internal view returns(uint amountTomb, uint amountWftm) {\n\t\tamountTomb = IERC20(TOMB).balanceOf(address(this)); \n\t\tamountWftm = IERC20(WFTM).balanceOf(address(this)); \n\t\treturn (amountTomb, amountWftm); \n\t}\n\n\treceive() external payable{} \n\t\n} \n",
  "sourcePath": "/home/kevin/Code/solidity_projects/djinnFinance/contracts/strategies/ShortFarmFTM.sol",
  "compiler": {
    "name": "solc",
    "version": "0.8.10+commit.fc410830.Emscripten.clang"
  },
  "schemaVersion": "3.4.3",
  "updatedAt": "2022-02-02T00:59:44.938Z",
  "networkType": "ethereum",
  "devdoc": {
    "kind": "dev",
    "methods": {
      "allowance(address,address)": {
        "details": "See {IERC20-allowance}."
      },
      "approve(address,uint256)": {
        "details": "See {IERC20-approve}. Requirements: - `spender` cannot be the zero address."
      },
      "balanceOf(address)": {
        "details": "See {IERC20-balanceOf}."
      },
      "decimals()": {
        "details": "Returns the number of decimals used to get its user representation. For example, if `decimals` equals `2`, a balance of `505` tokens should be displayed to a user as `5.05` (`505 / 10 ** 2`). Tokens usually opt for a value of 18, imitating the relationship between Ether and Wei. This is the value {ERC20} uses, unless this function is overridden; NOTE: This information is only used for _display_ purposes: it in no way affects any of the arithmetic of the contract, including {IERC20-balanceOf} and {IERC20-transfer}."
      },
      "decreaseAllowance(address,uint256)": {
        "details": "Atomically decreases the allowance granted to `spender` by the caller. This is an alternative to {approve} that can be used as a mitigation for problems described in {IERC20-approve}. Emits an {Approval} event indicating the updated allowance. Requirements: - `spender` cannot be the zero address. - `spender` must have allowance for the caller of at least `subtractedValue`."
      },
      "increaseAllowance(address,uint256)": {
        "details": "Atomically increases the allowance granted to `spender` by the caller. This is an alternative to {approve} that can be used as a mitigation for problems described in {IERC20-approve}. Emits an {Approval} event indicating the updated allowance. Requirements: - `spender` cannot be the zero address."
      },
      "name()": {
        "details": "Returns the name of the token."
      },
      "symbol()": {
        "details": "Returns the symbol of the token, usually a shorter version of the name."
      },
      "totalSupply()": {
        "details": "See {IERC20-totalSupply}."
      },
      "transfer(address,uint256)": {
        "details": "See {IERC20-transfer}. Requirements: - `recipient` cannot be the zero address. - the caller must have a balance of at least `amount`."
      },
      "transferFrom(address,address,uint256)": {
        "details": "See {IERC20-transferFrom}. Emits an {Approval} event indicating the updated allowance. This is not required by the EIP. See the note at the beginning of {ERC20}. Requirements: - `sender` and `recipient` cannot be the zero address. - `sender` must have a balance of at least `amount`. - the caller must have allowance for ``sender``'s tokens of at least `amount`."
      }
    },
    "version": 1
  },
  "userdoc": {
    "kind": "user",
    "methods": {},
    "version": 1
  }
}