{
  "contractName": "ShortFarmFTM",
  "abi": [
    {
      "inputs": [
        {
          "internalType": "contract DjinnBottleUSDC",
          "name": "_djBottle",
          "type": "address"
        },
        {
          "internalType": "contract IUniswapV2Router02",
          "name": "_spookyRouter",
          "type": "address"
        },
        {
          "internalType": "contract ComptrollerInterface",
          "name": "_comptroller",
          "type": "address"
        },
        {
          "internalType": "contract IStdReference",
          "name": "_priceOracle",
          "type": "address"
        }
      ],
      "stateMutability": "nonpayable",
      "type": "constructor"
    },
    {
      "anonymous": false,
      "inputs": [
        {
          "indexed": true,
          "internalType": "address",
          "name": "owner",
          "type": "address"
        },
        {
          "indexed": true,
          "internalType": "address",
          "name": "spender",
          "type": "address"
        },
        {
          "indexed": false,
          "internalType": "uint256",
          "name": "value",
          "type": "uint256"
        }
      ],
      "name": "Approval",
      "type": "event"
    },
    {
      "anonymous": false,
      "inputs": [
        {
          "indexed": true,
          "internalType": "address",
          "name": "from",
          "type": "address"
        },
        {
          "indexed": true,
          "internalType": "address",
          "name": "to",
          "type": "address"
        },
        {
          "indexed": false,
          "internalType": "uint256",
          "name": "value",
          "type": "uint256"
        }
      ],
      "name": "Transfer",
      "type": "event"
    },
    {
      "inputs": [],
      "name": "TOMB",
      "outputs": [
        {
          "internalType": "address",
          "name": "",
          "type": "address"
        }
      ],
      "stateMutability": "view",
      "type": "function",
      "constant": true
    },
    {
      "inputs": [],
      "name": "TSHARE",
      "outputs": [
        {
          "internalType": "address",
          "name": "",
          "type": "address"
        }
      ],
      "stateMutability": "view",
      "type": "function",
      "constant": true
    },
    {
      "inputs": [],
      "name": "USDC",
      "outputs": [
        {
          "internalType": "address",
          "name": "",
          "type": "address"
        }
      ],
      "stateMutability": "view",
      "type": "function",
      "constant": true
    },
    {
      "inputs": [],
      "name": "VAULT",
      "outputs": [
        {
          "internalType": "contract DjinnBottleUSDC",
          "name": "",
          "type": "address"
        }
      ],
      "stateMutability": "view",
      "type": "function",
      "constant": true
    },
    {
      "inputs": [],
      "name": "WETH",
      "outputs": [
        {
          "internalType": "address",
          "name": "",
          "type": "address"
        }
      ],
      "stateMutability": "view",
      "type": "function",
      "constant": true
    },
    {
      "inputs": [],
      "name": "WFTM",
      "outputs": [
        {
          "internalType": "address",
          "name": "",
          "type": "address"
        }
      ],
      "stateMutability": "view",
      "type": "function",
      "constant": true
    },
    {
      "inputs": [
        {
          "internalType": "address",
          "name": "owner",
          "type": "address"
        },
        {
          "internalType": "address",
          "name": "spender",
          "type": "address"
        }
      ],
      "name": "allowance",
      "outputs": [
        {
          "internalType": "uint256",
          "name": "",
          "type": "uint256"
        }
      ],
      "stateMutability": "view",
      "type": "function",
      "constant": true
    },
    {
      "inputs": [
        {
          "internalType": "address",
          "name": "spender",
          "type": "address"
        },
        {
          "internalType": "uint256",
          "name": "amount",
          "type": "uint256"
        }
      ],
      "name": "approve",
      "outputs": [
        {
          "internalType": "bool",
          "name": "",
          "type": "bool"
        }
      ],
      "stateMutability": "nonpayable",
      "type": "function"
    },
    {
      "inputs": [],
      "name": "ass",
      "outputs": [
        {
          "internalType": "uint256",
          "name": "",
          "type": "uint256"
        }
      ],
      "stateMutability": "view",
      "type": "function",
      "constant": true
    },
    {
      "inputs": [
        {
          "internalType": "address",
          "name": "account",
          "type": "address"
        }
      ],
      "name": "balanceOf",
      "outputs": [
        {
          "internalType": "uint256",
          "name": "",
          "type": "uint256"
        }
      ],
      "stateMutability": "view",
      "type": "function",
      "constant": true
    },
    {
      "inputs": [
        {
          "internalType": "uint256",
          "name": "",
          "type": "uint256"
        }
      ],
      "name": "balls",
      "outputs": [
        {
          "internalType": "address",
          "name": "",
          "type": "address"
        }
      ],
      "stateMutability": "view",
      "type": "function",
      "constant": true
    },
    {
      "inputs": [],
      "name": "comptroller",
      "outputs": [
        {
          "internalType": "contract ComptrollerInterface",
          "name": "",
          "type": "address"
        }
      ],
      "stateMutability": "view",
      "type": "function",
      "constant": true
    },
    {
      "inputs": [],
      "name": "crETH",
      "outputs": [
        {
          "internalType": "address",
          "name": "",
          "type": "address"
        }
      ],
      "stateMutability": "view",
      "type": "function",
      "constant": true
    },
    {
      "inputs": [],
      "name": "crUSDC",
      "outputs": [
        {
          "internalType": "address",
          "name": "",
          "type": "address"
        }
      ],
      "stateMutability": "view",
      "type": "function",
      "constant": true
    },
    {
      "inputs": [],
      "name": "creator",
      "outputs": [
        {
          "internalType": "address",
          "name": "",
          "type": "address"
        }
      ],
      "stateMutability": "view",
      "type": "function",
      "constant": true
    },
    {
      "inputs": [],
      "name": "decimals",
      "outputs": [
        {
          "internalType": "uint8",
          "name": "",
          "type": "uint8"
        }
      ],
      "stateMutability": "view",
      "type": "function",
      "constant": true
    },
    {
      "inputs": [
        {
          "internalType": "address",
          "name": "spender",
          "type": "address"
        },
        {
          "internalType": "uint256",
          "name": "subtractedValue",
          "type": "uint256"
        }
      ],
      "name": "decreaseAllowance",
      "outputs": [
        {
          "internalType": "bool",
          "name": "",
          "type": "bool"
        }
      ],
      "stateMutability": "nonpayable",
      "type": "function"
    },
    {
      "inputs": [
        {
          "internalType": "address",
          "name": "",
          "type": "address"
        }
      ],
      "name": "depositors",
      "outputs": [
        {
          "internalType": "uint256",
          "name": "crUSDCBalance",
          "type": "uint256"
        },
        {
          "internalType": "uint256",
          "name": "crETHBalance",
          "type": "uint256"
        },
        {
          "internalType": "uint256",
          "name": "tokenBorrowBalance",
          "type": "uint256"
        }
      ],
      "stateMutability": "view",
      "type": "function",
      "constant": true
    },
    {
      "inputs": [
        {
          "internalType": "address",
          "name": "spender",
          "type": "address"
        },
        {
          "internalType": "uint256",
          "name": "addedValue",
          "type": "uint256"
        }
      ],
      "name": "increaseAllowance",
      "outputs": [
        {
          "internalType": "bool",
          "name": "",
          "type": "bool"
        }
      ],
      "stateMutability": "nonpayable",
      "type": "function"
    },
    {
      "inputs": [],
      "name": "name",
      "outputs": [
        {
          "internalType": "string",
          "name": "",
          "type": "string"
        }
      ],
      "stateMutability": "view",
      "type": "function",
      "constant": true
    },
    {
      "inputs": [],
      "name": "priceOracle",
      "outputs": [
        {
          "internalType": "contract IStdReference",
          "name": "",
          "type": "address"
        }
      ],
      "stateMutability": "view",
      "type": "function",
      "constant": true
    },
    {
      "inputs": [],
      "name": "spookyAddress",
      "outputs": [
        {
          "internalType": "address",
          "name": "",
          "type": "address"
        }
      ],
      "stateMutability": "view",
      "type": "function",
      "constant": true
    },
    {
      "inputs": [],
      "name": "spookyFtmTombLP",
      "outputs": [
        {
          "internalType": "address",
          "name": "",
          "type": "address"
        }
      ],
      "stateMutability": "view",
      "type": "function",
      "constant": true
    },
    {
      "inputs": [],
      "name": "spookyRouter",
      "outputs": [
        {
          "internalType": "contract IUniswapV2Router02",
          "name": "",
          "type": "address"
        }
      ],
      "stateMutability": "view",
      "type": "function",
      "constant": true
    },
    {
      "inputs": [],
      "name": "symbol",
      "outputs": [
        {
          "internalType": "string",
          "name": "",
          "type": "string"
        }
      ],
      "stateMutability": "view",
      "type": "function",
      "constant": true
    },
    {
      "inputs": [],
      "name": "tShareRewardPool",
      "outputs": [
        {
          "internalType": "address",
          "name": "",
          "type": "address"
        }
      ],
      "stateMutability": "view",
      "type": "function",
      "constant": true
    },
    {
      "inputs": [],
      "name": "totalSupply",
      "outputs": [
        {
          "internalType": "uint256",
          "name": "",
          "type": "uint256"
        }
      ],
      "stateMutability": "view",
      "type": "function",
      "constant": true
    },
    {
      "inputs": [
        {
          "internalType": "address",
          "name": "recipient",
          "type": "address"
        },
        {
          "internalType": "uint256",
          "name": "amount",
          "type": "uint256"
        }
      ],
      "name": "transfer",
      "outputs": [
        {
          "internalType": "bool",
          "name": "",
          "type": "bool"
        }
      ],
      "stateMutability": "nonpayable",
      "type": "function"
    },
    {
      "inputs": [
        {
          "internalType": "address",
          "name": "sender",
          "type": "address"
        },
        {
          "internalType": "address",
          "name": "recipient",
          "type": "address"
        },
        {
          "internalType": "uint256",
          "name": "amount",
          "type": "uint256"
        }
      ],
      "name": "transferFrom",
      "outputs": [
        {
          "internalType": "bool",
          "name": "",
          "type": "bool"
        }
      ],
      "stateMutability": "nonpayable",
      "type": "function"
    },
    {
      "inputs": [],
      "name": "treasuryWallet",
      "outputs": [
        {
          "internalType": "address",
          "name": "",
          "type": "address"
        }
      ],
      "stateMutability": "view",
      "type": "function",
      "constant": true
    },
    {
      "stateMutability": "payable",
      "type": "receive",
      "payable": true
    },
    {
      "inputs": [
        {
          "internalType": "address",
          "name": "user",
          "type": "address"
        },
        {
          "internalType": "uint256",
          "name": "amount",
          "type": "uint256"
        }
      ],
      "name": "open",
      "outputs": [],
      "stateMutability": "nonpayable",
      "type": "function"
    },
    {
      "inputs": [],
      "name": "harvest",
      "outputs": [],
      "stateMutability": "nonpayable",
      "type": "function"
    },
    {
      "inputs": [
        {
          "internalType": "address",
          "name": "user",
          "type": "address"
        },
        {
          "internalType": "uint256",
          "name": "amountShares",
          "type": "uint256"
        }
      ],
      "name": "close",
      "outputs": [],
      "stateMutability": "nonpayable",
      "type": "function"
    },
    {
      "inputs": [],
      "name": "getBorrowAmount",
      "outputs": [
        {
          "internalType": "uint256",
          "name": "liquidity",
          "type": "uint256"
        },
        {
          "internalType": "uint256",
          "name": "borrowAmount",
          "type": "uint256"
        },
        {
          "internalType": "uint256",
          "name": "price",
          "type": "uint256"
        }
      ],
      "stateMutability": "view",
      "type": "function",
      "constant": true
    },
    {
      "inputs": [
        {
          "internalType": "address",
          "name": "wallet",
          "type": "address"
        }
      ],
      "name": "setTreasury",
      "outputs": [],
      "stateMutability": "nonpayable",
      "type": "function"
    },
    {
      "inputs": [],
      "name": "getUnderlying",
      "outputs": [
        {
          "internalType": "uint256",
          "name": "",
          "type": "uint256"
        }
      ],
      "stateMutability": "nonpayable",
      "type": "function"
    },
    {
      "inputs": [],
      "name": "borrowBalance",
      "outputs": [
        {
          "internalType": "uint256",
          "name": "",
          "type": "uint256"
        }
      ],
      "stateMutability": "nonpayable",
      "type": "function"
    }
  ],
  "bytecode": "0x60e06040523480156200001157600080fd5b5060405162005027380380620050278339818101604052810190620000379190620003fc565b6040518060400160405280601481526020017f446a696e6e2046544d2053686f7274204661726d0000000000000000000000008152506040518060400160405280600981526020017f6446544d53686f727400000000000000000000000000000000000000000000008152508160039080519060200190620000bb929190620001ff565b508060049080519060200190620000d4929190620001ff565b50505033600560006101000a81548173ffffffffffffffffffffffffffffffffffffffff021916908373ffffffffffffffffffffffffffffffffffffffff16021790555083600760006101000a81548173ffffffffffffffffffffffffffffffffffffffff021916908373ffffffffffffffffffffffffffffffffffffffff1602179055508273ffffffffffffffffffffffffffffffffffffffff1660808173ffffffffffffffffffffffffffffffffffffffff16815250508173ffffffffffffffffffffffffffffffffffffffff1660a08173ffffffffffffffffffffffffffffffffffffffff16815250508073ffffffffffffffffffffffffffffffffffffffff1660c08173ffffffffffffffffffffffffffffffffffffffff168152505050505050620004d3565b8280546200020d906200049d565b90600052602060002090601f0160209004810192826200023157600085556200027d565b82601f106200024c57805160ff19168380011785556200027d565b828001600101855582156200027d579182015b828111156200027c5782518255916020019190600101906200025f565b5b5090506200028c919062000290565b5090565b5b80821115620002ab57600081600090555060010162000291565b5090565b600080fd5b600073ffffffffffffffffffffffffffffffffffffffff82169050919050565b6000620002e182620002b4565b9050919050565b6000620002f582620002d4565b9050919050565b6200030781620002e8565b81146200031357600080fd5b50565b6000815190506200032781620002fc565b92915050565b60006200033a82620002d4565b9050919050565b6200034c816200032d565b81146200035857600080fd5b50565b6000815190506200036c8162000341565b92915050565b60006200037f82620002d4565b9050919050565b620003918162000372565b81146200039d57600080fd5b50565b600081519050620003b18162000386565b92915050565b6000620003c482620002d4565b9050919050565b620003d681620003b7565b8114620003e257600080fd5b50565b600081519050620003f681620003cb565b92915050565b60008060008060808587031215620004195762000418620002af565b5b6000620004298782880162000316565b94505060206200043c878288016200035b565b93505060406200044f87828801620003a0565b92505060606200046287828801620003e5565b91505092959194509250565b7f4e487b7100000000000000000000000000000000000000000000000000000000600052602260045260246000fd5b60006002820490506001821680620004b657607f821691505b60208210811415620004cd57620004cc6200046e565b5b50919050565b60805160a05160c051614b086200051f60003960008181610c140152610f0e015260008181610e6a01528181610ff401526128560152600081816110900152612b150152614b086000f3fe60806040526004361061021e5760003560e01c806382c70bbf11610123578063a9059cbb116100ab578063e08c39881161006f578063e08c398814610806578063e398fa1a14610831578063e49280cb1461085c578063eed75f6d14610885578063f0f44260146108c457610225565b8063a9059cbb1461070b578063ad5c464814610748578063b5ee45c114610773578063c139acfa1461079e578063dd62ed3e146107c957610225565b806395d89b41116100f257806395d89b41146106225780639816f4731461064d5780639cdd8ee714610678578063a457c2d7146106a3578063a6f8d405146106e057610225565b806382c70bbf1461056457806389a302711461058f5780638ed8ea7e146105ba57806390004781146105e557610225565b80632c1c1836116101a65780634626402b116101755780634626402b1461048d5780634641257d146104b85780634fbb30ed146104cf5780635fe3b567146104fc57806370a082311461052757610225565b80632c1c1836146103cf578063313ce567146103fa5780633950935114610425578063411557d11461046257610225565b806318160ddd116101ed57806318160ddd146102e657806321dbe8761461031157806323b872dd1461033c578063243cd14e146103795780632630c12f146103a457610225565b806302d05d3f1461022a57806306fdde0314610255578063095ea7b3146102805780630a0e5c9d146102bd57610225565b3661022557005b600080fd5b34801561023657600080fd5b5061023f6108ed565b60405161024c91906137db565b60405180910390f35b34801561026157600080fd5b5061026a610913565b604051610277919061388f565b60405180910390f35b34801561028c57600080fd5b506102a760048036038101906102a29190613927565b6109a5565b6040516102b49190613982565b60405180910390f35b3480156102c957600080fd5b506102e460048036038101906102df9190613927565b6109c3565b005b3480156102f257600080fd5b506102fb610a61565b60405161030891906139ac565b60405180910390f35b34801561031d57600080fd5b50610326610a6b565b60405161033391906137db565b60405180910390f35b34801561034857600080fd5b50610363600480360381019061035e91906139c7565b610a83565b6040516103709190613982565b60405180910390f35b34801561038557600080fd5b5061038e610b7b565b60405161039b91906139ac565b60405180910390f35b3480156103b057600080fd5b506103b9610c12565b6040516103c69190613a79565b60405180910390f35b3480156103db57600080fd5b506103e4610c36565b6040516103f191906137db565b60405180910390f35b34801561040657600080fd5b5061040f610c4e565b60405161041c9190613ab0565b60405180910390f35b34801561043157600080fd5b5061044c60048036038101906104479190613927565b610c57565b6040516104599190613982565b60405180910390f35b34801561046e57600080fd5b50610477610d03565b6040516104849190613aec565b60405180910390f35b34801561049957600080fd5b506104a2610d29565b6040516104af91906137db565b60405180910390f35b3480156104c457600080fd5b506104cd610d4f565b005b3480156104db57600080fd5b506104e4610e63565b6040516104f393929190613b07565b60405180910390f35b34801561050857600080fd5b50610511610ff2565b60405161051e9190613b5f565b60405180910390f35b34801561053357600080fd5b5061054e60048036038101906105499190613b7a565b611016565b60405161055b91906139ac565b60405180910390f35b34801561057057600080fd5b5061057961105e565b60405161058691906137db565b60405180910390f35b34801561059b57600080fd5b506105a4611076565b6040516105b191906137db565b60405180910390f35b3480156105c657600080fd5b506105cf61108e565b6040516105dc9190613bc8565b60405180910390f35b3480156105f157600080fd5b5061060c60048036038101906106079190613be3565b6110b2565b60405161061991906137db565b60405180910390f35b34801561062e57600080fd5b506106376110f1565b604051610644919061388f565b60405180910390f35b34801561065957600080fd5b50610662611183565b60405161066f91906139ac565b60405180910390f35b34801561068457600080fd5b5061068d61121a565b60405161069a91906137db565b60405180910390f35b3480156106af57600080fd5b506106ca60048036038101906106c59190613927565b611232565b6040516106d79190613982565b60405180910390f35b3480156106ec57600080fd5b506106f561131d565b60405161070291906137db565b60405180910390f35b34801561071757600080fd5b50610732600480360381019061072d9190613927565b611335565b60405161073f9190613982565b60405180910390f35b34801561075457600080fd5b5061075d611353565b60405161076a91906137db565b60405180910390f35b34801561077f57600080fd5b5061078861136b565b60405161079591906137db565b60405180910390f35b3480156107aa57600080fd5b506107b3611383565b6040516107c091906137db565b60405180910390f35b3480156107d557600080fd5b506107f060048036038101906107eb9190613c10565b61139b565b6040516107fd91906139ac565b60405180910390f35b34801561081257600080fd5b5061081b611422565b60405161082891906139ac565b60405180910390f35b34801561083d57600080fd5b50610846611428565b60405161085391906137db565b60405180910390f35b34801561086857600080fd5b50610883600480360381019061087e9190613927565b611440565b005b34801561089157600080fd5b506108ac60048036038101906108a79190613b7a565b6114de565b6040516108bb93929190613b07565b60405180910390f35b3480156108d057600080fd5b506108eb60048036038101906108e69190613b7a565b611508565b005b600560009054906101000a900473ffffffffffffffffffffffffffffffffffffffff1681565b60606003805461092290613c7f565b80601f016020809104026020016040519081016040528092919081815260200182805461094e90613c7f565b801561099b5780601f106109705761010080835404028352916020019161099b565b820191906000526020600020905b81548152906001019060200180831161097e57829003601f168201915b5050505050905090565b60006109b96109b26115dc565b84846115e4565b6001905092915050565b600760009054906101000a900473ffffffffffffffffffffffffffffffffffffffff1673ffffffffffffffffffffffffffffffffffffffff163373ffffffffffffffffffffffffffffffffffffffff1614610a53576040517f08c379a0000000000000000000000000000000000000000000000000000000008152600401610a4a90613cfd565b60405180910390fd5b610a5d82826117af565b5050565b6000600254905090565b7321be370d5312f44cb42ce377bc9b8a0cef1a4c8381565b6000610a90848484611853565b6000600160008673ffffffffffffffffffffffffffffffffffffffff1673ffffffffffffffffffffffffffffffffffffffff1681526020019081526020016000206000610adb6115dc565b73ffffffffffffffffffffffffffffffffffffffff1673ffffffffffffffffffffffffffffffffffffffff16815260200190815260200160002054905082811015610b5b576040517f08c379a0000000000000000000000000000000000000000000000000000000008152600401610b5290613d8f565b60405180910390fd5b610b6f85610b676115dc565b8584036115e4565b60019150509392505050565b600073cc3e89fbc10e155f1164f8c9cf0703acde53f6fd73ffffffffffffffffffffffffffffffffffffffff166317bfdfbc306040518263ffffffff1660e01b8152600401610bca91906137db565b6020604051808303816000875af1158015610be9573d6000803e3d6000fd5b505050506040513d601f19601f82011682018060405250810190610c0d9190613dc4565b905090565b7f000000000000000000000000000000000000000000000000000000000000000081565b73cc0a87f7e7c693042a9cc703661f5060c80acb4381565b60006012905090565b6000610cf9610c646115dc565b848460016000610c726115dc565b73ffffffffffffffffffffffffffffffffffffffff1673ffffffffffffffffffffffffffffffffffffffff16815260200190815260200160002060008873ffffffffffffffffffffffffffffffffffffffff1673ffffffffffffffffffffffffffffffffffffffff16815260200190815260200160002054610cf49190613e20565b6115e4565b6001905092915050565b600760009054906101000a900473ffffffffffffffffffffffffffffffffffffffff1681565b600660009054906101000a900473ffffffffffffffffffffffffffffffffffffffff1681565b600760009054906101000a900473ffffffffffffffffffffffffffffffffffffffff1673ffffffffffffffffffffffffffffffffffffffff163373ffffffffffffffffffffffffffffffffffffffff1614610ddf576040517f08c379a0000000000000000000000000000000000000000000000000000000008152600401610dd690613cfd565b60405180910390fd5b73cc0a87f7e7c693042a9cc703661f5060c80acb4373ffffffffffffffffffffffffffffffffffffffff1663e2bbb1586000806040518363ffffffff1660e01b8152600401610e2f929190613eb1565b600060405180830381600087803b158015610e4957600080fd5b505af1158015610e5d573d6000803e3d6000fd5b50505050565b60008060007f000000000000000000000000000000000000000000000000000000000000000073ffffffffffffffffffffffffffffffffffffffff16635ec88c79306040518263ffffffff1660e01b8152600401610ec191906137db565b606060405180830381865afa158015610ede573d6000803e3d6000fd5b505050506040513d601f19601f82011682018060405250810190610f029190613eda565b909150508093505060007f000000000000000000000000000000000000000000000000000000000000000073ffffffffffffffffffffffffffffffffffffffff166365555bcc6040518163ffffffff1660e01b8152600401610f6390613fc5565b606060405180830381865afa158015610f80573d6000803e3d6000fd5b505050506040513d601f19601f82011682018060405250810190610fa491906140dc565b905080600001519150600082670de0b6b3a764000086610fc49190614109565b610fce9190614192565b90506064605e82610fdf9190614109565b610fe99190614192565b93505050909192565b7f000000000000000000000000000000000000000000000000000000000000000081565b60008060008373ffffffffffffffffffffffffffffffffffffffff1673ffffffffffffffffffffffffffffffffffffffff168152602001908152602001600020549050919050565b73328a7b4d538a2b3942653a9983fda3c12c57114181565b7304068da6c83afcfa0e13ba15a6696662335d5b7581565b7f000000000000000000000000000000000000000000000000000000000000000081565b600981815481106110c257600080fd5b906000526020600020016000915054906101000a900473ffffffffffffffffffffffffffffffffffffffff1681565b60606004805461110090613c7f565b80601f016020809104026020016040519081016040528092919081815260200182805461112c90613c7f565b80156111795780601f1061114e57610100808354040283529160200191611179565b820191906000526020600020905b81548152906001019060200180831161115c57829003601f168201915b5050505050905090565b600073328a7b4d538a2b3942653a9983fda3c12c57114173ffffffffffffffffffffffffffffffffffffffff16633af9e669306040518263ffffffff1660e01b81526004016111d291906137db565b6020604051808303816000875af11580156111f1573d6000803e3d6000fd5b505050506040513d601f19601f820116820180604052508101906112159190613dc4565b905090565b732a651563c9d3af67ae0388a5c8f89b867038089e81565b600080600160006112416115dc565b73ffffffffffffffffffffffffffffffffffffffff1673ffffffffffffffffffffffffffffffffffffffff16815260200190815260200160002060008573ffffffffffffffffffffffffffffffffffffffff1673ffffffffffffffffffffffffffffffffffffffff168152602001908152602001600020549050828110156112fe576040517f08c379a00000000000000000000000000000000000000000000000000000000081526004016112f590614235565b60405180910390fd5b6113126113096115dc565b858584036115e4565b600191505092915050565b73f491e7b69e4244ad4002bc14e878a34207e38c2981565b60006113496113426115dc565b8484611853565b6001905092915050565b7374b23882a30290451a17c44f4f05243b6b58c76d81565b734cdf39285d7ca8eb3f090fda0c069ba5f4145b3781565b736c021ae822bea943b2e66552bde1d2696a53fbb781565b6000600160008473ffffffffffffffffffffffffffffffffffffffff1673ffffffffffffffffffffffffffffffffffffffff16815260200190815260200160002060008373ffffffffffffffffffffffffffffffffffffffff1673ffffffffffffffffffffffffffffffffffffffff16815260200190815260200160002054905092915050565b60085481565b73cc3e89fbc10e155f1164f8c9cf0703acde53f6fd81565b600760009054906101000a900473ffffffffffffffffffffffffffffffffffffffff1673ffffffffffffffffffffffffffffffffffffffff163373ffffffffffffffffffffffffffffffffffffffff16146114d0576040517f08c379a00000000000000000000000000000000000000000000000000000000081526004016114c790613cfd565b60405180910390fd5b6114da8282611ad4565b5050565b600a6020528060005260406000206000915090508060000154908060010154908060020154905083565b600760009054906101000a900473ffffffffffffffffffffffffffffffffffffffff1673ffffffffffffffffffffffffffffffffffffffff163373ffffffffffffffffffffffffffffffffffffffff1614611598576040517f08c379a000000000000000000000000000000000000000000000000000000000815260040161158f90613cfd565b60405180910390fd5b80600660006101000a81548173ffffffffffffffffffffffffffffffffffffffff021916908373ffffffffffffffffffffffffffffffffffffffff16021790555050565b600033905090565b600073ffffffffffffffffffffffffffffffffffffffff168373ffffffffffffffffffffffffffffffffffffffff161415611654576040517f08c379a000000000000000000000000000000000000000000000000000000000815260040161164b906142c7565b60405180910390fd5b600073ffffffffffffffffffffffffffffffffffffffff168273ffffffffffffffffffffffffffffffffffffffff1614156116c4576040517f08c379a00000000000000000000000000000000000000000000000000000000081526004016116bb90614359565b60405180910390fd5b80600160008573ffffffffffffffffffffffffffffffffffffffff1673ffffffffffffffffffffffffffffffffffffffff16815260200190815260200160002060008473ffffffffffffffffffffffffffffffffffffffff1673ffffffffffffffffffffffffffffffffffffffff168152602001908152602001600020819055508173ffffffffffffffffffffffffffffffffffffffff168373ffffffffffffffffffffffffffffffffffffffff167f8c5be1e5ebec7d5bd14f71427d1e84f3dd0314c0f7b2291e5b200ac8c7c3b925836040516117a291906139ac565b60405180910390a3505050565b600060646046836117c09190614109565b6117ca9190614192565b90506117ff7304068da6c83afcfa0e13ba15a6696662335d5b757374b23882a30290451a17c44f4f05243b6b58c76d83611c86565b600061181e7304068da6c83afcfa0e13ba15a6696662335d5b7561209b565b9050600061183f7374b23882a30290451a17c44f4f05243b6b58c76d61209b565b905061184c85838361211e565b5050505050565b600073ffffffffffffffffffffffffffffffffffffffff168373ffffffffffffffffffffffffffffffffffffffff1614156118c3576040517f08c379a00000000000000000000000000000000000000000000000000000000081526004016118ba906143eb565b60405180910390fd5b600073ffffffffffffffffffffffffffffffffffffffff168273ffffffffffffffffffffffffffffffffffffffff161415611933576040517f08c379a000000000000000000000000000000000000000000000000000000000815260040161192a9061447d565b60405180910390fd5b61193e838383612a20565b60008060008573ffffffffffffffffffffffffffffffffffffffff1673ffffffffffffffffffffffffffffffffffffffff168152602001908152602001600020549050818110156119c4576040517f08c379a00000000000000000000000000000000000000000000000000000000081526004016119bb9061450f565b60405180910390fd5b8181036000808673ffffffffffffffffffffffffffffffffffffffff1673ffffffffffffffffffffffffffffffffffffffff16815260200190815260200160002081905550816000808573ffffffffffffffffffffffffffffffffffffffff1673ffffffffffffffffffffffffffffffffffffffff1681526020019081526020016000206000828254611a579190613e20565b925050819055508273ffffffffffffffffffffffffffffffffffffffff168473ffffffffffffffffffffffffffffffffffffffff167fddf252ad1be2c89b69c2b068fc378daa952ba7f163c4a11628f55a4df523b3ef84604051611abb91906139ac565b60405180910390a3611ace848484612a25565b50505050565b6000611adf3061209b565b90506000600760009054906101000a900473ffffffffffffffffffffffffffffffffffffffff1673ffffffffffffffffffffffffffffffffffffffff166318160ddd6040518163ffffffff1660e01b8152600401602060405180830381865afa158015611b50573d6000803e3d6000fd5b505050506040513d601f19601f82011682018060405250810190611b749190613dc4565b90506000838284611b859190614192565b611b8f9190614109565b905082811115611b9d578290505b6000611bbc732a651563c9d3af67ae0388a5c8f89b867038089e61209b565b905073cc0a87f7e7c693042a9cc703661f5060c80acb4373ffffffffffffffffffffffffffffffffffffffff1663441a3e706000846040518363ffffffff1660e01b8152600401611c0e92919061452f565b600060405180830381600087803b158015611c2857600080fd5b505af1158015611c3c573d6000803e3d6000fd5b505050506000611c5f732a651563c9d3af67ae0388a5c8f89b867038089e61209b565b905060008282611c6f9190614558565b9050611c7c888289612a2a565b5050505050505050565b8273ffffffffffffffffffffffffffffffffffffffff1663095ea7b373f491e7b69e4244ad4002bc14e878a34207e38c29836040518363ffffffff1660e01b8152600401611cd592919061458c565b6020604051808303816000875af1158015611cf4573d6000803e3d6000fd5b505050506040513d601f19601f82011682018060405250810190611d1891906145e1565b5060607321be370d5312f44cb42ce377bc9b8a0cef1a4c8373ffffffffffffffffffffffffffffffffffffffff168473ffffffffffffffffffffffffffffffffffffffff161480611da857507321be370d5312f44cb42ce377bc9b8a0cef1a4c8373ffffffffffffffffffffffffffffffffffffffff168373ffffffffffffffffffffffffffffffffffffffff16145b15611e9c57600267ffffffffffffffff811115611dc857611dc7613ffd565b5b604051908082528060200260200182016040528015611df65781602001602082028036833780820191505090505b5090508381600081518110611e0e57611e0d61460e565b5b602002602001019073ffffffffffffffffffffffffffffffffffffffff16908173ffffffffffffffffffffffffffffffffffffffff16815250508281600181518110611e5d57611e5c61460e565b5b602002602001019073ffffffffffffffffffffffffffffffffffffffff16908173ffffffffffffffffffffffffffffffffffffffff1681525050611fea565b600367ffffffffffffffff811115611eb757611eb6613ffd565b5b604051908082528060200260200182016040528015611ee55781602001602082028036833780820191505090505b5090508381600081518110611efd57611efc61460e565b5b602002602001019073ffffffffffffffffffffffffffffffffffffffff16908173ffffffffffffffffffffffffffffffffffffffff16815250507321be370d5312f44cb42ce377bc9b8a0cef1a4c8381600181518110611f6057611f5f61460e565b5b602002602001019073ffffffffffffffffffffffffffffffffffffffff16908173ffffffffffffffffffffffffffffffffffffffff16815250508281600281518110611faf57611fae61460e565b5b602002602001019073ffffffffffffffffffffffffffffffffffffffff16908173ffffffffffffffffffffffffffffffffffffffff16815250505b73f491e7b69e4244ad4002bc14e878a34207e38c2973ffffffffffffffffffffffffffffffffffffffff166338ed17398360008430601e4261202c9190613e20565b6040518663ffffffff1660e01b815260040161204c9594939291906146fb565b6000604051808303816000875af115801561206b573d6000803e3d6000fd5b505050506040513d6000823e3d601f19601f820116820180604052508101906120949190614822565b5050505050565b60008173ffffffffffffffffffffffffffffffffffffffff166370a08231306040518263ffffffff1660e01b81526004016120d691906137db565b602060405180830381865afa1580156120f3573d6000803e3d6000fd5b505050506040513d601f19601f820116820180604052508101906121179190613dc4565b9050919050565b600073328a7b4d538a2b3942653a9983fda3c12c57114173ffffffffffffffffffffffffffffffffffffffff166370a08231306040518263ffffffff1660e01b815260040161216d91906137db565b602060405180830381865afa15801561218a573d6000803e3d6000fd5b505050506040513d601f19601f820116820180604052508101906121ae9190613dc4565b9050600073cc3e89fbc10e155f1164f8c9cf0703acde53f6fd73ffffffffffffffffffffffffffffffffffffffff166370a08231306040518263ffffffff1660e01b81526004016121ff91906137db565b602060405180830381865afa15801561221c573d6000803e3d6000fd5b505050506040513d601f19601f820116820180604052508101906122409190613dc4565b90507304068da6c83afcfa0e13ba15a6696662335d5b7573ffffffffffffffffffffffffffffffffffffffff1663095ea7b373328a7b4d538a2b3942653a9983fda3c12c571141866040518363ffffffff1660e01b81526004016122a592919061458c565b6020604051808303816000875af11580156122c4573d6000803e3d6000fd5b505050506040513d601f19601f820116820180604052508101906122e891906145e1565b5073328a7b4d538a2b3942653a9983fda3c12c57114173ffffffffffffffffffffffffffffffffffffffff1663a0712d68856040518263ffffffff1660e01b815260040161233691906139ac565b6020604051808303816000875af1158015612355573d6000803e3d6000fd5b505050506040513d601f19601f820116820180604052508101906123799190613dc4565b50836008819055507374b23882a30290451a17c44f4f05243b6b58c76d73ffffffffffffffffffffffffffffffffffffffff1663095ea7b373cc3e89fbc10e155f1164f8c9cf0703acde53f6fd856040518363ffffffff1660e01b81526004016123e492919061458c565b6020604051808303816000875af1158015612403573d6000803e3d6000fd5b505050506040513d601f19601f8201168201806040525081019061242791906145e1565b5073cc3e89fbc10e155f1164f8c9cf0703acde53f6fd73ffffffffffffffffffffffffffffffffffffffff1663a0712d68846040518263ffffffff1660e01b815260040161247591906139ac565b6020604051808303816000875af1158015612494573d6000803e3d6000fd5b505050506040513d601f19601f820116820180604052508101906124b89190613dc4565b50600073328a7b4d538a2b3942653a9983fda3c12c57114173ffffffffffffffffffffffffffffffffffffffff166370a08231306040518263ffffffff1660e01b815260040161250891906137db565b602060405180830381865afa158015612525573d6000803e3d6000fd5b505050506040513d601f19601f820116820180604052508101906125499190613dc4565b9050600073cc3e89fbc10e155f1164f8c9cf0703acde53f6fd73ffffffffffffffffffffffffffffffffffffffff166370a08231306040518263ffffffff1660e01b815260040161259a91906137db565b602060405180830381865afa1580156125b7573d6000803e3d6000fd5b505050506040513d601f19601f820116820180604052508101906125db9190613dc4565b9050600084836125eb9190614558565b9050600084836125fb9190614558565b905081600a60008b73ffffffffffffffffffffffffffffffffffffffff1673ffffffffffffffffffffffffffffffffffffffff168152602001908152602001600020600001600082825461264f9190613e20565b9250508190555080600a60008b73ffffffffffffffffffffffffffffffffffffffff1673ffffffffffffffffffffffffffffffffffffffff16815260200190815260200160002060010160008282546126a89190613e20565b92505081905550600760009054906101000a900473ffffffffffffffffffffffffffffffffffffffff1673ffffffffffffffffffffffffffffffffffffffff16634478efa28a84846040518463ffffffff1660e01b815260040161270e9392919061486b565b600060405180830381600087803b15801561272857600080fd5b505af115801561273c573d6000803e3d6000fd5b505050506000600267ffffffffffffffff81111561275d5761275c613ffd565b5b60405190808252806020026020018201604052801561278b5781602001602082028036833780820191505090505b50905073328a7b4d538a2b3942653a9983fda3c12c571141816000815181106127b7576127b661460e565b5b602002602001019073ffffffffffffffffffffffffffffffffffffffff16908173ffffffffffffffffffffffffffffffffffffffff168152505073cc3e89fbc10e155f1164f8c9cf0703acde53f6fd8160018151811061281a5761281961460e565b5b602002602001019073ffffffffffffffffffffffffffffffffffffffff16908173ffffffffffffffffffffffffffffffffffffffff16815250507f000000000000000000000000000000000000000000000000000000000000000073ffffffffffffffffffffffffffffffffffffffff1663c2998238826040518263ffffffff1660e01b81526004016128ad91906148a2565b6000604051808303816000875af11580156128cc573d6000803e3d6000fd5b505050506040513d6000823e3d601f19601f820116820180604052508101906128f59190614822565b506000612900610b7b565b9050600061290c610e63565b5091505073cc3e89fbc10e155f1164f8c9cf0703acde53f6fd73ffffffffffffffffffffffffffffffffffffffff1663c5ebeaec826040518263ffffffff1660e01b815260040161295d91906139ac565b6020604051808303816000875af115801561297c573d6000803e3d6000fd5b505050506040513d601f19601f820116820180604052508101906129a09190613dc4565b5060006129ab610b7b565b905082816129b99190614558565b600a60008f73ffffffffffffffffffffffffffffffffffffffff1673ffffffffffffffffffffffffffffffffffffffff1681526020019081526020016000206002016000828254612a0a9190613e20565b9250508190555050505050505050505050505050565b505050565b505050565b6000612a497321be370d5312f44cb42ce377bc9b8a0cef1a4c8361209b565b90506000612a6a736c021ae822bea943b2e66552bde1d2696a53fbb761209b565b9050732a651563c9d3af67ae0388a5c8f89b867038089e73ffffffffffffffffffffffffffffffffffffffff1663095ea7b373f491e7b69e4244ad4002bc14e878a34207e38c29866040518363ffffffff1660e01b8152600401612acf92919061458c565b6020604051808303816000875af1158015612aee573d6000803e3d6000fd5b505050506040513d601f19601f82011682018060405250810190612b1291906145e1565b507f000000000000000000000000000000000000000000000000000000000000000073ffffffffffffffffffffffffffffffffffffffff1663baa2abde7321be370d5312f44cb42ce377bc9b8a0cef1a4c83736c021ae822bea943b2e66552bde1d2696a53fbb78760018030601e42612b8b9190613e20565b6040518863ffffffff1660e01b8152600401612bad97969594939291906148ff565b60408051808303816000875af1158015612bcb573d6000803e3d6000fd5b505050506040513d601f19601f82011682018060405250810190612bef919061496e565b5050612bfb3085612e7c565b6000612c1a7321be370d5312f44cb42ce377bc9b8a0cef1a4c8361209b565b90506000612c3b736c021ae822bea943b2e66552bde1d2696a53fbb761209b565b905060008483612c4b9190614558565b905060008483612c5b9190614558565b90507321be370d5312f44cb42ce377bc9b8a0cef1a4c8373ffffffffffffffffffffffffffffffffffffffff1663095ea7b373f491e7b69e4244ad4002bc14e878a34207e38c29846040518363ffffffff1660e01b8152600401612cc092919061458c565b6020604051808303816000875af1158015612cdf573d6000803e3d6000fd5b505050506040513d601f19601f82011682018060405250810190612d0391906145e1565b50736c021ae822bea943b2e66552bde1d2696a53fbb773ffffffffffffffffffffffffffffffffffffffff1663095ea7b373f491e7b69e4244ad4002bc14e878a34207e38c29836040518363ffffffff1660e01b8152600401612d6792919061458c565b6020604051808303816000875af1158015612d86573d6000803e3d6000fd5b505050506040513d601f19601f82011682018060405250810190612daa91906145e1565b506000612dca7374b23882a30290451a17c44f4f05243b6b58c76d61209b565b9050612dff7321be370d5312f44cb42ce377bc9b8a0cef1a4c837374b23882a30290451a17c44f4f05243b6b58c76d85611c86565b612e32736c021ae822bea943b2e66552bde1d2696a53fbb77374b23882a30290451a17c44f4f05243b6b58c76d84611c86565b6000612e517374b23882a30290451a17c44f4f05243b6b58c76d61209b565b905060008282612e619190614558565b9050612e6e8c8b83613053565b505050505050505050505050565b600073ffffffffffffffffffffffffffffffffffffffff168273ffffffffffffffffffffffffffffffffffffffff161415612eec576040517f08c379a0000000000000000000000000000000000000000000000000000000008152600401612ee390614a20565b60405180910390fd5b612ef882600083612a20565b60008060008473ffffffffffffffffffffffffffffffffffffffff1673ffffffffffffffffffffffffffffffffffffffff16815260200190815260200160002054905081811015612f7e576040517f08c379a0000000000000000000000000000000000000000000000000000000008152600401612f7590614ab2565b60405180910390fd5b8181036000808573ffffffffffffffffffffffffffffffffffffffff1673ffffffffffffffffffffffffffffffffffffffff168152602001908152602001600020819055508160026000828254612fd59190614558565b92505081905550600073ffffffffffffffffffffffffffffffffffffffff168373ffffffffffffffffffffffffffffffffffffffff167fddf252ad1be2c89b69c2b068fc378daa952ba7f163c4a11628f55a4df523b3ef8460405161303a91906139ac565b60405180910390a361304e83600084612a25565b505050565b600080600a60008673ffffffffffffffffffffffffffffffffffffffff1673ffffffffffffffffffffffffffffffffffffffff1681526020019081526020016000206002015483111561318257600a60008673ffffffffffffffffffffffffffffffffffffffff1673ffffffffffffffffffffffffffffffffffffffff16815260200190815260200160002060020154836130ee9190614558565b9150600a60008673ffffffffffffffffffffffffffffffffffffffff1673ffffffffffffffffffffffffffffffffffffffff1681526020019081526020016000206002015490506000600a60008773ffffffffffffffffffffffffffffffffffffffff1673ffffffffffffffffffffffffffffffffffffffff168152602001908152602001600020600201819055506131e3565b6000915082905082600a60008773ffffffffffffffffffffffffffffffffffffffff1673ffffffffffffffffffffffffffffffffffffffff16815260200190815260200160002060020160008282546131db9190614558565b925050819055505b6000806131ef8661361d565b91509150600081600a60008a73ffffffffffffffffffffffffffffffffffffffff1673ffffffffffffffffffffffffffffffffffffffff168152602001908152602001600020600001546132439190614558565b9050600086905083600a60008b73ffffffffffffffffffffffffffffffffffffffff1673ffffffffffffffffffffffffffffffffffffffff168152602001908152602001600020600101600082825461329c9190614558565b9250508190555082600a60008b73ffffffffffffffffffffffffffffffffffffffff1673ffffffffffffffffffffffffffffffffffffffff16815260200190815260200160002060000160008282546132f59190614558565b92505081905550613304610b7b565b85111561331657613313610b7b565b94505b7374b23882a30290451a17c44f4f05243b6b58c76d73ffffffffffffffffffffffffffffffffffffffff1663095ea7b373cc3e89fbc10e155f1164f8c9cf0703acde53f6fd876040518363ffffffff1660e01b815260040161337992919061458c565b6020604051808303816000875af1158015613398573d6000803e3d6000fd5b505050506040513d601f19601f820116820180604052508101906133bc91906145e1565b5073cc3e89fbc10e155f1164f8c9cf0703acde53f6fd73ffffffffffffffffffffffffffffffffffffffff16630e752702866040518263ffffffff1660e01b815260040161340a91906139ac565b6020604051808303816000875af1158015613429573d6000803e3d6000fd5b505050506040513d601f19601f8201168201806040525081019061344d9190613dc4565b50600061346d7374b23882a30290451a17c44f4f05243b6b58c76d61209b565b905073328a7b4d538a2b3942653a9983fda3c12c57114173ffffffffffffffffffffffffffffffffffffffff1663db006a75846040518263ffffffff1660e01b81526004016134bc91906139ac565b6020604051808303816000875af11580156134db573d6000803e3d6000fd5b505050506040513d601f19601f820116820180604052508101906134ff9190613dc4565b5073cc3e89fbc10e155f1164f8c9cf0703acde53f6fd73ffffffffffffffffffffffffffffffffffffffff1663db006a75836040518263ffffffff1660e01b815260040161354d91906139ac565b6020604051808303816000875af115801561356c573d6000803e3d6000fd5b505050506040513d601f19601f820116820180604052508101906135909190613dc4565b5060006135b07374b23882a30290451a17c44f4f05243b6b58c76d61209b565b9050600082826135c09190614558565b90506135df7374b23882a30290451a17c44f4f05243b6b58c76d61209b565b891115613606576136037374b23882a30290451a17c44f4f05243b6b58c76d61209b565b98505b61360f8161365a565b505050505050505050505050565b600080600060646046856136319190614109565b61363b9190614192565b90506000818561364b9190614558565b90508181935093505050915091565b60006136797304068da6c83afcfa0e13ba15a6696662335d5b7561209b565b90506136ae7374b23882a30290451a17c44f4f05243b6b58c76d7304068da6c83afcfa0e13ba15a6696662335d5b7584611c86565b60006136cd7304068da6c83afcfa0e13ba15a6696662335d5b7561209b565b9050600082826136dd9190614558565b90507304068da6c83afcfa0e13ba15a6696662335d5b7573ffffffffffffffffffffffffffffffffffffffff1663a9059cbb600760009054906101000a900473ffffffffffffffffffffffffffffffffffffffff16836040518363ffffffff1660e01b815260040161375092919061458c565b6020604051808303816000875af115801561376f573d6000803e3d6000fd5b505050506040513d601f19601f8201168201806040525081019061379391906145e1565b5050505050565b600073ffffffffffffffffffffffffffffffffffffffff82169050919050565b60006137c58261379a565b9050919050565b6137d5816137ba565b82525050565b60006020820190506137f060008301846137cc565b92915050565b600081519050919050565b600082825260208201905092915050565b60005b83811015613830578082015181840152602081019050613815565b8381111561383f576000848401525b50505050565b6000601f19601f8301169050919050565b6000613861826137f6565b61386b8185613801565b935061387b818560208601613812565b61388481613845565b840191505092915050565b600060208201905081810360008301526138a98184613856565b905092915050565b6000604051905090565b600080fd5b600080fd5b6138ce816137ba565b81146138d957600080fd5b50565b6000813590506138eb816138c5565b92915050565b6000819050919050565b613904816138f1565b811461390f57600080fd5b50565b600081359050613921816138fb565b92915050565b6000806040838503121561393e5761393d6138bb565b5b600061394c858286016138dc565b925050602061395d85828601613912565b9150509250929050565b60008115159050919050565b61397c81613967565b82525050565b60006020820190506139976000830184613973565b92915050565b6139a6816138f1565b82525050565b60006020820190506139c1600083018461399d565b92915050565b6000806000606084860312156139e0576139df6138bb565b5b60006139ee868287016138dc565b93505060206139ff868287016138dc565b9250506040613a1086828701613912565b9150509250925092565b6000819050919050565b6000613a3f613a3a613a358461379a565b613a1a565b61379a565b9050919050565b6000613a5182613a24565b9050919050565b6000613a6382613a46565b9050919050565b613a7381613a58565b82525050565b6000602082019050613a8e6000830184613a6a565b92915050565b600060ff82169050919050565b613aaa81613a94565b82525050565b6000602082019050613ac56000830184613aa1565b92915050565b6000613ad682613a46565b9050919050565b613ae681613acb565b82525050565b6000602082019050613b016000830184613add565b92915050565b6000606082019050613b1c600083018661399d565b613b29602083018561399d565b613b36604083018461399d565b949350505050565b6000613b4982613a46565b9050919050565b613b5981613b3e565b82525050565b6000602082019050613b746000830184613b50565b92915050565b600060208284031215613b9057613b8f6138bb565b5b6000613b9e848285016138dc565b91505092915050565b6000613bb282613a46565b9050919050565b613bc281613ba7565b82525050565b6000602082019050613bdd6000830184613bb9565b92915050565b600060208284031215613bf957613bf86138bb565b5b6000613c0784828501613912565b91505092915050565b60008060408385031215613c2757613c266138bb565b5b6000613c35858286016138dc565b9250506020613c46858286016138dc565b9150509250929050565b7f4e487b7100000000000000000000000000000000000000000000000000000000600052602260045260246000fd5b60006002820490506001821680613c9757607f821691505b60208210811415613cab57613caa613c50565b5b50919050565b7f217661756c740000000000000000000000000000000000000000000000000000600082015250565b6000613ce7600683613801565b9150613cf282613cb1565b602082019050919050565b60006020820190508181036000830152613d1681613cda565b9050919050565b7f45524332303a207472616e7366657220616d6f756e742065786365656473206160008201527f6c6c6f77616e6365000000000000000000000000000000000000000000000000602082015250565b6000613d79602883613801565b9150613d8482613d1d565b604082019050919050565b60006020820190508181036000830152613da881613d6c565b9050919050565b600081519050613dbe816138fb565b92915050565b600060208284031215613dda57613dd96138bb565b5b6000613de884828501613daf565b91505092915050565b7f4e487b7100000000000000000000000000000000000000000000000000000000600052601160045260246000fd5b6000613e2b826138f1565b9150613e36836138f1565b9250827fffffffffffffffffffffffffffffffffffffffffffffffffffffffffffffffff03821115613e6b57613e6a613df1565b5b828201905092915050565b6000819050919050565b6000613e9b613e96613e9184613e76565b613a1a565b6138f1565b9050919050565b613eab81613e80565b82525050565b6000604082019050613ec66000830185613ea2565b613ed36020830184613ea2565b9392505050565b600080600060608486031215613ef357613ef26138bb565b5b6000613f0186828701613daf565b9350506020613f1286828701613daf565b9250506040613f2386828701613daf565b9150509250925092565b7f4554480000000000000000000000000000000000000000000000000000000000600082015250565b6000613f63600383613801565b9150613f6e82613f2d565b602082019050919050565b7f5553444300000000000000000000000000000000000000000000000000000000600082015250565b6000613faf600483613801565b9150613fba82613f79565b602082019050919050565b60006040820190508181036000830152613fde81613f56565b90508181036020830152613ff181613fa2565b9050919050565b600080fd5b7f4e487b7100000000000000000000000000000000000000000000000000000000600052604160045260246000fd5b61403582613845565b810181811067ffffffffffffffff8211171561405457614053613ffd565b5b80604052505050565b60006140676138b1565b9050614073828261402c565b919050565b60006060828403121561408e5761408d613ff8565b5b614098606061405d565b905060006140a884828501613daf565b60008301525060206140bc84828501613daf565b60208301525060406140d084828501613daf565b60408301525092915050565b6000606082840312156140f2576140f16138bb565b5b600061410084828501614078565b91505092915050565b6000614114826138f1565b915061411f836138f1565b9250817fffffffffffffffffffffffffffffffffffffffffffffffffffffffffffffffff048311821515161561415857614157613df1565b5b828202905092915050565b7f4e487b7100000000000000000000000000000000000000000000000000000000600052601260045260246000fd5b600061419d826138f1565b91506141a8836138f1565b9250826141b8576141b7614163565b5b828204905092915050565b7f45524332303a2064656372656173656420616c6c6f77616e63652062656c6f7760008201527f207a65726f000000000000000000000000000000000000000000000000000000602082015250565b600061421f602583613801565b915061422a826141c3565b604082019050919050565b6000602082019050818103600083015261424e81614212565b9050919050565b7f45524332303a20617070726f76652066726f6d20746865207a65726f2061646460008201527f7265737300000000000000000000000000000000000000000000000000000000602082015250565b60006142b1602483613801565b91506142bc82614255565b604082019050919050565b600060208201905081810360008301526142e0816142a4565b9050919050565b7f45524332303a20617070726f766520746f20746865207a65726f20616464726560008201527f7373000000000000000000000000000000000000000000000000000000000000602082015250565b6000614343602283613801565b915061434e826142e7565b604082019050919050565b6000602082019050818103600083015261437281614336565b9050919050565b7f45524332303a207472616e736665722066726f6d20746865207a65726f20616460008201527f6472657373000000000000000000000000000000000000000000000000000000602082015250565b60006143d5602583613801565b91506143e082614379565b604082019050919050565b60006020820190508181036000830152614404816143c8565b9050919050565b7f45524332303a207472616e7366657220746f20746865207a65726f206164647260008201527f6573730000000000000000000000000000000000000000000000000000000000602082015250565b6000614467602383613801565b91506144728261440b565b604082019050919050565b600060208201905081810360008301526144968161445a565b9050919050565b7f45524332303a207472616e7366657220616d6f756e742065786365656473206260008201527f616c616e63650000000000000000000000000000000000000000000000000000602082015250565b60006144f9602683613801565b91506145048261449d565b604082019050919050565b60006020820190508181036000830152614528816144ec565b9050919050565b60006040820190506145446000830185613ea2565b614551602083018461399d565b9392505050565b6000614563826138f1565b915061456e836138f1565b92508282101561458157614580613df1565b5b828203905092915050565b60006040820190506145a160008301856137cc565b6145ae602083018461399d565b9392505050565b6145be81613967565b81146145c957600080fd5b50565b6000815190506145db816145b5565b92915050565b6000602082840312156145f7576145f66138bb565b5b6000614605848285016145cc565b91505092915050565b7f4e487b7100000000000000000000000000000000000000000000000000000000600052603260045260246000fd5b600081519050919050565b600082825260208201905092915050565b6000819050602082019050919050565b614672816137ba565b82525050565b60006146848383614669565b60208301905092915050565b6000602082019050919050565b60006146a88261463d565b6146b28185614648565b93506146bd83614659565b8060005b838110156146ee5781516146d58882614678565b97506146e083614690565b9250506001810190506146c1565b5085935050505092915050565b600060a082019050614710600083018861399d565b61471d6020830187613ea2565b818103604083015261472f818661469d565b905061473e60608301856137cc565b61474b608083018461399d565b9695505050505050565b600080fd5b600067ffffffffffffffff82111561477557614774613ffd565b5b602082029050602081019050919050565b600080fd5b600061479e6147998461475a565b61405d565b905080838252602082019050602084028301858111156147c1576147c0614786565b5b835b818110156147ea57806147d68882613daf565b8452602084019350506020810190506147c3565b5050509392505050565b600082601f83011261480957614808614755565b5b815161481984826020860161478b565b91505092915050565b600060208284031215614838576148376138bb565b5b600082015167ffffffffffffffff811115614856576148556138c0565b5b614862848285016147f4565b91505092915050565b600060608201905061488060008301866137cc565b61488d602083018561399d565b61489a604083018461399d565b949350505050565b600060208201905081810360008301526148bc818461469d565b905092915050565b6000819050919050565b60006148e96148e46148df846148c4565b613a1a565b6138f1565b9050919050565b6148f9816148ce565b82525050565b600060e082019050614914600083018a6137cc565b61492160208301896137cc565b61492e604083018861399d565b61493b60608301876148f0565b61494860808301866148f0565b61495560a08301856137cc565b61496260c083018461399d565b98975050505050505050565b60008060408385031215614985576149846138bb565b5b600061499385828601613daf565b92505060206149a485828601613daf565b9150509250929050565b7f45524332303a206275726e2066726f6d20746865207a65726f2061646472657360008201527f7300000000000000000000000000000000000000000000000000000000000000602082015250565b6000614a0a602183613801565b9150614a15826149ae565b604082019050919050565b60006020820190508181036000830152614a39816149fd565b9050919050565b7f45524332303a206275726e20616d6f756e7420657863656564732062616c616e60008201527f6365000000000000000000000000000000000000000000000000000000000000602082015250565b6000614a9c602283613801565b9150614aa782614a40565b604082019050919050565b60006020820190508181036000830152614acb81614a8f565b905091905056fea26469706673582212205acb0ad4b551c35b6efcc03b0b9d2ec5cdaa49f0f3558dedd63161911f8478a564736f6c634300080a0033",
  "immutableReferences": {
    "1955": [
      {
        "length": 32,
        "start": 4240
      },
      {
        "length": 32,
        "start": 11029
      }
    ],
    "1958": [
      {
        "length": 32,
        "start": 3690
      },
      {
        "length": 32,
        "start": 4084
      },
      {
        "length": 32,
        "start": 10326
      }
    ],
    "1961": [
      {
        "length": 32,
        "start": 3092
      },
      {
        "length": 32,
        "start": 3854
      }
    ]
  },
  "source": "pragma solidity ^0.8.10; \npragma abicoder v2;  \n\nimport \"../DjinnBottleUSDC.sol\"; \nimport \"../interfaces/CTokenInterfaces.sol\"; \nimport \"../interfaces/ComptrollerInterface.sol\";  \nimport \"../interfaces/IStdReference.sol\"; \nimport \"@uniswap/v2-periphery/contracts/interfaces/IUniswapV2Router02.sol\"; \nimport \"../interfaces/IMasterChef.sol\"; \nimport \"@openzeppelin/contracts/token/ERC20/IERC20.sol\"; \n\n\ncontract ShortFarmFTM is ERC20 {\n\t\n\t//Contract Spec/if ifics \n\taddress public creator; \n\tuint private constant CREATOR_FEE = 100; //1% \n\taddress public treasuryWallet;  \n\tDjinnBottleUSDC public VAULT; \n\n\t//Test Variables\n\tuint public ass; \n\taddress[] public balls; \n\t\n\t//Balances For Withdraw\n\tstruct Depositor {\n\t\tuint crUSDCBalance; //each token earns a different deposit amount //8 decimals \n\t\tuint crETHBalance; //8 decimals \n\t\tuint tokenBorrowBalance; //18 decimals  \n\t}\n\n\tmapping(address => Depositor) public depositors; \n\n\t//Cream Finance Contracts (also just the Iron Bank Contracts)\n\taddress public constant crUSDC = 0x328A7b4d538A2b3942653a9983fdA3C12c571141; \n\taddress public constant crETH = 0xcc3E89fBc10e155F1164f8c9Cf0703aCDe53f6Fd; \n\n\t//Public Tokens\n\taddress public constant USDC = 0x04068DA6C83AFCFA0e13ba15A6696662335D5B75; \n\taddress public constant WETH = 0x74b23882a30290451A17c44f4F05243b6b58C76d; \n\taddress public constant WFTM = 0x21be370D5312f44cB42ce377BC9b8a0cEF1A4C83; \n\taddress public constant TOMB = 0x6c021Ae822BEa943b2E66552bDe1D2696a53fbB7; \n\taddress public constant TSHARE = 0x4cdF39285D7Ca8eB3f090fDA0C069ba5F4145B37; \n\t\n\t//SpookySwap Router, LP, TSHAREPool \n\taddress public constant spookyAddress = 0xF491e7B69E4244ad4002BC14e878a34207E38c29;\t\t\n\taddress public constant spookyFtmTombLP = 0x2A651563C9d3Af67aE0388a5c8F89b867038089e; \n\taddress public constant tShareRewardPool = 0xcc0a87F7e7c693042a9Cc703661F5060c80ACb43; \n\n\n\t//Contract Interfaces  \n\tIUniswapV2Router02 public immutable spookyRouter; \n\tComptrollerInterface public immutable comptroller; \n\tIStdReference public immutable priceOracle;\n\t\n\n\n\tconstructor(DjinnBottleUSDC _djBottle, \t\n\t\t\t\tIUniswapV2Router02 _spookyRouter, \n\t\t\t\tComptrollerInterface _comptroller, \n\t\t\t\tIStdReference _priceOracle) ERC20(\"Djinn FTM Short Farm\", \"dFTMShort\") {\n\t\t\t\t\tcreator = msg.sender;\n\t\t\t\t\tVAULT = _djBottle; \n\t\t\t\t\tspookyRouter = _spookyRouter; \n\t\t\t\t\tcomptroller = _comptroller;  \n\t\t\t\t\tpriceOracle = _priceOracle; \t\n\t\t\t\t}\n\n\t//TODO: swap 50% USDC for 50% FTM to protect against price appreciation \t\n\t//designed for single user ie. user opens via vault contract \t\n\tfunction open(address user, uint amount) external {\n\t\trequire(msg.sender == address(VAULT), \"!vault\"); \n\t\tsplit(user, amount); \n\t}\n\n\t//automate the harvest \n\tfunction harvest() external {\n\t\trequire(msg.sender == address(VAULT), \"!vault\"); \n\t\tIMasterChef(tShareRewardPool).deposit(0, 0); //0 is poolId and we call a deposit of 0 to allocate the shares to this contract\n\t\t//sellAndSwap(); //sell tshare for 50% TOMB 50% WFTM \n\t//\tgetLPTokens(); \n\t\t//depositLPGetTShare(); \n\t}\n\t\n\t//automate the closing of the position\n\t//designed for single use ie. user closes via vault contract \t\n\t//so we need to vault contract to determine how many tokens belong to the user from this contract \n\tfunction close(address user, uint amountShares) external {\n\t\trequire(msg.sender == address(VAULT), \"!vault\"); \n\t\t//swap all LP tokens back to underlying \n\t\twithdrawLP(user, amountShares);\n\t}\n\n\t////////////////// BEGIN DEPOSIT LOGIC //////////////////  \n\n\tfunction split(address user, uint amount) internal {\n\t\tuint swapAmount = (amount * 70) / 100; \n\t\tswap(USDC, WETH, swapAmount); \n\t\tuint usdcAmount = getTokenBalance(USDC);\n\t\tuint wethAmount = getTokenBalance(WETH); \n\t\t//next step\n\t\tborrow(user, usdcAmount, wethAmount);\n\t}\n\t\n\t//we are borrowing the same amount of deposited ETH to achieve a vault that does not get liquidated\t\n\tfunction borrow(address user, uint amountUSDC, uint amountWETH) internal {\n\t\t//first check for any leftovers in the contract\n\t\tuint cTokenUSDCBefore = CERC20(crUSDC).balanceOf(address(this)); \n\t\tuint cTokenETHBefore = CERC20(crETH).balanceOf(address(this)); \n\n\t\t//supply USDC && WETH\n\t\tIERC20(USDC).approve(crUSDC, amountUSDC); \n\t\tCERC20(crUSDC).mint(amountUSDC);\n\t\tass = amountUSDC; \t\n\n\t\tIERC20(WETH).approve(crETH, amountWETH); \n\t\tCERC20(crETH).mint(amountWETH); \n\t\t\n\t\tuint cTokenUSDCAfter = CERC20(crUSDC).balanceOf(address(this)); \n\t\tuint cTokenETHAfter = CERC20(crETH).balanceOf(address(this));  \n\t\tuint cTokenUSDCAmount = cTokenUSDCAfter - cTokenUSDCBefore; \n\t\tuint cTokenETHAmount = cTokenETHAfter - cTokenETHBefore; \n\t\t\n\t\t//store cTokens user amounts separate due to different interest rates \n\t\tdepositors[user].crUSDCBalance += cTokenUSDCAmount; \n\t\tdepositors[user].crETHBalance += cTokenETHAmount; \n\t\tVAULT.storeCrTokens(user, cTokenUSDCAmount, cTokenETHAmount); \n\t\n\t\t//we enter the markets to use usdc && wftm as collateral \t\n\t\taddress[] memory cTokenSupplied = new address[](2); \n\t\tcTokenSupplied[0] = crUSDC; //cToken address\n\t\tcTokenSupplied[1] = crETH; \n\t\tcomptroller.enterMarkets(cTokenSupplied); \n\t\t\n\t\tuint borrowBalanceBefore = borrowBalance(); \t\n\t\t//get max borrow && borrow  \n\t\t( ,uint borrowAmount, ) = getBorrowAmount();\n\t\tCERC20(crETH).borrow(borrowAmount);  \n\t\t\n\t\tuint borrowBalanceAfter = borrowBalance(); \n\t\tdepositors[user].tokenBorrowBalance += (borrowBalanceAfter - borrowBalanceBefore);   \n\n\t\t//next step \n\t\t//swapForTokens(); \n\t}\n\n\tfunction swapForTokens() internal {\n\t\tuint half = (getTokenBalance(WETH) * 50) / 100; \n\t\tIERC20(WETH).approve(spookyAddress, getTokenBalance(WETH)); \n\t\t\n\t\t//execute the swap here \n\t\tswap(WETH, WFTM, half);  \n\t\tuint rest = getTokenBalance(WETH); \n\n\t\tswap(WETH, TOMB, rest);\n\t\t\n\t\t//next step \n\t\tgetLPTokens(); \n\t}\n\n\tfunction getLPTokens() internal {\n\t\t//we need to approve the router to spend our TOMB\n\t\tuint wftmAmount = getTokenBalance(WFTM); \n\t\tuint tombAmount = getTokenBalance(TOMB); \n\n\t\t//now we add liquidity \n\t\t//@params token, tokenAmount, minToken, minETH, to, deadline\n\t\tIERC20(TOMB).approve(spookyAddress, tombAmount); \n\t\tIERC20(WFTM).approve(spookyAddress, wftmAmount); \n\t\tuint lpTokenBalanceBefore = getTokenBalance(spookyFtmTombLP); \n\t\tspookyRouter.addLiquidity(TOMB, WFTM, tombAmount, wftmAmount, 1, 1, address(this), block.timestamp + 30); \n\t\tuint lpTokenBalanceAfter = getTokenBalance(spookyFtmTombLP); \n\t\tuint lpTokenToMint = lpTokenBalanceAfter - lpTokenBalanceBefore; \n\t\t_mint(address(this), lpTokenToMint); \n\n\t\tdepositLPGetTShare(lpTokenToMint); \n\t}\n\t\n\tfunction depositLPGetTShare(uint lpTokenAmount) internal {\n\t\t//deposit into tshare vault using _pid but idk how to get that currently \t\n\t\t//after this deposit the contract should be earning tshares as a reward \n\t\tIERC20(spookyFtmTombLP).approve(tShareRewardPool, lpTokenAmount); \n\t\tIMasterChef(tShareRewardPool).deposit(0, lpTokenAmount); //FTM-TOMB pool ID is 0 on Tomb.finance  \n\t}\n\n\t////////////////// DEPOSIT LOGIC ENDS  ////////////////// \n\n\t////////////////// BEGIN WITHDRAW LOGIC  ////////////////// \n\t\n\t//the shares are based on the dUSDC in the users wallet \n\tfunction withdrawLP(address user, uint amountShares) internal {\n\t\tuint strategyBalance = getTokenBalance(address(this)); //18 decimals \n\t\tuint totalShares = IERC20(address(VAULT)).totalSupply(); //8 decimals \n\n\t\tuint withdrawAmount = (strategyBalance / totalShares) * amountShares;\n\n\t\t//handle rounding error case on full vault withdrawl \n\t\tif (withdrawAmount > strategyBalance) {\n\t\t\twithdrawAmount = strategyBalance; \n\t\t}\n\n\t\t//we first withdraw the LP tokens from TOMB  \n\t\t///we have to check the balances before and after the withdrawl in case there are leftovers \n\t\tuint amountBefore = getTokenBalance(spookyFtmTombLP); \n\t\tIMasterChef(tShareRewardPool).withdraw(0, withdrawAmount);  \n\t\tuint amountAfter = getTokenBalance(spookyFtmTombLP); \n\t\tuint lpTokenAmount = amountAfter - amountBefore; \n\n\t\tremoveLiq(user, lpTokenAmount, amountShares); \n\t}\n\n\tfunction removeLiq(address user, uint lpTokenAmount, uint amountShares) internal {\t\t \n\t\t//we remove liquidity belonging to the user(amount) back for tomb + wftm \n\t\tuint wftmBefore = getTokenBalance(WFTM); \n\t\tuint tombBefore = getTokenBalance(TOMB); \n\n\t\tIERC20(spookyFtmTombLP).approve(spookyAddress, lpTokenAmount); \n\t\tspookyRouter.removeLiquidity(\n\t\t\tWFTM,\n\t\t\tTOMB, \n\t\t\tlpTokenAmount,\n\t\t   \t1,\n\t\t   \t1,\n\t\t   \taddress(this),\n\t\t   \tblock.timestamp + 30\n\t\t); \n\n\t\t_burn(address(this), lpTokenAmount); \n\n\t\tuint wftmAfter = getTokenBalance(WFTM); \n\t\tuint tombAfter = getTokenBalance(TOMB); \n\n\t\tuint wftmToSwap = wftmAfter - wftmBefore; \n\t\tuint tombToSwap = tombAfter - tombBefore; \n\t\tIERC20(WFTM).approve(spookyAddress, wftmToSwap); \n\t\tIERC20(TOMB).approve(spookyAddress, tombToSwap); \n\n\t\tuint ethBefore = getTokenBalance(WETH); \n\t\t//execute the swaps \n\t\tswap(WFTM, WETH, wftmToSwap); \n\t\tswap(TOMB, WETH, tombToSwap); \n\t\tuint ethAfter = getTokenBalance(WETH); \n\t\tuint ethAfterSwap = ethAfter - ethBefore; \n\n\t\t//next step\t\n\t\trepay(user, amountShares, ethAfterSwap); \n\t}\n\t\n\tfunction repay(address user, uint amountShares, uint ethAfterSwap) internal {\n\t\tuint profits; \n\t\tuint amountToRepay;\n\t\tif (ethAfterSwap > depositors[user].tokenBorrowBalance) {\n\t\t\tprofits = ethAfterSwap - depositors[user].tokenBorrowBalance; \n\t\t\tamountToRepay = depositors[user].tokenBorrowBalance; \n\t\t\tdepositors[user].tokenBorrowBalance = 0; \n\t\t} else {\n\t\t\tprofits = 0; \n\t\t\tamountToRepay = ethAfterSwap; \n\t\t\tdepositors[user].tokenBorrowBalance -= ethAfterSwap; \n\t\t}\t\n\n\t\t(uint ethShares, uint usdcShares) = splitShares(amountShares);\n\t\tuint redeemAmountUSDC = depositors[user].crUSDCBalance - usdcShares; \n\t\tuint redeemAmountETH = ethAfterSwap; \n\n\t\t//need a way to split shares into equal parts USDC and WFTM \t\n\t\tdepositors[user].crETHBalance -= ethShares; \n\t\tdepositors[user].crUSDCBalance -= usdcShares; \n\n\t\n\t\t//account for rounding errors if last person in vault wants to withdraw \n\t\tif (amountToRepay > borrowBalance()) {\n\t\t\tamountToRepay = borrowBalance(); \n\t\t}\n\n\t\t//now we can repay our users borrow\n\t\tIERC20(WETH).approve(crETH, amountToRepay);\n\t\tCERC20(crETH).repayBorrow(amountToRepay); \t\n\n\t\t//redeem initial deposit amount + interest \n\t\tuint ethBefore = getTokenBalance(WETH); \n\t\t\n\t\t//NOTE: May have to use new CERC20 balance to update crETH and crUSDC user balance \n\t\tCERC20(crUSDC).redeem(redeemAmountUSDC); \n\t\tCERC20(crETH).redeem(redeemAmountETH);\n\n\t\tuint ethAfter = getTokenBalance(WETH); \n\t\tuint ethAmount = ethAfter - ethBefore; \n\n\t\t//one final check for dust \n\t\tif (profits > getTokenBalance(WETH)) {\n\t\t\tprofits = getTokenBalance(WETH); \n\t\t}\n\n\t\t//final step \n\t\tswapProfits(ethAmount); \n\t}\n\n\t//swap wftm for usdc and send back to vault\n\tfunction swapProfits(uint ethAmount) internal {\t\n\t\tuint usdcBefore = getTokenBalance(USDC); \n\t\tswap(WETH, USDC, ethAmount); \n\t\tuint usdcAfter = getTokenBalance(USDC); \n\t\tuint totalToSend = usdcAfter - usdcBefore; \n\n\t\tIERC20(USDC).transfer(address(VAULT), totalToSend); \n\t}\n\n\t////////////////// END WITHDRAW LOGIC ////////////////// \n\n\t////////////////// BEGIN HARVEST LOGIC ////////////////// \n\t\n\t//sells tshares for tomb and wftm tokens \n\tfunction compoundLPTokens() internal {\n\t\tuint tsharesInitial = getTokenBalance(TSHARE); \n\t\tuint harvestFee = chargeFeesOnHarvest(tsharesInitial); \n\t\tIERC20(TSHARE).transfer(treasuryWallet, harvestFee); //goes to vault and will be swapped for gas  \n\n\t\tuint tshares = getTokenBalance(TSHARE);  //update amount \n\t\tuint half = (tshares * 50) / 100; \n\t\tIERC20(TSHARE).approve(spookyAddress, tshares); \n\t\t//true for 3 route swap \n\t\tswap(TSHARE, TOMB, half); \n\t\n\t\t//swap rest to WFTM \n\t\t//call again to avoid rounding errors \n\t\tuint rest = getTokenBalance(TSHARE); \n\t\tswap(TSHARE, WFTM, rest); \t\n\t}\n\n\t////////////////// END HARVEST LOGIC ////////////////// \n\n\t////////////////// BEGIN HELPER LOGIC ////////////////// \n\n\t function swap(address tokenIn, address tokenOut, uint amount) internal {\t\n\t\tIERC20(tokenIn).approve(spookyAddress, amount); \n\t\taddress[] memory path; \n\n\t\tif (tokenIn == WFTM || tokenOut == WFTM) {\n\t\t\tpath = new address[](2); \n\t\t\tpath[0] = tokenIn; \n\t\t\tpath[1] = tokenOut; \n\t\t} else {\n\t\t\tpath = new address[](3); \n\t\t\tpath[0] = tokenIn; \n\t\t\tpath[1] = WFTM; \n\t\t\tpath[2] = tokenOut; \t\n\t\t}\n\n\n\t  \tIUniswapV2Router02(spookyAddress).swapExactTokensForTokens(\n   \t\t\tamount, \n\t  \t\t0, //min amount out \n\t  \t\tpath, \n\t  \t\taddress(this),\n\t  \t\tblock.timestamp + 30\n\t \t); \n\t}\n\n\t//returuns USD value of deposited assets, how much can be borrowed, and the price of the borrowed asset \n\tfunction getBorrowAmount() public view returns(uint liquidity, uint borrowAmount, uint price) {\n\t\t(, liquidity,) = comptroller.getAccountLiquidity(address(this)); \n\t\tIStdReference.ReferenceData memory data = priceOracle.getReferenceData(\"ETH\", \"USDC\"); \n\t\tprice = data.rate; \n\n\t\tuint maxTokenBorrow = (liquidity * 1e18) / price; //ETH has 18 decimals   \t\n\t\tborrowAmount = (maxTokenBorrow * 94) / 100; //this is token amount  \n\n\t\treturn (liquidity, borrowAmount, price); \n\t}\n\n\tfunction splitShares(uint amountShares) internal view returns(uint, uint) {\n\t\tuint ethShares = (amountShares * 70) / 100; \n\t\tuint usdcShares = amountShares - ethShares; \n\n\t\treturn (ethShares, usdcShares); \n\t}\n\t\n\tfunction chargeFeesOnHarvest(uint amount) internal view returns(uint feeAmount) {\n\t\treturn feeAmount = (amount * CREATOR_FEE) / 1e4; //0.1 or 1% \n\t}\n\n\tfunction getTokenBalance(address token) internal view returns(uint amount) {\n\t\treturn amount = IERC20(token).balanceOf(address(this)); \n\t}\n\n\tfunction setTreasury(address wallet) external {\n\t\trequire(msg.sender == address(VAULT), \"!vault\"); \n\t\ttreasuryWallet = wallet; \t\t\n\t}\n\n\tfunction getUnderlying() public returns(uint) {\n\t\treturn CERC20(crUSDC).balanceOfUnderlying(address(this)); //this returns the underlying USDC amount in 6 decimals \n\t}\n\n\tfunction borrowBalance() public returns(uint) {\n\t\treturn CERC20(crETH).borrowBalanceCurrent(address(this)); \n\t}\n\n\treceive() external payable{} \t\n} \n",
  "sourcePath": "/home/kevin/Code/solidity_projects/djinn/contracts/strategies/CreamFtmTombStrategy.sol",
  "compiler": {
    "name": "solc",
    "version": "0.8.10+commit.fc410830.Emscripten.clang"
  },
  "schemaVersion": "3.4.3",
  "updatedAt": "2022-02-27T19:17:12.061Z",
  "networkType": "ethereum",
  "devdoc": {
    "kind": "dev",
    "methods": {
      "allowance(address,address)": {
        "details": "See {IERC20-allowance}."
      },
      "approve(address,uint256)": {
        "details": "See {IERC20-approve}. Requirements: - `spender` cannot be the zero address."
      },
      "balanceOf(address)": {
        "details": "See {IERC20-balanceOf}."
      },
      "decimals()": {
        "details": "Returns the number of decimals used to get its user representation. For example, if `decimals` equals `2`, a balance of `505` tokens should be displayed to a user as `5.05` (`505 / 10 ** 2`). Tokens usually opt for a value of 18, imitating the relationship between Ether and Wei. This is the value {ERC20} uses, unless this function is overridden; NOTE: This information is only used for _display_ purposes: it in no way affects any of the arithmetic of the contract, including {IERC20-balanceOf} and {IERC20-transfer}."
      },
      "decreaseAllowance(address,uint256)": {
        "details": "Atomically decreases the allowance granted to `spender` by the caller. This is an alternative to {approve} that can be used as a mitigation for problems described in {IERC20-approve}. Emits an {Approval} event indicating the updated allowance. Requirements: - `spender` cannot be the zero address. - `spender` must have allowance for the caller of at least `subtractedValue`."
      },
      "increaseAllowance(address,uint256)": {
        "details": "Atomically increases the allowance granted to `spender` by the caller. This is an alternative to {approve} that can be used as a mitigation for problems described in {IERC20-approve}. Emits an {Approval} event indicating the updated allowance. Requirements: - `spender` cannot be the zero address."
      },
      "name()": {
        "details": "Returns the name of the token."
      },
      "symbol()": {
        "details": "Returns the symbol of the token, usually a shorter version of the name."
      },
      "totalSupply()": {
        "details": "See {IERC20-totalSupply}."
      },
      "transfer(address,uint256)": {
        "details": "See {IERC20-transfer}. Requirements: - `recipient` cannot be the zero address. - the caller must have a balance of at least `amount`."
      },
      "transferFrom(address,address,uint256)": {
        "details": "See {IERC20-transferFrom}. Emits an {Approval} event indicating the updated allowance. This is not required by the EIP. See the note at the beginning of {ERC20}. Requirements: - `sender` and `recipient` cannot be the zero address. - `sender` must have a balance of at least `amount`. - the caller must have allowance for ``sender``'s tokens of at least `amount`."
      }
    },
    "version": 1
  },
  "userdoc": {
    "kind": "user",
    "methods": {},
    "version": 1
  }
}