{
  "contractName": "Swap",
  "abi": [
    {
      "inputs": [],
      "name": "TOMB",
      "outputs": [
        {
          "internalType": "address",
          "name": "",
          "type": "address"
        }
      ],
      "stateMutability": "view",
      "type": "function"
    },
    {
      "inputs": [],
      "name": "WFTM",
      "outputs": [
        {
          "internalType": "address",
          "name": "",
          "type": "address"
        }
      ],
      "stateMutability": "view",
      "type": "function"
    },
    {
      "inputs": [],
      "name": "spookyAddress",
      "outputs": [
        {
          "internalType": "address",
          "name": "",
          "type": "address"
        }
      ],
      "stateMutability": "view",
      "type": "function"
    },
    {
      "inputs": [
        {
          "internalType": "uint256",
          "name": "amount",
          "type": "uint256"
        }
      ],
      "name": "deposit",
      "outputs": [],
      "stateMutability": "nonpayable",
      "type": "function"
    },
    {
      "inputs": [],
      "name": "swap",
      "outputs": [],
      "stateMutability": "nonpayable",
      "type": "function"
    }
  ],
  "bytecode": "0x608060405234801561001057600080fd5b506109f9806100206000396000f3fe608060405234801561001057600080fd5b50600436106100575760003560e01c806321dbe8761461005c5780638119c0651461007a578063a6f8d40514610084578063b6b55f25146100a2578063c139acfa146100be575b600080fd5b6100646100dc565b60405161007191906104ed565b60405180910390f35b6100826100f4565b005b61008c6103e4565b60405161009991906104ed565b60405180910390f35b6100bc60048036038101906100b79190610552565b6103fc565b005b6100c6610494565b6040516100d391906104ed565b60405180910390f35b7321be370d5312f44cb42ce377bc9b8a0cef1a4c8381565b60007321be370d5312f44cb42ce377bc9b8a0cef1a4c8373ffffffffffffffffffffffffffffffffffffffff166370a08231306040518263ffffffff1660e01b815260040161014391906104ed565b602060405180830381865afa158015610160573d6000803e3d6000fd5b505050506040513d601f19601f820116820180604052508101906101849190610594565b90507321be370d5312f44cb42ce377bc9b8a0cef1a4c8373ffffffffffffffffffffffffffffffffffffffff1663095ea7b373f491e7b69e4244ad4002bc14e878a34207e38c29836040518363ffffffff1660e01b81526004016101e99291906105d0565b6020604051808303816000875af1158015610208573d6000803e3d6000fd5b505050506040513d601f19601f8201168201806040525081019061022c9190610631565b506000600267ffffffffffffffff81111561024a5761024961065e565b5b6040519080825280602002602001820160405280156102785781602001602082028036833780820191505090505b5090507321be370d5312f44cb42ce377bc9b8a0cef1a4c83816000815181106102a4576102a361068d565b5b602002602001019073ffffffffffffffffffffffffffffffffffffffff16908173ffffffffffffffffffffffffffffffffffffffff1681525050736c021ae822bea943b2e66552bde1d2696a53fbb7816001815181106103075761030661068d565b5b602002602001019073ffffffffffffffffffffffffffffffffffffffff16908173ffffffffffffffffffffffffffffffffffffffff168152505073f491e7b69e4244ad4002bc14e878a34207e38c2973ffffffffffffffffffffffffffffffffffffffff166338ed17398360008430426040518663ffffffff1660e01b81526004016103979594939291906107bf565b6000604051808303816000875af11580156103b6573d6000803e3d6000fd5b505050506040513d6000823e3d601f19601f820116820180604052508101906103df9190610943565b505050565b73f491e7b69e4244ad4002bc14e878a34207e38c2981565b7321be370d5312f44cb42ce377bc9b8a0cef1a4c8373ffffffffffffffffffffffffffffffffffffffff166323b872dd3330846040518463ffffffff1660e01b815260040161044d9392919061098c565b6020604051808303816000875af115801561046c573d6000803e3d6000fd5b505050506040513d601f19601f820116820180604052508101906104909190610631565b5050565b736c021ae822bea943b2e66552bde1d2696a53fbb781565b600073ffffffffffffffffffffffffffffffffffffffff82169050919050565b60006104d7826104ac565b9050919050565b6104e7816104cc565b82525050565b600060208201905061050260008301846104de565b92915050565b6000604051905090565b600080fd5b600080fd5b6000819050919050565b61052f8161051c565b811461053a57600080fd5b50565b60008135905061054c81610526565b92915050565b60006020828403121561056857610567610512565b5b60006105768482850161053d565b91505092915050565b60008151905061058e81610526565b92915050565b6000602082840312156105aa576105a9610512565b5b60006105b88482850161057f565b91505092915050565b6105ca8161051c565b82525050565b60006040820190506105e560008301856104de565b6105f260208301846105c1565b9392505050565b60008115159050919050565b61060e816105f9565b811461061957600080fd5b50565b60008151905061062b81610605565b92915050565b60006020828403121561064757610646610512565b5b60006106558482850161061c565b91505092915050565b7f4e487b7100000000000000000000000000000000000000000000000000000000600052604160045260246000fd5b7f4e487b7100000000000000000000000000000000000000000000000000000000600052603260045260246000fd5b6000819050919050565b6000819050919050565b60006106eb6106e66106e1846106bc565b6106c6565b61051c565b9050919050565b6106fb816106d0565b82525050565b600081519050919050565b600082825260208201905092915050565b6000819050602082019050919050565b610736816104cc565b82525050565b6000610748838361072d565b60208301905092915050565b6000602082019050919050565b600061076c82610701565b610776818561070c565b93506107818361071d565b8060005b838110156107b2578151610799888261073c565b97506107a483610754565b925050600181019050610785565b5085935050505092915050565b600060a0820190506107d460008301886105c1565b6107e160208301876106f2565b81810360408301526107f38186610761565b905061080260608301856104de565b61080f60808301846105c1565b9695505050505050565b600080fd5b6000601f19601f8301169050919050565b6108388261081e565b810181811067ffffffffffffffff821117156108575761085661065e565b5b80604052505050565b600061086a610508565b9050610876828261082f565b919050565b600067ffffffffffffffff8211156108965761089561065e565b5b602082029050602081019050919050565b600080fd5b60006108bf6108ba8461087b565b610860565b905080838252602082019050602084028301858111156108e2576108e16108a7565b5b835b8181101561090b57806108f7888261057f565b8452602084019350506020810190506108e4565b5050509392505050565b600082601f83011261092a57610929610819565b5b815161093a8482602086016108ac565b91505092915050565b60006020828403121561095957610958610512565b5b600082015167ffffffffffffffff81111561097757610976610517565b5b61098384828501610915565b91505092915050565b60006060820190506109a160008301866104de565b6109ae60208301856104de565b6109bb60408301846105c1565b94935050505056fea2646970667358221220e8cee36c2fc704c5041b6a92586aa03709572bb032512407c3416cf8d12b6d1764736f6c634300080a0033",
  "immutableReferences": {},
  "source": "pragma solidity >=0.8.0;\n\nimport \"@openzeppelin/contracts/token/ERC20/IERC20.sol\";\nimport \"@uniswap/v2-periphery/contracts/interfaces/IUniswapV2Router02.sol\";\n\ncontract Swap{ \n\n\n\taddress public constant WFTM = 0x21be370D5312f44cB42ce377BC9b8a0cEF1A4C83;\n\taddress public constant TOMB = 0x6c021Ae822BEa943b2E66552bDe1D2696a53fbB7;\n\taddress public constant spookyAddress = 0xF491e7B69E4244ad4002BC14e878a34207E38c29;\t\t\n\t\n\tfunction deposit(uint amount) external {\n\t\tIERC20(WFTM).transferFrom(msg.sender, address(this), amount); \n\t}\n\n\tfunction swap() external {\n\t\tuint balance = IERC20(WFTM).balanceOf(address(this)); \n\t\tIERC20(WFTM).approve(spookyAddress, balance); \n\n\t\taddress[] memory path = new address[](2); \n\t\tpath[0] = WFTM; \n\t\tpath[1] = TOMB;\n\t\tIUniswapV2Router02(spookyAddress).swapExactTokensForTokens(\n\t\t\tbalance, \n\t\t\t0, \n\t\t\tpath, \n\t\t\taddress(this),\n\t\t\tblock.timestamp\n\t\t); \n\n\t}\n\n}\n",
  "sourcePath": "/home/kevin/Code/solidity_projects/djinn/contracts/testSwap.sol",
  "compiler": {
    "name": "solc",
    "version": "0.8.10+commit.fc410830.Emscripten.clang"
  },
  "schemaVersion": "3.4.3",
  "updatedAt": "2022-02-05T13:08:00.213Z",
  "devdoc": {
    "kind": "dev",
    "methods": {},
    "version": 1
  },
  "userdoc": {
    "kind": "user",
    "methods": {},
    "version": 1
  }
}